{
	"contracts/dex.sol": {
		"DecentralizedExchange": {
			"abi": [
				{
					"inputs": [],
					"stateMutability": "nonpayable",
					"type": "constructor"
				},
				{
					"anonymous": false,
					"inputs": [
						{
							"indexed": true,
							"internalType": "address",
							"name": "aaccount",
							"type": "address"
						},
						{
							"indexed": false,
							"internalType": "uint256",
							"name": "amount",
							"type": "uint256"
						}
					],
					"name": "Deposit",
					"type": "event"
				},
				{
					"anonymous": false,
					"inputs": [
						{
							"indexed": true,
							"internalType": "address",
							"name": "buyer",
							"type": "address"
						},
						{
							"indexed": true,
							"internalType": "address",
							"name": "seller",
							"type": "address"
						},
						{
							"indexed": false,
							"internalType": "uint256",
							"name": "amount",
							"type": "uint256"
						},
						{
							"indexed": false,
							"internalType": "uint256",
							"name": "price",
							"type": "uint256"
						}
					],
					"name": "Trade",
					"type": "event"
				},
				{
					"anonymous": false,
					"inputs": [
						{
							"indexed": true,
							"internalType": "address",
							"name": "account",
							"type": "address"
						},
						{
							"indexed": false,
							"internalType": "uint256",
							"name": "amount",
							"type": "uint256"
						}
					],
					"name": "Withdrawal",
					"type": "event"
				},
				{
					"stateMutability": "payable",
					"type": "fallback"
				},
				{
					"inputs": [
						{
							"internalType": "uint256",
							"name": "amount",
							"type": "uint256"
						}
					],
					"name": "deposit",
					"outputs": [],
					"stateMutability": "payable",
					"type": "function"
				},
				{
					"inputs": [],
					"name": "owner",
					"outputs": [
						{
							"internalType": "address",
							"name": "",
							"type": "address"
						}
					],
					"stateMutability": "view",
					"type": "function"
				},
				{
					"inputs": [
						{
							"internalType": "address",
							"name": "seller",
							"type": "address"
						},
						{
							"internalType": "uint256",
							"name": "amount",
							"type": "uint256"
						},
						{
							"internalType": "uint256",
							"name": "price",
							"type": "uint256"
						}
					],
					"name": "trade",
					"outputs": [],
					"stateMutability": "nonpayable",
					"type": "function"
				},
				{
					"inputs": [
						{
							"internalType": "uint256",
							"name": "amount",
							"type": "uint256"
						}
					],
					"name": "withdraw",
					"outputs": [],
					"stateMutability": "nonpayable",
					"type": "function"
				},
				{
					"stateMutability": "payable",
					"type": "receive"
				}
			],
			"devdoc": {
				"kind": "dev",
				"methods": {},
				"version": 1
			},
			"evm": {
				"assembly": "    /* \"contracts/dex.sol\":58:1632  contract DecentralizedExchange {... */\n  mstore(0x40, 0x80)\n    /* \"contracts/dex.sol\":383:432  constructor() {... */\n  callvalue\n  dup1\n  iszero\n  tag_1\n  jumpi\n  0x00\n  dup1\n  revert\ntag_1:\n  pop\n    /* \"contracts/dex.sol\":415:425  msg.sender */\n  caller\n    /* \"contracts/dex.sol\":407:412  owner */\n  0x00\n  dup1\n    /* \"contracts/dex.sol\":407:425  owner = msg.sender */\n  0x0100\n  exp\n  dup2\n  sload\n  dup2\n  0xffffffffffffffffffffffffffffffffffffffff\n  mul\n  not\n  and\n  swap1\n  dup4\n  0xffffffffffffffffffffffffffffffffffffffff\n  and\n  mul\n  or\n  swap1\n  sstore\n  pop\n    /* \"contracts/dex.sol\":58:1632  contract DecentralizedExchange {... */\n  dataSize(sub_0)\n  dup1\n  dataOffset(sub_0)\n  0x00\n  codecopy\n  0x00\n  return\nstop\n\nsub_0: assembly {\n        /* \"contracts/dex.sol\":58:1632  contract DecentralizedExchange {... */\n      mstore(0x40, 0x80)\n      jumpi(tag_1, lt(calldatasize, 0x04))\n      shr(0xe0, calldataload(0x00))\n      dup1\n      0x2e1a7d4d\n      eq\n      tag_3\n      jumpi\n      dup1\n      0x8da5cb5b\n      eq\n      tag_4\n      jumpi\n      dup1\n      0xb44b96e1\n      eq\n      tag_5\n      jumpi\n      dup1\n      0xb6b55f25\n      eq\n      tag_6\n      jumpi\n      jump(tag_2)\n    tag_1:\n      jumpi(tag_2, calldatasize)\n      stop\n    tag_2:\n      stop\n        /* \"contracts/dex.sol\":639:960  function withdraw(uint256 amount) public {... */\n    tag_3:\n      callvalue\n      dup1\n      iszero\n      tag_11\n      jumpi\n      0x00\n      dup1\n      revert\n    tag_11:\n      pop\n      tag_12\n      0x04\n      dup1\n      calldatasize\n      sub\n      dup2\n      add\n      swap1\n      tag_13\n      swap2\n      swap1\n      tag_14\n      jump\t// in\n    tag_13:\n      tag_15\n      jump\t// in\n    tag_12:\n      stop\n        /* \"contracts/dex.sol\":95:115  address public owner */\n    tag_4:\n      callvalue\n      dup1\n      iszero\n      tag_16\n      jumpi\n      0x00\n      dup1\n      revert\n    tag_16:\n      pop\n      tag_17\n      tag_18\n      jump\t// in\n    tag_17:\n      mload(0x40)\n      tag_19\n      swap2\n      swap1\n      tag_20\n      jump\t// in\n    tag_19:\n      mload(0x40)\n      dup1\n      swap2\n      sub\n      swap1\n      return\n        /* \"contracts/dex.sol\":966:1562  function trade(address seller, uint256 amount, uint256 price) public {... */\n    tag_5:\n      callvalue\n      dup1\n      iszero\n      tag_21\n      jumpi\n      0x00\n      dup1\n      revert\n    tag_21:\n      pop\n      tag_22\n      0x04\n      dup1\n      calldatasize\n      sub\n      dup2\n      add\n      swap1\n      tag_23\n      swap2\n      swap1\n      tag_24\n      jump\t// in\n    tag_23:\n      tag_25\n      jump\t// in\n    tag_22:\n      stop\n        /* \"contracts/dex.sol\":438:633  function deposit(uint256 amount) public payable {... */\n    tag_6:\n      tag_26\n      0x04\n      dup1\n      calldatasize\n      sub\n      dup2\n      add\n      swap1\n      tag_27\n      swap2\n      swap1\n      tag_14\n      jump\t// in\n    tag_27:\n      tag_28\n      jump\t// in\n    tag_26:\n      stop\n        /* \"contracts/dex.sol\":639:960  function withdraw(uint256 amount) public {... */\n    tag_15:\n        /* \"contracts/dex.sol\":707:708  0 */\n      0x00\n        /* \"contracts/dex.sol\":698:704  amount */\n      dup2\n        /* \"contracts/dex.sol\":698:708  amount > 0 */\n      gt\n        /* \"contracts/dex.sol\":690:739  require(amount > 0, \"Invalid withdarawal amount\") */\n      tag_30\n      jumpi\n      mload(0x40)\n      0x08c379a000000000000000000000000000000000000000000000000000000000\n      dup2\n      mstore\n      0x04\n      add\n      tag_31\n      swap1\n      tag_32\n      jump\t// in\n    tag_31:\n      mload(0x40)\n      dup1\n      swap2\n      sub\n      swap1\n      revert\n    tag_30:\n        /* \"contracts/dex.sol\":767:775  balances */\n      0x01\n        /* \"contracts/dex.sol\":767:787  balances[msg.sender] */\n      0x00\n        /* \"contracts/dex.sol\":776:786  msg.sender */\n      caller\n        /* \"contracts/dex.sol\":767:787  balances[msg.sender] */\n      0xffffffffffffffffffffffffffffffffffffffff\n      and\n      0xffffffffffffffffffffffffffffffffffffffff\n      and\n      dup2\n      mstore\n      0x20\n      add\n      swap1\n      dup2\n      mstore\n      0x20\n      add\n      0x00\n      keccak256\n      sload\n        /* \"contracts/dex.sol\":757:763  amount */\n      dup2\n        /* \"contracts/dex.sol\":757:787  amount <= balances[msg.sender] */\n      gt\n      iszero\n        /* \"contracts/dex.sol\":749:812  require(amount <= balances[msg.sender], \"Insufficient balance\") */\n      tag_33\n      jumpi\n      mload(0x40)\n      0x08c379a000000000000000000000000000000000000000000000000000000000\n      dup2\n      mstore\n      0x04\n      add\n      tag_34\n      swap1\n      tag_35\n      jump\t// in\n    tag_34:\n      mload(0x40)\n      dup1\n      swap2\n      sub\n      swap1\n      revert\n    tag_33:\n        /* \"contracts/dex.sol\":855:861  amount */\n      dup1\n        /* \"contracts/dex.sol\":831:839  balances */\n      0x01\n        /* \"contracts/dex.sol\":831:851  balances[msg.sender] */\n      0x00\n        /* \"contracts/dex.sol\":840:850  msg.sender */\n      caller\n        /* \"contracts/dex.sol\":831:851  balances[msg.sender] */\n      0xffffffffffffffffffffffffffffffffffffffff\n      and\n      0xffffffffffffffffffffffffffffffffffffffff\n      and\n      dup2\n      mstore\n      0x20\n      add\n      swap1\n      dup2\n      mstore\n      0x20\n      add\n      0x00\n      keccak256\n      0x00\n        /* \"contracts/dex.sol\":831:861  balances[msg.sender] -= amount */\n      dup3\n      dup3\n      sload\n      tag_36\n      swap2\n      swap1\n      tag_37\n      jump\t// in\n    tag_36:\n      swap3\n      pop\n      pop\n      dup2\n      swap1\n      sstore\n      pop\n        /* \"contracts/dex.sol\":879:889  msg.sender */\n      caller\n        /* \"contracts/dex.sol\":871:899  payable(msg.sender).transfer */\n      0xffffffffffffffffffffffffffffffffffffffff\n      and\n        /* \"contracts/dex.sol\":871:907  payable(msg.sender).transfer(amount) */\n      0x08fc\n        /* \"contracts/dex.sol\":900:906  amount */\n      dup3\n        /* \"contracts/dex.sol\":871:907  payable(msg.sender).transfer(amount) */\n      swap1\n      dup2\n      iszero\n      mul\n      swap1\n      mload(0x40)\n      0x00\n      mload(0x40)\n      dup1\n      dup4\n      sub\n      dup2\n      dup6\n      dup9\n      dup9\n      call\n      swap4\n      pop\n      pop\n      pop\n      pop\n      iszero\n      dup1\n      iszero\n      tag_39\n      jumpi\n      returndatasize\n      0x00\n      dup1\n      returndatacopy\n      revert(0x00, returndatasize)\n    tag_39:\n      pop\n        /* \"contracts/dex.sol\":934:944  msg.sender */\n      caller\n        /* \"contracts/dex.sol\":923:953  Withdrawal(msg.sender, amount) */\n      0xffffffffffffffffffffffffffffffffffffffff\n      and\n      0x7fcf532c15f0a6db0bd6d0e038bea71d30d808c7d98cb3bf7268a95bf5081b65\n        /* \"contracts/dex.sol\":946:952  amount */\n      dup3\n        /* \"contracts/dex.sol\":923:953  Withdrawal(msg.sender, amount) */\n      mload(0x40)\n      tag_40\n      swap2\n      swap1\n      tag_41\n      jump\t// in\n    tag_40:\n      mload(0x40)\n      dup1\n      swap2\n      sub\n      swap1\n      log2\n        /* \"contracts/dex.sol\":639:960  function withdraw(uint256 amount) public {... */\n      pop\n      jump\t// out\n        /* \"contracts/dex.sol\":95:115  address public owner */\n    tag_18:\n      0x00\n      dup1\n      sload\n      swap1\n      0x0100\n      exp\n      swap1\n      div\n      0xffffffffffffffffffffffffffffffffffffffff\n      and\n      dup2\n      jump\t// out\n        /* \"contracts/dex.sol\":966:1562  function trade(address seller, uint256 amount, uint256 price) public {... */\n    tag_25:\n        /* \"contracts/dex.sol\":1071:1072  0 */\n      0x00\n        /* \"contracts/dex.sol\":1053:1073  seller != address(0) */\n      0xffffffffffffffffffffffffffffffffffffffff\n      and\n        /* \"contracts/dex.sol\":1053:1059  seller */\n      dup4\n        /* \"contracts/dex.sol\":1053:1073  seller != address(0) */\n      0xffffffffffffffffffffffffffffffffffffffff\n      and\n      sub\n        /* \"contracts/dex.sol\":1045:1100  require(seller != address(0), \"Invalid seller address\") */\n      tag_43\n      jumpi\n      mload(0x40)\n      0x08c379a000000000000000000000000000000000000000000000000000000000\n      dup2\n      mstore\n      0x04\n      add\n      tag_44\n      swap1\n      tag_45\n      jump\t// in\n    tag_44:\n      mload(0x40)\n      dup1\n      swap2\n      sub\n      swap1\n      revert\n    tag_43:\n        /* \"contracts/dex.sol\":1128:1138  msg.sender */\n      caller\n        /* \"contracts/dex.sol\":1118:1138  seller != msg.sender */\n      0xffffffffffffffffffffffffffffffffffffffff\n      and\n        /* \"contracts/dex.sol\":1118:1124  seller */\n      dup4\n        /* \"contracts/dex.sol\":1118:1138  seller != msg.sender */\n      0xffffffffffffffffffffffffffffffffffffffff\n      and\n      sub\n        /* \"contracts/dex.sol\":1110:1169  require(seller != msg.sender, \"Cannot trade with yourself\") */\n      tag_46\n      jumpi\n      mload(0x40)\n      0x08c379a000000000000000000000000000000000000000000000000000000000\n      dup2\n      mstore\n      0x04\n      add\n      tag_47\n      swap1\n      tag_48\n      jump\t// in\n    tag_47:\n      mload(0x40)\n      dup1\n      swap2\n      sub\n      swap1\n      revert\n    tag_46:\n        /* \"contracts/dex.sol\":1211:1217  amount */\n      dup2\n        /* \"contracts/dex.sol\":1187:1195  balances */\n      0x01\n        /* \"contracts/dex.sol\":1187:1207  balances[msg.sender] */\n      0x00\n        /* \"contracts/dex.sol\":1196:1206  msg.sender */\n      caller\n        /* \"contracts/dex.sol\":1187:1207  balances[msg.sender] */\n      0xffffffffffffffffffffffffffffffffffffffff\n      and\n      0xffffffffffffffffffffffffffffffffffffffff\n      and\n      dup2\n      mstore\n      0x20\n      add\n      swap1\n      dup2\n      mstore\n      0x20\n      add\n      0x00\n      keccak256\n      sload\n        /* \"contracts/dex.sol\":1187:1217  balances[msg.sender] >= amount */\n      lt\n      iszero\n        /* \"contracts/dex.sol\":1179:1240  require(balances[msg.sender] >= amount, \"Insufficient funds\") */\n      tag_49\n      jumpi\n      mload(0x40)\n      0x08c379a000000000000000000000000000000000000000000000000000000000\n      dup2\n      mstore\n      0x04\n      add\n      tag_50\n      swap1\n      tag_51\n      jump\t// in\n    tag_50:\n      mload(0x40)\n      dup1\n      swap2\n      sub\n      swap1\n      revert\n    tag_49:\n        /* \"contracts/dex.sol\":1251:1270  uint256 totalAmount */\n      0x00\n        /* \"contracts/dex.sol\":1282:1287  price */\n      dup2\n        /* \"contracts/dex.sol\":1273:1279  amount */\n      dup4\n        /* \"contracts/dex.sol\":1273:1287  amount * price */\n      tag_52\n      swap2\n      swap1\n      tag_53\n      jump\t// in\n    tag_52:\n        /* \"contracts/dex.sol\":1251:1287  uint256 totalAmount = amount * price */\n      swap1\n      pop\n        /* \"contracts/dex.sol\":1325:1336  totalAmount */\n      dup1\n        /* \"contracts/dex.sol\":1305:1313  balances */\n      0x01\n        /* \"contracts/dex.sol\":1305:1321  balances[seller] */\n      0x00\n        /* \"contracts/dex.sol\":1314:1320  seller */\n      dup7\n        /* \"contracts/dex.sol\":1305:1321  balances[seller] */\n      0xffffffffffffffffffffffffffffffffffffffff\n      and\n      0xffffffffffffffffffffffffffffffffffffffff\n      and\n      dup2\n      mstore\n      0x20\n      add\n      swap1\n      dup2\n      mstore\n      0x20\n      add\n      0x00\n      keccak256\n      sload\n        /* \"contracts/dex.sol\":1305:1336  balances[seller] >= totalAmount */\n      lt\n      iszero\n        /* \"contracts/dex.sol\":1297:1372  require(balances[seller] >= totalAmount, \"Seller has Insufficient balance\") */\n      tag_54\n      jumpi\n      mload(0x40)\n      0x08c379a000000000000000000000000000000000000000000000000000000000\n      dup2\n      mstore\n      0x04\n      add\n      tag_55\n      swap1\n      tag_56\n      jump\t// in\n    tag_55:\n      mload(0x40)\n      dup1\n      swap2\n      sub\n      swap1\n      revert\n    tag_54:\n        /* \"contracts/dex.sol\":1407:1413  amount */\n      dup3\n        /* \"contracts/dex.sol\":1383:1391  balances */\n      0x01\n        /* \"contracts/dex.sol\":1383:1403  balances[msg.sender] */\n      0x00\n        /* \"contracts/dex.sol\":1392:1402  msg.sender */\n      caller\n        /* \"contracts/dex.sol\":1383:1403  balances[msg.sender] */\n      0xffffffffffffffffffffffffffffffffffffffff\n      and\n      0xffffffffffffffffffffffffffffffffffffffff\n      and\n      dup2\n      mstore\n      0x20\n      add\n      swap1\n      dup2\n      mstore\n      0x20\n      add\n      0x00\n      keccak256\n      0x00\n        /* \"contracts/dex.sol\":1383:1413  balances[msg.sender] -= amount */\n      dup3\n      dup3\n      sload\n      tag_57\n      swap2\n      swap1\n      tag_37\n      jump\t// in\n    tag_57:\n      swap3\n      pop\n      pop\n      dup2\n      swap1\n      sstore\n      pop\n        /* \"contracts/dex.sol\":1443:1454  totalAmount */\n      dup1\n        /* \"contracts/dex.sol\":1423:1431  balances */\n      0x01\n        /* \"contracts/dex.sol\":1423:1439  balances[seller] */\n      0x00\n        /* \"contracts/dex.sol\":1432:1438  seller */\n      dup7\n        /* \"contracts/dex.sol\":1423:1439  balances[seller] */\n      0xffffffffffffffffffffffffffffffffffffffff\n      and\n      0xffffffffffffffffffffffffffffffffffffffff\n      and\n      dup2\n      mstore\n      0x20\n      add\n      swap1\n      dup2\n      mstore\n      0x20\n      add\n      0x00\n      keccak256\n      0x00\n        /* \"contracts/dex.sol\":1423:1454  balances[seller] -= totalAmount */\n      dup3\n      dup3\n      sload\n      tag_58\n      swap2\n      swap1\n      tag_37\n      jump\t// in\n    tag_58:\n      swap3\n      pop\n      pop\n      dup2\n      swap1\n      sstore\n      pop\n        /* \"contracts/dex.sol\":1488:1499  totalAmount */\n      dup1\n        /* \"contracts/dex.sol\":1464:1472  balances */\n      0x01\n        /* \"contracts/dex.sol\":1464:1484  balances[msg.sender] */\n      0x00\n        /* \"contracts/dex.sol\":1473:1483  msg.sender */\n      caller\n        /* \"contracts/dex.sol\":1464:1484  balances[msg.sender] */\n      0xffffffffffffffffffffffffffffffffffffffff\n      and\n      0xffffffffffffffffffffffffffffffffffffffff\n      and\n      dup2\n      mstore\n      0x20\n      add\n      swap1\n      dup2\n      mstore\n      0x20\n      add\n      0x00\n      keccak256\n      0x00\n        /* \"contracts/dex.sol\":1464:1499  balances[msg.sender] += totalAmount */\n      dup3\n      dup3\n      sload\n      tag_59\n      swap2\n      swap1\n      tag_60\n      jump\t// in\n    tag_59:\n      swap3\n      pop\n      pop\n      dup2\n      swap1\n      sstore\n      pop\n        /* \"contracts/dex.sol\":1533:1539  seller */\n      dup4\n        /* \"contracts/dex.sol\":1515:1555  Trade(msg.sender, seller, amount, price) */\n      0xffffffffffffffffffffffffffffffffffffffff\n      and\n        /* \"contracts/dex.sol\":1521:1531  msg.sender */\n      caller\n        /* \"contracts/dex.sol\":1515:1555  Trade(msg.sender, seller, amount, price) */\n      0xffffffffffffffffffffffffffffffffffffffff\n      and\n      0x4b5796113f074ebf8f11d5bcdeb6349b2fbe47abed78419cdcdbbc15c6fcf845\n        /* \"contracts/dex.sol\":1541:1547  amount */\n      dup6\n        /* \"contracts/dex.sol\":1549:1554  price */\n      dup6\n        /* \"contracts/dex.sol\":1515:1555  Trade(msg.sender, seller, amount, price) */\n      mload(0x40)\n      tag_61\n      swap3\n      swap2\n      swap1\n      tag_62\n      jump\t// in\n    tag_61:\n      mload(0x40)\n      dup1\n      swap2\n      sub\n      swap1\n      log3\n        /* \"contracts/dex.sol\":1035:1562  {... */\n      pop\n        /* \"contracts/dex.sol\":966:1562  function trade(address seller, uint256 amount, uint256 price) public {... */\n      pop\n      pop\n      pop\n      jump\t// out\n        /* \"contracts/dex.sol\":438:633  function deposit(uint256 amount) public payable {... */\n    tag_28:\n        /* \"contracts/dex.sol\":513:514  0 */\n      0x00\n        /* \"contracts/dex.sol\":504:510  amount */\n      dup2\n        /* \"contracts/dex.sol\":504:514  amount > 0 */\n      gt\n        /* \"contracts/dex.sol\":496:542  require(amount > 0 , \"Invalid deposit amount\") */\n      tag_64\n      jumpi\n      mload(0x40)\n      0x08c379a000000000000000000000000000000000000000000000000000000000\n      dup2\n      mstore\n      0x04\n      add\n      tag_65\n      swap1\n      tag_66\n      jump\t// in\n    tag_65:\n      mload(0x40)\n      dup1\n      swap2\n      sub\n      swap1\n      revert\n    tag_64:\n        /* \"contracts/dex.sol\":577:583  amount */\n      dup1\n        /* \"contracts/dex.sol\":553:561  balances */\n      0x01\n        /* \"contracts/dex.sol\":553:573  balances[msg.sender] */\n      0x00\n        /* \"contracts/dex.sol\":562:572  msg.sender */\n      caller\n        /* \"contracts/dex.sol\":553:573  balances[msg.sender] */\n      0xffffffffffffffffffffffffffffffffffffffff\n      and\n      0xffffffffffffffffffffffffffffffffffffffff\n      and\n      dup2\n      mstore\n      0x20\n      add\n      swap1\n      dup2\n      mstore\n      0x20\n      add\n      0x00\n      keccak256\n      0x00\n        /* \"contracts/dex.sol\":553:583  balances[msg.sender] += amount */\n      dup3\n      dup3\n      sload\n      tag_67\n      swap2\n      swap1\n      tag_60\n      jump\t// in\n    tag_67:\n      swap3\n      pop\n      pop\n      dup2\n      swap1\n      sstore\n      pop\n        /* \"contracts/dex.sol\":607:617  msg.sender */\n      caller\n        /* \"contracts/dex.sol\":599:626  Deposit(msg.sender, amount) */\n      0xffffffffffffffffffffffffffffffffffffffff\n      and\n      0xe1fffcc4923d04b559f4d29a8bfc6cda04eb5b0d3c460751c2402c5c5cc9109c\n        /* \"contracts/dex.sol\":619:625  amount */\n      dup3\n        /* \"contracts/dex.sol\":599:626  Deposit(msg.sender, amount) */\n      mload(0x40)\n      tag_68\n      swap2\n      swap1\n      tag_41\n      jump\t// in\n    tag_68:\n      mload(0x40)\n      dup1\n      swap2\n      sub\n      swap1\n      log2\n        /* \"contracts/dex.sol\":438:633  function deposit(uint256 amount) public payable {... */\n      pop\n      jump\t// out\n        /* \"#utility.yul\":88:205   */\n    tag_70:\n        /* \"#utility.yul\":197:198   */\n      0x00\n        /* \"#utility.yul\":194:195   */\n      dup1\n        /* \"#utility.yul\":187:199   */\n      revert\n        /* \"#utility.yul\":334:411   */\n    tag_72:\n        /* \"#utility.yul\":371:378   */\n      0x00\n        /* \"#utility.yul\":400:405   */\n      dup2\n        /* \"#utility.yul\":389:405   */\n      swap1\n      pop\n        /* \"#utility.yul\":334:411   */\n      swap2\n      swap1\n      pop\n      jump\t// out\n        /* \"#utility.yul\":417:539   */\n    tag_73:\n        /* \"#utility.yul\":490:514   */\n      tag_103\n        /* \"#utility.yul\":508:513   */\n      dup2\n        /* \"#utility.yul\":490:514   */\n      tag_72\n      jump\t// in\n    tag_103:\n        /* \"#utility.yul\":483:488   */\n      dup2\n        /* \"#utility.yul\":480:515   */\n      eq\n        /* \"#utility.yul\":470:533   */\n      tag_104\n      jumpi\n        /* \"#utility.yul\":529:530   */\n      0x00\n        /* \"#utility.yul\":526:527   */\n      dup1\n        /* \"#utility.yul\":519:531   */\n      revert\n        /* \"#utility.yul\":470:533   */\n    tag_104:\n        /* \"#utility.yul\":417:539   */\n      pop\n      jump\t// out\n        /* \"#utility.yul\":545:684   */\n    tag_74:\n        /* \"#utility.yul\":591:596   */\n      0x00\n        /* \"#utility.yul\":629:635   */\n      dup2\n        /* \"#utility.yul\":616:636   */\n      calldataload\n        /* \"#utility.yul\":607:636   */\n      swap1\n      pop\n        /* \"#utility.yul\":645:678   */\n      tag_106\n        /* \"#utility.yul\":672:677   */\n      dup2\n        /* \"#utility.yul\":645:678   */\n      tag_73\n      jump\t// in\n    tag_106:\n        /* \"#utility.yul\":545:684   */\n      swap3\n      swap2\n      pop\n      pop\n      jump\t// out\n        /* \"#utility.yul\":690:1019   */\n    tag_14:\n        /* \"#utility.yul\":749:755   */\n      0x00\n        /* \"#utility.yul\":798:800   */\n      0x20\n        /* \"#utility.yul\":786:795   */\n      dup3\n        /* \"#utility.yul\":777:784   */\n      dup5\n        /* \"#utility.yul\":773:796   */\n      sub\n        /* \"#utility.yul\":769:801   */\n      slt\n        /* \"#utility.yul\":766:885   */\n      iszero\n      tag_108\n      jumpi\n        /* \"#utility.yul\":804:883   */\n      tag_109\n      tag_70\n      jump\t// in\n    tag_109:\n        /* \"#utility.yul\":766:885   */\n    tag_108:\n        /* \"#utility.yul\":924:925   */\n      0x00\n        /* \"#utility.yul\":949:1002   */\n      tag_110\n        /* \"#utility.yul\":994:1001   */\n      dup5\n        /* \"#utility.yul\":985:991   */\n      dup3\n        /* \"#utility.yul\":974:983   */\n      dup6\n        /* \"#utility.yul\":970:992   */\n      add\n        /* \"#utility.yul\":949:1002   */\n      tag_74\n      jump\t// in\n    tag_110:\n        /* \"#utility.yul\":939:1002   */\n      swap2\n      pop\n        /* \"#utility.yul\":895:1012   */\n      pop\n        /* \"#utility.yul\":690:1019   */\n      swap3\n      swap2\n      pop\n      pop\n      jump\t// out\n        /* \"#utility.yul\":1025:1151   */\n    tag_75:\n        /* \"#utility.yul\":1062:1069   */\n      0x00\n        /* \"#utility.yul\":1102:1144   */\n      0xffffffffffffffffffffffffffffffffffffffff\n        /* \"#utility.yul\":1095:1100   */\n      dup3\n        /* \"#utility.yul\":1091:1145   */\n      and\n        /* \"#utility.yul\":1080:1145   */\n      swap1\n      pop\n        /* \"#utility.yul\":1025:1151   */\n      swap2\n      swap1\n      pop\n      jump\t// out\n        /* \"#utility.yul\":1157:1253   */\n    tag_76:\n        /* \"#utility.yul\":1194:1201   */\n      0x00\n        /* \"#utility.yul\":1223:1247   */\n      tag_113\n        /* \"#utility.yul\":1241:1246   */\n      dup3\n        /* \"#utility.yul\":1223:1247   */\n      tag_75\n      jump\t// in\n    tag_113:\n        /* \"#utility.yul\":1212:1247   */\n      swap1\n      pop\n        /* \"#utility.yul\":1157:1253   */\n      swap2\n      swap1\n      pop\n      jump\t// out\n        /* \"#utility.yul\":1259:1377   */\n    tag_77:\n        /* \"#utility.yul\":1346:1370   */\n      tag_115\n        /* \"#utility.yul\":1364:1369   */\n      dup2\n        /* \"#utility.yul\":1346:1370   */\n      tag_76\n      jump\t// in\n    tag_115:\n        /* \"#utility.yul\":1341:1344   */\n      dup3\n        /* \"#utility.yul\":1334:1371   */\n      mstore\n        /* \"#utility.yul\":1259:1377   */\n      pop\n      pop\n      jump\t// out\n        /* \"#utility.yul\":1383:1605   */\n    tag_20:\n        /* \"#utility.yul\":1476:1480   */\n      0x00\n        /* \"#utility.yul\":1514:1516   */\n      0x20\n        /* \"#utility.yul\":1503:1512   */\n      dup3\n        /* \"#utility.yul\":1499:1517   */\n      add\n        /* \"#utility.yul\":1491:1517   */\n      swap1\n      pop\n        /* \"#utility.yul\":1527:1598   */\n      tag_117\n        /* \"#utility.yul\":1595:1596   */\n      0x00\n        /* \"#utility.yul\":1584:1593   */\n      dup4\n        /* \"#utility.yul\":1580:1597   */\n      add\n        /* \"#utility.yul\":1571:1577   */\n      dup5\n        /* \"#utility.yul\":1527:1598   */\n      tag_77\n      jump\t// in\n    tag_117:\n        /* \"#utility.yul\":1383:1605   */\n      swap3\n      swap2\n      pop\n      pop\n      jump\t// out\n        /* \"#utility.yul\":1611:1733   */\n    tag_78:\n        /* \"#utility.yul\":1684:1708   */\n      tag_119\n        /* \"#utility.yul\":1702:1707   */\n      dup2\n        /* \"#utility.yul\":1684:1708   */\n      tag_76\n      jump\t// in\n    tag_119:\n        /* \"#utility.yul\":1677:1682   */\n      dup2\n        /* \"#utility.yul\":1674:1709   */\n      eq\n        /* \"#utility.yul\":1664:1727   */\n      tag_120\n      jumpi\n        /* \"#utility.yul\":1723:1724   */\n      0x00\n        /* \"#utility.yul\":1720:1721   */\n      dup1\n        /* \"#utility.yul\":1713:1725   */\n      revert\n        /* \"#utility.yul\":1664:1727   */\n    tag_120:\n        /* \"#utility.yul\":1611:1733   */\n      pop\n      jump\t// out\n        /* \"#utility.yul\":1739:1878   */\n    tag_79:\n        /* \"#utility.yul\":1785:1790   */\n      0x00\n        /* \"#utility.yul\":1823:1829   */\n      dup2\n        /* \"#utility.yul\":1810:1830   */\n      calldataload\n        /* \"#utility.yul\":1801:1830   */\n      swap1\n      pop\n        /* \"#utility.yul\":1839:1872   */\n      tag_122\n        /* \"#utility.yul\":1866:1871   */\n      dup2\n        /* \"#utility.yul\":1839:1872   */\n      tag_78\n      jump\t// in\n    tag_122:\n        /* \"#utility.yul\":1739:1878   */\n      swap3\n      swap2\n      pop\n      pop\n      jump\t// out\n        /* \"#utility.yul\":1884:2503   */\n    tag_24:\n        /* \"#utility.yul\":1961:1967   */\n      0x00\n        /* \"#utility.yul\":1969:1975   */\n      dup1\n        /* \"#utility.yul\":1977:1983   */\n      0x00\n        /* \"#utility.yul\":2026:2028   */\n      0x60\n        /* \"#utility.yul\":2014:2023   */\n      dup5\n        /* \"#utility.yul\":2005:2012   */\n      dup7\n        /* \"#utility.yul\":2001:2024   */\n      sub\n        /* \"#utility.yul\":1997:2029   */\n      slt\n        /* \"#utility.yul\":1994:2113   */\n      iszero\n      tag_124\n      jumpi\n        /* \"#utility.yul\":2032:2111   */\n      tag_125\n      tag_70\n      jump\t// in\n    tag_125:\n        /* \"#utility.yul\":1994:2113   */\n    tag_124:\n        /* \"#utility.yul\":2152:2153   */\n      0x00\n        /* \"#utility.yul\":2177:2230   */\n      tag_126\n        /* \"#utility.yul\":2222:2229   */\n      dup7\n        /* \"#utility.yul\":2213:2219   */\n      dup3\n        /* \"#utility.yul\":2202:2211   */\n      dup8\n        /* \"#utility.yul\":2198:2220   */\n      add\n        /* \"#utility.yul\":2177:2230   */\n      tag_79\n      jump\t// in\n    tag_126:\n        /* \"#utility.yul\":2167:2230   */\n      swap4\n      pop\n        /* \"#utility.yul\":2123:2240   */\n      pop\n        /* \"#utility.yul\":2279:2281   */\n      0x20\n        /* \"#utility.yul\":2305:2358   */\n      tag_127\n        /* \"#utility.yul\":2350:2357   */\n      dup7\n        /* \"#utility.yul\":2341:2347   */\n      dup3\n        /* \"#utility.yul\":2330:2339   */\n      dup8\n        /* \"#utility.yul\":2326:2348   */\n      add\n        /* \"#utility.yul\":2305:2358   */\n      tag_74\n      jump\t// in\n    tag_127:\n        /* \"#utility.yul\":2295:2358   */\n      swap3\n      pop\n        /* \"#utility.yul\":2250:2368   */\n      pop\n        /* \"#utility.yul\":2407:2409   */\n      0x40\n        /* \"#utility.yul\":2433:2486   */\n      tag_128\n        /* \"#utility.yul\":2478:2485   */\n      dup7\n        /* \"#utility.yul\":2469:2475   */\n      dup3\n        /* \"#utility.yul\":2458:2467   */\n      dup8\n        /* \"#utility.yul\":2454:2476   */\n      add\n        /* \"#utility.yul\":2433:2486   */\n      tag_74\n      jump\t// in\n    tag_128:\n        /* \"#utility.yul\":2423:2486   */\n      swap2\n      pop\n        /* \"#utility.yul\":2378:2496   */\n      pop\n        /* \"#utility.yul\":1884:2503   */\n      swap3\n      pop\n      swap3\n      pop\n      swap3\n      jump\t// out\n        /* \"#utility.yul\":2509:2678   */\n    tag_80:\n        /* \"#utility.yul\":2593:2604   */\n      0x00\n        /* \"#utility.yul\":2627:2633   */\n      dup3\n        /* \"#utility.yul\":2622:2625   */\n      dup3\n        /* \"#utility.yul\":2615:2634   */\n      mstore\n        /* \"#utility.yul\":2667:2671   */\n      0x20\n        /* \"#utility.yul\":2662:2665   */\n      dup3\n        /* \"#utility.yul\":2658:2672   */\n      add\n        /* \"#utility.yul\":2643:2672   */\n      swap1\n      pop\n        /* \"#utility.yul\":2509:2678   */\n      swap3\n      swap2\n      pop\n      pop\n      jump\t// out\n        /* \"#utility.yul\":2684:2860   */\n    tag_81:\n        /* \"#utility.yul\":2824:2852   */\n      0x496e76616c696420776974686461726177616c20616d6f756e74000000000000\n        /* \"#utility.yul\":2820:2821   */\n      0x00\n        /* \"#utility.yul\":2812:2818   */\n      dup3\n        /* \"#utility.yul\":2808:2822   */\n      add\n        /* \"#utility.yul\":2801:2853   */\n      mstore\n        /* \"#utility.yul\":2684:2860   */\n      pop\n      jump\t// out\n        /* \"#utility.yul\":2866:3232   */\n    tag_82:\n        /* \"#utility.yul\":3008:3011   */\n      0x00\n        /* \"#utility.yul\":3029:3096   */\n      tag_132\n        /* \"#utility.yul\":3093:3095   */\n      0x1a\n        /* \"#utility.yul\":3088:3091   */\n      dup4\n        /* \"#utility.yul\":3029:3096   */\n      tag_80\n      jump\t// in\n    tag_132:\n        /* \"#utility.yul\":3022:3096   */\n      swap2\n      pop\n        /* \"#utility.yul\":3105:3198   */\n      tag_133\n        /* \"#utility.yul\":3194:3197   */\n      dup3\n        /* \"#utility.yul\":3105:3198   */\n      tag_81\n      jump\t// in\n    tag_133:\n        /* \"#utility.yul\":3223:3225   */\n      0x20\n        /* \"#utility.yul\":3218:3221   */\n      dup3\n        /* \"#utility.yul\":3214:3226   */\n      add\n        /* \"#utility.yul\":3207:3226   */\n      swap1\n      pop\n        /* \"#utility.yul\":2866:3232   */\n      swap2\n      swap1\n      pop\n      jump\t// out\n        /* \"#utility.yul\":3238:3657   */\n    tag_32:\n        /* \"#utility.yul\":3404:3408   */\n      0x00\n        /* \"#utility.yul\":3442:3444   */\n      0x20\n        /* \"#utility.yul\":3431:3440   */\n      dup3\n        /* \"#utility.yul\":3427:3445   */\n      add\n        /* \"#utility.yul\":3419:3445   */\n      swap1\n      pop\n        /* \"#utility.yul\":3491:3500   */\n      dup2\n        /* \"#utility.yul\":3485:3489   */\n      dup2\n        /* \"#utility.yul\":3481:3501   */\n      sub\n        /* \"#utility.yul\":3477:3478   */\n      0x00\n        /* \"#utility.yul\":3466:3475   */\n      dup4\n        /* \"#utility.yul\":3462:3479   */\n      add\n        /* \"#utility.yul\":3455:3502   */\n      mstore\n        /* \"#utility.yul\":3519:3650   */\n      tag_135\n        /* \"#utility.yul\":3645:3649   */\n      dup2\n        /* \"#utility.yul\":3519:3650   */\n      tag_82\n      jump\t// in\n    tag_135:\n        /* \"#utility.yul\":3511:3650   */\n      swap1\n      pop\n        /* \"#utility.yul\":3238:3657   */\n      swap2\n      swap1\n      pop\n      jump\t// out\n        /* \"#utility.yul\":3663:3833   */\n    tag_83:\n        /* \"#utility.yul\":3803:3825   */\n      0x496e73756666696369656e742062616c616e6365000000000000000000000000\n        /* \"#utility.yul\":3799:3800   */\n      0x00\n        /* \"#utility.yul\":3791:3797   */\n      dup3\n        /* \"#utility.yul\":3787:3801   */\n      add\n        /* \"#utility.yul\":3780:3826   */\n      mstore\n        /* \"#utility.yul\":3663:3833   */\n      pop\n      jump\t// out\n        /* \"#utility.yul\":3839:4205   */\n    tag_84:\n        /* \"#utility.yul\":3981:3984   */\n      0x00\n        /* \"#utility.yul\":4002:4069   */\n      tag_138\n        /* \"#utility.yul\":4066:4068   */\n      0x14\n        /* \"#utility.yul\":4061:4064   */\n      dup4\n        /* \"#utility.yul\":4002:4069   */\n      tag_80\n      jump\t// in\n    tag_138:\n        /* \"#utility.yul\":3995:4069   */\n      swap2\n      pop\n        /* \"#utility.yul\":4078:4171   */\n      tag_139\n        /* \"#utility.yul\":4167:4170   */\n      dup3\n        /* \"#utility.yul\":4078:4171   */\n      tag_83\n      jump\t// in\n    tag_139:\n        /* \"#utility.yul\":4196:4198   */\n      0x20\n        /* \"#utility.yul\":4191:4194   */\n      dup3\n        /* \"#utility.yul\":4187:4199   */\n      add\n        /* \"#utility.yul\":4180:4199   */\n      swap1\n      pop\n        /* \"#utility.yul\":3839:4205   */\n      swap2\n      swap1\n      pop\n      jump\t// out\n        /* \"#utility.yul\":4211:4630   */\n    tag_35:\n        /* \"#utility.yul\":4377:4381   */\n      0x00\n        /* \"#utility.yul\":4415:4417   */\n      0x20\n        /* \"#utility.yul\":4404:4413   */\n      dup3\n        /* \"#utility.yul\":4400:4418   */\n      add\n        /* \"#utility.yul\":4392:4418   */\n      swap1\n      pop\n        /* \"#utility.yul\":4464:4473   */\n      dup2\n        /* \"#utility.yul\":4458:4462   */\n      dup2\n        /* \"#utility.yul\":4454:4474   */\n      sub\n        /* \"#utility.yul\":4450:4451   */\n      0x00\n        /* \"#utility.yul\":4439:4448   */\n      dup4\n        /* \"#utility.yul\":4435:4452   */\n      add\n        /* \"#utility.yul\":4428:4475   */\n      mstore\n        /* \"#utility.yul\":4492:4623   */\n      tag_141\n        /* \"#utility.yul\":4618:4622   */\n      dup2\n        /* \"#utility.yul\":4492:4623   */\n      tag_84\n      jump\t// in\n    tag_141:\n        /* \"#utility.yul\":4484:4623   */\n      swap1\n      pop\n        /* \"#utility.yul\":4211:4630   */\n      swap2\n      swap1\n      pop\n      jump\t// out\n        /* \"#utility.yul\":4636:4816   */\n    tag_85:\n        /* \"#utility.yul\":4684:4761   */\n      0x4e487b7100000000000000000000000000000000000000000000000000000000\n        /* \"#utility.yul\":4681:4682   */\n      0x00\n        /* \"#utility.yul\":4674:4762   */\n      mstore\n        /* \"#utility.yul\":4781:4785   */\n      0x11\n        /* \"#utility.yul\":4778:4779   */\n      0x04\n        /* \"#utility.yul\":4771:4786   */\n      mstore\n        /* \"#utility.yul\":4805:4809   */\n      0x24\n        /* \"#utility.yul\":4802:4803   */\n      0x00\n        /* \"#utility.yul\":4795:4810   */\n      revert\n        /* \"#utility.yul\":4822:5016   */\n    tag_37:\n        /* \"#utility.yul\":4862:4866   */\n      0x00\n        /* \"#utility.yul\":4882:4902   */\n      tag_144\n        /* \"#utility.yul\":4900:4901   */\n      dup3\n        /* \"#utility.yul\":4882:4902   */\n      tag_72\n      jump\t// in\n    tag_144:\n        /* \"#utility.yul\":4877:4902   */\n      swap2\n      pop\n        /* \"#utility.yul\":4916:4936   */\n      tag_145\n        /* \"#utility.yul\":4934:4935   */\n      dup4\n        /* \"#utility.yul\":4916:4936   */\n      tag_72\n      jump\t// in\n    tag_145:\n        /* \"#utility.yul\":4911:4936   */\n      swap3\n      pop\n        /* \"#utility.yul\":4960:4961   */\n      dup3\n        /* \"#utility.yul\":4957:4958   */\n      dup3\n        /* \"#utility.yul\":4953:4962   */\n      sub\n        /* \"#utility.yul\":4945:4962   */\n      swap1\n      pop\n        /* \"#utility.yul\":4984:4985   */\n      dup2\n        /* \"#utility.yul\":4978:4982   */\n      dup2\n        /* \"#utility.yul\":4975:4986   */\n      gt\n        /* \"#utility.yul\":4972:5009   */\n      iszero\n      tag_146\n      jumpi\n        /* \"#utility.yul\":4989:5007   */\n      tag_147\n      tag_85\n      jump\t// in\n    tag_147:\n        /* \"#utility.yul\":4972:5009   */\n    tag_146:\n        /* \"#utility.yul\":4822:5016   */\n      swap3\n      swap2\n      pop\n      pop\n      jump\t// out\n        /* \"#utility.yul\":5022:5140   */\n    tag_86:\n        /* \"#utility.yul\":5109:5133   */\n      tag_149\n        /* \"#utility.yul\":5127:5132   */\n      dup2\n        /* \"#utility.yul\":5109:5133   */\n      tag_72\n      jump\t// in\n    tag_149:\n        /* \"#utility.yul\":5104:5107   */\n      dup3\n        /* \"#utility.yul\":5097:5134   */\n      mstore\n        /* \"#utility.yul\":5022:5140   */\n      pop\n      pop\n      jump\t// out\n        /* \"#utility.yul\":5146:5368   */\n    tag_41:\n        /* \"#utility.yul\":5239:5243   */\n      0x00\n        /* \"#utility.yul\":5277:5279   */\n      0x20\n        /* \"#utility.yul\":5266:5275   */\n      dup3\n        /* \"#utility.yul\":5262:5280   */\n      add\n        /* \"#utility.yul\":5254:5280   */\n      swap1\n      pop\n        /* \"#utility.yul\":5290:5361   */\n      tag_151\n        /* \"#utility.yul\":5358:5359   */\n      0x00\n        /* \"#utility.yul\":5347:5356   */\n      dup4\n        /* \"#utility.yul\":5343:5360   */\n      add\n        /* \"#utility.yul\":5334:5340   */\n      dup5\n        /* \"#utility.yul\":5290:5361   */\n      tag_86\n      jump\t// in\n    tag_151:\n        /* \"#utility.yul\":5146:5368   */\n      swap3\n      swap2\n      pop\n      pop\n      jump\t// out\n        /* \"#utility.yul\":5374:5546   */\n    tag_87:\n        /* \"#utility.yul\":5514:5538   */\n      0x496e76616c69642073656c6c6572206164647265737300000000000000000000\n        /* \"#utility.yul\":5510:5511   */\n      0x00\n        /* \"#utility.yul\":5502:5508   */\n      dup3\n        /* \"#utility.yul\":5498:5512   */\n      add\n        /* \"#utility.yul\":5491:5539   */\n      mstore\n        /* \"#utility.yul\":5374:5546   */\n      pop\n      jump\t// out\n        /* \"#utility.yul\":5552:5918   */\n    tag_88:\n        /* \"#utility.yul\":5694:5697   */\n      0x00\n        /* \"#utility.yul\":5715:5782   */\n      tag_154\n        /* \"#utility.yul\":5779:5781   */\n      0x16\n        /* \"#utility.yul\":5774:5777   */\n      dup4\n        /* \"#utility.yul\":5715:5782   */\n      tag_80\n      jump\t// in\n    tag_154:\n        /* \"#utility.yul\":5708:5782   */\n      swap2\n      pop\n        /* \"#utility.yul\":5791:5884   */\n      tag_155\n        /* \"#utility.yul\":5880:5883   */\n      dup3\n        /* \"#utility.yul\":5791:5884   */\n      tag_87\n      jump\t// in\n    tag_155:\n        /* \"#utility.yul\":5909:5911   */\n      0x20\n        /* \"#utility.yul\":5904:5907   */\n      dup3\n        /* \"#utility.yul\":5900:5912   */\n      add\n        /* \"#utility.yul\":5893:5912   */\n      swap1\n      pop\n        /* \"#utility.yul\":5552:5918   */\n      swap2\n      swap1\n      pop\n      jump\t// out\n        /* \"#utility.yul\":5924:6343   */\n    tag_45:\n        /* \"#utility.yul\":6090:6094   */\n      0x00\n        /* \"#utility.yul\":6128:6130   */\n      0x20\n        /* \"#utility.yul\":6117:6126   */\n      dup3\n        /* \"#utility.yul\":6113:6131   */\n      add\n        /* \"#utility.yul\":6105:6131   */\n      swap1\n      pop\n        /* \"#utility.yul\":6177:6186   */\n      dup2\n        /* \"#utility.yul\":6171:6175   */\n      dup2\n        /* \"#utility.yul\":6167:6187   */\n      sub\n        /* \"#utility.yul\":6163:6164   */\n      0x00\n        /* \"#utility.yul\":6152:6161   */\n      dup4\n        /* \"#utility.yul\":6148:6165   */\n      add\n        /* \"#utility.yul\":6141:6188   */\n      mstore\n        /* \"#utility.yul\":6205:6336   */\n      tag_157\n        /* \"#utility.yul\":6331:6335   */\n      dup2\n        /* \"#utility.yul\":6205:6336   */\n      tag_88\n      jump\t// in\n    tag_157:\n        /* \"#utility.yul\":6197:6336   */\n      swap1\n      pop\n        /* \"#utility.yul\":5924:6343   */\n      swap2\n      swap1\n      pop\n      jump\t// out\n        /* \"#utility.yul\":6349:6525   */\n    tag_89:\n        /* \"#utility.yul\":6489:6517   */\n      0x43616e6e6f74207472616465207769746820796f757273656c66000000000000\n        /* \"#utility.yul\":6485:6486   */\n      0x00\n        /* \"#utility.yul\":6477:6483   */\n      dup3\n        /* \"#utility.yul\":6473:6487   */\n      add\n        /* \"#utility.yul\":6466:6518   */\n      mstore\n        /* \"#utility.yul\":6349:6525   */\n      pop\n      jump\t// out\n        /* \"#utility.yul\":6531:6897   */\n    tag_90:\n        /* \"#utility.yul\":6673:6676   */\n      0x00\n        /* \"#utility.yul\":6694:6761   */\n      tag_160\n        /* \"#utility.yul\":6758:6760   */\n      0x1a\n        /* \"#utility.yul\":6753:6756   */\n      dup4\n        /* \"#utility.yul\":6694:6761   */\n      tag_80\n      jump\t// in\n    tag_160:\n        /* \"#utility.yul\":6687:6761   */\n      swap2\n      pop\n        /* \"#utility.yul\":6770:6863   */\n      tag_161\n        /* \"#utility.yul\":6859:6862   */\n      dup3\n        /* \"#utility.yul\":6770:6863   */\n      tag_89\n      jump\t// in\n    tag_161:\n        /* \"#utility.yul\":6888:6890   */\n      0x20\n        /* \"#utility.yul\":6883:6886   */\n      dup3\n        /* \"#utility.yul\":6879:6891   */\n      add\n        /* \"#utility.yul\":6872:6891   */\n      swap1\n      pop\n        /* \"#utility.yul\":6531:6897   */\n      swap2\n      swap1\n      pop\n      jump\t// out\n        /* \"#utility.yul\":6903:7322   */\n    tag_48:\n        /* \"#utility.yul\":7069:7073   */\n      0x00\n        /* \"#utility.yul\":7107:7109   */\n      0x20\n        /* \"#utility.yul\":7096:7105   */\n      dup3\n        /* \"#utility.yul\":7092:7110   */\n      add\n        /* \"#utility.yul\":7084:7110   */\n      swap1\n      pop\n        /* \"#utility.yul\":7156:7165   */\n      dup2\n        /* \"#utility.yul\":7150:7154   */\n      dup2\n        /* \"#utility.yul\":7146:7166   */\n      sub\n        /* \"#utility.yul\":7142:7143   */\n      0x00\n        /* \"#utility.yul\":7131:7140   */\n      dup4\n        /* \"#utility.yul\":7127:7144   */\n      add\n        /* \"#utility.yul\":7120:7167   */\n      mstore\n        /* \"#utility.yul\":7184:7315   */\n      tag_163\n        /* \"#utility.yul\":7310:7314   */\n      dup2\n        /* \"#utility.yul\":7184:7315   */\n      tag_90\n      jump\t// in\n    tag_163:\n        /* \"#utility.yul\":7176:7315   */\n      swap1\n      pop\n        /* \"#utility.yul\":6903:7322   */\n      swap2\n      swap1\n      pop\n      jump\t// out\n        /* \"#utility.yul\":7328:7496   */\n    tag_91:\n        /* \"#utility.yul\":7468:7488   */\n      0x496e73756666696369656e742066756e64730000000000000000000000000000\n        /* \"#utility.yul\":7464:7465   */\n      0x00\n        /* \"#utility.yul\":7456:7462   */\n      dup3\n        /* \"#utility.yul\":7452:7466   */\n      add\n        /* \"#utility.yul\":7445:7489   */\n      mstore\n        /* \"#utility.yul\":7328:7496   */\n      pop\n      jump\t// out\n        /* \"#utility.yul\":7502:7868   */\n    tag_92:\n        /* \"#utility.yul\":7644:7647   */\n      0x00\n        /* \"#utility.yul\":7665:7732   */\n      tag_166\n        /* \"#utility.yul\":7729:7731   */\n      0x12\n        /* \"#utility.yul\":7724:7727   */\n      dup4\n        /* \"#utility.yul\":7665:7732   */\n      tag_80\n      jump\t// in\n    tag_166:\n        /* \"#utility.yul\":7658:7732   */\n      swap2\n      pop\n        /* \"#utility.yul\":7741:7834   */\n      tag_167\n        /* \"#utility.yul\":7830:7833   */\n      dup3\n        /* \"#utility.yul\":7741:7834   */\n      tag_91\n      jump\t// in\n    tag_167:\n        /* \"#utility.yul\":7859:7861   */\n      0x20\n        /* \"#utility.yul\":7854:7857   */\n      dup3\n        /* \"#utility.yul\":7850:7862   */\n      add\n        /* \"#utility.yul\":7843:7862   */\n      swap1\n      pop\n        /* \"#utility.yul\":7502:7868   */\n      swap2\n      swap1\n      pop\n      jump\t// out\n        /* \"#utility.yul\":7874:8293   */\n    tag_51:\n        /* \"#utility.yul\":8040:8044   */\n      0x00\n        /* \"#utility.yul\":8078:8080   */\n      0x20\n        /* \"#utility.yul\":8067:8076   */\n      dup3\n        /* \"#utility.yul\":8063:8081   */\n      add\n        /* \"#utility.yul\":8055:8081   */\n      swap1\n      pop\n        /* \"#utility.yul\":8127:8136   */\n      dup2\n        /* \"#utility.yul\":8121:8125   */\n      dup2\n        /* \"#utility.yul\":8117:8137   */\n      sub\n        /* \"#utility.yul\":8113:8114   */\n      0x00\n        /* \"#utility.yul\":8102:8111   */\n      dup4\n        /* \"#utility.yul\":8098:8115   */\n      add\n        /* \"#utility.yul\":8091:8138   */\n      mstore\n        /* \"#utility.yul\":8155:8286   */\n      tag_169\n        /* \"#utility.yul\":8281:8285   */\n      dup2\n        /* \"#utility.yul\":8155:8286   */\n      tag_92\n      jump\t// in\n    tag_169:\n        /* \"#utility.yul\":8147:8286   */\n      swap1\n      pop\n        /* \"#utility.yul\":7874:8293   */\n      swap2\n      swap1\n      pop\n      jump\t// out\n        /* \"#utility.yul\":8299:8709   */\n    tag_53:\n        /* \"#utility.yul\":8339:8346   */\n      0x00\n        /* \"#utility.yul\":8362:8382   */\n      tag_171\n        /* \"#utility.yul\":8380:8381   */\n      dup3\n        /* \"#utility.yul\":8362:8382   */\n      tag_72\n      jump\t// in\n    tag_171:\n        /* \"#utility.yul\":8357:8382   */\n      swap2\n      pop\n        /* \"#utility.yul\":8396:8416   */\n      tag_172\n        /* \"#utility.yul\":8414:8415   */\n      dup4\n        /* \"#utility.yul\":8396:8416   */\n      tag_72\n      jump\t// in\n    tag_172:\n        /* \"#utility.yul\":8391:8416   */\n      swap3\n      pop\n        /* \"#utility.yul\":8451:8452   */\n      dup3\n        /* \"#utility.yul\":8448:8449   */\n      dup3\n        /* \"#utility.yul\":8444:8453   */\n      mul\n        /* \"#utility.yul\":8473:8503   */\n      tag_173\n        /* \"#utility.yul\":8491:8502   */\n      dup2\n        /* \"#utility.yul\":8473:8503   */\n      tag_72\n      jump\t// in\n    tag_173:\n        /* \"#utility.yul\":8462:8503   */\n      swap2\n      pop\n        /* \"#utility.yul\":8652:8653   */\n      dup3\n        /* \"#utility.yul\":8643:8650   */\n      dup3\n        /* \"#utility.yul\":8639:8654   */\n      div\n        /* \"#utility.yul\":8636:8637   */\n      dup5\n        /* \"#utility.yul\":8633:8655   */\n      eq\n        /* \"#utility.yul\":8613:8614   */\n      dup4\n        /* \"#utility.yul\":8606:8615   */\n      iszero\n        /* \"#utility.yul\":8586:8669   */\n      or\n        /* \"#utility.yul\":8563:8702   */\n      tag_174\n      jumpi\n        /* \"#utility.yul\":8682:8700   */\n      tag_175\n      tag_85\n      jump\t// in\n    tag_175:\n        /* \"#utility.yul\":8563:8702   */\n    tag_174:\n        /* \"#utility.yul\":8347:8709   */\n      pop\n        /* \"#utility.yul\":8299:8709   */\n      swap3\n      swap2\n      pop\n      pop\n      jump\t// out\n        /* \"#utility.yul\":8715:8896   */\n    tag_93:\n        /* \"#utility.yul\":8855:8888   */\n      0x53656c6c65722068617320496e73756666696369656e742062616c616e636500\n        /* \"#utility.yul\":8851:8852   */\n      0x00\n        /* \"#utility.yul\":8843:8849   */\n      dup3\n        /* \"#utility.yul\":8839:8853   */\n      add\n        /* \"#utility.yul\":8832:8889   */\n      mstore\n        /* \"#utility.yul\":8715:8896   */\n      pop\n      jump\t// out\n        /* \"#utility.yul\":8902:9268   */\n    tag_94:\n        /* \"#utility.yul\":9044:9047   */\n      0x00\n        /* \"#utility.yul\":9065:9132   */\n      tag_178\n        /* \"#utility.yul\":9129:9131   */\n      0x1f\n        /* \"#utility.yul\":9124:9127   */\n      dup4\n        /* \"#utility.yul\":9065:9132   */\n      tag_80\n      jump\t// in\n    tag_178:\n        /* \"#utility.yul\":9058:9132   */\n      swap2\n      pop\n        /* \"#utility.yul\":9141:9234   */\n      tag_179\n        /* \"#utility.yul\":9230:9233   */\n      dup3\n        /* \"#utility.yul\":9141:9234   */\n      tag_93\n      jump\t// in\n    tag_179:\n        /* \"#utility.yul\":9259:9261   */\n      0x20\n        /* \"#utility.yul\":9254:9257   */\n      dup3\n        /* \"#utility.yul\":9250:9262   */\n      add\n        /* \"#utility.yul\":9243:9262   */\n      swap1\n      pop\n        /* \"#utility.yul\":8902:9268   */\n      swap2\n      swap1\n      pop\n      jump\t// out\n        /* \"#utility.yul\":9274:9693   */\n    tag_56:\n        /* \"#utility.yul\":9440:9444   */\n      0x00\n        /* \"#utility.yul\":9478:9480   */\n      0x20\n        /* \"#utility.yul\":9467:9476   */\n      dup3\n        /* \"#utility.yul\":9463:9481   */\n      add\n        /* \"#utility.yul\":9455:9481   */\n      swap1\n      pop\n        /* \"#utility.yul\":9527:9536   */\n      dup2\n        /* \"#utility.yul\":9521:9525   */\n      dup2\n        /* \"#utility.yul\":9517:9537   */\n      sub\n        /* \"#utility.yul\":9513:9514   */\n      0x00\n        /* \"#utility.yul\":9502:9511   */\n      dup4\n        /* \"#utility.yul\":9498:9515   */\n      add\n        /* \"#utility.yul\":9491:9538   */\n      mstore\n        /* \"#utility.yul\":9555:9686   */\n      tag_181\n        /* \"#utility.yul\":9681:9685   */\n      dup2\n        /* \"#utility.yul\":9555:9686   */\n      tag_94\n      jump\t// in\n    tag_181:\n        /* \"#utility.yul\":9547:9686   */\n      swap1\n      pop\n        /* \"#utility.yul\":9274:9693   */\n      swap2\n      swap1\n      pop\n      jump\t// out\n        /* \"#utility.yul\":9699:9890   */\n    tag_60:\n        /* \"#utility.yul\":9739:9742   */\n      0x00\n        /* \"#utility.yul\":9758:9778   */\n      tag_183\n        /* \"#utility.yul\":9776:9777   */\n      dup3\n        /* \"#utility.yul\":9758:9778   */\n      tag_72\n      jump\t// in\n    tag_183:\n        /* \"#utility.yul\":9753:9778   */\n      swap2\n      pop\n        /* \"#utility.yul\":9792:9812   */\n      tag_184\n        /* \"#utility.yul\":9810:9811   */\n      dup4\n        /* \"#utility.yul\":9792:9812   */\n      tag_72\n      jump\t// in\n    tag_184:\n        /* \"#utility.yul\":9787:9812   */\n      swap3\n      pop\n        /* \"#utility.yul\":9835:9836   */\n      dup3\n        /* \"#utility.yul\":9832:9833   */\n      dup3\n        /* \"#utility.yul\":9828:9837   */\n      add\n        /* \"#utility.yul\":9821:9837   */\n      swap1\n      pop\n        /* \"#utility.yul\":9856:9859   */\n      dup1\n        /* \"#utility.yul\":9853:9854   */\n      dup3\n        /* \"#utility.yul\":9850:9860   */\n      gt\n        /* \"#utility.yul\":9847:9883   */\n      iszero\n      tag_185\n      jumpi\n        /* \"#utility.yul\":9863:9881   */\n      tag_186\n      tag_85\n      jump\t// in\n    tag_186:\n        /* \"#utility.yul\":9847:9883   */\n    tag_185:\n        /* \"#utility.yul\":9699:9890   */\n      swap3\n      swap2\n      pop\n      pop\n      jump\t// out\n        /* \"#utility.yul\":9896:10228   */\n    tag_62:\n        /* \"#utility.yul\":10017:10021   */\n      0x00\n        /* \"#utility.yul\":10055:10057   */\n      0x40\n        /* \"#utility.yul\":10044:10053   */\n      dup3\n        /* \"#utility.yul\":10040:10058   */\n      add\n        /* \"#utility.yul\":10032:10058   */\n      swap1\n      pop\n        /* \"#utility.yul\":10068:10139   */\n      tag_188\n        /* \"#utility.yul\":10136:10137   */\n      0x00\n        /* \"#utility.yul\":10125:10134   */\n      dup4\n        /* \"#utility.yul\":10121:10138   */\n      add\n        /* \"#utility.yul\":10112:10118   */\n      dup6\n        /* \"#utility.yul\":10068:10139   */\n      tag_86\n      jump\t// in\n    tag_188:\n        /* \"#utility.yul\":10149:10221   */\n      tag_189\n        /* \"#utility.yul\":10217:10219   */\n      0x20\n        /* \"#utility.yul\":10206:10215   */\n      dup4\n        /* \"#utility.yul\":10202:10220   */\n      add\n        /* \"#utility.yul\":10193:10199   */\n      dup5\n        /* \"#utility.yul\":10149:10221   */\n      tag_86\n      jump\t// in\n    tag_189:\n        /* \"#utility.yul\":9896:10228   */\n      swap4\n      swap3\n      pop\n      pop\n      pop\n      jump\t// out\n        /* \"#utility.yul\":10234:10406   */\n    tag_95:\n        /* \"#utility.yul\":10374:10398   */\n      0x496e76616c6964206465706f73697420616d6f756e7400000000000000000000\n        /* \"#utility.yul\":10370:10371   */\n      0x00\n        /* \"#utility.yul\":10362:10368   */\n      dup3\n        /* \"#utility.yul\":10358:10372   */\n      add\n        /* \"#utility.yul\":10351:10399   */\n      mstore\n        /* \"#utility.yul\":10234:10406   */\n      pop\n      jump\t// out\n        /* \"#utility.yul\":10412:10778   */\n    tag_96:\n        /* \"#utility.yul\":10554:10557   */\n      0x00\n        /* \"#utility.yul\":10575:10642   */\n      tag_192\n        /* \"#utility.yul\":10639:10641   */\n      0x16\n        /* \"#utility.yul\":10634:10637   */\n      dup4\n        /* \"#utility.yul\":10575:10642   */\n      tag_80\n      jump\t// in\n    tag_192:\n        /* \"#utility.yul\":10568:10642   */\n      swap2\n      pop\n        /* \"#utility.yul\":10651:10744   */\n      tag_193\n        /* \"#utility.yul\":10740:10743   */\n      dup3\n        /* \"#utility.yul\":10651:10744   */\n      tag_95\n      jump\t// in\n    tag_193:\n        /* \"#utility.yul\":10769:10771   */\n      0x20\n        /* \"#utility.yul\":10764:10767   */\n      dup3\n        /* \"#utility.yul\":10760:10772   */\n      add\n        /* \"#utility.yul\":10753:10772   */\n      swap1\n      pop\n        /* \"#utility.yul\":10412:10778   */\n      swap2\n      swap1\n      pop\n      jump\t// out\n        /* \"#utility.yul\":10784:11203   */\n    tag_66:\n        /* \"#utility.yul\":10950:10954   */\n      0x00\n        /* \"#utility.yul\":10988:10990   */\n      0x20\n        /* \"#utility.yul\":10977:10986   */\n      dup3\n        /* \"#utility.yul\":10973:10991   */\n      add\n        /* \"#utility.yul\":10965:10991   */\n      swap1\n      pop\n        /* \"#utility.yul\":11037:11046   */\n      dup2\n        /* \"#utility.yul\":11031:11035   */\n      dup2\n        /* \"#utility.yul\":11027:11047   */\n      sub\n        /* \"#utility.yul\":11023:11024   */\n      0x00\n        /* \"#utility.yul\":11012:11021   */\n      dup4\n        /* \"#utility.yul\":11008:11025   */\n      add\n        /* \"#utility.yul\":11001:11048   */\n      mstore\n        /* \"#utility.yul\":11065:11196   */\n      tag_195\n        /* \"#utility.yul\":11191:11195   */\n      dup2\n        /* \"#utility.yul\":11065:11196   */\n      tag_96\n      jump\t// in\n    tag_195:\n        /* \"#utility.yul\":11057:11196   */\n      swap1\n      pop\n        /* \"#utility.yul\":10784:11203   */\n      swap2\n      swap1\n      pop\n      jump\t// out\n\n    auxdata: 0xa26469706673582212206618af7535e9e16e11a02030a12c317e533b2dbda0ac6749b09f93e35bd0d95064736f6c63430008120033\n}\n",
				"bytecode": {
					"linkReferences": {},
					"object": "608060405234801561001057600080fd5b50336000806101000a81548173ffffffffffffffffffffffffffffffffffffffff021916908373ffffffffffffffffffffffffffffffffffffffff160217905550610cb0806100606000396000f3fe6080604052600436106100435760003560e01c80632e1a7d4d1461004c5780638da5cb5b14610075578063b44b96e1146100a0578063b6b55f25146100c95761004a565b3661004a57005b005b34801561005857600080fd5b50610073600480360381019061006e9190610741565b6100e5565b005b34801561008157600080fd5b5061008a610298565b60405161009791906107af565b60405180910390f35b3480156100ac57600080fd5b506100c760048036038101906100c291906107f6565b6102bc565b005b6100e360048036038101906100de9190610741565b61061c565b005b60008111610128576040517f08c379a000000000000000000000000000000000000000000000000000000000815260040161011f906108a6565b60405180910390fd5b600160003373ffffffffffffffffffffffffffffffffffffffff1673ffffffffffffffffffffffffffffffffffffffff168152602001908152602001600020548111156101aa576040517f08c379a00000000000000000000000000000000000000000000000000000000081526004016101a190610912565b60405180910390fd5b80600160003373ffffffffffffffffffffffffffffffffffffffff1673ffffffffffffffffffffffffffffffffffffffff16815260200190815260200160002060008282546101f99190610961565b925050819055503373ffffffffffffffffffffffffffffffffffffffff166108fc829081150290604051600060405180830381858888f19350505050158015610246573d6000803e3d6000fd5b503373ffffffffffffffffffffffffffffffffffffffff167f7fcf532c15f0a6db0bd6d0e038bea71d30d808c7d98cb3bf7268a95bf5081b658260405161028d91906109a4565b60405180910390a250565b60008054906101000a900473ffffffffffffffffffffffffffffffffffffffff1681565b600073ffffffffffffffffffffffffffffffffffffffff168373ffffffffffffffffffffffffffffffffffffffff160361032b576040517f08c379a000000000000000000000000000000000000000000000000000000000815260040161032290610a0b565b60405180910390fd5b3373ffffffffffffffffffffffffffffffffffffffff168373ffffffffffffffffffffffffffffffffffffffff1603610399576040517f08c379a000000000000000000000000000000000000000000000000000000000815260040161039090610a77565b60405180910390fd5b81600160003373ffffffffffffffffffffffffffffffffffffffff1673ffffffffffffffffffffffffffffffffffffffff16815260200190815260200160002054101561041b576040517f08c379a000000000000000000000000000000000000000000000000000000000815260040161041290610ae3565b60405180910390fd5b600081836104299190610b03565b905080600160008673ffffffffffffffffffffffffffffffffffffffff1673ffffffffffffffffffffffffffffffffffffffff1681526020019081526020016000205410156104ad576040517f08c379a00000000000000000000000000000000000000000000000000000000081526004016104a490610b91565b60405180910390fd5b82600160003373ffffffffffffffffffffffffffffffffffffffff1673ffffffffffffffffffffffffffffffffffffffff16815260200190815260200160002060008282546104fc9190610961565b9250508190555080600160008673ffffffffffffffffffffffffffffffffffffffff1673ffffffffffffffffffffffffffffffffffffffff16815260200190815260200160002060008282546105529190610961565b9250508190555080600160003373ffffffffffffffffffffffffffffffffffffffff1673ffffffffffffffffffffffffffffffffffffffff16815260200190815260200160002060008282546105a89190610bb1565b925050819055508373ffffffffffffffffffffffffffffffffffffffff163373ffffffffffffffffffffffffffffffffffffffff167f4b5796113f074ebf8f11d5bcdeb6349b2fbe47abed78419cdcdbbc15c6fcf845858560405161060e929190610be5565b60405180910390a350505050565b6000811161065f576040517f08c379a000000000000000000000000000000000000000000000000000000000815260040161065690610c5a565b60405180910390fd5b80600160003373ffffffffffffffffffffffffffffffffffffffff1673ffffffffffffffffffffffffffffffffffffffff16815260200190815260200160002060008282546106ae9190610bb1565b925050819055503373ffffffffffffffffffffffffffffffffffffffff167fe1fffcc4923d04b559f4d29a8bfc6cda04eb5b0d3c460751c2402c5c5cc9109c826040516106fb91906109a4565b60405180910390a250565b600080fd5b6000819050919050565b61071e8161070b565b811461072957600080fd5b50565b60008135905061073b81610715565b92915050565b60006020828403121561075757610756610706565b5b60006107658482850161072c565b91505092915050565b600073ffffffffffffffffffffffffffffffffffffffff82169050919050565b60006107998261076e565b9050919050565b6107a98161078e565b82525050565b60006020820190506107c460008301846107a0565b92915050565b6107d38161078e565b81146107de57600080fd5b50565b6000813590506107f0816107ca565b92915050565b60008060006060848603121561080f5761080e610706565b5b600061081d868287016107e1565b935050602061082e8682870161072c565b925050604061083f8682870161072c565b9150509250925092565b600082825260208201905092915050565b7f496e76616c696420776974686461726177616c20616d6f756e74000000000000600082015250565b6000610890601a83610849565b915061089b8261085a565b602082019050919050565b600060208201905081810360008301526108bf81610883565b9050919050565b7f496e73756666696369656e742062616c616e6365000000000000000000000000600082015250565b60006108fc601483610849565b9150610907826108c6565b602082019050919050565b6000602082019050818103600083015261092b816108ef565b9050919050565b7f4e487b7100000000000000000000000000000000000000000000000000000000600052601160045260246000fd5b600061096c8261070b565b91506109778361070b565b925082820390508181111561098f5761098e610932565b5b92915050565b61099e8161070b565b82525050565b60006020820190506109b96000830184610995565b92915050565b7f496e76616c69642073656c6c6572206164647265737300000000000000000000600082015250565b60006109f5601683610849565b9150610a00826109bf565b602082019050919050565b60006020820190508181036000830152610a24816109e8565b9050919050565b7f43616e6e6f74207472616465207769746820796f757273656c66000000000000600082015250565b6000610a61601a83610849565b9150610a6c82610a2b565b602082019050919050565b60006020820190508181036000830152610a9081610a54565b9050919050565b7f496e73756666696369656e742066756e64730000000000000000000000000000600082015250565b6000610acd601283610849565b9150610ad882610a97565b602082019050919050565b60006020820190508181036000830152610afc81610ac0565b9050919050565b6000610b0e8261070b565b9150610b198361070b565b9250828202610b278161070b565b91508282048414831517610b3e57610b3d610932565b5b5092915050565b7f53656c6c65722068617320496e73756666696369656e742062616c616e636500600082015250565b6000610b7b601f83610849565b9150610b8682610b45565b602082019050919050565b60006020820190508181036000830152610baa81610b6e565b9050919050565b6000610bbc8261070b565b9150610bc78361070b565b9250828201905080821115610bdf57610bde610932565b5b92915050565b6000604082019050610bfa6000830185610995565b610c076020830184610995565b9392505050565b7f496e76616c6964206465706f73697420616d6f756e7400000000000000000000600082015250565b6000610c44601683610849565b9150610c4f82610c0e565b602082019050919050565b60006020820190508181036000830152610c7381610c37565b905091905056fea26469706673582212206618af7535e9e16e11a02030a12c317e533b2dbda0ac6749b09f93e35bd0d95064736f6c63430008120033",
					"opcodes": "PUSH1 0x80 PUSH1 0x40 MSTORE CALLVALUE DUP1 ISZERO PUSH2 0x10 JUMPI PUSH1 0x0 DUP1 REVERT JUMPDEST POP CALLER PUSH1 0x0 DUP1 PUSH2 0x100 EXP DUP2 SLOAD DUP2 PUSH20 0xFFFFFFFFFFFFFFFFFFFFFFFFFFFFFFFFFFFFFFFF MUL NOT AND SWAP1 DUP4 PUSH20 0xFFFFFFFFFFFFFFFFFFFFFFFFFFFFFFFFFFFFFFFF AND MUL OR SWAP1 SSTORE POP PUSH2 0xCB0 DUP1 PUSH2 0x60 PUSH1 0x0 CODECOPY PUSH1 0x0 RETURN INVALID PUSH1 0x80 PUSH1 0x40 MSTORE PUSH1 0x4 CALLDATASIZE LT PUSH2 0x43 JUMPI PUSH1 0x0 CALLDATALOAD PUSH1 0xE0 SHR DUP1 PUSH4 0x2E1A7D4D EQ PUSH2 0x4C JUMPI DUP1 PUSH4 0x8DA5CB5B EQ PUSH2 0x75 JUMPI DUP1 PUSH4 0xB44B96E1 EQ PUSH2 0xA0 JUMPI DUP1 PUSH4 0xB6B55F25 EQ PUSH2 0xC9 JUMPI PUSH2 0x4A JUMP JUMPDEST CALLDATASIZE PUSH2 0x4A JUMPI STOP JUMPDEST STOP JUMPDEST CALLVALUE DUP1 ISZERO PUSH2 0x58 JUMPI PUSH1 0x0 DUP1 REVERT JUMPDEST POP PUSH2 0x73 PUSH1 0x4 DUP1 CALLDATASIZE SUB DUP2 ADD SWAP1 PUSH2 0x6E SWAP2 SWAP1 PUSH2 0x741 JUMP JUMPDEST PUSH2 0xE5 JUMP JUMPDEST STOP JUMPDEST CALLVALUE DUP1 ISZERO PUSH2 0x81 JUMPI PUSH1 0x0 DUP1 REVERT JUMPDEST POP PUSH2 0x8A PUSH2 0x298 JUMP JUMPDEST PUSH1 0x40 MLOAD PUSH2 0x97 SWAP2 SWAP1 PUSH2 0x7AF JUMP JUMPDEST PUSH1 0x40 MLOAD DUP1 SWAP2 SUB SWAP1 RETURN JUMPDEST CALLVALUE DUP1 ISZERO PUSH2 0xAC JUMPI PUSH1 0x0 DUP1 REVERT JUMPDEST POP PUSH2 0xC7 PUSH1 0x4 DUP1 CALLDATASIZE SUB DUP2 ADD SWAP1 PUSH2 0xC2 SWAP2 SWAP1 PUSH2 0x7F6 JUMP JUMPDEST PUSH2 0x2BC JUMP JUMPDEST STOP JUMPDEST PUSH2 0xE3 PUSH1 0x4 DUP1 CALLDATASIZE SUB DUP2 ADD SWAP1 PUSH2 0xDE SWAP2 SWAP1 PUSH2 0x741 JUMP JUMPDEST PUSH2 0x61C JUMP JUMPDEST STOP JUMPDEST PUSH1 0x0 DUP2 GT PUSH2 0x128 JUMPI PUSH1 0x40 MLOAD PUSH32 0x8C379A000000000000000000000000000000000000000000000000000000000 DUP2 MSTORE PUSH1 0x4 ADD PUSH2 0x11F SWAP1 PUSH2 0x8A6 JUMP JUMPDEST PUSH1 0x40 MLOAD DUP1 SWAP2 SUB SWAP1 REVERT JUMPDEST PUSH1 0x1 PUSH1 0x0 CALLER PUSH20 0xFFFFFFFFFFFFFFFFFFFFFFFFFFFFFFFFFFFFFFFF AND PUSH20 0xFFFFFFFFFFFFFFFFFFFFFFFFFFFFFFFFFFFFFFFF AND DUP2 MSTORE PUSH1 0x20 ADD SWAP1 DUP2 MSTORE PUSH1 0x20 ADD PUSH1 0x0 KECCAK256 SLOAD DUP2 GT ISZERO PUSH2 0x1AA JUMPI PUSH1 0x40 MLOAD PUSH32 0x8C379A000000000000000000000000000000000000000000000000000000000 DUP2 MSTORE PUSH1 0x4 ADD PUSH2 0x1A1 SWAP1 PUSH2 0x912 JUMP JUMPDEST PUSH1 0x40 MLOAD DUP1 SWAP2 SUB SWAP1 REVERT JUMPDEST DUP1 PUSH1 0x1 PUSH1 0x0 CALLER PUSH20 0xFFFFFFFFFFFFFFFFFFFFFFFFFFFFFFFFFFFFFFFF AND PUSH20 0xFFFFFFFFFFFFFFFFFFFFFFFFFFFFFFFFFFFFFFFF AND DUP2 MSTORE PUSH1 0x20 ADD SWAP1 DUP2 MSTORE PUSH1 0x20 ADD PUSH1 0x0 KECCAK256 PUSH1 0x0 DUP3 DUP3 SLOAD PUSH2 0x1F9 SWAP2 SWAP1 PUSH2 0x961 JUMP JUMPDEST SWAP3 POP POP DUP2 SWAP1 SSTORE POP CALLER PUSH20 0xFFFFFFFFFFFFFFFFFFFFFFFFFFFFFFFFFFFFFFFF AND PUSH2 0x8FC DUP3 SWAP1 DUP2 ISZERO MUL SWAP1 PUSH1 0x40 MLOAD PUSH1 0x0 PUSH1 0x40 MLOAD DUP1 DUP4 SUB DUP2 DUP6 DUP9 DUP9 CALL SWAP4 POP POP POP POP ISZERO DUP1 ISZERO PUSH2 0x246 JUMPI RETURNDATASIZE PUSH1 0x0 DUP1 RETURNDATACOPY RETURNDATASIZE PUSH1 0x0 REVERT JUMPDEST POP CALLER PUSH20 0xFFFFFFFFFFFFFFFFFFFFFFFFFFFFFFFFFFFFFFFF AND PUSH32 0x7FCF532C15F0A6DB0BD6D0E038BEA71D30D808C7D98CB3BF7268A95BF5081B65 DUP3 PUSH1 0x40 MLOAD PUSH2 0x28D SWAP2 SWAP1 PUSH2 0x9A4 JUMP JUMPDEST PUSH1 0x40 MLOAD DUP1 SWAP2 SUB SWAP1 LOG2 POP JUMP JUMPDEST PUSH1 0x0 DUP1 SLOAD SWAP1 PUSH2 0x100 EXP SWAP1 DIV PUSH20 0xFFFFFFFFFFFFFFFFFFFFFFFFFFFFFFFFFFFFFFFF AND DUP2 JUMP JUMPDEST PUSH1 0x0 PUSH20 0xFFFFFFFFFFFFFFFFFFFFFFFFFFFFFFFFFFFFFFFF AND DUP4 PUSH20 0xFFFFFFFFFFFFFFFFFFFFFFFFFFFFFFFFFFFFFFFF AND SUB PUSH2 0x32B JUMPI PUSH1 0x40 MLOAD PUSH32 0x8C379A000000000000000000000000000000000000000000000000000000000 DUP2 MSTORE PUSH1 0x4 ADD PUSH2 0x322 SWAP1 PUSH2 0xA0B JUMP JUMPDEST PUSH1 0x40 MLOAD DUP1 SWAP2 SUB SWAP1 REVERT JUMPDEST CALLER PUSH20 0xFFFFFFFFFFFFFFFFFFFFFFFFFFFFFFFFFFFFFFFF AND DUP4 PUSH20 0xFFFFFFFFFFFFFFFFFFFFFFFFFFFFFFFFFFFFFFFF AND SUB PUSH2 0x399 JUMPI PUSH1 0x40 MLOAD PUSH32 0x8C379A000000000000000000000000000000000000000000000000000000000 DUP2 MSTORE PUSH1 0x4 ADD PUSH2 0x390 SWAP1 PUSH2 0xA77 JUMP JUMPDEST PUSH1 0x40 MLOAD DUP1 SWAP2 SUB SWAP1 REVERT JUMPDEST DUP2 PUSH1 0x1 PUSH1 0x0 CALLER PUSH20 0xFFFFFFFFFFFFFFFFFFFFFFFFFFFFFFFFFFFFFFFF AND PUSH20 0xFFFFFFFFFFFFFFFFFFFFFFFFFFFFFFFFFFFFFFFF AND DUP2 MSTORE PUSH1 0x20 ADD SWAP1 DUP2 MSTORE PUSH1 0x20 ADD PUSH1 0x0 KECCAK256 SLOAD LT ISZERO PUSH2 0x41B JUMPI PUSH1 0x40 MLOAD PUSH32 0x8C379A000000000000000000000000000000000000000000000000000000000 DUP2 MSTORE PUSH1 0x4 ADD PUSH2 0x412 SWAP1 PUSH2 0xAE3 JUMP JUMPDEST PUSH1 0x40 MLOAD DUP1 SWAP2 SUB SWAP1 REVERT JUMPDEST PUSH1 0x0 DUP2 DUP4 PUSH2 0x429 SWAP2 SWAP1 PUSH2 0xB03 JUMP JUMPDEST SWAP1 POP DUP1 PUSH1 0x1 PUSH1 0x0 DUP7 PUSH20 0xFFFFFFFFFFFFFFFFFFFFFFFFFFFFFFFFFFFFFFFF AND PUSH20 0xFFFFFFFFFFFFFFFFFFFFFFFFFFFFFFFFFFFFFFFF AND DUP2 MSTORE PUSH1 0x20 ADD SWAP1 DUP2 MSTORE PUSH1 0x20 ADD PUSH1 0x0 KECCAK256 SLOAD LT ISZERO PUSH2 0x4AD JUMPI PUSH1 0x40 MLOAD PUSH32 0x8C379A000000000000000000000000000000000000000000000000000000000 DUP2 MSTORE PUSH1 0x4 ADD PUSH2 0x4A4 SWAP1 PUSH2 0xB91 JUMP JUMPDEST PUSH1 0x40 MLOAD DUP1 SWAP2 SUB SWAP1 REVERT JUMPDEST DUP3 PUSH1 0x1 PUSH1 0x0 CALLER PUSH20 0xFFFFFFFFFFFFFFFFFFFFFFFFFFFFFFFFFFFFFFFF AND PUSH20 0xFFFFFFFFFFFFFFFFFFFFFFFFFFFFFFFFFFFFFFFF AND DUP2 MSTORE PUSH1 0x20 ADD SWAP1 DUP2 MSTORE PUSH1 0x20 ADD PUSH1 0x0 KECCAK256 PUSH1 0x0 DUP3 DUP3 SLOAD PUSH2 0x4FC SWAP2 SWAP1 PUSH2 0x961 JUMP JUMPDEST SWAP3 POP POP DUP2 SWAP1 SSTORE POP DUP1 PUSH1 0x1 PUSH1 0x0 DUP7 PUSH20 0xFFFFFFFFFFFFFFFFFFFFFFFFFFFFFFFFFFFFFFFF AND PUSH20 0xFFFFFFFFFFFFFFFFFFFFFFFFFFFFFFFFFFFFFFFF AND DUP2 MSTORE PUSH1 0x20 ADD SWAP1 DUP2 MSTORE PUSH1 0x20 ADD PUSH1 0x0 KECCAK256 PUSH1 0x0 DUP3 DUP3 SLOAD PUSH2 0x552 SWAP2 SWAP1 PUSH2 0x961 JUMP JUMPDEST SWAP3 POP POP DUP2 SWAP1 SSTORE POP DUP1 PUSH1 0x1 PUSH1 0x0 CALLER PUSH20 0xFFFFFFFFFFFFFFFFFFFFFFFFFFFFFFFFFFFFFFFF AND PUSH20 0xFFFFFFFFFFFFFFFFFFFFFFFFFFFFFFFFFFFFFFFF AND DUP2 MSTORE PUSH1 0x20 ADD SWAP1 DUP2 MSTORE PUSH1 0x20 ADD PUSH1 0x0 KECCAK256 PUSH1 0x0 DUP3 DUP3 SLOAD PUSH2 0x5A8 SWAP2 SWAP1 PUSH2 0xBB1 JUMP JUMPDEST SWAP3 POP POP DUP2 SWAP1 SSTORE POP DUP4 PUSH20 0xFFFFFFFFFFFFFFFFFFFFFFFFFFFFFFFFFFFFFFFF AND CALLER PUSH20 0xFFFFFFFFFFFFFFFFFFFFFFFFFFFFFFFFFFFFFFFF AND PUSH32 0x4B5796113F074EBF8F11D5BCDEB6349B2FBE47ABED78419CDCDBBC15C6FCF845 DUP6 DUP6 PUSH1 0x40 MLOAD PUSH2 0x60E SWAP3 SWAP2 SWAP1 PUSH2 0xBE5 JUMP JUMPDEST PUSH1 0x40 MLOAD DUP1 SWAP2 SUB SWAP1 LOG3 POP POP POP POP JUMP JUMPDEST PUSH1 0x0 DUP2 GT PUSH2 0x65F JUMPI PUSH1 0x40 MLOAD PUSH32 0x8C379A000000000000000000000000000000000000000000000000000000000 DUP2 MSTORE PUSH1 0x4 ADD PUSH2 0x656 SWAP1 PUSH2 0xC5A JUMP JUMPDEST PUSH1 0x40 MLOAD DUP1 SWAP2 SUB SWAP1 REVERT JUMPDEST DUP1 PUSH1 0x1 PUSH1 0x0 CALLER PUSH20 0xFFFFFFFFFFFFFFFFFFFFFFFFFFFFFFFFFFFFFFFF AND PUSH20 0xFFFFFFFFFFFFFFFFFFFFFFFFFFFFFFFFFFFFFFFF AND DUP2 MSTORE PUSH1 0x20 ADD SWAP1 DUP2 MSTORE PUSH1 0x20 ADD PUSH1 0x0 KECCAK256 PUSH1 0x0 DUP3 DUP3 SLOAD PUSH2 0x6AE SWAP2 SWAP1 PUSH2 0xBB1 JUMP JUMPDEST SWAP3 POP POP DUP2 SWAP1 SSTORE POP CALLER PUSH20 0xFFFFFFFFFFFFFFFFFFFFFFFFFFFFFFFFFFFFFFFF AND PUSH32 0xE1FFFCC4923D04B559F4D29A8BFC6CDA04EB5B0D3C460751C2402C5C5CC9109C DUP3 PUSH1 0x40 MLOAD PUSH2 0x6FB SWAP2 SWAP1 PUSH2 0x9A4 JUMP JUMPDEST PUSH1 0x40 MLOAD DUP1 SWAP2 SUB SWAP1 LOG2 POP JUMP JUMPDEST PUSH1 0x0 DUP1 REVERT JUMPDEST PUSH1 0x0 DUP2 SWAP1 POP SWAP2 SWAP1 POP JUMP JUMPDEST PUSH2 0x71E DUP2 PUSH2 0x70B JUMP JUMPDEST DUP2 EQ PUSH2 0x729 JUMPI PUSH1 0x0 DUP1 REVERT JUMPDEST POP JUMP JUMPDEST PUSH1 0x0 DUP2 CALLDATALOAD SWAP1 POP PUSH2 0x73B DUP2 PUSH2 0x715 JUMP JUMPDEST SWAP3 SWAP2 POP POP JUMP JUMPDEST PUSH1 0x0 PUSH1 0x20 DUP3 DUP5 SUB SLT ISZERO PUSH2 0x757 JUMPI PUSH2 0x756 PUSH2 0x706 JUMP JUMPDEST JUMPDEST PUSH1 0x0 PUSH2 0x765 DUP5 DUP3 DUP6 ADD PUSH2 0x72C JUMP JUMPDEST SWAP2 POP POP SWAP3 SWAP2 POP POP JUMP JUMPDEST PUSH1 0x0 PUSH20 0xFFFFFFFFFFFFFFFFFFFFFFFFFFFFFFFFFFFFFFFF DUP3 AND SWAP1 POP SWAP2 SWAP1 POP JUMP JUMPDEST PUSH1 0x0 PUSH2 0x799 DUP3 PUSH2 0x76E JUMP JUMPDEST SWAP1 POP SWAP2 SWAP1 POP JUMP JUMPDEST PUSH2 0x7A9 DUP2 PUSH2 0x78E JUMP JUMPDEST DUP3 MSTORE POP POP JUMP JUMPDEST PUSH1 0x0 PUSH1 0x20 DUP3 ADD SWAP1 POP PUSH2 0x7C4 PUSH1 0x0 DUP4 ADD DUP5 PUSH2 0x7A0 JUMP JUMPDEST SWAP3 SWAP2 POP POP JUMP JUMPDEST PUSH2 0x7D3 DUP2 PUSH2 0x78E JUMP JUMPDEST DUP2 EQ PUSH2 0x7DE JUMPI PUSH1 0x0 DUP1 REVERT JUMPDEST POP JUMP JUMPDEST PUSH1 0x0 DUP2 CALLDATALOAD SWAP1 POP PUSH2 0x7F0 DUP2 PUSH2 0x7CA JUMP JUMPDEST SWAP3 SWAP2 POP POP JUMP JUMPDEST PUSH1 0x0 DUP1 PUSH1 0x0 PUSH1 0x60 DUP5 DUP7 SUB SLT ISZERO PUSH2 0x80F JUMPI PUSH2 0x80E PUSH2 0x706 JUMP JUMPDEST JUMPDEST PUSH1 0x0 PUSH2 0x81D DUP7 DUP3 DUP8 ADD PUSH2 0x7E1 JUMP JUMPDEST SWAP4 POP POP PUSH1 0x20 PUSH2 0x82E DUP7 DUP3 DUP8 ADD PUSH2 0x72C JUMP JUMPDEST SWAP3 POP POP PUSH1 0x40 PUSH2 0x83F DUP7 DUP3 DUP8 ADD PUSH2 0x72C JUMP JUMPDEST SWAP2 POP POP SWAP3 POP SWAP3 POP SWAP3 JUMP JUMPDEST PUSH1 0x0 DUP3 DUP3 MSTORE PUSH1 0x20 DUP3 ADD SWAP1 POP SWAP3 SWAP2 POP POP JUMP JUMPDEST PUSH32 0x496E76616C696420776974686461726177616C20616D6F756E74000000000000 PUSH1 0x0 DUP3 ADD MSTORE POP JUMP JUMPDEST PUSH1 0x0 PUSH2 0x890 PUSH1 0x1A DUP4 PUSH2 0x849 JUMP JUMPDEST SWAP2 POP PUSH2 0x89B DUP3 PUSH2 0x85A JUMP JUMPDEST PUSH1 0x20 DUP3 ADD SWAP1 POP SWAP2 SWAP1 POP JUMP JUMPDEST PUSH1 0x0 PUSH1 0x20 DUP3 ADD SWAP1 POP DUP2 DUP2 SUB PUSH1 0x0 DUP4 ADD MSTORE PUSH2 0x8BF DUP2 PUSH2 0x883 JUMP JUMPDEST SWAP1 POP SWAP2 SWAP1 POP JUMP JUMPDEST PUSH32 0x496E73756666696369656E742062616C616E6365000000000000000000000000 PUSH1 0x0 DUP3 ADD MSTORE POP JUMP JUMPDEST PUSH1 0x0 PUSH2 0x8FC PUSH1 0x14 DUP4 PUSH2 0x849 JUMP JUMPDEST SWAP2 POP PUSH2 0x907 DUP3 PUSH2 0x8C6 JUMP JUMPDEST PUSH1 0x20 DUP3 ADD SWAP1 POP SWAP2 SWAP1 POP JUMP JUMPDEST PUSH1 0x0 PUSH1 0x20 DUP3 ADD SWAP1 POP DUP2 DUP2 SUB PUSH1 0x0 DUP4 ADD MSTORE PUSH2 0x92B DUP2 PUSH2 0x8EF JUMP JUMPDEST SWAP1 POP SWAP2 SWAP1 POP JUMP JUMPDEST PUSH32 0x4E487B7100000000000000000000000000000000000000000000000000000000 PUSH1 0x0 MSTORE PUSH1 0x11 PUSH1 0x4 MSTORE PUSH1 0x24 PUSH1 0x0 REVERT JUMPDEST PUSH1 0x0 PUSH2 0x96C DUP3 PUSH2 0x70B JUMP JUMPDEST SWAP2 POP PUSH2 0x977 DUP4 PUSH2 0x70B JUMP JUMPDEST SWAP3 POP DUP3 DUP3 SUB SWAP1 POP DUP2 DUP2 GT ISZERO PUSH2 0x98F JUMPI PUSH2 0x98E PUSH2 0x932 JUMP JUMPDEST JUMPDEST SWAP3 SWAP2 POP POP JUMP JUMPDEST PUSH2 0x99E DUP2 PUSH2 0x70B JUMP JUMPDEST DUP3 MSTORE POP POP JUMP JUMPDEST PUSH1 0x0 PUSH1 0x20 DUP3 ADD SWAP1 POP PUSH2 0x9B9 PUSH1 0x0 DUP4 ADD DUP5 PUSH2 0x995 JUMP JUMPDEST SWAP3 SWAP2 POP POP JUMP JUMPDEST PUSH32 0x496E76616C69642073656C6C6572206164647265737300000000000000000000 PUSH1 0x0 DUP3 ADD MSTORE POP JUMP JUMPDEST PUSH1 0x0 PUSH2 0x9F5 PUSH1 0x16 DUP4 PUSH2 0x849 JUMP JUMPDEST SWAP2 POP PUSH2 0xA00 DUP3 PUSH2 0x9BF JUMP JUMPDEST PUSH1 0x20 DUP3 ADD SWAP1 POP SWAP2 SWAP1 POP JUMP JUMPDEST PUSH1 0x0 PUSH1 0x20 DUP3 ADD SWAP1 POP DUP2 DUP2 SUB PUSH1 0x0 DUP4 ADD MSTORE PUSH2 0xA24 DUP2 PUSH2 0x9E8 JUMP JUMPDEST SWAP1 POP SWAP2 SWAP1 POP JUMP JUMPDEST PUSH32 0x43616E6E6F74207472616465207769746820796F757273656C66000000000000 PUSH1 0x0 DUP3 ADD MSTORE POP JUMP JUMPDEST PUSH1 0x0 PUSH2 0xA61 PUSH1 0x1A DUP4 PUSH2 0x849 JUMP JUMPDEST SWAP2 POP PUSH2 0xA6C DUP3 PUSH2 0xA2B JUMP JUMPDEST PUSH1 0x20 DUP3 ADD SWAP1 POP SWAP2 SWAP1 POP JUMP JUMPDEST PUSH1 0x0 PUSH1 0x20 DUP3 ADD SWAP1 POP DUP2 DUP2 SUB PUSH1 0x0 DUP4 ADD MSTORE PUSH2 0xA90 DUP2 PUSH2 0xA54 JUMP JUMPDEST SWAP1 POP SWAP2 SWAP1 POP JUMP JUMPDEST PUSH32 0x496E73756666696369656E742066756E64730000000000000000000000000000 PUSH1 0x0 DUP3 ADD MSTORE POP JUMP JUMPDEST PUSH1 0x0 PUSH2 0xACD PUSH1 0x12 DUP4 PUSH2 0x849 JUMP JUMPDEST SWAP2 POP PUSH2 0xAD8 DUP3 PUSH2 0xA97 JUMP JUMPDEST PUSH1 0x20 DUP3 ADD SWAP1 POP SWAP2 SWAP1 POP JUMP JUMPDEST PUSH1 0x0 PUSH1 0x20 DUP3 ADD SWAP1 POP DUP2 DUP2 SUB PUSH1 0x0 DUP4 ADD MSTORE PUSH2 0xAFC DUP2 PUSH2 0xAC0 JUMP JUMPDEST SWAP1 POP SWAP2 SWAP1 POP JUMP JUMPDEST PUSH1 0x0 PUSH2 0xB0E DUP3 PUSH2 0x70B JUMP JUMPDEST SWAP2 POP PUSH2 0xB19 DUP4 PUSH2 0x70B JUMP JUMPDEST SWAP3 POP DUP3 DUP3 MUL PUSH2 0xB27 DUP2 PUSH2 0x70B JUMP JUMPDEST SWAP2 POP DUP3 DUP3 DIV DUP5 EQ DUP4 ISZERO OR PUSH2 0xB3E JUMPI PUSH2 0xB3D PUSH2 0x932 JUMP JUMPDEST JUMPDEST POP SWAP3 SWAP2 POP POP JUMP JUMPDEST PUSH32 0x53656C6C65722068617320496E73756666696369656E742062616C616E636500 PUSH1 0x0 DUP3 ADD MSTORE POP JUMP JUMPDEST PUSH1 0x0 PUSH2 0xB7B PUSH1 0x1F DUP4 PUSH2 0x849 JUMP JUMPDEST SWAP2 POP PUSH2 0xB86 DUP3 PUSH2 0xB45 JUMP JUMPDEST PUSH1 0x20 DUP3 ADD SWAP1 POP SWAP2 SWAP1 POP JUMP JUMPDEST PUSH1 0x0 PUSH1 0x20 DUP3 ADD SWAP1 POP DUP2 DUP2 SUB PUSH1 0x0 DUP4 ADD MSTORE PUSH2 0xBAA DUP2 PUSH2 0xB6E JUMP JUMPDEST SWAP1 POP SWAP2 SWAP1 POP JUMP JUMPDEST PUSH1 0x0 PUSH2 0xBBC DUP3 PUSH2 0x70B JUMP JUMPDEST SWAP2 POP PUSH2 0xBC7 DUP4 PUSH2 0x70B JUMP JUMPDEST SWAP3 POP DUP3 DUP3 ADD SWAP1 POP DUP1 DUP3 GT ISZERO PUSH2 0xBDF JUMPI PUSH2 0xBDE PUSH2 0x932 JUMP JUMPDEST JUMPDEST SWAP3 SWAP2 POP POP JUMP JUMPDEST PUSH1 0x0 PUSH1 0x40 DUP3 ADD SWAP1 POP PUSH2 0xBFA PUSH1 0x0 DUP4 ADD DUP6 PUSH2 0x995 JUMP JUMPDEST PUSH2 0xC07 PUSH1 0x20 DUP4 ADD DUP5 PUSH2 0x995 JUMP JUMPDEST SWAP4 SWAP3 POP POP POP JUMP JUMPDEST PUSH32 0x496E76616C6964206465706F73697420616D6F756E7400000000000000000000 PUSH1 0x0 DUP3 ADD MSTORE POP JUMP JUMPDEST PUSH1 0x0 PUSH2 0xC44 PUSH1 0x16 DUP4 PUSH2 0x849 JUMP JUMPDEST SWAP2 POP PUSH2 0xC4F DUP3 PUSH2 0xC0E JUMP JUMPDEST PUSH1 0x20 DUP3 ADD SWAP1 POP SWAP2 SWAP1 POP JUMP JUMPDEST PUSH1 0x0 PUSH1 0x20 DUP3 ADD SWAP1 POP DUP2 DUP2 SUB PUSH1 0x0 DUP4 ADD MSTORE PUSH2 0xC73 DUP2 PUSH2 0xC37 JUMP JUMPDEST SWAP1 POP SWAP2 SWAP1 POP JUMP INVALID LOG2 PUSH5 0x6970667358 0x22 SLT KECCAK256 PUSH7 0x18AF7535E9E16E GT LOG0 KECCAK256 ADDRESS LOG1 0x2C BALANCE PUSH31 0x533B2DBDA0AC6749B09F93E35BD0D95064736F6C6343000812003300000000 "
				},
				"gasEstimates": {
					"creation": {
						"codeDepositCost": "649600",
						"executionCost": "24949",
						"totalCost": "674549"
					},
					"external": {
						"": "151",
						"deposit(uint256)": "infinite",
						"owner()": "2511",
						"trade(address,uint256,uint256)": "infinite",
						"withdraw(uint256)": "infinite"
					}
				},
				"methodIdentifiers": {
					"deposit(uint256)": "b6b55f25",
					"owner()": "8da5cb5b",
					"trade(address,uint256,uint256)": "b44b96e1",
					"withdraw(uint256)": "2e1a7d4d"
				}
			},
			"storageLayout": {
				"storage": [
					{
						"astId": 3,
						"contract": "contracts/dex.sol:DecentralizedExchange",
						"label": "owner",
						"offset": 0,
						"slot": "0",
						"type": "t_address"
					},
					{
						"astId": 7,
						"contract": "contracts/dex.sol:DecentralizedExchange",
						"label": "balances",
						"offset": 0,
						"slot": "1",
						"type": "t_mapping(t_address,t_uint256)"
					}
				],
				"types": {
					"t_address": {
						"encoding": "inplace",
						"label": "address",
						"numberOfBytes": "20"
					},
					"t_mapping(t_address,t_uint256)": {
						"encoding": "mapping",
						"key": "t_address",
						"label": "mapping(address => uint256)",
						"numberOfBytes": "32",
						"value": "t_uint256"
					},
					"t_uint256": {
						"encoding": "inplace",
						"label": "uint256",
						"numberOfBytes": "32"
					}
				}
			},
			"userdoc": {
				"kind": "user",
				"methods": {},
				"version": 1
			}
		}
	}
}