{
	"contracts/aggregator.sol": {
		"MockPriceFeed": {
			"abi": [
				{
					"inputs": [
						{
							"internalType": "int256",
							"name": "initialPrice",
							"type": "int256"
						}
					],
					"stateMutability": "nonpayable",
					"type": "constructor"
				},
				{
					"inputs": [],
					"name": "latestRoundData",
					"outputs": [
						{
							"internalType": "uint80",
							"name": "roundId",
							"type": "uint80"
						},
						{
							"internalType": "int256",
							"name": "answer",
							"type": "int256"
						},
						{
							"internalType": "uint256",
							"name": "startedAt",
							"type": "uint256"
						},
						{
							"internalType": "uint256",
							"name": "updatedAt",
							"type": "uint256"
						},
						{
							"internalType": "uint80",
							"name": "answeredInRound",
							"type": "uint80"
						}
					],
					"stateMutability": "view",
					"type": "function"
				},
				{
					"inputs": [
						{
							"internalType": "int256",
							"name": "price",
							"type": "int256"
						}
					],
					"name": "serPrice",
					"outputs": [],
					"stateMutability": "nonpayable",
					"type": "function"
				}
			],
			"devdoc": {
				"kind": "dev",
				"methods": {},
				"version": 1
			},
			"evm": {
				"assembly": "    /* \"contracts/aggregator.sol\":288:887  contract MockPriceFeed is AggregatorV3Interface {... */\n  mstore(0x40, 0x80)\n    /* \"contracts/aggregator.sol\":374:448  constructor(int256 initialPrice){... */\n  callvalue\n  dup1\n  iszero\n  tag_1\n  jumpi\n  0x00\n  dup1\n  revert\ntag_1:\n  pop\n  mload(0x40)\n  sub(codesize, bytecodeSize)\n  dup1\n  bytecodeSize\n  dup4\n  codecopy\n  dup2\n  dup2\n  add\n  0x40\n  mstore\n  dup2\n  add\n  swap1\n  tag_2\n  swap2\n  swap1\n  tag_3\n  jump\t// in\ntag_2:\n    /* \"contracts/aggregator.sol\":429:441  initialPrice */\n  dup1\n    /* \"contracts/aggregator.sol\":416:426  _mockPrice */\n  0x00\n    /* \"contracts/aggregator.sol\":416:441  _mockPrice = initialPrice */\n  dup2\n  swap1\n  sstore\n  pop\n    /* \"contracts/aggregator.sol\":374:448  constructor(int256 initialPrice){... */\n  pop\n    /* \"contracts/aggregator.sol\":288:887  contract MockPriceFeed is AggregatorV3Interface {... */\n  jump(tag_6)\n    /* \"#utility.yul\":88:205   */\ntag_8:\n    /* \"#utility.yul\":197:198   */\n  0x00\n    /* \"#utility.yul\":194:195   */\n  dup1\n    /* \"#utility.yul\":187:199   */\n  revert\n    /* \"#utility.yul\":334:410   */\ntag_10:\n    /* \"#utility.yul\":370:377   */\n  0x00\n    /* \"#utility.yul\":399:404   */\n  dup2\n    /* \"#utility.yul\":388:404   */\n  swap1\n  pop\n    /* \"#utility.yul\":334:410   */\n  swap2\n  swap1\n  pop\n  jump\t// out\n    /* \"#utility.yul\":416:536   */\ntag_11:\n    /* \"#utility.yul\":488:511   */\n  tag_19\n    /* \"#utility.yul\":505:510   */\n  dup2\n    /* \"#utility.yul\":488:511   */\n  tag_10\n  jump\t// in\ntag_19:\n    /* \"#utility.yul\":481:486   */\n  dup2\n    /* \"#utility.yul\":478:512   */\n  eq\n    /* \"#utility.yul\":468:530   */\n  tag_20\n  jumpi\n    /* \"#utility.yul\":526:527   */\n  0x00\n    /* \"#utility.yul\":523:524   */\n  dup1\n    /* \"#utility.yul\":516:528   */\n  revert\n    /* \"#utility.yul\":468:530   */\ntag_20:\n    /* \"#utility.yul\":416:536   */\n  pop\n  jump\t// out\n    /* \"#utility.yul\":542:683   */\ntag_12:\n    /* \"#utility.yul\":598:603   */\n  0x00\n    /* \"#utility.yul\":629:635   */\n  dup2\n    /* \"#utility.yul\":623:636   */\n  mload\n    /* \"#utility.yul\":614:636   */\n  swap1\n  pop\n    /* \"#utility.yul\":645:677   */\n  tag_22\n    /* \"#utility.yul\":671:676   */\n  dup2\n    /* \"#utility.yul\":645:677   */\n  tag_11\n  jump\t// in\ntag_22:\n    /* \"#utility.yul\":542:683   */\n  swap3\n  swap2\n  pop\n  pop\n  jump\t// out\n    /* \"#utility.yul\":689:1038   */\ntag_3:\n    /* \"#utility.yul\":758:764   */\n  0x00\n    /* \"#utility.yul\":807:809   */\n  0x20\n    /* \"#utility.yul\":795:804   */\n  dup3\n    /* \"#utility.yul\":786:793   */\n  dup5\n    /* \"#utility.yul\":782:805   */\n  sub\n    /* \"#utility.yul\":778:810   */\n  slt\n    /* \"#utility.yul\":775:894   */\n  iszero\n  tag_24\n  jumpi\n    /* \"#utility.yul\":813:892   */\n  tag_25\n  tag_8\n  jump\t// in\ntag_25:\n    /* \"#utility.yul\":775:894   */\ntag_24:\n    /* \"#utility.yul\":933:934   */\n  0x00\n    /* \"#utility.yul\":958:1021   */\n  tag_26\n    /* \"#utility.yul\":1013:1020   */\n  dup5\n    /* \"#utility.yul\":1004:1010   */\n  dup3\n    /* \"#utility.yul\":993:1002   */\n  dup6\n    /* \"#utility.yul\":989:1011   */\n  add\n    /* \"#utility.yul\":958:1021   */\n  tag_12\n  jump\t// in\ntag_26:\n    /* \"#utility.yul\":948:1021   */\n  swap2\n  pop\n    /* \"#utility.yul\":904:1031   */\n  pop\n    /* \"#utility.yul\":689:1038   */\n  swap3\n  swap2\n  pop\n  pop\n  jump\t// out\n    /* \"contracts/aggregator.sol\":288:887  contract MockPriceFeed is AggregatorV3Interface {... */\ntag_6:\n  dataSize(sub_0)\n  dup1\n  dataOffset(sub_0)\n  0x00\n  codecopy\n  0x00\n  return\nstop\n\nsub_0: assembly {\n        /* \"contracts/aggregator.sol\":288:887  contract MockPriceFeed is AggregatorV3Interface {... */\n      mstore(0x40, 0x80)\n      callvalue\n      dup1\n      iszero\n      tag_1\n      jumpi\n      0x00\n      dup1\n      revert\n    tag_1:\n      pop\n      jumpi(tag_2, lt(calldatasize, 0x04))\n      shr(0xe0, calldataload(0x00))\n      dup1\n      0xce503eef\n      eq\n      tag_3\n      jumpi\n      dup1\n      0xfeaf968c\n      eq\n      tag_4\n      jumpi\n    tag_2:\n      0x00\n      dup1\n      revert\n        /* \"contracts/aggregator.sol\":810:885  function serPrice(int256 price) external{... */\n    tag_3:\n      tag_5\n      0x04\n      dup1\n      calldatasize\n      sub\n      dup2\n      add\n      swap1\n      tag_6\n      swap2\n      swap1\n      tag_7\n      jump\t// in\n    tag_6:\n      tag_8\n      jump\t// in\n    tag_5:\n      stop\n        /* \"contracts/aggregator.sol\":454:804  function latestRoundData() external view override returns(... */\n    tag_4:\n      tag_9\n      tag_10\n      jump\t// in\n    tag_9:\n      mload(0x40)\n      tag_11\n      swap6\n      swap5\n      swap4\n      swap3\n      swap2\n      swap1\n      tag_12\n      jump\t// in\n    tag_11:\n      mload(0x40)\n      dup1\n      swap2\n      sub\n      swap1\n      return\n        /* \"contracts/aggregator.sol\":810:885  function serPrice(int256 price) external{... */\n    tag_8:\n        /* \"contracts/aggregator.sol\":873:878  price */\n      dup1\n        /* \"contracts/aggregator.sol\":860:870  _mockPrice */\n      0x00\n        /* \"contracts/aggregator.sol\":860:878  _mockPrice = price */\n      dup2\n      swap1\n      sstore\n      pop\n        /* \"contracts/aggregator.sol\":810:885  function serPrice(int256 price) external{... */\n      pop\n      jump\t// out\n        /* \"contracts/aggregator.sol\":454:804  function latestRoundData() external view override returns(... */\n    tag_10:\n        /* \"contracts/aggregator.sol\":521:535  uint80 roundId */\n      0x00\n        /* \"contracts/aggregator.sol\":545:558  int256 answer */\n      dup1\n        /* \"contracts/aggregator.sol\":568:585  uint256 startedAt */\n      0x00\n        /* \"contracts/aggregator.sol\":595:612  uint256 updatedAt */\n      dup1\n        /* \"contracts/aggregator.sol\":622:644  uint80 answeredInRound */\n      0x00\n        /* \"contracts/aggregator.sol\":678:679  0 */\n      dup1\n        /* \"contracts/aggregator.sol\":668:679  roundId = 0 */\n      swap5\n      pop\n        /* \"contracts/aggregator.sol\":698:708  _mockPrice */\n      sload(0x00)\n        /* \"contracts/aggregator.sol\":689:708  answer = _mockPrice */\n      swap4\n      pop\n        /* \"contracts/aggregator.sol\":730:731  0 */\n      0x00\n        /* \"contracts/aggregator.sol\":718:731  startedAt = 0 */\n      swap3\n      pop\n        /* \"contracts/aggregator.sol\":753:768  block.timestamp */\n      timestamp\n        /* \"contracts/aggregator.sol\":741:768  updatedAt = block.timestamp */\n      swap2\n      pop\n        /* \"contracts/aggregator.sol\":796:797  0 */\n      0x00\n        /* \"contracts/aggregator.sol\":778:797  answeredInRound = 0 */\n      swap1\n      pop\n        /* \"contracts/aggregator.sol\":454:804  function latestRoundData() external view override returns(... */\n      swap1\n      swap2\n      swap3\n      swap4\n      swap5\n      jump\t// out\n        /* \"#utility.yul\":88:205   */\n    tag_16:\n        /* \"#utility.yul\":197:198   */\n      0x00\n        /* \"#utility.yul\":194:195   */\n      dup1\n        /* \"#utility.yul\":187:199   */\n      revert\n        /* \"#utility.yul\":334:410   */\n    tag_18:\n        /* \"#utility.yul\":370:377   */\n      0x00\n        /* \"#utility.yul\":399:404   */\n      dup2\n        /* \"#utility.yul\":388:404   */\n      swap1\n      pop\n        /* \"#utility.yul\":334:410   */\n      swap2\n      swap1\n      pop\n      jump\t// out\n        /* \"#utility.yul\":416:536   */\n    tag_19:\n        /* \"#utility.yul\":488:511   */\n      tag_32\n        /* \"#utility.yul\":505:510   */\n      dup2\n        /* \"#utility.yul\":488:511   */\n      tag_18\n      jump\t// in\n    tag_32:\n        /* \"#utility.yul\":481:486   */\n      dup2\n        /* \"#utility.yul\":478:512   */\n      eq\n        /* \"#utility.yul\":468:530   */\n      tag_33\n      jumpi\n        /* \"#utility.yul\":526:527   */\n      0x00\n        /* \"#utility.yul\":523:524   */\n      dup1\n        /* \"#utility.yul\":516:528   */\n      revert\n        /* \"#utility.yul\":468:530   */\n    tag_33:\n        /* \"#utility.yul\":416:536   */\n      pop\n      jump\t// out\n        /* \"#utility.yul\":542:679   */\n    tag_20:\n        /* \"#utility.yul\":587:592   */\n      0x00\n        /* \"#utility.yul\":625:631   */\n      dup2\n        /* \"#utility.yul\":612:632   */\n      calldataload\n        /* \"#utility.yul\":603:632   */\n      swap1\n      pop\n        /* \"#utility.yul\":641:673   */\n      tag_35\n        /* \"#utility.yul\":667:672   */\n      dup2\n        /* \"#utility.yul\":641:673   */\n      tag_19\n      jump\t// in\n    tag_35:\n        /* \"#utility.yul\":542:679   */\n      swap3\n      swap2\n      pop\n      pop\n      jump\t// out\n        /* \"#utility.yul\":685:1012   */\n    tag_7:\n        /* \"#utility.yul\":743:749   */\n      0x00\n        /* \"#utility.yul\":792:794   */\n      0x20\n        /* \"#utility.yul\":780:789   */\n      dup3\n        /* \"#utility.yul\":771:778   */\n      dup5\n        /* \"#utility.yul\":767:790   */\n      sub\n        /* \"#utility.yul\":763:795   */\n      slt\n        /* \"#utility.yul\":760:879   */\n      iszero\n      tag_37\n      jumpi\n        /* \"#utility.yul\":798:877   */\n      tag_38\n      tag_16\n      jump\t// in\n    tag_38:\n        /* \"#utility.yul\":760:879   */\n    tag_37:\n        /* \"#utility.yul\":918:919   */\n      0x00\n        /* \"#utility.yul\":943:995   */\n      tag_39\n        /* \"#utility.yul\":987:994   */\n      dup5\n        /* \"#utility.yul\":978:984   */\n      dup3\n        /* \"#utility.yul\":967:976   */\n      dup6\n        /* \"#utility.yul\":963:985   */\n      add\n        /* \"#utility.yul\":943:995   */\n      tag_20\n      jump\t// in\n    tag_39:\n        /* \"#utility.yul\":933:995   */\n      swap2\n      pop\n        /* \"#utility.yul\":889:1005   */\n      pop\n        /* \"#utility.yul\":685:1012   */\n      swap3\n      swap2\n      pop\n      pop\n      jump\t// out\n        /* \"#utility.yul\":1018:1123   */\n    tag_21:\n        /* \"#utility.yul\":1054:1061   */\n      0x00\n        /* \"#utility.yul\":1094:1116   */\n      0xffffffffffffffffffff\n        /* \"#utility.yul\":1087:1092   */\n      dup3\n        /* \"#utility.yul\":1083:1117   */\n      and\n        /* \"#utility.yul\":1072:1117   */\n      swap1\n      pop\n        /* \"#utility.yul\":1018:1123   */\n      swap2\n      swap1\n      pop\n      jump\t// out\n        /* \"#utility.yul\":1129:1244   */\n    tag_22:\n        /* \"#utility.yul\":1214:1237   */\n      tag_42\n        /* \"#utility.yul\":1231:1236   */\n      dup2\n        /* \"#utility.yul\":1214:1237   */\n      tag_21\n      jump\t// in\n    tag_42:\n        /* \"#utility.yul\":1209:1212   */\n      dup3\n        /* \"#utility.yul\":1202:1238   */\n      mstore\n        /* \"#utility.yul\":1129:1244   */\n      pop\n      pop\n      jump\t// out\n        /* \"#utility.yul\":1250:1365   */\n    tag_23:\n        /* \"#utility.yul\":1335:1358   */\n      tag_44\n        /* \"#utility.yul\":1352:1357   */\n      dup2\n        /* \"#utility.yul\":1335:1358   */\n      tag_18\n      jump\t// in\n    tag_44:\n        /* \"#utility.yul\":1330:1333   */\n      dup3\n        /* \"#utility.yul\":1323:1359   */\n      mstore\n        /* \"#utility.yul\":1250:1365   */\n      pop\n      pop\n      jump\t// out\n        /* \"#utility.yul\":1371:1448   */\n    tag_24:\n        /* \"#utility.yul\":1408:1415   */\n      0x00\n        /* \"#utility.yul\":1437:1442   */\n      dup2\n        /* \"#utility.yul\":1426:1442   */\n      swap1\n      pop\n        /* \"#utility.yul\":1371:1448   */\n      swap2\n      swap1\n      pop\n      jump\t// out\n        /* \"#utility.yul\":1454:1572   */\n    tag_25:\n        /* \"#utility.yul\":1541:1565   */\n      tag_47\n        /* \"#utility.yul\":1559:1564   */\n      dup2\n        /* \"#utility.yul\":1541:1565   */\n      tag_24\n      jump\t// in\n    tag_47:\n        /* \"#utility.yul\":1536:1539   */\n      dup3\n        /* \"#utility.yul\":1529:1566   */\n      mstore\n        /* \"#utility.yul\":1454:1572   */\n      pop\n      pop\n      jump\t// out\n        /* \"#utility.yul\":1578:2230   */\n    tag_12:\n        /* \"#utility.yul\":1777:1781   */\n      0x00\n        /* \"#utility.yul\":1815:1818   */\n      0xa0\n        /* \"#utility.yul\":1804:1813   */\n      dup3\n        /* \"#utility.yul\":1800:1819   */\n      add\n        /* \"#utility.yul\":1792:1819   */\n      swap1\n      pop\n        /* \"#utility.yul\":1829:1898   */\n      tag_49\n        /* \"#utility.yul\":1895:1896   */\n      0x00\n        /* \"#utility.yul\":1884:1893   */\n      dup4\n        /* \"#utility.yul\":1880:1897   */\n      add\n        /* \"#utility.yul\":1871:1877   */\n      dup9\n        /* \"#utility.yul\":1829:1898   */\n      tag_22\n      jump\t// in\n    tag_49:\n        /* \"#utility.yul\":1908:1978   */\n      tag_50\n        /* \"#utility.yul\":1974:1976   */\n      0x20\n        /* \"#utility.yul\":1963:1972   */\n      dup4\n        /* \"#utility.yul\":1959:1977   */\n      add\n        /* \"#utility.yul\":1950:1956   */\n      dup8\n        /* \"#utility.yul\":1908:1978   */\n      tag_23\n      jump\t// in\n    tag_50:\n        /* \"#utility.yul\":1988:2060   */\n      tag_51\n        /* \"#utility.yul\":2056:2058   */\n      0x40\n        /* \"#utility.yul\":2045:2054   */\n      dup4\n        /* \"#utility.yul\":2041:2059   */\n      add\n        /* \"#utility.yul\":2032:2038   */\n      dup7\n        /* \"#utility.yul\":1988:2060   */\n      tag_25\n      jump\t// in\n    tag_51:\n        /* \"#utility.yul\":2070:2142   */\n      tag_52\n        /* \"#utility.yul\":2138:2140   */\n      0x60\n        /* \"#utility.yul\":2127:2136   */\n      dup4\n        /* \"#utility.yul\":2123:2141   */\n      add\n        /* \"#utility.yul\":2114:2120   */\n      dup6\n        /* \"#utility.yul\":2070:2142   */\n      tag_25\n      jump\t// in\n    tag_52:\n        /* \"#utility.yul\":2152:2223   */\n      tag_53\n        /* \"#utility.yul\":2218:2221   */\n      0x80\n        /* \"#utility.yul\":2207:2216   */\n      dup4\n        /* \"#utility.yul\":2203:2222   */\n      add\n        /* \"#utility.yul\":2194:2200   */\n      dup5\n        /* \"#utility.yul\":2152:2223   */\n      tag_22\n      jump\t// in\n    tag_53:\n        /* \"#utility.yul\":1578:2230   */\n      swap7\n      swap6\n      pop\n      pop\n      pop\n      pop\n      pop\n      pop\n      jump\t// out\n\n    auxdata: 0xa264697066735822122005ac763b42cab5384da757c543ef13dcdd5a31ea3fb587d5896e66f102f9e06e64736f6c63430008120033\n}\n",
				"bytecode": {
					"linkReferences": {},
					"object": "608060405234801561001057600080fd5b506040516102993803806102998339818101604052810190610032919061007a565b80600081905550506100a7565b600080fd5b6000819050919050565b61005781610044565b811461006257600080fd5b50565b6000815190506100748161004e565b92915050565b6000602082840312156100905761008f61003f565b5b600061009e84828501610065565b91505092915050565b6101e3806100b66000396000f3fe608060405234801561001057600080fd5b50600436106100365760003560e01c8063ce503eef1461003b578063feaf968c14610057575b600080fd5b610055600480360381019061005091906100e0565b610079565b005b61005f610083565b60405161007095949392919061015a565b60405180910390f35b8060008190555050565b6000806000806000809450600054935060009250429150600090509091929394565b600080fd5b6000819050919050565b6100bd816100aa565b81146100c857600080fd5b50565b6000813590506100da816100b4565b92915050565b6000602082840312156100f6576100f56100a5565b5b6000610104848285016100cb565b91505092915050565b600069ffffffffffffffffffff82169050919050565b61012c8161010d565b82525050565b61013b816100aa565b82525050565b6000819050919050565b61015481610141565b82525050565b600060a08201905061016f6000830188610123565b61017c6020830187610132565b610189604083018661014b565b610196606083018561014b565b6101a36080830184610123565b969550505050505056fea264697066735822122005ac763b42cab5384da757c543ef13dcdd5a31ea3fb587d5896e66f102f9e06e64736f6c63430008120033",
					"opcodes": "PUSH1 0x80 PUSH1 0x40 MSTORE CALLVALUE DUP1 ISZERO PUSH2 0x10 JUMPI PUSH1 0x0 DUP1 REVERT JUMPDEST POP PUSH1 0x40 MLOAD PUSH2 0x299 CODESIZE SUB DUP1 PUSH2 0x299 DUP4 CODECOPY DUP2 DUP2 ADD PUSH1 0x40 MSTORE DUP2 ADD SWAP1 PUSH2 0x32 SWAP2 SWAP1 PUSH2 0x7A JUMP JUMPDEST DUP1 PUSH1 0x0 DUP2 SWAP1 SSTORE POP POP PUSH2 0xA7 JUMP JUMPDEST PUSH1 0x0 DUP1 REVERT JUMPDEST PUSH1 0x0 DUP2 SWAP1 POP SWAP2 SWAP1 POP JUMP JUMPDEST PUSH2 0x57 DUP2 PUSH2 0x44 JUMP JUMPDEST DUP2 EQ PUSH2 0x62 JUMPI PUSH1 0x0 DUP1 REVERT JUMPDEST POP JUMP JUMPDEST PUSH1 0x0 DUP2 MLOAD SWAP1 POP PUSH2 0x74 DUP2 PUSH2 0x4E JUMP JUMPDEST SWAP3 SWAP2 POP POP JUMP JUMPDEST PUSH1 0x0 PUSH1 0x20 DUP3 DUP5 SUB SLT ISZERO PUSH2 0x90 JUMPI PUSH2 0x8F PUSH2 0x3F JUMP JUMPDEST JUMPDEST PUSH1 0x0 PUSH2 0x9E DUP5 DUP3 DUP6 ADD PUSH2 0x65 JUMP JUMPDEST SWAP2 POP POP SWAP3 SWAP2 POP POP JUMP JUMPDEST PUSH2 0x1E3 DUP1 PUSH2 0xB6 PUSH1 0x0 CODECOPY PUSH1 0x0 RETURN INVALID PUSH1 0x80 PUSH1 0x40 MSTORE CALLVALUE DUP1 ISZERO PUSH2 0x10 JUMPI PUSH1 0x0 DUP1 REVERT JUMPDEST POP PUSH1 0x4 CALLDATASIZE LT PUSH2 0x36 JUMPI PUSH1 0x0 CALLDATALOAD PUSH1 0xE0 SHR DUP1 PUSH4 0xCE503EEF EQ PUSH2 0x3B JUMPI DUP1 PUSH4 0xFEAF968C EQ PUSH2 0x57 JUMPI JUMPDEST PUSH1 0x0 DUP1 REVERT JUMPDEST PUSH2 0x55 PUSH1 0x4 DUP1 CALLDATASIZE SUB DUP2 ADD SWAP1 PUSH2 0x50 SWAP2 SWAP1 PUSH2 0xE0 JUMP JUMPDEST PUSH2 0x79 JUMP JUMPDEST STOP JUMPDEST PUSH2 0x5F PUSH2 0x83 JUMP JUMPDEST PUSH1 0x40 MLOAD PUSH2 0x70 SWAP6 SWAP5 SWAP4 SWAP3 SWAP2 SWAP1 PUSH2 0x15A JUMP JUMPDEST PUSH1 0x40 MLOAD DUP1 SWAP2 SUB SWAP1 RETURN JUMPDEST DUP1 PUSH1 0x0 DUP2 SWAP1 SSTORE POP POP JUMP JUMPDEST PUSH1 0x0 DUP1 PUSH1 0x0 DUP1 PUSH1 0x0 DUP1 SWAP5 POP PUSH1 0x0 SLOAD SWAP4 POP PUSH1 0x0 SWAP3 POP TIMESTAMP SWAP2 POP PUSH1 0x0 SWAP1 POP SWAP1 SWAP2 SWAP3 SWAP4 SWAP5 JUMP JUMPDEST PUSH1 0x0 DUP1 REVERT JUMPDEST PUSH1 0x0 DUP2 SWAP1 POP SWAP2 SWAP1 POP JUMP JUMPDEST PUSH2 0xBD DUP2 PUSH2 0xAA JUMP JUMPDEST DUP2 EQ PUSH2 0xC8 JUMPI PUSH1 0x0 DUP1 REVERT JUMPDEST POP JUMP JUMPDEST PUSH1 0x0 DUP2 CALLDATALOAD SWAP1 POP PUSH2 0xDA DUP2 PUSH2 0xB4 JUMP JUMPDEST SWAP3 SWAP2 POP POP JUMP JUMPDEST PUSH1 0x0 PUSH1 0x20 DUP3 DUP5 SUB SLT ISZERO PUSH2 0xF6 JUMPI PUSH2 0xF5 PUSH2 0xA5 JUMP JUMPDEST JUMPDEST PUSH1 0x0 PUSH2 0x104 DUP5 DUP3 DUP6 ADD PUSH2 0xCB JUMP JUMPDEST SWAP2 POP POP SWAP3 SWAP2 POP POP JUMP JUMPDEST PUSH1 0x0 PUSH10 0xFFFFFFFFFFFFFFFFFFFF DUP3 AND SWAP1 POP SWAP2 SWAP1 POP JUMP JUMPDEST PUSH2 0x12C DUP2 PUSH2 0x10D JUMP JUMPDEST DUP3 MSTORE POP POP JUMP JUMPDEST PUSH2 0x13B DUP2 PUSH2 0xAA JUMP JUMPDEST DUP3 MSTORE POP POP JUMP JUMPDEST PUSH1 0x0 DUP2 SWAP1 POP SWAP2 SWAP1 POP JUMP JUMPDEST PUSH2 0x154 DUP2 PUSH2 0x141 JUMP JUMPDEST DUP3 MSTORE POP POP JUMP JUMPDEST PUSH1 0x0 PUSH1 0xA0 DUP3 ADD SWAP1 POP PUSH2 0x16F PUSH1 0x0 DUP4 ADD DUP9 PUSH2 0x123 JUMP JUMPDEST PUSH2 0x17C PUSH1 0x20 DUP4 ADD DUP8 PUSH2 0x132 JUMP JUMPDEST PUSH2 0x189 PUSH1 0x40 DUP4 ADD DUP7 PUSH2 0x14B JUMP JUMPDEST PUSH2 0x196 PUSH1 0x60 DUP4 ADD DUP6 PUSH2 0x14B JUMP JUMPDEST PUSH2 0x1A3 PUSH1 0x80 DUP4 ADD DUP5 PUSH2 0x123 JUMP JUMPDEST SWAP7 SWAP6 POP POP POP POP POP POP JUMP INVALID LOG2 PUSH5 0x6970667358 0x22 SLT KECCAK256 SDIV 0xAC PUSH23 0x3B42CAB5384DA757C543EF13DCDD5A31EA3FB587D5896E PUSH7 0xF102F9E06E6473 PUSH16 0x6C634300081200330000000000000000 "
				},
				"gasEstimates": {
					"creation": {
						"codeDepositCost": "96600",
						"executionCost": "infinite",
						"totalCost": "infinite"
					},
					"external": {
						"latestRoundData()": "infinite",
						"serPrice(int256)": "22498"
					}
				},
				"methodIdentifiers": {
					"latestRoundData()": "feaf968c",
					"serPrice(int256)": "ce503eef"
				}
			},
			"storageLayout": {
				"storage": [
					{
						"astId": 731,
						"contract": "contracts/aggregator.sol:MockPriceFeed",
						"label": "_mockPrice",
						"offset": 0,
						"slot": "0",
						"type": "t_int256"
					}
				],
				"types": {
					"t_int256": {
						"encoding": "inplace",
						"label": "int256",
						"numberOfBytes": "32"
					}
				}
			},
			"userdoc": {
				"kind": "user",
				"methods": {},
				"version": 1
			}
		}
	}
}