{
	"contracts/auction.sol": {
		"Auction": {
			"abi": [
				{
					"inputs": [
						{
							"internalType": "uint256",
							"name": "_biddingTime",
							"type": "uint256"
						}
					],
					"stateMutability": "nonpayable",
					"type": "constructor"
				},
				{
					"anonymous": false,
					"inputs": [
						{
							"indexed": false,
							"internalType": "address",
							"name": "winner",
							"type": "address"
						},
						{
							"indexed": false,
							"internalType": "uint256",
							"name": "amount",
							"type": "uint256"
						}
					],
					"name": "AuctionEnded",
					"type": "event"
				},
				{
					"anonymous": false,
					"inputs": [
						{
							"indexed": false,
							"internalType": "address",
							"name": "bidder",
							"type": "address"
						},
						{
							"indexed": false,
							"internalType": "uint256",
							"name": "amount",
							"type": "uint256"
						}
					],
					"name": "HighestBidIncreased",
					"type": "event"
				},
				{
					"stateMutability": "payable",
					"type": "fallback"
				},
				{
					"inputs": [],
					"name": "auctionEndTime",
					"outputs": [
						{
							"internalType": "uint256",
							"name": "",
							"type": "uint256"
						}
					],
					"stateMutability": "view",
					"type": "function"
				},
				{
					"inputs": [],
					"name": "auctioneer",
					"outputs": [
						{
							"internalType": "address",
							"name": "",
							"type": "address"
						}
					],
					"stateMutability": "view",
					"type": "function"
				},
				{
					"inputs": [],
					"name": "endAuction",
					"outputs": [],
					"stateMutability": "nonpayable",
					"type": "function"
				},
				{
					"inputs": [],
					"name": "ended",
					"outputs": [
						{
							"internalType": "bool",
							"name": "",
							"type": "bool"
						}
					],
					"stateMutability": "view",
					"type": "function"
				},
				{
					"inputs": [],
					"name": "highestBid",
					"outputs": [
						{
							"internalType": "uint256",
							"name": "",
							"type": "uint256"
						}
					],
					"stateMutability": "view",
					"type": "function"
				},
				{
					"inputs": [],
					"name": "highestBider",
					"outputs": [
						{
							"internalType": "address",
							"name": "",
							"type": "address"
						}
					],
					"stateMutability": "view",
					"type": "function"
				},
				{
					"inputs": [
						{
							"internalType": "address",
							"name": "",
							"type": "address"
						}
					],
					"name": "pendingReturns",
					"outputs": [
						{
							"internalType": "uint256",
							"name": "",
							"type": "uint256"
						}
					],
					"stateMutability": "view",
					"type": "function"
				},
				{
					"inputs": [
						{
							"internalType": "uint256",
							"name": "_bidAmount",
							"type": "uint256"
						}
					],
					"name": "setBid",
					"outputs": [],
					"stateMutability": "nonpayable",
					"type": "function"
				},
				{
					"inputs": [],
					"name": "withdraw",
					"outputs": [],
					"stateMutability": "nonpayable",
					"type": "function"
				},
				{
					"stateMutability": "payable",
					"type": "receive"
				}
			],
			"devdoc": {
				"kind": "dev",
				"methods": {},
				"version": 1
			},
			"evm": {
				"assembly": "    /* \"contracts/auction.sol\":58:1613  contract Auction {... */\n  mstore(0x40, 0x80)\n    /* \"contracts/auction.sol\":397:524  constructor(uint _biddingTime){... */\n  callvalue\n  dup1\n  iszero\n  tag_1\n  jumpi\n  0x00\n  dup1\n  revert\ntag_1:\n  pop\n  mload(0x40)\n  sub(codesize, bytecodeSize)\n  dup1\n  bytecodeSize\n  dup4\n  codecopy\n  dup2\n  dup2\n  add\n  0x40\n  mstore\n  dup2\n  add\n  swap1\n  tag_2\n  swap2\n  swap1\n  tag_3\n  jump\t// in\ntag_2:\n    /* \"contracts/auction.sol\":450:460  msg.sender */\n  caller\n    /* \"contracts/auction.sol\":437:447  auctioneer */\n  0x00\n  dup1\n    /* \"contracts/auction.sol\":437:460  auctioneer = msg.sender */\n  0x0100\n  exp\n  dup2\n  sload\n  dup2\n  0xffffffffffffffffffffffffffffffffffffffff\n  mul\n  not\n  and\n  swap1\n  dup4\n  0xffffffffffffffffffffffffffffffffffffffff\n  and\n  mul\n  or\n  swap1\n  sstore\n  pop\n    /* \"contracts/auction.sol\":505:517  _biddingTime */\n  dup1\n    /* \"contracts/auction.sol\":487:502  block.timestamp */\n  timestamp\n    /* \"contracts/auction.sol\":487:517  block.timestamp + _biddingTime */\n  tag_6\n  swap2\n  swap1\n  tag_7\n  jump\t// in\ntag_6:\n    /* \"contracts/auction.sol\":470:484  auctionEndTime */\n  0x01\n    /* \"contracts/auction.sol\":470:517  auctionEndTime = block.timestamp + _biddingTime */\n  dup2\n  swap1\n  sstore\n  pop\n    /* \"contracts/auction.sol\":397:524  constructor(uint _biddingTime){... */\n  pop\n    /* \"contracts/auction.sol\":58:1613  contract Auction {... */\n  jump(tag_8)\n    /* \"#utility.yul\":88:205   */\ntag_10:\n    /* \"#utility.yul\":197:198   */\n  0x00\n    /* \"#utility.yul\":194:195   */\n  dup1\n    /* \"#utility.yul\":187:199   */\n  revert\n    /* \"#utility.yul\":334:411   */\ntag_12:\n    /* \"#utility.yul\":371:378   */\n  0x00\n    /* \"#utility.yul\":400:405   */\n  dup2\n    /* \"#utility.yul\":389:405   */\n  swap1\n  pop\n    /* \"#utility.yul\":334:411   */\n  swap2\n  swap1\n  pop\n  jump\t// out\n    /* \"#utility.yul\":417:539   */\ntag_13:\n    /* \"#utility.yul\":490:514   */\n  tag_22\n    /* \"#utility.yul\":508:513   */\n  dup2\n    /* \"#utility.yul\":490:514   */\n  tag_12\n  jump\t// in\ntag_22:\n    /* \"#utility.yul\":483:488   */\n  dup2\n    /* \"#utility.yul\":480:515   */\n  eq\n    /* \"#utility.yul\":470:533   */\n  tag_23\n  jumpi\n    /* \"#utility.yul\":529:530   */\n  0x00\n    /* \"#utility.yul\":526:527   */\n  dup1\n    /* \"#utility.yul\":519:531   */\n  revert\n    /* \"#utility.yul\":470:533   */\ntag_23:\n    /* \"#utility.yul\":417:539   */\n  pop\n  jump\t// out\n    /* \"#utility.yul\":545:688   */\ntag_14:\n    /* \"#utility.yul\":602:607   */\n  0x00\n    /* \"#utility.yul\":633:639   */\n  dup2\n    /* \"#utility.yul\":627:640   */\n  mload\n    /* \"#utility.yul\":618:640   */\n  swap1\n  pop\n    /* \"#utility.yul\":649:682   */\n  tag_25\n    /* \"#utility.yul\":676:681   */\n  dup2\n    /* \"#utility.yul\":649:682   */\n  tag_13\n  jump\t// in\ntag_25:\n    /* \"#utility.yul\":545:688   */\n  swap3\n  swap2\n  pop\n  pop\n  jump\t// out\n    /* \"#utility.yul\":694:1045   */\ntag_3:\n    /* \"#utility.yul\":764:770   */\n  0x00\n    /* \"#utility.yul\":813:815   */\n  0x20\n    /* \"#utility.yul\":801:810   */\n  dup3\n    /* \"#utility.yul\":792:799   */\n  dup5\n    /* \"#utility.yul\":788:811   */\n  sub\n    /* \"#utility.yul\":784:816   */\n  slt\n    /* \"#utility.yul\":781:900   */\n  iszero\n  tag_27\n  jumpi\n    /* \"#utility.yul\":819:898   */\n  tag_28\n  tag_10\n  jump\t// in\ntag_28:\n    /* \"#utility.yul\":781:900   */\ntag_27:\n    /* \"#utility.yul\":939:940   */\n  0x00\n    /* \"#utility.yul\":964:1028   */\n  tag_29\n    /* \"#utility.yul\":1020:1027   */\n  dup5\n    /* \"#utility.yul\":1011:1017   */\n  dup3\n    /* \"#utility.yul\":1000:1009   */\n  dup6\n    /* \"#utility.yul\":996:1018   */\n  add\n    /* \"#utility.yul\":964:1028   */\n  tag_14\n  jump\t// in\ntag_29:\n    /* \"#utility.yul\":954:1028   */\n  swap2\n  pop\n    /* \"#utility.yul\":910:1038   */\n  pop\n    /* \"#utility.yul\":694:1045   */\n  swap3\n  swap2\n  pop\n  pop\n  jump\t// out\n    /* \"#utility.yul\":1051:1231   */\ntag_15:\n    /* \"#utility.yul\":1099:1176   */\n  0x4e487b7100000000000000000000000000000000000000000000000000000000\n    /* \"#utility.yul\":1096:1097   */\n  0x00\n    /* \"#utility.yul\":1089:1177   */\n  mstore\n    /* \"#utility.yul\":1196:1200   */\n  0x11\n    /* \"#utility.yul\":1193:1194   */\n  0x04\n    /* \"#utility.yul\":1186:1201   */\n  mstore\n    /* \"#utility.yul\":1220:1224   */\n  0x24\n    /* \"#utility.yul\":1217:1218   */\n  0x00\n    /* \"#utility.yul\":1210:1225   */\n  revert\n    /* \"#utility.yul\":1237:1428   */\ntag_7:\n    /* \"#utility.yul\":1277:1280   */\n  0x00\n    /* \"#utility.yul\":1296:1316   */\n  tag_32\n    /* \"#utility.yul\":1314:1315   */\n  dup3\n    /* \"#utility.yul\":1296:1316   */\n  tag_12\n  jump\t// in\ntag_32:\n    /* \"#utility.yul\":1291:1316   */\n  swap2\n  pop\n    /* \"#utility.yul\":1330:1350   */\n  tag_33\n    /* \"#utility.yul\":1348:1349   */\n  dup4\n    /* \"#utility.yul\":1330:1350   */\n  tag_12\n  jump\t// in\ntag_33:\n    /* \"#utility.yul\":1325:1350   */\n  swap3\n  pop\n    /* \"#utility.yul\":1373:1374   */\n  dup3\n    /* \"#utility.yul\":1370:1371   */\n  dup3\n    /* \"#utility.yul\":1366:1375   */\n  add\n    /* \"#utility.yul\":1359:1375   */\n  swap1\n  pop\n    /* \"#utility.yul\":1394:1397   */\n  dup1\n    /* \"#utility.yul\":1391:1392   */\n  dup3\n    /* \"#utility.yul\":1388:1398   */\n  gt\n    /* \"#utility.yul\":1385:1421   */\n  iszero\n  tag_34\n  jumpi\n    /* \"#utility.yul\":1401:1419   */\n  tag_35\n  tag_15\n  jump\t// in\ntag_35:\n    /* \"#utility.yul\":1385:1421   */\ntag_34:\n    /* \"#utility.yul\":1237:1428   */\n  swap3\n  swap2\n  pop\n  pop\n  jump\t// out\n    /* \"contracts/auction.sol\":58:1613  contract Auction {... */\ntag_8:\n  dataSize(sub_0)\n  dup1\n  dataOffset(sub_0)\n  0x00\n  codecopy\n  0x00\n  return\nstop\n\nsub_0: assembly {\n        /* \"contracts/auction.sol\":58:1613  contract Auction {... */\n      mstore(0x40, 0x80)\n      jumpi(tag_1, lt(calldatasize, 0x04))\n      shr(0xe0, calldataload(0x00))\n      dup1\n      0x5ec2c7bf\n      gt\n      tag_12\n      jumpi\n      dup1\n      0x5ec2c7bf\n      eq\n      tag_7\n      jumpi\n      dup1\n      0x6b57707e\n      eq\n      tag_8\n      jumpi\n      dup1\n      0xcef55b9a\n      eq\n      tag_9\n      jumpi\n      dup1\n      0xd57bde79\n      eq\n      tag_10\n      jumpi\n      dup1\n      0xfe67a54b\n      eq\n      tag_11\n      jumpi\n      jump(tag_2)\n    tag_12:\n      dup1\n      0x12fa6feb\n      eq\n      tag_3\n      jumpi\n      dup1\n      0x26b387bb\n      eq\n      tag_4\n      jumpi\n      dup1\n      0x3ccfd60b\n      eq\n      tag_5\n      jumpi\n      dup1\n      0x4b449cba\n      eq\n      tag_6\n      jumpi\n      jump(tag_2)\n    tag_1:\n      jumpi(tag_2, calldatasize)\n      stop\n    tag_2:\n      stop\n        /* \"contracts/auction.sol\":259:276  bool public ended */\n    tag_3:\n      callvalue\n      dup1\n      iszero\n      tag_17\n      jumpi\n      0x00\n      dup1\n      revert\n    tag_17:\n      pop\n      tag_18\n      tag_19\n      jump\t// in\n    tag_18:\n      mload(0x40)\n      tag_20\n      swap2\n      swap1\n      tag_21\n      jump\t// in\n    tag_20:\n      mload(0x40)\n      dup1\n      swap2\n      sub\n      swap1\n      return\n        /* \"contracts/auction.sol\":206:252  mapping(address => uint) public pendingReturns */\n    tag_4:\n      callvalue\n      dup1\n      iszero\n      tag_22\n      jumpi\n      0x00\n      dup1\n      revert\n    tag_22:\n      pop\n      tag_23\n      0x04\n      dup1\n      calldatasize\n      sub\n      dup2\n      add\n      swap1\n      tag_24\n      swap2\n      swap1\n      tag_25\n      jump\t// in\n    tag_24:\n      tag_26\n      jump\t// in\n    tag_23:\n      mload(0x40)\n      tag_27\n      swap2\n      swap1\n      tag_28\n      jump\t// in\n    tag_27:\n      mload(0x40)\n      dup1\n      swap2\n      sub\n      swap1\n      return\n        /* \"contracts/auction.sol\":936:1222  function withdraw() public {... */\n    tag_5:\n      callvalue\n      dup1\n      iszero\n      tag_29\n      jumpi\n      0x00\n      dup1\n      revert\n    tag_29:\n      pop\n      tag_30\n      tag_31\n      jump\t// in\n    tag_30:\n      stop\n        /* \"contracts/auction.sol\":112:138  uint public auctionEndTime */\n    tag_6:\n      callvalue\n      dup1\n      iszero\n      tag_32\n      jumpi\n      0x00\n      dup1\n      revert\n    tag_32:\n      pop\n      tag_33\n      tag_34\n      jump\t// in\n    tag_33:\n      mload(0x40)\n      tag_35\n      swap2\n      swap1\n      tag_28\n      jump\t// in\n    tag_35:\n      mload(0x40)\n      dup1\n      swap2\n      sub\n      swap1\n      return\n        /* \"contracts/auction.sol\":81:106  address public auctioneer */\n    tag_7:\n      callvalue\n      dup1\n      iszero\n      tag_36\n      jumpi\n      0x00\n      dup1\n      revert\n    tag_36:\n      pop\n      tag_37\n      tag_38\n      jump\t// in\n    tag_37:\n      mload(0x40)\n      tag_39\n      swap2\n      swap1\n      tag_40\n      jump\t// in\n    tag_39:\n      mload(0x40)\n      dup1\n      swap2\n      sub\n      swap1\n      return\n        /* \"contracts/auction.sol\":144:171  address public highestBider */\n    tag_8:\n      callvalue\n      dup1\n      iszero\n      tag_41\n      jumpi\n      0x00\n      dup1\n      revert\n    tag_41:\n      pop\n      tag_42\n      tag_43\n      jump\t// in\n    tag_42:\n      mload(0x40)\n      tag_44\n      swap2\n      swap1\n      tag_40\n      jump\t// in\n    tag_44:\n      mload(0x40)\n      dup1\n      swap2\n      sub\n      swap1\n      return\n        /* \"contracts/auction.sol\":530:930  function setBid(uint _bidAmount) public {... */\n    tag_9:\n      callvalue\n      dup1\n      iszero\n      tag_45\n      jumpi\n      0x00\n      dup1\n      revert\n    tag_45:\n      pop\n      tag_46\n      0x04\n      dup1\n      calldatasize\n      sub\n      dup2\n      add\n      swap1\n      tag_47\n      swap2\n      swap1\n      tag_48\n      jump\t// in\n    tag_47:\n      tag_49\n      jump\t// in\n    tag_46:\n      stop\n        /* \"contracts/auction.sol\":177:199  uint public highestBid */\n    tag_10:\n      callvalue\n      dup1\n      iszero\n      tag_50\n      jumpi\n      0x00\n      dup1\n      revert\n    tag_50:\n      pop\n      tag_51\n      tag_52\n      jump\t// in\n    tag_51:\n      mload(0x40)\n      tag_53\n      swap2\n      swap1\n      tag_28\n      jump\t// in\n    tag_53:\n      mload(0x40)\n      dup1\n      swap2\n      sub\n      swap1\n      return\n        /* \"contracts/auction.sol\":1228:1532  function endAuction() public {... */\n    tag_11:\n      callvalue\n      dup1\n      iszero\n      tag_54\n      jumpi\n      0x00\n      dup1\n      revert\n    tag_54:\n      pop\n      tag_55\n      tag_56\n      jump\t// in\n    tag_55:\n      stop\n        /* \"contracts/auction.sol\":259:276  bool public ended */\n    tag_19:\n      0x05\n      0x00\n      swap1\n      sload\n      swap1\n      0x0100\n      exp\n      swap1\n      div\n      0xff\n      and\n      dup2\n      jump\t// out\n        /* \"contracts/auction.sol\":206:252  mapping(address => uint) public pendingReturns */\n    tag_26:\n      mstore(0x20, 0x04)\n      dup1\n      0x00\n      mstore\n      keccak256(0x00, 0x40)\n      0x00\n      swap2\n      pop\n      swap1\n      pop\n      sload\n      dup2\n      jump\t// out\n        /* \"contracts/auction.sol\":936:1222  function withdraw() public {... */\n    tag_31:\n        /* \"contracts/auction.sol\":973:984  uint amount */\n      0x00\n        /* \"contracts/auction.sol\":987:1001  pendingReturns */\n      0x04\n        /* \"contracts/auction.sol\":987:1013  pendingReturns[msg.sender] */\n      0x00\n        /* \"contracts/auction.sol\":1002:1012  msg.sender */\n      caller\n        /* \"contracts/auction.sol\":987:1013  pendingReturns[msg.sender] */\n      0xffffffffffffffffffffffffffffffffffffffff\n      and\n      0xffffffffffffffffffffffffffffffffffffffff\n      and\n      dup2\n      mstore\n      0x20\n      add\n      swap1\n      dup2\n      mstore\n      0x20\n      add\n      0x00\n      keccak256\n      sload\n        /* \"contracts/auction.sol\":973:1013  uint amount = pendingReturns[msg.sender] */\n      swap1\n      pop\n        /* \"contracts/auction.sol\":1040:1041  0 */\n      0x00\n        /* \"contracts/auction.sol\":1031:1037  amount */\n      dup2\n        /* \"contracts/auction.sol\":1031:1041  amount > 0 */\n      gt\n        /* \"contracts/auction.sol\":1023:1067  require(amount > 0, \" No funds to withdraw\") */\n      tag_58\n      jumpi\n      mload(0x40)\n      0x08c379a000000000000000000000000000000000000000000000000000000000\n      dup2\n      mstore\n      0x04\n      add\n      tag_59\n      swap1\n      tag_60\n      jump\t// in\n    tag_59:\n      mload(0x40)\n      dup1\n      swap2\n      sub\n      swap1\n      revert\n    tag_58:\n        /* \"contracts/auction.sol\":1107:1108  0 */\n      0x00\n        /* \"contracts/auction.sol\":1078:1092  pendingReturns */\n      0x04\n        /* \"contracts/auction.sol\":1078:1104  pendingReturns[msg.sender] */\n      0x00\n        /* \"contracts/auction.sol\":1093:1103  msg.sender */\n      caller\n        /* \"contracts/auction.sol\":1078:1104  pendingReturns[msg.sender] */\n      0xffffffffffffffffffffffffffffffffffffffff\n      and\n      0xffffffffffffffffffffffffffffffffffffffff\n      and\n      dup2\n      mstore\n      0x20\n      add\n      swap1\n      dup2\n      mstore\n      0x20\n      add\n      0x00\n      keccak256\n        /* \"contracts/auction.sol\":1078:1108  pendingReturns[msg.sender] = 0 */\n      dup2\n      swap1\n      sstore\n      pop\n        /* \"contracts/auction.sol\":1131:1141  msg.sender */\n      caller\n        /* \"contracts/auction.sol\":1123:1147  payable(msg.sender).send */\n      0xffffffffffffffffffffffffffffffffffffffff\n      and\n        /* \"contracts/auction.sol\":1123:1155  payable(msg.sender).send(amount) */\n      0x08fc\n        /* \"contracts/auction.sol\":1148:1154  amount */\n      dup3\n        /* \"contracts/auction.sol\":1123:1155  payable(msg.sender).send(amount) */\n      swap1\n      dup2\n      iszero\n      mul\n      swap1\n      mload(0x40)\n      0x00\n      mload(0x40)\n      dup1\n      dup4\n      sub\n      dup2\n      dup6\n      dup9\n      dup9\n      call\n      swap4\n      pop\n      pop\n      pop\n      pop\n        /* \"contracts/auction.sol\":1119:1216  if(!payable(msg.sender).send(amount)){... */\n      tag_62\n      jumpi\n        /* \"contracts/auction.sol\":1199:1205  amount */\n      dup1\n        /* \"contracts/auction.sol\":1170:1184  pendingReturns */\n      0x04\n        /* \"contracts/auction.sol\":1170:1196  pendingReturns[msg.sender] */\n      0x00\n        /* \"contracts/auction.sol\":1185:1195  msg.sender */\n      caller\n        /* \"contracts/auction.sol\":1170:1196  pendingReturns[msg.sender] */\n      0xffffffffffffffffffffffffffffffffffffffff\n      and\n      0xffffffffffffffffffffffffffffffffffffffff\n      and\n      dup2\n      mstore\n      0x20\n      add\n      swap1\n      dup2\n      mstore\n      0x20\n      add\n      0x00\n      keccak256\n        /* \"contracts/auction.sol\":1170:1205  pendingReturns[msg.sender] = amount */\n      dup2\n      swap1\n      sstore\n      pop\n        /* \"contracts/auction.sol\":1119:1216  if(!payable(msg.sender).send(amount)){... */\n    tag_62:\n        /* \"contracts/auction.sol\":963:1222  {... */\n      pop\n        /* \"contracts/auction.sol\":936:1222  function withdraw() public {... */\n      jump\t// out\n        /* \"contracts/auction.sol\":112:138  uint public auctionEndTime */\n    tag_34:\n      sload(0x01)\n      dup2\n      jump\t// out\n        /* \"contracts/auction.sol\":81:106  address public auctioneer */\n    tag_38:\n      0x00\n      dup1\n      sload\n      swap1\n      0x0100\n      exp\n      swap1\n      div\n      0xffffffffffffffffffffffffffffffffffffffff\n      and\n      dup2\n      jump\t// out\n        /* \"contracts/auction.sol\":144:171  address public highestBider */\n    tag_43:\n      0x02\n      0x00\n      swap1\n      sload\n      swap1\n      0x0100\n      exp\n      swap1\n      div\n      0xffffffffffffffffffffffffffffffffffffffff\n      and\n      dup2\n      jump\t// out\n        /* \"contracts/auction.sol\":530:930  function setBid(uint _bidAmount) public {... */\n    tag_49:\n        /* \"contracts/auction.sol\":589:594  ended */\n      0x05\n      0x00\n      swap1\n      sload\n      swap1\n      0x0100\n      exp\n      swap1\n      div\n      0xff\n      and\n        /* \"contracts/auction.sol\":588:594  !ended */\n      iszero\n        /* \"contracts/auction.sol\":580:625  require(!ended , \"Auction has already ended\") */\n      tag_64\n      jumpi\n      mload(0x40)\n      0x08c379a000000000000000000000000000000000000000000000000000000000\n      dup2\n      mstore\n      0x04\n      add\n      tag_65\n      swap1\n      tag_66\n      jump\t// in\n    tag_65:\n      mload(0x40)\n      dup1\n      swap2\n      sub\n      swap1\n      revert\n    tag_64:\n        /* \"contracts/auction.sol\":656:666  highestBid */\n      sload(0x03)\n        /* \"contracts/auction.sol\":643:653  _bidAmount */\n      dup2\n        /* \"contracts/auction.sol\":643:666  _bidAmount > highestBid */\n      gt\n        /* \"contracts/auction.sol\":635:700  require(_bidAmount > highestBid, \"There is already a higher bid\") */\n      tag_67\n      jumpi\n      mload(0x40)\n      0x08c379a000000000000000000000000000000000000000000000000000000000\n      dup2\n      mstore\n      0x04\n      add\n      tag_68\n      swap1\n      tag_69\n      jump\t// in\n    tag_68:\n      mload(0x40)\n      dup1\n      swap2\n      sub\n      swap1\n      revert\n    tag_67:\n        /* \"contracts/auction.sol\":728:729  0 */\n      0x00\n        /* \"contracts/auction.sol\":714:724  highestBid */\n      sload(0x03)\n        /* \"contracts/auction.sol\":714:729  highestBid != 0 */\n      eq\n        /* \"contracts/auction.sol\":711:797  if(highestBid != 0){... */\n      tag_70\n      jumpi\n        /* \"contracts/auction.sol\":776:786  highestBid */\n      sload(0x03)\n        /* \"contracts/auction.sol\":744:758  pendingReturns */\n      0x04\n        /* \"contracts/auction.sol\":744:772  pendingReturns[highestBider] */\n      0x00\n        /* \"contracts/auction.sol\":759:771  highestBider */\n      0x02\n      0x00\n      swap1\n      sload\n      swap1\n      0x0100\n      exp\n      swap1\n      div\n      0xffffffffffffffffffffffffffffffffffffffff\n      and\n        /* \"contracts/auction.sol\":744:772  pendingReturns[highestBider] */\n      0xffffffffffffffffffffffffffffffffffffffff\n      and\n      0xffffffffffffffffffffffffffffffffffffffff\n      and\n      dup2\n      mstore\n      0x20\n      add\n      swap1\n      dup2\n      mstore\n      0x20\n      add\n      0x00\n      keccak256\n      0x00\n        /* \"contracts/auction.sol\":744:786  pendingReturns[highestBider] += highestBid */\n      dup3\n      dup3\n      sload\n      tag_71\n      swap2\n      swap1\n      tag_72\n      jump\t// in\n    tag_71:\n      swap3\n      pop\n      pop\n      dup2\n      swap1\n      sstore\n      pop\n        /* \"contracts/auction.sol\":711:797  if(highestBid != 0){... */\n    tag_70:\n        /* \"contracts/auction.sol\":822:832  msg.sender */\n      caller\n        /* \"contracts/auction.sol\":807:819  highestBider */\n      0x02\n      0x00\n        /* \"contracts/auction.sol\":807:832  highestBider = msg.sender */\n      0x0100\n      exp\n      dup2\n      sload\n      dup2\n      0xffffffffffffffffffffffffffffffffffffffff\n      mul\n      not\n      and\n      swap1\n      dup4\n      0xffffffffffffffffffffffffffffffffffffffff\n      and\n      mul\n      or\n      swap1\n      sstore\n      pop\n        /* \"contracts/auction.sol\":855:865  _bidAmount */\n      dup1\n        /* \"contracts/auction.sol\":842:852  highestBid */\n      0x03\n        /* \"contracts/auction.sol\":842:865  highestBid = _bidAmount */\n      dup2\n      swap1\n      sstore\n      pop\n        /* \"contracts/auction.sol\":880:923  HighestBidIncreased(msg.sender, _bidAmount) */\n      0xf4757a49b326036464bec6fe419a4ae38c8a02ce3e68bf0809674f6aab8ad300\n        /* \"contracts/auction.sol\":900:910  msg.sender */\n      caller\n        /* \"contracts/auction.sol\":912:922  _bidAmount */\n      dup3\n        /* \"contracts/auction.sol\":880:923  HighestBidIncreased(msg.sender, _bidAmount) */\n      mload(0x40)\n      tag_73\n      swap3\n      swap2\n      swap1\n      tag_74\n      jump\t// in\n    tag_73:\n      mload(0x40)\n      dup1\n      swap2\n      sub\n      swap1\n      log1\n        /* \"contracts/auction.sol\":530:930  function setBid(uint _bidAmount) public {... */\n      pop\n      jump\t// out\n        /* \"contracts/auction.sol\":177:199  uint public highestBid */\n    tag_52:\n      sload(0x03)\n      dup2\n      jump\t// out\n        /* \"contracts/auction.sol\":1228:1532  function endAuction() public {... */\n    tag_56:\n        /* \"contracts/auction.sol\":1289:1299  auctioneer */\n      0x00\n      dup1\n      sload\n      swap1\n      0x0100\n      exp\n      swap1\n      div\n      0xffffffffffffffffffffffffffffffffffffffff\n      and\n        /* \"contracts/auction.sol\":1275:1299  msg.sender == auctioneer */\n      0xffffffffffffffffffffffffffffffffffffffff\n      and\n        /* \"contracts/auction.sol\":1275:1285  msg.sender */\n      caller\n        /* \"contracts/auction.sol\":1275:1299  msg.sender == auctioneer */\n      0xffffffffffffffffffffffffffffffffffffffff\n      and\n      eq\n        /* \"contracts/auction.sol\":1267:1344  require(msg.sender == auctioneer, \" Only the auctioneer can end the auction\") */\n      tag_76\n      jumpi\n      mload(0x40)\n      0x08c379a000000000000000000000000000000000000000000000000000000000\n      dup2\n      mstore\n      0x04\n      add\n      tag_77\n      swap1\n      tag_78\n      jump\t// in\n    tag_77:\n      mload(0x40)\n      dup1\n      swap2\n      sub\n      swap1\n      revert\n    tag_76:\n        /* \"contracts/auction.sol\":1363:1368  ended */\n      0x05\n      0x00\n      swap1\n      sload\n      swap1\n      0x0100\n      exp\n      swap1\n      div\n      0xff\n      and\n        /* \"contracts/auction.sol\":1362:1368  !ended */\n      iszero\n        /* \"contracts/auction.sol\":1354:1398  require(!ended, \"Auction has already ended\") */\n      tag_79\n      jumpi\n      mload(0x40)\n      0x08c379a000000000000000000000000000000000000000000000000000000000\n      dup2\n      mstore\n      0x04\n      add\n      tag_80\n      swap1\n      tag_66\n      jump\t// in\n    tag_80:\n      mload(0x40)\n      dup1\n      swap2\n      sub\n      swap1\n      revert\n    tag_79:\n        /* \"contracts/auction.sol\":1417:1421  true */\n      0x01\n        /* \"contracts/auction.sol\":1409:1414  ended */\n      0x05\n      0x00\n        /* \"contracts/auction.sol\":1409:1421  ended = true */\n      0x0100\n      exp\n      dup2\n      sload\n      dup2\n      0xff\n      mul\n      not\n      and\n      swap1\n      dup4\n      iszero\n      iszero\n      mul\n      or\n      swap1\n      sstore\n      pop\n        /* \"contracts/auction.sol\":1436:1474  AuctionEnded(highestBider, highestBid) */\n      0xdaec4582d5d9595688c8c98545fdd1c696d41c6aeaeb636737e84ed2f5c00eda\n        /* \"contracts/auction.sol\":1449:1461  highestBider */\n      0x02\n      0x00\n      swap1\n      sload\n      swap1\n      0x0100\n      exp\n      swap1\n      div\n      0xffffffffffffffffffffffffffffffffffffffff\n      and\n        /* \"contracts/auction.sol\":1463:1473  highestBid */\n      sload(0x03)\n        /* \"contracts/auction.sol\":1436:1474  AuctionEnded(highestBider, highestBid) */\n      mload(0x40)\n      tag_81\n      swap3\n      swap2\n      swap1\n      tag_74\n      jump\t// in\n    tag_81:\n      mload(0x40)\n      dup1\n      swap2\n      sub\n      swap1\n      log1\n        /* \"contracts/auction.sol\":1493:1503  auctioneer */\n      0x00\n      dup1\n      sload\n      swap1\n      0x0100\n      exp\n      swap1\n      div\n      0xffffffffffffffffffffffffffffffffffffffff\n      and\n        /* \"contracts/auction.sol\":1485:1513  payable(auctioneer).transfer */\n      0xffffffffffffffffffffffffffffffffffffffff\n      and\n        /* \"contracts/auction.sol\":1485:1525  payable(auctioneer).transfer(highestBid) */\n      0x08fc\n        /* \"contracts/auction.sol\":1514:1524  highestBid */\n      sload(0x03)\n        /* \"contracts/auction.sol\":1485:1525  payable(auctioneer).transfer(highestBid) */\n      swap1\n      dup2\n      iszero\n      mul\n      swap1\n      mload(0x40)\n      0x00\n      mload(0x40)\n      dup1\n      dup4\n      sub\n      dup2\n      dup6\n      dup9\n      dup9\n      call\n      swap4\n      pop\n      pop\n      pop\n      pop\n      iszero\n      dup1\n      iszero\n      tag_83\n      jumpi\n      returndatasize\n      0x00\n      dup1\n      returndatacopy\n      revert(0x00, returndatasize)\n    tag_83:\n      pop\n        /* \"contracts/auction.sol\":1228:1532  function endAuction() public {... */\n      jump\t// out\n        /* \"#utility.yul\":7:97   */\n    tag_84:\n        /* \"#utility.yul\":41:48   */\n      0x00\n        /* \"#utility.yul\":84:89   */\n      dup2\n        /* \"#utility.yul\":77:90   */\n      iszero\n        /* \"#utility.yul\":70:91   */\n      iszero\n        /* \"#utility.yul\":59:91   */\n      swap1\n      pop\n        /* \"#utility.yul\":7:97   */\n      swap2\n      swap1\n      pop\n      jump\t// out\n        /* \"#utility.yul\":103:212   */\n    tag_85:\n        /* \"#utility.yul\":184:205   */\n      tag_111\n        /* \"#utility.yul\":199:204   */\n      dup2\n        /* \"#utility.yul\":184:205   */\n      tag_84\n      jump\t// in\n    tag_111:\n        /* \"#utility.yul\":179:182   */\n      dup3\n        /* \"#utility.yul\":172:206   */\n      mstore\n        /* \"#utility.yul\":103:212   */\n      pop\n      pop\n      jump\t// out\n        /* \"#utility.yul\":218:428   */\n    tag_21:\n        /* \"#utility.yul\":305:309   */\n      0x00\n        /* \"#utility.yul\":343:345   */\n      0x20\n        /* \"#utility.yul\":332:341   */\n      dup3\n        /* \"#utility.yul\":328:346   */\n      add\n        /* \"#utility.yul\":320:346   */\n      swap1\n      pop\n        /* \"#utility.yul\":356:421   */\n      tag_113\n        /* \"#utility.yul\":418:419   */\n      0x00\n        /* \"#utility.yul\":407:416   */\n      dup4\n        /* \"#utility.yul\":403:420   */\n      add\n        /* \"#utility.yul\":394:400   */\n      dup5\n        /* \"#utility.yul\":356:421   */\n      tag_85\n      jump\t// in\n    tag_113:\n        /* \"#utility.yul\":218:428   */\n      swap3\n      swap2\n      pop\n      pop\n      jump\t// out\n        /* \"#utility.yul\":515:632   */\n    tag_87:\n        /* \"#utility.yul\":624:625   */\n      0x00\n        /* \"#utility.yul\":621:622   */\n      dup1\n        /* \"#utility.yul\":614:626   */\n      revert\n        /* \"#utility.yul\":761:887   */\n    tag_89:\n        /* \"#utility.yul\":798:805   */\n      0x00\n        /* \"#utility.yul\":838:880   */\n      0xffffffffffffffffffffffffffffffffffffffff\n        /* \"#utility.yul\":831:836   */\n      dup3\n        /* \"#utility.yul\":827:881   */\n      and\n        /* \"#utility.yul\":816:881   */\n      swap1\n      pop\n        /* \"#utility.yul\":761:887   */\n      swap2\n      swap1\n      pop\n      jump\t// out\n        /* \"#utility.yul\":893:989   */\n    tag_90:\n        /* \"#utility.yul\":930:937   */\n      0x00\n        /* \"#utility.yul\":959:983   */\n      tag_119\n        /* \"#utility.yul\":977:982   */\n      dup3\n        /* \"#utility.yul\":959:983   */\n      tag_89\n      jump\t// in\n    tag_119:\n        /* \"#utility.yul\":948:983   */\n      swap1\n      pop\n        /* \"#utility.yul\":893:989   */\n      swap2\n      swap1\n      pop\n      jump\t// out\n        /* \"#utility.yul\":995:1117   */\n    tag_91:\n        /* \"#utility.yul\":1068:1092   */\n      tag_121\n        /* \"#utility.yul\":1086:1091   */\n      dup2\n        /* \"#utility.yul\":1068:1092   */\n      tag_90\n      jump\t// in\n    tag_121:\n        /* \"#utility.yul\":1061:1066   */\n      dup2\n        /* \"#utility.yul\":1058:1093   */\n      eq\n        /* \"#utility.yul\":1048:1111   */\n      tag_122\n      jumpi\n        /* \"#utility.yul\":1107:1108   */\n      0x00\n        /* \"#utility.yul\":1104:1105   */\n      dup1\n        /* \"#utility.yul\":1097:1109   */\n      revert\n        /* \"#utility.yul\":1048:1111   */\n    tag_122:\n        /* \"#utility.yul\":995:1117   */\n      pop\n      jump\t// out\n        /* \"#utility.yul\":1123:1262   */\n    tag_92:\n        /* \"#utility.yul\":1169:1174   */\n      0x00\n        /* \"#utility.yul\":1207:1213   */\n      dup2\n        /* \"#utility.yul\":1194:1214   */\n      calldataload\n        /* \"#utility.yul\":1185:1214   */\n      swap1\n      pop\n        /* \"#utility.yul\":1223:1256   */\n      tag_124\n        /* \"#utility.yul\":1250:1255   */\n      dup2\n        /* \"#utility.yul\":1223:1256   */\n      tag_91\n      jump\t// in\n    tag_124:\n        /* \"#utility.yul\":1123:1262   */\n      swap3\n      swap2\n      pop\n      pop\n      jump\t// out\n        /* \"#utility.yul\":1268:1597   */\n    tag_25:\n        /* \"#utility.yul\":1327:1333   */\n      0x00\n        /* \"#utility.yul\":1376:1378   */\n      0x20\n        /* \"#utility.yul\":1364:1373   */\n      dup3\n        /* \"#utility.yul\":1355:1362   */\n      dup5\n        /* \"#utility.yul\":1351:1374   */\n      sub\n        /* \"#utility.yul\":1347:1379   */\n      slt\n        /* \"#utility.yul\":1344:1463   */\n      iszero\n      tag_126\n      jumpi\n        /* \"#utility.yul\":1382:1461   */\n      tag_127\n      tag_87\n      jump\t// in\n    tag_127:\n        /* \"#utility.yul\":1344:1463   */\n    tag_126:\n        /* \"#utility.yul\":1502:1503   */\n      0x00\n        /* \"#utility.yul\":1527:1580   */\n      tag_128\n        /* \"#utility.yul\":1572:1579   */\n      dup5\n        /* \"#utility.yul\":1563:1569   */\n      dup3\n        /* \"#utility.yul\":1552:1561   */\n      dup6\n        /* \"#utility.yul\":1548:1570   */\n      add\n        /* \"#utility.yul\":1527:1580   */\n      tag_92\n      jump\t// in\n    tag_128:\n        /* \"#utility.yul\":1517:1580   */\n      swap2\n      pop\n        /* \"#utility.yul\":1473:1590   */\n      pop\n        /* \"#utility.yul\":1268:1597   */\n      swap3\n      swap2\n      pop\n      pop\n      jump\t// out\n        /* \"#utility.yul\":1603:1680   */\n    tag_93:\n        /* \"#utility.yul\":1640:1647   */\n      0x00\n        /* \"#utility.yul\":1669:1674   */\n      dup2\n        /* \"#utility.yul\":1658:1674   */\n      swap1\n      pop\n        /* \"#utility.yul\":1603:1680   */\n      swap2\n      swap1\n      pop\n      jump\t// out\n        /* \"#utility.yul\":1686:1804   */\n    tag_94:\n        /* \"#utility.yul\":1773:1797   */\n      tag_131\n        /* \"#utility.yul\":1791:1796   */\n      dup2\n        /* \"#utility.yul\":1773:1797   */\n      tag_93\n      jump\t// in\n    tag_131:\n        /* \"#utility.yul\":1768:1771   */\n      dup3\n        /* \"#utility.yul\":1761:1798   */\n      mstore\n        /* \"#utility.yul\":1686:1804   */\n      pop\n      pop\n      jump\t// out\n        /* \"#utility.yul\":1810:2032   */\n    tag_28:\n        /* \"#utility.yul\":1903:1907   */\n      0x00\n        /* \"#utility.yul\":1941:1943   */\n      0x20\n        /* \"#utility.yul\":1930:1939   */\n      dup3\n        /* \"#utility.yul\":1926:1944   */\n      add\n        /* \"#utility.yul\":1918:1944   */\n      swap1\n      pop\n        /* \"#utility.yul\":1954:2025   */\n      tag_133\n        /* \"#utility.yul\":2022:2023   */\n      0x00\n        /* \"#utility.yul\":2011:2020   */\n      dup4\n        /* \"#utility.yul\":2007:2024   */\n      add\n        /* \"#utility.yul\":1998:2004   */\n      dup5\n        /* \"#utility.yul\":1954:2025   */\n      tag_94\n      jump\t// in\n    tag_133:\n        /* \"#utility.yul\":1810:2032   */\n      swap3\n      swap2\n      pop\n      pop\n      jump\t// out\n        /* \"#utility.yul\":2038:2156   */\n    tag_95:\n        /* \"#utility.yul\":2125:2149   */\n      tag_135\n        /* \"#utility.yul\":2143:2148   */\n      dup2\n        /* \"#utility.yul\":2125:2149   */\n      tag_90\n      jump\t// in\n    tag_135:\n        /* \"#utility.yul\":2120:2123   */\n      dup3\n        /* \"#utility.yul\":2113:2150   */\n      mstore\n        /* \"#utility.yul\":2038:2156   */\n      pop\n      pop\n      jump\t// out\n        /* \"#utility.yul\":2162:2384   */\n    tag_40:\n        /* \"#utility.yul\":2255:2259   */\n      0x00\n        /* \"#utility.yul\":2293:2295   */\n      0x20\n        /* \"#utility.yul\":2282:2291   */\n      dup3\n        /* \"#utility.yul\":2278:2296   */\n      add\n        /* \"#utility.yul\":2270:2296   */\n      swap1\n      pop\n        /* \"#utility.yul\":2306:2377   */\n      tag_137\n        /* \"#utility.yul\":2374:2375   */\n      0x00\n        /* \"#utility.yul\":2363:2372   */\n      dup4\n        /* \"#utility.yul\":2359:2376   */\n      add\n        /* \"#utility.yul\":2350:2356   */\n      dup5\n        /* \"#utility.yul\":2306:2377   */\n      tag_95\n      jump\t// in\n    tag_137:\n        /* \"#utility.yul\":2162:2384   */\n      swap3\n      swap2\n      pop\n      pop\n      jump\t// out\n        /* \"#utility.yul\":2390:2512   */\n    tag_96:\n        /* \"#utility.yul\":2463:2487   */\n      tag_139\n        /* \"#utility.yul\":2481:2486   */\n      dup2\n        /* \"#utility.yul\":2463:2487   */\n      tag_93\n      jump\t// in\n    tag_139:\n        /* \"#utility.yul\":2456:2461   */\n      dup2\n        /* \"#utility.yul\":2453:2488   */\n      eq\n        /* \"#utility.yul\":2443:2506   */\n      tag_140\n      jumpi\n        /* \"#utility.yul\":2502:2503   */\n      0x00\n        /* \"#utility.yul\":2499:2500   */\n      dup1\n        /* \"#utility.yul\":2492:2504   */\n      revert\n        /* \"#utility.yul\":2443:2506   */\n    tag_140:\n        /* \"#utility.yul\":2390:2512   */\n      pop\n      jump\t// out\n        /* \"#utility.yul\":2518:2657   */\n    tag_97:\n        /* \"#utility.yul\":2564:2569   */\n      0x00\n        /* \"#utility.yul\":2602:2608   */\n      dup2\n        /* \"#utility.yul\":2589:2609   */\n      calldataload\n        /* \"#utility.yul\":2580:2609   */\n      swap1\n      pop\n        /* \"#utility.yul\":2618:2651   */\n      tag_142\n        /* \"#utility.yul\":2645:2650   */\n      dup2\n        /* \"#utility.yul\":2618:2651   */\n      tag_96\n      jump\t// in\n    tag_142:\n        /* \"#utility.yul\":2518:2657   */\n      swap3\n      swap2\n      pop\n      pop\n      jump\t// out\n        /* \"#utility.yul\":2663:2992   */\n    tag_48:\n        /* \"#utility.yul\":2722:2728   */\n      0x00\n        /* \"#utility.yul\":2771:2773   */\n      0x20\n        /* \"#utility.yul\":2759:2768   */\n      dup3\n        /* \"#utility.yul\":2750:2757   */\n      dup5\n        /* \"#utility.yul\":2746:2769   */\n      sub\n        /* \"#utility.yul\":2742:2774   */\n      slt\n        /* \"#utility.yul\":2739:2858   */\n      iszero\n      tag_144\n      jumpi\n        /* \"#utility.yul\":2777:2856   */\n      tag_145\n      tag_87\n      jump\t// in\n    tag_145:\n        /* \"#utility.yul\":2739:2858   */\n    tag_144:\n        /* \"#utility.yul\":2897:2898   */\n      0x00\n        /* \"#utility.yul\":2922:2975   */\n      tag_146\n        /* \"#utility.yul\":2967:2974   */\n      dup5\n        /* \"#utility.yul\":2958:2964   */\n      dup3\n        /* \"#utility.yul\":2947:2956   */\n      dup6\n        /* \"#utility.yul\":2943:2965   */\n      add\n        /* \"#utility.yul\":2922:2975   */\n      tag_97\n      jump\t// in\n    tag_146:\n        /* \"#utility.yul\":2912:2975   */\n      swap2\n      pop\n        /* \"#utility.yul\":2868:2985   */\n      pop\n        /* \"#utility.yul\":2663:2992   */\n      swap3\n      swap2\n      pop\n      pop\n      jump\t// out\n        /* \"#utility.yul\":2998:3167   */\n    tag_98:\n        /* \"#utility.yul\":3082:3093   */\n      0x00\n        /* \"#utility.yul\":3116:3122   */\n      dup3\n        /* \"#utility.yul\":3111:3114   */\n      dup3\n        /* \"#utility.yul\":3104:3123   */\n      mstore\n        /* \"#utility.yul\":3156:3160   */\n      0x20\n        /* \"#utility.yul\":3151:3154   */\n      dup3\n        /* \"#utility.yul\":3147:3161   */\n      add\n        /* \"#utility.yul\":3132:3161   */\n      swap1\n      pop\n        /* \"#utility.yul\":2998:3167   */\n      swap3\n      swap2\n      pop\n      pop\n      jump\t// out\n        /* \"#utility.yul\":3173:3344   */\n    tag_99:\n        /* \"#utility.yul\":3313:3336   */\n      0x204e6f2066756e647320746f2077697468647261770000000000000000000000\n        /* \"#utility.yul\":3309:3310   */\n      0x00\n        /* \"#utility.yul\":3301:3307   */\n      dup3\n        /* \"#utility.yul\":3297:3311   */\n      add\n        /* \"#utility.yul\":3290:3337   */\n      mstore\n        /* \"#utility.yul\":3173:3344   */\n      pop\n      jump\t// out\n        /* \"#utility.yul\":3350:3716   */\n    tag_100:\n        /* \"#utility.yul\":3492:3495   */\n      0x00\n        /* \"#utility.yul\":3513:3580   */\n      tag_150\n        /* \"#utility.yul\":3577:3579   */\n      0x15\n        /* \"#utility.yul\":3572:3575   */\n      dup4\n        /* \"#utility.yul\":3513:3580   */\n      tag_98\n      jump\t// in\n    tag_150:\n        /* \"#utility.yul\":3506:3580   */\n      swap2\n      pop\n        /* \"#utility.yul\":3589:3682   */\n      tag_151\n        /* \"#utility.yul\":3678:3681   */\n      dup3\n        /* \"#utility.yul\":3589:3682   */\n      tag_99\n      jump\t// in\n    tag_151:\n        /* \"#utility.yul\":3707:3709   */\n      0x20\n        /* \"#utility.yul\":3702:3705   */\n      dup3\n        /* \"#utility.yul\":3698:3710   */\n      add\n        /* \"#utility.yul\":3691:3710   */\n      swap1\n      pop\n        /* \"#utility.yul\":3350:3716   */\n      swap2\n      swap1\n      pop\n      jump\t// out\n        /* \"#utility.yul\":3722:4141   */\n    tag_60:\n        /* \"#utility.yul\":3888:3892   */\n      0x00\n        /* \"#utility.yul\":3926:3928   */\n      0x20\n        /* \"#utility.yul\":3915:3924   */\n      dup3\n        /* \"#utility.yul\":3911:3929   */\n      add\n        /* \"#utility.yul\":3903:3929   */\n      swap1\n      pop\n        /* \"#utility.yul\":3975:3984   */\n      dup2\n        /* \"#utility.yul\":3969:3973   */\n      dup2\n        /* \"#utility.yul\":3965:3985   */\n      sub\n        /* \"#utility.yul\":3961:3962   */\n      0x00\n        /* \"#utility.yul\":3950:3959   */\n      dup4\n        /* \"#utility.yul\":3946:3963   */\n      add\n        /* \"#utility.yul\":3939:3986   */\n      mstore\n        /* \"#utility.yul\":4003:4134   */\n      tag_153\n        /* \"#utility.yul\":4129:4133   */\n      dup2\n        /* \"#utility.yul\":4003:4134   */\n      tag_100\n      jump\t// in\n    tag_153:\n        /* \"#utility.yul\":3995:4134   */\n      swap1\n      pop\n        /* \"#utility.yul\":3722:4141   */\n      swap2\n      swap1\n      pop\n      jump\t// out\n        /* \"#utility.yul\":4147:4322   */\n    tag_101:\n        /* \"#utility.yul\":4287:4314   */\n      0x41756374696f6e2068617320616c726561647920656e64656400000000000000\n        /* \"#utility.yul\":4283:4284   */\n      0x00\n        /* \"#utility.yul\":4275:4281   */\n      dup3\n        /* \"#utility.yul\":4271:4285   */\n      add\n        /* \"#utility.yul\":4264:4315   */\n      mstore\n        /* \"#utility.yul\":4147:4322   */\n      pop\n      jump\t// out\n        /* \"#utility.yul\":4328:4694   */\n    tag_102:\n        /* \"#utility.yul\":4470:4473   */\n      0x00\n        /* \"#utility.yul\":4491:4558   */\n      tag_156\n        /* \"#utility.yul\":4555:4557   */\n      0x19\n        /* \"#utility.yul\":4550:4553   */\n      dup4\n        /* \"#utility.yul\":4491:4558   */\n      tag_98\n      jump\t// in\n    tag_156:\n        /* \"#utility.yul\":4484:4558   */\n      swap2\n      pop\n        /* \"#utility.yul\":4567:4660   */\n      tag_157\n        /* \"#utility.yul\":4656:4659   */\n      dup3\n        /* \"#utility.yul\":4567:4660   */\n      tag_101\n      jump\t// in\n    tag_157:\n        /* \"#utility.yul\":4685:4687   */\n      0x20\n        /* \"#utility.yul\":4680:4683   */\n      dup3\n        /* \"#utility.yul\":4676:4688   */\n      add\n        /* \"#utility.yul\":4669:4688   */\n      swap1\n      pop\n        /* \"#utility.yul\":4328:4694   */\n      swap2\n      swap1\n      pop\n      jump\t// out\n        /* \"#utility.yul\":4700:5119   */\n    tag_66:\n        /* \"#utility.yul\":4866:4870   */\n      0x00\n        /* \"#utility.yul\":4904:4906   */\n      0x20\n        /* \"#utility.yul\":4893:4902   */\n      dup3\n        /* \"#utility.yul\":4889:4907   */\n      add\n        /* \"#utility.yul\":4881:4907   */\n      swap1\n      pop\n        /* \"#utility.yul\":4953:4962   */\n      dup2\n        /* \"#utility.yul\":4947:4951   */\n      dup2\n        /* \"#utility.yul\":4943:4963   */\n      sub\n        /* \"#utility.yul\":4939:4940   */\n      0x00\n        /* \"#utility.yul\":4928:4937   */\n      dup4\n        /* \"#utility.yul\":4924:4941   */\n      add\n        /* \"#utility.yul\":4917:4964   */\n      mstore\n        /* \"#utility.yul\":4981:5112   */\n      tag_159\n        /* \"#utility.yul\":5107:5111   */\n      dup2\n        /* \"#utility.yul\":4981:5112   */\n      tag_102\n      jump\t// in\n    tag_159:\n        /* \"#utility.yul\":4973:5112   */\n      swap1\n      pop\n        /* \"#utility.yul\":4700:5119   */\n      swap2\n      swap1\n      pop\n      jump\t// out\n        /* \"#utility.yul\":5125:5304   */\n    tag_103:\n        /* \"#utility.yul\":5265:5296   */\n      0x546865726520697320616c726561647920612068696768657220626964000000\n        /* \"#utility.yul\":5261:5262   */\n      0x00\n        /* \"#utility.yul\":5253:5259   */\n      dup3\n        /* \"#utility.yul\":5249:5263   */\n      add\n        /* \"#utility.yul\":5242:5297   */\n      mstore\n        /* \"#utility.yul\":5125:5304   */\n      pop\n      jump\t// out\n        /* \"#utility.yul\":5310:5676   */\n    tag_104:\n        /* \"#utility.yul\":5452:5455   */\n      0x00\n        /* \"#utility.yul\":5473:5540   */\n      tag_162\n        /* \"#utility.yul\":5537:5539   */\n      0x1d\n        /* \"#utility.yul\":5532:5535   */\n      dup4\n        /* \"#utility.yul\":5473:5540   */\n      tag_98\n      jump\t// in\n    tag_162:\n        /* \"#utility.yul\":5466:5540   */\n      swap2\n      pop\n        /* \"#utility.yul\":5549:5642   */\n      tag_163\n        /* \"#utility.yul\":5638:5641   */\n      dup3\n        /* \"#utility.yul\":5549:5642   */\n      tag_103\n      jump\t// in\n    tag_163:\n        /* \"#utility.yul\":5667:5669   */\n      0x20\n        /* \"#utility.yul\":5662:5665   */\n      dup3\n        /* \"#utility.yul\":5658:5670   */\n      add\n        /* \"#utility.yul\":5651:5670   */\n      swap1\n      pop\n        /* \"#utility.yul\":5310:5676   */\n      swap2\n      swap1\n      pop\n      jump\t// out\n        /* \"#utility.yul\":5682:6101   */\n    tag_69:\n        /* \"#utility.yul\":5848:5852   */\n      0x00\n        /* \"#utility.yul\":5886:5888   */\n      0x20\n        /* \"#utility.yul\":5875:5884   */\n      dup3\n        /* \"#utility.yul\":5871:5889   */\n      add\n        /* \"#utility.yul\":5863:5889   */\n      swap1\n      pop\n        /* \"#utility.yul\":5935:5944   */\n      dup2\n        /* \"#utility.yul\":5929:5933   */\n      dup2\n        /* \"#utility.yul\":5925:5945   */\n      sub\n        /* \"#utility.yul\":5921:5922   */\n      0x00\n        /* \"#utility.yul\":5910:5919   */\n      dup4\n        /* \"#utility.yul\":5906:5923   */\n      add\n        /* \"#utility.yul\":5899:5946   */\n      mstore\n        /* \"#utility.yul\":5963:6094   */\n      tag_165\n        /* \"#utility.yul\":6089:6093   */\n      dup2\n        /* \"#utility.yul\":5963:6094   */\n      tag_104\n      jump\t// in\n    tag_165:\n        /* \"#utility.yul\":5955:6094   */\n      swap1\n      pop\n        /* \"#utility.yul\":5682:6101   */\n      swap2\n      swap1\n      pop\n      jump\t// out\n        /* \"#utility.yul\":6107:6287   */\n    tag_105:\n        /* \"#utility.yul\":6155:6232   */\n      0x4e487b7100000000000000000000000000000000000000000000000000000000\n        /* \"#utility.yul\":6152:6153   */\n      0x00\n        /* \"#utility.yul\":6145:6233   */\n      mstore\n        /* \"#utility.yul\":6252:6256   */\n      0x11\n        /* \"#utility.yul\":6249:6250   */\n      0x04\n        /* \"#utility.yul\":6242:6257   */\n      mstore\n        /* \"#utility.yul\":6276:6280   */\n      0x24\n        /* \"#utility.yul\":6273:6274   */\n      0x00\n        /* \"#utility.yul\":6266:6281   */\n      revert\n        /* \"#utility.yul\":6293:6484   */\n    tag_72:\n        /* \"#utility.yul\":6333:6336   */\n      0x00\n        /* \"#utility.yul\":6352:6372   */\n      tag_168\n        /* \"#utility.yul\":6370:6371   */\n      dup3\n        /* \"#utility.yul\":6352:6372   */\n      tag_93\n      jump\t// in\n    tag_168:\n        /* \"#utility.yul\":6347:6372   */\n      swap2\n      pop\n        /* \"#utility.yul\":6386:6406   */\n      tag_169\n        /* \"#utility.yul\":6404:6405   */\n      dup4\n        /* \"#utility.yul\":6386:6406   */\n      tag_93\n      jump\t// in\n    tag_169:\n        /* \"#utility.yul\":6381:6406   */\n      swap3\n      pop\n        /* \"#utility.yul\":6429:6430   */\n      dup3\n        /* \"#utility.yul\":6426:6427   */\n      dup3\n        /* \"#utility.yul\":6422:6431   */\n      add\n        /* \"#utility.yul\":6415:6431   */\n      swap1\n      pop\n        /* \"#utility.yul\":6450:6453   */\n      dup1\n        /* \"#utility.yul\":6447:6448   */\n      dup3\n        /* \"#utility.yul\":6444:6454   */\n      gt\n        /* \"#utility.yul\":6441:6477   */\n      iszero\n      tag_170\n      jumpi\n        /* \"#utility.yul\":6457:6475   */\n      tag_171\n      tag_105\n      jump\t// in\n    tag_171:\n        /* \"#utility.yul\":6441:6477   */\n    tag_170:\n        /* \"#utility.yul\":6293:6484   */\n      swap3\n      swap2\n      pop\n      pop\n      jump\t// out\n        /* \"#utility.yul\":6490:6822   */\n    tag_74:\n        /* \"#utility.yul\":6611:6615   */\n      0x00\n        /* \"#utility.yul\":6649:6651   */\n      0x40\n        /* \"#utility.yul\":6638:6647   */\n      dup3\n        /* \"#utility.yul\":6634:6652   */\n      add\n        /* \"#utility.yul\":6626:6652   */\n      swap1\n      pop\n        /* \"#utility.yul\":6662:6733   */\n      tag_173\n        /* \"#utility.yul\":6730:6731   */\n      0x00\n        /* \"#utility.yul\":6719:6728   */\n      dup4\n        /* \"#utility.yul\":6715:6732   */\n      add\n        /* \"#utility.yul\":6706:6712   */\n      dup6\n        /* \"#utility.yul\":6662:6733   */\n      tag_95\n      jump\t// in\n    tag_173:\n        /* \"#utility.yul\":6743:6815   */\n      tag_174\n        /* \"#utility.yul\":6811:6813   */\n      0x20\n        /* \"#utility.yul\":6800:6809   */\n      dup4\n        /* \"#utility.yul\":6796:6814   */\n      add\n        /* \"#utility.yul\":6787:6793   */\n      dup5\n        /* \"#utility.yul\":6743:6815   */\n      tag_94\n      jump\t// in\n    tag_174:\n        /* \"#utility.yul\":6490:6822   */\n      swap4\n      swap3\n      pop\n      pop\n      pop\n      jump\t// out\n        /* \"#utility.yul\":6828:7055   */\n    tag_106:\n        /* \"#utility.yul\":6968:7002   */\n      0x204f6e6c79207468652061756374696f6e6565722063616e20656e6420746865\n        /* \"#utility.yul\":6964:6965   */\n      0x00\n        /* \"#utility.yul\":6956:6962   */\n      dup3\n        /* \"#utility.yul\":6952:6966   */\n      add\n        /* \"#utility.yul\":6945:7003   */\n      mstore\n        /* \"#utility.yul\":7037:7047   */\n      0x2061756374696f6e000000000000000000000000000000000000000000000000\n        /* \"#utility.yul\":7032:7034   */\n      0x20\n        /* \"#utility.yul\":7024:7030   */\n      dup3\n        /* \"#utility.yul\":7020:7035   */\n      add\n        /* \"#utility.yul\":7013:7048   */\n      mstore\n        /* \"#utility.yul\":6828:7055   */\n      pop\n      jump\t// out\n        /* \"#utility.yul\":7061:7427   */\n    tag_107:\n        /* \"#utility.yul\":7203:7206   */\n      0x00\n        /* \"#utility.yul\":7224:7291   */\n      tag_177\n        /* \"#utility.yul\":7288:7290   */\n      0x28\n        /* \"#utility.yul\":7283:7286   */\n      dup4\n        /* \"#utility.yul\":7224:7291   */\n      tag_98\n      jump\t// in\n    tag_177:\n        /* \"#utility.yul\":7217:7291   */\n      swap2\n      pop\n        /* \"#utility.yul\":7300:7393   */\n      tag_178\n        /* \"#utility.yul\":7389:7392   */\n      dup3\n        /* \"#utility.yul\":7300:7393   */\n      tag_106\n      jump\t// in\n    tag_178:\n        /* \"#utility.yul\":7418:7420   */\n      0x40\n        /* \"#utility.yul\":7413:7416   */\n      dup3\n        /* \"#utility.yul\":7409:7421   */\n      add\n        /* \"#utility.yul\":7402:7421   */\n      swap1\n      pop\n        /* \"#utility.yul\":7061:7427   */\n      swap2\n      swap1\n      pop\n      jump\t// out\n        /* \"#utility.yul\":7433:7852   */\n    tag_78:\n        /* \"#utility.yul\":7599:7603   */\n      0x00\n        /* \"#utility.yul\":7637:7639   */\n      0x20\n        /* \"#utility.yul\":7626:7635   */\n      dup3\n        /* \"#utility.yul\":7622:7640   */\n      add\n        /* \"#utility.yul\":7614:7640   */\n      swap1\n      pop\n        /* \"#utility.yul\":7686:7695   */\n      dup2\n        /* \"#utility.yul\":7680:7684   */\n      dup2\n        /* \"#utility.yul\":7676:7696   */\n      sub\n        /* \"#utility.yul\":7672:7673   */\n      0x00\n        /* \"#utility.yul\":7661:7670   */\n      dup4\n        /* \"#utility.yul\":7657:7674   */\n      add\n        /* \"#utility.yul\":7650:7697   */\n      mstore\n        /* \"#utility.yul\":7714:7845   */\n      tag_180\n        /* \"#utility.yul\":7840:7844   */\n      dup2\n        /* \"#utility.yul\":7714:7845   */\n      tag_107\n      jump\t// in\n    tag_180:\n        /* \"#utility.yul\":7706:7845   */\n      swap1\n      pop\n        /* \"#utility.yul\":7433:7852   */\n      swap2\n      swap1\n      pop\n      jump\t// out\n\n    auxdata: 0xa2646970667358221220bec27214c1f64bdb66b249c8389504c3f23d0ff8f2581f4f21a882176938843164736f6c63430008120033\n}\n",
				"bytecode": {
					"linkReferences": {},
					"object": "60806040523480156200001157600080fd5b5060405162000cce38038062000cce8339818101604052810190620000379190620000d2565b336000806101000a81548173ffffffffffffffffffffffffffffffffffffffff021916908373ffffffffffffffffffffffffffffffffffffffff160217905550804262000085919062000133565b600181905550506200016e565b600080fd5b6000819050919050565b620000ac8162000097565b8114620000b857600080fd5b50565b600081519050620000cc81620000a1565b92915050565b600060208284031215620000eb57620000ea62000092565b5b6000620000fb84828501620000bb565b91505092915050565b7f4e487b7100000000000000000000000000000000000000000000000000000000600052601160045260246000fd5b6000620001408262000097565b91506200014d8362000097565b925082820190508082111562000168576200016762000104565b5b92915050565b610b50806200017e6000396000f3fe60806040526004361061008a5760003560e01c80635ec2c7bf116100595780635ec2c7bf1461013d5780636b57707e14610168578063cef55b9a14610193578063d57bde79146101bc578063fe67a54b146101e757610091565b806312fa6feb1461009357806326b387bb146100be5780633ccfd60b146100fb5780634b449cba1461011257610091565b3661009157005b005b34801561009f57600080fd5b506100a86101fe565b6040516100b59190610745565b60405180910390f35b3480156100ca57600080fd5b506100e560048036038101906100e091906107c3565b610211565b6040516100f29190610809565b60405180910390f35b34801561010757600080fd5b50610110610229565b005b34801561011e57600080fd5b50610127610376565b6040516101349190610809565b60405180910390f35b34801561014957600080fd5b5061015261037c565b60405161015f9190610833565b60405180910390f35b34801561017457600080fd5b5061017d6103a0565b60405161018a9190610833565b60405180910390f35b34801561019f57600080fd5b506101ba60048036038101906101b5919061087a565b6103c6565b005b3480156101c857600080fd5b506101d1610563565b6040516101de9190610809565b60405180910390f35b3480156101f357600080fd5b506101fc610569565b005b600560009054906101000a900460ff1681565b60046020528060005260406000206000915090505481565b6000600460003373ffffffffffffffffffffffffffffffffffffffff1673ffffffffffffffffffffffffffffffffffffffff168152602001908152602001600020549050600081116102b0576040517f08c379a00000000000000000000000000000000000000000000000000000000081526004016102a790610904565b60405180910390fd5b6000600460003373ffffffffffffffffffffffffffffffffffffffff1673ffffffffffffffffffffffffffffffffffffffff168152602001908152602001600020819055503373ffffffffffffffffffffffffffffffffffffffff166108fc829081150290604051600060405180830381858888f193505050506103735780600460003373ffffffffffffffffffffffffffffffffffffffff1673ffffffffffffffffffffffffffffffffffffffff168152602001908152602001600020819055505b50565b60015481565b60008054906101000a900473ffffffffffffffffffffffffffffffffffffffff1681565b600260009054906101000a900473ffffffffffffffffffffffffffffffffffffffff1681565b600560009054906101000a900460ff1615610416576040517f08c379a000000000000000000000000000000000000000000000000000000000815260040161040d90610970565b60405180910390fd5b600354811161045a576040517f08c379a0000000000000000000000000000000000000000000000000000000008152600401610451906109dc565b60405180910390fd5b6000600354146104df5760035460046000600260009054906101000a900473ffffffffffffffffffffffffffffffffffffffff1673ffffffffffffffffffffffffffffffffffffffff1673ffffffffffffffffffffffffffffffffffffffff16815260200190815260200160002060008282546104d79190610a2b565b925050819055505b33600260006101000a81548173ffffffffffffffffffffffffffffffffffffffff021916908373ffffffffffffffffffffffffffffffffffffffff160217905550806003819055507ff4757a49b326036464bec6fe419a4ae38c8a02ce3e68bf0809674f6aab8ad3003382604051610558929190610a5f565b60405180910390a150565b60035481565b60008054906101000a900473ffffffffffffffffffffffffffffffffffffffff1673ffffffffffffffffffffffffffffffffffffffff163373ffffffffffffffffffffffffffffffffffffffff16146105f7576040517f08c379a00000000000000000000000000000000000000000000000000000000081526004016105ee90610afa565b60405180910390fd5b600560009054906101000a900460ff1615610647576040517f08c379a000000000000000000000000000000000000000000000000000000000815260040161063e90610970565b60405180910390fd5b6001600560006101000a81548160ff0219169083151502179055507fdaec4582d5d9595688c8c98545fdd1c696d41c6aeaeb636737e84ed2f5c00eda600260009054906101000a900473ffffffffffffffffffffffffffffffffffffffff166003546040516106b7929190610a5f565b60405180910390a160008054906101000a900473ffffffffffffffffffffffffffffffffffffffff1673ffffffffffffffffffffffffffffffffffffffff166108fc6003549081150290604051600060405180830381858888f19350505050158015610727573d6000803e3d6000fd5b50565b60008115159050919050565b61073f8161072a565b82525050565b600060208201905061075a6000830184610736565b92915050565b600080fd5b600073ffffffffffffffffffffffffffffffffffffffff82169050919050565b600061079082610765565b9050919050565b6107a081610785565b81146107ab57600080fd5b50565b6000813590506107bd81610797565b92915050565b6000602082840312156107d9576107d8610760565b5b60006107e7848285016107ae565b91505092915050565b6000819050919050565b610803816107f0565b82525050565b600060208201905061081e60008301846107fa565b92915050565b61082d81610785565b82525050565b60006020820190506108486000830184610824565b92915050565b610857816107f0565b811461086257600080fd5b50565b6000813590506108748161084e565b92915050565b6000602082840312156108905761088f610760565b5b600061089e84828501610865565b91505092915050565b600082825260208201905092915050565b7f204e6f2066756e647320746f2077697468647261770000000000000000000000600082015250565b60006108ee6015836108a7565b91506108f9826108b8565b602082019050919050565b6000602082019050818103600083015261091d816108e1565b9050919050565b7f41756374696f6e2068617320616c726561647920656e64656400000000000000600082015250565b600061095a6019836108a7565b915061096582610924565b602082019050919050565b600060208201905081810360008301526109898161094d565b9050919050565b7f546865726520697320616c726561647920612068696768657220626964000000600082015250565b60006109c6601d836108a7565b91506109d182610990565b602082019050919050565b600060208201905081810360008301526109f5816109b9565b9050919050565b7f4e487b7100000000000000000000000000000000000000000000000000000000600052601160045260246000fd5b6000610a36826107f0565b9150610a41836107f0565b9250828201905080821115610a5957610a586109fc565b5b92915050565b6000604082019050610a746000830185610824565b610a8160208301846107fa565b9392505050565b7f204f6e6c79207468652061756374696f6e6565722063616e20656e642074686560008201527f2061756374696f6e000000000000000000000000000000000000000000000000602082015250565b6000610ae46028836108a7565b9150610aef82610a88565b604082019050919050565b60006020820190508181036000830152610b1381610ad7565b905091905056fea2646970667358221220bec27214c1f64bdb66b249c8389504c3f23d0ff8f2581f4f21a882176938843164736f6c63430008120033",
					"opcodes": "PUSH1 0x80 PUSH1 0x40 MSTORE CALLVALUE DUP1 ISZERO PUSH3 0x11 JUMPI PUSH1 0x0 DUP1 REVERT JUMPDEST POP PUSH1 0x40 MLOAD PUSH3 0xCCE CODESIZE SUB DUP1 PUSH3 0xCCE DUP4 CODECOPY DUP2 DUP2 ADD PUSH1 0x40 MSTORE DUP2 ADD SWAP1 PUSH3 0x37 SWAP2 SWAP1 PUSH3 0xD2 JUMP JUMPDEST CALLER PUSH1 0x0 DUP1 PUSH2 0x100 EXP DUP2 SLOAD DUP2 PUSH20 0xFFFFFFFFFFFFFFFFFFFFFFFFFFFFFFFFFFFFFFFF MUL NOT AND SWAP1 DUP4 PUSH20 0xFFFFFFFFFFFFFFFFFFFFFFFFFFFFFFFFFFFFFFFF AND MUL OR SWAP1 SSTORE POP DUP1 TIMESTAMP PUSH3 0x85 SWAP2 SWAP1 PUSH3 0x133 JUMP JUMPDEST PUSH1 0x1 DUP2 SWAP1 SSTORE POP POP PUSH3 0x16E JUMP JUMPDEST PUSH1 0x0 DUP1 REVERT JUMPDEST PUSH1 0x0 DUP2 SWAP1 POP SWAP2 SWAP1 POP JUMP JUMPDEST PUSH3 0xAC DUP2 PUSH3 0x97 JUMP JUMPDEST DUP2 EQ PUSH3 0xB8 JUMPI PUSH1 0x0 DUP1 REVERT JUMPDEST POP JUMP JUMPDEST PUSH1 0x0 DUP2 MLOAD SWAP1 POP PUSH3 0xCC DUP2 PUSH3 0xA1 JUMP JUMPDEST SWAP3 SWAP2 POP POP JUMP JUMPDEST PUSH1 0x0 PUSH1 0x20 DUP3 DUP5 SUB SLT ISZERO PUSH3 0xEB JUMPI PUSH3 0xEA PUSH3 0x92 JUMP JUMPDEST JUMPDEST PUSH1 0x0 PUSH3 0xFB DUP5 DUP3 DUP6 ADD PUSH3 0xBB JUMP JUMPDEST SWAP2 POP POP SWAP3 SWAP2 POP POP JUMP JUMPDEST PUSH32 0x4E487B7100000000000000000000000000000000000000000000000000000000 PUSH1 0x0 MSTORE PUSH1 0x11 PUSH1 0x4 MSTORE PUSH1 0x24 PUSH1 0x0 REVERT JUMPDEST PUSH1 0x0 PUSH3 0x140 DUP3 PUSH3 0x97 JUMP JUMPDEST SWAP2 POP PUSH3 0x14D DUP4 PUSH3 0x97 JUMP JUMPDEST SWAP3 POP DUP3 DUP3 ADD SWAP1 POP DUP1 DUP3 GT ISZERO PUSH3 0x168 JUMPI PUSH3 0x167 PUSH3 0x104 JUMP JUMPDEST JUMPDEST SWAP3 SWAP2 POP POP JUMP JUMPDEST PUSH2 0xB50 DUP1 PUSH3 0x17E PUSH1 0x0 CODECOPY PUSH1 0x0 RETURN INVALID PUSH1 0x80 PUSH1 0x40 MSTORE PUSH1 0x4 CALLDATASIZE LT PUSH2 0x8A JUMPI PUSH1 0x0 CALLDATALOAD PUSH1 0xE0 SHR DUP1 PUSH4 0x5EC2C7BF GT PUSH2 0x59 JUMPI DUP1 PUSH4 0x5EC2C7BF EQ PUSH2 0x13D JUMPI DUP1 PUSH4 0x6B57707E EQ PUSH2 0x168 JUMPI DUP1 PUSH4 0xCEF55B9A EQ PUSH2 0x193 JUMPI DUP1 PUSH4 0xD57BDE79 EQ PUSH2 0x1BC JUMPI DUP1 PUSH4 0xFE67A54B EQ PUSH2 0x1E7 JUMPI PUSH2 0x91 JUMP JUMPDEST DUP1 PUSH4 0x12FA6FEB EQ PUSH2 0x93 JUMPI DUP1 PUSH4 0x26B387BB EQ PUSH2 0xBE JUMPI DUP1 PUSH4 0x3CCFD60B EQ PUSH2 0xFB JUMPI DUP1 PUSH4 0x4B449CBA EQ PUSH2 0x112 JUMPI PUSH2 0x91 JUMP JUMPDEST CALLDATASIZE PUSH2 0x91 JUMPI STOP JUMPDEST STOP JUMPDEST CALLVALUE DUP1 ISZERO PUSH2 0x9F JUMPI PUSH1 0x0 DUP1 REVERT JUMPDEST POP PUSH2 0xA8 PUSH2 0x1FE JUMP JUMPDEST PUSH1 0x40 MLOAD PUSH2 0xB5 SWAP2 SWAP1 PUSH2 0x745 JUMP JUMPDEST PUSH1 0x40 MLOAD DUP1 SWAP2 SUB SWAP1 RETURN JUMPDEST CALLVALUE DUP1 ISZERO PUSH2 0xCA JUMPI PUSH1 0x0 DUP1 REVERT JUMPDEST POP PUSH2 0xE5 PUSH1 0x4 DUP1 CALLDATASIZE SUB DUP2 ADD SWAP1 PUSH2 0xE0 SWAP2 SWAP1 PUSH2 0x7C3 JUMP JUMPDEST PUSH2 0x211 JUMP JUMPDEST PUSH1 0x40 MLOAD PUSH2 0xF2 SWAP2 SWAP1 PUSH2 0x809 JUMP JUMPDEST PUSH1 0x40 MLOAD DUP1 SWAP2 SUB SWAP1 RETURN JUMPDEST CALLVALUE DUP1 ISZERO PUSH2 0x107 JUMPI PUSH1 0x0 DUP1 REVERT JUMPDEST POP PUSH2 0x110 PUSH2 0x229 JUMP JUMPDEST STOP JUMPDEST CALLVALUE DUP1 ISZERO PUSH2 0x11E JUMPI PUSH1 0x0 DUP1 REVERT JUMPDEST POP PUSH2 0x127 PUSH2 0x376 JUMP JUMPDEST PUSH1 0x40 MLOAD PUSH2 0x134 SWAP2 SWAP1 PUSH2 0x809 JUMP JUMPDEST PUSH1 0x40 MLOAD DUP1 SWAP2 SUB SWAP1 RETURN JUMPDEST CALLVALUE DUP1 ISZERO PUSH2 0x149 JUMPI PUSH1 0x0 DUP1 REVERT JUMPDEST POP PUSH2 0x152 PUSH2 0x37C JUMP JUMPDEST PUSH1 0x40 MLOAD PUSH2 0x15F SWAP2 SWAP1 PUSH2 0x833 JUMP JUMPDEST PUSH1 0x40 MLOAD DUP1 SWAP2 SUB SWAP1 RETURN JUMPDEST CALLVALUE DUP1 ISZERO PUSH2 0x174 JUMPI PUSH1 0x0 DUP1 REVERT JUMPDEST POP PUSH2 0x17D PUSH2 0x3A0 JUMP JUMPDEST PUSH1 0x40 MLOAD PUSH2 0x18A SWAP2 SWAP1 PUSH2 0x833 JUMP JUMPDEST PUSH1 0x40 MLOAD DUP1 SWAP2 SUB SWAP1 RETURN JUMPDEST CALLVALUE DUP1 ISZERO PUSH2 0x19F JUMPI PUSH1 0x0 DUP1 REVERT JUMPDEST POP PUSH2 0x1BA PUSH1 0x4 DUP1 CALLDATASIZE SUB DUP2 ADD SWAP1 PUSH2 0x1B5 SWAP2 SWAP1 PUSH2 0x87A JUMP JUMPDEST PUSH2 0x3C6 JUMP JUMPDEST STOP JUMPDEST CALLVALUE DUP1 ISZERO PUSH2 0x1C8 JUMPI PUSH1 0x0 DUP1 REVERT JUMPDEST POP PUSH2 0x1D1 PUSH2 0x563 JUMP JUMPDEST PUSH1 0x40 MLOAD PUSH2 0x1DE SWAP2 SWAP1 PUSH2 0x809 JUMP JUMPDEST PUSH1 0x40 MLOAD DUP1 SWAP2 SUB SWAP1 RETURN JUMPDEST CALLVALUE DUP1 ISZERO PUSH2 0x1F3 JUMPI PUSH1 0x0 DUP1 REVERT JUMPDEST POP PUSH2 0x1FC PUSH2 0x569 JUMP JUMPDEST STOP JUMPDEST PUSH1 0x5 PUSH1 0x0 SWAP1 SLOAD SWAP1 PUSH2 0x100 EXP SWAP1 DIV PUSH1 0xFF AND DUP2 JUMP JUMPDEST PUSH1 0x4 PUSH1 0x20 MSTORE DUP1 PUSH1 0x0 MSTORE PUSH1 0x40 PUSH1 0x0 KECCAK256 PUSH1 0x0 SWAP2 POP SWAP1 POP SLOAD DUP2 JUMP JUMPDEST PUSH1 0x0 PUSH1 0x4 PUSH1 0x0 CALLER PUSH20 0xFFFFFFFFFFFFFFFFFFFFFFFFFFFFFFFFFFFFFFFF AND PUSH20 0xFFFFFFFFFFFFFFFFFFFFFFFFFFFFFFFFFFFFFFFF AND DUP2 MSTORE PUSH1 0x20 ADD SWAP1 DUP2 MSTORE PUSH1 0x20 ADD PUSH1 0x0 KECCAK256 SLOAD SWAP1 POP PUSH1 0x0 DUP2 GT PUSH2 0x2B0 JUMPI PUSH1 0x40 MLOAD PUSH32 0x8C379A000000000000000000000000000000000000000000000000000000000 DUP2 MSTORE PUSH1 0x4 ADD PUSH2 0x2A7 SWAP1 PUSH2 0x904 JUMP JUMPDEST PUSH1 0x40 MLOAD DUP1 SWAP2 SUB SWAP1 REVERT JUMPDEST PUSH1 0x0 PUSH1 0x4 PUSH1 0x0 CALLER PUSH20 0xFFFFFFFFFFFFFFFFFFFFFFFFFFFFFFFFFFFFFFFF AND PUSH20 0xFFFFFFFFFFFFFFFFFFFFFFFFFFFFFFFFFFFFFFFF AND DUP2 MSTORE PUSH1 0x20 ADD SWAP1 DUP2 MSTORE PUSH1 0x20 ADD PUSH1 0x0 KECCAK256 DUP2 SWAP1 SSTORE POP CALLER PUSH20 0xFFFFFFFFFFFFFFFFFFFFFFFFFFFFFFFFFFFFFFFF AND PUSH2 0x8FC DUP3 SWAP1 DUP2 ISZERO MUL SWAP1 PUSH1 0x40 MLOAD PUSH1 0x0 PUSH1 0x40 MLOAD DUP1 DUP4 SUB DUP2 DUP6 DUP9 DUP9 CALL SWAP4 POP POP POP POP PUSH2 0x373 JUMPI DUP1 PUSH1 0x4 PUSH1 0x0 CALLER PUSH20 0xFFFFFFFFFFFFFFFFFFFFFFFFFFFFFFFFFFFFFFFF AND PUSH20 0xFFFFFFFFFFFFFFFFFFFFFFFFFFFFFFFFFFFFFFFF AND DUP2 MSTORE PUSH1 0x20 ADD SWAP1 DUP2 MSTORE PUSH1 0x20 ADD PUSH1 0x0 KECCAK256 DUP2 SWAP1 SSTORE POP JUMPDEST POP JUMP JUMPDEST PUSH1 0x1 SLOAD DUP2 JUMP JUMPDEST PUSH1 0x0 DUP1 SLOAD SWAP1 PUSH2 0x100 EXP SWAP1 DIV PUSH20 0xFFFFFFFFFFFFFFFFFFFFFFFFFFFFFFFFFFFFFFFF AND DUP2 JUMP JUMPDEST PUSH1 0x2 PUSH1 0x0 SWAP1 SLOAD SWAP1 PUSH2 0x100 EXP SWAP1 DIV PUSH20 0xFFFFFFFFFFFFFFFFFFFFFFFFFFFFFFFFFFFFFFFF AND DUP2 JUMP JUMPDEST PUSH1 0x5 PUSH1 0x0 SWAP1 SLOAD SWAP1 PUSH2 0x100 EXP SWAP1 DIV PUSH1 0xFF AND ISZERO PUSH2 0x416 JUMPI PUSH1 0x40 MLOAD PUSH32 0x8C379A000000000000000000000000000000000000000000000000000000000 DUP2 MSTORE PUSH1 0x4 ADD PUSH2 0x40D SWAP1 PUSH2 0x970 JUMP JUMPDEST PUSH1 0x40 MLOAD DUP1 SWAP2 SUB SWAP1 REVERT JUMPDEST PUSH1 0x3 SLOAD DUP2 GT PUSH2 0x45A JUMPI PUSH1 0x40 MLOAD PUSH32 0x8C379A000000000000000000000000000000000000000000000000000000000 DUP2 MSTORE PUSH1 0x4 ADD PUSH2 0x451 SWAP1 PUSH2 0x9DC JUMP JUMPDEST PUSH1 0x40 MLOAD DUP1 SWAP2 SUB SWAP1 REVERT JUMPDEST PUSH1 0x0 PUSH1 0x3 SLOAD EQ PUSH2 0x4DF JUMPI PUSH1 0x3 SLOAD PUSH1 0x4 PUSH1 0x0 PUSH1 0x2 PUSH1 0x0 SWAP1 SLOAD SWAP1 PUSH2 0x100 EXP SWAP1 DIV PUSH20 0xFFFFFFFFFFFFFFFFFFFFFFFFFFFFFFFFFFFFFFFF AND PUSH20 0xFFFFFFFFFFFFFFFFFFFFFFFFFFFFFFFFFFFFFFFF AND PUSH20 0xFFFFFFFFFFFFFFFFFFFFFFFFFFFFFFFFFFFFFFFF AND DUP2 MSTORE PUSH1 0x20 ADD SWAP1 DUP2 MSTORE PUSH1 0x20 ADD PUSH1 0x0 KECCAK256 PUSH1 0x0 DUP3 DUP3 SLOAD PUSH2 0x4D7 SWAP2 SWAP1 PUSH2 0xA2B JUMP JUMPDEST SWAP3 POP POP DUP2 SWAP1 SSTORE POP JUMPDEST CALLER PUSH1 0x2 PUSH1 0x0 PUSH2 0x100 EXP DUP2 SLOAD DUP2 PUSH20 0xFFFFFFFFFFFFFFFFFFFFFFFFFFFFFFFFFFFFFFFF MUL NOT AND SWAP1 DUP4 PUSH20 0xFFFFFFFFFFFFFFFFFFFFFFFFFFFFFFFFFFFFFFFF AND MUL OR SWAP1 SSTORE POP DUP1 PUSH1 0x3 DUP2 SWAP1 SSTORE POP PUSH32 0xF4757A49B326036464BEC6FE419A4AE38C8A02CE3E68BF0809674F6AAB8AD300 CALLER DUP3 PUSH1 0x40 MLOAD PUSH2 0x558 SWAP3 SWAP2 SWAP1 PUSH2 0xA5F JUMP JUMPDEST PUSH1 0x40 MLOAD DUP1 SWAP2 SUB SWAP1 LOG1 POP JUMP JUMPDEST PUSH1 0x3 SLOAD DUP2 JUMP JUMPDEST PUSH1 0x0 DUP1 SLOAD SWAP1 PUSH2 0x100 EXP SWAP1 DIV PUSH20 0xFFFFFFFFFFFFFFFFFFFFFFFFFFFFFFFFFFFFFFFF AND PUSH20 0xFFFFFFFFFFFFFFFFFFFFFFFFFFFFFFFFFFFFFFFF AND CALLER PUSH20 0xFFFFFFFFFFFFFFFFFFFFFFFFFFFFFFFFFFFFFFFF AND EQ PUSH2 0x5F7 JUMPI PUSH1 0x40 MLOAD PUSH32 0x8C379A000000000000000000000000000000000000000000000000000000000 DUP2 MSTORE PUSH1 0x4 ADD PUSH2 0x5EE SWAP1 PUSH2 0xAFA JUMP JUMPDEST PUSH1 0x40 MLOAD DUP1 SWAP2 SUB SWAP1 REVERT JUMPDEST PUSH1 0x5 PUSH1 0x0 SWAP1 SLOAD SWAP1 PUSH2 0x100 EXP SWAP1 DIV PUSH1 0xFF AND ISZERO PUSH2 0x647 JUMPI PUSH1 0x40 MLOAD PUSH32 0x8C379A000000000000000000000000000000000000000000000000000000000 DUP2 MSTORE PUSH1 0x4 ADD PUSH2 0x63E SWAP1 PUSH2 0x970 JUMP JUMPDEST PUSH1 0x40 MLOAD DUP1 SWAP2 SUB SWAP1 REVERT JUMPDEST PUSH1 0x1 PUSH1 0x5 PUSH1 0x0 PUSH2 0x100 EXP DUP2 SLOAD DUP2 PUSH1 0xFF MUL NOT AND SWAP1 DUP4 ISZERO ISZERO MUL OR SWAP1 SSTORE POP PUSH32 0xDAEC4582D5D9595688C8C98545FDD1C696D41C6AEAEB636737E84ED2F5C00EDA PUSH1 0x2 PUSH1 0x0 SWAP1 SLOAD SWAP1 PUSH2 0x100 EXP SWAP1 DIV PUSH20 0xFFFFFFFFFFFFFFFFFFFFFFFFFFFFFFFFFFFFFFFF AND PUSH1 0x3 SLOAD PUSH1 0x40 MLOAD PUSH2 0x6B7 SWAP3 SWAP2 SWAP1 PUSH2 0xA5F JUMP JUMPDEST PUSH1 0x40 MLOAD DUP1 SWAP2 SUB SWAP1 LOG1 PUSH1 0x0 DUP1 SLOAD SWAP1 PUSH2 0x100 EXP SWAP1 DIV PUSH20 0xFFFFFFFFFFFFFFFFFFFFFFFFFFFFFFFFFFFFFFFF AND PUSH20 0xFFFFFFFFFFFFFFFFFFFFFFFFFFFFFFFFFFFFFFFF AND PUSH2 0x8FC PUSH1 0x3 SLOAD SWAP1 DUP2 ISZERO MUL SWAP1 PUSH1 0x40 MLOAD PUSH1 0x0 PUSH1 0x40 MLOAD DUP1 DUP4 SUB DUP2 DUP6 DUP9 DUP9 CALL SWAP4 POP POP POP POP ISZERO DUP1 ISZERO PUSH2 0x727 JUMPI RETURNDATASIZE PUSH1 0x0 DUP1 RETURNDATACOPY RETURNDATASIZE PUSH1 0x0 REVERT JUMPDEST POP JUMP JUMPDEST PUSH1 0x0 DUP2 ISZERO ISZERO SWAP1 POP SWAP2 SWAP1 POP JUMP JUMPDEST PUSH2 0x73F DUP2 PUSH2 0x72A JUMP JUMPDEST DUP3 MSTORE POP POP JUMP JUMPDEST PUSH1 0x0 PUSH1 0x20 DUP3 ADD SWAP1 POP PUSH2 0x75A PUSH1 0x0 DUP4 ADD DUP5 PUSH2 0x736 JUMP JUMPDEST SWAP3 SWAP2 POP POP JUMP JUMPDEST PUSH1 0x0 DUP1 REVERT JUMPDEST PUSH1 0x0 PUSH20 0xFFFFFFFFFFFFFFFFFFFFFFFFFFFFFFFFFFFFFFFF DUP3 AND SWAP1 POP SWAP2 SWAP1 POP JUMP JUMPDEST PUSH1 0x0 PUSH2 0x790 DUP3 PUSH2 0x765 JUMP JUMPDEST SWAP1 POP SWAP2 SWAP1 POP JUMP JUMPDEST PUSH2 0x7A0 DUP2 PUSH2 0x785 JUMP JUMPDEST DUP2 EQ PUSH2 0x7AB JUMPI PUSH1 0x0 DUP1 REVERT JUMPDEST POP JUMP JUMPDEST PUSH1 0x0 DUP2 CALLDATALOAD SWAP1 POP PUSH2 0x7BD DUP2 PUSH2 0x797 JUMP JUMPDEST SWAP3 SWAP2 POP POP JUMP JUMPDEST PUSH1 0x0 PUSH1 0x20 DUP3 DUP5 SUB SLT ISZERO PUSH2 0x7D9 JUMPI PUSH2 0x7D8 PUSH2 0x760 JUMP JUMPDEST JUMPDEST PUSH1 0x0 PUSH2 0x7E7 DUP5 DUP3 DUP6 ADD PUSH2 0x7AE JUMP JUMPDEST SWAP2 POP POP SWAP3 SWAP2 POP POP JUMP JUMPDEST PUSH1 0x0 DUP2 SWAP1 POP SWAP2 SWAP1 POP JUMP JUMPDEST PUSH2 0x803 DUP2 PUSH2 0x7F0 JUMP JUMPDEST DUP3 MSTORE POP POP JUMP JUMPDEST PUSH1 0x0 PUSH1 0x20 DUP3 ADD SWAP1 POP PUSH2 0x81E PUSH1 0x0 DUP4 ADD DUP5 PUSH2 0x7FA JUMP JUMPDEST SWAP3 SWAP2 POP POP JUMP JUMPDEST PUSH2 0x82D DUP2 PUSH2 0x785 JUMP JUMPDEST DUP3 MSTORE POP POP JUMP JUMPDEST PUSH1 0x0 PUSH1 0x20 DUP3 ADD SWAP1 POP PUSH2 0x848 PUSH1 0x0 DUP4 ADD DUP5 PUSH2 0x824 JUMP JUMPDEST SWAP3 SWAP2 POP POP JUMP JUMPDEST PUSH2 0x857 DUP2 PUSH2 0x7F0 JUMP JUMPDEST DUP2 EQ PUSH2 0x862 JUMPI PUSH1 0x0 DUP1 REVERT JUMPDEST POP JUMP JUMPDEST PUSH1 0x0 DUP2 CALLDATALOAD SWAP1 POP PUSH2 0x874 DUP2 PUSH2 0x84E JUMP JUMPDEST SWAP3 SWAP2 POP POP JUMP JUMPDEST PUSH1 0x0 PUSH1 0x20 DUP3 DUP5 SUB SLT ISZERO PUSH2 0x890 JUMPI PUSH2 0x88F PUSH2 0x760 JUMP JUMPDEST JUMPDEST PUSH1 0x0 PUSH2 0x89E DUP5 DUP3 DUP6 ADD PUSH2 0x865 JUMP JUMPDEST SWAP2 POP POP SWAP3 SWAP2 POP POP JUMP JUMPDEST PUSH1 0x0 DUP3 DUP3 MSTORE PUSH1 0x20 DUP3 ADD SWAP1 POP SWAP3 SWAP2 POP POP JUMP JUMPDEST PUSH32 0x204E6F2066756E647320746F2077697468647261770000000000000000000000 PUSH1 0x0 DUP3 ADD MSTORE POP JUMP JUMPDEST PUSH1 0x0 PUSH2 0x8EE PUSH1 0x15 DUP4 PUSH2 0x8A7 JUMP JUMPDEST SWAP2 POP PUSH2 0x8F9 DUP3 PUSH2 0x8B8 JUMP JUMPDEST PUSH1 0x20 DUP3 ADD SWAP1 POP SWAP2 SWAP1 POP JUMP JUMPDEST PUSH1 0x0 PUSH1 0x20 DUP3 ADD SWAP1 POP DUP2 DUP2 SUB PUSH1 0x0 DUP4 ADD MSTORE PUSH2 0x91D DUP2 PUSH2 0x8E1 JUMP JUMPDEST SWAP1 POP SWAP2 SWAP1 POP JUMP JUMPDEST PUSH32 0x41756374696F6E2068617320616C726561647920656E64656400000000000000 PUSH1 0x0 DUP3 ADD MSTORE POP JUMP JUMPDEST PUSH1 0x0 PUSH2 0x95A PUSH1 0x19 DUP4 PUSH2 0x8A7 JUMP JUMPDEST SWAP2 POP PUSH2 0x965 DUP3 PUSH2 0x924 JUMP JUMPDEST PUSH1 0x20 DUP3 ADD SWAP1 POP SWAP2 SWAP1 POP JUMP JUMPDEST PUSH1 0x0 PUSH1 0x20 DUP3 ADD SWAP1 POP DUP2 DUP2 SUB PUSH1 0x0 DUP4 ADD MSTORE PUSH2 0x989 DUP2 PUSH2 0x94D JUMP JUMPDEST SWAP1 POP SWAP2 SWAP1 POP JUMP JUMPDEST PUSH32 0x546865726520697320616C726561647920612068696768657220626964000000 PUSH1 0x0 DUP3 ADD MSTORE POP JUMP JUMPDEST PUSH1 0x0 PUSH2 0x9C6 PUSH1 0x1D DUP4 PUSH2 0x8A7 JUMP JUMPDEST SWAP2 POP PUSH2 0x9D1 DUP3 PUSH2 0x990 JUMP JUMPDEST PUSH1 0x20 DUP3 ADD SWAP1 POP SWAP2 SWAP1 POP JUMP JUMPDEST PUSH1 0x0 PUSH1 0x20 DUP3 ADD SWAP1 POP DUP2 DUP2 SUB PUSH1 0x0 DUP4 ADD MSTORE PUSH2 0x9F5 DUP2 PUSH2 0x9B9 JUMP JUMPDEST SWAP1 POP SWAP2 SWAP1 POP JUMP JUMPDEST PUSH32 0x4E487B7100000000000000000000000000000000000000000000000000000000 PUSH1 0x0 MSTORE PUSH1 0x11 PUSH1 0x4 MSTORE PUSH1 0x24 PUSH1 0x0 REVERT JUMPDEST PUSH1 0x0 PUSH2 0xA36 DUP3 PUSH2 0x7F0 JUMP JUMPDEST SWAP2 POP PUSH2 0xA41 DUP4 PUSH2 0x7F0 JUMP JUMPDEST SWAP3 POP DUP3 DUP3 ADD SWAP1 POP DUP1 DUP3 GT ISZERO PUSH2 0xA59 JUMPI PUSH2 0xA58 PUSH2 0x9FC JUMP JUMPDEST JUMPDEST SWAP3 SWAP2 POP POP JUMP JUMPDEST PUSH1 0x0 PUSH1 0x40 DUP3 ADD SWAP1 POP PUSH2 0xA74 PUSH1 0x0 DUP4 ADD DUP6 PUSH2 0x824 JUMP JUMPDEST PUSH2 0xA81 PUSH1 0x20 DUP4 ADD DUP5 PUSH2 0x7FA JUMP JUMPDEST SWAP4 SWAP3 POP POP POP JUMP JUMPDEST PUSH32 0x204F6E6C79207468652061756374696F6E6565722063616E20656E6420746865 PUSH1 0x0 DUP3 ADD MSTORE PUSH32 0x2061756374696F6E000000000000000000000000000000000000000000000000 PUSH1 0x20 DUP3 ADD MSTORE POP JUMP JUMPDEST PUSH1 0x0 PUSH2 0xAE4 PUSH1 0x28 DUP4 PUSH2 0x8A7 JUMP JUMPDEST SWAP2 POP PUSH2 0xAEF DUP3 PUSH2 0xA88 JUMP JUMPDEST PUSH1 0x40 DUP3 ADD SWAP1 POP SWAP2 SWAP1 POP JUMP JUMPDEST PUSH1 0x0 PUSH1 0x20 DUP3 ADD SWAP1 POP DUP2 DUP2 SUB PUSH1 0x0 DUP4 ADD MSTORE PUSH2 0xB13 DUP2 PUSH2 0xAD7 JUMP JUMPDEST SWAP1 POP SWAP2 SWAP1 POP JUMP INVALID LOG2 PUSH5 0x6970667358 0x22 SLT KECCAK256 0xBE 0xC2 PUSH19 0x14C1F64BDB66B249C8389504C3F23D0FF8F258 0x1F 0x4F 0x21 0xA8 DUP3 OR PUSH10 0x38843164736F6C634300 ADDMOD SLT STOP CALLER "
				},
				"gasEstimates": {
					"creation": {
						"codeDepositCost": "579200",
						"executionCost": "infinite",
						"totalCost": "infinite"
					},
					"external": {
						"": "174",
						"auctionEndTime()": "2496",
						"auctioneer()": "2511",
						"endAuction()": "infinite",
						"ended()": "2472",
						"highestBid()": "2495",
						"highestBider()": "2536",
						"pendingReturns(address)": "2837",
						"setBid(uint256)": "infinite",
						"withdraw()": "infinite"
					}
				},
				"methodIdentifiers": {
					"auctionEndTime()": "4b449cba",
					"auctioneer()": "5ec2c7bf",
					"endAuction()": "fe67a54b",
					"ended()": "12fa6feb",
					"highestBid()": "d57bde79",
					"highestBider()": "6b57707e",
					"pendingReturns(address)": "26b387bb",
					"setBid(uint256)": "cef55b9a",
					"withdraw()": "3ccfd60b"
				}
			},
			"storageLayout": {
				"storage": [
					{
						"astId": 3,
						"contract": "contracts/auction.sol:Auction",
						"label": "auctioneer",
						"offset": 0,
						"slot": "0",
						"type": "t_address"
					},
					{
						"astId": 5,
						"contract": "contracts/auction.sol:Auction",
						"label": "auctionEndTime",
						"offset": 0,
						"slot": "1",
						"type": "t_uint256"
					},
					{
						"astId": 7,
						"contract": "contracts/auction.sol:Auction",
						"label": "highestBider",
						"offset": 0,
						"slot": "2",
						"type": "t_address"
					},
					{
						"astId": 9,
						"contract": "contracts/auction.sol:Auction",
						"label": "highestBid",
						"offset": 0,
						"slot": "3",
						"type": "t_uint256"
					},
					{
						"astId": 13,
						"contract": "contracts/auction.sol:Auction",
						"label": "pendingReturns",
						"offset": 0,
						"slot": "4",
						"type": "t_mapping(t_address,t_uint256)"
					},
					{
						"astId": 15,
						"contract": "contracts/auction.sol:Auction",
						"label": "ended",
						"offset": 0,
						"slot": "5",
						"type": "t_bool"
					}
				],
				"types": {
					"t_address": {
						"encoding": "inplace",
						"label": "address",
						"numberOfBytes": "20"
					},
					"t_bool": {
						"encoding": "inplace",
						"label": "bool",
						"numberOfBytes": "1"
					},
					"t_mapping(t_address,t_uint256)": {
						"encoding": "mapping",
						"key": "t_address",
						"label": "mapping(address => uint256)",
						"numberOfBytes": "32",
						"value": "t_uint256"
					},
					"t_uint256": {
						"encoding": "inplace",
						"label": "uint256",
						"numberOfBytes": "32"
					}
				}
			},
			"userdoc": {
				"kind": "user",
				"methods": {},
				"version": 1
			}
		}
	}
}