{
	"contracts/crowdfunding.sol": {
		"CrowdFunding": {
			"abi": [
				{
					"inputs": [],
					"stateMutability": "nonpayable",
					"type": "constructor"
				},
				{
					"anonymous": false,
					"inputs": [
						{
							"indexed": false,
							"internalType": "uint256",
							"name": "id",
							"type": "uint256"
						},
						{
							"indexed": false,
							"internalType": "string",
							"name": "name",
							"type": "string"
						},
						{
							"indexed": false,
							"internalType": "uint256",
							"name": "goalAmount",
							"type": "uint256"
						},
						{
							"indexed": false,
							"internalType": "address",
							"name": "creator",
							"type": "address"
						}
					],
					"name": "ProjectCreated",
					"type": "event"
				},
				{
					"anonymous": false,
					"inputs": [
						{
							"indexed": false,
							"internalType": "uint256",
							"name": "id",
							"type": "uint256"
						},
						{
							"indexed": false,
							"internalType": "string",
							"name": "name",
							"type": "string"
						},
						{
							"indexed": false,
							"internalType": "uint256",
							"name": "amount",
							"type": "uint256"
						},
						{
							"indexed": false,
							"internalType": "address",
							"name": "backer",
							"type": "address"
						}
					],
					"name": "ProjectFunded",
					"type": "event"
				},
				{
					"stateMutability": "payable",
					"type": "fallback"
				},
				{
					"inputs": [
						{
							"internalType": "string",
							"name": "_name",
							"type": "string"
						},
						{
							"internalType": "uint256",
							"name": "_goalAmount",
							"type": "uint256"
						}
					],
					"name": "createProject",
					"outputs": [],
					"stateMutability": "nonpayable",
					"type": "function"
				},
				{
					"inputs": [
						{
							"internalType": "uint256",
							"name": "_id",
							"type": "uint256"
						}
					],
					"name": "fundProject",
					"outputs": [],
					"stateMutability": "payable",
					"type": "function"
				},
				{
					"inputs": [],
					"name": "projectCount",
					"outputs": [
						{
							"internalType": "uint256",
							"name": "",
							"type": "uint256"
						}
					],
					"stateMutability": "view",
					"type": "function"
				},
				{
					"inputs": [
						{
							"internalType": "uint256",
							"name": "",
							"type": "uint256"
						}
					],
					"name": "projects",
					"outputs": [
						{
							"internalType": "uint256",
							"name": "id",
							"type": "uint256"
						},
						{
							"internalType": "string",
							"name": "name",
							"type": "string"
						},
						{
							"internalType": "uint256",
							"name": "goalAmount",
							"type": "uint256"
						},
						{
							"internalType": "uint256",
							"name": "currentAmount",
							"type": "uint256"
						},
						{
							"internalType": "address payable",
							"name": "creator",
							"type": "address"
						},
						{
							"internalType": "bool",
							"name": "isFunded",
							"type": "bool"
						}
					],
					"stateMutability": "view",
					"type": "function"
				},
				{
					"stateMutability": "payable",
					"type": "receive"
				}
			],
			"devdoc": {
				"kind": "dev",
				"methods": {},
				"version": 1
			},
			"evm": {
				"assembly": "    /* \"contracts/crowdfunding.sol\":58:1468  contract CrowdFunding {... */\n  mstore(0x40, 0x80)\n    /* \"contracts/crowdfunding.sol\":497:544  constructor() {... */\n  callvalue\n  dup1\n  iszero\n  tag_1\n  jumpi\n  0x00\n  dup1\n  revert\ntag_1:\n  pop\n    /* \"contracts/crowdfunding.sol\":536:537  0 */\n  0x00\n    /* \"contracts/crowdfunding.sol\":521:533  projectCount */\n  dup1\n    /* \"contracts/crowdfunding.sol\":521:537  projectCount = 0 */\n  dup2\n  swap1\n  sstore\n  pop\n    /* \"contracts/crowdfunding.sol\":58:1468  contract CrowdFunding {... */\n  dataSize(sub_0)\n  dup1\n  dataOffset(sub_0)\n  0x00\n  codecopy\n  0x00\n  return\nstop\n\nsub_0: assembly {\n        /* \"contracts/crowdfunding.sol\":58:1468  contract CrowdFunding {... */\n      mstore(0x40, 0x80)\n      jumpi(tag_1, lt(calldatasize, 0x04))\n      shr(0xe0, calldataload(0x00))\n      dup1\n      0x107046bd\n      eq\n      tag_3\n      jumpi\n      dup1\n      0x36fbad26\n      eq\n      tag_4\n      jumpi\n      dup1\n      0x6c563abe\n      eq\n      tag_5\n      jumpi\n      dup1\n      0x91754a5d\n      eq\n      tag_6\n      jumpi\n      jump(tag_2)\n    tag_1:\n      jumpi(tag_2, calldatasize)\n      stop\n    tag_2:\n      stop\n        /* \"contracts/crowdfunding.sol\":291:331  mapping(uint => Project) public projects */\n    tag_3:\n      callvalue\n      dup1\n      iszero\n      tag_11\n      jumpi\n      0x00\n      dup1\n      revert\n    tag_11:\n      pop\n      tag_12\n      0x04\n      dup1\n      calldatasize\n      sub\n      dup2\n      add\n      swap1\n      tag_13\n      swap2\n      swap1\n      tag_14\n      jump\t// in\n    tag_13:\n      tag_15\n      jump\t// in\n    tag_12:\n      mload(0x40)\n      tag_16\n      swap7\n      swap6\n      swap5\n      swap4\n      swap3\n      swap2\n      swap1\n      tag_17\n      jump\t// in\n    tag_16:\n      mload(0x40)\n      dup1\n      swap2\n      sub\n      swap1\n      return\n        /* \"contracts/crowdfunding.sol\":261:285  uint public projectCount */\n    tag_4:\n      callvalue\n      dup1\n      iszero\n      tag_18\n      jumpi\n      0x00\n      dup1\n      revert\n    tag_18:\n      pop\n      tag_19\n      tag_20\n      jump\t// in\n    tag_19:\n      mload(0x40)\n      tag_21\n      swap2\n      swap1\n      tag_22\n      jump\t// in\n    tag_21:\n      mload(0x40)\n      dup1\n      swap2\n      sub\n      swap1\n      return\n        /* \"contracts/crowdfunding.sol\":923:1387  function fundProject(uint _id) public payable {... */\n    tag_5:\n      tag_23\n      0x04\n      dup1\n      calldatasize\n      sub\n      dup2\n      add\n      swap1\n      tag_24\n      swap2\n      swap1\n      tag_14\n      jump\t// in\n    tag_24:\n      tag_25\n      jump\t// in\n    tag_23:\n      stop\n        /* \"contracts/crowdfunding.sol\":550:917  function createProject(string memory _name, uint _goalAmount) public {... */\n    tag_6:\n      callvalue\n      dup1\n      iszero\n      tag_26\n      jumpi\n      0x00\n      dup1\n      revert\n    tag_26:\n      pop\n      tag_27\n      0x04\n      dup1\n      calldatasize\n      sub\n      dup2\n      add\n      swap1\n      tag_28\n      swap2\n      swap1\n      tag_29\n      jump\t// in\n    tag_28:\n      tag_30\n      jump\t// in\n    tag_27:\n      stop\n        /* \"contracts/crowdfunding.sol\":291:331  mapping(uint => Project) public projects */\n    tag_15:\n      mstore(0x20, 0x01)\n      dup1\n      0x00\n      mstore\n      keccak256(0x00, 0x40)\n      0x00\n      swap2\n      pop\n      swap1\n      pop\n      dup1\n      0x00\n      add\n      sload\n      swap1\n      dup1\n      0x01\n      add\n      dup1\n      sload\n      tag_31\n      swap1\n      tag_32\n      jump\t// in\n    tag_31:\n      dup1\n      0x1f\n      add\n      0x20\n      dup1\n      swap2\n      div\n      mul\n      0x20\n      add\n      mload(0x40)\n      swap1\n      dup2\n      add\n      0x40\n      mstore\n      dup1\n      swap3\n      swap2\n      swap1\n      dup2\n      dup2\n      mstore\n      0x20\n      add\n      dup3\n      dup1\n      sload\n      tag_33\n      swap1\n      tag_32\n      jump\t// in\n    tag_33:\n      dup1\n      iszero\n      tag_34\n      jumpi\n      dup1\n      0x1f\n      lt\n      tag_35\n      jumpi\n      0x0100\n      dup1\n      dup4\n      sload\n      div\n      mul\n      dup4\n      mstore\n      swap2\n      0x20\n      add\n      swap2\n      jump(tag_34)\n    tag_35:\n      dup3\n      add\n      swap2\n      swap1\n      0x00\n      mstore\n      keccak256(0x00, 0x20)\n      swap1\n    tag_36:\n      dup2\n      sload\n      dup2\n      mstore\n      swap1\n      0x01\n      add\n      swap1\n      0x20\n      add\n      dup1\n      dup4\n      gt\n      tag_36\n      jumpi\n      dup3\n      swap1\n      sub\n      0x1f\n      and\n      dup3\n      add\n      swap2\n    tag_34:\n      pop\n      pop\n      pop\n      pop\n      pop\n      swap1\n      dup1\n      0x02\n      add\n      sload\n      swap1\n      dup1\n      0x03\n      add\n      sload\n      swap1\n      dup1\n      0x04\n      add\n      0x00\n      swap1\n      sload\n      swap1\n      0x0100\n      exp\n      swap1\n      div\n      0xffffffffffffffffffffffffffffffffffffffff\n      and\n      swap1\n      dup1\n      0x04\n      add\n      0x14\n      swap1\n      sload\n      swap1\n      0x0100\n      exp\n      swap1\n      div\n      0xff\n      and\n      swap1\n      pop\n      dup7\n      jump\t// out\n        /* \"contracts/crowdfunding.sol\":261:285  uint public projectCount */\n    tag_20:\n      sload(0x00)\n      dup2\n      jump\t// out\n        /* \"contracts/crowdfunding.sol\":923:1387  function fundProject(uint _id) public payable {... */\n    tag_25:\n        /* \"contracts/crowdfunding.sol\":993:994  0 */\n      0x00\n        /* \"contracts/crowdfunding.sol\":987:990  _id */\n      dup2\n        /* \"contracts/crowdfunding.sol\":987:994  _id > 0 */\n      gt\n        /* \"contracts/crowdfunding.sol\":987:1017  _id > 0 && _id <= projectCount */\n      dup1\n      iszero\n      tag_38\n      jumpi\n      pop\n        /* \"contracts/crowdfunding.sol\":1005:1017  projectCount */\n      sload(0x00)\n        /* \"contracts/crowdfunding.sol\":998:1001  _id */\n      dup2\n        /* \"contracts/crowdfunding.sol\":998:1017  _id <= projectCount */\n      gt\n      iszero\n        /* \"contracts/crowdfunding.sol\":987:1017  _id > 0 && _id <= projectCount */\n    tag_38:\n        /* \"contracts/crowdfunding.sol\":979:1042  require(_id > 0 && _id <= projectCount, \"Project ID not Valid\") */\n      tag_39\n      jumpi\n      mload(0x40)\n      0x08c379a000000000000000000000000000000000000000000000000000000000\n      dup2\n      mstore\n      0x04\n      add\n      tag_40\n      swap1\n      tag_41\n      jump\t// in\n    tag_40:\n      mload(0x40)\n      dup1\n      swap2\n      sub\n      swap1\n      revert\n    tag_39:\n        /* \"contracts/crowdfunding.sol\":1053:1076  Project storage project */\n      0x00\n        /* \"contracts/crowdfunding.sol\":1079:1087  projects */\n      0x01\n        /* \"contracts/crowdfunding.sol\":1079:1092  projects[_id] */\n      0x00\n        /* \"contracts/crowdfunding.sol\":1088:1091  _id */\n      dup4\n        /* \"contracts/crowdfunding.sol\":1079:1092  projects[_id] */\n      dup2\n      mstore\n      0x20\n      add\n      swap1\n      dup2\n      mstore\n      0x20\n      add\n      0x00\n      keccak256\n        /* \"contracts/crowdfunding.sol\":1053:1092  Project storage project = projects[_id] */\n      swap1\n      pop\n        /* \"contracts/crowdfunding.sol\":1111:1118  project */\n      dup1\n        /* \"contracts/crowdfunding.sol\":1111:1127  project.isFunded */\n      0x04\n      add\n      0x14\n      swap1\n      sload\n      swap1\n      0x0100\n      exp\n      swap1\n      div\n      0xff\n      and\n        /* \"contracts/crowdfunding.sol\":1110:1127  !project.isFunded */\n      iszero\n        /* \"contracts/crowdfunding.sol\":1102:1157  require(!project.isFunded, \"Project is already Funded\") */\n      tag_42\n      jumpi\n      mload(0x40)\n      0x08c379a000000000000000000000000000000000000000000000000000000000\n      dup2\n      mstore\n      0x04\n      add\n      tag_43\n      swap1\n      tag_44\n      jump\t// in\n    tag_43:\n      mload(0x40)\n      dup1\n      swap2\n      sub\n      swap1\n      revert\n    tag_42:\n        /* \"contracts/crowdfunding.sol\":1193:1202  msg.value */\n      callvalue\n        /* \"contracts/crowdfunding.sol\":1168:1175  project */\n      dup2\n        /* \"contracts/crowdfunding.sol\":1168:1189  project.currentAmount */\n      0x03\n      add\n      0x00\n        /* \"contracts/crowdfunding.sol\":1168:1202  project.currentAmount += msg.value */\n      dup3\n      dup3\n      sload\n      tag_45\n      swap2\n      swap1\n      tag_46\n      jump\t// in\n    tag_45:\n      swap3\n      pop\n      pop\n      dup2\n      swap1\n      sstore\n      pop\n        /* \"contracts/crowdfunding.sol\":1242:1249  project */\n      dup1\n        /* \"contracts/crowdfunding.sol\":1242:1260  project.goalAmount */\n      0x02\n      add\n      sload\n        /* \"contracts/crowdfunding.sol\":1217:1224  project */\n      dup2\n        /* \"contracts/crowdfunding.sol\":1217:1238  project.currentAmount */\n      0x03\n      add\n      sload\n        /* \"contracts/crowdfunding.sol\":1217:1260  project.currentAmount >= project.goalAmount */\n      lt\n        /* \"contracts/crowdfunding.sol\":1213:1310  if (project.currentAmount >= project.goalAmount) {... */\n      tag_47\n      jumpi\n        /* \"contracts/crowdfunding.sol\":1295:1299  true */\n      0x01\n        /* \"contracts/crowdfunding.sol\":1276:1283  project */\n      dup2\n        /* \"contracts/crowdfunding.sol\":1276:1292  project.isFunded */\n      0x04\n      add\n      0x14\n        /* \"contracts/crowdfunding.sol\":1276:1299  project.isFunded = true */\n      0x0100\n      exp\n      dup2\n      sload\n      dup2\n      0xff\n      mul\n      not\n      and\n      swap1\n      dup4\n      iszero\n      iszero\n      mul\n      or\n      swap1\n      sstore\n      pop\n        /* \"contracts/crowdfunding.sol\":1213:1310  if (project.currentAmount >= project.goalAmount) {... */\n    tag_47:\n        /* \"contracts/crowdfunding.sol\":1325:1380  ProjectFunded(_id, project.name, msg.value, msg.sender) */\n      0xaec46aedf9521d79257a87f53df5515a4dd40b673c959c80a382dec3d9e55994\n        /* \"contracts/crowdfunding.sol\":1339:1342  _id */\n      dup3\n        /* \"contracts/crowdfunding.sol\":1344:1351  project */\n      dup3\n        /* \"contracts/crowdfunding.sol\":1344:1356  project.name */\n      0x01\n      add\n        /* \"contracts/crowdfunding.sol\":1358:1367  msg.value */\n      callvalue\n        /* \"contracts/crowdfunding.sol\":1369:1379  msg.sender */\n      caller\n        /* \"contracts/crowdfunding.sol\":1325:1380  ProjectFunded(_id, project.name, msg.value, msg.sender) */\n      mload(0x40)\n      tag_48\n      swap5\n      swap4\n      swap3\n      swap2\n      swap1\n      tag_49\n      jump\t// in\n    tag_48:\n      mload(0x40)\n      dup1\n      swap2\n      sub\n      swap1\n      log1\n        /* \"contracts/crowdfunding.sol\":969:1387  {... */\n      pop\n        /* \"contracts/crowdfunding.sol\":923:1387  function fundProject(uint _id) public payable {... */\n      pop\n      jump\t// out\n        /* \"contracts/crowdfunding.sol\":550:917  function createProject(string memory _name, uint _goalAmount) public {... */\n    tag_30:\n        /* \"contracts/crowdfunding.sol\":629:641  projectCount */\n      0x00\n      dup1\n        /* \"contracts/crowdfunding.sol\":629:644  projectCount ++ */\n      dup2\n      sload\n      dup1\n      swap3\n      swap2\n      swap1\n      tag_51\n      swap1\n      tag_52\n      jump\t// in\n    tag_51:\n      swap2\n      swap1\n      pop\n      sstore\n      pop\n        /* \"contracts/crowdfunding.sol\":680:834  Project(... */\n      mload(0x40)\n      dup1\n      0xc0\n      add\n      0x40\n      mstore\n      dup1\n        /* \"contracts/crowdfunding.sol\":701:713  projectCount */\n      sload(0x00)\n        /* \"contracts/crowdfunding.sol\":680:834  Project(... */\n      dup2\n      mstore\n      0x20\n      add\n        /* \"contracts/crowdfunding.sol\":727:732  _name */\n      dup4\n        /* \"contracts/crowdfunding.sol\":680:834  Project(... */\n      dup2\n      mstore\n      0x20\n      add\n        /* \"contracts/crowdfunding.sol\":746:757  _goalAmount */\n      dup3\n        /* \"contracts/crowdfunding.sol\":680:834  Project(... */\n      dup2\n      mstore\n      0x20\n      add\n        /* \"contracts/crowdfunding.sol\":771:772  0 */\n      0x00\n        /* \"contracts/crowdfunding.sol\":680:834  Project(... */\n      dup2\n      mstore\n      0x20\n      add\n        /* \"contracts/crowdfunding.sol\":794:804  msg.sender */\n      caller\n        /* \"contracts/crowdfunding.sol\":680:834  Project(... */\n      0xffffffffffffffffffffffffffffffffffffffff\n      and\n      dup2\n      mstore\n      0x20\n      add\n        /* \"contracts/crowdfunding.sol\":819:824  false */\n      0x00\n        /* \"contracts/crowdfunding.sol\":680:834  Project(... */\n      iszero\n      iszero\n      dup2\n      mstore\n      pop\n        /* \"contracts/crowdfunding.sol\":655:663  projects */\n      0x01\n        /* \"contracts/crowdfunding.sol\":655:677  projects[projectCount] */\n      0x00\n        /* \"contracts/crowdfunding.sol\":664:676  projectCount */\n      dup1\n      sload\n        /* \"contracts/crowdfunding.sol\":655:677  projects[projectCount] */\n      dup2\n      mstore\n      0x20\n      add\n      swap1\n      dup2\n      mstore\n      0x20\n      add\n      0x00\n      keccak256\n        /* \"contracts/crowdfunding.sol\":655:834  projects[projectCount] = Project(... */\n      0x00\n      dup3\n      add\n      mload\n      dup2\n      0x00\n      add\n      sstore\n      0x20\n      dup3\n      add\n      mload\n      dup2\n      0x01\n      add\n      swap1\n      dup2\n      tag_53\n      swap2\n      swap1\n      tag_54\n      jump\t// in\n    tag_53:\n      pop\n      0x40\n      dup3\n      add\n      mload\n      dup2\n      0x02\n      add\n      sstore\n      0x60\n      dup3\n      add\n      mload\n      dup2\n      0x03\n      add\n      sstore\n      0x80\n      dup3\n      add\n      mload\n      dup2\n      0x04\n      add\n      exp(0x0100, 0x00)\n      dup2\n      sload\n      dup2\n      0xffffffffffffffffffffffffffffffffffffffff\n      mul\n      not\n      and\n      swap1\n      dup4\n      0xffffffffffffffffffffffffffffffffffffffff\n      and\n      mul\n      or\n      swap1\n      sstore\n      pop\n      0xa0\n      dup3\n      add\n      mload\n      dup2\n      0x04\n      add\n      exp(0x0100, 0x14)\n      dup2\n      sload\n      dup2\n      0xff\n      mul\n      not\n      and\n      swap1\n      dup4\n      iszero\n      iszero\n      mul\n      or\n      swap1\n      sstore\n      pop\n      swap1\n      pop\n      pop\n        /* \"contracts/crowdfunding.sol\":850:910  ProjectCreated(projectCount, _name, _goalAmount, msg.sender) */\n      0xbb4637bbc1f7f92783410fb90807fcced52c1562da987ac649876f09a750a5e3\n        /* \"contracts/crowdfunding.sol\":865:877  projectCount */\n      sload(0x00)\n        /* \"contracts/crowdfunding.sol\":879:884  _name */\n      dup4\n        /* \"contracts/crowdfunding.sol\":886:897  _goalAmount */\n      dup4\n        /* \"contracts/crowdfunding.sol\":899:909  msg.sender */\n      caller\n        /* \"contracts/crowdfunding.sol\":850:910  ProjectCreated(projectCount, _name, _goalAmount, msg.sender) */\n      mload(0x40)\n      tag_55\n      swap5\n      swap4\n      swap3\n      swap2\n      swap1\n      tag_56\n      jump\t// in\n    tag_55:\n      mload(0x40)\n      dup1\n      swap2\n      sub\n      swap1\n      log1\n        /* \"contracts/crowdfunding.sol\":550:917  function createProject(string memory _name, uint _goalAmount) public {... */\n      pop\n      pop\n      jump\t// out\n        /* \"#utility.yul\":7:82   */\n    tag_57:\n        /* \"#utility.yul\":40:46   */\n      0x00\n        /* \"#utility.yul\":73:75   */\n      0x40\n        /* \"#utility.yul\":67:76   */\n      mload\n        /* \"#utility.yul\":57:76   */\n      swap1\n      pop\n        /* \"#utility.yul\":7:82   */\n      swap1\n      jump\t// out\n        /* \"#utility.yul\":88:205   */\n    tag_58:\n        /* \"#utility.yul\":197:198   */\n      0x00\n        /* \"#utility.yul\":194:195   */\n      dup1\n        /* \"#utility.yul\":187:199   */\n      revert\n        /* \"#utility.yul\":211:328   */\n    tag_59:\n        /* \"#utility.yul\":320:321   */\n      0x00\n        /* \"#utility.yul\":317:318   */\n      dup1\n        /* \"#utility.yul\":310:322   */\n      revert\n        /* \"#utility.yul\":334:411   */\n    tag_60:\n        /* \"#utility.yul\":371:378   */\n      0x00\n        /* \"#utility.yul\":400:405   */\n      dup2\n        /* \"#utility.yul\":389:405   */\n      swap1\n      pop\n        /* \"#utility.yul\":334:411   */\n      swap2\n      swap1\n      pop\n      jump\t// out\n        /* \"#utility.yul\":417:539   */\n    tag_61:\n        /* \"#utility.yul\":490:514   */\n      tag_113\n        /* \"#utility.yul\":508:513   */\n      dup2\n        /* \"#utility.yul\":490:514   */\n      tag_60\n      jump\t// in\n    tag_113:\n        /* \"#utility.yul\":483:488   */\n      dup2\n        /* \"#utility.yul\":480:515   */\n      eq\n        /* \"#utility.yul\":470:533   */\n      tag_114\n      jumpi\n        /* \"#utility.yul\":529:530   */\n      0x00\n        /* \"#utility.yul\":526:527   */\n      dup1\n        /* \"#utility.yul\":519:531   */\n      revert\n        /* \"#utility.yul\":470:533   */\n    tag_114:\n        /* \"#utility.yul\":417:539   */\n      pop\n      jump\t// out\n        /* \"#utility.yul\":545:684   */\n    tag_62:\n        /* \"#utility.yul\":591:596   */\n      0x00\n        /* \"#utility.yul\":629:635   */\n      dup2\n        /* \"#utility.yul\":616:636   */\n      calldataload\n        /* \"#utility.yul\":607:636   */\n      swap1\n      pop\n        /* \"#utility.yul\":645:678   */\n      tag_116\n        /* \"#utility.yul\":672:677   */\n      dup2\n        /* \"#utility.yul\":645:678   */\n      tag_61\n      jump\t// in\n    tag_116:\n        /* \"#utility.yul\":545:684   */\n      swap3\n      swap2\n      pop\n      pop\n      jump\t// out\n        /* \"#utility.yul\":690:1019   */\n    tag_14:\n        /* \"#utility.yul\":749:755   */\n      0x00\n        /* \"#utility.yul\":798:800   */\n      0x20\n        /* \"#utility.yul\":786:795   */\n      dup3\n        /* \"#utility.yul\":777:784   */\n      dup5\n        /* \"#utility.yul\":773:796   */\n      sub\n        /* \"#utility.yul\":769:801   */\n      slt\n        /* \"#utility.yul\":766:885   */\n      iszero\n      tag_118\n      jumpi\n        /* \"#utility.yul\":804:883   */\n      tag_119\n      tag_58\n      jump\t// in\n    tag_119:\n        /* \"#utility.yul\":766:885   */\n    tag_118:\n        /* \"#utility.yul\":924:925   */\n      0x00\n        /* \"#utility.yul\":949:1002   */\n      tag_120\n        /* \"#utility.yul\":994:1001   */\n      dup5\n        /* \"#utility.yul\":985:991   */\n      dup3\n        /* \"#utility.yul\":974:983   */\n      dup6\n        /* \"#utility.yul\":970:992   */\n      add\n        /* \"#utility.yul\":949:1002   */\n      tag_62\n      jump\t// in\n    tag_120:\n        /* \"#utility.yul\":939:1002   */\n      swap2\n      pop\n        /* \"#utility.yul\":895:1012   */\n      pop\n        /* \"#utility.yul\":690:1019   */\n      swap3\n      swap2\n      pop\n      pop\n      jump\t// out\n        /* \"#utility.yul\":1025:1143   */\n    tag_63:\n        /* \"#utility.yul\":1112:1136   */\n      tag_122\n        /* \"#utility.yul\":1130:1135   */\n      dup2\n        /* \"#utility.yul\":1112:1136   */\n      tag_60\n      jump\t// in\n    tag_122:\n        /* \"#utility.yul\":1107:1110   */\n      dup3\n        /* \"#utility.yul\":1100:1137   */\n      mstore\n        /* \"#utility.yul\":1025:1143   */\n      pop\n      pop\n      jump\t// out\n        /* \"#utility.yul\":1149:1248   */\n    tag_64:\n        /* \"#utility.yul\":1201:1207   */\n      0x00\n        /* \"#utility.yul\":1235:1240   */\n      dup2\n        /* \"#utility.yul\":1229:1241   */\n      mload\n        /* \"#utility.yul\":1219:1241   */\n      swap1\n      pop\n        /* \"#utility.yul\":1149:1248   */\n      swap2\n      swap1\n      pop\n      jump\t// out\n        /* \"#utility.yul\":1254:1423   */\n    tag_65:\n        /* \"#utility.yul\":1338:1349   */\n      0x00\n        /* \"#utility.yul\":1372:1378   */\n      dup3\n        /* \"#utility.yul\":1367:1370   */\n      dup3\n        /* \"#utility.yul\":1360:1379   */\n      mstore\n        /* \"#utility.yul\":1412:1416   */\n      0x20\n        /* \"#utility.yul\":1407:1410   */\n      dup3\n        /* \"#utility.yul\":1403:1417   */\n      add\n        /* \"#utility.yul\":1388:1417   */\n      swap1\n      pop\n        /* \"#utility.yul\":1254:1423   */\n      swap3\n      swap2\n      pop\n      pop\n      jump\t// out\n        /* \"#utility.yul\":1429:1675   */\n    tag_66:\n        /* \"#utility.yul\":1510:1511   */\n      0x00\n        /* \"#utility.yul\":1520:1633   */\n    tag_126:\n        /* \"#utility.yul\":1534:1540   */\n      dup4\n        /* \"#utility.yul\":1531:1532   */\n      dup2\n        /* \"#utility.yul\":1528:1541   */\n      lt\n        /* \"#utility.yul\":1520:1633   */\n      iszero\n      tag_128\n      jumpi\n        /* \"#utility.yul\":1619:1620   */\n      dup1\n        /* \"#utility.yul\":1614:1617   */\n      dup3\n        /* \"#utility.yul\":1610:1621   */\n      add\n        /* \"#utility.yul\":1604:1622   */\n      mload\n        /* \"#utility.yul\":1600:1601   */\n      dup2\n        /* \"#utility.yul\":1595:1598   */\n      dup5\n        /* \"#utility.yul\":1591:1602   */\n      add\n        /* \"#utility.yul\":1584:1623   */\n      mstore\n        /* \"#utility.yul\":1556:1558   */\n      0x20\n        /* \"#utility.yul\":1553:1554   */\n      dup2\n        /* \"#utility.yul\":1549:1559   */\n      add\n        /* \"#utility.yul\":1544:1559   */\n      swap1\n      pop\n        /* \"#utility.yul\":1520:1633   */\n      jump(tag_126)\n    tag_128:\n        /* \"#utility.yul\":1667:1668   */\n      0x00\n        /* \"#utility.yul\":1658:1664   */\n      dup5\n        /* \"#utility.yul\":1653:1656   */\n      dup5\n        /* \"#utility.yul\":1649:1665   */\n      add\n        /* \"#utility.yul\":1642:1669   */\n      mstore\n        /* \"#utility.yul\":1491:1675   */\n      pop\n        /* \"#utility.yul\":1429:1675   */\n      pop\n      pop\n      pop\n      jump\t// out\n        /* \"#utility.yul\":1681:1783   */\n    tag_67:\n        /* \"#utility.yul\":1722:1728   */\n      0x00\n        /* \"#utility.yul\":1773:1775   */\n      0x1f\n        /* \"#utility.yul\":1769:1776   */\n      not\n        /* \"#utility.yul\":1764:1766   */\n      0x1f\n        /* \"#utility.yul\":1757:1762   */\n      dup4\n        /* \"#utility.yul\":1753:1767   */\n      add\n        /* \"#utility.yul\":1749:1777   */\n      and\n        /* \"#utility.yul\":1739:1777   */\n      swap1\n      pop\n        /* \"#utility.yul\":1681:1783   */\n      swap2\n      swap1\n      pop\n      jump\t// out\n        /* \"#utility.yul\":1789:2166   */\n    tag_68:\n        /* \"#utility.yul\":1877:1880   */\n      0x00\n        /* \"#utility.yul\":1905:1944   */\n      tag_131\n        /* \"#utility.yul\":1938:1943   */\n      dup3\n        /* \"#utility.yul\":1905:1944   */\n      tag_64\n      jump\t// in\n    tag_131:\n        /* \"#utility.yul\":1960:2031   */\n      tag_132\n        /* \"#utility.yul\":2024:2030   */\n      dup2\n        /* \"#utility.yul\":2019:2022   */\n      dup6\n        /* \"#utility.yul\":1960:2031   */\n      tag_65\n      jump\t// in\n    tag_132:\n        /* \"#utility.yul\":1953:2031   */\n      swap4\n      pop\n        /* \"#utility.yul\":2040:2105   */\n      tag_133\n        /* \"#utility.yul\":2098:2104   */\n      dup2\n        /* \"#utility.yul\":2093:2096   */\n      dup6\n        /* \"#utility.yul\":2086:2090   */\n      0x20\n        /* \"#utility.yul\":2079:2084   */\n      dup7\n        /* \"#utility.yul\":2075:2091   */\n      add\n        /* \"#utility.yul\":2040:2105   */\n      tag_66\n      jump\t// in\n    tag_133:\n        /* \"#utility.yul\":2130:2159   */\n      tag_134\n        /* \"#utility.yul\":2152:2158   */\n      dup2\n        /* \"#utility.yul\":2130:2159   */\n      tag_67\n      jump\t// in\n    tag_134:\n        /* \"#utility.yul\":2125:2128   */\n      dup5\n        /* \"#utility.yul\":2121:2160   */\n      add\n        /* \"#utility.yul\":2114:2160   */\n      swap2\n      pop\n        /* \"#utility.yul\":1881:2166   */\n      pop\n        /* \"#utility.yul\":1789:2166   */\n      swap3\n      swap2\n      pop\n      pop\n      jump\t// out\n        /* \"#utility.yul\":2172:2298   */\n    tag_69:\n        /* \"#utility.yul\":2209:2216   */\n      0x00\n        /* \"#utility.yul\":2249:2291   */\n      0xffffffffffffffffffffffffffffffffffffffff\n        /* \"#utility.yul\":2242:2247   */\n      dup3\n        /* \"#utility.yul\":2238:2292   */\n      and\n        /* \"#utility.yul\":2227:2292   */\n      swap1\n      pop\n        /* \"#utility.yul\":2172:2298   */\n      swap2\n      swap1\n      pop\n      jump\t// out\n        /* \"#utility.yul\":2304:2408   */\n    tag_70:\n        /* \"#utility.yul\":2349:2356   */\n      0x00\n        /* \"#utility.yul\":2378:2402   */\n      tag_137\n        /* \"#utility.yul\":2396:2401   */\n      dup3\n        /* \"#utility.yul\":2378:2402   */\n      tag_69\n      jump\t// in\n    tag_137:\n        /* \"#utility.yul\":2367:2402   */\n      swap1\n      pop\n        /* \"#utility.yul\":2304:2408   */\n      swap2\n      swap1\n      pop\n      jump\t// out\n        /* \"#utility.yul\":2414:2556   */\n    tag_71:\n        /* \"#utility.yul\":2517:2549   */\n      tag_139\n        /* \"#utility.yul\":2543:2548   */\n      dup2\n        /* \"#utility.yul\":2517:2549   */\n      tag_70\n      jump\t// in\n    tag_139:\n        /* \"#utility.yul\":2512:2515   */\n      dup3\n        /* \"#utility.yul\":2505:2550   */\n      mstore\n        /* \"#utility.yul\":2414:2556   */\n      pop\n      pop\n      jump\t// out\n        /* \"#utility.yul\":2562:2652   */\n    tag_72:\n        /* \"#utility.yul\":2596:2603   */\n      0x00\n        /* \"#utility.yul\":2639:2644   */\n      dup2\n        /* \"#utility.yul\":2632:2645   */\n      iszero\n        /* \"#utility.yul\":2625:2646   */\n      iszero\n        /* \"#utility.yul\":2614:2646   */\n      swap1\n      pop\n        /* \"#utility.yul\":2562:2652   */\n      swap2\n      swap1\n      pop\n      jump\t// out\n        /* \"#utility.yul\":2658:2767   */\n    tag_73:\n        /* \"#utility.yul\":2739:2760   */\n      tag_142\n        /* \"#utility.yul\":2754:2759   */\n      dup2\n        /* \"#utility.yul\":2739:2760   */\n      tag_72\n      jump\t// in\n    tag_142:\n        /* \"#utility.yul\":2734:2737   */\n      dup3\n        /* \"#utility.yul\":2727:2761   */\n      mstore\n        /* \"#utility.yul\":2658:2767   */\n      pop\n      pop\n      jump\t// out\n        /* \"#utility.yul\":2773:3659   */\n    tag_17:\n        /* \"#utility.yul\":3036:3040   */\n      0x00\n        /* \"#utility.yul\":3074:3077   */\n      0xc0\n        /* \"#utility.yul\":3063:3072   */\n      dup3\n        /* \"#utility.yul\":3059:3078   */\n      add\n        /* \"#utility.yul\":3051:3078   */\n      swap1\n      pop\n        /* \"#utility.yul\":3088:3159   */\n      tag_144\n        /* \"#utility.yul\":3156:3157   */\n      0x00\n        /* \"#utility.yul\":3145:3154   */\n      dup4\n        /* \"#utility.yul\":3141:3158   */\n      add\n        /* \"#utility.yul\":3132:3138   */\n      dup10\n        /* \"#utility.yul\":3088:3159   */\n      tag_63\n      jump\t// in\n    tag_144:\n        /* \"#utility.yul\":3206:3215   */\n      dup2\n        /* \"#utility.yul\":3200:3204   */\n      dup2\n        /* \"#utility.yul\":3196:3216   */\n      sub\n        /* \"#utility.yul\":3191:3193   */\n      0x20\n        /* \"#utility.yul\":3180:3189   */\n      dup4\n        /* \"#utility.yul\":3176:3194   */\n      add\n        /* \"#utility.yul\":3169:3217   */\n      mstore\n        /* \"#utility.yul\":3234:3312   */\n      tag_145\n        /* \"#utility.yul\":3307:3311   */\n      dup2\n        /* \"#utility.yul\":3298:3304   */\n      dup9\n        /* \"#utility.yul\":3234:3312   */\n      tag_68\n      jump\t// in\n    tag_145:\n        /* \"#utility.yul\":3226:3312   */\n      swap1\n      pop\n        /* \"#utility.yul\":3322:3394   */\n      tag_146\n        /* \"#utility.yul\":3390:3392   */\n      0x40\n        /* \"#utility.yul\":3379:3388   */\n      dup4\n        /* \"#utility.yul\":3375:3393   */\n      add\n        /* \"#utility.yul\":3366:3372   */\n      dup8\n        /* \"#utility.yul\":3322:3394   */\n      tag_63\n      jump\t// in\n    tag_146:\n        /* \"#utility.yul\":3404:3476   */\n      tag_147\n        /* \"#utility.yul\":3472:3474   */\n      0x60\n        /* \"#utility.yul\":3461:3470   */\n      dup4\n        /* \"#utility.yul\":3457:3475   */\n      add\n        /* \"#utility.yul\":3448:3454   */\n      dup7\n        /* \"#utility.yul\":3404:3476   */\n      tag_63\n      jump\t// in\n    tag_147:\n        /* \"#utility.yul\":3486:3575   */\n      tag_148\n        /* \"#utility.yul\":3570:3573   */\n      0x80\n        /* \"#utility.yul\":3559:3568   */\n      dup4\n        /* \"#utility.yul\":3555:3574   */\n      add\n        /* \"#utility.yul\":3546:3552   */\n      dup6\n        /* \"#utility.yul\":3486:3575   */\n      tag_71\n      jump\t// in\n    tag_148:\n        /* \"#utility.yul\":3585:3652   */\n      tag_149\n        /* \"#utility.yul\":3647:3650   */\n      0xa0\n        /* \"#utility.yul\":3636:3645   */\n      dup4\n        /* \"#utility.yul\":3632:3651   */\n      add\n        /* \"#utility.yul\":3623:3629   */\n      dup5\n        /* \"#utility.yul\":3585:3652   */\n      tag_73\n      jump\t// in\n    tag_149:\n        /* \"#utility.yul\":2773:3659   */\n      swap8\n      swap7\n      pop\n      pop\n      pop\n      pop\n      pop\n      pop\n      pop\n      jump\t// out\n        /* \"#utility.yul\":3665:3887   */\n    tag_22:\n        /* \"#utility.yul\":3758:3762   */\n      0x00\n        /* \"#utility.yul\":3796:3798   */\n      0x20\n        /* \"#utility.yul\":3785:3794   */\n      dup3\n        /* \"#utility.yul\":3781:3799   */\n      add\n        /* \"#utility.yul\":3773:3799   */\n      swap1\n      pop\n        /* \"#utility.yul\":3809:3880   */\n      tag_151\n        /* \"#utility.yul\":3877:3878   */\n      0x00\n        /* \"#utility.yul\":3866:3875   */\n      dup4\n        /* \"#utility.yul\":3862:3879   */\n      add\n        /* \"#utility.yul\":3853:3859   */\n      dup5\n        /* \"#utility.yul\":3809:3880   */\n      tag_63\n      jump\t// in\n    tag_151:\n        /* \"#utility.yul\":3665:3887   */\n      swap3\n      swap2\n      pop\n      pop\n      jump\t// out\n        /* \"#utility.yul\":3893:4010   */\n    tag_74:\n        /* \"#utility.yul\":4002:4003   */\n      0x00\n        /* \"#utility.yul\":3999:4000   */\n      dup1\n        /* \"#utility.yul\":3992:4004   */\n      revert\n        /* \"#utility.yul\":4016:4133   */\n    tag_75:\n        /* \"#utility.yul\":4125:4126   */\n      0x00\n        /* \"#utility.yul\":4122:4123   */\n      dup1\n        /* \"#utility.yul\":4115:4127   */\n      revert\n        /* \"#utility.yul\":4139:4319   */\n    tag_76:\n        /* \"#utility.yul\":4187:4264   */\n      0x4e487b7100000000000000000000000000000000000000000000000000000000\n        /* \"#utility.yul\":4184:4185   */\n      0x00\n        /* \"#utility.yul\":4177:4265   */\n      mstore\n        /* \"#utility.yul\":4284:4288   */\n      0x41\n        /* \"#utility.yul\":4281:4282   */\n      0x04\n        /* \"#utility.yul\":4274:4289   */\n      mstore\n        /* \"#utility.yul\":4308:4312   */\n      0x24\n        /* \"#utility.yul\":4305:4306   */\n      0x00\n        /* \"#utility.yul\":4298:4313   */\n      revert\n        /* \"#utility.yul\":4325:4606   */\n    tag_77:\n        /* \"#utility.yul\":4408:4435   */\n      tag_156\n        /* \"#utility.yul\":4430:4434   */\n      dup3\n        /* \"#utility.yul\":4408:4435   */\n      tag_67\n      jump\t// in\n    tag_156:\n        /* \"#utility.yul\":4400:4406   */\n      dup2\n        /* \"#utility.yul\":4396:4436   */\n      add\n        /* \"#utility.yul\":4538:4544   */\n      dup2\n        /* \"#utility.yul\":4526:4536   */\n      dup2\n        /* \"#utility.yul\":4523:4545   */\n      lt\n        /* \"#utility.yul\":4502:4520   */\n      0xffffffffffffffff\n        /* \"#utility.yul\":4490:4500   */\n      dup3\n        /* \"#utility.yul\":4487:4521   */\n      gt\n        /* \"#utility.yul\":4484:4546   */\n      or\n        /* \"#utility.yul\":4481:4569   */\n      iszero\n      tag_157\n      jumpi\n        /* \"#utility.yul\":4549:4567   */\n      tag_158\n      tag_76\n      jump\t// in\n    tag_158:\n        /* \"#utility.yul\":4481:4569   */\n    tag_157:\n        /* \"#utility.yul\":4589:4599   */\n      dup1\n        /* \"#utility.yul\":4585:4587   */\n      0x40\n        /* \"#utility.yul\":4578:4600   */\n      mstore\n        /* \"#utility.yul\":4368:4606   */\n      pop\n        /* \"#utility.yul\":4325:4606   */\n      pop\n      pop\n      jump\t// out\n        /* \"#utility.yul\":4612:4741   */\n    tag_78:\n        /* \"#utility.yul\":4646:4652   */\n      0x00\n        /* \"#utility.yul\":4673:4693   */\n      tag_160\n      tag_57\n      jump\t// in\n    tag_160:\n        /* \"#utility.yul\":4663:4693   */\n      swap1\n      pop\n        /* \"#utility.yul\":4702:4735   */\n      tag_161\n        /* \"#utility.yul\":4730:4734   */\n      dup3\n        /* \"#utility.yul\":4722:4728   */\n      dup3\n        /* \"#utility.yul\":4702:4735   */\n      tag_77\n      jump\t// in\n    tag_161:\n        /* \"#utility.yul\":4612:4741   */\n      swap2\n      swap1\n      pop\n      jump\t// out\n        /* \"#utility.yul\":4747:5055   */\n    tag_79:\n        /* \"#utility.yul\":4809:4813   */\n      0x00\n        /* \"#utility.yul\":4899:4917   */\n      0xffffffffffffffff\n        /* \"#utility.yul\":4891:4897   */\n      dup3\n        /* \"#utility.yul\":4888:4918   */\n      gt\n        /* \"#utility.yul\":4885:4941   */\n      iszero\n      tag_163\n      jumpi\n        /* \"#utility.yul\":4921:4939   */\n      tag_164\n      tag_76\n      jump\t// in\n    tag_164:\n        /* \"#utility.yul\":4885:4941   */\n    tag_163:\n        /* \"#utility.yul\":4959:4988   */\n      tag_165\n        /* \"#utility.yul\":4981:4987   */\n      dup3\n        /* \"#utility.yul\":4959:4988   */\n      tag_67\n      jump\t// in\n    tag_165:\n        /* \"#utility.yul\":4951:4988   */\n      swap1\n      pop\n        /* \"#utility.yul\":5043:5047   */\n      0x20\n        /* \"#utility.yul\":5037:5041   */\n      dup2\n        /* \"#utility.yul\":5033:5048   */\n      add\n        /* \"#utility.yul\":5025:5048   */\n      swap1\n      pop\n        /* \"#utility.yul\":4747:5055   */\n      swap2\n      swap1\n      pop\n      jump\t// out\n        /* \"#utility.yul\":5061:5207   */\n    tag_80:\n        /* \"#utility.yul\":5158:5164   */\n      dup3\n        /* \"#utility.yul\":5153:5156   */\n      dup2\n        /* \"#utility.yul\":5148:5151   */\n      dup4\n        /* \"#utility.yul\":5135:5165   */\n      calldatacopy\n        /* \"#utility.yul\":5199:5200   */\n      0x00\n        /* \"#utility.yul\":5190:5196   */\n      dup4\n        /* \"#utility.yul\":5185:5188   */\n      dup4\n        /* \"#utility.yul\":5181:5197   */\n      add\n        /* \"#utility.yul\":5174:5201   */\n      mstore\n        /* \"#utility.yul\":5061:5207   */\n      pop\n      pop\n      pop\n      jump\t// out\n        /* \"#utility.yul\":5213:5638   */\n    tag_81:\n        /* \"#utility.yul\":5291:5296   */\n      0x00\n        /* \"#utility.yul\":5316:5382   */\n      tag_168\n        /* \"#utility.yul\":5332:5381   */\n      tag_169\n        /* \"#utility.yul\":5374:5380   */\n      dup5\n        /* \"#utility.yul\":5332:5381   */\n      tag_79\n      jump\t// in\n    tag_169:\n        /* \"#utility.yul\":5316:5382   */\n      tag_78\n      jump\t// in\n    tag_168:\n        /* \"#utility.yul\":5307:5382   */\n      swap1\n      pop\n        /* \"#utility.yul\":5405:5411   */\n      dup3\n        /* \"#utility.yul\":5398:5403   */\n      dup2\n        /* \"#utility.yul\":5391:5412   */\n      mstore\n        /* \"#utility.yul\":5443:5447   */\n      0x20\n        /* \"#utility.yul\":5436:5441   */\n      dup2\n        /* \"#utility.yul\":5432:5448   */\n      add\n        /* \"#utility.yul\":5481:5484   */\n      dup5\n        /* \"#utility.yul\":5472:5478   */\n      dup5\n        /* \"#utility.yul\":5467:5470   */\n      dup5\n        /* \"#utility.yul\":5463:5479   */\n      add\n        /* \"#utility.yul\":5460:5485   */\n      gt\n        /* \"#utility.yul\":5457:5569   */\n      iszero\n      tag_170\n      jumpi\n        /* \"#utility.yul\":5488:5567   */\n      tag_171\n      tag_75\n      jump\t// in\n    tag_171:\n        /* \"#utility.yul\":5457:5569   */\n    tag_170:\n        /* \"#utility.yul\":5578:5632   */\n      tag_172\n        /* \"#utility.yul\":5625:5631   */\n      dup5\n        /* \"#utility.yul\":5620:5623   */\n      dup3\n        /* \"#utility.yul\":5615:5618   */\n      dup6\n        /* \"#utility.yul\":5578:5632   */\n      tag_80\n      jump\t// in\n    tag_172:\n        /* \"#utility.yul\":5297:5638   */\n      pop\n        /* \"#utility.yul\":5213:5638   */\n      swap4\n      swap3\n      pop\n      pop\n      pop\n      jump\t// out\n        /* \"#utility.yul\":5658:5998   */\n    tag_82:\n        /* \"#utility.yul\":5714:5719   */\n      0x00\n        /* \"#utility.yul\":5763:5766   */\n      dup3\n        /* \"#utility.yul\":5756:5760   */\n      0x1f\n        /* \"#utility.yul\":5748:5754   */\n      dup4\n        /* \"#utility.yul\":5744:5761   */\n      add\n        /* \"#utility.yul\":5740:5767   */\n      slt\n        /* \"#utility.yul\":5730:5852   */\n      tag_174\n      jumpi\n        /* \"#utility.yul\":5771:5850   */\n      tag_175\n      tag_74\n      jump\t// in\n    tag_175:\n        /* \"#utility.yul\":5730:5852   */\n    tag_174:\n        /* \"#utility.yul\":5888:5894   */\n      dup2\n        /* \"#utility.yul\":5875:5895   */\n      calldataload\n        /* \"#utility.yul\":5913:5992   */\n      tag_176\n        /* \"#utility.yul\":5988:5991   */\n      dup5\n        /* \"#utility.yul\":5980:5986   */\n      dup3\n        /* \"#utility.yul\":5973:5977   */\n      0x20\n        /* \"#utility.yul\":5965:5971   */\n      dup7\n        /* \"#utility.yul\":5961:5978   */\n      add\n        /* \"#utility.yul\":5913:5992   */\n      tag_81\n      jump\t// in\n    tag_176:\n        /* \"#utility.yul\":5904:5992   */\n      swap2\n      pop\n        /* \"#utility.yul\":5720:5998   */\n      pop\n        /* \"#utility.yul\":5658:5998   */\n      swap3\n      swap2\n      pop\n      pop\n      jump\t// out\n        /* \"#utility.yul\":6004:6658   */\n    tag_29:\n        /* \"#utility.yul\":6082:6088   */\n      0x00\n        /* \"#utility.yul\":6090:6096   */\n      dup1\n        /* \"#utility.yul\":6139:6141   */\n      0x40\n        /* \"#utility.yul\":6127:6136   */\n      dup4\n        /* \"#utility.yul\":6118:6125   */\n      dup6\n        /* \"#utility.yul\":6114:6137   */\n      sub\n        /* \"#utility.yul\":6110:6142   */\n      slt\n        /* \"#utility.yul\":6107:6226   */\n      iszero\n      tag_178\n      jumpi\n        /* \"#utility.yul\":6145:6224   */\n      tag_179\n      tag_58\n      jump\t// in\n    tag_179:\n        /* \"#utility.yul\":6107:6226   */\n    tag_178:\n        /* \"#utility.yul\":6293:6294   */\n      0x00\n        /* \"#utility.yul\":6282:6291   */\n      dup4\n        /* \"#utility.yul\":6278:6295   */\n      add\n        /* \"#utility.yul\":6265:6296   */\n      calldataload\n        /* \"#utility.yul\":6323:6341   */\n      0xffffffffffffffff\n        /* \"#utility.yul\":6315:6321   */\n      dup2\n        /* \"#utility.yul\":6312:6342   */\n      gt\n        /* \"#utility.yul\":6309:6426   */\n      iszero\n      tag_180\n      jumpi\n        /* \"#utility.yul\":6345:6424   */\n      tag_181\n      tag_59\n      jump\t// in\n    tag_181:\n        /* \"#utility.yul\":6309:6426   */\n    tag_180:\n        /* \"#utility.yul\":6450:6513   */\n      tag_182\n        /* \"#utility.yul\":6505:6512   */\n      dup6\n        /* \"#utility.yul\":6496:6502   */\n      dup3\n        /* \"#utility.yul\":6485:6494   */\n      dup7\n        /* \"#utility.yul\":6481:6503   */\n      add\n        /* \"#utility.yul\":6450:6513   */\n      tag_82\n      jump\t// in\n    tag_182:\n        /* \"#utility.yul\":6440:6513   */\n      swap3\n      pop\n        /* \"#utility.yul\":6236:6523   */\n      pop\n        /* \"#utility.yul\":6562:6564   */\n      0x20\n        /* \"#utility.yul\":6588:6641   */\n      tag_183\n        /* \"#utility.yul\":6633:6640   */\n      dup6\n        /* \"#utility.yul\":6624:6630   */\n      dup3\n        /* \"#utility.yul\":6613:6622   */\n      dup7\n        /* \"#utility.yul\":6609:6631   */\n      add\n        /* \"#utility.yul\":6588:6641   */\n      tag_62\n      jump\t// in\n    tag_183:\n        /* \"#utility.yul\":6578:6641   */\n      swap2\n      pop\n        /* \"#utility.yul\":6533:6651   */\n      pop\n        /* \"#utility.yul\":6004:6658   */\n      swap3\n      pop\n      swap3\n      swap1\n      pop\n      jump\t// out\n        /* \"#utility.yul\":6664:6844   */\n    tag_83:\n        /* \"#utility.yul\":6712:6789   */\n      0x4e487b7100000000000000000000000000000000000000000000000000000000\n        /* \"#utility.yul\":6709:6710   */\n      0x00\n        /* \"#utility.yul\":6702:6790   */\n      mstore\n        /* \"#utility.yul\":6809:6813   */\n      0x22\n        /* \"#utility.yul\":6806:6807   */\n      0x04\n        /* \"#utility.yul\":6799:6814   */\n      mstore\n        /* \"#utility.yul\":6833:6837   */\n      0x24\n        /* \"#utility.yul\":6830:6831   */\n      0x00\n        /* \"#utility.yul\":6823:6838   */\n      revert\n        /* \"#utility.yul\":6850:7170   */\n    tag_32:\n        /* \"#utility.yul\":6894:6900   */\n      0x00\n        /* \"#utility.yul\":6931:6932   */\n      0x02\n        /* \"#utility.yul\":6925:6929   */\n      dup3\n        /* \"#utility.yul\":6921:6933   */\n      div\n        /* \"#utility.yul\":6911:6933   */\n      swap1\n      pop\n        /* \"#utility.yul\":6978:6979   */\n      0x01\n        /* \"#utility.yul\":6972:6976   */\n      dup3\n        /* \"#utility.yul\":6968:6980   */\n      and\n        /* \"#utility.yul\":6999:7017   */\n      dup1\n        /* \"#utility.yul\":6989:7070   */\n      tag_186\n      jumpi\n        /* \"#utility.yul\":7055:7059   */\n      0x7f\n        /* \"#utility.yul\":7047:7053   */\n      dup3\n        /* \"#utility.yul\":7043:7060   */\n      and\n        /* \"#utility.yul\":7033:7060   */\n      swap2\n      pop\n        /* \"#utility.yul\":6989:7070   */\n    tag_186:\n        /* \"#utility.yul\":7117:7119   */\n      0x20\n        /* \"#utility.yul\":7109:7115   */\n      dup3\n        /* \"#utility.yul\":7106:7120   */\n      lt\n        /* \"#utility.yul\":7086:7104   */\n      dup2\n        /* \"#utility.yul\":7083:7121   */\n      sub\n        /* \"#utility.yul\":7080:7164   */\n      tag_187\n      jumpi\n        /* \"#utility.yul\":7136:7154   */\n      tag_188\n      tag_83\n      jump\t// in\n    tag_188:\n        /* \"#utility.yul\":7080:7164   */\n    tag_187:\n        /* \"#utility.yul\":6901:7170   */\n      pop\n        /* \"#utility.yul\":6850:7170   */\n      swap2\n      swap1\n      pop\n      jump\t// out\n        /* \"#utility.yul\":7176:7346   */\n    tag_84:\n        /* \"#utility.yul\":7316:7338   */\n      0x50726f6a656374204944206e6f742056616c6964000000000000000000000000\n        /* \"#utility.yul\":7312:7313   */\n      0x00\n        /* \"#utility.yul\":7304:7310   */\n      dup3\n        /* \"#utility.yul\":7300:7314   */\n      add\n        /* \"#utility.yul\":7293:7339   */\n      mstore\n        /* \"#utility.yul\":7176:7346   */\n      pop\n      jump\t// out\n        /* \"#utility.yul\":7352:7718   */\n    tag_85:\n        /* \"#utility.yul\":7494:7497   */\n      0x00\n        /* \"#utility.yul\":7515:7582   */\n      tag_191\n        /* \"#utility.yul\":7579:7581   */\n      0x14\n        /* \"#utility.yul\":7574:7577   */\n      dup4\n        /* \"#utility.yul\":7515:7582   */\n      tag_65\n      jump\t// in\n    tag_191:\n        /* \"#utility.yul\":7508:7582   */\n      swap2\n      pop\n        /* \"#utility.yul\":7591:7684   */\n      tag_192\n        /* \"#utility.yul\":7680:7683   */\n      dup3\n        /* \"#utility.yul\":7591:7684   */\n      tag_84\n      jump\t// in\n    tag_192:\n        /* \"#utility.yul\":7709:7711   */\n      0x20\n        /* \"#utility.yul\":7704:7707   */\n      dup3\n        /* \"#utility.yul\":7700:7712   */\n      add\n        /* \"#utility.yul\":7693:7712   */\n      swap1\n      pop\n        /* \"#utility.yul\":7352:7718   */\n      swap2\n      swap1\n      pop\n      jump\t// out\n        /* \"#utility.yul\":7724:8143   */\n    tag_41:\n        /* \"#utility.yul\":7890:7894   */\n      0x00\n        /* \"#utility.yul\":7928:7930   */\n      0x20\n        /* \"#utility.yul\":7917:7926   */\n      dup3\n        /* \"#utility.yul\":7913:7931   */\n      add\n        /* \"#utility.yul\":7905:7931   */\n      swap1\n      pop\n        /* \"#utility.yul\":7977:7986   */\n      dup2\n        /* \"#utility.yul\":7971:7975   */\n      dup2\n        /* \"#utility.yul\":7967:7987   */\n      sub\n        /* \"#utility.yul\":7963:7964   */\n      0x00\n        /* \"#utility.yul\":7952:7961   */\n      dup4\n        /* \"#utility.yul\":7948:7965   */\n      add\n        /* \"#utility.yul\":7941:7988   */\n      mstore\n        /* \"#utility.yul\":8005:8136   */\n      tag_194\n        /* \"#utility.yul\":8131:8135   */\n      dup2\n        /* \"#utility.yul\":8005:8136   */\n      tag_85\n      jump\t// in\n    tag_194:\n        /* \"#utility.yul\":7997:8136   */\n      swap1\n      pop\n        /* \"#utility.yul\":7724:8143   */\n      swap2\n      swap1\n      pop\n      jump\t// out\n        /* \"#utility.yul\":8149:8324   */\n    tag_86:\n        /* \"#utility.yul\":8289:8316   */\n      0x50726f6a65637420697320616c72656164792046756e64656400000000000000\n        /* \"#utility.yul\":8285:8286   */\n      0x00\n        /* \"#utility.yul\":8277:8283   */\n      dup3\n        /* \"#utility.yul\":8273:8287   */\n      add\n        /* \"#utility.yul\":8266:8317   */\n      mstore\n        /* \"#utility.yul\":8149:8324   */\n      pop\n      jump\t// out\n        /* \"#utility.yul\":8330:8696   */\n    tag_87:\n        /* \"#utility.yul\":8472:8475   */\n      0x00\n        /* \"#utility.yul\":8493:8560   */\n      tag_197\n        /* \"#utility.yul\":8557:8559   */\n      0x19\n        /* \"#utility.yul\":8552:8555   */\n      dup4\n        /* \"#utility.yul\":8493:8560   */\n      tag_65\n      jump\t// in\n    tag_197:\n        /* \"#utility.yul\":8486:8560   */\n      swap2\n      pop\n        /* \"#utility.yul\":8569:8662   */\n      tag_198\n        /* \"#utility.yul\":8658:8661   */\n      dup3\n        /* \"#utility.yul\":8569:8662   */\n      tag_86\n      jump\t// in\n    tag_198:\n        /* \"#utility.yul\":8687:8689   */\n      0x20\n        /* \"#utility.yul\":8682:8685   */\n      dup3\n        /* \"#utility.yul\":8678:8690   */\n      add\n        /* \"#utility.yul\":8671:8690   */\n      swap1\n      pop\n        /* \"#utility.yul\":8330:8696   */\n      swap2\n      swap1\n      pop\n      jump\t// out\n        /* \"#utility.yul\":8702:9121   */\n    tag_44:\n        /* \"#utility.yul\":8868:8872   */\n      0x00\n        /* \"#utility.yul\":8906:8908   */\n      0x20\n        /* \"#utility.yul\":8895:8904   */\n      dup3\n        /* \"#utility.yul\":8891:8909   */\n      add\n        /* \"#utility.yul\":8883:8909   */\n      swap1\n      pop\n        /* \"#utility.yul\":8955:8964   */\n      dup2\n        /* \"#utility.yul\":8949:8953   */\n      dup2\n        /* \"#utility.yul\":8945:8965   */\n      sub\n        /* \"#utility.yul\":8941:8942   */\n      0x00\n        /* \"#utility.yul\":8930:8939   */\n      dup4\n        /* \"#utility.yul\":8926:8943   */\n      add\n        /* \"#utility.yul\":8919:8966   */\n      mstore\n        /* \"#utility.yul\":8983:9114   */\n      tag_200\n        /* \"#utility.yul\":9109:9113   */\n      dup2\n        /* \"#utility.yul\":8983:9114   */\n      tag_87\n      jump\t// in\n    tag_200:\n        /* \"#utility.yul\":8975:9114   */\n      swap1\n      pop\n        /* \"#utility.yul\":8702:9121   */\n      swap2\n      swap1\n      pop\n      jump\t// out\n        /* \"#utility.yul\":9127:9307   */\n    tag_88:\n        /* \"#utility.yul\":9175:9252   */\n      0x4e487b7100000000000000000000000000000000000000000000000000000000\n        /* \"#utility.yul\":9172:9173   */\n      0x00\n        /* \"#utility.yul\":9165:9253   */\n      mstore\n        /* \"#utility.yul\":9272:9276   */\n      0x11\n        /* \"#utility.yul\":9269:9270   */\n      0x04\n        /* \"#utility.yul\":9262:9277   */\n      mstore\n        /* \"#utility.yul\":9296:9300   */\n      0x24\n        /* \"#utility.yul\":9293:9294   */\n      0x00\n        /* \"#utility.yul\":9286:9301   */\n      revert\n        /* \"#utility.yul\":9313:9504   */\n    tag_46:\n        /* \"#utility.yul\":9353:9356   */\n      0x00\n        /* \"#utility.yul\":9372:9392   */\n      tag_203\n        /* \"#utility.yul\":9390:9391   */\n      dup3\n        /* \"#utility.yul\":9372:9392   */\n      tag_60\n      jump\t// in\n    tag_203:\n        /* \"#utility.yul\":9367:9392   */\n      swap2\n      pop\n        /* \"#utility.yul\":9406:9426   */\n      tag_204\n        /* \"#utility.yul\":9424:9425   */\n      dup4\n        /* \"#utility.yul\":9406:9426   */\n      tag_60\n      jump\t// in\n    tag_204:\n        /* \"#utility.yul\":9401:9426   */\n      swap3\n      pop\n        /* \"#utility.yul\":9449:9450   */\n      dup3\n        /* \"#utility.yul\":9446:9447   */\n      dup3\n        /* \"#utility.yul\":9442:9451   */\n      add\n        /* \"#utility.yul\":9435:9451   */\n      swap1\n      pop\n        /* \"#utility.yul\":9470:9473   */\n      dup1\n        /* \"#utility.yul\":9467:9468   */\n      dup3\n        /* \"#utility.yul\":9464:9474   */\n      gt\n        /* \"#utility.yul\":9461:9497   */\n      iszero\n      tag_205\n      jumpi\n        /* \"#utility.yul\":9477:9495   */\n      tag_206\n      tag_88\n      jump\t// in\n    tag_206:\n        /* \"#utility.yul\":9461:9497   */\n    tag_205:\n        /* \"#utility.yul\":9313:9504   */\n      swap3\n      swap2\n      pop\n      pop\n      jump\t// out\n        /* \"#utility.yul\":9510:9651   */\n    tag_89:\n        /* \"#utility.yul\":9559:9563   */\n      0x00\n        /* \"#utility.yul\":9582:9585   */\n      dup2\n        /* \"#utility.yul\":9574:9585   */\n      swap1\n      pop\n        /* \"#utility.yul\":9605:9608   */\n      dup2\n        /* \"#utility.yul\":9602:9603   */\n      0x00\n        /* \"#utility.yul\":9595:9609   */\n      mstore\n        /* \"#utility.yul\":9639:9643   */\n      0x20\n        /* \"#utility.yul\":9636:9637   */\n      0x00\n        /* \"#utility.yul\":9626:9644   */\n      keccak256\n        /* \"#utility.yul\":9618:9644   */\n      swap1\n      pop\n        /* \"#utility.yul\":9510:9651   */\n      swap2\n      swap1\n      pop\n      jump\t// out\n        /* \"#utility.yul\":9681:10512   */\n    tag_90:\n        /* \"#utility.yul\":9766:9769   */\n      0x00\n        /* \"#utility.yul\":9803:9808   */\n      dup2\n        /* \"#utility.yul\":9797:9809   */\n      sload\n        /* \"#utility.yul\":9832:9868   */\n      tag_209\n        /* \"#utility.yul\":9858:9867   */\n      dup2\n        /* \"#utility.yul\":9832:9868   */\n      tag_32\n      jump\t// in\n    tag_209:\n        /* \"#utility.yul\":9884:9955   */\n      tag_210\n        /* \"#utility.yul\":9948:9954   */\n      dup2\n        /* \"#utility.yul\":9943:9946   */\n      dup7\n        /* \"#utility.yul\":9884:9955   */\n      tag_65\n      jump\t// in\n    tag_210:\n        /* \"#utility.yul\":9877:9955   */\n      swap5\n      pop\n        /* \"#utility.yul\":9986:9987   */\n      0x01\n        /* \"#utility.yul\":9975:9984   */\n      dup3\n        /* \"#utility.yul\":9971:9988   */\n      and\n        /* \"#utility.yul\":10002:10003   */\n      0x00\n        /* \"#utility.yul\":9997:10161   */\n      dup2\n      eq\n      tag_212\n      jumpi\n        /* \"#utility.yul\":10175:10176   */\n      0x01\n        /* \"#utility.yul\":10170:10506   */\n      dup2\n      eq\n      tag_213\n      jumpi\n        /* \"#utility.yul\":9964:10506   */\n      jump(tag_211)\n        /* \"#utility.yul\":9997:10161   */\n    tag_212:\n        /* \"#utility.yul\":10081:10085   */\n      0xff\n        /* \"#utility.yul\":10077:10086   */\n      not\n        /* \"#utility.yul\":10066:10075   */\n      dup4\n        /* \"#utility.yul\":10062:10087   */\n      and\n        /* \"#utility.yul\":10057:10060   */\n      dup7\n        /* \"#utility.yul\":10050:10088   */\n      mstore\n        /* \"#utility.yul\":10141:10147   */\n      dup2\n        /* \"#utility.yul\":10134:10148   */\n      iszero\n        /* \"#utility.yul\":10127:10149   */\n      iszero\n        /* \"#utility.yul\":10121:10125   */\n      0x20\n        /* \"#utility.yul\":10117:10150   */\n      mul\n        /* \"#utility.yul\":10112:10115   */\n      dup7\n        /* \"#utility.yul\":10108:10151   */\n      add\n        /* \"#utility.yul\":10101:10151   */\n      swap4\n      pop\n        /* \"#utility.yul\":9997:10161   */\n      jump(tag_211)\n        /* \"#utility.yul\":10170:10506   */\n    tag_213:\n        /* \"#utility.yul\":10237:10275   */\n      tag_214\n        /* \"#utility.yul\":10269:10274   */\n      dup6\n        /* \"#utility.yul\":10237:10275   */\n      tag_89\n      jump\t// in\n    tag_214:\n        /* \"#utility.yul\":10297:10298   */\n      0x00\n        /* \"#utility.yul\":10311:10465   */\n    tag_215:\n        /* \"#utility.yul\":10325:10331   */\n      dup4\n        /* \"#utility.yul\":10322:10323   */\n      dup2\n        /* \"#utility.yul\":10319:10332   */\n      lt\n        /* \"#utility.yul\":10311:10465   */\n      iszero\n      tag_217\n      jumpi\n        /* \"#utility.yul\":10399:10406   */\n      dup2\n        /* \"#utility.yul\":10393:10407   */\n      sload\n        /* \"#utility.yul\":10389:10390   */\n      dup2\n        /* \"#utility.yul\":10384:10387   */\n      dup10\n        /* \"#utility.yul\":10380:10391   */\n      add\n        /* \"#utility.yul\":10373:10408   */\n      mstore\n        /* \"#utility.yul\":10449:10450   */\n      0x01\n        /* \"#utility.yul\":10440:10447   */\n      dup3\n        /* \"#utility.yul\":10436:10451   */\n      add\n        /* \"#utility.yul\":10425:10451   */\n      swap2\n      pop\n        /* \"#utility.yul\":10347:10351   */\n      0x20\n        /* \"#utility.yul\":10344:10345   */\n      dup2\n        /* \"#utility.yul\":10340:10352   */\n      add\n        /* \"#utility.yul\":10335:10352   */\n      swap1\n      pop\n        /* \"#utility.yul\":10311:10465   */\n      jump(tag_215)\n    tag_217:\n        /* \"#utility.yul\":10494:10495   */\n      dup1\n        /* \"#utility.yul\":10489:10492   */\n      dup9\n        /* \"#utility.yul\":10485:10496   */\n      add\n        /* \"#utility.yul\":10478:10496   */\n      swap6\n      pop\n        /* \"#utility.yul\":10177:10506   */\n      pop\n      pop\n        /* \"#utility.yul\":9964:10506   */\n    tag_211:\n      pop\n        /* \"#utility.yul\":9770:10512   */\n      pop\n      pop\n        /* \"#utility.yul\":9681:10512   */\n      swap3\n      swap2\n      pop\n      pop\n      jump\t// out\n        /* \"#utility.yul\":10518:10614   */\n    tag_91:\n        /* \"#utility.yul\":10555:10562   */\n      0x00\n        /* \"#utility.yul\":10584:10608   */\n      tag_219\n        /* \"#utility.yul\":10602:10607   */\n      dup3\n        /* \"#utility.yul\":10584:10608   */\n      tag_69\n      jump\t// in\n    tag_219:\n        /* \"#utility.yul\":10573:10608   */\n      swap1\n      pop\n        /* \"#utility.yul\":10518:10614   */\n      swap2\n      swap1\n      pop\n      jump\t// out\n        /* \"#utility.yul\":10620:10738   */\n    tag_92:\n        /* \"#utility.yul\":10707:10731   */\n      tag_221\n        /* \"#utility.yul\":10725:10730   */\n      dup2\n        /* \"#utility.yul\":10707:10731   */\n      tag_91\n      jump\t// in\n    tag_221:\n        /* \"#utility.yul\":10702:10705   */\n      dup3\n        /* \"#utility.yul\":10695:10732   */\n      mstore\n        /* \"#utility.yul\":10620:10738   */\n      pop\n      pop\n      jump\t// out\n        /* \"#utility.yul\":10744:11382   */\n    tag_49:\n        /* \"#utility.yul\":10938:10942   */\n      0x00\n        /* \"#utility.yul\":10976:10979   */\n      0x80\n        /* \"#utility.yul\":10965:10974   */\n      dup3\n        /* \"#utility.yul\":10961:10980   */\n      add\n        /* \"#utility.yul\":10953:10980   */\n      swap1\n      pop\n        /* \"#utility.yul\":10990:11061   */\n      tag_223\n        /* \"#utility.yul\":11058:11059   */\n      0x00\n        /* \"#utility.yul\":11047:11056   */\n      dup4\n        /* \"#utility.yul\":11043:11060   */\n      add\n        /* \"#utility.yul\":11034:11040   */\n      dup8\n        /* \"#utility.yul\":10990:11061   */\n      tag_63\n      jump\t// in\n    tag_223:\n        /* \"#utility.yul\":11108:11117   */\n      dup2\n        /* \"#utility.yul\":11102:11106   */\n      dup2\n        /* \"#utility.yul\":11098:11118   */\n      sub\n        /* \"#utility.yul\":11093:11095   */\n      0x20\n        /* \"#utility.yul\":11082:11091   */\n      dup4\n        /* \"#utility.yul\":11078:11096   */\n      add\n        /* \"#utility.yul\":11071:11119   */\n      mstore\n        /* \"#utility.yul\":11136:11211   */\n      tag_224\n        /* \"#utility.yul\":11206:11210   */\n      dup2\n        /* \"#utility.yul\":11197:11203   */\n      dup7\n        /* \"#utility.yul\":11136:11211   */\n      tag_90\n      jump\t// in\n    tag_224:\n        /* \"#utility.yul\":11128:11211   */\n      swap1\n      pop\n        /* \"#utility.yul\":11221:11293   */\n      tag_225\n        /* \"#utility.yul\":11289:11291   */\n      0x40\n        /* \"#utility.yul\":11278:11287   */\n      dup4\n        /* \"#utility.yul\":11274:11292   */\n      add\n        /* \"#utility.yul\":11265:11271   */\n      dup6\n        /* \"#utility.yul\":11221:11293   */\n      tag_63\n      jump\t// in\n    tag_225:\n        /* \"#utility.yul\":11303:11375   */\n      tag_226\n        /* \"#utility.yul\":11371:11373   */\n      0x60\n        /* \"#utility.yul\":11360:11369   */\n      dup4\n        /* \"#utility.yul\":11356:11374   */\n      add\n        /* \"#utility.yul\":11347:11353   */\n      dup5\n        /* \"#utility.yul\":11303:11375   */\n      tag_92\n      jump\t// in\n    tag_226:\n        /* \"#utility.yul\":10744:11382   */\n      swap6\n      swap5\n      pop\n      pop\n      pop\n      pop\n      pop\n      jump\t// out\n        /* \"#utility.yul\":11388:11621   */\n    tag_52:\n        /* \"#utility.yul\":11427:11430   */\n      0x00\n        /* \"#utility.yul\":11450:11474   */\n      tag_228\n        /* \"#utility.yul\":11468:11473   */\n      dup3\n        /* \"#utility.yul\":11450:11474   */\n      tag_60\n      jump\t// in\n    tag_228:\n        /* \"#utility.yul\":11441:11474   */\n      swap2\n      pop\n        /* \"#utility.yul\":11496:11562   */\n      0xffffffffffffffffffffffffffffffffffffffffffffffffffffffffffffffff\n        /* \"#utility.yul\":11489:11494   */\n      dup3\n        /* \"#utility.yul\":11486:11563   */\n      sub\n        /* \"#utility.yul\":11483:11586   */\n      tag_229\n      jumpi\n        /* \"#utility.yul\":11566:11584   */\n      tag_230\n      tag_88\n      jump\t// in\n    tag_230:\n        /* \"#utility.yul\":11483:11586   */\n    tag_229:\n        /* \"#utility.yul\":11613:11614   */\n      0x01\n        /* \"#utility.yul\":11606:11611   */\n      dup3\n        /* \"#utility.yul\":11602:11615   */\n      add\n        /* \"#utility.yul\":11595:11615   */\n      swap1\n      pop\n        /* \"#utility.yul\":11388:11621   */\n      swap2\n      swap1\n      pop\n      jump\t// out\n        /* \"#utility.yul\":11627:11720   */\n    tag_93:\n        /* \"#utility.yul\":11664:11670   */\n      0x00\n        /* \"#utility.yul\":11711:11713   */\n      0x20\n        /* \"#utility.yul\":11706:11708   */\n      0x1f\n        /* \"#utility.yul\":11699:11704   */\n      dup4\n        /* \"#utility.yul\":11695:11709   */\n      add\n        /* \"#utility.yul\":11691:11714   */\n      div\n        /* \"#utility.yul\":11681:11714   */\n      swap1\n      pop\n        /* \"#utility.yul\":11627:11720   */\n      swap2\n      swap1\n      pop\n      jump\t// out\n        /* \"#utility.yul\":11726:11833   */\n    tag_94:\n        /* \"#utility.yul\":11770:11778   */\n      0x00\n        /* \"#utility.yul\":11820:11825   */\n      dup3\n        /* \"#utility.yul\":11814:11818   */\n      dup3\n        /* \"#utility.yul\":11810:11826   */\n      shl\n        /* \"#utility.yul\":11789:11826   */\n      swap1\n      pop\n        /* \"#utility.yul\":11726:11833   */\n      swap3\n      swap2\n      pop\n      pop\n      jump\t// out\n        /* \"#utility.yul\":11839:12232   */\n    tag_95:\n        /* \"#utility.yul\":11908:11914   */\n      0x00\n        /* \"#utility.yul\":11958:11959   */\n      0x08\n        /* \"#utility.yul\":11946:11956   */\n      dup4\n        /* \"#utility.yul\":11942:11960   */\n      mul\n        /* \"#utility.yul\":11981:12078   */\n      tag_234\n        /* \"#utility.yul\":12011:12077   */\n      0xffffffffffffffffffffffffffffffffffffffffffffffffffffffffffffffff\n        /* \"#utility.yul\":12000:12009   */\n      dup3\n        /* \"#utility.yul\":11981:12078   */\n      tag_94\n      jump\t// in\n    tag_234:\n        /* \"#utility.yul\":12099:12138   */\n      tag_235\n        /* \"#utility.yul\":12129:12137   */\n      dup7\n        /* \"#utility.yul\":12118:12127   */\n      dup4\n        /* \"#utility.yul\":12099:12138   */\n      tag_94\n      jump\t// in\n    tag_235:\n        /* \"#utility.yul\":12087:12138   */\n      swap6\n      pop\n        /* \"#utility.yul\":12171:12175   */\n      dup1\n        /* \"#utility.yul\":12167:12176   */\n      not\n        /* \"#utility.yul\":12160:12165   */\n      dup5\n        /* \"#utility.yul\":12156:12177   */\n      and\n        /* \"#utility.yul\":12147:12177   */\n      swap4\n      pop\n        /* \"#utility.yul\":12220:12224   */\n      dup1\n        /* \"#utility.yul\":12210:12218   */\n      dup7\n        /* \"#utility.yul\":12206:12225   */\n      and\n        /* \"#utility.yul\":12199:12204   */\n      dup5\n        /* \"#utility.yul\":12196:12226   */\n      or\n        /* \"#utility.yul\":12186:12226   */\n      swap3\n      pop\n        /* \"#utility.yul\":11915:12232   */\n      pop\n      pop\n        /* \"#utility.yul\":11839:12232   */\n      swap4\n      swap3\n      pop\n      pop\n      pop\n      jump\t// out\n        /* \"#utility.yul\":12238:12298   */\n    tag_96:\n        /* \"#utility.yul\":12266:12269   */\n      0x00\n        /* \"#utility.yul\":12287:12292   */\n      dup2\n        /* \"#utility.yul\":12280:12292   */\n      swap1\n      pop\n        /* \"#utility.yul\":12238:12298   */\n      swap2\n      swap1\n      pop\n      jump\t// out\n        /* \"#utility.yul\":12304:12446   */\n    tag_97:\n        /* \"#utility.yul\":12354:12363   */\n      0x00\n        /* \"#utility.yul\":12387:12440   */\n      tag_238\n        /* \"#utility.yul\":12405:12439   */\n      tag_239\n        /* \"#utility.yul\":12414:12438   */\n      tag_240\n        /* \"#utility.yul\":12432:12437   */\n      dup5\n        /* \"#utility.yul\":12414:12438   */\n      tag_60\n      jump\t// in\n    tag_240:\n        /* \"#utility.yul\":12405:12439   */\n      tag_96\n      jump\t// in\n    tag_239:\n        /* \"#utility.yul\":12387:12440   */\n      tag_60\n      jump\t// in\n    tag_238:\n        /* \"#utility.yul\":12374:12440   */\n      swap1\n      pop\n        /* \"#utility.yul\":12304:12446   */\n      swap2\n      swap1\n      pop\n      jump\t// out\n        /* \"#utility.yul\":12452:12527   */\n    tag_98:\n        /* \"#utility.yul\":12495:12498   */\n      0x00\n        /* \"#utility.yul\":12516:12521   */\n      dup2\n        /* \"#utility.yul\":12509:12521   */\n      swap1\n      pop\n        /* \"#utility.yul\":12452:12527   */\n      swap2\n      swap1\n      pop\n      jump\t// out\n        /* \"#utility.yul\":12533:12802   */\n    tag_99:\n        /* \"#utility.yul\":12643:12682   */\n      tag_243\n        /* \"#utility.yul\":12674:12681   */\n      dup4\n        /* \"#utility.yul\":12643:12682   */\n      tag_97\n      jump\t// in\n    tag_243:\n        /* \"#utility.yul\":12704:12795   */\n      tag_244\n        /* \"#utility.yul\":12753:12794   */\n      tag_245\n        /* \"#utility.yul\":12777:12793   */\n      dup3\n        /* \"#utility.yul\":12753:12794   */\n      tag_98\n      jump\t// in\n    tag_245:\n        /* \"#utility.yul\":12745:12751   */\n      dup5\n        /* \"#utility.yul\":12738:12742   */\n      dup5\n        /* \"#utility.yul\":12732:12743   */\n      sload\n        /* \"#utility.yul\":12704:12795   */\n      tag_95\n      jump\t// in\n    tag_244:\n        /* \"#utility.yul\":12698:12702   */\n      dup3\n        /* \"#utility.yul\":12691:12796   */\n      sstore\n        /* \"#utility.yul\":12609:12802   */\n      pop\n        /* \"#utility.yul\":12533:12802   */\n      pop\n      pop\n      pop\n      jump\t// out\n        /* \"#utility.yul\":12808:12881   */\n    tag_100:\n        /* \"#utility.yul\":12853:12856   */\n      0x00\n        /* \"#utility.yul\":12808:12881   */\n      swap1\n      jump\t// out\n        /* \"#utility.yul\":12887:13076   */\n    tag_101:\n        /* \"#utility.yul\":12964:12996   */\n      tag_248\n      tag_100\n      jump\t// in\n    tag_248:\n        /* \"#utility.yul\":13005:13070   */\n      tag_249\n        /* \"#utility.yul\":13063:13069   */\n      dup2\n        /* \"#utility.yul\":13055:13061   */\n      dup5\n        /* \"#utility.yul\":13049:13053   */\n      dup5\n        /* \"#utility.yul\":13005:13070   */\n      tag_99\n      jump\t// in\n    tag_249:\n        /* \"#utility.yul\":12940:13076   */\n      pop\n        /* \"#utility.yul\":12887:13076   */\n      pop\n      pop\n      jump\t// out\n        /* \"#utility.yul\":13082:13268   */\n    tag_102:\n        /* \"#utility.yul\":13142:13262   */\n    tag_251:\n        /* \"#utility.yul\":13159:13162   */\n      dup2\n        /* \"#utility.yul\":13152:13157   */\n      dup2\n        /* \"#utility.yul\":13149:13163   */\n      lt\n        /* \"#utility.yul\":13142:13262   */\n      iszero\n      tag_253\n      jumpi\n        /* \"#utility.yul\":13213:13252   */\n      tag_254\n        /* \"#utility.yul\":13250:13251   */\n      0x00\n        /* \"#utility.yul\":13243:13248   */\n      dup3\n        /* \"#utility.yul\":13213:13252   */\n      tag_101\n      jump\t// in\n    tag_254:\n        /* \"#utility.yul\":13186:13187   */\n      0x01\n        /* \"#utility.yul\":13179:13184   */\n      dup2\n        /* \"#utility.yul\":13175:13188   */\n      add\n        /* \"#utility.yul\":13166:13188   */\n      swap1\n      pop\n        /* \"#utility.yul\":13142:13262   */\n      jump(tag_251)\n    tag_253:\n        /* \"#utility.yul\":13082:13268   */\n      pop\n      pop\n      jump\t// out\n        /* \"#utility.yul\":13274:13817   */\n    tag_103:\n        /* \"#utility.yul\":13375:13377   */\n      0x1f\n        /* \"#utility.yul\":13370:13373   */\n      dup3\n        /* \"#utility.yul\":13367:13378   */\n      gt\n        /* \"#utility.yul\":13364:13810   */\n      iszero\n      tag_256\n      jumpi\n        /* \"#utility.yul\":13409:13447   */\n      tag_257\n        /* \"#utility.yul\":13441:13446   */\n      dup2\n        /* \"#utility.yul\":13409:13447   */\n      tag_89\n      jump\t// in\n    tag_257:\n        /* \"#utility.yul\":13493:13522   */\n      tag_258\n        /* \"#utility.yul\":13511:13521   */\n      dup5\n        /* \"#utility.yul\":13493:13522   */\n      tag_93\n      jump\t// in\n    tag_258:\n        /* \"#utility.yul\":13483:13491   */\n      dup2\n        /* \"#utility.yul\":13479:13523   */\n      add\n        /* \"#utility.yul\":13676:13678   */\n      0x20\n        /* \"#utility.yul\":13664:13674   */\n      dup6\n        /* \"#utility.yul\":13661:13679   */\n      lt\n        /* \"#utility.yul\":13658:13707   */\n      iszero\n      tag_259\n      jumpi\n        /* \"#utility.yul\":13697:13705   */\n      dup2\n        /* \"#utility.yul\":13682:13705   */\n      swap1\n      pop\n        /* \"#utility.yul\":13658:13707   */\n    tag_259:\n        /* \"#utility.yul\":13720:13800   */\n      tag_260\n        /* \"#utility.yul\":13776:13798   */\n      tag_261\n        /* \"#utility.yul\":13794:13797   */\n      dup6\n        /* \"#utility.yul\":13776:13798   */\n      tag_93\n      jump\t// in\n    tag_261:\n        /* \"#utility.yul\":13766:13774   */\n      dup4\n        /* \"#utility.yul\":13762:13799   */\n      add\n        /* \"#utility.yul\":13749:13760   */\n      dup3\n        /* \"#utility.yul\":13720:13800   */\n      tag_102\n      jump\t// in\n    tag_260:\n        /* \"#utility.yul\":13379:13810   */\n      pop\n      pop\n        /* \"#utility.yul\":13364:13810   */\n    tag_256:\n        /* \"#utility.yul\":13274:13817   */\n      pop\n      pop\n      pop\n      jump\t// out\n        /* \"#utility.yul\":13823:13940   */\n    tag_104:\n        /* \"#utility.yul\":13877:13885   */\n      0x00\n        /* \"#utility.yul\":13927:13932   */\n      dup3\n        /* \"#utility.yul\":13921:13925   */\n      dup3\n        /* \"#utility.yul\":13917:13933   */\n      shr\n        /* \"#utility.yul\":13896:13933   */\n      swap1\n      pop\n        /* \"#utility.yul\":13823:13940   */\n      swap3\n      swap2\n      pop\n      pop\n      jump\t// out\n        /* \"#utility.yul\":13946:14115   */\n    tag_105:\n        /* \"#utility.yul\":13990:13996   */\n      0x00\n        /* \"#utility.yul\":14023:14074   */\n      tag_264\n        /* \"#utility.yul\":14071:14072   */\n      0x00\n        /* \"#utility.yul\":14067:14073   */\n      not\n        /* \"#utility.yul\":14059:14064   */\n      dup5\n        /* \"#utility.yul\":14056:14057   */\n      0x08\n        /* \"#utility.yul\":14052:14065   */\n      mul\n        /* \"#utility.yul\":14023:14074   */\n      tag_104\n      jump\t// in\n    tag_264:\n        /* \"#utility.yul\":14019:14075   */\n      not\n        /* \"#utility.yul\":14104:14108   */\n      dup1\n        /* \"#utility.yul\":14098:14102   */\n      dup4\n        /* \"#utility.yul\":14094:14109   */\n      and\n        /* \"#utility.yul\":14084:14109   */\n      swap2\n      pop\n        /* \"#utility.yul\":13997:14115   */\n      pop\n        /* \"#utility.yul\":13946:14115   */\n      swap3\n      swap2\n      pop\n      pop\n      jump\t// out\n        /* \"#utility.yul\":14120:14415   */\n    tag_106:\n        /* \"#utility.yul\":14196:14200   */\n      0x00\n        /* \"#utility.yul\":14342:14371   */\n      tag_266\n        /* \"#utility.yul\":14367:14370   */\n      dup4\n        /* \"#utility.yul\":14361:14365   */\n      dup4\n        /* \"#utility.yul\":14342:14371   */\n      tag_105\n      jump\t// in\n    tag_266:\n        /* \"#utility.yul\":14334:14371   */\n      swap2\n      pop\n        /* \"#utility.yul\":14404:14407   */\n      dup3\n        /* \"#utility.yul\":14401:14402   */\n      0x02\n        /* \"#utility.yul\":14397:14408   */\n      mul\n        /* \"#utility.yul\":14391:14395   */\n      dup3\n        /* \"#utility.yul\":14388:14409   */\n      or\n        /* \"#utility.yul\":14380:14409   */\n      swap1\n      pop\n        /* \"#utility.yul\":14120:14415   */\n      swap3\n      swap2\n      pop\n      pop\n      jump\t// out\n        /* \"#utility.yul\":14420:15815   */\n    tag_54:\n        /* \"#utility.yul\":14537:14574   */\n      tag_268\n        /* \"#utility.yul\":14570:14573   */\n      dup3\n        /* \"#utility.yul\":14537:14574   */\n      tag_64\n      jump\t// in\n    tag_268:\n        /* \"#utility.yul\":14639:14657   */\n      0xffffffffffffffff\n        /* \"#utility.yul\":14631:14637   */\n      dup2\n        /* \"#utility.yul\":14628:14658   */\n      gt\n        /* \"#utility.yul\":14625:14681   */\n      iszero\n      tag_269\n      jumpi\n        /* \"#utility.yul\":14661:14679   */\n      tag_270\n      tag_76\n      jump\t// in\n    tag_270:\n        /* \"#utility.yul\":14625:14681   */\n    tag_269:\n        /* \"#utility.yul\":14705:14743   */\n      tag_271\n        /* \"#utility.yul\":14737:14741   */\n      dup3\n        /* \"#utility.yul\":14731:14742   */\n      sload\n        /* \"#utility.yul\":14705:14743   */\n      tag_32\n      jump\t// in\n    tag_271:\n        /* \"#utility.yul\":14790:14857   */\n      tag_272\n        /* \"#utility.yul\":14850:14856   */\n      dup3\n        /* \"#utility.yul\":14842:14848   */\n      dup3\n        /* \"#utility.yul\":14836:14840   */\n      dup6\n        /* \"#utility.yul\":14790:14857   */\n      tag_103\n      jump\t// in\n    tag_272:\n        /* \"#utility.yul\":14884:14885   */\n      0x00\n        /* \"#utility.yul\":14908:14912   */\n      0x20\n        /* \"#utility.yul\":14895:14912   */\n      swap1\n      pop\n        /* \"#utility.yul\":14940:14942   */\n      0x1f\n        /* \"#utility.yul\":14932:14938   */\n      dup4\n        /* \"#utility.yul\":14929:14943   */\n      gt\n        /* \"#utility.yul\":14957:14958   */\n      0x01\n        /* \"#utility.yul\":14952:15570   */\n      dup2\n      eq\n      tag_274\n      jumpi\n        /* \"#utility.yul\":15614:15615   */\n      0x00\n        /* \"#utility.yul\":15631:15637   */\n      dup5\n        /* \"#utility.yul\":15628:15705   */\n      iszero\n      tag_275\n      jumpi\n        /* \"#utility.yul\":15680:15689   */\n      dup3\n        /* \"#utility.yul\":15675:15678   */\n      dup8\n        /* \"#utility.yul\":15671:15690   */\n      add\n        /* \"#utility.yul\":15665:15691   */\n      mload\n        /* \"#utility.yul\":15656:15691   */\n      swap1\n      pop\n        /* \"#utility.yul\":15628:15705   */\n    tag_275:\n        /* \"#utility.yul\":15731:15798   */\n      tag_276\n        /* \"#utility.yul\":15791:15797   */\n      dup6\n        /* \"#utility.yul\":15784:15789   */\n      dup3\n        /* \"#utility.yul\":15731:15798   */\n      tag_106\n      jump\t// in\n    tag_276:\n        /* \"#utility.yul\":15725:15729   */\n      dup7\n        /* \"#utility.yul\":15718:15799   */\n      sstore\n        /* \"#utility.yul\":15587:15809   */\n      pop\n        /* \"#utility.yul\":14922:15809   */\n      jump(tag_273)\n        /* \"#utility.yul\":14952:15570   */\n    tag_274:\n        /* \"#utility.yul\":15004:15008   */\n      0x1f\n        /* \"#utility.yul\":15000:15009   */\n      not\n        /* \"#utility.yul\":14992:14998   */\n      dup5\n        /* \"#utility.yul\":14988:15010   */\n      and\n        /* \"#utility.yul\":15038:15075   */\n      tag_277\n        /* \"#utility.yul\":15070:15074   */\n      dup7\n        /* \"#utility.yul\":15038:15075   */\n      tag_89\n      jump\t// in\n    tag_277:\n        /* \"#utility.yul\":15097:15098   */\n      0x00\n        /* \"#utility.yul\":15111:15319   */\n    tag_278:\n        /* \"#utility.yul\":15125:15132   */\n      dup3\n        /* \"#utility.yul\":15122:15123   */\n      dup2\n        /* \"#utility.yul\":15119:15133   */\n      lt\n        /* \"#utility.yul\":15111:15319   */\n      iszero\n      tag_280\n      jumpi\n        /* \"#utility.yul\":15204:15213   */\n      dup5\n        /* \"#utility.yul\":15199:15202   */\n      dup10\n        /* \"#utility.yul\":15195:15214   */\n      add\n        /* \"#utility.yul\":15189:15215   */\n      mload\n        /* \"#utility.yul\":15181:15187   */\n      dup3\n        /* \"#utility.yul\":15174:15216   */\n      sstore\n        /* \"#utility.yul\":15255:15256   */\n      0x01\n        /* \"#utility.yul\":15247:15253   */\n      dup3\n        /* \"#utility.yul\":15243:15257   */\n      add\n        /* \"#utility.yul\":15233:15257   */\n      swap2\n      pop\n        /* \"#utility.yul\":15302:15304   */\n      0x20\n        /* \"#utility.yul\":15291:15300   */\n      dup6\n        /* \"#utility.yul\":15287:15305   */\n      add\n        /* \"#utility.yul\":15274:15305   */\n      swap5\n      pop\n        /* \"#utility.yul\":15148:15152   */\n      0x20\n        /* \"#utility.yul\":15145:15146   */\n      dup2\n        /* \"#utility.yul\":15141:15153   */\n      add\n        /* \"#utility.yul\":15136:15153   */\n      swap1\n      pop\n        /* \"#utility.yul\":15111:15319   */\n      jump(tag_278)\n    tag_280:\n        /* \"#utility.yul\":15347:15353   */\n      dup7\n        /* \"#utility.yul\":15338:15345   */\n      dup4\n        /* \"#utility.yul\":15335:15354   */\n      lt\n        /* \"#utility.yul\":15332:15511   */\n      iszero\n      tag_281\n      jumpi\n        /* \"#utility.yul\":15405:15414   */\n      dup5\n        /* \"#utility.yul\":15400:15403   */\n      dup10\n        /* \"#utility.yul\":15396:15415   */\n      add\n        /* \"#utility.yul\":15390:15416   */\n      mload\n        /* \"#utility.yul\":15448:15496   */\n      tag_282\n        /* \"#utility.yul\":15490:15494   */\n      0x1f\n        /* \"#utility.yul\":15482:15488   */\n      dup10\n        /* \"#utility.yul\":15478:15495   */\n      and\n        /* \"#utility.yul\":15467:15476   */\n      dup3\n        /* \"#utility.yul\":15448:15496   */\n      tag_105\n      jump\t// in\n    tag_282:\n        /* \"#utility.yul\":15440:15446   */\n      dup4\n        /* \"#utility.yul\":15433:15497   */\n      sstore\n        /* \"#utility.yul\":15355:15511   */\n      pop\n        /* \"#utility.yul\":15332:15511   */\n    tag_281:\n        /* \"#utility.yul\":15557:15558   */\n      0x01\n        /* \"#utility.yul\":15553:15554   */\n      0x02\n        /* \"#utility.yul\":15545:15551   */\n      dup9\n        /* \"#utility.yul\":15541:15555   */\n      mul\n        /* \"#utility.yul\":15537:15559   */\n      add\n        /* \"#utility.yul\":15531:15535   */\n      dup9\n        /* \"#utility.yul\":15524:15560   */\n      sstore\n        /* \"#utility.yul\":14959:15570   */\n      pop\n      pop\n      pop\n        /* \"#utility.yul\":14922:15809   */\n    tag_273:\n      pop\n        /* \"#utility.yul\":14512:15815   */\n      pop\n      pop\n      pop\n        /* \"#utility.yul\":14420:15815   */\n      pop\n      pop\n      jump\t// out\n        /* \"#utility.yul\":15821:16465   */\n    tag_56:\n        /* \"#utility.yul\":16018:16022   */\n      0x00\n        /* \"#utility.yul\":16056:16059   */\n      0x80\n        /* \"#utility.yul\":16045:16054   */\n      dup3\n        /* \"#utility.yul\":16041:16060   */\n      add\n        /* \"#utility.yul\":16033:16060   */\n      swap1\n      pop\n        /* \"#utility.yul\":16070:16141   */\n      tag_284\n        /* \"#utility.yul\":16138:16139   */\n      0x00\n        /* \"#utility.yul\":16127:16136   */\n      dup4\n        /* \"#utility.yul\":16123:16140   */\n      add\n        /* \"#utility.yul\":16114:16120   */\n      dup8\n        /* \"#utility.yul\":16070:16141   */\n      tag_63\n      jump\t// in\n    tag_284:\n        /* \"#utility.yul\":16188:16197   */\n      dup2\n        /* \"#utility.yul\":16182:16186   */\n      dup2\n        /* \"#utility.yul\":16178:16198   */\n      sub\n        /* \"#utility.yul\":16173:16175   */\n      0x20\n        /* \"#utility.yul\":16162:16171   */\n      dup4\n        /* \"#utility.yul\":16158:16176   */\n      add\n        /* \"#utility.yul\":16151:16199   */\n      mstore\n        /* \"#utility.yul\":16216:16294   */\n      tag_285\n        /* \"#utility.yul\":16289:16293   */\n      dup2\n        /* \"#utility.yul\":16280:16286   */\n      dup7\n        /* \"#utility.yul\":16216:16294   */\n      tag_68\n      jump\t// in\n    tag_285:\n        /* \"#utility.yul\":16208:16294   */\n      swap1\n      pop\n        /* \"#utility.yul\":16304:16376   */\n      tag_286\n        /* \"#utility.yul\":16372:16374   */\n      0x40\n        /* \"#utility.yul\":16361:16370   */\n      dup4\n        /* \"#utility.yul\":16357:16375   */\n      add\n        /* \"#utility.yul\":16348:16354   */\n      dup6\n        /* \"#utility.yul\":16304:16376   */\n      tag_63\n      jump\t// in\n    tag_286:\n        /* \"#utility.yul\":16386:16458   */\n      tag_287\n        /* \"#utility.yul\":16454:16456   */\n      0x60\n        /* \"#utility.yul\":16443:16452   */\n      dup4\n        /* \"#utility.yul\":16439:16457   */\n      add\n        /* \"#utility.yul\":16430:16436   */\n      dup5\n        /* \"#utility.yul\":16386:16458   */\n      tag_92\n      jump\t// in\n    tag_287:\n        /* \"#utility.yul\":15821:16465   */\n      swap6\n      swap5\n      pop\n      pop\n      pop\n      pop\n      pop\n      jump\t// out\n\n    auxdata: 0xa2646970667358221220028b1a53d251039a210aa1ebe0e43f7c7f1b7575e25dea929669b9ba4a6470e364736f6c63430008120033\n}\n",
				"bytecode": {
					"linkReferences": {},
					"object": "608060405234801561001057600080fd5b5060008081905550610dea806100276000396000f3fe6080604052600436106100435760003560e01c8063107046bd1461004c57806336fbad261461008e5780636c563abe146100b957806391754a5d146100d55761004a565b3661004a57005b005b34801561005857600080fd5b50610073600480360381019061006e91906104da565b6100fe565b60405161008596959493929190610602565b60405180910390f35b34801561009a57600080fd5b506100a36101ef565b6040516100b0919061066a565b60405180910390f35b6100d360048036038101906100ce91906104da565b6101f5565b005b3480156100e157600080fd5b506100fc60048036038101906100f791906107ba565b61033b565b005b600160205280600052604060002060009150905080600001549080600101805461012790610845565b80601f016020809104026020016040519081016040528092919081815260200182805461015390610845565b80156101a05780601f10610175576101008083540402835291602001916101a0565b820191906000526020600020905b81548152906001019060200180831161018357829003601f168201915b5050505050908060020154908060030154908060040160009054906101000a900473ffffffffffffffffffffffffffffffffffffffff16908060040160149054906101000a900460ff16905086565b60005481565b60008111801561020757506000548111155b610246576040517f08c379a000000000000000000000000000000000000000000000000000000000815260040161023d906108c2565b60405180910390fd5b60006001600083815260200190815260200160002090508060040160149054906101000a900460ff16156102af576040517f08c379a00000000000000000000000000000000000000000000000000000000081526004016102a69061092e565b60405180910390fd5b348160030160008282546102c3919061097d565b9250508190555080600201548160030154106102f75760018160040160146101000a81548160ff0219169083151502179055505b7faec46aedf9521d79257a87f53df5515a4dd40b673c959c80a382dec3d9e559948282600101343360405161032f9493929190610a6b565b60405180910390a15050565b60008081548092919061034d90610ab7565b91905055506040518060c001604052806000548152602001838152602001828152602001600081526020013373ffffffffffffffffffffffffffffffffffffffff1681526020016000151581525060016000805481526020019081526020016000206000820151816000015560208201518160010190816103ce9190610c96565b50604082015181600201556060820151816003015560808201518160040160006101000a81548173ffffffffffffffffffffffffffffffffffffffff021916908373ffffffffffffffffffffffffffffffffffffffff16021790555060a08201518160040160146101000a81548160ff0219169083151502179055509050507fbb4637bbc1f7f92783410fb90807fcced52c1562da987ac649876f09a750a5e36000548383336040516104849493929190610d68565b60405180910390a15050565b6000604051905090565b600080fd5b600080fd5b6000819050919050565b6104b7816104a4565b81146104c257600080fd5b50565b6000813590506104d4816104ae565b92915050565b6000602082840312156104f0576104ef61049a565b5b60006104fe848285016104c5565b91505092915050565b610510816104a4565b82525050565b600081519050919050565b600082825260208201905092915050565b60005b83811015610550578082015181840152602081019050610535565b60008484015250505050565b6000601f19601f8301169050919050565b600061057882610516565b6105828185610521565b9350610592818560208601610532565b61059b8161055c565b840191505092915050565b600073ffffffffffffffffffffffffffffffffffffffff82169050919050565b60006105d1826105a6565b9050919050565b6105e1816105c6565b82525050565b60008115159050919050565b6105fc816105e7565b82525050565b600060c0820190506106176000830189610507565b8181036020830152610629818861056d565b90506106386040830187610507565b6106456060830186610507565b61065260808301856105d8565b61065f60a08301846105f3565b979650505050505050565b600060208201905061067f6000830184610507565b92915050565b600080fd5b600080fd5b7f4e487b7100000000000000000000000000000000000000000000000000000000600052604160045260246000fd5b6106c78261055c565b810181811067ffffffffffffffff821117156106e6576106e561068f565b5b80604052505050565b60006106f9610490565b905061070582826106be565b919050565b600067ffffffffffffffff8211156107255761072461068f565b5b61072e8261055c565b9050602081019050919050565b82818337600083830152505050565b600061075d6107588461070a565b6106ef565b9050828152602081018484840111156107795761077861068a565b5b61078484828561073b565b509392505050565b600082601f8301126107a1576107a0610685565b5b81356107b184826020860161074a565b91505092915050565b600080604083850312156107d1576107d061049a565b5b600083013567ffffffffffffffff8111156107ef576107ee61049f565b5b6107fb8582860161078c565b925050602061080c858286016104c5565b9150509250929050565b7f4e487b7100000000000000000000000000000000000000000000000000000000600052602260045260246000fd5b6000600282049050600182168061085d57607f821691505b6020821081036108705761086f610816565b5b50919050565b7f50726f6a656374204944206e6f742056616c6964000000000000000000000000600082015250565b60006108ac601483610521565b91506108b782610876565b602082019050919050565b600060208201905081810360008301526108db8161089f565b9050919050565b7f50726f6a65637420697320616c72656164792046756e64656400000000000000600082015250565b6000610918601983610521565b9150610923826108e2565b602082019050919050565b600060208201905081810360008301526109478161090b565b9050919050565b7f4e487b7100000000000000000000000000000000000000000000000000000000600052601160045260246000fd5b6000610988826104a4565b9150610993836104a4565b92508282019050808211156109ab576109aa61094e565b5b92915050565b60008190508160005260206000209050919050565b600081546109d381610845565b6109dd8186610521565b945060018216600081146109f85760018114610a0e57610a41565b60ff198316865281151560200286019350610a41565b610a17856109b1565b60005b83811015610a3957815481890152600182019150602081019050610a1a565b808801955050505b50505092915050565b6000610a55826105a6565b9050919050565b610a6581610a4a565b82525050565b6000608082019050610a806000830187610507565b8181036020830152610a9281866109c6565b9050610aa16040830185610507565b610aae6060830184610a5c565b95945050505050565b6000610ac2826104a4565b91507fffffffffffffffffffffffffffffffffffffffffffffffffffffffffffffffff8203610af457610af361094e565b5b600182019050919050565b60006020601f8301049050919050565b600082821b905092915050565b600060088302610b4c7fffffffffffffffffffffffffffffffffffffffffffffffffffffffffffffffff82610b0f565b610b568683610b0f565b95508019841693508086168417925050509392505050565b6000819050919050565b6000610b93610b8e610b89846104a4565b610b6e565b6104a4565b9050919050565b6000819050919050565b610bad83610b78565b610bc1610bb982610b9a565b848454610b1c565b825550505050565b600090565b610bd6610bc9565b610be1818484610ba4565b505050565b5b81811015610c0557610bfa600082610bce565b600181019050610be7565b5050565b601f821115610c4a57610c1b816109b1565b610c2484610aff565b81016020851015610c33578190505b610c47610c3f85610aff565b830182610be6565b50505b505050565b600082821c905092915050565b6000610c6d60001984600802610c4f565b1980831691505092915050565b6000610c868383610c5c565b9150826002028217905092915050565b610c9f82610516565b67ffffffffffffffff811115610cb857610cb761068f565b5b610cc28254610845565b610ccd828285610c09565b600060209050601f831160018114610d005760008415610cee578287015190505b610cf88582610c7a565b865550610d60565b601f198416610d0e866109b1565b60005b82811015610d3657848901518255600182019150602085019450602081019050610d11565b86831015610d535784890151610d4f601f891682610c5c565b8355505b6001600288020188555050505b505050505050565b6000608082019050610d7d6000830187610507565b8181036020830152610d8f818661056d565b9050610d9e6040830185610507565b610dab6060830184610a5c565b9594505050505056fea2646970667358221220028b1a53d251039a210aa1ebe0e43f7c7f1b7575e25dea929669b9ba4a6470e364736f6c63430008120033",
					"opcodes": "PUSH1 0x80 PUSH1 0x40 MSTORE CALLVALUE DUP1 ISZERO PUSH2 0x10 JUMPI PUSH1 0x0 DUP1 REVERT JUMPDEST POP PUSH1 0x0 DUP1 DUP2 SWAP1 SSTORE POP PUSH2 0xDEA DUP1 PUSH2 0x27 PUSH1 0x0 CODECOPY PUSH1 0x0 RETURN INVALID PUSH1 0x80 PUSH1 0x40 MSTORE PUSH1 0x4 CALLDATASIZE LT PUSH2 0x43 JUMPI PUSH1 0x0 CALLDATALOAD PUSH1 0xE0 SHR DUP1 PUSH4 0x107046BD EQ PUSH2 0x4C JUMPI DUP1 PUSH4 0x36FBAD26 EQ PUSH2 0x8E JUMPI DUP1 PUSH4 0x6C563ABE EQ PUSH2 0xB9 JUMPI DUP1 PUSH4 0x91754A5D EQ PUSH2 0xD5 JUMPI PUSH2 0x4A JUMP JUMPDEST CALLDATASIZE PUSH2 0x4A JUMPI STOP JUMPDEST STOP JUMPDEST CALLVALUE DUP1 ISZERO PUSH2 0x58 JUMPI PUSH1 0x0 DUP1 REVERT JUMPDEST POP PUSH2 0x73 PUSH1 0x4 DUP1 CALLDATASIZE SUB DUP2 ADD SWAP1 PUSH2 0x6E SWAP2 SWAP1 PUSH2 0x4DA JUMP JUMPDEST PUSH2 0xFE JUMP JUMPDEST PUSH1 0x40 MLOAD PUSH2 0x85 SWAP7 SWAP6 SWAP5 SWAP4 SWAP3 SWAP2 SWAP1 PUSH2 0x602 JUMP JUMPDEST PUSH1 0x40 MLOAD DUP1 SWAP2 SUB SWAP1 RETURN JUMPDEST CALLVALUE DUP1 ISZERO PUSH2 0x9A JUMPI PUSH1 0x0 DUP1 REVERT JUMPDEST POP PUSH2 0xA3 PUSH2 0x1EF JUMP JUMPDEST PUSH1 0x40 MLOAD PUSH2 0xB0 SWAP2 SWAP1 PUSH2 0x66A JUMP JUMPDEST PUSH1 0x40 MLOAD DUP1 SWAP2 SUB SWAP1 RETURN JUMPDEST PUSH2 0xD3 PUSH1 0x4 DUP1 CALLDATASIZE SUB DUP2 ADD SWAP1 PUSH2 0xCE SWAP2 SWAP1 PUSH2 0x4DA JUMP JUMPDEST PUSH2 0x1F5 JUMP JUMPDEST STOP JUMPDEST CALLVALUE DUP1 ISZERO PUSH2 0xE1 JUMPI PUSH1 0x0 DUP1 REVERT JUMPDEST POP PUSH2 0xFC PUSH1 0x4 DUP1 CALLDATASIZE SUB DUP2 ADD SWAP1 PUSH2 0xF7 SWAP2 SWAP1 PUSH2 0x7BA JUMP JUMPDEST PUSH2 0x33B JUMP JUMPDEST STOP JUMPDEST PUSH1 0x1 PUSH1 0x20 MSTORE DUP1 PUSH1 0x0 MSTORE PUSH1 0x40 PUSH1 0x0 KECCAK256 PUSH1 0x0 SWAP2 POP SWAP1 POP DUP1 PUSH1 0x0 ADD SLOAD SWAP1 DUP1 PUSH1 0x1 ADD DUP1 SLOAD PUSH2 0x127 SWAP1 PUSH2 0x845 JUMP JUMPDEST DUP1 PUSH1 0x1F ADD PUSH1 0x20 DUP1 SWAP2 DIV MUL PUSH1 0x20 ADD PUSH1 0x40 MLOAD SWAP1 DUP2 ADD PUSH1 0x40 MSTORE DUP1 SWAP3 SWAP2 SWAP1 DUP2 DUP2 MSTORE PUSH1 0x20 ADD DUP3 DUP1 SLOAD PUSH2 0x153 SWAP1 PUSH2 0x845 JUMP JUMPDEST DUP1 ISZERO PUSH2 0x1A0 JUMPI DUP1 PUSH1 0x1F LT PUSH2 0x175 JUMPI PUSH2 0x100 DUP1 DUP4 SLOAD DIV MUL DUP4 MSTORE SWAP2 PUSH1 0x20 ADD SWAP2 PUSH2 0x1A0 JUMP JUMPDEST DUP3 ADD SWAP2 SWAP1 PUSH1 0x0 MSTORE PUSH1 0x20 PUSH1 0x0 KECCAK256 SWAP1 JUMPDEST DUP2 SLOAD DUP2 MSTORE SWAP1 PUSH1 0x1 ADD SWAP1 PUSH1 0x20 ADD DUP1 DUP4 GT PUSH2 0x183 JUMPI DUP3 SWAP1 SUB PUSH1 0x1F AND DUP3 ADD SWAP2 JUMPDEST POP POP POP POP POP SWAP1 DUP1 PUSH1 0x2 ADD SLOAD SWAP1 DUP1 PUSH1 0x3 ADD SLOAD SWAP1 DUP1 PUSH1 0x4 ADD PUSH1 0x0 SWAP1 SLOAD SWAP1 PUSH2 0x100 EXP SWAP1 DIV PUSH20 0xFFFFFFFFFFFFFFFFFFFFFFFFFFFFFFFFFFFFFFFF AND SWAP1 DUP1 PUSH1 0x4 ADD PUSH1 0x14 SWAP1 SLOAD SWAP1 PUSH2 0x100 EXP SWAP1 DIV PUSH1 0xFF AND SWAP1 POP DUP7 JUMP JUMPDEST PUSH1 0x0 SLOAD DUP2 JUMP JUMPDEST PUSH1 0x0 DUP2 GT DUP1 ISZERO PUSH2 0x207 JUMPI POP PUSH1 0x0 SLOAD DUP2 GT ISZERO JUMPDEST PUSH2 0x246 JUMPI PUSH1 0x40 MLOAD PUSH32 0x8C379A000000000000000000000000000000000000000000000000000000000 DUP2 MSTORE PUSH1 0x4 ADD PUSH2 0x23D SWAP1 PUSH2 0x8C2 JUMP JUMPDEST PUSH1 0x40 MLOAD DUP1 SWAP2 SUB SWAP1 REVERT JUMPDEST PUSH1 0x0 PUSH1 0x1 PUSH1 0x0 DUP4 DUP2 MSTORE PUSH1 0x20 ADD SWAP1 DUP2 MSTORE PUSH1 0x20 ADD PUSH1 0x0 KECCAK256 SWAP1 POP DUP1 PUSH1 0x4 ADD PUSH1 0x14 SWAP1 SLOAD SWAP1 PUSH2 0x100 EXP SWAP1 DIV PUSH1 0xFF AND ISZERO PUSH2 0x2AF JUMPI PUSH1 0x40 MLOAD PUSH32 0x8C379A000000000000000000000000000000000000000000000000000000000 DUP2 MSTORE PUSH1 0x4 ADD PUSH2 0x2A6 SWAP1 PUSH2 0x92E JUMP JUMPDEST PUSH1 0x40 MLOAD DUP1 SWAP2 SUB SWAP1 REVERT JUMPDEST CALLVALUE DUP2 PUSH1 0x3 ADD PUSH1 0x0 DUP3 DUP3 SLOAD PUSH2 0x2C3 SWAP2 SWAP1 PUSH2 0x97D JUMP JUMPDEST SWAP3 POP POP DUP2 SWAP1 SSTORE POP DUP1 PUSH1 0x2 ADD SLOAD DUP2 PUSH1 0x3 ADD SLOAD LT PUSH2 0x2F7 JUMPI PUSH1 0x1 DUP2 PUSH1 0x4 ADD PUSH1 0x14 PUSH2 0x100 EXP DUP2 SLOAD DUP2 PUSH1 0xFF MUL NOT AND SWAP1 DUP4 ISZERO ISZERO MUL OR SWAP1 SSTORE POP JUMPDEST PUSH32 0xAEC46AEDF9521D79257A87F53DF5515A4DD40B673C959C80A382DEC3D9E55994 DUP3 DUP3 PUSH1 0x1 ADD CALLVALUE CALLER PUSH1 0x40 MLOAD PUSH2 0x32F SWAP5 SWAP4 SWAP3 SWAP2 SWAP1 PUSH2 0xA6B JUMP JUMPDEST PUSH1 0x40 MLOAD DUP1 SWAP2 SUB SWAP1 LOG1 POP POP JUMP JUMPDEST PUSH1 0x0 DUP1 DUP2 SLOAD DUP1 SWAP3 SWAP2 SWAP1 PUSH2 0x34D SWAP1 PUSH2 0xAB7 JUMP JUMPDEST SWAP2 SWAP1 POP SSTORE POP PUSH1 0x40 MLOAD DUP1 PUSH1 0xC0 ADD PUSH1 0x40 MSTORE DUP1 PUSH1 0x0 SLOAD DUP2 MSTORE PUSH1 0x20 ADD DUP4 DUP2 MSTORE PUSH1 0x20 ADD DUP3 DUP2 MSTORE PUSH1 0x20 ADD PUSH1 0x0 DUP2 MSTORE PUSH1 0x20 ADD CALLER PUSH20 0xFFFFFFFFFFFFFFFFFFFFFFFFFFFFFFFFFFFFFFFF AND DUP2 MSTORE PUSH1 0x20 ADD PUSH1 0x0 ISZERO ISZERO DUP2 MSTORE POP PUSH1 0x1 PUSH1 0x0 DUP1 SLOAD DUP2 MSTORE PUSH1 0x20 ADD SWAP1 DUP2 MSTORE PUSH1 0x20 ADD PUSH1 0x0 KECCAK256 PUSH1 0x0 DUP3 ADD MLOAD DUP2 PUSH1 0x0 ADD SSTORE PUSH1 0x20 DUP3 ADD MLOAD DUP2 PUSH1 0x1 ADD SWAP1 DUP2 PUSH2 0x3CE SWAP2 SWAP1 PUSH2 0xC96 JUMP JUMPDEST POP PUSH1 0x40 DUP3 ADD MLOAD DUP2 PUSH1 0x2 ADD SSTORE PUSH1 0x60 DUP3 ADD MLOAD DUP2 PUSH1 0x3 ADD SSTORE PUSH1 0x80 DUP3 ADD MLOAD DUP2 PUSH1 0x4 ADD PUSH1 0x0 PUSH2 0x100 EXP DUP2 SLOAD DUP2 PUSH20 0xFFFFFFFFFFFFFFFFFFFFFFFFFFFFFFFFFFFFFFFF MUL NOT AND SWAP1 DUP4 PUSH20 0xFFFFFFFFFFFFFFFFFFFFFFFFFFFFFFFFFFFFFFFF AND MUL OR SWAP1 SSTORE POP PUSH1 0xA0 DUP3 ADD MLOAD DUP2 PUSH1 0x4 ADD PUSH1 0x14 PUSH2 0x100 EXP DUP2 SLOAD DUP2 PUSH1 0xFF MUL NOT AND SWAP1 DUP4 ISZERO ISZERO MUL OR SWAP1 SSTORE POP SWAP1 POP POP PUSH32 0xBB4637BBC1F7F92783410FB90807FCCED52C1562DA987AC649876F09A750A5E3 PUSH1 0x0 SLOAD DUP4 DUP4 CALLER PUSH1 0x40 MLOAD PUSH2 0x484 SWAP5 SWAP4 SWAP3 SWAP2 SWAP1 PUSH2 0xD68 JUMP JUMPDEST PUSH1 0x40 MLOAD DUP1 SWAP2 SUB SWAP1 LOG1 POP POP JUMP JUMPDEST PUSH1 0x0 PUSH1 0x40 MLOAD SWAP1 POP SWAP1 JUMP JUMPDEST PUSH1 0x0 DUP1 REVERT JUMPDEST PUSH1 0x0 DUP1 REVERT JUMPDEST PUSH1 0x0 DUP2 SWAP1 POP SWAP2 SWAP1 POP JUMP JUMPDEST PUSH2 0x4B7 DUP2 PUSH2 0x4A4 JUMP JUMPDEST DUP2 EQ PUSH2 0x4C2 JUMPI PUSH1 0x0 DUP1 REVERT JUMPDEST POP JUMP JUMPDEST PUSH1 0x0 DUP2 CALLDATALOAD SWAP1 POP PUSH2 0x4D4 DUP2 PUSH2 0x4AE JUMP JUMPDEST SWAP3 SWAP2 POP POP JUMP JUMPDEST PUSH1 0x0 PUSH1 0x20 DUP3 DUP5 SUB SLT ISZERO PUSH2 0x4F0 JUMPI PUSH2 0x4EF PUSH2 0x49A JUMP JUMPDEST JUMPDEST PUSH1 0x0 PUSH2 0x4FE DUP5 DUP3 DUP6 ADD PUSH2 0x4C5 JUMP JUMPDEST SWAP2 POP POP SWAP3 SWAP2 POP POP JUMP JUMPDEST PUSH2 0x510 DUP2 PUSH2 0x4A4 JUMP JUMPDEST DUP3 MSTORE POP POP JUMP JUMPDEST PUSH1 0x0 DUP2 MLOAD SWAP1 POP SWAP2 SWAP1 POP JUMP JUMPDEST PUSH1 0x0 DUP3 DUP3 MSTORE PUSH1 0x20 DUP3 ADD SWAP1 POP SWAP3 SWAP2 POP POP JUMP JUMPDEST PUSH1 0x0 JUMPDEST DUP4 DUP2 LT ISZERO PUSH2 0x550 JUMPI DUP1 DUP3 ADD MLOAD DUP2 DUP5 ADD MSTORE PUSH1 0x20 DUP2 ADD SWAP1 POP PUSH2 0x535 JUMP JUMPDEST PUSH1 0x0 DUP5 DUP5 ADD MSTORE POP POP POP POP JUMP JUMPDEST PUSH1 0x0 PUSH1 0x1F NOT PUSH1 0x1F DUP4 ADD AND SWAP1 POP SWAP2 SWAP1 POP JUMP JUMPDEST PUSH1 0x0 PUSH2 0x578 DUP3 PUSH2 0x516 JUMP JUMPDEST PUSH2 0x582 DUP2 DUP6 PUSH2 0x521 JUMP JUMPDEST SWAP4 POP PUSH2 0x592 DUP2 DUP6 PUSH1 0x20 DUP7 ADD PUSH2 0x532 JUMP JUMPDEST PUSH2 0x59B DUP2 PUSH2 0x55C JUMP JUMPDEST DUP5 ADD SWAP2 POP POP SWAP3 SWAP2 POP POP JUMP JUMPDEST PUSH1 0x0 PUSH20 0xFFFFFFFFFFFFFFFFFFFFFFFFFFFFFFFFFFFFFFFF DUP3 AND SWAP1 POP SWAP2 SWAP1 POP JUMP JUMPDEST PUSH1 0x0 PUSH2 0x5D1 DUP3 PUSH2 0x5A6 JUMP JUMPDEST SWAP1 POP SWAP2 SWAP1 POP JUMP JUMPDEST PUSH2 0x5E1 DUP2 PUSH2 0x5C6 JUMP JUMPDEST DUP3 MSTORE POP POP JUMP JUMPDEST PUSH1 0x0 DUP2 ISZERO ISZERO SWAP1 POP SWAP2 SWAP1 POP JUMP JUMPDEST PUSH2 0x5FC DUP2 PUSH2 0x5E7 JUMP JUMPDEST DUP3 MSTORE POP POP JUMP JUMPDEST PUSH1 0x0 PUSH1 0xC0 DUP3 ADD SWAP1 POP PUSH2 0x617 PUSH1 0x0 DUP4 ADD DUP10 PUSH2 0x507 JUMP JUMPDEST DUP2 DUP2 SUB PUSH1 0x20 DUP4 ADD MSTORE PUSH2 0x629 DUP2 DUP9 PUSH2 0x56D JUMP JUMPDEST SWAP1 POP PUSH2 0x638 PUSH1 0x40 DUP4 ADD DUP8 PUSH2 0x507 JUMP JUMPDEST PUSH2 0x645 PUSH1 0x60 DUP4 ADD DUP7 PUSH2 0x507 JUMP JUMPDEST PUSH2 0x652 PUSH1 0x80 DUP4 ADD DUP6 PUSH2 0x5D8 JUMP JUMPDEST PUSH2 0x65F PUSH1 0xA0 DUP4 ADD DUP5 PUSH2 0x5F3 JUMP JUMPDEST SWAP8 SWAP7 POP POP POP POP POP POP POP JUMP JUMPDEST PUSH1 0x0 PUSH1 0x20 DUP3 ADD SWAP1 POP PUSH2 0x67F PUSH1 0x0 DUP4 ADD DUP5 PUSH2 0x507 JUMP JUMPDEST SWAP3 SWAP2 POP POP JUMP JUMPDEST PUSH1 0x0 DUP1 REVERT JUMPDEST PUSH1 0x0 DUP1 REVERT JUMPDEST PUSH32 0x4E487B7100000000000000000000000000000000000000000000000000000000 PUSH1 0x0 MSTORE PUSH1 0x41 PUSH1 0x4 MSTORE PUSH1 0x24 PUSH1 0x0 REVERT JUMPDEST PUSH2 0x6C7 DUP3 PUSH2 0x55C JUMP JUMPDEST DUP2 ADD DUP2 DUP2 LT PUSH8 0xFFFFFFFFFFFFFFFF DUP3 GT OR ISZERO PUSH2 0x6E6 JUMPI PUSH2 0x6E5 PUSH2 0x68F JUMP JUMPDEST JUMPDEST DUP1 PUSH1 0x40 MSTORE POP POP POP JUMP JUMPDEST PUSH1 0x0 PUSH2 0x6F9 PUSH2 0x490 JUMP JUMPDEST SWAP1 POP PUSH2 0x705 DUP3 DUP3 PUSH2 0x6BE JUMP JUMPDEST SWAP2 SWAP1 POP JUMP JUMPDEST PUSH1 0x0 PUSH8 0xFFFFFFFFFFFFFFFF DUP3 GT ISZERO PUSH2 0x725 JUMPI PUSH2 0x724 PUSH2 0x68F JUMP JUMPDEST JUMPDEST PUSH2 0x72E DUP3 PUSH2 0x55C JUMP JUMPDEST SWAP1 POP PUSH1 0x20 DUP2 ADD SWAP1 POP SWAP2 SWAP1 POP JUMP JUMPDEST DUP3 DUP2 DUP4 CALLDATACOPY PUSH1 0x0 DUP4 DUP4 ADD MSTORE POP POP POP JUMP JUMPDEST PUSH1 0x0 PUSH2 0x75D PUSH2 0x758 DUP5 PUSH2 0x70A JUMP JUMPDEST PUSH2 0x6EF JUMP JUMPDEST SWAP1 POP DUP3 DUP2 MSTORE PUSH1 0x20 DUP2 ADD DUP5 DUP5 DUP5 ADD GT ISZERO PUSH2 0x779 JUMPI PUSH2 0x778 PUSH2 0x68A JUMP JUMPDEST JUMPDEST PUSH2 0x784 DUP5 DUP3 DUP6 PUSH2 0x73B JUMP JUMPDEST POP SWAP4 SWAP3 POP POP POP JUMP JUMPDEST PUSH1 0x0 DUP3 PUSH1 0x1F DUP4 ADD SLT PUSH2 0x7A1 JUMPI PUSH2 0x7A0 PUSH2 0x685 JUMP JUMPDEST JUMPDEST DUP2 CALLDATALOAD PUSH2 0x7B1 DUP5 DUP3 PUSH1 0x20 DUP7 ADD PUSH2 0x74A JUMP JUMPDEST SWAP2 POP POP SWAP3 SWAP2 POP POP JUMP JUMPDEST PUSH1 0x0 DUP1 PUSH1 0x40 DUP4 DUP6 SUB SLT ISZERO PUSH2 0x7D1 JUMPI PUSH2 0x7D0 PUSH2 0x49A JUMP JUMPDEST JUMPDEST PUSH1 0x0 DUP4 ADD CALLDATALOAD PUSH8 0xFFFFFFFFFFFFFFFF DUP2 GT ISZERO PUSH2 0x7EF JUMPI PUSH2 0x7EE PUSH2 0x49F JUMP JUMPDEST JUMPDEST PUSH2 0x7FB DUP6 DUP3 DUP7 ADD PUSH2 0x78C JUMP JUMPDEST SWAP3 POP POP PUSH1 0x20 PUSH2 0x80C DUP6 DUP3 DUP7 ADD PUSH2 0x4C5 JUMP JUMPDEST SWAP2 POP POP SWAP3 POP SWAP3 SWAP1 POP JUMP JUMPDEST PUSH32 0x4E487B7100000000000000000000000000000000000000000000000000000000 PUSH1 0x0 MSTORE PUSH1 0x22 PUSH1 0x4 MSTORE PUSH1 0x24 PUSH1 0x0 REVERT JUMPDEST PUSH1 0x0 PUSH1 0x2 DUP3 DIV SWAP1 POP PUSH1 0x1 DUP3 AND DUP1 PUSH2 0x85D JUMPI PUSH1 0x7F DUP3 AND SWAP2 POP JUMPDEST PUSH1 0x20 DUP3 LT DUP2 SUB PUSH2 0x870 JUMPI PUSH2 0x86F PUSH2 0x816 JUMP JUMPDEST JUMPDEST POP SWAP2 SWAP1 POP JUMP JUMPDEST PUSH32 0x50726F6A656374204944206E6F742056616C6964000000000000000000000000 PUSH1 0x0 DUP3 ADD MSTORE POP JUMP JUMPDEST PUSH1 0x0 PUSH2 0x8AC PUSH1 0x14 DUP4 PUSH2 0x521 JUMP JUMPDEST SWAP2 POP PUSH2 0x8B7 DUP3 PUSH2 0x876 JUMP JUMPDEST PUSH1 0x20 DUP3 ADD SWAP1 POP SWAP2 SWAP1 POP JUMP JUMPDEST PUSH1 0x0 PUSH1 0x20 DUP3 ADD SWAP1 POP DUP2 DUP2 SUB PUSH1 0x0 DUP4 ADD MSTORE PUSH2 0x8DB DUP2 PUSH2 0x89F JUMP JUMPDEST SWAP1 POP SWAP2 SWAP1 POP JUMP JUMPDEST PUSH32 0x50726F6A65637420697320616C72656164792046756E64656400000000000000 PUSH1 0x0 DUP3 ADD MSTORE POP JUMP JUMPDEST PUSH1 0x0 PUSH2 0x918 PUSH1 0x19 DUP4 PUSH2 0x521 JUMP JUMPDEST SWAP2 POP PUSH2 0x923 DUP3 PUSH2 0x8E2 JUMP JUMPDEST PUSH1 0x20 DUP3 ADD SWAP1 POP SWAP2 SWAP1 POP JUMP JUMPDEST PUSH1 0x0 PUSH1 0x20 DUP3 ADD SWAP1 POP DUP2 DUP2 SUB PUSH1 0x0 DUP4 ADD MSTORE PUSH2 0x947 DUP2 PUSH2 0x90B JUMP JUMPDEST SWAP1 POP SWAP2 SWAP1 POP JUMP JUMPDEST PUSH32 0x4E487B7100000000000000000000000000000000000000000000000000000000 PUSH1 0x0 MSTORE PUSH1 0x11 PUSH1 0x4 MSTORE PUSH1 0x24 PUSH1 0x0 REVERT JUMPDEST PUSH1 0x0 PUSH2 0x988 DUP3 PUSH2 0x4A4 JUMP JUMPDEST SWAP2 POP PUSH2 0x993 DUP4 PUSH2 0x4A4 JUMP JUMPDEST SWAP3 POP DUP3 DUP3 ADD SWAP1 POP DUP1 DUP3 GT ISZERO PUSH2 0x9AB JUMPI PUSH2 0x9AA PUSH2 0x94E JUMP JUMPDEST JUMPDEST SWAP3 SWAP2 POP POP JUMP JUMPDEST PUSH1 0x0 DUP2 SWAP1 POP DUP2 PUSH1 0x0 MSTORE PUSH1 0x20 PUSH1 0x0 KECCAK256 SWAP1 POP SWAP2 SWAP1 POP JUMP JUMPDEST PUSH1 0x0 DUP2 SLOAD PUSH2 0x9D3 DUP2 PUSH2 0x845 JUMP JUMPDEST PUSH2 0x9DD DUP2 DUP7 PUSH2 0x521 JUMP JUMPDEST SWAP5 POP PUSH1 0x1 DUP3 AND PUSH1 0x0 DUP2 EQ PUSH2 0x9F8 JUMPI PUSH1 0x1 DUP2 EQ PUSH2 0xA0E JUMPI PUSH2 0xA41 JUMP JUMPDEST PUSH1 0xFF NOT DUP4 AND DUP7 MSTORE DUP2 ISZERO ISZERO PUSH1 0x20 MUL DUP7 ADD SWAP4 POP PUSH2 0xA41 JUMP JUMPDEST PUSH2 0xA17 DUP6 PUSH2 0x9B1 JUMP JUMPDEST PUSH1 0x0 JUMPDEST DUP4 DUP2 LT ISZERO PUSH2 0xA39 JUMPI DUP2 SLOAD DUP2 DUP10 ADD MSTORE PUSH1 0x1 DUP3 ADD SWAP2 POP PUSH1 0x20 DUP2 ADD SWAP1 POP PUSH2 0xA1A JUMP JUMPDEST DUP1 DUP9 ADD SWAP6 POP POP POP JUMPDEST POP POP POP SWAP3 SWAP2 POP POP JUMP JUMPDEST PUSH1 0x0 PUSH2 0xA55 DUP3 PUSH2 0x5A6 JUMP JUMPDEST SWAP1 POP SWAP2 SWAP1 POP JUMP JUMPDEST PUSH2 0xA65 DUP2 PUSH2 0xA4A JUMP JUMPDEST DUP3 MSTORE POP POP JUMP JUMPDEST PUSH1 0x0 PUSH1 0x80 DUP3 ADD SWAP1 POP PUSH2 0xA80 PUSH1 0x0 DUP4 ADD DUP8 PUSH2 0x507 JUMP JUMPDEST DUP2 DUP2 SUB PUSH1 0x20 DUP4 ADD MSTORE PUSH2 0xA92 DUP2 DUP7 PUSH2 0x9C6 JUMP JUMPDEST SWAP1 POP PUSH2 0xAA1 PUSH1 0x40 DUP4 ADD DUP6 PUSH2 0x507 JUMP JUMPDEST PUSH2 0xAAE PUSH1 0x60 DUP4 ADD DUP5 PUSH2 0xA5C JUMP JUMPDEST SWAP6 SWAP5 POP POP POP POP POP JUMP JUMPDEST PUSH1 0x0 PUSH2 0xAC2 DUP3 PUSH2 0x4A4 JUMP JUMPDEST SWAP2 POP PUSH32 0xFFFFFFFFFFFFFFFFFFFFFFFFFFFFFFFFFFFFFFFFFFFFFFFFFFFFFFFFFFFFFFFF DUP3 SUB PUSH2 0xAF4 JUMPI PUSH2 0xAF3 PUSH2 0x94E JUMP JUMPDEST JUMPDEST PUSH1 0x1 DUP3 ADD SWAP1 POP SWAP2 SWAP1 POP JUMP JUMPDEST PUSH1 0x0 PUSH1 0x20 PUSH1 0x1F DUP4 ADD DIV SWAP1 POP SWAP2 SWAP1 POP JUMP JUMPDEST PUSH1 0x0 DUP3 DUP3 SHL SWAP1 POP SWAP3 SWAP2 POP POP JUMP JUMPDEST PUSH1 0x0 PUSH1 0x8 DUP4 MUL PUSH2 0xB4C PUSH32 0xFFFFFFFFFFFFFFFFFFFFFFFFFFFFFFFFFFFFFFFFFFFFFFFFFFFFFFFFFFFFFFFF DUP3 PUSH2 0xB0F JUMP JUMPDEST PUSH2 0xB56 DUP7 DUP4 PUSH2 0xB0F JUMP JUMPDEST SWAP6 POP DUP1 NOT DUP5 AND SWAP4 POP DUP1 DUP7 AND DUP5 OR SWAP3 POP POP POP SWAP4 SWAP3 POP POP POP JUMP JUMPDEST PUSH1 0x0 DUP2 SWAP1 POP SWAP2 SWAP1 POP JUMP JUMPDEST PUSH1 0x0 PUSH2 0xB93 PUSH2 0xB8E PUSH2 0xB89 DUP5 PUSH2 0x4A4 JUMP JUMPDEST PUSH2 0xB6E JUMP JUMPDEST PUSH2 0x4A4 JUMP JUMPDEST SWAP1 POP SWAP2 SWAP1 POP JUMP JUMPDEST PUSH1 0x0 DUP2 SWAP1 POP SWAP2 SWAP1 POP JUMP JUMPDEST PUSH2 0xBAD DUP4 PUSH2 0xB78 JUMP JUMPDEST PUSH2 0xBC1 PUSH2 0xBB9 DUP3 PUSH2 0xB9A JUMP JUMPDEST DUP5 DUP5 SLOAD PUSH2 0xB1C JUMP JUMPDEST DUP3 SSTORE POP POP POP POP JUMP JUMPDEST PUSH1 0x0 SWAP1 JUMP JUMPDEST PUSH2 0xBD6 PUSH2 0xBC9 JUMP JUMPDEST PUSH2 0xBE1 DUP2 DUP5 DUP5 PUSH2 0xBA4 JUMP JUMPDEST POP POP POP JUMP JUMPDEST JUMPDEST DUP2 DUP2 LT ISZERO PUSH2 0xC05 JUMPI PUSH2 0xBFA PUSH1 0x0 DUP3 PUSH2 0xBCE JUMP JUMPDEST PUSH1 0x1 DUP2 ADD SWAP1 POP PUSH2 0xBE7 JUMP JUMPDEST POP POP JUMP JUMPDEST PUSH1 0x1F DUP3 GT ISZERO PUSH2 0xC4A JUMPI PUSH2 0xC1B DUP2 PUSH2 0x9B1 JUMP JUMPDEST PUSH2 0xC24 DUP5 PUSH2 0xAFF JUMP JUMPDEST DUP2 ADD PUSH1 0x20 DUP6 LT ISZERO PUSH2 0xC33 JUMPI DUP2 SWAP1 POP JUMPDEST PUSH2 0xC47 PUSH2 0xC3F DUP6 PUSH2 0xAFF JUMP JUMPDEST DUP4 ADD DUP3 PUSH2 0xBE6 JUMP JUMPDEST POP POP JUMPDEST POP POP POP JUMP JUMPDEST PUSH1 0x0 DUP3 DUP3 SHR SWAP1 POP SWAP3 SWAP2 POP POP JUMP JUMPDEST PUSH1 0x0 PUSH2 0xC6D PUSH1 0x0 NOT DUP5 PUSH1 0x8 MUL PUSH2 0xC4F JUMP JUMPDEST NOT DUP1 DUP4 AND SWAP2 POP POP SWAP3 SWAP2 POP POP JUMP JUMPDEST PUSH1 0x0 PUSH2 0xC86 DUP4 DUP4 PUSH2 0xC5C JUMP JUMPDEST SWAP2 POP DUP3 PUSH1 0x2 MUL DUP3 OR SWAP1 POP SWAP3 SWAP2 POP POP JUMP JUMPDEST PUSH2 0xC9F DUP3 PUSH2 0x516 JUMP JUMPDEST PUSH8 0xFFFFFFFFFFFFFFFF DUP2 GT ISZERO PUSH2 0xCB8 JUMPI PUSH2 0xCB7 PUSH2 0x68F JUMP JUMPDEST JUMPDEST PUSH2 0xCC2 DUP3 SLOAD PUSH2 0x845 JUMP JUMPDEST PUSH2 0xCCD DUP3 DUP3 DUP6 PUSH2 0xC09 JUMP JUMPDEST PUSH1 0x0 PUSH1 0x20 SWAP1 POP PUSH1 0x1F DUP4 GT PUSH1 0x1 DUP2 EQ PUSH2 0xD00 JUMPI PUSH1 0x0 DUP5 ISZERO PUSH2 0xCEE JUMPI DUP3 DUP8 ADD MLOAD SWAP1 POP JUMPDEST PUSH2 0xCF8 DUP6 DUP3 PUSH2 0xC7A JUMP JUMPDEST DUP7 SSTORE POP PUSH2 0xD60 JUMP JUMPDEST PUSH1 0x1F NOT DUP5 AND PUSH2 0xD0E DUP7 PUSH2 0x9B1 JUMP JUMPDEST PUSH1 0x0 JUMPDEST DUP3 DUP2 LT ISZERO PUSH2 0xD36 JUMPI DUP5 DUP10 ADD MLOAD DUP3 SSTORE PUSH1 0x1 DUP3 ADD SWAP2 POP PUSH1 0x20 DUP6 ADD SWAP5 POP PUSH1 0x20 DUP2 ADD SWAP1 POP PUSH2 0xD11 JUMP JUMPDEST DUP7 DUP4 LT ISZERO PUSH2 0xD53 JUMPI DUP5 DUP10 ADD MLOAD PUSH2 0xD4F PUSH1 0x1F DUP10 AND DUP3 PUSH2 0xC5C JUMP JUMPDEST DUP4 SSTORE POP JUMPDEST PUSH1 0x1 PUSH1 0x2 DUP9 MUL ADD DUP9 SSTORE POP POP POP JUMPDEST POP POP POP POP POP POP JUMP JUMPDEST PUSH1 0x0 PUSH1 0x80 DUP3 ADD SWAP1 POP PUSH2 0xD7D PUSH1 0x0 DUP4 ADD DUP8 PUSH2 0x507 JUMP JUMPDEST DUP2 DUP2 SUB PUSH1 0x20 DUP4 ADD MSTORE PUSH2 0xD8F DUP2 DUP7 PUSH2 0x56D JUMP JUMPDEST SWAP1 POP PUSH2 0xD9E PUSH1 0x40 DUP4 ADD DUP6 PUSH2 0x507 JUMP JUMPDEST PUSH2 0xDAB PUSH1 0x60 DUP4 ADD DUP5 PUSH2 0xA5C JUMP JUMPDEST SWAP6 SWAP5 POP POP POP POP POP JUMP INVALID LOG2 PUSH5 0x6970667358 0x22 SLT KECCAK256 MUL DUP12 BYTE MSTORE8 0xD2 MLOAD SUB SWAP11 0x21 EXP LOG1 0xEB 0xE0 0xE4 EXTCODEHASH PUSH29 0x7F1B7575E25DEA929669B9BA4A6470E364736F6C634300081200330000 "
				},
				"gasEstimates": {
					"creation": {
						"codeDepositCost": "712400",
						"executionCost": "5761",
						"totalCost": "718161"
					},
					"external": {
						"": "151",
						"createProject(string,uint256)": "infinite",
						"fundProject(uint256)": "infinite",
						"projectCount()": "2429",
						"projects(uint256)": "infinite"
					}
				},
				"methodIdentifiers": {
					"createProject(string,uint256)": "91754a5d",
					"fundProject(uint256)": "6c563abe",
					"projectCount()": "36fbad26",
					"projects(uint256)": "107046bd"
				}
			},
			"storageLayout": {
				"storage": [
					{
						"astId": 16,
						"contract": "contracts/crowdfunding.sol:CrowdFunding",
						"label": "projectCount",
						"offset": 0,
						"slot": "0",
						"type": "t_uint256"
					},
					{
						"astId": 21,
						"contract": "contracts/crowdfunding.sol:CrowdFunding",
						"label": "projects",
						"offset": 0,
						"slot": "1",
						"type": "t_mapping(t_uint256,t_struct(Project)14_storage)"
					}
				],
				"types": {
					"t_address_payable": {
						"encoding": "inplace",
						"label": "address payable",
						"numberOfBytes": "20"
					},
					"t_bool": {
						"encoding": "inplace",
						"label": "bool",
						"numberOfBytes": "1"
					},
					"t_mapping(t_uint256,t_struct(Project)14_storage)": {
						"encoding": "mapping",
						"key": "t_uint256",
						"label": "mapping(uint256 => struct CrowdFunding.Project)",
						"numberOfBytes": "32",
						"value": "t_struct(Project)14_storage"
					},
					"t_string_storage": {
						"encoding": "bytes",
						"label": "string",
						"numberOfBytes": "32"
					},
					"t_struct(Project)14_storage": {
						"encoding": "inplace",
						"label": "struct CrowdFunding.Project",
						"members": [
							{
								"astId": 3,
								"contract": "contracts/crowdfunding.sol:CrowdFunding",
								"label": "id",
								"offset": 0,
								"slot": "0",
								"type": "t_uint256"
							},
							{
								"astId": 5,
								"contract": "contracts/crowdfunding.sol:CrowdFunding",
								"label": "name",
								"offset": 0,
								"slot": "1",
								"type": "t_string_storage"
							},
							{
								"astId": 7,
								"contract": "contracts/crowdfunding.sol:CrowdFunding",
								"label": "goalAmount",
								"offset": 0,
								"slot": "2",
								"type": "t_uint256"
							},
							{
								"astId": 9,
								"contract": "contracts/crowdfunding.sol:CrowdFunding",
								"label": "currentAmount",
								"offset": 0,
								"slot": "3",
								"type": "t_uint256"
							},
							{
								"astId": 11,
								"contract": "contracts/crowdfunding.sol:CrowdFunding",
								"label": "creator",
								"offset": 0,
								"slot": "4",
								"type": "t_address_payable"
							},
							{
								"astId": 13,
								"contract": "contracts/crowdfunding.sol:CrowdFunding",
								"label": "isFunded",
								"offset": 20,
								"slot": "4",
								"type": "t_bool"
							}
						],
						"numberOfBytes": "160"
					},
					"t_uint256": {
						"encoding": "inplace",
						"label": "uint256",
						"numberOfBytes": "32"
					}
				}
			},
			"userdoc": {
				"kind": "user",
				"methods": {},
				"version": 1
			}
		}
	}
}