{
	"contracts/openzeppelinERC20.sol": {
		"MyToken": {
			"abi": [
				{
					"inputs": [
						{
							"internalType": "string",
							"name": "name_",
							"type": "string"
						},
						{
							"internalType": "string",
							"name": "symbol_",
							"type": "string"
						},
						{
							"internalType": "uint8",
							"name": "decimals_",
							"type": "uint8"
						}
					],
					"stateMutability": "nonpayable",
					"type": "constructor"
				},
				{
					"anonymous": false,
					"inputs": [
						{
							"indexed": true,
							"internalType": "address",
							"name": "owner",
							"type": "address"
						},
						{
							"indexed": true,
							"internalType": "address",
							"name": "spender",
							"type": "address"
						},
						{
							"indexed": false,
							"internalType": "uint256",
							"name": "value",
							"type": "uint256"
						}
					],
					"name": "Approval",
					"type": "event"
				},
				{
					"anonymous": false,
					"inputs": [
						{
							"indexed": true,
							"internalType": "address",
							"name": "from",
							"type": "address"
						},
						{
							"indexed": true,
							"internalType": "address",
							"name": "to",
							"type": "address"
						},
						{
							"indexed": false,
							"internalType": "uint256",
							"name": "value",
							"type": "uint256"
						}
					],
					"name": "Transfer",
					"type": "event"
				},
				{
					"inputs": [
						{
							"internalType": "address",
							"name": "owner",
							"type": "address"
						},
						{
							"internalType": "address",
							"name": "spender",
							"type": "address"
						}
					],
					"name": "allowance",
					"outputs": [
						{
							"internalType": "uint256",
							"name": "",
							"type": "uint256"
						}
					],
					"stateMutability": "view",
					"type": "function"
				},
				{
					"inputs": [
						{
							"internalType": "address",
							"name": "spender",
							"type": "address"
						},
						{
							"internalType": "uint256",
							"name": "amount",
							"type": "uint256"
						}
					],
					"name": "approve",
					"outputs": [
						{
							"internalType": "bool",
							"name": "",
							"type": "bool"
						}
					],
					"stateMutability": "nonpayable",
					"type": "function"
				},
				{
					"inputs": [
						{
							"internalType": "address",
							"name": "account",
							"type": "address"
						}
					],
					"name": "balanceOf",
					"outputs": [
						{
							"internalType": "uint256",
							"name": "",
							"type": "uint256"
						}
					],
					"stateMutability": "view",
					"type": "function"
				},
				{
					"inputs": [
						{
							"internalType": "uint256",
							"name": "amount",
							"type": "uint256"
						}
					],
					"name": "burn",
					"outputs": [
						{
							"internalType": "bool",
							"name": "",
							"type": "bool"
						}
					],
					"stateMutability": "nonpayable",
					"type": "function"
				},
				{
					"inputs": [],
					"name": "decimals",
					"outputs": [
						{
							"internalType": "uint8",
							"name": "",
							"type": "uint8"
						}
					],
					"stateMutability": "view",
					"type": "function"
				},
				{
					"inputs": [
						{
							"internalType": "address",
							"name": "spender",
							"type": "address"
						},
						{
							"internalType": "uint256",
							"name": "subtractedValue",
							"type": "uint256"
						}
					],
					"name": "decreaseAllowances",
					"outputs": [
						{
							"internalType": "bool",
							"name": "",
							"type": "bool"
						}
					],
					"stateMutability": "nonpayable",
					"type": "function"
				},
				{
					"inputs": [
						{
							"internalType": "address",
							"name": "spender",
							"type": "address"
						},
						{
							"internalType": "uint256",
							"name": "addedValue",
							"type": "uint256"
						}
					],
					"name": "increaseAllowance",
					"outputs": [
						{
							"internalType": "bool",
							"name": "",
							"type": "bool"
						}
					],
					"stateMutability": "nonpayable",
					"type": "function"
				},
				{
					"inputs": [
						{
							"internalType": "uint256",
							"name": "amount",
							"type": "uint256"
						}
					],
					"name": "mint",
					"outputs": [
						{
							"internalType": "bool",
							"name": "",
							"type": "bool"
						}
					],
					"stateMutability": "nonpayable",
					"type": "function"
				},
				{
					"inputs": [],
					"name": "name",
					"outputs": [
						{
							"internalType": "string",
							"name": "",
							"type": "string"
						}
					],
					"stateMutability": "view",
					"type": "function"
				},
				{
					"inputs": [],
					"name": "symbol",
					"outputs": [
						{
							"internalType": "string",
							"name": "",
							"type": "string"
						}
					],
					"stateMutability": "view",
					"type": "function"
				},
				{
					"inputs": [],
					"name": "totalSupply",
					"outputs": [
						{
							"internalType": "uint256",
							"name": "",
							"type": "uint256"
						}
					],
					"stateMutability": "view",
					"type": "function"
				},
				{
					"inputs": [
						{
							"internalType": "address",
							"name": "recipient",
							"type": "address"
						},
						{
							"internalType": "uint256",
							"name": "amount",
							"type": "uint256"
						}
					],
					"name": "transfer",
					"outputs": [
						{
							"internalType": "bool",
							"name": "",
							"type": "bool"
						}
					],
					"stateMutability": "nonpayable",
					"type": "function"
				},
				{
					"inputs": [
						{
							"internalType": "address",
							"name": "sender",
							"type": "address"
						},
						{
							"internalType": "address",
							"name": "recipient",
							"type": "address"
						},
						{
							"internalType": "uint256",
							"name": "amount",
							"type": "uint256"
						}
					],
					"name": "transferFrom",
					"outputs": [
						{
							"internalType": "bool",
							"name": "",
							"type": "bool"
						}
					],
					"stateMutability": "nonpayable",
					"type": "function"
				}
			],
			"devdoc": {
				"events": {
					"Approval(address,address,uint256)": {
						"details": "Emitted when the allowance of a `spender` for an `owner` is set by a call to {approve}. `value` is the new allowance."
					},
					"Transfer(address,address,uint256)": {
						"details": "Emitted when `value` tokens are moved from one account (`from`) to another (`to`). Note that `value` may be zero."
					}
				},
				"kind": "dev",
				"methods": {
					"allowance(address,address)": {
						"details": "Returns the remaining number of tokens that `spender` will be allowed to spend on behalf of `owner` through {transferFrom}. This is zero by default. This value changes when {approve} or {transferFrom} are called."
					},
					"approve(address,uint256)": {
						"details": "Sets `amount` as the allowance of `spender` over the caller's tokens. Returns a boolean value indicating whether the operation succeeded. IMPORTANT: Beware that changing an allowance with this method brings the risk that someone may use both the old and the new allowance by unfortunate transaction ordering. One possible solution to mitigate this race condition is to first reduce the spender's allowance to 0 and set the desired value afterwards: https://github.com/ethereum/EIPs/issues/20#issuecomment-263524729 Emits an {Approval} event."
					},
					"balanceOf(address)": {
						"details": "Returns the amount of tokens owned by `account`."
					},
					"totalSupply()": {
						"details": "Returns the amount of tokens in existence."
					}
				},
				"version": 1
			},
			"evm": {
				"assembly": "    /* \"contracts/openzeppelinERC20.sol\":174:4257  contract MyToken is IERC20 {... */\n  mstore(0x40, 0x80)\n    /* \"contracts/openzeppelinERC20.sol\":484:675  constructor(... */\n  callvalue\n  dup1\n  iszero\n  tag_1\n  jumpi\n  0x00\n  dup1\n  revert\ntag_1:\n  pop\n  mload(0x40)\n  sub(codesize, bytecodeSize)\n  dup1\n  bytecodeSize\n  dup4\n  codecopy\n  dup2\n  dup2\n  add\n  0x40\n  mstore\n  dup2\n  add\n  swap1\n  tag_2\n  swap2\n  swap1\n  tag_3\n  jump\t// in\ntag_2:\n    /* \"contracts/openzeppelinERC20.sol\":605:610  name_ */\n  dup3\n    /* \"contracts/openzeppelinERC20.sol\":597:602  _name */\n  0x03\n    /* \"contracts/openzeppelinERC20.sol\":597:610  _name = name_ */\n  swap1\n  dup2\n  tag_6\n  swap2\n  swap1\n  tag_7\n  jump\t// in\ntag_6:\n  pop\n    /* \"contracts/openzeppelinERC20.sol\":630:637  symbol_ */\n  dup2\n    /* \"contracts/openzeppelinERC20.sol\":620:627  _symbol */\n  0x04\n    /* \"contracts/openzeppelinERC20.sol\":620:637  _symbol = symbol_ */\n  swap1\n  dup2\n  tag_8\n  swap2\n  swap1\n  tag_7\n  jump\t// in\ntag_8:\n  pop\n    /* \"contracts/openzeppelinERC20.sol\":659:668  decimals_ */\n  dup1\n    /* \"contracts/openzeppelinERC20.sol\":647:656  _decimals */\n  0x05\n  0x00\n    /* \"contracts/openzeppelinERC20.sol\":647:668  _decimals = decimals_ */\n  0x0100\n  exp\n  dup2\n  sload\n  dup2\n  0xff\n  mul\n  not\n  and\n  swap1\n  dup4\n  0xff\n  and\n  mul\n  or\n  swap1\n  sstore\n  pop\n    /* \"contracts/openzeppelinERC20.sol\":484:675  constructor(... */\n  pop\n  pop\n  pop\n    /* \"contracts/openzeppelinERC20.sol\":174:4257  contract MyToken is IERC20 {... */\n  jump(tag_9)\n    /* \"#utility.yul\":7:82   */\ntag_10:\n    /* \"#utility.yul\":40:46   */\n  0x00\n    /* \"#utility.yul\":73:75   */\n  0x40\n    /* \"#utility.yul\":67:76   */\n  mload\n    /* \"#utility.yul\":57:76   */\n  swap1\n  pop\n    /* \"#utility.yul\":7:82   */\n  swap1\n  jump\t// out\n    /* \"#utility.yul\":88:205   */\ntag_11:\n    /* \"#utility.yul\":197:198   */\n  0x00\n    /* \"#utility.yul\":194:195   */\n  dup1\n    /* \"#utility.yul\":187:199   */\n  revert\n    /* \"#utility.yul\":211:328   */\ntag_12:\n    /* \"#utility.yul\":320:321   */\n  0x00\n    /* \"#utility.yul\":317:318   */\n  dup1\n    /* \"#utility.yul\":310:322   */\n  revert\n    /* \"#utility.yul\":334:451   */\ntag_13:\n    /* \"#utility.yul\":443:444   */\n  0x00\n    /* \"#utility.yul\":440:441   */\n  dup1\n    /* \"#utility.yul\":433:445   */\n  revert\n    /* \"#utility.yul\":457:574   */\ntag_14:\n    /* \"#utility.yul\":566:567   */\n  0x00\n    /* \"#utility.yul\":563:564   */\n  dup1\n    /* \"#utility.yul\":556:568   */\n  revert\n    /* \"#utility.yul\":580:682   */\ntag_15:\n    /* \"#utility.yul\":621:627   */\n  0x00\n    /* \"#utility.yul\":672:674   */\n  0x1f\n    /* \"#utility.yul\":668:675   */\n  not\n    /* \"#utility.yul\":663:665   */\n  0x1f\n    /* \"#utility.yul\":656:661   */\n  dup4\n    /* \"#utility.yul\":652:666   */\n  add\n    /* \"#utility.yul\":648:676   */\n  and\n    /* \"#utility.yul\":638:676   */\n  swap1\n  pop\n    /* \"#utility.yul\":580:682   */\n  swap2\n  swap1\n  pop\n  jump\t// out\n    /* \"#utility.yul\":688:868   */\ntag_16:\n    /* \"#utility.yul\":736:813   */\n  0x4e487b7100000000000000000000000000000000000000000000000000000000\n    /* \"#utility.yul\":733:734   */\n  0x00\n    /* \"#utility.yul\":726:814   */\n  mstore\n    /* \"#utility.yul\":833:837   */\n  0x41\n    /* \"#utility.yul\":830:831   */\n  0x04\n    /* \"#utility.yul\":823:838   */\n  mstore\n    /* \"#utility.yul\":857:861   */\n  0x24\n    /* \"#utility.yul\":854:855   */\n  0x00\n    /* \"#utility.yul\":847:862   */\n  revert\n    /* \"#utility.yul\":874:1155   */\ntag_17:\n    /* \"#utility.yul\":957:984   */\n  tag_54\n    /* \"#utility.yul\":979:983   */\n  dup3\n    /* \"#utility.yul\":957:984   */\n  tag_15\n  jump\t// in\ntag_54:\n    /* \"#utility.yul\":949:955   */\n  dup2\n    /* \"#utility.yul\":945:985   */\n  add\n    /* \"#utility.yul\":1087:1093   */\n  dup2\n    /* \"#utility.yul\":1075:1085   */\n  dup2\n    /* \"#utility.yul\":1072:1094   */\n  lt\n    /* \"#utility.yul\":1051:1069   */\n  0xffffffffffffffff\n    /* \"#utility.yul\":1039:1049   */\n  dup3\n    /* \"#utility.yul\":1036:1070   */\n  gt\n    /* \"#utility.yul\":1033:1095   */\n  or\n    /* \"#utility.yul\":1030:1118   */\n  iszero\n  tag_55\n  jumpi\n    /* \"#utility.yul\":1098:1116   */\n  tag_56\n  tag_16\n  jump\t// in\ntag_56:\n    /* \"#utility.yul\":1030:1118   */\ntag_55:\n    /* \"#utility.yul\":1138:1148   */\n  dup1\n    /* \"#utility.yul\":1134:1136   */\n  0x40\n    /* \"#utility.yul\":1127:1149   */\n  mstore\n    /* \"#utility.yul\":917:1155   */\n  pop\n    /* \"#utility.yul\":874:1155   */\n  pop\n  pop\n  jump\t// out\n    /* \"#utility.yul\":1161:1290   */\ntag_18:\n    /* \"#utility.yul\":1195:1201   */\n  0x00\n    /* \"#utility.yul\":1222:1242   */\n  tag_58\n  tag_10\n  jump\t// in\ntag_58:\n    /* \"#utility.yul\":1212:1242   */\n  swap1\n  pop\n    /* \"#utility.yul\":1251:1284   */\n  tag_59\n    /* \"#utility.yul\":1279:1283   */\n  dup3\n    /* \"#utility.yul\":1271:1277   */\n  dup3\n    /* \"#utility.yul\":1251:1284   */\n  tag_17\n  jump\t// in\ntag_59:\n    /* \"#utility.yul\":1161:1290   */\n  swap2\n  swap1\n  pop\n  jump\t// out\n    /* \"#utility.yul\":1296:1604   */\ntag_19:\n    /* \"#utility.yul\":1358:1362   */\n  0x00\n    /* \"#utility.yul\":1448:1466   */\n  0xffffffffffffffff\n    /* \"#utility.yul\":1440:1446   */\n  dup3\n    /* \"#utility.yul\":1437:1467   */\n  gt\n    /* \"#utility.yul\":1434:1490   */\n  iszero\n  tag_61\n  jumpi\n    /* \"#utility.yul\":1470:1488   */\n  tag_62\n  tag_16\n  jump\t// in\ntag_62:\n    /* \"#utility.yul\":1434:1490   */\ntag_61:\n    /* \"#utility.yul\":1508:1537   */\n  tag_63\n    /* \"#utility.yul\":1530:1536   */\n  dup3\n    /* \"#utility.yul\":1508:1537   */\n  tag_15\n  jump\t// in\ntag_63:\n    /* \"#utility.yul\":1500:1537   */\n  swap1\n  pop\n    /* \"#utility.yul\":1592:1596   */\n  0x20\n    /* \"#utility.yul\":1586:1590   */\n  dup2\n    /* \"#utility.yul\":1582:1597   */\n  add\n    /* \"#utility.yul\":1574:1597   */\n  swap1\n  pop\n    /* \"#utility.yul\":1296:1604   */\n  swap2\n  swap1\n  pop\n  jump\t// out\n    /* \"#utility.yul\":1610:1856   */\ntag_20:\n    /* \"#utility.yul\":1691:1692   */\n  0x00\n    /* \"#utility.yul\":1701:1814   */\ntag_65:\n    /* \"#utility.yul\":1715:1721   */\n  dup4\n    /* \"#utility.yul\":1712:1713   */\n  dup2\n    /* \"#utility.yul\":1709:1722   */\n  lt\n    /* \"#utility.yul\":1701:1814   */\n  iszero\n  tag_67\n  jumpi\n    /* \"#utility.yul\":1800:1801   */\n  dup1\n    /* \"#utility.yul\":1795:1798   */\n  dup3\n    /* \"#utility.yul\":1791:1802   */\n  add\n    /* \"#utility.yul\":1785:1803   */\n  mload\n    /* \"#utility.yul\":1781:1782   */\n  dup2\n    /* \"#utility.yul\":1776:1779   */\n  dup5\n    /* \"#utility.yul\":1772:1783   */\n  add\n    /* \"#utility.yul\":1765:1804   */\n  mstore\n    /* \"#utility.yul\":1737:1739   */\n  0x20\n    /* \"#utility.yul\":1734:1735   */\n  dup2\n    /* \"#utility.yul\":1730:1740   */\n  add\n    /* \"#utility.yul\":1725:1740   */\n  swap1\n  pop\n    /* \"#utility.yul\":1701:1814   */\n  jump(tag_65)\ntag_67:\n    /* \"#utility.yul\":1848:1849   */\n  0x00\n    /* \"#utility.yul\":1839:1845   */\n  dup5\n    /* \"#utility.yul\":1834:1837   */\n  dup5\n    /* \"#utility.yul\":1830:1846   */\n  add\n    /* \"#utility.yul\":1823:1850   */\n  mstore\n    /* \"#utility.yul\":1672:1856   */\n  pop\n    /* \"#utility.yul\":1610:1856   */\n  pop\n  pop\n  pop\n  jump\t// out\n    /* \"#utility.yul\":1862:2296   */\ntag_21:\n    /* \"#utility.yul\":1951:1956   */\n  0x00\n    /* \"#utility.yul\":1976:2042   */\n  tag_69\n    /* \"#utility.yul\":1992:2041   */\n  tag_70\n    /* \"#utility.yul\":2034:2040   */\n  dup5\n    /* \"#utility.yul\":1992:2041   */\n  tag_19\n  jump\t// in\ntag_70:\n    /* \"#utility.yul\":1976:2042   */\n  tag_18\n  jump\t// in\ntag_69:\n    /* \"#utility.yul\":1967:2042   */\n  swap1\n  pop\n    /* \"#utility.yul\":2065:2071   */\n  dup3\n    /* \"#utility.yul\":2058:2063   */\n  dup2\n    /* \"#utility.yul\":2051:2072   */\n  mstore\n    /* \"#utility.yul\":2103:2107   */\n  0x20\n    /* \"#utility.yul\":2096:2101   */\n  dup2\n    /* \"#utility.yul\":2092:2108   */\n  add\n    /* \"#utility.yul\":2141:2144   */\n  dup5\n    /* \"#utility.yul\":2132:2138   */\n  dup5\n    /* \"#utility.yul\":2127:2130   */\n  dup5\n    /* \"#utility.yul\":2123:2139   */\n  add\n    /* \"#utility.yul\":2120:2145   */\n  gt\n    /* \"#utility.yul\":2117:2229   */\n  iszero\n  tag_71\n  jumpi\n    /* \"#utility.yul\":2148:2227   */\n  tag_72\n  tag_14\n  jump\t// in\ntag_72:\n    /* \"#utility.yul\":2117:2229   */\ntag_71:\n    /* \"#utility.yul\":2238:2290   */\n  tag_73\n    /* \"#utility.yul\":2283:2289   */\n  dup5\n    /* \"#utility.yul\":2278:2281   */\n  dup3\n    /* \"#utility.yul\":2273:2276   */\n  dup6\n    /* \"#utility.yul\":2238:2290   */\n  tag_20\n  jump\t// in\ntag_73:\n    /* \"#utility.yul\":1957:2296   */\n  pop\n    /* \"#utility.yul\":1862:2296   */\n  swap4\n  swap3\n  pop\n  pop\n  pop\n  jump\t// out\n    /* \"#utility.yul\":2316:2671   */\ntag_22:\n    /* \"#utility.yul\":2383:2388   */\n  0x00\n    /* \"#utility.yul\":2432:2435   */\n  dup3\n    /* \"#utility.yul\":2425:2429   */\n  0x1f\n    /* \"#utility.yul\":2417:2423   */\n  dup4\n    /* \"#utility.yul\":2413:2430   */\n  add\n    /* \"#utility.yul\":2409:2436   */\n  slt\n    /* \"#utility.yul\":2399:2521   */\n  tag_75\n  jumpi\n    /* \"#utility.yul\":2440:2519   */\n  tag_76\n  tag_13\n  jump\t// in\ntag_76:\n    /* \"#utility.yul\":2399:2521   */\ntag_75:\n    /* \"#utility.yul\":2550:2556   */\n  dup2\n    /* \"#utility.yul\":2544:2557   */\n  mload\n    /* \"#utility.yul\":2575:2665   */\n  tag_77\n    /* \"#utility.yul\":2661:2664   */\n  dup5\n    /* \"#utility.yul\":2653:2659   */\n  dup3\n    /* \"#utility.yul\":2646:2650   */\n  0x20\n    /* \"#utility.yul\":2638:2644   */\n  dup7\n    /* \"#utility.yul\":2634:2651   */\n  add\n    /* \"#utility.yul\":2575:2665   */\n  tag_21\n  jump\t// in\ntag_77:\n    /* \"#utility.yul\":2566:2665   */\n  swap2\n  pop\n    /* \"#utility.yul\":2389:2671   */\n  pop\n    /* \"#utility.yul\":2316:2671   */\n  swap3\n  swap2\n  pop\n  pop\n  jump\t// out\n    /* \"#utility.yul\":2677:2763   */\ntag_23:\n    /* \"#utility.yul\":2712:2719   */\n  0x00\n    /* \"#utility.yul\":2752:2756   */\n  0xff\n    /* \"#utility.yul\":2745:2750   */\n  dup3\n    /* \"#utility.yul\":2741:2757   */\n  and\n    /* \"#utility.yul\":2730:2757   */\n  swap1\n  pop\n    /* \"#utility.yul\":2677:2763   */\n  swap2\n  swap1\n  pop\n  jump\t// out\n    /* \"#utility.yul\":2769:2887   */\ntag_24:\n    /* \"#utility.yul\":2840:2862   */\n  tag_80\n    /* \"#utility.yul\":2856:2861   */\n  dup2\n    /* \"#utility.yul\":2840:2862   */\n  tag_23\n  jump\t// in\ntag_80:\n    /* \"#utility.yul\":2833:2838   */\n  dup2\n    /* \"#utility.yul\":2830:2863   */\n  eq\n    /* \"#utility.yul\":2820:2881   */\n  tag_81\n  jumpi\n    /* \"#utility.yul\":2877:2878   */\n  0x00\n    /* \"#utility.yul\":2874:2875   */\n  dup1\n    /* \"#utility.yul\":2867:2879   */\n  revert\n    /* \"#utility.yul\":2820:2881   */\ntag_81:\n    /* \"#utility.yul\":2769:2887   */\n  pop\n  jump\t// out\n    /* \"#utility.yul\":2893:3032   */\ntag_25:\n    /* \"#utility.yul\":2948:2953   */\n  0x00\n    /* \"#utility.yul\":2979:2985   */\n  dup2\n    /* \"#utility.yul\":2973:2986   */\n  mload\n    /* \"#utility.yul\":2964:2986   */\n  swap1\n  pop\n    /* \"#utility.yul\":2995:3026   */\n  tag_83\n    /* \"#utility.yul\":3020:3025   */\n  dup2\n    /* \"#utility.yul\":2995:3026   */\n  tag_24\n  jump\t// in\ntag_83:\n    /* \"#utility.yul\":2893:3032   */\n  swap3\n  swap2\n  pop\n  pop\n  jump\t// out\n    /* \"#utility.yul\":3038:4043   */\ntag_3:\n    /* \"#utility.yul\":3144:3150   */\n  0x00\n    /* \"#utility.yul\":3152:3158   */\n  dup1\n    /* \"#utility.yul\":3160:3166   */\n  0x00\n    /* \"#utility.yul\":3209:3211   */\n  0x60\n    /* \"#utility.yul\":3197:3206   */\n  dup5\n    /* \"#utility.yul\":3188:3195   */\n  dup7\n    /* \"#utility.yul\":3184:3207   */\n  sub\n    /* \"#utility.yul\":3180:3212   */\n  slt\n    /* \"#utility.yul\":3177:3296   */\n  iszero\n  tag_85\n  jumpi\n    /* \"#utility.yul\":3215:3294   */\n  tag_86\n  tag_11\n  jump\t// in\ntag_86:\n    /* \"#utility.yul\":3177:3296   */\ntag_85:\n    /* \"#utility.yul\":3356:3357   */\n  0x00\n    /* \"#utility.yul\":3345:3354   */\n  dup5\n    /* \"#utility.yul\":3341:3358   */\n  add\n    /* \"#utility.yul\":3335:3359   */\n  mload\n    /* \"#utility.yul\":3386:3404   */\n  0xffffffffffffffff\n    /* \"#utility.yul\":3378:3384   */\n  dup2\n    /* \"#utility.yul\":3375:3405   */\n  gt\n    /* \"#utility.yul\":3372:3489   */\n  iszero\n  tag_87\n  jumpi\n    /* \"#utility.yul\":3408:3487   */\n  tag_88\n  tag_12\n  jump\t// in\ntag_88:\n    /* \"#utility.yul\":3372:3489   */\ntag_87:\n    /* \"#utility.yul\":3513:3587   */\n  tag_89\n    /* \"#utility.yul\":3579:3586   */\n  dup7\n    /* \"#utility.yul\":3570:3576   */\n  dup3\n    /* \"#utility.yul\":3559:3568   */\n  dup8\n    /* \"#utility.yul\":3555:3577   */\n  add\n    /* \"#utility.yul\":3513:3587   */\n  tag_22\n  jump\t// in\ntag_89:\n    /* \"#utility.yul\":3503:3587   */\n  swap4\n  pop\n    /* \"#utility.yul\":3306:3597   */\n  pop\n    /* \"#utility.yul\":3657:3659   */\n  0x20\n    /* \"#utility.yul\":3646:3655   */\n  dup5\n    /* \"#utility.yul\":3642:3660   */\n  add\n    /* \"#utility.yul\":3636:3661   */\n  mload\n    /* \"#utility.yul\":3688:3706   */\n  0xffffffffffffffff\n    /* \"#utility.yul\":3680:3686   */\n  dup2\n    /* \"#utility.yul\":3677:3707   */\n  gt\n    /* \"#utility.yul\":3674:3791   */\n  iszero\n  tag_90\n  jumpi\n    /* \"#utility.yul\":3710:3789   */\n  tag_91\n  tag_12\n  jump\t// in\ntag_91:\n    /* \"#utility.yul\":3674:3791   */\ntag_90:\n    /* \"#utility.yul\":3815:3889   */\n  tag_92\n    /* \"#utility.yul\":3881:3888   */\n  dup7\n    /* \"#utility.yul\":3872:3878   */\n  dup3\n    /* \"#utility.yul\":3861:3870   */\n  dup8\n    /* \"#utility.yul\":3857:3879   */\n  add\n    /* \"#utility.yul\":3815:3889   */\n  tag_22\n  jump\t// in\ntag_92:\n    /* \"#utility.yul\":3805:3889   */\n  swap3\n  pop\n    /* \"#utility.yul\":3607:3899   */\n  pop\n    /* \"#utility.yul\":3938:3940   */\n  0x40\n    /* \"#utility.yul\":3964:4026   */\n  tag_93\n    /* \"#utility.yul\":4018:4025   */\n  dup7\n    /* \"#utility.yul\":4009:4015   */\n  dup3\n    /* \"#utility.yul\":3998:4007   */\n  dup8\n    /* \"#utility.yul\":3994:4016   */\n  add\n    /* \"#utility.yul\":3964:4026   */\n  tag_25\n  jump\t// in\ntag_93:\n    /* \"#utility.yul\":3954:4026   */\n  swap2\n  pop\n    /* \"#utility.yul\":3909:4036   */\n  pop\n    /* \"#utility.yul\":3038:4043   */\n  swap3\n  pop\n  swap3\n  pop\n  swap3\n  jump\t// out\n    /* \"#utility.yul\":4049:4148   */\ntag_26:\n    /* \"#utility.yul\":4101:4107   */\n  0x00\n    /* \"#utility.yul\":4135:4140   */\n  dup2\n    /* \"#utility.yul\":4129:4141   */\n  mload\n    /* \"#utility.yul\":4119:4141   */\n  swap1\n  pop\n    /* \"#utility.yul\":4049:4148   */\n  swap2\n  swap1\n  pop\n  jump\t// out\n    /* \"#utility.yul\":4154:4334   */\ntag_27:\n    /* \"#utility.yul\":4202:4279   */\n  0x4e487b7100000000000000000000000000000000000000000000000000000000\n    /* \"#utility.yul\":4199:4200   */\n  0x00\n    /* \"#utility.yul\":4192:4280   */\n  mstore\n    /* \"#utility.yul\":4299:4303   */\n  0x22\n    /* \"#utility.yul\":4296:4297   */\n  0x04\n    /* \"#utility.yul\":4289:4304   */\n  mstore\n    /* \"#utility.yul\":4323:4327   */\n  0x24\n    /* \"#utility.yul\":4320:4321   */\n  0x00\n    /* \"#utility.yul\":4313:4328   */\n  revert\n    /* \"#utility.yul\":4340:4660   */\ntag_28:\n    /* \"#utility.yul\":4384:4390   */\n  0x00\n    /* \"#utility.yul\":4421:4422   */\n  0x02\n    /* \"#utility.yul\":4415:4419   */\n  dup3\n    /* \"#utility.yul\":4411:4423   */\n  div\n    /* \"#utility.yul\":4401:4423   */\n  swap1\n  pop\n    /* \"#utility.yul\":4468:4469   */\n  0x01\n    /* \"#utility.yul\":4462:4466   */\n  dup3\n    /* \"#utility.yul\":4458:4470   */\n  and\n    /* \"#utility.yul\":4489:4507   */\n  dup1\n    /* \"#utility.yul\":4479:4560   */\n  tag_97\n  jumpi\n    /* \"#utility.yul\":4545:4549   */\n  0x7f\n    /* \"#utility.yul\":4537:4543   */\n  dup3\n    /* \"#utility.yul\":4533:4550   */\n  and\n    /* \"#utility.yul\":4523:4550   */\n  swap2\n  pop\n    /* \"#utility.yul\":4479:4560   */\ntag_97:\n    /* \"#utility.yul\":4607:4609   */\n  0x20\n    /* \"#utility.yul\":4599:4605   */\n  dup3\n    /* \"#utility.yul\":4596:4610   */\n  lt\n    /* \"#utility.yul\":4576:4594   */\n  dup2\n    /* \"#utility.yul\":4573:4611   */\n  sub\n    /* \"#utility.yul\":4570:4654   */\n  tag_98\n  jumpi\n    /* \"#utility.yul\":4626:4644   */\n  tag_99\n  tag_27\n  jump\t// in\ntag_99:\n    /* \"#utility.yul\":4570:4654   */\ntag_98:\n    /* \"#utility.yul\":4391:4660   */\n  pop\n    /* \"#utility.yul\":4340:4660   */\n  swap2\n  swap1\n  pop\n  jump\t// out\n    /* \"#utility.yul\":4666:4807   */\ntag_29:\n    /* \"#utility.yul\":4715:4719   */\n  0x00\n    /* \"#utility.yul\":4738:4741   */\n  dup2\n    /* \"#utility.yul\":4730:4741   */\n  swap1\n  pop\n    /* \"#utility.yul\":4761:4764   */\n  dup2\n    /* \"#utility.yul\":4758:4759   */\n  0x00\n    /* \"#utility.yul\":4751:4765   */\n  mstore\n    /* \"#utility.yul\":4795:4799   */\n  0x20\n    /* \"#utility.yul\":4792:4793   */\n  0x00\n    /* \"#utility.yul\":4782:4800   */\n  keccak256\n    /* \"#utility.yul\":4774:4800   */\n  swap1\n  pop\n    /* \"#utility.yul\":4666:4807   */\n  swap2\n  swap1\n  pop\n  jump\t// out\n    /* \"#utility.yul\":4813:4906   */\ntag_30:\n    /* \"#utility.yul\":4850:4856   */\n  0x00\n    /* \"#utility.yul\":4897:4899   */\n  0x20\n    /* \"#utility.yul\":4892:4894   */\n  0x1f\n    /* \"#utility.yul\":4885:4890   */\n  dup4\n    /* \"#utility.yul\":4881:4895   */\n  add\n    /* \"#utility.yul\":4877:4900   */\n  div\n    /* \"#utility.yul\":4867:4900   */\n  swap1\n  pop\n    /* \"#utility.yul\":4813:4906   */\n  swap2\n  swap1\n  pop\n  jump\t// out\n    /* \"#utility.yul\":4912:5019   */\ntag_31:\n    /* \"#utility.yul\":4956:4964   */\n  0x00\n    /* \"#utility.yul\":5006:5011   */\n  dup3\n    /* \"#utility.yul\":5000:5004   */\n  dup3\n    /* \"#utility.yul\":4996:5012   */\n  shl\n    /* \"#utility.yul\":4975:5012   */\n  swap1\n  pop\n    /* \"#utility.yul\":4912:5019   */\n  swap3\n  swap2\n  pop\n  pop\n  jump\t// out\n    /* \"#utility.yul\":5025:5418   */\ntag_32:\n    /* \"#utility.yul\":5094:5100   */\n  0x00\n    /* \"#utility.yul\":5144:5145   */\n  0x08\n    /* \"#utility.yul\":5132:5142   */\n  dup4\n    /* \"#utility.yul\":5128:5146   */\n  mul\n    /* \"#utility.yul\":5167:5264   */\n  tag_104\n    /* \"#utility.yul\":5197:5263   */\n  0xffffffffffffffffffffffffffffffffffffffffffffffffffffffffffffffff\n    /* \"#utility.yul\":5186:5195   */\n  dup3\n    /* \"#utility.yul\":5167:5264   */\n  tag_31\n  jump\t// in\ntag_104:\n    /* \"#utility.yul\":5285:5324   */\n  tag_105\n    /* \"#utility.yul\":5315:5323   */\n  dup7\n    /* \"#utility.yul\":5304:5313   */\n  dup4\n    /* \"#utility.yul\":5285:5324   */\n  tag_31\n  jump\t// in\ntag_105:\n    /* \"#utility.yul\":5273:5324   */\n  swap6\n  pop\n    /* \"#utility.yul\":5357:5361   */\n  dup1\n    /* \"#utility.yul\":5353:5362   */\n  not\n    /* \"#utility.yul\":5346:5351   */\n  dup5\n    /* \"#utility.yul\":5342:5363   */\n  and\n    /* \"#utility.yul\":5333:5363   */\n  swap4\n  pop\n    /* \"#utility.yul\":5406:5410   */\n  dup1\n    /* \"#utility.yul\":5396:5404   */\n  dup7\n    /* \"#utility.yul\":5392:5411   */\n  and\n    /* \"#utility.yul\":5385:5390   */\n  dup5\n    /* \"#utility.yul\":5382:5412   */\n  or\n    /* \"#utility.yul\":5372:5412   */\n  swap3\n  pop\n    /* \"#utility.yul\":5101:5418   */\n  pop\n  pop\n    /* \"#utility.yul\":5025:5418   */\n  swap4\n  swap3\n  pop\n  pop\n  pop\n  jump\t// out\n    /* \"#utility.yul\":5424:5501   */\ntag_33:\n    /* \"#utility.yul\":5461:5468   */\n  0x00\n    /* \"#utility.yul\":5490:5495   */\n  dup2\n    /* \"#utility.yul\":5479:5495   */\n  swap1\n  pop\n    /* \"#utility.yul\":5424:5501   */\n  swap2\n  swap1\n  pop\n  jump\t// out\n    /* \"#utility.yul\":5507:5567   */\ntag_34:\n    /* \"#utility.yul\":5535:5538   */\n  0x00\n    /* \"#utility.yul\":5556:5561   */\n  dup2\n    /* \"#utility.yul\":5549:5561   */\n  swap1\n  pop\n    /* \"#utility.yul\":5507:5567   */\n  swap2\n  swap1\n  pop\n  jump\t// out\n    /* \"#utility.yul\":5573:5715   */\ntag_35:\n    /* \"#utility.yul\":5623:5632   */\n  0x00\n    /* \"#utility.yul\":5656:5709   */\n  tag_109\n    /* \"#utility.yul\":5674:5708   */\n  tag_110\n    /* \"#utility.yul\":5683:5707   */\n  tag_111\n    /* \"#utility.yul\":5701:5706   */\n  dup5\n    /* \"#utility.yul\":5683:5707   */\n  tag_33\n  jump\t// in\ntag_111:\n    /* \"#utility.yul\":5674:5708   */\n  tag_34\n  jump\t// in\ntag_110:\n    /* \"#utility.yul\":5656:5709   */\n  tag_33\n  jump\t// in\ntag_109:\n    /* \"#utility.yul\":5643:5709   */\n  swap1\n  pop\n    /* \"#utility.yul\":5573:5715   */\n  swap2\n  swap1\n  pop\n  jump\t// out\n    /* \"#utility.yul\":5721:5796   */\ntag_36:\n    /* \"#utility.yul\":5764:5767   */\n  0x00\n    /* \"#utility.yul\":5785:5790   */\n  dup2\n    /* \"#utility.yul\":5778:5790   */\n  swap1\n  pop\n    /* \"#utility.yul\":5721:5796   */\n  swap2\n  swap1\n  pop\n  jump\t// out\n    /* \"#utility.yul\":5802:6071   */\ntag_37:\n    /* \"#utility.yul\":5912:5951   */\n  tag_114\n    /* \"#utility.yul\":5943:5950   */\n  dup4\n    /* \"#utility.yul\":5912:5951   */\n  tag_35\n  jump\t// in\ntag_114:\n    /* \"#utility.yul\":5973:6064   */\n  tag_115\n    /* \"#utility.yul\":6022:6063   */\n  tag_116\n    /* \"#utility.yul\":6046:6062   */\n  dup3\n    /* \"#utility.yul\":6022:6063   */\n  tag_36\n  jump\t// in\ntag_116:\n    /* \"#utility.yul\":6014:6020   */\n  dup5\n    /* \"#utility.yul\":6007:6011   */\n  dup5\n    /* \"#utility.yul\":6001:6012   */\n  sload\n    /* \"#utility.yul\":5973:6064   */\n  tag_32\n  jump\t// in\ntag_115:\n    /* \"#utility.yul\":5967:5971   */\n  dup3\n    /* \"#utility.yul\":5960:6065   */\n  sstore\n    /* \"#utility.yul\":5878:6071   */\n  pop\n    /* \"#utility.yul\":5802:6071   */\n  pop\n  pop\n  pop\n  jump\t// out\n    /* \"#utility.yul\":6077:6150   */\ntag_38:\n    /* \"#utility.yul\":6122:6125   */\n  0x00\n    /* \"#utility.yul\":6077:6150   */\n  swap1\n  jump\t// out\n    /* \"#utility.yul\":6156:6345   */\ntag_39:\n    /* \"#utility.yul\":6233:6265   */\n  tag_119\n  tag_38\n  jump\t// in\ntag_119:\n    /* \"#utility.yul\":6274:6339   */\n  tag_120\n    /* \"#utility.yul\":6332:6338   */\n  dup2\n    /* \"#utility.yul\":6324:6330   */\n  dup5\n    /* \"#utility.yul\":6318:6322   */\n  dup5\n    /* \"#utility.yul\":6274:6339   */\n  tag_37\n  jump\t// in\ntag_120:\n    /* \"#utility.yul\":6209:6345   */\n  pop\n    /* \"#utility.yul\":6156:6345   */\n  pop\n  pop\n  jump\t// out\n    /* \"#utility.yul\":6351:6537   */\ntag_40:\n    /* \"#utility.yul\":6411:6531   */\ntag_122:\n    /* \"#utility.yul\":6428:6431   */\n  dup2\n    /* \"#utility.yul\":6421:6426   */\n  dup2\n    /* \"#utility.yul\":6418:6432   */\n  lt\n    /* \"#utility.yul\":6411:6531   */\n  iszero\n  tag_124\n  jumpi\n    /* \"#utility.yul\":6482:6521   */\n  tag_125\n    /* \"#utility.yul\":6519:6520   */\n  0x00\n    /* \"#utility.yul\":6512:6517   */\n  dup3\n    /* \"#utility.yul\":6482:6521   */\n  tag_39\n  jump\t// in\ntag_125:\n    /* \"#utility.yul\":6455:6456   */\n  0x01\n    /* \"#utility.yul\":6448:6453   */\n  dup2\n    /* \"#utility.yul\":6444:6457   */\n  add\n    /* \"#utility.yul\":6435:6457   */\n  swap1\n  pop\n    /* \"#utility.yul\":6411:6531   */\n  jump(tag_122)\ntag_124:\n    /* \"#utility.yul\":6351:6537   */\n  pop\n  pop\n  jump\t// out\n    /* \"#utility.yul\":6543:7086   */\ntag_41:\n    /* \"#utility.yul\":6644:6646   */\n  0x1f\n    /* \"#utility.yul\":6639:6642   */\n  dup3\n    /* \"#utility.yul\":6636:6647   */\n  gt\n    /* \"#utility.yul\":6633:7079   */\n  iszero\n  tag_127\n  jumpi\n    /* \"#utility.yul\":6678:6716   */\n  tag_128\n    /* \"#utility.yul\":6710:6715   */\n  dup2\n    /* \"#utility.yul\":6678:6716   */\n  tag_29\n  jump\t// in\ntag_128:\n    /* \"#utility.yul\":6762:6791   */\n  tag_129\n    /* \"#utility.yul\":6780:6790   */\n  dup5\n    /* \"#utility.yul\":6762:6791   */\n  tag_30\n  jump\t// in\ntag_129:\n    /* \"#utility.yul\":6752:6760   */\n  dup2\n    /* \"#utility.yul\":6748:6792   */\n  add\n    /* \"#utility.yul\":6945:6947   */\n  0x20\n    /* \"#utility.yul\":6933:6943   */\n  dup6\n    /* \"#utility.yul\":6930:6948   */\n  lt\n    /* \"#utility.yul\":6927:6976   */\n  iszero\n  tag_130\n  jumpi\n    /* \"#utility.yul\":6966:6974   */\n  dup2\n    /* \"#utility.yul\":6951:6974   */\n  swap1\n  pop\n    /* \"#utility.yul\":6927:6976   */\ntag_130:\n    /* \"#utility.yul\":6989:7069   */\n  tag_131\n    /* \"#utility.yul\":7045:7067   */\n  tag_132\n    /* \"#utility.yul\":7063:7066   */\n  dup6\n    /* \"#utility.yul\":7045:7067   */\n  tag_30\n  jump\t// in\ntag_132:\n    /* \"#utility.yul\":7035:7043   */\n  dup4\n    /* \"#utility.yul\":7031:7068   */\n  add\n    /* \"#utility.yul\":7018:7029   */\n  dup3\n    /* \"#utility.yul\":6989:7069   */\n  tag_40\n  jump\t// in\ntag_131:\n    /* \"#utility.yul\":6648:7079   */\n  pop\n  pop\n    /* \"#utility.yul\":6633:7079   */\ntag_127:\n    /* \"#utility.yul\":6543:7086   */\n  pop\n  pop\n  pop\n  jump\t// out\n    /* \"#utility.yul\":7092:7209   */\ntag_42:\n    /* \"#utility.yul\":7146:7154   */\n  0x00\n    /* \"#utility.yul\":7196:7201   */\n  dup3\n    /* \"#utility.yul\":7190:7194   */\n  dup3\n    /* \"#utility.yul\":7186:7202   */\n  shr\n    /* \"#utility.yul\":7165:7202   */\n  swap1\n  pop\n    /* \"#utility.yul\":7092:7209   */\n  swap3\n  swap2\n  pop\n  pop\n  jump\t// out\n    /* \"#utility.yul\":7215:7384   */\ntag_43:\n    /* \"#utility.yul\":7259:7265   */\n  0x00\n    /* \"#utility.yul\":7292:7343   */\n  tag_135\n    /* \"#utility.yul\":7340:7341   */\n  0x00\n    /* \"#utility.yul\":7336:7342   */\n  not\n    /* \"#utility.yul\":7328:7333   */\n  dup5\n    /* \"#utility.yul\":7325:7326   */\n  0x08\n    /* \"#utility.yul\":7321:7334   */\n  mul\n    /* \"#utility.yul\":7292:7343   */\n  tag_42\n  jump\t// in\ntag_135:\n    /* \"#utility.yul\":7288:7344   */\n  not\n    /* \"#utility.yul\":7373:7377   */\n  dup1\n    /* \"#utility.yul\":7367:7371   */\n  dup4\n    /* \"#utility.yul\":7363:7378   */\n  and\n    /* \"#utility.yul\":7353:7378   */\n  swap2\n  pop\n    /* \"#utility.yul\":7266:7384   */\n  pop\n    /* \"#utility.yul\":7215:7384   */\n  swap3\n  swap2\n  pop\n  pop\n  jump\t// out\n    /* \"#utility.yul\":7389:7684   */\ntag_44:\n    /* \"#utility.yul\":7465:7469   */\n  0x00\n    /* \"#utility.yul\":7611:7640   */\n  tag_137\n    /* \"#utility.yul\":7636:7639   */\n  dup4\n    /* \"#utility.yul\":7630:7634   */\n  dup4\n    /* \"#utility.yul\":7611:7640   */\n  tag_43\n  jump\t// in\ntag_137:\n    /* \"#utility.yul\":7603:7640   */\n  swap2\n  pop\n    /* \"#utility.yul\":7673:7676   */\n  dup3\n    /* \"#utility.yul\":7670:7671   */\n  0x02\n    /* \"#utility.yul\":7666:7677   */\n  mul\n    /* \"#utility.yul\":7660:7664   */\n  dup3\n    /* \"#utility.yul\":7657:7678   */\n  or\n    /* \"#utility.yul\":7649:7678   */\n  swap1\n  pop\n    /* \"#utility.yul\":7389:7684   */\n  swap3\n  swap2\n  pop\n  pop\n  jump\t// out\n    /* \"#utility.yul\":7689:9084   */\ntag_7:\n    /* \"#utility.yul\":7806:7843   */\n  tag_139\n    /* \"#utility.yul\":7839:7842   */\n  dup3\n    /* \"#utility.yul\":7806:7843   */\n  tag_26\n  jump\t// in\ntag_139:\n    /* \"#utility.yul\":7908:7926   */\n  0xffffffffffffffff\n    /* \"#utility.yul\":7900:7906   */\n  dup2\n    /* \"#utility.yul\":7897:7927   */\n  gt\n    /* \"#utility.yul\":7894:7950   */\n  iszero\n  tag_140\n  jumpi\n    /* \"#utility.yul\":7930:7948   */\n  tag_141\n  tag_16\n  jump\t// in\ntag_141:\n    /* \"#utility.yul\":7894:7950   */\ntag_140:\n    /* \"#utility.yul\":7974:8012   */\n  tag_142\n    /* \"#utility.yul\":8006:8010   */\n  dup3\n    /* \"#utility.yul\":8000:8011   */\n  sload\n    /* \"#utility.yul\":7974:8012   */\n  tag_28\n  jump\t// in\ntag_142:\n    /* \"#utility.yul\":8059:8126   */\n  tag_143\n    /* \"#utility.yul\":8119:8125   */\n  dup3\n    /* \"#utility.yul\":8111:8117   */\n  dup3\n    /* \"#utility.yul\":8105:8109   */\n  dup6\n    /* \"#utility.yul\":8059:8126   */\n  tag_41\n  jump\t// in\ntag_143:\n    /* \"#utility.yul\":8153:8154   */\n  0x00\n    /* \"#utility.yul\":8177:8181   */\n  0x20\n    /* \"#utility.yul\":8164:8181   */\n  swap1\n  pop\n    /* \"#utility.yul\":8209:8211   */\n  0x1f\n    /* \"#utility.yul\":8201:8207   */\n  dup4\n    /* \"#utility.yul\":8198:8212   */\n  gt\n    /* \"#utility.yul\":8226:8227   */\n  0x01\n    /* \"#utility.yul\":8221:8839   */\n  dup2\n  eq\n  tag_145\n  jumpi\n    /* \"#utility.yul\":8883:8884   */\n  0x00\n    /* \"#utility.yul\":8900:8906   */\n  dup5\n    /* \"#utility.yul\":8897:8974   */\n  iszero\n  tag_146\n  jumpi\n    /* \"#utility.yul\":8949:8958   */\n  dup3\n    /* \"#utility.yul\":8944:8947   */\n  dup8\n    /* \"#utility.yul\":8940:8959   */\n  add\n    /* \"#utility.yul\":8934:8960   */\n  mload\n    /* \"#utility.yul\":8925:8960   */\n  swap1\n  pop\n    /* \"#utility.yul\":8897:8974   */\ntag_146:\n    /* \"#utility.yul\":9000:9067   */\n  tag_147\n    /* \"#utility.yul\":9060:9066   */\n  dup6\n    /* \"#utility.yul\":9053:9058   */\n  dup3\n    /* \"#utility.yul\":9000:9067   */\n  tag_44\n  jump\t// in\ntag_147:\n    /* \"#utility.yul\":8994:8998   */\n  dup7\n    /* \"#utility.yul\":8987:9068   */\n  sstore\n    /* \"#utility.yul\":8856:9078   */\n  pop\n    /* \"#utility.yul\":8191:9078   */\n  jump(tag_144)\n    /* \"#utility.yul\":8221:8839   */\ntag_145:\n    /* \"#utility.yul\":8273:8277   */\n  0x1f\n    /* \"#utility.yul\":8269:8278   */\n  not\n    /* \"#utility.yul\":8261:8267   */\n  dup5\n    /* \"#utility.yul\":8257:8279   */\n  and\n    /* \"#utility.yul\":8307:8344   */\n  tag_148\n    /* \"#utility.yul\":8339:8343   */\n  dup7\n    /* \"#utility.yul\":8307:8344   */\n  tag_29\n  jump\t// in\ntag_148:\n    /* \"#utility.yul\":8366:8367   */\n  0x00\n    /* \"#utility.yul\":8380:8588   */\ntag_149:\n    /* \"#utility.yul\":8394:8401   */\n  dup3\n    /* \"#utility.yul\":8391:8392   */\n  dup2\n    /* \"#utility.yul\":8388:8402   */\n  lt\n    /* \"#utility.yul\":8380:8588   */\n  iszero\n  tag_151\n  jumpi\n    /* \"#utility.yul\":8473:8482   */\n  dup5\n    /* \"#utility.yul\":8468:8471   */\n  dup10\n    /* \"#utility.yul\":8464:8483   */\n  add\n    /* \"#utility.yul\":8458:8484   */\n  mload\n    /* \"#utility.yul\":8450:8456   */\n  dup3\n    /* \"#utility.yul\":8443:8485   */\n  sstore\n    /* \"#utility.yul\":8524:8525   */\n  0x01\n    /* \"#utility.yul\":8516:8522   */\n  dup3\n    /* \"#utility.yul\":8512:8526   */\n  add\n    /* \"#utility.yul\":8502:8526   */\n  swap2\n  pop\n    /* \"#utility.yul\":8571:8573   */\n  0x20\n    /* \"#utility.yul\":8560:8569   */\n  dup6\n    /* \"#utility.yul\":8556:8574   */\n  add\n    /* \"#utility.yul\":8543:8574   */\n  swap5\n  pop\n    /* \"#utility.yul\":8417:8421   */\n  0x20\n    /* \"#utility.yul\":8414:8415   */\n  dup2\n    /* \"#utility.yul\":8410:8422   */\n  add\n    /* \"#utility.yul\":8405:8422   */\n  swap1\n  pop\n    /* \"#utility.yul\":8380:8588   */\n  jump(tag_149)\ntag_151:\n    /* \"#utility.yul\":8616:8622   */\n  dup7\n    /* \"#utility.yul\":8607:8614   */\n  dup4\n    /* \"#utility.yul\":8604:8623   */\n  lt\n    /* \"#utility.yul\":8601:8780   */\n  iszero\n  tag_152\n  jumpi\n    /* \"#utility.yul\":8674:8683   */\n  dup5\n    /* \"#utility.yul\":8669:8672   */\n  dup10\n    /* \"#utility.yul\":8665:8684   */\n  add\n    /* \"#utility.yul\":8659:8685   */\n  mload\n    /* \"#utility.yul\":8717:8765   */\n  tag_153\n    /* \"#utility.yul\":8759:8763   */\n  0x1f\n    /* \"#utility.yul\":8751:8757   */\n  dup10\n    /* \"#utility.yul\":8747:8764   */\n  and\n    /* \"#utility.yul\":8736:8745   */\n  dup3\n    /* \"#utility.yul\":8717:8765   */\n  tag_43\n  jump\t// in\ntag_153:\n    /* \"#utility.yul\":8709:8715   */\n  dup4\n    /* \"#utility.yul\":8702:8766   */\n  sstore\n    /* \"#utility.yul\":8624:8780   */\n  pop\n    /* \"#utility.yul\":8601:8780   */\ntag_152:\n    /* \"#utility.yul\":8826:8827   */\n  0x01\n    /* \"#utility.yul\":8822:8823   */\n  0x02\n    /* \"#utility.yul\":8814:8820   */\n  dup9\n    /* \"#utility.yul\":8810:8824   */\n  mul\n    /* \"#utility.yul\":8806:8828   */\n  add\n    /* \"#utility.yul\":8800:8804   */\n  dup9\n    /* \"#utility.yul\":8793:8829   */\n  sstore\n    /* \"#utility.yul\":8228:8839   */\n  pop\n  pop\n  pop\n    /* \"#utility.yul\":8191:9078   */\ntag_144:\n  pop\n    /* \"#utility.yul\":7781:9084   */\n  pop\n  pop\n  pop\n    /* \"#utility.yul\":7689:9084   */\n  pop\n  pop\n  jump\t// out\n    /* \"contracts/openzeppelinERC20.sol\":174:4257  contract MyToken is IERC20 {... */\ntag_9:\n  dataSize(sub_0)\n  dup1\n  dataOffset(sub_0)\n  0x00\n  codecopy\n  0x00\n  return\nstop\n\nsub_0: assembly {\n        /* \"contracts/openzeppelinERC20.sol\":174:4257  contract MyToken is IERC20 {... */\n      mstore(0x40, 0x80)\n      callvalue\n      dup1\n      iszero\n      tag_1\n      jumpi\n      0x00\n      dup1\n      revert\n    tag_1:\n      pop\n      jumpi(tag_2, lt(calldatasize, 0x04))\n      shr(0xe0, calldataload(0x00))\n      dup1\n      0x42966c68\n      gt\n      tag_16\n      jumpi\n      dup1\n      0x95d89b41\n      gt\n      tag_17\n      jumpi\n      dup1\n      0x95d89b41\n      eq\n      tag_12\n      jumpi\n      dup1\n      0xa0712d68\n      eq\n      tag_13\n      jumpi\n      dup1\n      0xa9059cbb\n      eq\n      tag_14\n      jumpi\n      dup1\n      0xdd62ed3e\n      eq\n      tag_15\n      jumpi\n      jump(tag_2)\n    tag_17:\n      dup1\n      0x42966c68\n      eq\n      tag_9\n      jumpi\n      dup1\n      0x70a08231\n      eq\n      tag_10\n      jumpi\n      dup1\n      0x7ef2ed0b\n      eq\n      tag_11\n      jumpi\n      jump(tag_2)\n    tag_16:\n      dup1\n      0x06fdde03\n      eq\n      tag_3\n      jumpi\n      dup1\n      0x095ea7b3\n      eq\n      tag_4\n      jumpi\n      dup1\n      0x18160ddd\n      eq\n      tag_5\n      jumpi\n      dup1\n      0x23b872dd\n      eq\n      tag_6\n      jumpi\n      dup1\n      0x313ce567\n      eq\n      tag_7\n      jumpi\n      dup1\n      0x39509351\n      eq\n      tag_8\n      jumpi\n    tag_2:\n      0x00\n      dup1\n      revert\n        /* \"contracts/openzeppelinERC20.sol\":681:762  function name() public view returns (string memory) {... */\n    tag_3:\n      tag_18\n      tag_19\n      jump\t// in\n    tag_18:\n      mload(0x40)\n      tag_20\n      swap2\n      swap1\n      tag_21\n      jump\t// in\n    tag_20:\n      mload(0x40)\n      dup1\n      swap2\n      sub\n      swap1\n      return\n        /* \"contracts/openzeppelinERC20.sol\":1487:1643  function approve(address spender, uint256 amount) public override returns (bool) {... */\n    tag_4:\n      tag_22\n      0x04\n      dup1\n      calldatasize\n      sub\n      dup2\n      add\n      swap1\n      tag_23\n      swap2\n      swap1\n      tag_24\n      jump\t// in\n    tag_23:\n      tag_25\n      jump\t// in\n    tag_22:\n      mload(0x40)\n      tag_26\n      swap2\n      swap1\n      tag_27\n      jump\t// in\n    tag_26:\n      mload(0x40)\n      dup1\n      swap2\n      sub\n      swap1\n      return\n        /* \"contracts/openzeppelinERC20.sol\":946:1044  function totalSupply() public view override returns (uint256) {... */\n    tag_5:\n      tag_28\n      tag_29\n      jump\t// in\n    tag_28:\n      mload(0x40)\n      tag_30\n      swap2\n      swap1\n      tag_31\n      jump\t// in\n    tag_30:\n      mload(0x40)\n      dup1\n      swap2\n      sub\n      swap1\n      return\n        /* \"contracts/openzeppelinERC20.sol\":1649:2026  function transferFrom(address sender, address recipient, uint256 amount) public override returns(bool) {... */\n    tag_6:\n      tag_32\n      0x04\n      dup1\n      calldatasize\n      sub\n      dup2\n      add\n      swap1\n      tag_33\n      swap2\n      swap1\n      tag_34\n      jump\t// in\n    tag_33:\n      tag_35\n      jump\t// in\n    tag_32:\n      mload(0x40)\n      tag_36\n      swap2\n      swap1\n      tag_27\n      jump\t// in\n    tag_36:\n      mload(0x40)\n      dup1\n      swap2\n      sub\n      swap1\n      return\n        /* \"contracts/openzeppelinERC20.sol\":859:940  function decimals() public view returns (uint8) {... */\n    tag_7:\n      tag_37\n      tag_38\n      jump\t// in\n    tag_37:\n      mload(0x40)\n      tag_39\n      swap2\n      swap1\n      tag_40\n      jump\t// in\n    tag_39:\n      mload(0x40)\n      dup1\n      swap2\n      sub\n      swap1\n      return\n        /* \"contracts/openzeppelinERC20.sol\":2043:2254  function increaseAllowance(address spender, uint256 addedValue) public virtual returns (bool) {... */\n    tag_8:\n      tag_41\n      0x04\n      dup1\n      calldatasize\n      sub\n      dup2\n      add\n      swap1\n      tag_42\n      swap2\n      swap1\n      tag_24\n      jump\t// in\n    tag_42:\n      tag_43\n      jump\t// in\n    tag_41:\n      mload(0x40)\n      tag_44\n      swap2\n      swap1\n      tag_27\n      jump\t// in\n    tag_44:\n      mload(0x40)\n      dup1\n      swap2\n      sub\n      swap1\n      return\n        /* \"contracts/openzeppelinERC20.sol\":2647:2763  function burn (uint256 amount) public returns (bool) {... */\n    tag_9:\n      tag_45\n      0x04\n      dup1\n      calldatasize\n      sub\n      dup2\n      add\n      swap1\n      tag_46\n      swap2\n      swap1\n      tag_47\n      jump\t// in\n    tag_46:\n      tag_48\n      jump\t// in\n    tag_45:\n      mload(0x40)\n      tag_49\n      swap2\n      swap1\n      tag_27\n      jump\t// in\n    tag_49:\n      mload(0x40)\n      dup1\n      swap2\n      sub\n      swap1\n      return\n        /* \"contracts/openzeppelinERC20.sol\":1050:1167  function balanceOf(address account) public view override returns (uint256) {... */\n    tag_10:\n      tag_50\n      0x04\n      dup1\n      calldatasize\n      sub\n      dup2\n      add\n      swap1\n      tag_51\n      swap2\n      swap1\n      tag_52\n      jump\t// in\n    tag_51:\n      tag_53\n      jump\t// in\n    tag_50:\n      mload(0x40)\n      tag_54\n      swap2\n      swap1\n      tag_31\n      jump\t// in\n    tag_54:\n      mload(0x40)\n      dup1\n      swap2\n      sub\n      swap1\n      return\n        /* \"contracts/openzeppelinERC20.sol\":2260:2522  function decreaseAllowances(address spender, uint256 subtractedValue) public virtual returns(bool) {... */\n    tag_11:\n      tag_55\n      0x04\n      dup1\n      calldatasize\n      sub\n      dup2\n      add\n      swap1\n      tag_56\n      swap2\n      swap1\n      tag_24\n      jump\t// in\n    tag_56:\n      tag_57\n      jump\t// in\n    tag_55:\n      mload(0x40)\n      tag_58\n      swap2\n      swap1\n      tag_27\n      jump\t// in\n    tag_58:\n      mload(0x40)\n      dup1\n      swap2\n      sub\n      swap1\n      return\n        /* \"contracts/openzeppelinERC20.sol\":768:853  function symbol() public view returns (string memory) {... */\n    tag_12:\n      tag_59\n      tag_60\n      jump\t// in\n    tag_59:\n      mload(0x40)\n      tag_61\n      swap2\n      swap1\n      tag_21\n      jump\t// in\n    tag_61:\n      mload(0x40)\n      dup1\n      swap2\n      sub\n      swap1\n      return\n        /* \"contracts/openzeppelinERC20.sol\":2527:2642  function mint(uint256 amount) public returns (bool) {... */\n    tag_13:\n      tag_62\n      0x04\n      dup1\n      calldatasize\n      sub\n      dup2\n      add\n      swap1\n      tag_63\n      swap2\n      swap1\n      tag_47\n      jump\t// in\n    tag_63:\n      tag_64\n      jump\t// in\n    tag_62:\n      mload(0x40)\n      tag_65\n      swap2\n      swap1\n      tag_27\n      jump\t// in\n    tag_65:\n      mload(0x40)\n      dup1\n      swap2\n      sub\n      swap1\n      return\n        /* \"contracts/openzeppelinERC20.sol\":1173:1335  function transfer(address recipient, uint256 amount) public override returns (bool) {... */\n    tag_14:\n      tag_66\n      0x04\n      dup1\n      calldatasize\n      sub\n      dup2\n      add\n      swap1\n      tag_67\n      swap2\n      swap1\n      tag_24\n      jump\t// in\n    tag_67:\n      tag_68\n      jump\t// in\n    tag_66:\n      mload(0x40)\n      tag_69\n      swap2\n      swap1\n      tag_27\n      jump\t// in\n    tag_69:\n      mload(0x40)\n      dup1\n      swap2\n      sub\n      swap1\n      return\n        /* \"contracts/openzeppelinERC20.sol\":1341:1481  function allowance(address owner, address spender) public view override returns(uint256) {... */\n    tag_15:\n      tag_70\n      0x04\n      dup1\n      calldatasize\n      sub\n      dup2\n      add\n      swap1\n      tag_71\n      swap2\n      swap1\n      tag_72\n      jump\t// in\n    tag_71:\n      tag_73\n      jump\t// in\n    tag_70:\n      mload(0x40)\n      tag_74\n      swap2\n      swap1\n      tag_31\n      jump\t// in\n    tag_74:\n      mload(0x40)\n      dup1\n      swap2\n      sub\n      swap1\n      return\n        /* \"contracts/openzeppelinERC20.sol\":681:762  function name() public view returns (string memory) {... */\n    tag_19:\n        /* \"contracts/openzeppelinERC20.sol\":718:731  string memory */\n      0x60\n        /* \"contracts/openzeppelinERC20.sol\":750:755  _name */\n      0x03\n        /* \"contracts/openzeppelinERC20.sol\":743:755  return _name */\n      dup1\n      sload\n      tag_76\n      swap1\n      tag_77\n      jump\t// in\n    tag_76:\n      dup1\n      0x1f\n      add\n      0x20\n      dup1\n      swap2\n      div\n      mul\n      0x20\n      add\n      mload(0x40)\n      swap1\n      dup2\n      add\n      0x40\n      mstore\n      dup1\n      swap3\n      swap2\n      swap1\n      dup2\n      dup2\n      mstore\n      0x20\n      add\n      dup3\n      dup1\n      sload\n      tag_78\n      swap1\n      tag_77\n      jump\t// in\n    tag_78:\n      dup1\n      iszero\n      tag_79\n      jumpi\n      dup1\n      0x1f\n      lt\n      tag_80\n      jumpi\n      0x0100\n      dup1\n      dup4\n      sload\n      div\n      mul\n      dup4\n      mstore\n      swap2\n      0x20\n      add\n      swap2\n      jump(tag_79)\n    tag_80:\n      dup3\n      add\n      swap2\n      swap1\n      0x00\n      mstore\n      keccak256(0x00, 0x20)\n      swap1\n    tag_81:\n      dup2\n      sload\n      dup2\n      mstore\n      swap1\n      0x01\n      add\n      swap1\n      0x20\n      add\n      dup1\n      dup4\n      gt\n      tag_81\n      jumpi\n      dup3\n      swap1\n      sub\n      0x1f\n      and\n      dup3\n      add\n      swap2\n    tag_79:\n      pop\n      pop\n      pop\n      pop\n      pop\n      swap1\n      pop\n        /* \"contracts/openzeppelinERC20.sol\":681:762  function name() public view returns (string memory) {... */\n      swap1\n      jump\t// out\n        /* \"contracts/openzeppelinERC20.sol\":1487:1643  function approve(address spender, uint256 amount) public override returns (bool) {... */\n    tag_25:\n        /* \"contracts/openzeppelinERC20.sol\":1562:1566  bool */\n      0x00\n        /* \"contracts/openzeppelinERC20.sol\":1578:1615  _approve(msg.sender, spender, amount) */\n      tag_83\n        /* \"contracts/openzeppelinERC20.sol\":1587:1597  msg.sender */\n      caller\n        /* \"contracts/openzeppelinERC20.sol\":1599:1606  spender */\n      dup5\n        /* \"contracts/openzeppelinERC20.sol\":1608:1614  amount */\n      dup5\n        /* \"contracts/openzeppelinERC20.sol\":1578:1586  _approve */\n      tag_84\n        /* \"contracts/openzeppelinERC20.sol\":1578:1615  _approve(msg.sender, spender, amount) */\n      jump\t// in\n    tag_83:\n        /* \"contracts/openzeppelinERC20.sol\":1632:1636  true */\n      0x01\n        /* \"contracts/openzeppelinERC20.sol\":1625:1636  return true */\n      swap1\n      pop\n        /* \"contracts/openzeppelinERC20.sol\":1487:1643  function approve(address spender, uint256 amount) public override returns (bool) {... */\n      swap3\n      swap2\n      pop\n      pop\n      jump\t// out\n        /* \"contracts/openzeppelinERC20.sol\":946:1044  function totalSupply() public view override returns (uint256) {... */\n    tag_29:\n        /* \"contracts/openzeppelinERC20.sol\":999:1006  uint256 */\n      0x00\n        /* \"contracts/openzeppelinERC20.sol\":1025:1037  _totalSupply */\n      sload(0x02)\n        /* \"contracts/openzeppelinERC20.sol\":1018:1037  return _totalSupply */\n      swap1\n      pop\n        /* \"contracts/openzeppelinERC20.sol\":946:1044  function totalSupply() public view override returns (uint256) {... */\n      swap1\n      jump\t// out\n        /* \"contracts/openzeppelinERC20.sol\":1649:2026  function transferFrom(address sender, address recipient, uint256 amount) public override returns(bool) {... */\n    tag_35:\n        /* \"contracts/openzeppelinERC20.sol\":1746:1750  bool */\n      0x00\n        /* \"contracts/openzeppelinERC20.sol\":1762:1798  _transfer(sender, recipient, amount) */\n      tag_87\n        /* \"contracts/openzeppelinERC20.sol\":1772:1778  sender */\n      dup5\n        /* \"contracts/openzeppelinERC20.sol\":1780:1789  recipient */\n      dup5\n        /* \"contracts/openzeppelinERC20.sol\":1791:1797  amount */\n      dup5\n        /* \"contracts/openzeppelinERC20.sol\":1762:1771  _transfer */\n      tag_88\n        /* \"contracts/openzeppelinERC20.sol\":1762:1798  _transfer(sender, recipient, amount) */\n      jump\t// in\n    tag_87:\n        /* \"contracts/openzeppelinERC20.sol\":1808:1998  _approve(... */\n      tag_89\n        /* \"contracts/openzeppelinERC20.sol\":1830:1836  sender */\n      dup5\n        /* \"contracts/openzeppelinERC20.sol\":1851:1861  msg.sender */\n      caller\n        /* \"contracts/openzeppelinERC20.sol\":1876:1997  _allowances[sender][msg.sender].sub(... */\n      tag_90\n        /* \"contracts/openzeppelinERC20.sol\":1929:1935  amount */\n      dup6\n        /* \"contracts/openzeppelinERC20.sol\":1876:1997  _allowances[sender][msg.sender].sub(... */\n      mload(0x40)\n      dup1\n      0x60\n      add\n      0x40\n      mstore\n      dup1\n      0x28\n      dup2\n      mstore\n      0x20\n      add\n      data_974d1b4421da69cc60b481194f0dad36a5bb4e23da810da7a7fb30cdba178330\n      0x28\n      swap2\n      codecopy\n        /* \"contracts/openzeppelinERC20.sol\":1876:1887  _allowances */\n      0x01\n        /* \"contracts/openzeppelinERC20.sol\":1876:1895  _allowances[sender] */\n      0x00\n        /* \"contracts/openzeppelinERC20.sol\":1888:1894  sender */\n      dup12\n        /* \"contracts/openzeppelinERC20.sol\":1876:1895  _allowances[sender] */\n      0xffffffffffffffffffffffffffffffffffffffff\n      and\n      0xffffffffffffffffffffffffffffffffffffffff\n      and\n      dup2\n      mstore\n      0x20\n      add\n      swap1\n      dup2\n      mstore\n      0x20\n      add\n      0x00\n      keccak256\n        /* \"contracts/openzeppelinERC20.sol\":1876:1907  _allowances[sender][msg.sender] */\n      0x00\n        /* \"contracts/openzeppelinERC20.sol\":1896:1906  msg.sender */\n      caller\n        /* \"contracts/openzeppelinERC20.sol\":1876:1907  _allowances[sender][msg.sender] */\n      0xffffffffffffffffffffffffffffffffffffffff\n      and\n      0xffffffffffffffffffffffffffffffffffffffff\n      and\n      dup2\n      mstore\n      0x20\n      add\n      swap1\n      dup2\n      mstore\n      0x20\n      add\n      0x00\n      keccak256\n      sload\n        /* \"contracts/openzeppelinERC20.sol\":1876:1911  _allowances[sender][msg.sender].sub */\n      tag_91\n      swap1\n        /* \"contracts/openzeppelinERC20.sol\":1876:1997  _allowances[sender][msg.sender].sub(... */\n      swap3\n      swap2\n      swap1\n      0xffffffff\n      and\n      jump\t// in\n    tag_90:\n        /* \"contracts/openzeppelinERC20.sol\":1808:1816  _approve */\n      tag_84\n        /* \"contracts/openzeppelinERC20.sol\":1808:1998  _approve(... */\n      jump\t// in\n    tag_89:\n        /* \"contracts/openzeppelinERC20.sol\":2015:2019  true */\n      0x01\n        /* \"contracts/openzeppelinERC20.sol\":2008:2019  return true */\n      swap1\n      pop\n        /* \"contracts/openzeppelinERC20.sol\":1649:2026  function transferFrom(address sender, address recipient, uint256 amount) public override returns(bool) {... */\n      swap4\n      swap3\n      pop\n      pop\n      pop\n      jump\t// out\n        /* \"contracts/openzeppelinERC20.sol\":859:940  function decimals() public view returns (uint8) {... */\n    tag_38:\n        /* \"contracts/openzeppelinERC20.sol\":900:905  uint8 */\n      0x00\n        /* \"contracts/openzeppelinERC20.sol\":924:933  _decimals */\n      0x05\n      0x00\n      swap1\n      sload\n      swap1\n      0x0100\n      exp\n      swap1\n      div\n      0xff\n      and\n        /* \"contracts/openzeppelinERC20.sol\":917:933  return _decimals */\n      swap1\n      pop\n        /* \"contracts/openzeppelinERC20.sol\":859:940  function decimals() public view returns (uint8) {... */\n      swap1\n      jump\t// out\n        /* \"contracts/openzeppelinERC20.sol\":2043:2254  function increaseAllowance(address spender, uint256 addedValue) public virtual returns (bool) {... */\n    tag_43:\n        /* \"contracts/openzeppelinERC20.sol\":2131:2135  bool */\n      0x00\n        /* \"contracts/openzeppelinERC20.sol\":2147:2226  _approve(msg.sender, spender, _allowances[msg.sender][spender].add(addedValue)) */\n      tag_94\n        /* \"contracts/openzeppelinERC20.sol\":2156:2166  msg.sender */\n      caller\n        /* \"contracts/openzeppelinERC20.sol\":2168:2175  spender */\n      dup5\n        /* \"contracts/openzeppelinERC20.sol\":2177:2225  _allowances[msg.sender][spender].add(addedValue) */\n      tag_95\n        /* \"contracts/openzeppelinERC20.sol\":2214:2224  addedValue */\n      dup6\n        /* \"contracts/openzeppelinERC20.sol\":2177:2188  _allowances */\n      0x01\n        /* \"contracts/openzeppelinERC20.sol\":2177:2200  _allowances[msg.sender] */\n      0x00\n        /* \"contracts/openzeppelinERC20.sol\":2189:2199  msg.sender */\n      caller\n        /* \"contracts/openzeppelinERC20.sol\":2177:2200  _allowances[msg.sender] */\n      0xffffffffffffffffffffffffffffffffffffffff\n      and\n      0xffffffffffffffffffffffffffffffffffffffff\n      and\n      dup2\n      mstore\n      0x20\n      add\n      swap1\n      dup2\n      mstore\n      0x20\n      add\n      0x00\n      keccak256\n        /* \"contracts/openzeppelinERC20.sol\":2177:2209  _allowances[msg.sender][spender] */\n      0x00\n        /* \"contracts/openzeppelinERC20.sol\":2201:2208  spender */\n      dup10\n        /* \"contracts/openzeppelinERC20.sol\":2177:2209  _allowances[msg.sender][spender] */\n      0xffffffffffffffffffffffffffffffffffffffff\n      and\n      0xffffffffffffffffffffffffffffffffffffffff\n      and\n      dup2\n      mstore\n      0x20\n      add\n      swap1\n      dup2\n      mstore\n      0x20\n      add\n      0x00\n      keccak256\n      sload\n        /* \"contracts/openzeppelinERC20.sol\":2177:2213  _allowances[msg.sender][spender].add */\n      tag_96\n      swap1\n        /* \"contracts/openzeppelinERC20.sol\":2177:2225  _allowances[msg.sender][spender].add(addedValue) */\n      swap2\n      swap1\n      0xffffffff\n      and\n      jump\t// in\n    tag_95:\n        /* \"contracts/openzeppelinERC20.sol\":2147:2155  _approve */\n      tag_84\n        /* \"contracts/openzeppelinERC20.sol\":2147:2226  _approve(msg.sender, spender, _allowances[msg.sender][spender].add(addedValue)) */\n      jump\t// in\n    tag_94:\n        /* \"contracts/openzeppelinERC20.sol\":2243:2247  true */\n      0x01\n        /* \"contracts/openzeppelinERC20.sol\":2236:2247  return true */\n      swap1\n      pop\n        /* \"contracts/openzeppelinERC20.sol\":2043:2254  function increaseAllowance(address spender, uint256 addedValue) public virtual returns (bool) {... */\n      swap3\n      swap2\n      pop\n      pop\n      jump\t// out\n        /* \"contracts/openzeppelinERC20.sol\":2647:2763  function burn (uint256 amount) public returns (bool) {... */\n    tag_48:\n        /* \"contracts/openzeppelinERC20.sol\":2694:2698  bool */\n      0x00\n        /* \"contracts/openzeppelinERC20.sol\":2710:2735  _burn(msg.sender, amount) */\n      tag_98\n        /* \"contracts/openzeppelinERC20.sol\":2716:2726  msg.sender */\n      caller\n        /* \"contracts/openzeppelinERC20.sol\":2728:2734  amount */\n      dup4\n        /* \"contracts/openzeppelinERC20.sol\":2710:2715  _burn */\n      tag_99\n        /* \"contracts/openzeppelinERC20.sol\":2710:2735  _burn(msg.sender, amount) */\n      jump\t// in\n    tag_98:\n        /* \"contracts/openzeppelinERC20.sol\":2752:2756  true */\n      0x01\n        /* \"contracts/openzeppelinERC20.sol\":2745:2756  return true */\n      swap1\n      pop\n        /* \"contracts/openzeppelinERC20.sol\":2647:2763  function burn (uint256 amount) public returns (bool) {... */\n      swap2\n      swap1\n      pop\n      jump\t// out\n        /* \"contracts/openzeppelinERC20.sol\":1050:1167  function balanceOf(address account) public view override returns (uint256) {... */\n    tag_53:\n        /* \"contracts/openzeppelinERC20.sol\":1116:1123  uint256 */\n      0x00\n        /* \"contracts/openzeppelinERC20.sol\":1142:1151  _balances */\n      dup1\n        /* \"contracts/openzeppelinERC20.sol\":1142:1160  _balances[account] */\n      0x00\n        /* \"contracts/openzeppelinERC20.sol\":1152:1159  account */\n      dup4\n        /* \"contracts/openzeppelinERC20.sol\":1142:1160  _balances[account] */\n      0xffffffffffffffffffffffffffffffffffffffff\n      and\n      0xffffffffffffffffffffffffffffffffffffffff\n      and\n      dup2\n      mstore\n      0x20\n      add\n      swap1\n      dup2\n      mstore\n      0x20\n      add\n      0x00\n      keccak256\n      sload\n        /* \"contracts/openzeppelinERC20.sol\":1135:1160  return _balances[account] */\n      swap1\n      pop\n        /* \"contracts/openzeppelinERC20.sol\":1050:1167  function balanceOf(address account) public view override returns (uint256) {... */\n      swap2\n      swap1\n      pop\n      jump\t// out\n        /* \"contracts/openzeppelinERC20.sol\":2260:2522  function decreaseAllowances(address spender, uint256 subtractedValue) public virtual returns(bool) {... */\n    tag_57:\n        /* \"contracts/openzeppelinERC20.sol\":2353:2357  bool */\n      0x00\n        /* \"contracts/openzeppelinERC20.sol\":2369:2494  _approve(msg.sender, spender, _allowances[msg.sender][spender].sub(subtractedValue, \"ERC20: decreased allowance below zero\")) */\n      tag_102\n        /* \"contracts/openzeppelinERC20.sol\":2378:2388  msg.sender */\n      caller\n        /* \"contracts/openzeppelinERC20.sol\":2390:2397  spender */\n      dup5\n        /* \"contracts/openzeppelinERC20.sol\":2399:2493  _allowances[msg.sender][spender].sub(subtractedValue, \"ERC20: decreased allowance below zero\") */\n      tag_103\n        /* \"contracts/openzeppelinERC20.sol\":2436:2451  subtractedValue */\n      dup6\n        /* \"contracts/openzeppelinERC20.sol\":2399:2493  _allowances[msg.sender][spender].sub(subtractedValue, \"ERC20: decreased allowance below zero\") */\n      mload(0x40)\n      dup1\n      0x60\n      add\n      0x40\n      mstore\n      dup1\n      0x25\n      dup2\n      mstore\n      0x20\n      add\n      data_f8b476f7d28209d77d4a4ac1fe36b9f8259aa1bb6bddfa6e89de7e51615cf8a8\n      0x25\n      swap2\n      codecopy\n        /* \"contracts/openzeppelinERC20.sol\":2399:2410  _allowances */\n      0x01\n        /* \"contracts/openzeppelinERC20.sol\":2399:2422  _allowances[msg.sender] */\n      0x00\n        /* \"contracts/openzeppelinERC20.sol\":2411:2421  msg.sender */\n      caller\n        /* \"contracts/openzeppelinERC20.sol\":2399:2422  _allowances[msg.sender] */\n      0xffffffffffffffffffffffffffffffffffffffff\n      and\n      0xffffffffffffffffffffffffffffffffffffffff\n      and\n      dup2\n      mstore\n      0x20\n      add\n      swap1\n      dup2\n      mstore\n      0x20\n      add\n      0x00\n      keccak256\n        /* \"contracts/openzeppelinERC20.sol\":2399:2431  _allowances[msg.sender][spender] */\n      0x00\n        /* \"contracts/openzeppelinERC20.sol\":2423:2430  spender */\n      dup11\n        /* \"contracts/openzeppelinERC20.sol\":2399:2431  _allowances[msg.sender][spender] */\n      0xffffffffffffffffffffffffffffffffffffffff\n      and\n      0xffffffffffffffffffffffffffffffffffffffff\n      and\n      dup2\n      mstore\n      0x20\n      add\n      swap1\n      dup2\n      mstore\n      0x20\n      add\n      0x00\n      keccak256\n      sload\n        /* \"contracts/openzeppelinERC20.sol\":2399:2435  _allowances[msg.sender][spender].sub */\n      tag_91\n      swap1\n        /* \"contracts/openzeppelinERC20.sol\":2399:2493  _allowances[msg.sender][spender].sub(subtractedValue, \"ERC20: decreased allowance below zero\") */\n      swap3\n      swap2\n      swap1\n      0xffffffff\n      and\n      jump\t// in\n    tag_103:\n        /* \"contracts/openzeppelinERC20.sol\":2369:2377  _approve */\n      tag_84\n        /* \"contracts/openzeppelinERC20.sol\":2369:2494  _approve(msg.sender, spender, _allowances[msg.sender][spender].sub(subtractedValue, \"ERC20: decreased allowance below zero\")) */\n      jump\t// in\n    tag_102:\n        /* \"contracts/openzeppelinERC20.sol\":2511:2515  true */\n      0x01\n        /* \"contracts/openzeppelinERC20.sol\":2504:2515  return true */\n      swap1\n      pop\n        /* \"contracts/openzeppelinERC20.sol\":2260:2522  function decreaseAllowances(address spender, uint256 subtractedValue) public virtual returns(bool) {... */\n      swap3\n      swap2\n      pop\n      pop\n      jump\t// out\n        /* \"contracts/openzeppelinERC20.sol\":768:853  function symbol() public view returns (string memory) {... */\n    tag_60:\n        /* \"contracts/openzeppelinERC20.sol\":807:820  string memory */\n      0x60\n        /* \"contracts/openzeppelinERC20.sol\":839:846  _symbol */\n      0x04\n        /* \"contracts/openzeppelinERC20.sol\":832:846  return _symbol */\n      dup1\n      sload\n      tag_105\n      swap1\n      tag_77\n      jump\t// in\n    tag_105:\n      dup1\n      0x1f\n      add\n      0x20\n      dup1\n      swap2\n      div\n      mul\n      0x20\n      add\n      mload(0x40)\n      swap1\n      dup2\n      add\n      0x40\n      mstore\n      dup1\n      swap3\n      swap2\n      swap1\n      dup2\n      dup2\n      mstore\n      0x20\n      add\n      dup3\n      dup1\n      sload\n      tag_106\n      swap1\n      tag_77\n      jump\t// in\n    tag_106:\n      dup1\n      iszero\n      tag_107\n      jumpi\n      dup1\n      0x1f\n      lt\n      tag_108\n      jumpi\n      0x0100\n      dup1\n      dup4\n      sload\n      div\n      mul\n      dup4\n      mstore\n      swap2\n      0x20\n      add\n      swap2\n      jump(tag_107)\n    tag_108:\n      dup3\n      add\n      swap2\n      swap1\n      0x00\n      mstore\n      keccak256(0x00, 0x20)\n      swap1\n    tag_109:\n      dup2\n      sload\n      dup2\n      mstore\n      swap1\n      0x01\n      add\n      swap1\n      0x20\n      add\n      dup1\n      dup4\n      gt\n      tag_109\n      jumpi\n      dup3\n      swap1\n      sub\n      0x1f\n      and\n      dup3\n      add\n      swap2\n    tag_107:\n      pop\n      pop\n      pop\n      pop\n      pop\n      swap1\n      pop\n        /* \"contracts/openzeppelinERC20.sol\":768:853  function symbol() public view returns (string memory) {... */\n      swap1\n      jump\t// out\n        /* \"contracts/openzeppelinERC20.sol\":2527:2642  function mint(uint256 amount) public returns (bool) {... */\n    tag_64:\n        /* \"contracts/openzeppelinERC20.sol\":2573:2577  bool */\n      0x00\n        /* \"contracts/openzeppelinERC20.sol\":2589:2614  _mint(msg.sender, amount) */\n      tag_111\n        /* \"contracts/openzeppelinERC20.sol\":2595:2605  msg.sender */\n      caller\n        /* \"contracts/openzeppelinERC20.sol\":2607:2613  amount */\n      dup4\n        /* \"contracts/openzeppelinERC20.sol\":2589:2594  _mint */\n      tag_112\n        /* \"contracts/openzeppelinERC20.sol\":2589:2614  _mint(msg.sender, amount) */\n      jump\t// in\n    tag_111:\n        /* \"contracts/openzeppelinERC20.sol\":2631:2635  true */\n      0x01\n        /* \"contracts/openzeppelinERC20.sol\":2624:2635  return true */\n      swap1\n      pop\n        /* \"contracts/openzeppelinERC20.sol\":2527:2642  function mint(uint256 amount) public returns (bool) {... */\n      swap2\n      swap1\n      pop\n      jump\t// out\n        /* \"contracts/openzeppelinERC20.sol\":1173:1335  function transfer(address recipient, uint256 amount) public override returns (bool) {... */\n    tag_68:\n        /* \"contracts/openzeppelinERC20.sol\":1251:1255  bool */\n      0x00\n        /* \"contracts/openzeppelinERC20.sol\":1267:1307  _transfer(msg.sender, recipient, amount) */\n      tag_114\n        /* \"contracts/openzeppelinERC20.sol\":1277:1287  msg.sender */\n      caller\n        /* \"contracts/openzeppelinERC20.sol\":1289:1298  recipient */\n      dup5\n        /* \"contracts/openzeppelinERC20.sol\":1300:1306  amount */\n      dup5\n        /* \"contracts/openzeppelinERC20.sol\":1267:1276  _transfer */\n      tag_88\n        /* \"contracts/openzeppelinERC20.sol\":1267:1307  _transfer(msg.sender, recipient, amount) */\n      jump\t// in\n    tag_114:\n        /* \"contracts/openzeppelinERC20.sol\":1324:1328  true */\n      0x01\n        /* \"contracts/openzeppelinERC20.sol\":1317:1328  return true */\n      swap1\n      pop\n        /* \"contracts/openzeppelinERC20.sol\":1173:1335  function transfer(address recipient, uint256 amount) public override returns (bool) {... */\n      swap3\n      swap2\n      pop\n      pop\n      jump\t// out\n        /* \"contracts/openzeppelinERC20.sol\":1341:1481  function allowance(address owner, address spender) public view override returns(uint256) {... */\n    tag_73:\n        /* \"contracts/openzeppelinERC20.sol\":1421:1428  uint256 */\n      0x00\n        /* \"contracts/openzeppelinERC20.sol\":1447:1458  _allowances */\n      0x01\n        /* \"contracts/openzeppelinERC20.sol\":1447:1465  _allowances[owner] */\n      0x00\n        /* \"contracts/openzeppelinERC20.sol\":1459:1464  owner */\n      dup5\n        /* \"contracts/openzeppelinERC20.sol\":1447:1465  _allowances[owner] */\n      0xffffffffffffffffffffffffffffffffffffffff\n      and\n      0xffffffffffffffffffffffffffffffffffffffff\n      and\n      dup2\n      mstore\n      0x20\n      add\n      swap1\n      dup2\n      mstore\n      0x20\n      add\n      0x00\n      keccak256\n        /* \"contracts/openzeppelinERC20.sol\":1447:1474  _allowances[owner][spender] */\n      0x00\n        /* \"contracts/openzeppelinERC20.sol\":1466:1473  spender */\n      dup4\n        /* \"contracts/openzeppelinERC20.sol\":1447:1474  _allowances[owner][spender] */\n      0xffffffffffffffffffffffffffffffffffffffff\n      and\n      0xffffffffffffffffffffffffffffffffffffffff\n      and\n      dup2\n      mstore\n      0x20\n      add\n      swap1\n      dup2\n      mstore\n      0x20\n      add\n      0x00\n      keccak256\n      sload\n        /* \"contracts/openzeppelinERC20.sol\":1440:1474  return _allowances[owner][spender] */\n      swap1\n      pop\n        /* \"contracts/openzeppelinERC20.sol\":1341:1481  function allowance(address owner, address spender) public view override returns(uint256) {... */\n      swap3\n      swap2\n      pop\n      pop\n      jump\t// out\n        /* \"contracts/openzeppelinERC20.sol\":3240:3580  function _approve(address owner, address spender, uint256 amount) internal virtual {... */\n    tag_84:\n        /* \"contracts/openzeppelinERC20.sol\":3358:3359  0 */\n      0x00\n        /* \"contracts/openzeppelinERC20.sol\":3341:3360  owner != address(0) */\n      0xffffffffffffffffffffffffffffffffffffffff\n      and\n        /* \"contracts/openzeppelinERC20.sol\":3341:3346  owner */\n      dup4\n        /* \"contracts/openzeppelinERC20.sol\":3341:3360  owner != address(0) */\n      0xffffffffffffffffffffffffffffffffffffffff\n      and\n      sub\n        /* \"contracts/openzeppelinERC20.sol\":3333:3401  require(owner != address(0), \"ERC20: approve from the zero address\") */\n      tag_117\n      jumpi\n      mload(0x40)\n      0x08c379a000000000000000000000000000000000000000000000000000000000\n      dup2\n      mstore\n      0x04\n      add\n      tag_118\n      swap1\n      tag_119\n      jump\t// in\n    tag_118:\n      mload(0x40)\n      dup1\n      swap2\n      sub\n      swap1\n      revert\n    tag_117:\n        /* \"contracts/openzeppelinERC20.sol\":3438:3439  0 */\n      0x00\n        /* \"contracts/openzeppelinERC20.sol\":3419:3440  spender != address(0) */\n      0xffffffffffffffffffffffffffffffffffffffff\n      and\n        /* \"contracts/openzeppelinERC20.sol\":3419:3426  spender */\n      dup3\n        /* \"contracts/openzeppelinERC20.sol\":3419:3440  spender != address(0) */\n      0xffffffffffffffffffffffffffffffffffffffff\n      and\n      sub\n        /* \"contracts/openzeppelinERC20.sol\":3411:3479  require(spender != address(0), \"ERC20: approve to the zero address\") */\n      tag_120\n      jumpi\n      mload(0x40)\n      0x08c379a000000000000000000000000000000000000000000000000000000000\n      dup2\n      mstore\n      0x04\n      add\n      tag_121\n      swap1\n      tag_122\n      jump\t// in\n    tag_121:\n      mload(0x40)\n      dup1\n      swap2\n      sub\n      swap1\n      revert\n    tag_120:\n        /* \"contracts/openzeppelinERC20.sol\":3520:3526  amount */\n      dup1\n        /* \"contracts/openzeppelinERC20.sol\":3490:3501  _allowances */\n      0x01\n        /* \"contracts/openzeppelinERC20.sol\":3490:3508  _allowances[owner] */\n      0x00\n        /* \"contracts/openzeppelinERC20.sol\":3502:3507  owner */\n      dup6\n        /* \"contracts/openzeppelinERC20.sol\":3490:3508  _allowances[owner] */\n      0xffffffffffffffffffffffffffffffffffffffff\n      and\n      0xffffffffffffffffffffffffffffffffffffffff\n      and\n      dup2\n      mstore\n      0x20\n      add\n      swap1\n      dup2\n      mstore\n      0x20\n      add\n      0x00\n      keccak256\n        /* \"contracts/openzeppelinERC20.sol\":3490:3517  _allowances[owner][spender] */\n      0x00\n        /* \"contracts/openzeppelinERC20.sol\":3509:3516  spender */\n      dup5\n        /* \"contracts/openzeppelinERC20.sol\":3490:3517  _allowances[owner][spender] */\n      0xffffffffffffffffffffffffffffffffffffffff\n      and\n      0xffffffffffffffffffffffffffffffffffffffff\n      and\n      dup2\n      mstore\n      0x20\n      add\n      swap1\n      dup2\n      mstore\n      0x20\n      add\n      0x00\n      keccak256\n        /* \"contracts/openzeppelinERC20.sol\":3490:3526  _allowances[owner][spender] = amount */\n      dup2\n      swap1\n      sstore\n      pop\n        /* \"contracts/openzeppelinERC20.sol\":3557:3564  spender */\n      dup2\n        /* \"contracts/openzeppelinERC20.sol\":3541:3573  Approval(owner, spender, amount) */\n      0xffffffffffffffffffffffffffffffffffffffff\n      and\n        /* \"contracts/openzeppelinERC20.sol\":3550:3555  owner */\n      dup4\n        /* \"contracts/openzeppelinERC20.sol\":3541:3573  Approval(owner, spender, amount) */\n      0xffffffffffffffffffffffffffffffffffffffff\n      and\n      0x8c5be1e5ebec7d5bd14f71427d1e84f3dd0314c0f7b2291e5b200ac8c7c3b925\n        /* \"contracts/openzeppelinERC20.sol\":3566:3572  amount */\n      dup4\n        /* \"contracts/openzeppelinERC20.sol\":3541:3573  Approval(owner, spender, amount) */\n      mload(0x40)\n      tag_123\n      swap2\n      swap1\n      tag_31\n      jump\t// in\n    tag_123:\n      mload(0x40)\n      dup1\n      swap2\n      sub\n      swap1\n      log3\n        /* \"contracts/openzeppelinERC20.sol\":3240:3580  function _approve(address owner, address spender, uint256 amount) internal virtual {... */\n      pop\n      pop\n      pop\n      jump\t// out\n        /* \"contracts/openzeppelinERC20.sol\":2769:3234  function _transfer(address sender, address recipient, uint256 amount) internal virtual {... */\n    tag_88:\n        /* \"contracts/openzeppelinERC20.sol\":2892:2893  0 */\n      0x00\n        /* \"contracts/openzeppelinERC20.sol\":2874:2894  sender != address(0) */\n      0xffffffffffffffffffffffffffffffffffffffff\n      and\n        /* \"contracts/openzeppelinERC20.sol\":2874:2880  sender */\n      dup4\n        /* \"contracts/openzeppelinERC20.sol\":2874:2894  sender != address(0) */\n      0xffffffffffffffffffffffffffffffffffffffff\n      and\n      sub\n        /* \"contracts/openzeppelinERC20.sol\":2866:2936  require(sender != address(0), \"ERC20: transfer from the zero address\") */\n      tag_125\n      jumpi\n      mload(0x40)\n      0x08c379a000000000000000000000000000000000000000000000000000000000\n      dup2\n      mstore\n      0x04\n      add\n      tag_126\n      swap1\n      tag_127\n      jump\t// in\n    tag_126:\n      mload(0x40)\n      dup1\n      swap2\n      sub\n      swap1\n      revert\n    tag_125:\n        /* \"contracts/openzeppelinERC20.sol\":2975:2976  0 */\n      0x00\n        /* \"contracts/openzeppelinERC20.sol\":2954:2977  recipient != address(0) */\n      0xffffffffffffffffffffffffffffffffffffffff\n      and\n        /* \"contracts/openzeppelinERC20.sol\":2954:2963  recipient */\n      dup3\n        /* \"contracts/openzeppelinERC20.sol\":2954:2977  recipient != address(0) */\n      0xffffffffffffffffffffffffffffffffffffffff\n      and\n      sub\n        /* \"contracts/openzeppelinERC20.sol\":2946:3018  require(recipient != address(0) , \"ERC20: transfer to the zero address\") */\n      tag_128\n      jumpi\n      mload(0x40)\n      0x08c379a000000000000000000000000000000000000000000000000000000000\n      dup2\n      mstore\n      0x04\n      add\n      tag_129\n      swap1\n      tag_130\n      jump\t// in\n    tag_129:\n      mload(0x40)\n      dup1\n      swap2\n      sub\n      swap1\n      revert\n    tag_128:\n        /* \"contracts/openzeppelinERC20.sol\":3049:3118  _balances[sender].sub(amount, \"ERC: transfer amount exceeds balance\") */\n      tag_131\n        /* \"contracts/openzeppelinERC20.sol\":3071:3077  amount */\n      dup2\n        /* \"contracts/openzeppelinERC20.sol\":3049:3118  _balances[sender].sub(amount, \"ERC: transfer amount exceeds balance\") */\n      mload(0x40)\n      dup1\n      0x60\n      add\n      0x40\n      mstore\n      dup1\n      0x24\n      dup2\n      mstore\n      0x20\n      add\n      data_50b6ca6c870f7c628d7935e23858a7c07fe6ab9003807217ab6e8f562681def2\n      0x24\n      swap2\n      codecopy\n        /* \"contracts/openzeppelinERC20.sol\":3049:3058  _balances */\n      0x00\n        /* \"contracts/openzeppelinERC20.sol\":3049:3066  _balances[sender] */\n      dup1\n        /* \"contracts/openzeppelinERC20.sol\":3059:3065  sender */\n      dup8\n        /* \"contracts/openzeppelinERC20.sol\":3049:3066  _balances[sender] */\n      0xffffffffffffffffffffffffffffffffffffffff\n      and\n      0xffffffffffffffffffffffffffffffffffffffff\n      and\n      dup2\n      mstore\n      0x20\n      add\n      swap1\n      dup2\n      mstore\n      0x20\n      add\n      0x00\n      keccak256\n      sload\n        /* \"contracts/openzeppelinERC20.sol\":3049:3070  _balances[sender].sub */\n      tag_91\n      swap1\n        /* \"contracts/openzeppelinERC20.sol\":3049:3118  _balances[sender].sub(amount, \"ERC: transfer amount exceeds balance\") */\n      swap3\n      swap2\n      swap1\n      0xffffffff\n      and\n      jump\t// in\n    tag_131:\n        /* \"contracts/openzeppelinERC20.sol\":3029:3038  _balances */\n      0x00\n        /* \"contracts/openzeppelinERC20.sol\":3029:3046  _balances[sender] */\n      dup1\n        /* \"contracts/openzeppelinERC20.sol\":3039:3045  sender */\n      dup6\n        /* \"contracts/openzeppelinERC20.sol\":3029:3046  _balances[sender] */\n      0xffffffffffffffffffffffffffffffffffffffff\n      and\n      0xffffffffffffffffffffffffffffffffffffffff\n      and\n      dup2\n      mstore\n      0x20\n      add\n      swap1\n      dup2\n      mstore\n      0x20\n      add\n      0x00\n      keccak256\n        /* \"contracts/openzeppelinERC20.sol\":3029:3118  _balances[sender] = _balances[sender].sub(amount, \"ERC: transfer amount exceeds balance\") */\n      dup2\n      swap1\n      sstore\n      pop\n        /* \"contracts/openzeppelinERC20.sol\":3148:3177  _balances[sender].add(amount) */\n      tag_132\n        /* \"contracts/openzeppelinERC20.sol\":3170:3176  amount */\n      dup2\n        /* \"contracts/openzeppelinERC20.sol\":3148:3157  _balances */\n      0x00\n        /* \"contracts/openzeppelinERC20.sol\":3148:3165  _balances[sender] */\n      dup1\n        /* \"contracts/openzeppelinERC20.sol\":3158:3164  sender */\n      dup7\n        /* \"contracts/openzeppelinERC20.sol\":3148:3165  _balances[sender] */\n      0xffffffffffffffffffffffffffffffffffffffff\n      and\n      0xffffffffffffffffffffffffffffffffffffffff\n      and\n      dup2\n      mstore\n      0x20\n      add\n      swap1\n      dup2\n      mstore\n      0x20\n      add\n      0x00\n      keccak256\n      sload\n        /* \"contracts/openzeppelinERC20.sol\":3148:3169  _balances[sender].add */\n      tag_96\n      swap1\n        /* \"contracts/openzeppelinERC20.sol\":3148:3177  _balances[sender].add(amount) */\n      swap2\n      swap1\n      0xffffffff\n      and\n      jump\t// in\n    tag_132:\n        /* \"contracts/openzeppelinERC20.sol\":3128:3137  _balances */\n      0x00\n        /* \"contracts/openzeppelinERC20.sol\":3128:3145  _balances[sender] */\n      dup1\n        /* \"contracts/openzeppelinERC20.sol\":3138:3144  sender */\n      dup6\n        /* \"contracts/openzeppelinERC20.sol\":3128:3145  _balances[sender] */\n      0xffffffffffffffffffffffffffffffffffffffff\n      and\n      0xffffffffffffffffffffffffffffffffffffffff\n      and\n      dup2\n      mstore\n      0x20\n      add\n      swap1\n      dup2\n      mstore\n      0x20\n      add\n      0x00\n      keccak256\n        /* \"contracts/openzeppelinERC20.sol\":3128:3177  _balances[sender] = _balances[sender].add(amount) */\n      dup2\n      swap1\n      sstore\n      pop\n        /* \"contracts/openzeppelinERC20.sol\":3209:3218  recipient */\n      dup2\n        /* \"contracts/openzeppelinERC20.sol\":3192:3227  Transfer(sender, recipient, amount) */\n      0xffffffffffffffffffffffffffffffffffffffff\n      and\n        /* \"contracts/openzeppelinERC20.sol\":3201:3207  sender */\n      dup4\n        /* \"contracts/openzeppelinERC20.sol\":3192:3227  Transfer(sender, recipient, amount) */\n      0xffffffffffffffffffffffffffffffffffffffff\n      and\n      0xddf252ad1be2c89b69c2b068fc378daa952ba7f163c4a11628f55a4df523b3ef\n        /* \"contracts/openzeppelinERC20.sol\":3220:3226  amount */\n      dup4\n        /* \"contracts/openzeppelinERC20.sol\":3192:3227  Transfer(sender, recipient, amount) */\n      mload(0x40)\n      tag_133\n      swap2\n      swap1\n      tag_31\n      jump\t// in\n    tag_133:\n      mload(0x40)\n      dup1\n      swap2\n      sub\n      swap1\n      log3\n        /* \"contracts/openzeppelinERC20.sol\":2769:3234  function _transfer(address sender, address recipient, uint256 amount) internal virtual {... */\n      pop\n      pop\n      pop\n      jump\t// out\n        /* \"@openzeppelin/contracts/utils/math/SafeMath.sol\":4959:5160  function sub(uint256 a, uint256 b, string memory errorMessage) internal pure returns (uint256) {... */\n    tag_91:\n        /* \"@openzeppelin/contracts/utils/math/SafeMath.sol\":5045:5052  uint256 */\n      0x00\n        /* \"@openzeppelin/contracts/utils/math/SafeMath.sol\":5101:5102  a */\n      dup4\n        /* \"@openzeppelin/contracts/utils/math/SafeMath.sol\":5096:5097  b */\n      dup4\n        /* \"@openzeppelin/contracts/utils/math/SafeMath.sol\":5096:5102  b <= a */\n      gt\n      iszero\n        /* \"@openzeppelin/contracts/utils/math/SafeMath.sol\":5104:5116  errorMessage */\n      dup3\n        /* \"@openzeppelin/contracts/utils/math/SafeMath.sol\":5088:5117  require(b <= a, errorMessage) */\n      swap1\n      tag_135\n      jumpi\n      mload(0x40)\n      0x08c379a000000000000000000000000000000000000000000000000000000000\n      dup2\n      mstore\n      0x04\n      add\n      tag_136\n      swap2\n      swap1\n      tag_21\n      jump\t// in\n    tag_136:\n      mload(0x40)\n      dup1\n      swap2\n      sub\n      swap1\n      revert\n    tag_135:\n      pop\n        /* \"@openzeppelin/contracts/utils/math/SafeMath.sol\":5142:5143  b */\n      dup3\n        /* \"@openzeppelin/contracts/utils/math/SafeMath.sol\":5138:5139  a */\n      dup5\n        /* \"@openzeppelin/contracts/utils/math/SafeMath.sol\":5138:5143  a - b */\n      sub\n        /* \"@openzeppelin/contracts/utils/math/SafeMath.sol\":5131:5143  return a - b */\n      swap1\n      pop\n        /* \"@openzeppelin/contracts/utils/math/SafeMath.sol\":4959:5160  function sub(uint256 a, uint256 b, string memory errorMessage) internal pure returns (uint256) {... */\n      swap4\n      swap3\n      pop\n      pop\n      pop\n      jump\t// out\n        /* \"@openzeppelin/contracts/utils/math/SafeMath.sol\":2755:2851  function add(uint256 a, uint256 b) internal pure returns (uint256) {... */\n    tag_96:\n        /* \"@openzeppelin/contracts/utils/math/SafeMath.sol\":2813:2820  uint256 */\n      0x00\n        /* \"@openzeppelin/contracts/utils/math/SafeMath.sol\":2843:2844  b */\n      dup2\n        /* \"@openzeppelin/contracts/utils/math/SafeMath.sol\":2839:2840  a */\n      dup4\n        /* \"@openzeppelin/contracts/utils/math/SafeMath.sol\":2839:2844  a + b */\n      tag_138\n      swap2\n      swap1\n      tag_139\n      jump\t// in\n    tag_138:\n        /* \"@openzeppelin/contracts/utils/math/SafeMath.sol\":2832:2844  return a + b */\n      swap1\n      pop\n        /* \"@openzeppelin/contracts/utils/math/SafeMath.sol\":2755:2851  function add(uint256 a, uint256 b) internal pure returns (uint256) {... */\n      swap3\n      swap2\n      pop\n      pop\n      jump\t// out\n        /* \"contracts/openzeppelinERC20.sol\":3903:4254  function _burn(address account, uint256 amount) internal virtual {... */\n    tag_99:\n        /* \"contracts/openzeppelinERC20.sol\":4005:4006  0 */\n      0x00\n        /* \"contracts/openzeppelinERC20.sol\":3986:4007  account != address(0) */\n      0xffffffffffffffffffffffffffffffffffffffff\n      and\n        /* \"contracts/openzeppelinERC20.sol\":3986:3993  account */\n      dup3\n        /* \"contracts/openzeppelinERC20.sol\":3986:4007  account != address(0) */\n      0xffffffffffffffffffffffffffffffffffffffff\n      and\n      sub\n        /* \"contracts/openzeppelinERC20.sol\":3978:4045  require(account != address(0), \"ERC20: burn from the zero address\") */\n      tag_141\n      jumpi\n      mload(0x40)\n      0x08c379a000000000000000000000000000000000000000000000000000000000\n      dup2\n      mstore\n      0x04\n      add\n      tag_142\n      swap1\n      tag_143\n      jump\t// in\n    tag_142:\n      mload(0x40)\n      dup1\n      swap2\n      sub\n      swap1\n      revert\n    tag_141:\n        /* \"contracts/openzeppelinERC20.sol\":4077:4145  _balances[account].sub(amount, \"ERC20: burn amount exceeds balance\") */\n      tag_144\n        /* \"contracts/openzeppelinERC20.sol\":4100:4106  amount */\n      dup2\n        /* \"contracts/openzeppelinERC20.sol\":4077:4145  _balances[account].sub(amount, \"ERC20: burn amount exceeds balance\") */\n      mload(0x40)\n      dup1\n      0x60\n      add\n      0x40\n      mstore\n      dup1\n      0x22\n      dup2\n      mstore\n      0x20\n      add\n      data_149b126e7125232b4200af45303d04fba8b74653b1a295a6a561a528c33fefdd\n      0x22\n      swap2\n      codecopy\n        /* \"contracts/openzeppelinERC20.sol\":4077:4086  _balances */\n      0x00\n        /* \"contracts/openzeppelinERC20.sol\":4077:4095  _balances[account] */\n      dup1\n        /* \"contracts/openzeppelinERC20.sol\":4087:4094  account */\n      dup7\n        /* \"contracts/openzeppelinERC20.sol\":4077:4095  _balances[account] */\n      0xffffffffffffffffffffffffffffffffffffffff\n      and\n      0xffffffffffffffffffffffffffffffffffffffff\n      and\n      dup2\n      mstore\n      0x20\n      add\n      swap1\n      dup2\n      mstore\n      0x20\n      add\n      0x00\n      keccak256\n      sload\n        /* \"contracts/openzeppelinERC20.sol\":4077:4099  _balances[account].sub */\n      tag_91\n      swap1\n        /* \"contracts/openzeppelinERC20.sol\":4077:4145  _balances[account].sub(amount, \"ERC20: burn amount exceeds balance\") */\n      swap3\n      swap2\n      swap1\n      0xffffffff\n      and\n      jump\t// in\n    tag_144:\n        /* \"contracts/openzeppelinERC20.sol\":4056:4065  _balances */\n      0x00\n        /* \"contracts/openzeppelinERC20.sol\":4056:4074  _balances[account] */\n      dup1\n        /* \"contracts/openzeppelinERC20.sol\":4066:4073  account */\n      dup5\n        /* \"contracts/openzeppelinERC20.sol\":4056:4074  _balances[account] */\n      0xffffffffffffffffffffffffffffffffffffffff\n      and\n      0xffffffffffffffffffffffffffffffffffffffff\n      and\n      dup2\n      mstore\n      0x20\n      add\n      swap1\n      dup2\n      mstore\n      0x20\n      add\n      0x00\n      keccak256\n        /* \"contracts/openzeppelinERC20.sol\":4056:4145  _balances[account] = _balances[account].sub(amount, \"ERC20: burn amount exceeds balance\") */\n      dup2\n      swap1\n      sstore\n      pop\n        /* \"contracts/openzeppelinERC20.sol\":4170:4194  _totalSupply.sub(amount) */\n      tag_145\n        /* \"contracts/openzeppelinERC20.sol\":4187:4193  amount */\n      dup2\n        /* \"contracts/openzeppelinERC20.sol\":4170:4182  _totalSupply */\n      sload(0x02)\n        /* \"contracts/openzeppelinERC20.sol\":4170:4186  _totalSupply.sub */\n      tag_146\n      swap1\n        /* \"contracts/openzeppelinERC20.sol\":4170:4194  _totalSupply.sub(amount) */\n      swap2\n      swap1\n      0xffffffff\n      and\n      jump\t// in\n    tag_145:\n        /* \"contracts/openzeppelinERC20.sol\":4155:4167  _totalSupply */\n      0x02\n        /* \"contracts/openzeppelinERC20.sol\":4155:4194  _totalSupply = _totalSupply.sub(amount) */\n      dup2\n      swap1\n      sstore\n      pop\n        /* \"contracts/openzeppelinERC20.sol\":4236:4237  0 */\n      0x00\n        /* \"contracts/openzeppelinERC20.sol\":4210:4247  Transfer(account, address(0), amount) */\n      0xffffffffffffffffffffffffffffffffffffffff\n      and\n        /* \"contracts/openzeppelinERC20.sol\":4219:4226  account */\n      dup3\n        /* \"contracts/openzeppelinERC20.sol\":4210:4247  Transfer(account, address(0), amount) */\n      0xffffffffffffffffffffffffffffffffffffffff\n      and\n      0xddf252ad1be2c89b69c2b068fc378daa952ba7f163c4a11628f55a4df523b3ef\n        /* \"contracts/openzeppelinERC20.sol\":4240:4246  amount */\n      dup4\n        /* \"contracts/openzeppelinERC20.sol\":4210:4247  Transfer(account, address(0), amount) */\n      mload(0x40)\n      tag_147\n      swap2\n      swap1\n      tag_31\n      jump\t// in\n    tag_147:\n      mload(0x40)\n      dup1\n      swap2\n      sub\n      swap1\n      log3\n        /* \"contracts/openzeppelinERC20.sol\":3903:4254  function _burn(address account, uint256 amount) internal virtual {... */\n      pop\n      pop\n      jump\t// out\n        /* \"contracts/openzeppelinERC20.sol\":3586:3897  function _mint(address account, uint256 amount) internal virtual {... */\n    tag_112:\n        /* \"contracts/openzeppelinERC20.sol\":3688:3689  0 */\n      0x00\n        /* \"contracts/openzeppelinERC20.sol\":3669:3690  account != address(0) */\n      0xffffffffffffffffffffffffffffffffffffffff\n      and\n        /* \"contracts/openzeppelinERC20.sol\":3669:3676  account */\n      dup3\n        /* \"contracts/openzeppelinERC20.sol\":3669:3690  account != address(0) */\n      0xffffffffffffffffffffffffffffffffffffffff\n      and\n      sub\n        /* \"contracts/openzeppelinERC20.sol\":3661:3726  require(account != address(0), \"ERC20: mint to the zero address\") */\n      tag_149\n      jumpi\n      mload(0x40)\n      0x08c379a000000000000000000000000000000000000000000000000000000000\n      dup2\n      mstore\n      0x04\n      add\n      tag_150\n      swap1\n      tag_151\n      jump\t// in\n    tag_150:\n      mload(0x40)\n      dup1\n      swap2\n      sub\n      swap1\n      revert\n    tag_149:\n        /* \"contracts/openzeppelinERC20.sol\":3752:3776  _totalSupply.add(amount) */\n      tag_152\n        /* \"contracts/openzeppelinERC20.sol\":3769:3775  amount */\n      dup2\n        /* \"contracts/openzeppelinERC20.sol\":3752:3764  _totalSupply */\n      sload(0x02)\n        /* \"contracts/openzeppelinERC20.sol\":3752:3768  _totalSupply.add */\n      tag_96\n      swap1\n        /* \"contracts/openzeppelinERC20.sol\":3752:3776  _totalSupply.add(amount) */\n      swap2\n      swap1\n      0xffffffff\n      and\n      jump\t// in\n    tag_152:\n        /* \"contracts/openzeppelinERC20.sol\":3737:3749  _totalSupply */\n      0x02\n        /* \"contracts/openzeppelinERC20.sol\":3737:3776  _totalSupply = _totalSupply.add(amount) */\n      dup2\n      swap1\n      sstore\n      pop\n        /* \"contracts/openzeppelinERC20.sol\":3807:3837  _balances[account].add(amount) */\n      tag_153\n        /* \"contracts/openzeppelinERC20.sol\":3830:3836  amount */\n      dup2\n        /* \"contracts/openzeppelinERC20.sol\":3807:3816  _balances */\n      0x00\n        /* \"contracts/openzeppelinERC20.sol\":3807:3825  _balances[account] */\n      dup1\n        /* \"contracts/openzeppelinERC20.sol\":3817:3824  account */\n      dup6\n        /* \"contracts/openzeppelinERC20.sol\":3807:3825  _balances[account] */\n      0xffffffffffffffffffffffffffffffffffffffff\n      and\n      0xffffffffffffffffffffffffffffffffffffffff\n      and\n      dup2\n      mstore\n      0x20\n      add\n      swap1\n      dup2\n      mstore\n      0x20\n      add\n      0x00\n      keccak256\n      sload\n        /* \"contracts/openzeppelinERC20.sol\":3807:3829  _balances[account].add */\n      tag_96\n      swap1\n        /* \"contracts/openzeppelinERC20.sol\":3807:3837  _balances[account].add(amount) */\n      swap2\n      swap1\n      0xffffffff\n      and\n      jump\t// in\n    tag_153:\n        /* \"contracts/openzeppelinERC20.sol\":3786:3795  _balances */\n      0x00\n        /* \"contracts/openzeppelinERC20.sol\":3786:3804  _balances[account] */\n      dup1\n        /* \"contracts/openzeppelinERC20.sol\":3796:3803  account */\n      dup5\n        /* \"contracts/openzeppelinERC20.sol\":3786:3804  _balances[account] */\n      0xffffffffffffffffffffffffffffffffffffffff\n      and\n      0xffffffffffffffffffffffffffffffffffffffff\n      and\n      dup2\n      mstore\n      0x20\n      add\n      swap1\n      dup2\n      mstore\n      0x20\n      add\n      0x00\n      keccak256\n        /* \"contracts/openzeppelinERC20.sol\":3786:3837  _balances[account] = _balances[account].add(amount) */\n      dup2\n      swap1\n      sstore\n      pop\n        /* \"contracts/openzeppelinERC20.sol\":3874:3881  account */\n      dup2\n        /* \"contracts/openzeppelinERC20.sol\":3853:3890  Transfer(address(0), account, amount) */\n      0xffffffffffffffffffffffffffffffffffffffff\n      and\n        /* \"contracts/openzeppelinERC20.sol\":3870:3871  0 */\n      0x00\n        /* \"contracts/openzeppelinERC20.sol\":3853:3890  Transfer(address(0), account, amount) */\n      0xffffffffffffffffffffffffffffffffffffffff\n      and\n      0xddf252ad1be2c89b69c2b068fc378daa952ba7f163c4a11628f55a4df523b3ef\n        /* \"contracts/openzeppelinERC20.sol\":3883:3889  amount */\n      dup4\n        /* \"contracts/openzeppelinERC20.sol\":3853:3890  Transfer(address(0), account, amount) */\n      mload(0x40)\n      tag_154\n      swap2\n      swap1\n      tag_31\n      jump\t// in\n    tag_154:\n      mload(0x40)\n      dup1\n      swap2\n      sub\n      swap1\n      log3\n        /* \"contracts/openzeppelinERC20.sol\":3586:3897  function _mint(address account, uint256 amount) internal virtual {... */\n      pop\n      pop\n      jump\t// out\n        /* \"@openzeppelin/contracts/utils/math/SafeMath.sol\":3122:3218  function sub(uint256 a, uint256 b) internal pure returns (uint256) {... */\n    tag_146:\n        /* \"@openzeppelin/contracts/utils/math/SafeMath.sol\":3180:3187  uint256 */\n      0x00\n        /* \"@openzeppelin/contracts/utils/math/SafeMath.sol\":3210:3211  b */\n      dup2\n        /* \"@openzeppelin/contracts/utils/math/SafeMath.sol\":3206:3207  a */\n      dup4\n        /* \"@openzeppelin/contracts/utils/math/SafeMath.sol\":3206:3211  a - b */\n      tag_156\n      swap2\n      swap1\n      tag_157\n      jump\t// in\n    tag_156:\n        /* \"@openzeppelin/contracts/utils/math/SafeMath.sol\":3199:3211  return a - b */\n      swap1\n      pop\n        /* \"@openzeppelin/contracts/utils/math/SafeMath.sol\":3122:3218  function sub(uint256 a, uint256 b) internal pure returns (uint256) {... */\n      swap3\n      swap2\n      pop\n      pop\n      jump\t// out\n        /* \"#utility.yul\":7:106   */\n    tag_158:\n        /* \"#utility.yul\":59:65   */\n      0x00\n        /* \"#utility.yul\":93:98   */\n      dup2\n        /* \"#utility.yul\":87:99   */\n      mload\n        /* \"#utility.yul\":77:99   */\n      swap1\n      pop\n        /* \"#utility.yul\":7:106   */\n      swap2\n      swap1\n      pop\n      jump\t// out\n        /* \"#utility.yul\":112:281   */\n    tag_159:\n        /* \"#utility.yul\":196:207   */\n      0x00\n        /* \"#utility.yul\":230:236   */\n      dup3\n        /* \"#utility.yul\":225:228   */\n      dup3\n        /* \"#utility.yul\":218:237   */\n      mstore\n        /* \"#utility.yul\":270:274   */\n      0x20\n        /* \"#utility.yul\":265:268   */\n      dup3\n        /* \"#utility.yul\":261:275   */\n      add\n        /* \"#utility.yul\":246:275   */\n      swap1\n      pop\n        /* \"#utility.yul\":112:281   */\n      swap3\n      swap2\n      pop\n      pop\n      jump\t// out\n        /* \"#utility.yul\":287:533   */\n    tag_160:\n        /* \"#utility.yul\":368:369   */\n      0x00\n        /* \"#utility.yul\":378:491   */\n    tag_196:\n        /* \"#utility.yul\":392:398   */\n      dup4\n        /* \"#utility.yul\":389:390   */\n      dup2\n        /* \"#utility.yul\":386:399   */\n      lt\n        /* \"#utility.yul\":378:491   */\n      iszero\n      tag_198\n      jumpi\n        /* \"#utility.yul\":477:478   */\n      dup1\n        /* \"#utility.yul\":472:475   */\n      dup3\n        /* \"#utility.yul\":468:479   */\n      add\n        /* \"#utility.yul\":462:480   */\n      mload\n        /* \"#utility.yul\":458:459   */\n      dup2\n        /* \"#utility.yul\":453:456   */\n      dup5\n        /* \"#utility.yul\":449:460   */\n      add\n        /* \"#utility.yul\":442:481   */\n      mstore\n        /* \"#utility.yul\":414:416   */\n      0x20\n        /* \"#utility.yul\":411:412   */\n      dup2\n        /* \"#utility.yul\":407:417   */\n      add\n        /* \"#utility.yul\":402:417   */\n      swap1\n      pop\n        /* \"#utility.yul\":378:491   */\n      jump(tag_196)\n    tag_198:\n        /* \"#utility.yul\":525:526   */\n      0x00\n        /* \"#utility.yul\":516:522   */\n      dup5\n        /* \"#utility.yul\":511:514   */\n      dup5\n        /* \"#utility.yul\":507:523   */\n      add\n        /* \"#utility.yul\":500:527   */\n      mstore\n        /* \"#utility.yul\":349:533   */\n      pop\n        /* \"#utility.yul\":287:533   */\n      pop\n      pop\n      pop\n      jump\t// out\n        /* \"#utility.yul\":539:641   */\n    tag_161:\n        /* \"#utility.yul\":580:586   */\n      0x00\n        /* \"#utility.yul\":631:633   */\n      0x1f\n        /* \"#utility.yul\":627:634   */\n      not\n        /* \"#utility.yul\":622:624   */\n      0x1f\n        /* \"#utility.yul\":615:620   */\n      dup4\n        /* \"#utility.yul\":611:625   */\n      add\n        /* \"#utility.yul\":607:635   */\n      and\n        /* \"#utility.yul\":597:635   */\n      swap1\n      pop\n        /* \"#utility.yul\":539:641   */\n      swap2\n      swap1\n      pop\n      jump\t// out\n        /* \"#utility.yul\":647:1024   */\n    tag_162:\n        /* \"#utility.yul\":735:738   */\n      0x00\n        /* \"#utility.yul\":763:802   */\n      tag_201\n        /* \"#utility.yul\":796:801   */\n      dup3\n        /* \"#utility.yul\":763:802   */\n      tag_158\n      jump\t// in\n    tag_201:\n        /* \"#utility.yul\":818:889   */\n      tag_202\n        /* \"#utility.yul\":882:888   */\n      dup2\n        /* \"#utility.yul\":877:880   */\n      dup6\n        /* \"#utility.yul\":818:889   */\n      tag_159\n      jump\t// in\n    tag_202:\n        /* \"#utility.yul\":811:889   */\n      swap4\n      pop\n        /* \"#utility.yul\":898:963   */\n      tag_203\n        /* \"#utility.yul\":956:962   */\n      dup2\n        /* \"#utility.yul\":951:954   */\n      dup6\n        /* \"#utility.yul\":944:948   */\n      0x20\n        /* \"#utility.yul\":937:942   */\n      dup7\n        /* \"#utility.yul\":933:949   */\n      add\n        /* \"#utility.yul\":898:963   */\n      tag_160\n      jump\t// in\n    tag_203:\n        /* \"#utility.yul\":988:1017   */\n      tag_204\n        /* \"#utility.yul\":1010:1016   */\n      dup2\n        /* \"#utility.yul\":988:1017   */\n      tag_161\n      jump\t// in\n    tag_204:\n        /* \"#utility.yul\":983:986   */\n      dup5\n        /* \"#utility.yul\":979:1018   */\n      add\n        /* \"#utility.yul\":972:1018   */\n      swap2\n      pop\n        /* \"#utility.yul\":739:1024   */\n      pop\n        /* \"#utility.yul\":647:1024   */\n      swap3\n      swap2\n      pop\n      pop\n      jump\t// out\n        /* \"#utility.yul\":1030:1343   */\n    tag_21:\n        /* \"#utility.yul\":1143:1147   */\n      0x00\n        /* \"#utility.yul\":1181:1183   */\n      0x20\n        /* \"#utility.yul\":1170:1179   */\n      dup3\n        /* \"#utility.yul\":1166:1184   */\n      add\n        /* \"#utility.yul\":1158:1184   */\n      swap1\n      pop\n        /* \"#utility.yul\":1230:1239   */\n      dup2\n        /* \"#utility.yul\":1224:1228   */\n      dup2\n        /* \"#utility.yul\":1220:1240   */\n      sub\n        /* \"#utility.yul\":1216:1217   */\n      0x00\n        /* \"#utility.yul\":1205:1214   */\n      dup4\n        /* \"#utility.yul\":1201:1218   */\n      add\n        /* \"#utility.yul\":1194:1241   */\n      mstore\n        /* \"#utility.yul\":1258:1336   */\n      tag_206\n        /* \"#utility.yul\":1331:1335   */\n      dup2\n        /* \"#utility.yul\":1322:1328   */\n      dup5\n        /* \"#utility.yul\":1258:1336   */\n      tag_162\n      jump\t// in\n    tag_206:\n        /* \"#utility.yul\":1250:1336   */\n      swap1\n      pop\n        /* \"#utility.yul\":1030:1343   */\n      swap3\n      swap2\n      pop\n      pop\n      jump\t// out\n        /* \"#utility.yul\":1430:1547   */\n    tag_164:\n        /* \"#utility.yul\":1539:1540   */\n      0x00\n        /* \"#utility.yul\":1536:1537   */\n      dup1\n        /* \"#utility.yul\":1529:1541   */\n      revert\n        /* \"#utility.yul\":1676:1802   */\n    tag_166:\n        /* \"#utility.yul\":1713:1720   */\n      0x00\n        /* \"#utility.yul\":1753:1795   */\n      0xffffffffffffffffffffffffffffffffffffffff\n        /* \"#utility.yul\":1746:1751   */\n      dup3\n        /* \"#utility.yul\":1742:1796   */\n      and\n        /* \"#utility.yul\":1731:1796   */\n      swap1\n      pop\n        /* \"#utility.yul\":1676:1802   */\n      swap2\n      swap1\n      pop\n      jump\t// out\n        /* \"#utility.yul\":1808:1904   */\n    tag_167:\n        /* \"#utility.yul\":1845:1852   */\n      0x00\n        /* \"#utility.yul\":1874:1898   */\n      tag_212\n        /* \"#utility.yul\":1892:1897   */\n      dup3\n        /* \"#utility.yul\":1874:1898   */\n      tag_166\n      jump\t// in\n    tag_212:\n        /* \"#utility.yul\":1863:1898   */\n      swap1\n      pop\n        /* \"#utility.yul\":1808:1904   */\n      swap2\n      swap1\n      pop\n      jump\t// out\n        /* \"#utility.yul\":1910:2032   */\n    tag_168:\n        /* \"#utility.yul\":1983:2007   */\n      tag_214\n        /* \"#utility.yul\":2001:2006   */\n      dup2\n        /* \"#utility.yul\":1983:2007   */\n      tag_167\n      jump\t// in\n    tag_214:\n        /* \"#utility.yul\":1976:1981   */\n      dup2\n        /* \"#utility.yul\":1973:2008   */\n      eq\n        /* \"#utility.yul\":1963:2026   */\n      tag_215\n      jumpi\n        /* \"#utility.yul\":2022:2023   */\n      0x00\n        /* \"#utility.yul\":2019:2020   */\n      dup1\n        /* \"#utility.yul\":2012:2024   */\n      revert\n        /* \"#utility.yul\":1963:2026   */\n    tag_215:\n        /* \"#utility.yul\":1910:2032   */\n      pop\n      jump\t// out\n        /* \"#utility.yul\":2038:2177   */\n    tag_169:\n        /* \"#utility.yul\":2084:2089   */\n      0x00\n        /* \"#utility.yul\":2122:2128   */\n      dup2\n        /* \"#utility.yul\":2109:2129   */\n      calldataload\n        /* \"#utility.yul\":2100:2129   */\n      swap1\n      pop\n        /* \"#utility.yul\":2138:2171   */\n      tag_217\n        /* \"#utility.yul\":2165:2170   */\n      dup2\n        /* \"#utility.yul\":2138:2171   */\n      tag_168\n      jump\t// in\n    tag_217:\n        /* \"#utility.yul\":2038:2177   */\n      swap3\n      swap2\n      pop\n      pop\n      jump\t// out\n        /* \"#utility.yul\":2183:2260   */\n    tag_170:\n        /* \"#utility.yul\":2220:2227   */\n      0x00\n        /* \"#utility.yul\":2249:2254   */\n      dup2\n        /* \"#utility.yul\":2238:2254   */\n      swap1\n      pop\n        /* \"#utility.yul\":2183:2260   */\n      swap2\n      swap1\n      pop\n      jump\t// out\n        /* \"#utility.yul\":2266:2388   */\n    tag_171:\n        /* \"#utility.yul\":2339:2363   */\n      tag_220\n        /* \"#utility.yul\":2357:2362   */\n      dup2\n        /* \"#utility.yul\":2339:2363   */\n      tag_170\n      jump\t// in\n    tag_220:\n        /* \"#utility.yul\":2332:2337   */\n      dup2\n        /* \"#utility.yul\":2329:2364   */\n      eq\n        /* \"#utility.yul\":2319:2382   */\n      tag_221\n      jumpi\n        /* \"#utility.yul\":2378:2379   */\n      0x00\n        /* \"#utility.yul\":2375:2376   */\n      dup1\n        /* \"#utility.yul\":2368:2380   */\n      revert\n        /* \"#utility.yul\":2319:2382   */\n    tag_221:\n        /* \"#utility.yul\":2266:2388   */\n      pop\n      jump\t// out\n        /* \"#utility.yul\":2394:2533   */\n    tag_172:\n        /* \"#utility.yul\":2440:2445   */\n      0x00\n        /* \"#utility.yul\":2478:2484   */\n      dup2\n        /* \"#utility.yul\":2465:2485   */\n      calldataload\n        /* \"#utility.yul\":2456:2485   */\n      swap1\n      pop\n        /* \"#utility.yul\":2494:2527   */\n      tag_223\n        /* \"#utility.yul\":2521:2526   */\n      dup2\n        /* \"#utility.yul\":2494:2527   */\n      tag_171\n      jump\t// in\n    tag_223:\n        /* \"#utility.yul\":2394:2533   */\n      swap3\n      swap2\n      pop\n      pop\n      jump\t// out\n        /* \"#utility.yul\":2539:3013   */\n    tag_24:\n        /* \"#utility.yul\":2607:2613   */\n      0x00\n        /* \"#utility.yul\":2615:2621   */\n      dup1\n        /* \"#utility.yul\":2664:2666   */\n      0x40\n        /* \"#utility.yul\":2652:2661   */\n      dup4\n        /* \"#utility.yul\":2643:2650   */\n      dup6\n        /* \"#utility.yul\":2639:2662   */\n      sub\n        /* \"#utility.yul\":2635:2667   */\n      slt\n        /* \"#utility.yul\":2632:2751   */\n      iszero\n      tag_225\n      jumpi\n        /* \"#utility.yul\":2670:2749   */\n      tag_226\n      tag_164\n      jump\t// in\n    tag_226:\n        /* \"#utility.yul\":2632:2751   */\n    tag_225:\n        /* \"#utility.yul\":2790:2791   */\n      0x00\n        /* \"#utility.yul\":2815:2868   */\n      tag_227\n        /* \"#utility.yul\":2860:2867   */\n      dup6\n        /* \"#utility.yul\":2851:2857   */\n      dup3\n        /* \"#utility.yul\":2840:2849   */\n      dup7\n        /* \"#utility.yul\":2836:2858   */\n      add\n        /* \"#utility.yul\":2815:2868   */\n      tag_169\n      jump\t// in\n    tag_227:\n        /* \"#utility.yul\":2805:2868   */\n      swap3\n      pop\n        /* \"#utility.yul\":2761:2878   */\n      pop\n        /* \"#utility.yul\":2917:2919   */\n      0x20\n        /* \"#utility.yul\":2943:2996   */\n      tag_228\n        /* \"#utility.yul\":2988:2995   */\n      dup6\n        /* \"#utility.yul\":2979:2985   */\n      dup3\n        /* \"#utility.yul\":2968:2977   */\n      dup7\n        /* \"#utility.yul\":2964:2986   */\n      add\n        /* \"#utility.yul\":2943:2996   */\n      tag_172\n      jump\t// in\n    tag_228:\n        /* \"#utility.yul\":2933:2996   */\n      swap2\n      pop\n        /* \"#utility.yul\":2888:3006   */\n      pop\n        /* \"#utility.yul\":2539:3013   */\n      swap3\n      pop\n      swap3\n      swap1\n      pop\n      jump\t// out\n        /* \"#utility.yul\":3019:3109   */\n    tag_173:\n        /* \"#utility.yul\":3053:3060   */\n      0x00\n        /* \"#utility.yul\":3096:3101   */\n      dup2\n        /* \"#utility.yul\":3089:3102   */\n      iszero\n        /* \"#utility.yul\":3082:3103   */\n      iszero\n        /* \"#utility.yul\":3071:3103   */\n      swap1\n      pop\n        /* \"#utility.yul\":3019:3109   */\n      swap2\n      swap1\n      pop\n      jump\t// out\n        /* \"#utility.yul\":3115:3224   */\n    tag_174:\n        /* \"#utility.yul\":3196:3217   */\n      tag_231\n        /* \"#utility.yul\":3211:3216   */\n      dup2\n        /* \"#utility.yul\":3196:3217   */\n      tag_173\n      jump\t// in\n    tag_231:\n        /* \"#utility.yul\":3191:3194   */\n      dup3\n        /* \"#utility.yul\":3184:3218   */\n      mstore\n        /* \"#utility.yul\":3115:3224   */\n      pop\n      pop\n      jump\t// out\n        /* \"#utility.yul\":3230:3440   */\n    tag_27:\n        /* \"#utility.yul\":3317:3321   */\n      0x00\n        /* \"#utility.yul\":3355:3357   */\n      0x20\n        /* \"#utility.yul\":3344:3353   */\n      dup3\n        /* \"#utility.yul\":3340:3358   */\n      add\n        /* \"#utility.yul\":3332:3358   */\n      swap1\n      pop\n        /* \"#utility.yul\":3368:3433   */\n      tag_233\n        /* \"#utility.yul\":3430:3431   */\n      0x00\n        /* \"#utility.yul\":3419:3428   */\n      dup4\n        /* \"#utility.yul\":3415:3432   */\n      add\n        /* \"#utility.yul\":3406:3412   */\n      dup5\n        /* \"#utility.yul\":3368:3433   */\n      tag_174\n      jump\t// in\n    tag_233:\n        /* \"#utility.yul\":3230:3440   */\n      swap3\n      swap2\n      pop\n      pop\n      jump\t// out\n        /* \"#utility.yul\":3446:3564   */\n    tag_175:\n        /* \"#utility.yul\":3533:3557   */\n      tag_235\n        /* \"#utility.yul\":3551:3556   */\n      dup2\n        /* \"#utility.yul\":3533:3557   */\n      tag_170\n      jump\t// in\n    tag_235:\n        /* \"#utility.yul\":3528:3531   */\n      dup3\n        /* \"#utility.yul\":3521:3558   */\n      mstore\n        /* \"#utility.yul\":3446:3564   */\n      pop\n      pop\n      jump\t// out\n        /* \"#utility.yul\":3570:3792   */\n    tag_31:\n        /* \"#utility.yul\":3663:3667   */\n      0x00\n        /* \"#utility.yul\":3701:3703   */\n      0x20\n        /* \"#utility.yul\":3690:3699   */\n      dup3\n        /* \"#utility.yul\":3686:3704   */\n      add\n        /* \"#utility.yul\":3678:3704   */\n      swap1\n      pop\n        /* \"#utility.yul\":3714:3785   */\n      tag_237\n        /* \"#utility.yul\":3782:3783   */\n      0x00\n        /* \"#utility.yul\":3771:3780   */\n      dup4\n        /* \"#utility.yul\":3767:3784   */\n      add\n        /* \"#utility.yul\":3758:3764   */\n      dup5\n        /* \"#utility.yul\":3714:3785   */\n      tag_175\n      jump\t// in\n    tag_237:\n        /* \"#utility.yul\":3570:3792   */\n      swap3\n      swap2\n      pop\n      pop\n      jump\t// out\n        /* \"#utility.yul\":3798:4417   */\n    tag_34:\n        /* \"#utility.yul\":3875:3881   */\n      0x00\n        /* \"#utility.yul\":3883:3889   */\n      dup1\n        /* \"#utility.yul\":3891:3897   */\n      0x00\n        /* \"#utility.yul\":3940:3942   */\n      0x60\n        /* \"#utility.yul\":3928:3937   */\n      dup5\n        /* \"#utility.yul\":3919:3926   */\n      dup7\n        /* \"#utility.yul\":3915:3938   */\n      sub\n        /* \"#utility.yul\":3911:3943   */\n      slt\n        /* \"#utility.yul\":3908:4027   */\n      iszero\n      tag_239\n      jumpi\n        /* \"#utility.yul\":3946:4025   */\n      tag_240\n      tag_164\n      jump\t// in\n    tag_240:\n        /* \"#utility.yul\":3908:4027   */\n    tag_239:\n        /* \"#utility.yul\":4066:4067   */\n      0x00\n        /* \"#utility.yul\":4091:4144   */\n      tag_241\n        /* \"#utility.yul\":4136:4143   */\n      dup7\n        /* \"#utility.yul\":4127:4133   */\n      dup3\n        /* \"#utility.yul\":4116:4125   */\n      dup8\n        /* \"#utility.yul\":4112:4134   */\n      add\n        /* \"#utility.yul\":4091:4144   */\n      tag_169\n      jump\t// in\n    tag_241:\n        /* \"#utility.yul\":4081:4144   */\n      swap4\n      pop\n        /* \"#utility.yul\":4037:4154   */\n      pop\n        /* \"#utility.yul\":4193:4195   */\n      0x20\n        /* \"#utility.yul\":4219:4272   */\n      tag_242\n        /* \"#utility.yul\":4264:4271   */\n      dup7\n        /* \"#utility.yul\":4255:4261   */\n      dup3\n        /* \"#utility.yul\":4244:4253   */\n      dup8\n        /* \"#utility.yul\":4240:4262   */\n      add\n        /* \"#utility.yul\":4219:4272   */\n      tag_169\n      jump\t// in\n    tag_242:\n        /* \"#utility.yul\":4209:4272   */\n      swap3\n      pop\n        /* \"#utility.yul\":4164:4282   */\n      pop\n        /* \"#utility.yul\":4321:4323   */\n      0x40\n        /* \"#utility.yul\":4347:4400   */\n      tag_243\n        /* \"#utility.yul\":4392:4399   */\n      dup7\n        /* \"#utility.yul\":4383:4389   */\n      dup3\n        /* \"#utility.yul\":4372:4381   */\n      dup8\n        /* \"#utility.yul\":4368:4390   */\n      add\n        /* \"#utility.yul\":4347:4400   */\n      tag_172\n      jump\t// in\n    tag_243:\n        /* \"#utility.yul\":4337:4400   */\n      swap2\n      pop\n        /* \"#utility.yul\":4292:4410   */\n      pop\n        /* \"#utility.yul\":3798:4417   */\n      swap3\n      pop\n      swap3\n      pop\n      swap3\n      jump\t// out\n        /* \"#utility.yul\":4423:4509   */\n    tag_176:\n        /* \"#utility.yul\":4458:4465   */\n      0x00\n        /* \"#utility.yul\":4498:4502   */\n      0xff\n        /* \"#utility.yul\":4491:4496   */\n      dup3\n        /* \"#utility.yul\":4487:4503   */\n      and\n        /* \"#utility.yul\":4476:4503   */\n      swap1\n      pop\n        /* \"#utility.yul\":4423:4509   */\n      swap2\n      swap1\n      pop\n      jump\t// out\n        /* \"#utility.yul\":4515:4627   */\n    tag_177:\n        /* \"#utility.yul\":4598:4620   */\n      tag_246\n        /* \"#utility.yul\":4614:4619   */\n      dup2\n        /* \"#utility.yul\":4598:4620   */\n      tag_176\n      jump\t// in\n    tag_246:\n        /* \"#utility.yul\":4593:4596   */\n      dup3\n        /* \"#utility.yul\":4586:4621   */\n      mstore\n        /* \"#utility.yul\":4515:4627   */\n      pop\n      pop\n      jump\t// out\n        /* \"#utility.yul\":4633:4847   */\n    tag_40:\n        /* \"#utility.yul\":4722:4726   */\n      0x00\n        /* \"#utility.yul\":4760:4762   */\n      0x20\n        /* \"#utility.yul\":4749:4758   */\n      dup3\n        /* \"#utility.yul\":4745:4763   */\n      add\n        /* \"#utility.yul\":4737:4763   */\n      swap1\n      pop\n        /* \"#utility.yul\":4773:4840   */\n      tag_248\n        /* \"#utility.yul\":4837:4838   */\n      0x00\n        /* \"#utility.yul\":4826:4835   */\n      dup4\n        /* \"#utility.yul\":4822:4839   */\n      add\n        /* \"#utility.yul\":4813:4819   */\n      dup5\n        /* \"#utility.yul\":4773:4840   */\n      tag_177\n      jump\t// in\n    tag_248:\n        /* \"#utility.yul\":4633:4847   */\n      swap3\n      swap2\n      pop\n      pop\n      jump\t// out\n        /* \"#utility.yul\":4853:5182   */\n    tag_47:\n        /* \"#utility.yul\":4912:4918   */\n      0x00\n        /* \"#utility.yul\":4961:4963   */\n      0x20\n        /* \"#utility.yul\":4949:4958   */\n      dup3\n        /* \"#utility.yul\":4940:4947   */\n      dup5\n        /* \"#utility.yul\":4936:4959   */\n      sub\n        /* \"#utility.yul\":4932:4964   */\n      slt\n        /* \"#utility.yul\":4929:5048   */\n      iszero\n      tag_250\n      jumpi\n        /* \"#utility.yul\":4967:5046   */\n      tag_251\n      tag_164\n      jump\t// in\n    tag_251:\n        /* \"#utility.yul\":4929:5048   */\n    tag_250:\n        /* \"#utility.yul\":5087:5088   */\n      0x00\n        /* \"#utility.yul\":5112:5165   */\n      tag_252\n        /* \"#utility.yul\":5157:5164   */\n      dup5\n        /* \"#utility.yul\":5148:5154   */\n      dup3\n        /* \"#utility.yul\":5137:5146   */\n      dup6\n        /* \"#utility.yul\":5133:5155   */\n      add\n        /* \"#utility.yul\":5112:5165   */\n      tag_172\n      jump\t// in\n    tag_252:\n        /* \"#utility.yul\":5102:5165   */\n      swap2\n      pop\n        /* \"#utility.yul\":5058:5175   */\n      pop\n        /* \"#utility.yul\":4853:5182   */\n      swap3\n      swap2\n      pop\n      pop\n      jump\t// out\n        /* \"#utility.yul\":5188:5517   */\n    tag_52:\n        /* \"#utility.yul\":5247:5253   */\n      0x00\n        /* \"#utility.yul\":5296:5298   */\n      0x20\n        /* \"#utility.yul\":5284:5293   */\n      dup3\n        /* \"#utility.yul\":5275:5282   */\n      dup5\n        /* \"#utility.yul\":5271:5294   */\n      sub\n        /* \"#utility.yul\":5267:5299   */\n      slt\n        /* \"#utility.yul\":5264:5383   */\n      iszero\n      tag_254\n      jumpi\n        /* \"#utility.yul\":5302:5381   */\n      tag_255\n      tag_164\n      jump\t// in\n    tag_255:\n        /* \"#utility.yul\":5264:5383   */\n    tag_254:\n        /* \"#utility.yul\":5422:5423   */\n      0x00\n        /* \"#utility.yul\":5447:5500   */\n      tag_256\n        /* \"#utility.yul\":5492:5499   */\n      dup5\n        /* \"#utility.yul\":5483:5489   */\n      dup3\n        /* \"#utility.yul\":5472:5481   */\n      dup6\n        /* \"#utility.yul\":5468:5490   */\n      add\n        /* \"#utility.yul\":5447:5500   */\n      tag_169\n      jump\t// in\n    tag_256:\n        /* \"#utility.yul\":5437:5500   */\n      swap2\n      pop\n        /* \"#utility.yul\":5393:5510   */\n      pop\n        /* \"#utility.yul\":5188:5517   */\n      swap3\n      swap2\n      pop\n      pop\n      jump\t// out\n        /* \"#utility.yul\":5523:5997   */\n    tag_72:\n        /* \"#utility.yul\":5591:5597   */\n      0x00\n        /* \"#utility.yul\":5599:5605   */\n      dup1\n        /* \"#utility.yul\":5648:5650   */\n      0x40\n        /* \"#utility.yul\":5636:5645   */\n      dup4\n        /* \"#utility.yul\":5627:5634   */\n      dup6\n        /* \"#utility.yul\":5623:5646   */\n      sub\n        /* \"#utility.yul\":5619:5651   */\n      slt\n        /* \"#utility.yul\":5616:5735   */\n      iszero\n      tag_258\n      jumpi\n        /* \"#utility.yul\":5654:5733   */\n      tag_259\n      tag_164\n      jump\t// in\n    tag_259:\n        /* \"#utility.yul\":5616:5735   */\n    tag_258:\n        /* \"#utility.yul\":5774:5775   */\n      0x00\n        /* \"#utility.yul\":5799:5852   */\n      tag_260\n        /* \"#utility.yul\":5844:5851   */\n      dup6\n        /* \"#utility.yul\":5835:5841   */\n      dup3\n        /* \"#utility.yul\":5824:5833   */\n      dup7\n        /* \"#utility.yul\":5820:5842   */\n      add\n        /* \"#utility.yul\":5799:5852   */\n      tag_169\n      jump\t// in\n    tag_260:\n        /* \"#utility.yul\":5789:5852   */\n      swap3\n      pop\n        /* \"#utility.yul\":5745:5862   */\n      pop\n        /* \"#utility.yul\":5901:5903   */\n      0x20\n        /* \"#utility.yul\":5927:5980   */\n      tag_261\n        /* \"#utility.yul\":5972:5979   */\n      dup6\n        /* \"#utility.yul\":5963:5969   */\n      dup3\n        /* \"#utility.yul\":5952:5961   */\n      dup7\n        /* \"#utility.yul\":5948:5970   */\n      add\n        /* \"#utility.yul\":5927:5980   */\n      tag_169\n      jump\t// in\n    tag_261:\n        /* \"#utility.yul\":5917:5980   */\n      swap2\n      pop\n        /* \"#utility.yul\":5872:5990   */\n      pop\n        /* \"#utility.yul\":5523:5997   */\n      swap3\n      pop\n      swap3\n      swap1\n      pop\n      jump\t// out\n        /* \"#utility.yul\":6003:6183   */\n    tag_178:\n        /* \"#utility.yul\":6051:6128   */\n      0x4e487b7100000000000000000000000000000000000000000000000000000000\n        /* \"#utility.yul\":6048:6049   */\n      0x00\n        /* \"#utility.yul\":6041:6129   */\n      mstore\n        /* \"#utility.yul\":6148:6152   */\n      0x22\n        /* \"#utility.yul\":6145:6146   */\n      0x04\n        /* \"#utility.yul\":6138:6153   */\n      mstore\n        /* \"#utility.yul\":6172:6176   */\n      0x24\n        /* \"#utility.yul\":6169:6170   */\n      0x00\n        /* \"#utility.yul\":6162:6177   */\n      revert\n        /* \"#utility.yul\":6189:6509   */\n    tag_77:\n        /* \"#utility.yul\":6233:6239   */\n      0x00\n        /* \"#utility.yul\":6270:6271   */\n      0x02\n        /* \"#utility.yul\":6264:6268   */\n      dup3\n        /* \"#utility.yul\":6260:6272   */\n      div\n        /* \"#utility.yul\":6250:6272   */\n      swap1\n      pop\n        /* \"#utility.yul\":6317:6318   */\n      0x01\n        /* \"#utility.yul\":6311:6315   */\n      dup3\n        /* \"#utility.yul\":6307:6319   */\n      and\n        /* \"#utility.yul\":6338:6356   */\n      dup1\n        /* \"#utility.yul\":6328:6409   */\n      tag_264\n      jumpi\n        /* \"#utility.yul\":6394:6398   */\n      0x7f\n        /* \"#utility.yul\":6386:6392   */\n      dup3\n        /* \"#utility.yul\":6382:6399   */\n      and\n        /* \"#utility.yul\":6372:6399   */\n      swap2\n      pop\n        /* \"#utility.yul\":6328:6409   */\n    tag_264:\n        /* \"#utility.yul\":6456:6458   */\n      0x20\n        /* \"#utility.yul\":6448:6454   */\n      dup3\n        /* \"#utility.yul\":6445:6459   */\n      lt\n        /* \"#utility.yul\":6425:6443   */\n      dup2\n        /* \"#utility.yul\":6422:6460   */\n      sub\n        /* \"#utility.yul\":6419:6503   */\n      tag_265\n      jumpi\n        /* \"#utility.yul\":6475:6493   */\n      tag_266\n      tag_178\n      jump\t// in\n    tag_266:\n        /* \"#utility.yul\":6419:6503   */\n    tag_265:\n        /* \"#utility.yul\":6240:6509   */\n      pop\n        /* \"#utility.yul\":6189:6509   */\n      swap2\n      swap1\n      pop\n      jump\t// out\n        /* \"#utility.yul\":6515:6738   */\n    tag_179:\n        /* \"#utility.yul\":6655:6689   */\n      0x45524332303a20617070726f76652066726f6d20746865207a65726f20616464\n        /* \"#utility.yul\":6651:6652   */\n      0x00\n        /* \"#utility.yul\":6643:6649   */\n      dup3\n        /* \"#utility.yul\":6639:6653   */\n      add\n        /* \"#utility.yul\":6632:6690   */\n      mstore\n        /* \"#utility.yul\":6724:6730   */\n      0x7265737300000000000000000000000000000000000000000000000000000000\n        /* \"#utility.yul\":6719:6721   */\n      0x20\n        /* \"#utility.yul\":6711:6717   */\n      dup3\n        /* \"#utility.yul\":6707:6722   */\n      add\n        /* \"#utility.yul\":6700:6731   */\n      mstore\n        /* \"#utility.yul\":6515:6738   */\n      pop\n      jump\t// out\n        /* \"#utility.yul\":6744:7110   */\n    tag_180:\n        /* \"#utility.yul\":6886:6889   */\n      0x00\n        /* \"#utility.yul\":6907:6974   */\n      tag_269\n        /* \"#utility.yul\":6971:6973   */\n      0x24\n        /* \"#utility.yul\":6966:6969   */\n      dup4\n        /* \"#utility.yul\":6907:6974   */\n      tag_159\n      jump\t// in\n    tag_269:\n        /* \"#utility.yul\":6900:6974   */\n      swap2\n      pop\n        /* \"#utility.yul\":6983:7076   */\n      tag_270\n        /* \"#utility.yul\":7072:7075   */\n      dup3\n        /* \"#utility.yul\":6983:7076   */\n      tag_179\n      jump\t// in\n    tag_270:\n        /* \"#utility.yul\":7101:7103   */\n      0x40\n        /* \"#utility.yul\":7096:7099   */\n      dup3\n        /* \"#utility.yul\":7092:7104   */\n      add\n        /* \"#utility.yul\":7085:7104   */\n      swap1\n      pop\n        /* \"#utility.yul\":6744:7110   */\n      swap2\n      swap1\n      pop\n      jump\t// out\n        /* \"#utility.yul\":7116:7535   */\n    tag_119:\n        /* \"#utility.yul\":7282:7286   */\n      0x00\n        /* \"#utility.yul\":7320:7322   */\n      0x20\n        /* \"#utility.yul\":7309:7318   */\n      dup3\n        /* \"#utility.yul\":7305:7323   */\n      add\n        /* \"#utility.yul\":7297:7323   */\n      swap1\n      pop\n        /* \"#utility.yul\":7369:7378   */\n      dup2\n        /* \"#utility.yul\":7363:7367   */\n      dup2\n        /* \"#utility.yul\":7359:7379   */\n      sub\n        /* \"#utility.yul\":7355:7356   */\n      0x00\n        /* \"#utility.yul\":7344:7353   */\n      dup4\n        /* \"#utility.yul\":7340:7357   */\n      add\n        /* \"#utility.yul\":7333:7380   */\n      mstore\n        /* \"#utility.yul\":7397:7528   */\n      tag_272\n        /* \"#utility.yul\":7523:7527   */\n      dup2\n        /* \"#utility.yul\":7397:7528   */\n      tag_180\n      jump\t// in\n    tag_272:\n        /* \"#utility.yul\":7389:7528   */\n      swap1\n      pop\n        /* \"#utility.yul\":7116:7535   */\n      swap2\n      swap1\n      pop\n      jump\t// out\n        /* \"#utility.yul\":7541:7762   */\n    tag_181:\n        /* \"#utility.yul\":7681:7715   */\n      0x45524332303a20617070726f766520746f20746865207a65726f206164647265\n        /* \"#utility.yul\":7677:7678   */\n      0x00\n        /* \"#utility.yul\":7669:7675   */\n      dup3\n        /* \"#utility.yul\":7665:7679   */\n      add\n        /* \"#utility.yul\":7658:7716   */\n      mstore\n        /* \"#utility.yul\":7750:7754   */\n      0x7373000000000000000000000000000000000000000000000000000000000000\n        /* \"#utility.yul\":7745:7747   */\n      0x20\n        /* \"#utility.yul\":7737:7743   */\n      dup3\n        /* \"#utility.yul\":7733:7748   */\n      add\n        /* \"#utility.yul\":7726:7755   */\n      mstore\n        /* \"#utility.yul\":7541:7762   */\n      pop\n      jump\t// out\n        /* \"#utility.yul\":7768:8134   */\n    tag_182:\n        /* \"#utility.yul\":7910:7913   */\n      0x00\n        /* \"#utility.yul\":7931:7998   */\n      tag_275\n        /* \"#utility.yul\":7995:7997   */\n      0x22\n        /* \"#utility.yul\":7990:7993   */\n      dup4\n        /* \"#utility.yul\":7931:7998   */\n      tag_159\n      jump\t// in\n    tag_275:\n        /* \"#utility.yul\":7924:7998   */\n      swap2\n      pop\n        /* \"#utility.yul\":8007:8100   */\n      tag_276\n        /* \"#utility.yul\":8096:8099   */\n      dup3\n        /* \"#utility.yul\":8007:8100   */\n      tag_181\n      jump\t// in\n    tag_276:\n        /* \"#utility.yul\":8125:8127   */\n      0x40\n        /* \"#utility.yul\":8120:8123   */\n      dup3\n        /* \"#utility.yul\":8116:8128   */\n      add\n        /* \"#utility.yul\":8109:8128   */\n      swap1\n      pop\n        /* \"#utility.yul\":7768:8134   */\n      swap2\n      swap1\n      pop\n      jump\t// out\n        /* \"#utility.yul\":8140:8559   */\n    tag_122:\n        /* \"#utility.yul\":8306:8310   */\n      0x00\n        /* \"#utility.yul\":8344:8346   */\n      0x20\n        /* \"#utility.yul\":8333:8342   */\n      dup3\n        /* \"#utility.yul\":8329:8347   */\n      add\n        /* \"#utility.yul\":8321:8347   */\n      swap1\n      pop\n        /* \"#utility.yul\":8393:8402   */\n      dup2\n        /* \"#utility.yul\":8387:8391   */\n      dup2\n        /* \"#utility.yul\":8383:8403   */\n      sub\n        /* \"#utility.yul\":8379:8380   */\n      0x00\n        /* \"#utility.yul\":8368:8377   */\n      dup4\n        /* \"#utility.yul\":8364:8381   */\n      add\n        /* \"#utility.yul\":8357:8404   */\n      mstore\n        /* \"#utility.yul\":8421:8552   */\n      tag_278\n        /* \"#utility.yul\":8547:8551   */\n      dup2\n        /* \"#utility.yul\":8421:8552   */\n      tag_182\n      jump\t// in\n    tag_278:\n        /* \"#utility.yul\":8413:8552   */\n      swap1\n      pop\n        /* \"#utility.yul\":8140:8559   */\n      swap2\n      swap1\n      pop\n      jump\t// out\n        /* \"#utility.yul\":8565:8789   */\n    tag_183:\n        /* \"#utility.yul\":8705:8739   */\n      0x45524332303a207472616e736665722066726f6d20746865207a65726f206164\n        /* \"#utility.yul\":8701:8702   */\n      0x00\n        /* \"#utility.yul\":8693:8699   */\n      dup3\n        /* \"#utility.yul\":8689:8703   */\n      add\n        /* \"#utility.yul\":8682:8740   */\n      mstore\n        /* \"#utility.yul\":8774:8781   */\n      0x6472657373000000000000000000000000000000000000000000000000000000\n        /* \"#utility.yul\":8769:8771   */\n      0x20\n        /* \"#utility.yul\":8761:8767   */\n      dup3\n        /* \"#utility.yul\":8757:8772   */\n      add\n        /* \"#utility.yul\":8750:8782   */\n      mstore\n        /* \"#utility.yul\":8565:8789   */\n      pop\n      jump\t// out\n        /* \"#utility.yul\":8795:9161   */\n    tag_184:\n        /* \"#utility.yul\":8937:8940   */\n      0x00\n        /* \"#utility.yul\":8958:9025   */\n      tag_281\n        /* \"#utility.yul\":9022:9024   */\n      0x25\n        /* \"#utility.yul\":9017:9020   */\n      dup4\n        /* \"#utility.yul\":8958:9025   */\n      tag_159\n      jump\t// in\n    tag_281:\n        /* \"#utility.yul\":8951:9025   */\n      swap2\n      pop\n        /* \"#utility.yul\":9034:9127   */\n      tag_282\n        /* \"#utility.yul\":9123:9126   */\n      dup3\n        /* \"#utility.yul\":9034:9127   */\n      tag_183\n      jump\t// in\n    tag_282:\n        /* \"#utility.yul\":9152:9154   */\n      0x40\n        /* \"#utility.yul\":9147:9150   */\n      dup3\n        /* \"#utility.yul\":9143:9155   */\n      add\n        /* \"#utility.yul\":9136:9155   */\n      swap1\n      pop\n        /* \"#utility.yul\":8795:9161   */\n      swap2\n      swap1\n      pop\n      jump\t// out\n        /* \"#utility.yul\":9167:9586   */\n    tag_127:\n        /* \"#utility.yul\":9333:9337   */\n      0x00\n        /* \"#utility.yul\":9371:9373   */\n      0x20\n        /* \"#utility.yul\":9360:9369   */\n      dup3\n        /* \"#utility.yul\":9356:9374   */\n      add\n        /* \"#utility.yul\":9348:9374   */\n      swap1\n      pop\n        /* \"#utility.yul\":9420:9429   */\n      dup2\n        /* \"#utility.yul\":9414:9418   */\n      dup2\n        /* \"#utility.yul\":9410:9430   */\n      sub\n        /* \"#utility.yul\":9406:9407   */\n      0x00\n        /* \"#utility.yul\":9395:9404   */\n      dup4\n        /* \"#utility.yul\":9391:9408   */\n      add\n        /* \"#utility.yul\":9384:9431   */\n      mstore\n        /* \"#utility.yul\":9448:9579   */\n      tag_284\n        /* \"#utility.yul\":9574:9578   */\n      dup2\n        /* \"#utility.yul\":9448:9579   */\n      tag_184\n      jump\t// in\n    tag_284:\n        /* \"#utility.yul\":9440:9579   */\n      swap1\n      pop\n        /* \"#utility.yul\":9167:9586   */\n      swap2\n      swap1\n      pop\n      jump\t// out\n        /* \"#utility.yul\":9592:9814   */\n    tag_185:\n        /* \"#utility.yul\":9732:9766   */\n      0x45524332303a207472616e7366657220746f20746865207a65726f2061646472\n        /* \"#utility.yul\":9728:9729   */\n      0x00\n        /* \"#utility.yul\":9720:9726   */\n      dup3\n        /* \"#utility.yul\":9716:9730   */\n      add\n        /* \"#utility.yul\":9709:9767   */\n      mstore\n        /* \"#utility.yul\":9801:9806   */\n      0x6573730000000000000000000000000000000000000000000000000000000000\n        /* \"#utility.yul\":9796:9798   */\n      0x20\n        /* \"#utility.yul\":9788:9794   */\n      dup3\n        /* \"#utility.yul\":9784:9799   */\n      add\n        /* \"#utility.yul\":9777:9807   */\n      mstore\n        /* \"#utility.yul\":9592:9814   */\n      pop\n      jump\t// out\n        /* \"#utility.yul\":9820:10186   */\n    tag_186:\n        /* \"#utility.yul\":9962:9965   */\n      0x00\n        /* \"#utility.yul\":9983:10050   */\n      tag_287\n        /* \"#utility.yul\":10047:10049   */\n      0x23\n        /* \"#utility.yul\":10042:10045   */\n      dup4\n        /* \"#utility.yul\":9983:10050   */\n      tag_159\n      jump\t// in\n    tag_287:\n        /* \"#utility.yul\":9976:10050   */\n      swap2\n      pop\n        /* \"#utility.yul\":10059:10152   */\n      tag_288\n        /* \"#utility.yul\":10148:10151   */\n      dup3\n        /* \"#utility.yul\":10059:10152   */\n      tag_185\n      jump\t// in\n    tag_288:\n        /* \"#utility.yul\":10177:10179   */\n      0x40\n        /* \"#utility.yul\":10172:10175   */\n      dup3\n        /* \"#utility.yul\":10168:10180   */\n      add\n        /* \"#utility.yul\":10161:10180   */\n      swap1\n      pop\n        /* \"#utility.yul\":9820:10186   */\n      swap2\n      swap1\n      pop\n      jump\t// out\n        /* \"#utility.yul\":10192:10611   */\n    tag_130:\n        /* \"#utility.yul\":10358:10362   */\n      0x00\n        /* \"#utility.yul\":10396:10398   */\n      0x20\n        /* \"#utility.yul\":10385:10394   */\n      dup3\n        /* \"#utility.yul\":10381:10399   */\n      add\n        /* \"#utility.yul\":10373:10399   */\n      swap1\n      pop\n        /* \"#utility.yul\":10445:10454   */\n      dup2\n        /* \"#utility.yul\":10439:10443   */\n      dup2\n        /* \"#utility.yul\":10435:10455   */\n      sub\n        /* \"#utility.yul\":10431:10432   */\n      0x00\n        /* \"#utility.yul\":10420:10429   */\n      dup4\n        /* \"#utility.yul\":10416:10433   */\n      add\n        /* \"#utility.yul\":10409:10456   */\n      mstore\n        /* \"#utility.yul\":10473:10604   */\n      tag_290\n        /* \"#utility.yul\":10599:10603   */\n      dup2\n        /* \"#utility.yul\":10473:10604   */\n      tag_186\n      jump\t// in\n    tag_290:\n        /* \"#utility.yul\":10465:10604   */\n      swap1\n      pop\n        /* \"#utility.yul\":10192:10611   */\n      swap2\n      swap1\n      pop\n      jump\t// out\n        /* \"#utility.yul\":10617:10797   */\n    tag_187:\n        /* \"#utility.yul\":10665:10742   */\n      0x4e487b7100000000000000000000000000000000000000000000000000000000\n        /* \"#utility.yul\":10662:10663   */\n      0x00\n        /* \"#utility.yul\":10655:10743   */\n      mstore\n        /* \"#utility.yul\":10762:10766   */\n      0x11\n        /* \"#utility.yul\":10759:10760   */\n      0x04\n        /* \"#utility.yul\":10752:10767   */\n      mstore\n        /* \"#utility.yul\":10786:10790   */\n      0x24\n        /* \"#utility.yul\":10783:10784   */\n      0x00\n        /* \"#utility.yul\":10776:10791   */\n      revert\n        /* \"#utility.yul\":10803:10994   */\n    tag_139:\n        /* \"#utility.yul\":10843:10846   */\n      0x00\n        /* \"#utility.yul\":10862:10882   */\n      tag_293\n        /* \"#utility.yul\":10880:10881   */\n      dup3\n        /* \"#utility.yul\":10862:10882   */\n      tag_170\n      jump\t// in\n    tag_293:\n        /* \"#utility.yul\":10857:10882   */\n      swap2\n      pop\n        /* \"#utility.yul\":10896:10916   */\n      tag_294\n        /* \"#utility.yul\":10914:10915   */\n      dup4\n        /* \"#utility.yul\":10896:10916   */\n      tag_170\n      jump\t// in\n    tag_294:\n        /* \"#utility.yul\":10891:10916   */\n      swap3\n      pop\n        /* \"#utility.yul\":10939:10940   */\n      dup3\n        /* \"#utility.yul\":10936:10937   */\n      dup3\n        /* \"#utility.yul\":10932:10941   */\n      add\n        /* \"#utility.yul\":10925:10941   */\n      swap1\n      pop\n        /* \"#utility.yul\":10960:10963   */\n      dup1\n        /* \"#utility.yul\":10957:10958   */\n      dup3\n        /* \"#utility.yul\":10954:10964   */\n      gt\n        /* \"#utility.yul\":10951:10987   */\n      iszero\n      tag_295\n      jumpi\n        /* \"#utility.yul\":10967:10985   */\n      tag_296\n      tag_187\n      jump\t// in\n    tag_296:\n        /* \"#utility.yul\":10951:10987   */\n    tag_295:\n        /* \"#utility.yul\":10803:10994   */\n      swap3\n      swap2\n      pop\n      pop\n      jump\t// out\n        /* \"#utility.yul\":11000:11220   */\n    tag_188:\n        /* \"#utility.yul\":11140:11174   */\n      0x45524332303a206275726e2066726f6d20746865207a65726f20616464726573\n        /* \"#utility.yul\":11136:11137   */\n      0x00\n        /* \"#utility.yul\":11128:11134   */\n      dup3\n        /* \"#utility.yul\":11124:11138   */\n      add\n        /* \"#utility.yul\":11117:11175   */\n      mstore\n        /* \"#utility.yul\":11209:11212   */\n      0x7300000000000000000000000000000000000000000000000000000000000000\n        /* \"#utility.yul\":11204:11206   */\n      0x20\n        /* \"#utility.yul\":11196:11202   */\n      dup3\n        /* \"#utility.yul\":11192:11207   */\n      add\n        /* \"#utility.yul\":11185:11213   */\n      mstore\n        /* \"#utility.yul\":11000:11220   */\n      pop\n      jump\t// out\n        /* \"#utility.yul\":11226:11592   */\n    tag_189:\n        /* \"#utility.yul\":11368:11371   */\n      0x00\n        /* \"#utility.yul\":11389:11456   */\n      tag_299\n        /* \"#utility.yul\":11453:11455   */\n      0x21\n        /* \"#utility.yul\":11448:11451   */\n      dup4\n        /* \"#utility.yul\":11389:11456   */\n      tag_159\n      jump\t// in\n    tag_299:\n        /* \"#utility.yul\":11382:11456   */\n      swap2\n      pop\n        /* \"#utility.yul\":11465:11558   */\n      tag_300\n        /* \"#utility.yul\":11554:11557   */\n      dup3\n        /* \"#utility.yul\":11465:11558   */\n      tag_188\n      jump\t// in\n    tag_300:\n        /* \"#utility.yul\":11583:11585   */\n      0x40\n        /* \"#utility.yul\":11578:11581   */\n      dup3\n        /* \"#utility.yul\":11574:11586   */\n      add\n        /* \"#utility.yul\":11567:11586   */\n      swap1\n      pop\n        /* \"#utility.yul\":11226:11592   */\n      swap2\n      swap1\n      pop\n      jump\t// out\n        /* \"#utility.yul\":11598:12017   */\n    tag_143:\n        /* \"#utility.yul\":11764:11768   */\n      0x00\n        /* \"#utility.yul\":11802:11804   */\n      0x20\n        /* \"#utility.yul\":11791:11800   */\n      dup3\n        /* \"#utility.yul\":11787:11805   */\n      add\n        /* \"#utility.yul\":11779:11805   */\n      swap1\n      pop\n        /* \"#utility.yul\":11851:11860   */\n      dup2\n        /* \"#utility.yul\":11845:11849   */\n      dup2\n        /* \"#utility.yul\":11841:11861   */\n      sub\n        /* \"#utility.yul\":11837:11838   */\n      0x00\n        /* \"#utility.yul\":11826:11835   */\n      dup4\n        /* \"#utility.yul\":11822:11839   */\n      add\n        /* \"#utility.yul\":11815:11862   */\n      mstore\n        /* \"#utility.yul\":11879:12010   */\n      tag_302\n        /* \"#utility.yul\":12005:12009   */\n      dup2\n        /* \"#utility.yul\":11879:12010   */\n      tag_189\n      jump\t// in\n    tag_302:\n        /* \"#utility.yul\":11871:12010   */\n      swap1\n      pop\n        /* \"#utility.yul\":11598:12017   */\n      swap2\n      swap1\n      pop\n      jump\t// out\n        /* \"#utility.yul\":12023:12204   */\n    tag_190:\n        /* \"#utility.yul\":12163:12196   */\n      0x45524332303a206d696e7420746f20746865207a65726f206164647265737300\n        /* \"#utility.yul\":12159:12160   */\n      0x00\n        /* \"#utility.yul\":12151:12157   */\n      dup3\n        /* \"#utility.yul\":12147:12161   */\n      add\n        /* \"#utility.yul\":12140:12197   */\n      mstore\n        /* \"#utility.yul\":12023:12204   */\n      pop\n      jump\t// out\n        /* \"#utility.yul\":12210:12576   */\n    tag_191:\n        /* \"#utility.yul\":12352:12355   */\n      0x00\n        /* \"#utility.yul\":12373:12440   */\n      tag_305\n        /* \"#utility.yul\":12437:12439   */\n      0x1f\n        /* \"#utility.yul\":12432:12435   */\n      dup4\n        /* \"#utility.yul\":12373:12440   */\n      tag_159\n      jump\t// in\n    tag_305:\n        /* \"#utility.yul\":12366:12440   */\n      swap2\n      pop\n        /* \"#utility.yul\":12449:12542   */\n      tag_306\n        /* \"#utility.yul\":12538:12541   */\n      dup3\n        /* \"#utility.yul\":12449:12542   */\n      tag_190\n      jump\t// in\n    tag_306:\n        /* \"#utility.yul\":12567:12569   */\n      0x20\n        /* \"#utility.yul\":12562:12565   */\n      dup3\n        /* \"#utility.yul\":12558:12570   */\n      add\n        /* \"#utility.yul\":12551:12570   */\n      swap1\n      pop\n        /* \"#utility.yul\":12210:12576   */\n      swap2\n      swap1\n      pop\n      jump\t// out\n        /* \"#utility.yul\":12582:13001   */\n    tag_151:\n        /* \"#utility.yul\":12748:12752   */\n      0x00\n        /* \"#utility.yul\":12786:12788   */\n      0x20\n        /* \"#utility.yul\":12775:12784   */\n      dup3\n        /* \"#utility.yul\":12771:12789   */\n      add\n        /* \"#utility.yul\":12763:12789   */\n      swap1\n      pop\n        /* \"#utility.yul\":12835:12844   */\n      dup2\n        /* \"#utility.yul\":12829:12833   */\n      dup2\n        /* \"#utility.yul\":12825:12845   */\n      sub\n        /* \"#utility.yul\":12821:12822   */\n      0x00\n        /* \"#utility.yul\":12810:12819   */\n      dup4\n        /* \"#utility.yul\":12806:12823   */\n      add\n        /* \"#utility.yul\":12799:12846   */\n      mstore\n        /* \"#utility.yul\":12863:12994   */\n      tag_308\n        /* \"#utility.yul\":12989:12993   */\n      dup2\n        /* \"#utility.yul\":12863:12994   */\n      tag_191\n      jump\t// in\n    tag_308:\n        /* \"#utility.yul\":12855:12994   */\n      swap1\n      pop\n        /* \"#utility.yul\":12582:13001   */\n      swap2\n      swap1\n      pop\n      jump\t// out\n        /* \"#utility.yul\":13007:13201   */\n    tag_157:\n        /* \"#utility.yul\":13047:13051   */\n      0x00\n        /* \"#utility.yul\":13067:13087   */\n      tag_310\n        /* \"#utility.yul\":13085:13086   */\n      dup3\n        /* \"#utility.yul\":13067:13087   */\n      tag_170\n      jump\t// in\n    tag_310:\n        /* \"#utility.yul\":13062:13087   */\n      swap2\n      pop\n        /* \"#utility.yul\":13101:13121   */\n      tag_311\n        /* \"#utility.yul\":13119:13120   */\n      dup4\n        /* \"#utility.yul\":13101:13121   */\n      tag_170\n      jump\t// in\n    tag_311:\n        /* \"#utility.yul\":13096:13121   */\n      swap3\n      pop\n        /* \"#utility.yul\":13145:13146   */\n      dup3\n        /* \"#utility.yul\":13142:13143   */\n      dup3\n        /* \"#utility.yul\":13138:13147   */\n      sub\n        /* \"#utility.yul\":13130:13147   */\n      swap1\n      pop\n        /* \"#utility.yul\":13169:13170   */\n      dup2\n        /* \"#utility.yul\":13163:13167   */\n      dup2\n        /* \"#utility.yul\":13160:13171   */\n      gt\n        /* \"#utility.yul\":13157:13194   */\n      iszero\n      tag_312\n      jumpi\n        /* \"#utility.yul\":13174:13192   */\n      tag_313\n      tag_187\n      jump\t// in\n    tag_313:\n        /* \"#utility.yul\":13157:13194   */\n    tag_312:\n        /* \"#utility.yul\":13007:13201   */\n      swap3\n      swap2\n      pop\n      pop\n      jump\t// out\n    stop\n    data_149b126e7125232b4200af45303d04fba8b74653b1a295a6a561a528c33fefdd 45524332303a206275726e20616d6f756e7420657863656564732062616c616e6365\n    data_50b6ca6c870f7c628d7935e23858a7c07fe6ab9003807217ab6e8f562681def2 4552433a207472616e7366657220616d6f756e7420657863656564732062616c616e6365\n    data_974d1b4421da69cc60b481194f0dad36a5bb4e23da810da7a7fb30cdba178330 45524332303a207472616e7366657220616d6f756e74206578636565647320616c6c6f77616e6365\n    data_f8b476f7d28209d77d4a4ac1fe36b9f8259aa1bb6bddfa6e89de7e51615cf8a8 45524332303a2064656372656173656420616c6c6f77616e63652062656c6f77207a65726f\n\n    auxdata: 0xa26469706673582212208507e8bb67e2d51f0baacd4c69ea3159f9eeb8efccf6a273c030e6c77b824d6264736f6c63430008120033\n}\n",
				"bytecode": {
					"linkReferences": {},
					"object": "60806040523480156200001157600080fd5b5060405162001dd238038062001dd2833981810160405281019062000037919062000250565b826003908162000048919062000535565b5081600490816200005a919062000535565b5080600560006101000a81548160ff021916908360ff1602179055505050506200061c565b6000604051905090565b600080fd5b600080fd5b600080fd5b600080fd5b6000601f19601f8301169050919050565b7f4e487b7100000000000000000000000000000000000000000000000000000000600052604160045260246000fd5b620000e8826200009d565b810181811067ffffffffffffffff821117156200010a5762000109620000ae565b5b80604052505050565b60006200011f6200007f565b90506200012d8282620000dd565b919050565b600067ffffffffffffffff82111562000150576200014f620000ae565b5b6200015b826200009d565b9050602081019050919050565b60005b83811015620001885780820151818401526020810190506200016b565b60008484015250505050565b6000620001ab620001a58462000132565b62000113565b905082815260208101848484011115620001ca57620001c962000098565b5b620001d784828562000168565b509392505050565b600082601f830112620001f757620001f662000093565b5b81516200020984826020860162000194565b91505092915050565b600060ff82169050919050565b6200022a8162000212565b81146200023657600080fd5b50565b6000815190506200024a816200021f565b92915050565b6000806000606084860312156200026c576200026b62000089565b5b600084015167ffffffffffffffff8111156200028d576200028c6200008e565b5b6200029b86828701620001df565b935050602084015167ffffffffffffffff811115620002bf57620002be6200008e565b5b620002cd86828701620001df565b9250506040620002e08682870162000239565b9150509250925092565b600081519050919050565b7f4e487b7100000000000000000000000000000000000000000000000000000000600052602260045260246000fd5b600060028204905060018216806200033d57607f821691505b602082108103620003535762000352620002f5565b5b50919050565b60008190508160005260206000209050919050565b60006020601f8301049050919050565b600082821b905092915050565b600060088302620003bd7fffffffffffffffffffffffffffffffffffffffffffffffffffffffffffffffff826200037e565b620003c986836200037e565b95508019841693508086168417925050509392505050565b6000819050919050565b6000819050919050565b600062000416620004106200040a84620003e1565b620003eb565b620003e1565b9050919050565b6000819050919050565b6200043283620003f5565b6200044a62000441826200041d565b8484546200038b565b825550505050565b600090565b6200046162000452565b6200046e81848462000427565b505050565b5b8181101562000496576200048a60008262000457565b60018101905062000474565b5050565b601f821115620004e557620004af8162000359565b620004ba846200036e565b81016020851015620004ca578190505b620004e2620004d9856200036e565b83018262000473565b50505b505050565b600082821c905092915050565b60006200050a60001984600802620004ea565b1980831691505092915050565b6000620005258383620004f7565b9150826002028217905092915050565b6200054082620002ea565b67ffffffffffffffff8111156200055c576200055b620000ae565b5b62000568825462000324565b620005758282856200049a565b600060209050601f831160018114620005ad576000841562000598578287015190505b620005a4858262000517565b86555062000614565b601f198416620005bd8662000359565b60005b82811015620005e757848901518255600182019150602085019450602081019050620005c0565b8683101562000607578489015162000603601f891682620004f7565b8355505b6001600288020188555050505b505050505050565b6117a6806200062c6000396000f3fe608060405234801561001057600080fd5b50600436106100cf5760003560e01c806342966c681161008c57806395d89b411161006657806395d89b411461024e578063a0712d681461026c578063a9059cbb1461029c578063dd62ed3e146102cc576100cf565b806342966c68146101be57806370a08231146101ee5780637ef2ed0b1461021e576100cf565b806306fdde03146100d4578063095ea7b3146100f257806318160ddd1461012257806323b872dd14610140578063313ce56714610170578063395093511461018e575b600080fd5b6100dc6102fc565b6040516100e99190611021565b60405180910390f35b61010c600480360381019061010791906110dc565b61038e565b6040516101199190611137565b60405180910390f35b61012a6103a5565b6040516101379190611161565b60405180910390f35b61015a6004803603810190610155919061117c565b6103af565b6040516101679190611137565b60405180910390f35b61017861047a565b60405161018591906111eb565b60405180910390f35b6101a860048036038101906101a391906110dc565b610491565b6040516101b59190611137565b60405180910390f35b6101d860048036038101906101d39190611206565b610536565b6040516101e59190611137565b60405180910390f35b61020860048036038101906102039190611233565b61054b565b6040516102159190611161565b60405180910390f35b610238600480360381019061023391906110dc565b610593565b6040516102459190611137565b60405180910390f35b610256610652565b6040516102639190611021565b60405180910390f35b61028660048036038101906102819190611206565b6106e4565b6040516102939190611137565b60405180910390f35b6102b660048036038101906102b191906110dc565b6106f9565b6040516102c39190611137565b60405180910390f35b6102e660048036038101906102e19190611260565b610710565b6040516102f39190611161565b60405180910390f35b60606003805461030b906112cf565b80601f0160208091040260200160405190810160405280929190818152602001828054610337906112cf565b80156103845780601f1061035957610100808354040283529160200191610384565b820191906000526020600020905b81548152906001019060200180831161036757829003601f168201915b5050505050905090565b600061039b338484610797565b6001905092915050565b6000600254905090565b60006103bc848484610960565b61046f843361046a8560405180606001604052806028815260200161172460289139600160008b73ffffffffffffffffffffffffffffffffffffffff1673ffffffffffffffffffffffffffffffffffffffff16815260200190815260200160002060003373ffffffffffffffffffffffffffffffffffffffff1673ffffffffffffffffffffffffffffffffffffffff16815260200190815260200160002054610be89092919063ffffffff16565b610797565b600190509392505050565b6000600560009054906101000a900460ff16905090565b600061052c338461052785600160003373ffffffffffffffffffffffffffffffffffffffff1673ffffffffffffffffffffffffffffffffffffffff16815260200190815260200160002060008973ffffffffffffffffffffffffffffffffffffffff1673ffffffffffffffffffffffffffffffffffffffff16815260200190815260200160002054610c3d90919063ffffffff16565b610797565b6001905092915050565b60006105423383610c53565b60019050919050565b60008060008373ffffffffffffffffffffffffffffffffffffffff1673ffffffffffffffffffffffffffffffffffffffff168152602001908152602001600020549050919050565b600061064833846106438560405180606001604052806025815260200161174c60259139600160003373ffffffffffffffffffffffffffffffffffffffff1673ffffffffffffffffffffffffffffffffffffffff16815260200190815260200160002060008a73ffffffffffffffffffffffffffffffffffffffff1673ffffffffffffffffffffffffffffffffffffffff16815260200190815260200160002054610be89092919063ffffffff16565b610797565b6001905092915050565b606060048054610661906112cf565b80601f016020809104026020016040519081016040528092919081815260200182805461068d906112cf565b80156106da5780601f106106af576101008083540402835291602001916106da565b820191906000526020600020905b8154815290600101906020018083116106bd57829003601f168201915b5050505050905090565b60006106f03383610df4565b60019050919050565b6000610706338484610960565b6001905092915050565b6000600160008473ffffffffffffffffffffffffffffffffffffffff1673ffffffffffffffffffffffffffffffffffffffff16815260200190815260200160002060008373ffffffffffffffffffffffffffffffffffffffff1673ffffffffffffffffffffffffffffffffffffffff16815260200190815260200160002054905092915050565b600073ffffffffffffffffffffffffffffffffffffffff168373ffffffffffffffffffffffffffffffffffffffff1603610806576040517f08c379a00000000000000000000000000000000000000000000000000000000081526004016107fd90611372565b60405180910390fd5b600073ffffffffffffffffffffffffffffffffffffffff168273ffffffffffffffffffffffffffffffffffffffff1603610875576040517f08c379a000000000000000000000000000000000000000000000000000000000815260040161086c90611404565b60405180910390fd5b80600160008573ffffffffffffffffffffffffffffffffffffffff1673ffffffffffffffffffffffffffffffffffffffff16815260200190815260200160002060008473ffffffffffffffffffffffffffffffffffffffff1673ffffffffffffffffffffffffffffffffffffffff168152602001908152602001600020819055508173ffffffffffffffffffffffffffffffffffffffff168373ffffffffffffffffffffffffffffffffffffffff167f8c5be1e5ebec7d5bd14f71427d1e84f3dd0314c0f7b2291e5b200ac8c7c3b925836040516109539190611161565b60405180910390a3505050565b600073ffffffffffffffffffffffffffffffffffffffff168373ffffffffffffffffffffffffffffffffffffffff16036109cf576040517f08c379a00000000000000000000000000000000000000000000000000000000081526004016109c690611496565b60405180910390fd5b600073ffffffffffffffffffffffffffffffffffffffff168273ffffffffffffffffffffffffffffffffffffffff1603610a3e576040517f08c379a0000000000000000000000000000000000000000000000000000000008152600401610a3590611528565b60405180910390fd5b610aa981604051806060016040528060248152602001611700602491396000808773ffffffffffffffffffffffffffffffffffffffff1673ffffffffffffffffffffffffffffffffffffffff16815260200190815260200160002054610be89092919063ffffffff16565b6000808573ffffffffffffffffffffffffffffffffffffffff1673ffffffffffffffffffffffffffffffffffffffff16815260200190815260200160002081905550610b3c816000808673ffffffffffffffffffffffffffffffffffffffff1673ffffffffffffffffffffffffffffffffffffffff16815260200190815260200160002054610c3d90919063ffffffff16565b6000808573ffffffffffffffffffffffffffffffffffffffff1673ffffffffffffffffffffffffffffffffffffffff168152602001908152602001600020819055508173ffffffffffffffffffffffffffffffffffffffff168373ffffffffffffffffffffffffffffffffffffffff167fddf252ad1be2c89b69c2b068fc378daa952ba7f163c4a11628f55a4df523b3ef83604051610bdb9190611161565b60405180910390a3505050565b6000838311158290610c30576040517f08c379a0000000000000000000000000000000000000000000000000000000008152600401610c279190611021565b60405180910390fd5b5082840390509392505050565b60008183610c4b9190611577565b905092915050565b600073ffffffffffffffffffffffffffffffffffffffff168273ffffffffffffffffffffffffffffffffffffffff1603610cc2576040517f08c379a0000000000000000000000000000000000000000000000000000000008152600401610cb99061161d565b60405180910390fd5b610d2d816040518060600160405280602281526020016116de602291396000808673ffffffffffffffffffffffffffffffffffffffff1673ffffffffffffffffffffffffffffffffffffffff16815260200190815260200160002054610be89092919063ffffffff16565b6000808473ffffffffffffffffffffffffffffffffffffffff1673ffffffffffffffffffffffffffffffffffffffff16815260200190815260200160002081905550610d8481600254610f7b90919063ffffffff16565b600281905550600073ffffffffffffffffffffffffffffffffffffffff168273ffffffffffffffffffffffffffffffffffffffff167fddf252ad1be2c89b69c2b068fc378daa952ba7f163c4a11628f55a4df523b3ef83604051610de89190611161565b60405180910390a35050565b600073ffffffffffffffffffffffffffffffffffffffff168273ffffffffffffffffffffffffffffffffffffffff1603610e63576040517f08c379a0000000000000000000000000000000000000000000000000000000008152600401610e5a90611689565b60405180910390fd5b610e7881600254610c3d90919063ffffffff16565b600281905550610ecf816000808573ffffffffffffffffffffffffffffffffffffffff1673ffffffffffffffffffffffffffffffffffffffff16815260200190815260200160002054610c3d90919063ffffffff16565b6000808473ffffffffffffffffffffffffffffffffffffffff1673ffffffffffffffffffffffffffffffffffffffff168152602001908152602001600020819055508173ffffffffffffffffffffffffffffffffffffffff16600073ffffffffffffffffffffffffffffffffffffffff167fddf252ad1be2c89b69c2b068fc378daa952ba7f163c4a11628f55a4df523b3ef83604051610f6f9190611161565b60405180910390a35050565b60008183610f8991906116a9565b905092915050565b600081519050919050565b600082825260208201905092915050565b60005b83811015610fcb578082015181840152602081019050610fb0565b60008484015250505050565b6000601f19601f8301169050919050565b6000610ff382610f91565b610ffd8185610f9c565b935061100d818560208601610fad565b61101681610fd7565b840191505092915050565b6000602082019050818103600083015261103b8184610fe8565b905092915050565b600080fd5b600073ffffffffffffffffffffffffffffffffffffffff82169050919050565b600061107382611048565b9050919050565b61108381611068565b811461108e57600080fd5b50565b6000813590506110a08161107a565b92915050565b6000819050919050565b6110b9816110a6565b81146110c457600080fd5b50565b6000813590506110d6816110b0565b92915050565b600080604083850312156110f3576110f2611043565b5b600061110185828601611091565b9250506020611112858286016110c7565b9150509250929050565b60008115159050919050565b6111318161111c565b82525050565b600060208201905061114c6000830184611128565b92915050565b61115b816110a6565b82525050565b60006020820190506111766000830184611152565b92915050565b60008060006060848603121561119557611194611043565b5b60006111a386828701611091565b93505060206111b486828701611091565b92505060406111c5868287016110c7565b9150509250925092565b600060ff82169050919050565b6111e5816111cf565b82525050565b600060208201905061120060008301846111dc565b92915050565b60006020828403121561121c5761121b611043565b5b600061122a848285016110c7565b91505092915050565b60006020828403121561124957611248611043565b5b600061125784828501611091565b91505092915050565b6000806040838503121561127757611276611043565b5b600061128585828601611091565b925050602061129685828601611091565b9150509250929050565b7f4e487b7100000000000000000000000000000000000000000000000000000000600052602260045260246000fd5b600060028204905060018216806112e757607f821691505b6020821081036112fa576112f96112a0565b5b50919050565b7f45524332303a20617070726f76652066726f6d20746865207a65726f2061646460008201527f7265737300000000000000000000000000000000000000000000000000000000602082015250565b600061135c602483610f9c565b915061136782611300565b604082019050919050565b6000602082019050818103600083015261138b8161134f565b9050919050565b7f45524332303a20617070726f766520746f20746865207a65726f20616464726560008201527f7373000000000000000000000000000000000000000000000000000000000000602082015250565b60006113ee602283610f9c565b91506113f982611392565b604082019050919050565b6000602082019050818103600083015261141d816113e1565b9050919050565b7f45524332303a207472616e736665722066726f6d20746865207a65726f20616460008201527f6472657373000000000000000000000000000000000000000000000000000000602082015250565b6000611480602583610f9c565b915061148b82611424565b604082019050919050565b600060208201905081810360008301526114af81611473565b9050919050565b7f45524332303a207472616e7366657220746f20746865207a65726f206164647260008201527f6573730000000000000000000000000000000000000000000000000000000000602082015250565b6000611512602383610f9c565b915061151d826114b6565b604082019050919050565b6000602082019050818103600083015261154181611505565b9050919050565b7f4e487b7100000000000000000000000000000000000000000000000000000000600052601160045260246000fd5b6000611582826110a6565b915061158d836110a6565b92508282019050808211156115a5576115a4611548565b5b92915050565b7f45524332303a206275726e2066726f6d20746865207a65726f2061646472657360008201527f7300000000000000000000000000000000000000000000000000000000000000602082015250565b6000611607602183610f9c565b9150611612826115ab565b604082019050919050565b60006020820190508181036000830152611636816115fa565b9050919050565b7f45524332303a206d696e7420746f20746865207a65726f206164647265737300600082015250565b6000611673601f83610f9c565b915061167e8261163d565b602082019050919050565b600060208201905081810360008301526116a281611666565b9050919050565b60006116b4826110a6565b91506116bf836110a6565b92508282039050818111156116d7576116d6611548565b5b9291505056fe45524332303a206275726e20616d6f756e7420657863656564732062616c616e63654552433a207472616e7366657220616d6f756e7420657863656564732062616c616e636545524332303a207472616e7366657220616d6f756e74206578636565647320616c6c6f77616e636545524332303a2064656372656173656420616c6c6f77616e63652062656c6f77207a65726fa26469706673582212208507e8bb67e2d51f0baacd4c69ea3159f9eeb8efccf6a273c030e6c77b824d6264736f6c63430008120033",
					"opcodes": "PUSH1 0x80 PUSH1 0x40 MSTORE CALLVALUE DUP1 ISZERO PUSH3 0x11 JUMPI PUSH1 0x0 DUP1 REVERT JUMPDEST POP PUSH1 0x40 MLOAD PUSH3 0x1DD2 CODESIZE SUB DUP1 PUSH3 0x1DD2 DUP4 CODECOPY DUP2 DUP2 ADD PUSH1 0x40 MSTORE DUP2 ADD SWAP1 PUSH3 0x37 SWAP2 SWAP1 PUSH3 0x250 JUMP JUMPDEST DUP3 PUSH1 0x3 SWAP1 DUP2 PUSH3 0x48 SWAP2 SWAP1 PUSH3 0x535 JUMP JUMPDEST POP DUP2 PUSH1 0x4 SWAP1 DUP2 PUSH3 0x5A SWAP2 SWAP1 PUSH3 0x535 JUMP JUMPDEST POP DUP1 PUSH1 0x5 PUSH1 0x0 PUSH2 0x100 EXP DUP2 SLOAD DUP2 PUSH1 0xFF MUL NOT AND SWAP1 DUP4 PUSH1 0xFF AND MUL OR SWAP1 SSTORE POP POP POP POP PUSH3 0x61C JUMP JUMPDEST PUSH1 0x0 PUSH1 0x40 MLOAD SWAP1 POP SWAP1 JUMP JUMPDEST PUSH1 0x0 DUP1 REVERT JUMPDEST PUSH1 0x0 DUP1 REVERT JUMPDEST PUSH1 0x0 DUP1 REVERT JUMPDEST PUSH1 0x0 DUP1 REVERT JUMPDEST PUSH1 0x0 PUSH1 0x1F NOT PUSH1 0x1F DUP4 ADD AND SWAP1 POP SWAP2 SWAP1 POP JUMP JUMPDEST PUSH32 0x4E487B7100000000000000000000000000000000000000000000000000000000 PUSH1 0x0 MSTORE PUSH1 0x41 PUSH1 0x4 MSTORE PUSH1 0x24 PUSH1 0x0 REVERT JUMPDEST PUSH3 0xE8 DUP3 PUSH3 0x9D JUMP JUMPDEST DUP2 ADD DUP2 DUP2 LT PUSH8 0xFFFFFFFFFFFFFFFF DUP3 GT OR ISZERO PUSH3 0x10A JUMPI PUSH3 0x109 PUSH3 0xAE JUMP JUMPDEST JUMPDEST DUP1 PUSH1 0x40 MSTORE POP POP POP JUMP JUMPDEST PUSH1 0x0 PUSH3 0x11F PUSH3 0x7F JUMP JUMPDEST SWAP1 POP PUSH3 0x12D DUP3 DUP3 PUSH3 0xDD JUMP JUMPDEST SWAP2 SWAP1 POP JUMP JUMPDEST PUSH1 0x0 PUSH8 0xFFFFFFFFFFFFFFFF DUP3 GT ISZERO PUSH3 0x150 JUMPI PUSH3 0x14F PUSH3 0xAE JUMP JUMPDEST JUMPDEST PUSH3 0x15B DUP3 PUSH3 0x9D JUMP JUMPDEST SWAP1 POP PUSH1 0x20 DUP2 ADD SWAP1 POP SWAP2 SWAP1 POP JUMP JUMPDEST PUSH1 0x0 JUMPDEST DUP4 DUP2 LT ISZERO PUSH3 0x188 JUMPI DUP1 DUP3 ADD MLOAD DUP2 DUP5 ADD MSTORE PUSH1 0x20 DUP2 ADD SWAP1 POP PUSH3 0x16B JUMP JUMPDEST PUSH1 0x0 DUP5 DUP5 ADD MSTORE POP POP POP POP JUMP JUMPDEST PUSH1 0x0 PUSH3 0x1AB PUSH3 0x1A5 DUP5 PUSH3 0x132 JUMP JUMPDEST PUSH3 0x113 JUMP JUMPDEST SWAP1 POP DUP3 DUP2 MSTORE PUSH1 0x20 DUP2 ADD DUP5 DUP5 DUP5 ADD GT ISZERO PUSH3 0x1CA JUMPI PUSH3 0x1C9 PUSH3 0x98 JUMP JUMPDEST JUMPDEST PUSH3 0x1D7 DUP5 DUP3 DUP6 PUSH3 0x168 JUMP JUMPDEST POP SWAP4 SWAP3 POP POP POP JUMP JUMPDEST PUSH1 0x0 DUP3 PUSH1 0x1F DUP4 ADD SLT PUSH3 0x1F7 JUMPI PUSH3 0x1F6 PUSH3 0x93 JUMP JUMPDEST JUMPDEST DUP2 MLOAD PUSH3 0x209 DUP5 DUP3 PUSH1 0x20 DUP7 ADD PUSH3 0x194 JUMP JUMPDEST SWAP2 POP POP SWAP3 SWAP2 POP POP JUMP JUMPDEST PUSH1 0x0 PUSH1 0xFF DUP3 AND SWAP1 POP SWAP2 SWAP1 POP JUMP JUMPDEST PUSH3 0x22A DUP2 PUSH3 0x212 JUMP JUMPDEST DUP2 EQ PUSH3 0x236 JUMPI PUSH1 0x0 DUP1 REVERT JUMPDEST POP JUMP JUMPDEST PUSH1 0x0 DUP2 MLOAD SWAP1 POP PUSH3 0x24A DUP2 PUSH3 0x21F JUMP JUMPDEST SWAP3 SWAP2 POP POP JUMP JUMPDEST PUSH1 0x0 DUP1 PUSH1 0x0 PUSH1 0x60 DUP5 DUP7 SUB SLT ISZERO PUSH3 0x26C JUMPI PUSH3 0x26B PUSH3 0x89 JUMP JUMPDEST JUMPDEST PUSH1 0x0 DUP5 ADD MLOAD PUSH8 0xFFFFFFFFFFFFFFFF DUP2 GT ISZERO PUSH3 0x28D JUMPI PUSH3 0x28C PUSH3 0x8E JUMP JUMPDEST JUMPDEST PUSH3 0x29B DUP7 DUP3 DUP8 ADD PUSH3 0x1DF JUMP JUMPDEST SWAP4 POP POP PUSH1 0x20 DUP5 ADD MLOAD PUSH8 0xFFFFFFFFFFFFFFFF DUP2 GT ISZERO PUSH3 0x2BF JUMPI PUSH3 0x2BE PUSH3 0x8E JUMP JUMPDEST JUMPDEST PUSH3 0x2CD DUP7 DUP3 DUP8 ADD PUSH3 0x1DF JUMP JUMPDEST SWAP3 POP POP PUSH1 0x40 PUSH3 0x2E0 DUP7 DUP3 DUP8 ADD PUSH3 0x239 JUMP JUMPDEST SWAP2 POP POP SWAP3 POP SWAP3 POP SWAP3 JUMP JUMPDEST PUSH1 0x0 DUP2 MLOAD SWAP1 POP SWAP2 SWAP1 POP JUMP JUMPDEST PUSH32 0x4E487B7100000000000000000000000000000000000000000000000000000000 PUSH1 0x0 MSTORE PUSH1 0x22 PUSH1 0x4 MSTORE PUSH1 0x24 PUSH1 0x0 REVERT JUMPDEST PUSH1 0x0 PUSH1 0x2 DUP3 DIV SWAP1 POP PUSH1 0x1 DUP3 AND DUP1 PUSH3 0x33D JUMPI PUSH1 0x7F DUP3 AND SWAP2 POP JUMPDEST PUSH1 0x20 DUP3 LT DUP2 SUB PUSH3 0x353 JUMPI PUSH3 0x352 PUSH3 0x2F5 JUMP JUMPDEST JUMPDEST POP SWAP2 SWAP1 POP JUMP JUMPDEST PUSH1 0x0 DUP2 SWAP1 POP DUP2 PUSH1 0x0 MSTORE PUSH1 0x20 PUSH1 0x0 KECCAK256 SWAP1 POP SWAP2 SWAP1 POP JUMP JUMPDEST PUSH1 0x0 PUSH1 0x20 PUSH1 0x1F DUP4 ADD DIV SWAP1 POP SWAP2 SWAP1 POP JUMP JUMPDEST PUSH1 0x0 DUP3 DUP3 SHL SWAP1 POP SWAP3 SWAP2 POP POP JUMP JUMPDEST PUSH1 0x0 PUSH1 0x8 DUP4 MUL PUSH3 0x3BD PUSH32 0xFFFFFFFFFFFFFFFFFFFFFFFFFFFFFFFFFFFFFFFFFFFFFFFFFFFFFFFFFFFFFFFF DUP3 PUSH3 0x37E JUMP JUMPDEST PUSH3 0x3C9 DUP7 DUP4 PUSH3 0x37E JUMP JUMPDEST SWAP6 POP DUP1 NOT DUP5 AND SWAP4 POP DUP1 DUP7 AND DUP5 OR SWAP3 POP POP POP SWAP4 SWAP3 POP POP POP JUMP JUMPDEST PUSH1 0x0 DUP2 SWAP1 POP SWAP2 SWAP1 POP JUMP JUMPDEST PUSH1 0x0 DUP2 SWAP1 POP SWAP2 SWAP1 POP JUMP JUMPDEST PUSH1 0x0 PUSH3 0x416 PUSH3 0x410 PUSH3 0x40A DUP5 PUSH3 0x3E1 JUMP JUMPDEST PUSH3 0x3EB JUMP JUMPDEST PUSH3 0x3E1 JUMP JUMPDEST SWAP1 POP SWAP2 SWAP1 POP JUMP JUMPDEST PUSH1 0x0 DUP2 SWAP1 POP SWAP2 SWAP1 POP JUMP JUMPDEST PUSH3 0x432 DUP4 PUSH3 0x3F5 JUMP JUMPDEST PUSH3 0x44A PUSH3 0x441 DUP3 PUSH3 0x41D JUMP JUMPDEST DUP5 DUP5 SLOAD PUSH3 0x38B JUMP JUMPDEST DUP3 SSTORE POP POP POP POP JUMP JUMPDEST PUSH1 0x0 SWAP1 JUMP JUMPDEST PUSH3 0x461 PUSH3 0x452 JUMP JUMPDEST PUSH3 0x46E DUP2 DUP5 DUP5 PUSH3 0x427 JUMP JUMPDEST POP POP POP JUMP JUMPDEST JUMPDEST DUP2 DUP2 LT ISZERO PUSH3 0x496 JUMPI PUSH3 0x48A PUSH1 0x0 DUP3 PUSH3 0x457 JUMP JUMPDEST PUSH1 0x1 DUP2 ADD SWAP1 POP PUSH3 0x474 JUMP JUMPDEST POP POP JUMP JUMPDEST PUSH1 0x1F DUP3 GT ISZERO PUSH3 0x4E5 JUMPI PUSH3 0x4AF DUP2 PUSH3 0x359 JUMP JUMPDEST PUSH3 0x4BA DUP5 PUSH3 0x36E JUMP JUMPDEST DUP2 ADD PUSH1 0x20 DUP6 LT ISZERO PUSH3 0x4CA JUMPI DUP2 SWAP1 POP JUMPDEST PUSH3 0x4E2 PUSH3 0x4D9 DUP6 PUSH3 0x36E JUMP JUMPDEST DUP4 ADD DUP3 PUSH3 0x473 JUMP JUMPDEST POP POP JUMPDEST POP POP POP JUMP JUMPDEST PUSH1 0x0 DUP3 DUP3 SHR SWAP1 POP SWAP3 SWAP2 POP POP JUMP JUMPDEST PUSH1 0x0 PUSH3 0x50A PUSH1 0x0 NOT DUP5 PUSH1 0x8 MUL PUSH3 0x4EA JUMP JUMPDEST NOT DUP1 DUP4 AND SWAP2 POP POP SWAP3 SWAP2 POP POP JUMP JUMPDEST PUSH1 0x0 PUSH3 0x525 DUP4 DUP4 PUSH3 0x4F7 JUMP JUMPDEST SWAP2 POP DUP3 PUSH1 0x2 MUL DUP3 OR SWAP1 POP SWAP3 SWAP2 POP POP JUMP JUMPDEST PUSH3 0x540 DUP3 PUSH3 0x2EA JUMP JUMPDEST PUSH8 0xFFFFFFFFFFFFFFFF DUP2 GT ISZERO PUSH3 0x55C JUMPI PUSH3 0x55B PUSH3 0xAE JUMP JUMPDEST JUMPDEST PUSH3 0x568 DUP3 SLOAD PUSH3 0x324 JUMP JUMPDEST PUSH3 0x575 DUP3 DUP3 DUP6 PUSH3 0x49A JUMP JUMPDEST PUSH1 0x0 PUSH1 0x20 SWAP1 POP PUSH1 0x1F DUP4 GT PUSH1 0x1 DUP2 EQ PUSH3 0x5AD JUMPI PUSH1 0x0 DUP5 ISZERO PUSH3 0x598 JUMPI DUP3 DUP8 ADD MLOAD SWAP1 POP JUMPDEST PUSH3 0x5A4 DUP6 DUP3 PUSH3 0x517 JUMP JUMPDEST DUP7 SSTORE POP PUSH3 0x614 JUMP JUMPDEST PUSH1 0x1F NOT DUP5 AND PUSH3 0x5BD DUP7 PUSH3 0x359 JUMP JUMPDEST PUSH1 0x0 JUMPDEST DUP3 DUP2 LT ISZERO PUSH3 0x5E7 JUMPI DUP5 DUP10 ADD MLOAD DUP3 SSTORE PUSH1 0x1 DUP3 ADD SWAP2 POP PUSH1 0x20 DUP6 ADD SWAP5 POP PUSH1 0x20 DUP2 ADD SWAP1 POP PUSH3 0x5C0 JUMP JUMPDEST DUP7 DUP4 LT ISZERO PUSH3 0x607 JUMPI DUP5 DUP10 ADD MLOAD PUSH3 0x603 PUSH1 0x1F DUP10 AND DUP3 PUSH3 0x4F7 JUMP JUMPDEST DUP4 SSTORE POP JUMPDEST PUSH1 0x1 PUSH1 0x2 DUP9 MUL ADD DUP9 SSTORE POP POP POP JUMPDEST POP POP POP POP POP POP JUMP JUMPDEST PUSH2 0x17A6 DUP1 PUSH3 0x62C PUSH1 0x0 CODECOPY PUSH1 0x0 RETURN INVALID PUSH1 0x80 PUSH1 0x40 MSTORE CALLVALUE DUP1 ISZERO PUSH2 0x10 JUMPI PUSH1 0x0 DUP1 REVERT JUMPDEST POP PUSH1 0x4 CALLDATASIZE LT PUSH2 0xCF JUMPI PUSH1 0x0 CALLDATALOAD PUSH1 0xE0 SHR DUP1 PUSH4 0x42966C68 GT PUSH2 0x8C JUMPI DUP1 PUSH4 0x95D89B41 GT PUSH2 0x66 JUMPI DUP1 PUSH4 0x95D89B41 EQ PUSH2 0x24E JUMPI DUP1 PUSH4 0xA0712D68 EQ PUSH2 0x26C JUMPI DUP1 PUSH4 0xA9059CBB EQ PUSH2 0x29C JUMPI DUP1 PUSH4 0xDD62ED3E EQ PUSH2 0x2CC JUMPI PUSH2 0xCF JUMP JUMPDEST DUP1 PUSH4 0x42966C68 EQ PUSH2 0x1BE JUMPI DUP1 PUSH4 0x70A08231 EQ PUSH2 0x1EE JUMPI DUP1 PUSH4 0x7EF2ED0B EQ PUSH2 0x21E JUMPI PUSH2 0xCF JUMP JUMPDEST DUP1 PUSH4 0x6FDDE03 EQ PUSH2 0xD4 JUMPI DUP1 PUSH4 0x95EA7B3 EQ PUSH2 0xF2 JUMPI DUP1 PUSH4 0x18160DDD EQ PUSH2 0x122 JUMPI DUP1 PUSH4 0x23B872DD EQ PUSH2 0x140 JUMPI DUP1 PUSH4 0x313CE567 EQ PUSH2 0x170 JUMPI DUP1 PUSH4 0x39509351 EQ PUSH2 0x18E JUMPI JUMPDEST PUSH1 0x0 DUP1 REVERT JUMPDEST PUSH2 0xDC PUSH2 0x2FC JUMP JUMPDEST PUSH1 0x40 MLOAD PUSH2 0xE9 SWAP2 SWAP1 PUSH2 0x1021 JUMP JUMPDEST PUSH1 0x40 MLOAD DUP1 SWAP2 SUB SWAP1 RETURN JUMPDEST PUSH2 0x10C PUSH1 0x4 DUP1 CALLDATASIZE SUB DUP2 ADD SWAP1 PUSH2 0x107 SWAP2 SWAP1 PUSH2 0x10DC JUMP JUMPDEST PUSH2 0x38E JUMP JUMPDEST PUSH1 0x40 MLOAD PUSH2 0x119 SWAP2 SWAP1 PUSH2 0x1137 JUMP JUMPDEST PUSH1 0x40 MLOAD DUP1 SWAP2 SUB SWAP1 RETURN JUMPDEST PUSH2 0x12A PUSH2 0x3A5 JUMP JUMPDEST PUSH1 0x40 MLOAD PUSH2 0x137 SWAP2 SWAP1 PUSH2 0x1161 JUMP JUMPDEST PUSH1 0x40 MLOAD DUP1 SWAP2 SUB SWAP1 RETURN JUMPDEST PUSH2 0x15A PUSH1 0x4 DUP1 CALLDATASIZE SUB DUP2 ADD SWAP1 PUSH2 0x155 SWAP2 SWAP1 PUSH2 0x117C JUMP JUMPDEST PUSH2 0x3AF JUMP JUMPDEST PUSH1 0x40 MLOAD PUSH2 0x167 SWAP2 SWAP1 PUSH2 0x1137 JUMP JUMPDEST PUSH1 0x40 MLOAD DUP1 SWAP2 SUB SWAP1 RETURN JUMPDEST PUSH2 0x178 PUSH2 0x47A JUMP JUMPDEST PUSH1 0x40 MLOAD PUSH2 0x185 SWAP2 SWAP1 PUSH2 0x11EB JUMP JUMPDEST PUSH1 0x40 MLOAD DUP1 SWAP2 SUB SWAP1 RETURN JUMPDEST PUSH2 0x1A8 PUSH1 0x4 DUP1 CALLDATASIZE SUB DUP2 ADD SWAP1 PUSH2 0x1A3 SWAP2 SWAP1 PUSH2 0x10DC JUMP JUMPDEST PUSH2 0x491 JUMP JUMPDEST PUSH1 0x40 MLOAD PUSH2 0x1B5 SWAP2 SWAP1 PUSH2 0x1137 JUMP JUMPDEST PUSH1 0x40 MLOAD DUP1 SWAP2 SUB SWAP1 RETURN JUMPDEST PUSH2 0x1D8 PUSH1 0x4 DUP1 CALLDATASIZE SUB DUP2 ADD SWAP1 PUSH2 0x1D3 SWAP2 SWAP1 PUSH2 0x1206 JUMP JUMPDEST PUSH2 0x536 JUMP JUMPDEST PUSH1 0x40 MLOAD PUSH2 0x1E5 SWAP2 SWAP1 PUSH2 0x1137 JUMP JUMPDEST PUSH1 0x40 MLOAD DUP1 SWAP2 SUB SWAP1 RETURN JUMPDEST PUSH2 0x208 PUSH1 0x4 DUP1 CALLDATASIZE SUB DUP2 ADD SWAP1 PUSH2 0x203 SWAP2 SWAP1 PUSH2 0x1233 JUMP JUMPDEST PUSH2 0x54B JUMP JUMPDEST PUSH1 0x40 MLOAD PUSH2 0x215 SWAP2 SWAP1 PUSH2 0x1161 JUMP JUMPDEST PUSH1 0x40 MLOAD DUP1 SWAP2 SUB SWAP1 RETURN JUMPDEST PUSH2 0x238 PUSH1 0x4 DUP1 CALLDATASIZE SUB DUP2 ADD SWAP1 PUSH2 0x233 SWAP2 SWAP1 PUSH2 0x10DC JUMP JUMPDEST PUSH2 0x593 JUMP JUMPDEST PUSH1 0x40 MLOAD PUSH2 0x245 SWAP2 SWAP1 PUSH2 0x1137 JUMP JUMPDEST PUSH1 0x40 MLOAD DUP1 SWAP2 SUB SWAP1 RETURN JUMPDEST PUSH2 0x256 PUSH2 0x652 JUMP JUMPDEST PUSH1 0x40 MLOAD PUSH2 0x263 SWAP2 SWAP1 PUSH2 0x1021 JUMP JUMPDEST PUSH1 0x40 MLOAD DUP1 SWAP2 SUB SWAP1 RETURN JUMPDEST PUSH2 0x286 PUSH1 0x4 DUP1 CALLDATASIZE SUB DUP2 ADD SWAP1 PUSH2 0x281 SWAP2 SWAP1 PUSH2 0x1206 JUMP JUMPDEST PUSH2 0x6E4 JUMP JUMPDEST PUSH1 0x40 MLOAD PUSH2 0x293 SWAP2 SWAP1 PUSH2 0x1137 JUMP JUMPDEST PUSH1 0x40 MLOAD DUP1 SWAP2 SUB SWAP1 RETURN JUMPDEST PUSH2 0x2B6 PUSH1 0x4 DUP1 CALLDATASIZE SUB DUP2 ADD SWAP1 PUSH2 0x2B1 SWAP2 SWAP1 PUSH2 0x10DC JUMP JUMPDEST PUSH2 0x6F9 JUMP JUMPDEST PUSH1 0x40 MLOAD PUSH2 0x2C3 SWAP2 SWAP1 PUSH2 0x1137 JUMP JUMPDEST PUSH1 0x40 MLOAD DUP1 SWAP2 SUB SWAP1 RETURN JUMPDEST PUSH2 0x2E6 PUSH1 0x4 DUP1 CALLDATASIZE SUB DUP2 ADD SWAP1 PUSH2 0x2E1 SWAP2 SWAP1 PUSH2 0x1260 JUMP JUMPDEST PUSH2 0x710 JUMP JUMPDEST PUSH1 0x40 MLOAD PUSH2 0x2F3 SWAP2 SWAP1 PUSH2 0x1161 JUMP JUMPDEST PUSH1 0x40 MLOAD DUP1 SWAP2 SUB SWAP1 RETURN JUMPDEST PUSH1 0x60 PUSH1 0x3 DUP1 SLOAD PUSH2 0x30B SWAP1 PUSH2 0x12CF JUMP JUMPDEST DUP1 PUSH1 0x1F ADD PUSH1 0x20 DUP1 SWAP2 DIV MUL PUSH1 0x20 ADD PUSH1 0x40 MLOAD SWAP1 DUP2 ADD PUSH1 0x40 MSTORE DUP1 SWAP3 SWAP2 SWAP1 DUP2 DUP2 MSTORE PUSH1 0x20 ADD DUP3 DUP1 SLOAD PUSH2 0x337 SWAP1 PUSH2 0x12CF JUMP JUMPDEST DUP1 ISZERO PUSH2 0x384 JUMPI DUP1 PUSH1 0x1F LT PUSH2 0x359 JUMPI PUSH2 0x100 DUP1 DUP4 SLOAD DIV MUL DUP4 MSTORE SWAP2 PUSH1 0x20 ADD SWAP2 PUSH2 0x384 JUMP JUMPDEST DUP3 ADD SWAP2 SWAP1 PUSH1 0x0 MSTORE PUSH1 0x20 PUSH1 0x0 KECCAK256 SWAP1 JUMPDEST DUP2 SLOAD DUP2 MSTORE SWAP1 PUSH1 0x1 ADD SWAP1 PUSH1 0x20 ADD DUP1 DUP4 GT PUSH2 0x367 JUMPI DUP3 SWAP1 SUB PUSH1 0x1F AND DUP3 ADD SWAP2 JUMPDEST POP POP POP POP POP SWAP1 POP SWAP1 JUMP JUMPDEST PUSH1 0x0 PUSH2 0x39B CALLER DUP5 DUP5 PUSH2 0x797 JUMP JUMPDEST PUSH1 0x1 SWAP1 POP SWAP3 SWAP2 POP POP JUMP JUMPDEST PUSH1 0x0 PUSH1 0x2 SLOAD SWAP1 POP SWAP1 JUMP JUMPDEST PUSH1 0x0 PUSH2 0x3BC DUP5 DUP5 DUP5 PUSH2 0x960 JUMP JUMPDEST PUSH2 0x46F DUP5 CALLER PUSH2 0x46A DUP6 PUSH1 0x40 MLOAD DUP1 PUSH1 0x60 ADD PUSH1 0x40 MSTORE DUP1 PUSH1 0x28 DUP2 MSTORE PUSH1 0x20 ADD PUSH2 0x1724 PUSH1 0x28 SWAP2 CODECOPY PUSH1 0x1 PUSH1 0x0 DUP12 PUSH20 0xFFFFFFFFFFFFFFFFFFFFFFFFFFFFFFFFFFFFFFFF AND PUSH20 0xFFFFFFFFFFFFFFFFFFFFFFFFFFFFFFFFFFFFFFFF AND DUP2 MSTORE PUSH1 0x20 ADD SWAP1 DUP2 MSTORE PUSH1 0x20 ADD PUSH1 0x0 KECCAK256 PUSH1 0x0 CALLER PUSH20 0xFFFFFFFFFFFFFFFFFFFFFFFFFFFFFFFFFFFFFFFF AND PUSH20 0xFFFFFFFFFFFFFFFFFFFFFFFFFFFFFFFFFFFFFFFF AND DUP2 MSTORE PUSH1 0x20 ADD SWAP1 DUP2 MSTORE PUSH1 0x20 ADD PUSH1 0x0 KECCAK256 SLOAD PUSH2 0xBE8 SWAP1 SWAP3 SWAP2 SWAP1 PUSH4 0xFFFFFFFF AND JUMP JUMPDEST PUSH2 0x797 JUMP JUMPDEST PUSH1 0x1 SWAP1 POP SWAP4 SWAP3 POP POP POP JUMP JUMPDEST PUSH1 0x0 PUSH1 0x5 PUSH1 0x0 SWAP1 SLOAD SWAP1 PUSH2 0x100 EXP SWAP1 DIV PUSH1 0xFF AND SWAP1 POP SWAP1 JUMP JUMPDEST PUSH1 0x0 PUSH2 0x52C CALLER DUP5 PUSH2 0x527 DUP6 PUSH1 0x1 PUSH1 0x0 CALLER PUSH20 0xFFFFFFFFFFFFFFFFFFFFFFFFFFFFFFFFFFFFFFFF AND PUSH20 0xFFFFFFFFFFFFFFFFFFFFFFFFFFFFFFFFFFFFFFFF AND DUP2 MSTORE PUSH1 0x20 ADD SWAP1 DUP2 MSTORE PUSH1 0x20 ADD PUSH1 0x0 KECCAK256 PUSH1 0x0 DUP10 PUSH20 0xFFFFFFFFFFFFFFFFFFFFFFFFFFFFFFFFFFFFFFFF AND PUSH20 0xFFFFFFFFFFFFFFFFFFFFFFFFFFFFFFFFFFFFFFFF AND DUP2 MSTORE PUSH1 0x20 ADD SWAP1 DUP2 MSTORE PUSH1 0x20 ADD PUSH1 0x0 KECCAK256 SLOAD PUSH2 0xC3D SWAP1 SWAP2 SWAP1 PUSH4 0xFFFFFFFF AND JUMP JUMPDEST PUSH2 0x797 JUMP JUMPDEST PUSH1 0x1 SWAP1 POP SWAP3 SWAP2 POP POP JUMP JUMPDEST PUSH1 0x0 PUSH2 0x542 CALLER DUP4 PUSH2 0xC53 JUMP JUMPDEST PUSH1 0x1 SWAP1 POP SWAP2 SWAP1 POP JUMP JUMPDEST PUSH1 0x0 DUP1 PUSH1 0x0 DUP4 PUSH20 0xFFFFFFFFFFFFFFFFFFFFFFFFFFFFFFFFFFFFFFFF AND PUSH20 0xFFFFFFFFFFFFFFFFFFFFFFFFFFFFFFFFFFFFFFFF AND DUP2 MSTORE PUSH1 0x20 ADD SWAP1 DUP2 MSTORE PUSH1 0x20 ADD PUSH1 0x0 KECCAK256 SLOAD SWAP1 POP SWAP2 SWAP1 POP JUMP JUMPDEST PUSH1 0x0 PUSH2 0x648 CALLER DUP5 PUSH2 0x643 DUP6 PUSH1 0x40 MLOAD DUP1 PUSH1 0x60 ADD PUSH1 0x40 MSTORE DUP1 PUSH1 0x25 DUP2 MSTORE PUSH1 0x20 ADD PUSH2 0x174C PUSH1 0x25 SWAP2 CODECOPY PUSH1 0x1 PUSH1 0x0 CALLER PUSH20 0xFFFFFFFFFFFFFFFFFFFFFFFFFFFFFFFFFFFFFFFF AND PUSH20 0xFFFFFFFFFFFFFFFFFFFFFFFFFFFFFFFFFFFFFFFF AND DUP2 MSTORE PUSH1 0x20 ADD SWAP1 DUP2 MSTORE PUSH1 0x20 ADD PUSH1 0x0 KECCAK256 PUSH1 0x0 DUP11 PUSH20 0xFFFFFFFFFFFFFFFFFFFFFFFFFFFFFFFFFFFFFFFF AND PUSH20 0xFFFFFFFFFFFFFFFFFFFFFFFFFFFFFFFFFFFFFFFF AND DUP2 MSTORE PUSH1 0x20 ADD SWAP1 DUP2 MSTORE PUSH1 0x20 ADD PUSH1 0x0 KECCAK256 SLOAD PUSH2 0xBE8 SWAP1 SWAP3 SWAP2 SWAP1 PUSH4 0xFFFFFFFF AND JUMP JUMPDEST PUSH2 0x797 JUMP JUMPDEST PUSH1 0x1 SWAP1 POP SWAP3 SWAP2 POP POP JUMP JUMPDEST PUSH1 0x60 PUSH1 0x4 DUP1 SLOAD PUSH2 0x661 SWAP1 PUSH2 0x12CF JUMP JUMPDEST DUP1 PUSH1 0x1F ADD PUSH1 0x20 DUP1 SWAP2 DIV MUL PUSH1 0x20 ADD PUSH1 0x40 MLOAD SWAP1 DUP2 ADD PUSH1 0x40 MSTORE DUP1 SWAP3 SWAP2 SWAP1 DUP2 DUP2 MSTORE PUSH1 0x20 ADD DUP3 DUP1 SLOAD PUSH2 0x68D SWAP1 PUSH2 0x12CF JUMP JUMPDEST DUP1 ISZERO PUSH2 0x6DA JUMPI DUP1 PUSH1 0x1F LT PUSH2 0x6AF JUMPI PUSH2 0x100 DUP1 DUP4 SLOAD DIV MUL DUP4 MSTORE SWAP2 PUSH1 0x20 ADD SWAP2 PUSH2 0x6DA JUMP JUMPDEST DUP3 ADD SWAP2 SWAP1 PUSH1 0x0 MSTORE PUSH1 0x20 PUSH1 0x0 KECCAK256 SWAP1 JUMPDEST DUP2 SLOAD DUP2 MSTORE SWAP1 PUSH1 0x1 ADD SWAP1 PUSH1 0x20 ADD DUP1 DUP4 GT PUSH2 0x6BD JUMPI DUP3 SWAP1 SUB PUSH1 0x1F AND DUP3 ADD SWAP2 JUMPDEST POP POP POP POP POP SWAP1 POP SWAP1 JUMP JUMPDEST PUSH1 0x0 PUSH2 0x6F0 CALLER DUP4 PUSH2 0xDF4 JUMP JUMPDEST PUSH1 0x1 SWAP1 POP SWAP2 SWAP1 POP JUMP JUMPDEST PUSH1 0x0 PUSH2 0x706 CALLER DUP5 DUP5 PUSH2 0x960 JUMP JUMPDEST PUSH1 0x1 SWAP1 POP SWAP3 SWAP2 POP POP JUMP JUMPDEST PUSH1 0x0 PUSH1 0x1 PUSH1 0x0 DUP5 PUSH20 0xFFFFFFFFFFFFFFFFFFFFFFFFFFFFFFFFFFFFFFFF AND PUSH20 0xFFFFFFFFFFFFFFFFFFFFFFFFFFFFFFFFFFFFFFFF AND DUP2 MSTORE PUSH1 0x20 ADD SWAP1 DUP2 MSTORE PUSH1 0x20 ADD PUSH1 0x0 KECCAK256 PUSH1 0x0 DUP4 PUSH20 0xFFFFFFFFFFFFFFFFFFFFFFFFFFFFFFFFFFFFFFFF AND PUSH20 0xFFFFFFFFFFFFFFFFFFFFFFFFFFFFFFFFFFFFFFFF AND DUP2 MSTORE PUSH1 0x20 ADD SWAP1 DUP2 MSTORE PUSH1 0x20 ADD PUSH1 0x0 KECCAK256 SLOAD SWAP1 POP SWAP3 SWAP2 POP POP JUMP JUMPDEST PUSH1 0x0 PUSH20 0xFFFFFFFFFFFFFFFFFFFFFFFFFFFFFFFFFFFFFFFF AND DUP4 PUSH20 0xFFFFFFFFFFFFFFFFFFFFFFFFFFFFFFFFFFFFFFFF AND SUB PUSH2 0x806 JUMPI PUSH1 0x40 MLOAD PUSH32 0x8C379A000000000000000000000000000000000000000000000000000000000 DUP2 MSTORE PUSH1 0x4 ADD PUSH2 0x7FD SWAP1 PUSH2 0x1372 JUMP JUMPDEST PUSH1 0x40 MLOAD DUP1 SWAP2 SUB SWAP1 REVERT JUMPDEST PUSH1 0x0 PUSH20 0xFFFFFFFFFFFFFFFFFFFFFFFFFFFFFFFFFFFFFFFF AND DUP3 PUSH20 0xFFFFFFFFFFFFFFFFFFFFFFFFFFFFFFFFFFFFFFFF AND SUB PUSH2 0x875 JUMPI PUSH1 0x40 MLOAD PUSH32 0x8C379A000000000000000000000000000000000000000000000000000000000 DUP2 MSTORE PUSH1 0x4 ADD PUSH2 0x86C SWAP1 PUSH2 0x1404 JUMP JUMPDEST PUSH1 0x40 MLOAD DUP1 SWAP2 SUB SWAP1 REVERT JUMPDEST DUP1 PUSH1 0x1 PUSH1 0x0 DUP6 PUSH20 0xFFFFFFFFFFFFFFFFFFFFFFFFFFFFFFFFFFFFFFFF AND PUSH20 0xFFFFFFFFFFFFFFFFFFFFFFFFFFFFFFFFFFFFFFFF AND DUP2 MSTORE PUSH1 0x20 ADD SWAP1 DUP2 MSTORE PUSH1 0x20 ADD PUSH1 0x0 KECCAK256 PUSH1 0x0 DUP5 PUSH20 0xFFFFFFFFFFFFFFFFFFFFFFFFFFFFFFFFFFFFFFFF AND PUSH20 0xFFFFFFFFFFFFFFFFFFFFFFFFFFFFFFFFFFFFFFFF AND DUP2 MSTORE PUSH1 0x20 ADD SWAP1 DUP2 MSTORE PUSH1 0x20 ADD PUSH1 0x0 KECCAK256 DUP2 SWAP1 SSTORE POP DUP2 PUSH20 0xFFFFFFFFFFFFFFFFFFFFFFFFFFFFFFFFFFFFFFFF AND DUP4 PUSH20 0xFFFFFFFFFFFFFFFFFFFFFFFFFFFFFFFFFFFFFFFF AND PUSH32 0x8C5BE1E5EBEC7D5BD14F71427D1E84F3DD0314C0F7B2291E5B200AC8C7C3B925 DUP4 PUSH1 0x40 MLOAD PUSH2 0x953 SWAP2 SWAP1 PUSH2 0x1161 JUMP JUMPDEST PUSH1 0x40 MLOAD DUP1 SWAP2 SUB SWAP1 LOG3 POP POP POP JUMP JUMPDEST PUSH1 0x0 PUSH20 0xFFFFFFFFFFFFFFFFFFFFFFFFFFFFFFFFFFFFFFFF AND DUP4 PUSH20 0xFFFFFFFFFFFFFFFFFFFFFFFFFFFFFFFFFFFFFFFF AND SUB PUSH2 0x9CF JUMPI PUSH1 0x40 MLOAD PUSH32 0x8C379A000000000000000000000000000000000000000000000000000000000 DUP2 MSTORE PUSH1 0x4 ADD PUSH2 0x9C6 SWAP1 PUSH2 0x1496 JUMP JUMPDEST PUSH1 0x40 MLOAD DUP1 SWAP2 SUB SWAP1 REVERT JUMPDEST PUSH1 0x0 PUSH20 0xFFFFFFFFFFFFFFFFFFFFFFFFFFFFFFFFFFFFFFFF AND DUP3 PUSH20 0xFFFFFFFFFFFFFFFFFFFFFFFFFFFFFFFFFFFFFFFF AND SUB PUSH2 0xA3E JUMPI PUSH1 0x40 MLOAD PUSH32 0x8C379A000000000000000000000000000000000000000000000000000000000 DUP2 MSTORE PUSH1 0x4 ADD PUSH2 0xA35 SWAP1 PUSH2 0x1528 JUMP JUMPDEST PUSH1 0x40 MLOAD DUP1 SWAP2 SUB SWAP1 REVERT JUMPDEST PUSH2 0xAA9 DUP2 PUSH1 0x40 MLOAD DUP1 PUSH1 0x60 ADD PUSH1 0x40 MSTORE DUP1 PUSH1 0x24 DUP2 MSTORE PUSH1 0x20 ADD PUSH2 0x1700 PUSH1 0x24 SWAP2 CODECOPY PUSH1 0x0 DUP1 DUP8 PUSH20 0xFFFFFFFFFFFFFFFFFFFFFFFFFFFFFFFFFFFFFFFF AND PUSH20 0xFFFFFFFFFFFFFFFFFFFFFFFFFFFFFFFFFFFFFFFF AND DUP2 MSTORE PUSH1 0x20 ADD SWAP1 DUP2 MSTORE PUSH1 0x20 ADD PUSH1 0x0 KECCAK256 SLOAD PUSH2 0xBE8 SWAP1 SWAP3 SWAP2 SWAP1 PUSH4 0xFFFFFFFF AND JUMP JUMPDEST PUSH1 0x0 DUP1 DUP6 PUSH20 0xFFFFFFFFFFFFFFFFFFFFFFFFFFFFFFFFFFFFFFFF AND PUSH20 0xFFFFFFFFFFFFFFFFFFFFFFFFFFFFFFFFFFFFFFFF AND DUP2 MSTORE PUSH1 0x20 ADD SWAP1 DUP2 MSTORE PUSH1 0x20 ADD PUSH1 0x0 KECCAK256 DUP2 SWAP1 SSTORE POP PUSH2 0xB3C DUP2 PUSH1 0x0 DUP1 DUP7 PUSH20 0xFFFFFFFFFFFFFFFFFFFFFFFFFFFFFFFFFFFFFFFF AND PUSH20 0xFFFFFFFFFFFFFFFFFFFFFFFFFFFFFFFFFFFFFFFF AND DUP2 MSTORE PUSH1 0x20 ADD SWAP1 DUP2 MSTORE PUSH1 0x20 ADD PUSH1 0x0 KECCAK256 SLOAD PUSH2 0xC3D SWAP1 SWAP2 SWAP1 PUSH4 0xFFFFFFFF AND JUMP JUMPDEST PUSH1 0x0 DUP1 DUP6 PUSH20 0xFFFFFFFFFFFFFFFFFFFFFFFFFFFFFFFFFFFFFFFF AND PUSH20 0xFFFFFFFFFFFFFFFFFFFFFFFFFFFFFFFFFFFFFFFF AND DUP2 MSTORE PUSH1 0x20 ADD SWAP1 DUP2 MSTORE PUSH1 0x20 ADD PUSH1 0x0 KECCAK256 DUP2 SWAP1 SSTORE POP DUP2 PUSH20 0xFFFFFFFFFFFFFFFFFFFFFFFFFFFFFFFFFFFFFFFF AND DUP4 PUSH20 0xFFFFFFFFFFFFFFFFFFFFFFFFFFFFFFFFFFFFFFFF AND PUSH32 0xDDF252AD1BE2C89B69C2B068FC378DAA952BA7F163C4A11628F55A4DF523B3EF DUP4 PUSH1 0x40 MLOAD PUSH2 0xBDB SWAP2 SWAP1 PUSH2 0x1161 JUMP JUMPDEST PUSH1 0x40 MLOAD DUP1 SWAP2 SUB SWAP1 LOG3 POP POP POP JUMP JUMPDEST PUSH1 0x0 DUP4 DUP4 GT ISZERO DUP3 SWAP1 PUSH2 0xC30 JUMPI PUSH1 0x40 MLOAD PUSH32 0x8C379A000000000000000000000000000000000000000000000000000000000 DUP2 MSTORE PUSH1 0x4 ADD PUSH2 0xC27 SWAP2 SWAP1 PUSH2 0x1021 JUMP JUMPDEST PUSH1 0x40 MLOAD DUP1 SWAP2 SUB SWAP1 REVERT JUMPDEST POP DUP3 DUP5 SUB SWAP1 POP SWAP4 SWAP3 POP POP POP JUMP JUMPDEST PUSH1 0x0 DUP2 DUP4 PUSH2 0xC4B SWAP2 SWAP1 PUSH2 0x1577 JUMP JUMPDEST SWAP1 POP SWAP3 SWAP2 POP POP JUMP JUMPDEST PUSH1 0x0 PUSH20 0xFFFFFFFFFFFFFFFFFFFFFFFFFFFFFFFFFFFFFFFF AND DUP3 PUSH20 0xFFFFFFFFFFFFFFFFFFFFFFFFFFFFFFFFFFFFFFFF AND SUB PUSH2 0xCC2 JUMPI PUSH1 0x40 MLOAD PUSH32 0x8C379A000000000000000000000000000000000000000000000000000000000 DUP2 MSTORE PUSH1 0x4 ADD PUSH2 0xCB9 SWAP1 PUSH2 0x161D JUMP JUMPDEST PUSH1 0x40 MLOAD DUP1 SWAP2 SUB SWAP1 REVERT JUMPDEST PUSH2 0xD2D DUP2 PUSH1 0x40 MLOAD DUP1 PUSH1 0x60 ADD PUSH1 0x40 MSTORE DUP1 PUSH1 0x22 DUP2 MSTORE PUSH1 0x20 ADD PUSH2 0x16DE PUSH1 0x22 SWAP2 CODECOPY PUSH1 0x0 DUP1 DUP7 PUSH20 0xFFFFFFFFFFFFFFFFFFFFFFFFFFFFFFFFFFFFFFFF AND PUSH20 0xFFFFFFFFFFFFFFFFFFFFFFFFFFFFFFFFFFFFFFFF AND DUP2 MSTORE PUSH1 0x20 ADD SWAP1 DUP2 MSTORE PUSH1 0x20 ADD PUSH1 0x0 KECCAK256 SLOAD PUSH2 0xBE8 SWAP1 SWAP3 SWAP2 SWAP1 PUSH4 0xFFFFFFFF AND JUMP JUMPDEST PUSH1 0x0 DUP1 DUP5 PUSH20 0xFFFFFFFFFFFFFFFFFFFFFFFFFFFFFFFFFFFFFFFF AND PUSH20 0xFFFFFFFFFFFFFFFFFFFFFFFFFFFFFFFFFFFFFFFF AND DUP2 MSTORE PUSH1 0x20 ADD SWAP1 DUP2 MSTORE PUSH1 0x20 ADD PUSH1 0x0 KECCAK256 DUP2 SWAP1 SSTORE POP PUSH2 0xD84 DUP2 PUSH1 0x2 SLOAD PUSH2 0xF7B SWAP1 SWAP2 SWAP1 PUSH4 0xFFFFFFFF AND JUMP JUMPDEST PUSH1 0x2 DUP2 SWAP1 SSTORE POP PUSH1 0x0 PUSH20 0xFFFFFFFFFFFFFFFFFFFFFFFFFFFFFFFFFFFFFFFF AND DUP3 PUSH20 0xFFFFFFFFFFFFFFFFFFFFFFFFFFFFFFFFFFFFFFFF AND PUSH32 0xDDF252AD1BE2C89B69C2B068FC378DAA952BA7F163C4A11628F55A4DF523B3EF DUP4 PUSH1 0x40 MLOAD PUSH2 0xDE8 SWAP2 SWAP1 PUSH2 0x1161 JUMP JUMPDEST PUSH1 0x40 MLOAD DUP1 SWAP2 SUB SWAP1 LOG3 POP POP JUMP JUMPDEST PUSH1 0x0 PUSH20 0xFFFFFFFFFFFFFFFFFFFFFFFFFFFFFFFFFFFFFFFF AND DUP3 PUSH20 0xFFFFFFFFFFFFFFFFFFFFFFFFFFFFFFFFFFFFFFFF AND SUB PUSH2 0xE63 JUMPI PUSH1 0x40 MLOAD PUSH32 0x8C379A000000000000000000000000000000000000000000000000000000000 DUP2 MSTORE PUSH1 0x4 ADD PUSH2 0xE5A SWAP1 PUSH2 0x1689 JUMP JUMPDEST PUSH1 0x40 MLOAD DUP1 SWAP2 SUB SWAP1 REVERT JUMPDEST PUSH2 0xE78 DUP2 PUSH1 0x2 SLOAD PUSH2 0xC3D SWAP1 SWAP2 SWAP1 PUSH4 0xFFFFFFFF AND JUMP JUMPDEST PUSH1 0x2 DUP2 SWAP1 SSTORE POP PUSH2 0xECF DUP2 PUSH1 0x0 DUP1 DUP6 PUSH20 0xFFFFFFFFFFFFFFFFFFFFFFFFFFFFFFFFFFFFFFFF AND PUSH20 0xFFFFFFFFFFFFFFFFFFFFFFFFFFFFFFFFFFFFFFFF AND DUP2 MSTORE PUSH1 0x20 ADD SWAP1 DUP2 MSTORE PUSH1 0x20 ADD PUSH1 0x0 KECCAK256 SLOAD PUSH2 0xC3D SWAP1 SWAP2 SWAP1 PUSH4 0xFFFFFFFF AND JUMP JUMPDEST PUSH1 0x0 DUP1 DUP5 PUSH20 0xFFFFFFFFFFFFFFFFFFFFFFFFFFFFFFFFFFFFFFFF AND PUSH20 0xFFFFFFFFFFFFFFFFFFFFFFFFFFFFFFFFFFFFFFFF AND DUP2 MSTORE PUSH1 0x20 ADD SWAP1 DUP2 MSTORE PUSH1 0x20 ADD PUSH1 0x0 KECCAK256 DUP2 SWAP1 SSTORE POP DUP2 PUSH20 0xFFFFFFFFFFFFFFFFFFFFFFFFFFFFFFFFFFFFFFFF AND PUSH1 0x0 PUSH20 0xFFFFFFFFFFFFFFFFFFFFFFFFFFFFFFFFFFFFFFFF AND PUSH32 0xDDF252AD1BE2C89B69C2B068FC378DAA952BA7F163C4A11628F55A4DF523B3EF DUP4 PUSH1 0x40 MLOAD PUSH2 0xF6F SWAP2 SWAP1 PUSH2 0x1161 JUMP JUMPDEST PUSH1 0x40 MLOAD DUP1 SWAP2 SUB SWAP1 LOG3 POP POP JUMP JUMPDEST PUSH1 0x0 DUP2 DUP4 PUSH2 0xF89 SWAP2 SWAP1 PUSH2 0x16A9 JUMP JUMPDEST SWAP1 POP SWAP3 SWAP2 POP POP JUMP JUMPDEST PUSH1 0x0 DUP2 MLOAD SWAP1 POP SWAP2 SWAP1 POP JUMP JUMPDEST PUSH1 0x0 DUP3 DUP3 MSTORE PUSH1 0x20 DUP3 ADD SWAP1 POP SWAP3 SWAP2 POP POP JUMP JUMPDEST PUSH1 0x0 JUMPDEST DUP4 DUP2 LT ISZERO PUSH2 0xFCB JUMPI DUP1 DUP3 ADD MLOAD DUP2 DUP5 ADD MSTORE PUSH1 0x20 DUP2 ADD SWAP1 POP PUSH2 0xFB0 JUMP JUMPDEST PUSH1 0x0 DUP5 DUP5 ADD MSTORE POP POP POP POP JUMP JUMPDEST PUSH1 0x0 PUSH1 0x1F NOT PUSH1 0x1F DUP4 ADD AND SWAP1 POP SWAP2 SWAP1 POP JUMP JUMPDEST PUSH1 0x0 PUSH2 0xFF3 DUP3 PUSH2 0xF91 JUMP JUMPDEST PUSH2 0xFFD DUP2 DUP6 PUSH2 0xF9C JUMP JUMPDEST SWAP4 POP PUSH2 0x100D DUP2 DUP6 PUSH1 0x20 DUP7 ADD PUSH2 0xFAD JUMP JUMPDEST PUSH2 0x1016 DUP2 PUSH2 0xFD7 JUMP JUMPDEST DUP5 ADD SWAP2 POP POP SWAP3 SWAP2 POP POP JUMP JUMPDEST PUSH1 0x0 PUSH1 0x20 DUP3 ADD SWAP1 POP DUP2 DUP2 SUB PUSH1 0x0 DUP4 ADD MSTORE PUSH2 0x103B DUP2 DUP5 PUSH2 0xFE8 JUMP JUMPDEST SWAP1 POP SWAP3 SWAP2 POP POP JUMP JUMPDEST PUSH1 0x0 DUP1 REVERT JUMPDEST PUSH1 0x0 PUSH20 0xFFFFFFFFFFFFFFFFFFFFFFFFFFFFFFFFFFFFFFFF DUP3 AND SWAP1 POP SWAP2 SWAP1 POP JUMP JUMPDEST PUSH1 0x0 PUSH2 0x1073 DUP3 PUSH2 0x1048 JUMP JUMPDEST SWAP1 POP SWAP2 SWAP1 POP JUMP JUMPDEST PUSH2 0x1083 DUP2 PUSH2 0x1068 JUMP JUMPDEST DUP2 EQ PUSH2 0x108E JUMPI PUSH1 0x0 DUP1 REVERT JUMPDEST POP JUMP JUMPDEST PUSH1 0x0 DUP2 CALLDATALOAD SWAP1 POP PUSH2 0x10A0 DUP2 PUSH2 0x107A JUMP JUMPDEST SWAP3 SWAP2 POP POP JUMP JUMPDEST PUSH1 0x0 DUP2 SWAP1 POP SWAP2 SWAP1 POP JUMP JUMPDEST PUSH2 0x10B9 DUP2 PUSH2 0x10A6 JUMP JUMPDEST DUP2 EQ PUSH2 0x10C4 JUMPI PUSH1 0x0 DUP1 REVERT JUMPDEST POP JUMP JUMPDEST PUSH1 0x0 DUP2 CALLDATALOAD SWAP1 POP PUSH2 0x10D6 DUP2 PUSH2 0x10B0 JUMP JUMPDEST SWAP3 SWAP2 POP POP JUMP JUMPDEST PUSH1 0x0 DUP1 PUSH1 0x40 DUP4 DUP6 SUB SLT ISZERO PUSH2 0x10F3 JUMPI PUSH2 0x10F2 PUSH2 0x1043 JUMP JUMPDEST JUMPDEST PUSH1 0x0 PUSH2 0x1101 DUP6 DUP3 DUP7 ADD PUSH2 0x1091 JUMP JUMPDEST SWAP3 POP POP PUSH1 0x20 PUSH2 0x1112 DUP6 DUP3 DUP7 ADD PUSH2 0x10C7 JUMP JUMPDEST SWAP2 POP POP SWAP3 POP SWAP3 SWAP1 POP JUMP JUMPDEST PUSH1 0x0 DUP2 ISZERO ISZERO SWAP1 POP SWAP2 SWAP1 POP JUMP JUMPDEST PUSH2 0x1131 DUP2 PUSH2 0x111C JUMP JUMPDEST DUP3 MSTORE POP POP JUMP JUMPDEST PUSH1 0x0 PUSH1 0x20 DUP3 ADD SWAP1 POP PUSH2 0x114C PUSH1 0x0 DUP4 ADD DUP5 PUSH2 0x1128 JUMP JUMPDEST SWAP3 SWAP2 POP POP JUMP JUMPDEST PUSH2 0x115B DUP2 PUSH2 0x10A6 JUMP JUMPDEST DUP3 MSTORE POP POP JUMP JUMPDEST PUSH1 0x0 PUSH1 0x20 DUP3 ADD SWAP1 POP PUSH2 0x1176 PUSH1 0x0 DUP4 ADD DUP5 PUSH2 0x1152 JUMP JUMPDEST SWAP3 SWAP2 POP POP JUMP JUMPDEST PUSH1 0x0 DUP1 PUSH1 0x0 PUSH1 0x60 DUP5 DUP7 SUB SLT ISZERO PUSH2 0x1195 JUMPI PUSH2 0x1194 PUSH2 0x1043 JUMP JUMPDEST JUMPDEST PUSH1 0x0 PUSH2 0x11A3 DUP7 DUP3 DUP8 ADD PUSH2 0x1091 JUMP JUMPDEST SWAP4 POP POP PUSH1 0x20 PUSH2 0x11B4 DUP7 DUP3 DUP8 ADD PUSH2 0x1091 JUMP JUMPDEST SWAP3 POP POP PUSH1 0x40 PUSH2 0x11C5 DUP7 DUP3 DUP8 ADD PUSH2 0x10C7 JUMP JUMPDEST SWAP2 POP POP SWAP3 POP SWAP3 POP SWAP3 JUMP JUMPDEST PUSH1 0x0 PUSH1 0xFF DUP3 AND SWAP1 POP SWAP2 SWAP1 POP JUMP JUMPDEST PUSH2 0x11E5 DUP2 PUSH2 0x11CF JUMP JUMPDEST DUP3 MSTORE POP POP JUMP JUMPDEST PUSH1 0x0 PUSH1 0x20 DUP3 ADD SWAP1 POP PUSH2 0x1200 PUSH1 0x0 DUP4 ADD DUP5 PUSH2 0x11DC JUMP JUMPDEST SWAP3 SWAP2 POP POP JUMP JUMPDEST PUSH1 0x0 PUSH1 0x20 DUP3 DUP5 SUB SLT ISZERO PUSH2 0x121C JUMPI PUSH2 0x121B PUSH2 0x1043 JUMP JUMPDEST JUMPDEST PUSH1 0x0 PUSH2 0x122A DUP5 DUP3 DUP6 ADD PUSH2 0x10C7 JUMP JUMPDEST SWAP2 POP POP SWAP3 SWAP2 POP POP JUMP JUMPDEST PUSH1 0x0 PUSH1 0x20 DUP3 DUP5 SUB SLT ISZERO PUSH2 0x1249 JUMPI PUSH2 0x1248 PUSH2 0x1043 JUMP JUMPDEST JUMPDEST PUSH1 0x0 PUSH2 0x1257 DUP5 DUP3 DUP6 ADD PUSH2 0x1091 JUMP JUMPDEST SWAP2 POP POP SWAP3 SWAP2 POP POP JUMP JUMPDEST PUSH1 0x0 DUP1 PUSH1 0x40 DUP4 DUP6 SUB SLT ISZERO PUSH2 0x1277 JUMPI PUSH2 0x1276 PUSH2 0x1043 JUMP JUMPDEST JUMPDEST PUSH1 0x0 PUSH2 0x1285 DUP6 DUP3 DUP7 ADD PUSH2 0x1091 JUMP JUMPDEST SWAP3 POP POP PUSH1 0x20 PUSH2 0x1296 DUP6 DUP3 DUP7 ADD PUSH2 0x1091 JUMP JUMPDEST SWAP2 POP POP SWAP3 POP SWAP3 SWAP1 POP JUMP JUMPDEST PUSH32 0x4E487B7100000000000000000000000000000000000000000000000000000000 PUSH1 0x0 MSTORE PUSH1 0x22 PUSH1 0x4 MSTORE PUSH1 0x24 PUSH1 0x0 REVERT JUMPDEST PUSH1 0x0 PUSH1 0x2 DUP3 DIV SWAP1 POP PUSH1 0x1 DUP3 AND DUP1 PUSH2 0x12E7 JUMPI PUSH1 0x7F DUP3 AND SWAP2 POP JUMPDEST PUSH1 0x20 DUP3 LT DUP2 SUB PUSH2 0x12FA JUMPI PUSH2 0x12F9 PUSH2 0x12A0 JUMP JUMPDEST JUMPDEST POP SWAP2 SWAP1 POP JUMP JUMPDEST PUSH32 0x45524332303A20617070726F76652066726F6D20746865207A65726F20616464 PUSH1 0x0 DUP3 ADD MSTORE PUSH32 0x7265737300000000000000000000000000000000000000000000000000000000 PUSH1 0x20 DUP3 ADD MSTORE POP JUMP JUMPDEST PUSH1 0x0 PUSH2 0x135C PUSH1 0x24 DUP4 PUSH2 0xF9C JUMP JUMPDEST SWAP2 POP PUSH2 0x1367 DUP3 PUSH2 0x1300 JUMP JUMPDEST PUSH1 0x40 DUP3 ADD SWAP1 POP SWAP2 SWAP1 POP JUMP JUMPDEST PUSH1 0x0 PUSH1 0x20 DUP3 ADD SWAP1 POP DUP2 DUP2 SUB PUSH1 0x0 DUP4 ADD MSTORE PUSH2 0x138B DUP2 PUSH2 0x134F JUMP JUMPDEST SWAP1 POP SWAP2 SWAP1 POP JUMP JUMPDEST PUSH32 0x45524332303A20617070726F766520746F20746865207A65726F206164647265 PUSH1 0x0 DUP3 ADD MSTORE PUSH32 0x7373000000000000000000000000000000000000000000000000000000000000 PUSH1 0x20 DUP3 ADD MSTORE POP JUMP JUMPDEST PUSH1 0x0 PUSH2 0x13EE PUSH1 0x22 DUP4 PUSH2 0xF9C JUMP JUMPDEST SWAP2 POP PUSH2 0x13F9 DUP3 PUSH2 0x1392 JUMP JUMPDEST PUSH1 0x40 DUP3 ADD SWAP1 POP SWAP2 SWAP1 POP JUMP JUMPDEST PUSH1 0x0 PUSH1 0x20 DUP3 ADD SWAP1 POP DUP2 DUP2 SUB PUSH1 0x0 DUP4 ADD MSTORE PUSH2 0x141D DUP2 PUSH2 0x13E1 JUMP JUMPDEST SWAP1 POP SWAP2 SWAP1 POP JUMP JUMPDEST PUSH32 0x45524332303A207472616E736665722066726F6D20746865207A65726F206164 PUSH1 0x0 DUP3 ADD MSTORE PUSH32 0x6472657373000000000000000000000000000000000000000000000000000000 PUSH1 0x20 DUP3 ADD MSTORE POP JUMP JUMPDEST PUSH1 0x0 PUSH2 0x1480 PUSH1 0x25 DUP4 PUSH2 0xF9C JUMP JUMPDEST SWAP2 POP PUSH2 0x148B DUP3 PUSH2 0x1424 JUMP JUMPDEST PUSH1 0x40 DUP3 ADD SWAP1 POP SWAP2 SWAP1 POP JUMP JUMPDEST PUSH1 0x0 PUSH1 0x20 DUP3 ADD SWAP1 POP DUP2 DUP2 SUB PUSH1 0x0 DUP4 ADD MSTORE PUSH2 0x14AF DUP2 PUSH2 0x1473 JUMP JUMPDEST SWAP1 POP SWAP2 SWAP1 POP JUMP JUMPDEST PUSH32 0x45524332303A207472616E7366657220746F20746865207A65726F2061646472 PUSH1 0x0 DUP3 ADD MSTORE PUSH32 0x6573730000000000000000000000000000000000000000000000000000000000 PUSH1 0x20 DUP3 ADD MSTORE POP JUMP JUMPDEST PUSH1 0x0 PUSH2 0x1512 PUSH1 0x23 DUP4 PUSH2 0xF9C JUMP JUMPDEST SWAP2 POP PUSH2 0x151D DUP3 PUSH2 0x14B6 JUMP JUMPDEST PUSH1 0x40 DUP3 ADD SWAP1 POP SWAP2 SWAP1 POP JUMP JUMPDEST PUSH1 0x0 PUSH1 0x20 DUP3 ADD SWAP1 POP DUP2 DUP2 SUB PUSH1 0x0 DUP4 ADD MSTORE PUSH2 0x1541 DUP2 PUSH2 0x1505 JUMP JUMPDEST SWAP1 POP SWAP2 SWAP1 POP JUMP JUMPDEST PUSH32 0x4E487B7100000000000000000000000000000000000000000000000000000000 PUSH1 0x0 MSTORE PUSH1 0x11 PUSH1 0x4 MSTORE PUSH1 0x24 PUSH1 0x0 REVERT JUMPDEST PUSH1 0x0 PUSH2 0x1582 DUP3 PUSH2 0x10A6 JUMP JUMPDEST SWAP2 POP PUSH2 0x158D DUP4 PUSH2 0x10A6 JUMP JUMPDEST SWAP3 POP DUP3 DUP3 ADD SWAP1 POP DUP1 DUP3 GT ISZERO PUSH2 0x15A5 JUMPI PUSH2 0x15A4 PUSH2 0x1548 JUMP JUMPDEST JUMPDEST SWAP3 SWAP2 POP POP JUMP JUMPDEST PUSH32 0x45524332303A206275726E2066726F6D20746865207A65726F20616464726573 PUSH1 0x0 DUP3 ADD MSTORE PUSH32 0x7300000000000000000000000000000000000000000000000000000000000000 PUSH1 0x20 DUP3 ADD MSTORE POP JUMP JUMPDEST PUSH1 0x0 PUSH2 0x1607 PUSH1 0x21 DUP4 PUSH2 0xF9C JUMP JUMPDEST SWAP2 POP PUSH2 0x1612 DUP3 PUSH2 0x15AB JUMP JUMPDEST PUSH1 0x40 DUP3 ADD SWAP1 POP SWAP2 SWAP1 POP JUMP JUMPDEST PUSH1 0x0 PUSH1 0x20 DUP3 ADD SWAP1 POP DUP2 DUP2 SUB PUSH1 0x0 DUP4 ADD MSTORE PUSH2 0x1636 DUP2 PUSH2 0x15FA JUMP JUMPDEST SWAP1 POP SWAP2 SWAP1 POP JUMP JUMPDEST PUSH32 0x45524332303A206D696E7420746F20746865207A65726F206164647265737300 PUSH1 0x0 DUP3 ADD MSTORE POP JUMP JUMPDEST PUSH1 0x0 PUSH2 0x1673 PUSH1 0x1F DUP4 PUSH2 0xF9C JUMP JUMPDEST SWAP2 POP PUSH2 0x167E DUP3 PUSH2 0x163D JUMP JUMPDEST PUSH1 0x20 DUP3 ADD SWAP1 POP SWAP2 SWAP1 POP JUMP JUMPDEST PUSH1 0x0 PUSH1 0x20 DUP3 ADD SWAP1 POP DUP2 DUP2 SUB PUSH1 0x0 DUP4 ADD MSTORE PUSH2 0x16A2 DUP2 PUSH2 0x1666 JUMP JUMPDEST SWAP1 POP SWAP2 SWAP1 POP JUMP JUMPDEST PUSH1 0x0 PUSH2 0x16B4 DUP3 PUSH2 0x10A6 JUMP JUMPDEST SWAP2 POP PUSH2 0x16BF DUP4 PUSH2 0x10A6 JUMP JUMPDEST SWAP3 POP DUP3 DUP3 SUB SWAP1 POP DUP2 DUP2 GT ISZERO PUSH2 0x16D7 JUMPI PUSH2 0x16D6 PUSH2 0x1548 JUMP JUMPDEST JUMPDEST SWAP3 SWAP2 POP POP JUMP INVALID GASLIMIT MSTORE NUMBER ORIGIN ADDRESS GASPRICE KECCAK256 PUSH3 0x75726E KECCAK256 PUSH2 0x6D6F PUSH22 0x6E7420657863656564732062616C616E63654552433A KECCAK256 PUSH21 0x72616E7366657220616D6F756E7420657863656564 PUSH20 0x2062616C616E636545524332303A207472616E73 PUSH7 0x657220616D6F75 PUSH15 0x74206578636565647320616C6C6F77 PUSH2 0x6E63 PUSH6 0x45524332303A KECCAK256 PUSH5 0x6563726561 PUSH20 0x656420616C6C6F77616E63652062656C6F77207A PUSH6 0x726FA2646970 PUSH7 0x73582212208507 0xE8 0xBB PUSH8 0xE2D51F0BAACD4C69 0xEA BALANCE MSIZE 0xF9 0xEE 0xB8 0xEF 0xCC 0xF6 LOG2 PUSH20 0xC030E6C77B824D6264736F6C6343000812003300 "
				},
				"gasEstimates": {
					"creation": {
						"codeDepositCost": "1210800",
						"executionCost": "infinite",
						"totalCost": "infinite"
					},
					"external": {
						"allowance(address,address)": "infinite",
						"approve(address,uint256)": "infinite",
						"balanceOf(address)": "2886",
						"burn(uint256)": "infinite",
						"decimals()": "2568",
						"decreaseAllowances(address,uint256)": "infinite",
						"increaseAllowance(address,uint256)": "infinite",
						"mint(uint256)": "infinite",
						"name()": "infinite",
						"symbol()": "infinite",
						"totalSupply()": "2482",
						"transfer(address,uint256)": "infinite",
						"transferFrom(address,address,uint256)": "infinite"
					},
					"internal": {
						"_approve(address,address,uint256)": "infinite",
						"_burn(address,uint256)": "infinite",
						"_mint(address,uint256)": "infinite",
						"_transfer(address,address,uint256)": "infinite"
					}
				},
				"methodIdentifiers": {
					"allowance(address,address)": "dd62ed3e",
					"approve(address,uint256)": "095ea7b3",
					"balanceOf(address)": "70a08231",
					"burn(uint256)": "42966c68",
					"decimals()": "313ce567",
					"decreaseAllowances(address,uint256)": "7ef2ed0b",
					"increaseAllowance(address,uint256)": "39509351",
					"mint(uint256)": "a0712d68",
					"name()": "06fdde03",
					"symbol()": "95d89b41",
					"totalSupply()": "18160ddd",
					"transfer(address,uint256)": "a9059cbb",
					"transferFrom(address,address,uint256)": "23b872dd"
				}
			},
			"storageLayout": {
				"storage": [
					{
						"astId": 402,
						"contract": "contracts/openzeppelinERC20.sol:MyToken",
						"label": "_balances",
						"offset": 0,
						"slot": "0",
						"type": "t_mapping(t_address,t_uint256)"
					},
					{
						"astId": 408,
						"contract": "contracts/openzeppelinERC20.sol:MyToken",
						"label": "_allowances",
						"offset": 0,
						"slot": "1",
						"type": "t_mapping(t_address,t_mapping(t_address,t_uint256))"
					},
					{
						"astId": 410,
						"contract": "contracts/openzeppelinERC20.sol:MyToken",
						"label": "_totalSupply",
						"offset": 0,
						"slot": "2",
						"type": "t_uint256"
					},
					{
						"astId": 412,
						"contract": "contracts/openzeppelinERC20.sol:MyToken",
						"label": "_name",
						"offset": 0,
						"slot": "3",
						"type": "t_string_storage"
					},
					{
						"astId": 414,
						"contract": "contracts/openzeppelinERC20.sol:MyToken",
						"label": "_symbol",
						"offset": 0,
						"slot": "4",
						"type": "t_string_storage"
					},
					{
						"astId": 416,
						"contract": "contracts/openzeppelinERC20.sol:MyToken",
						"label": "_decimals",
						"offset": 0,
						"slot": "5",
						"type": "t_uint8"
					}
				],
				"types": {
					"t_address": {
						"encoding": "inplace",
						"label": "address",
						"numberOfBytes": "20"
					},
					"t_mapping(t_address,t_mapping(t_address,t_uint256))": {
						"encoding": "mapping",
						"key": "t_address",
						"label": "mapping(address => mapping(address => uint256))",
						"numberOfBytes": "32",
						"value": "t_mapping(t_address,t_uint256)"
					},
					"t_mapping(t_address,t_uint256)": {
						"encoding": "mapping",
						"key": "t_address",
						"label": "mapping(address => uint256)",
						"numberOfBytes": "32",
						"value": "t_uint256"
					},
					"t_string_storage": {
						"encoding": "bytes",
						"label": "string",
						"numberOfBytes": "32"
					},
					"t_uint256": {
						"encoding": "inplace",
						"label": "uint256",
						"numberOfBytes": "32"
					},
					"t_uint8": {
						"encoding": "inplace",
						"label": "uint8",
						"numberOfBytes": "1"
					}
				}
			},
			"userdoc": {
				"kind": "user",
				"methods": {},
				"version": 1
			}
		}
	}
}