{
	"contracts/priceConversion.sol": {
		"WeiToDollarConverter": {
			"abi": [
				{
					"inputs": [
						{
							"internalType": "address",
							"name": "_priceFeed",
							"type": "address"
						}
					],
					"stateMutability": "nonpayable",
					"type": "constructor"
				},
				{
					"inputs": [
						{
							"internalType": "uint256",
							"name": "amountInWei",
							"type": "uint256"
						}
					],
					"name": "ConvertWeiToDollar",
					"outputs": [
						{
							"internalType": "uint256",
							"name": "",
							"type": "uint256"
						}
					],
					"stateMutability": "view",
					"type": "function"
				},
				{
					"inputs": [],
					"name": "priceFeed",
					"outputs": [
						{
							"internalType": "contract AggregatorV3Interface",
							"name": "",
							"type": "address"
						}
					],
					"stateMutability": "view",
					"type": "function"
				}
			],
			"devdoc": {
				"kind": "dev",
				"methods": {},
				"version": 1
			},
			"evm": {
				"assembly": "    /* \"contracts/priceConversion.sol\":136:605  contract WeiToDollarConverter {... */\n  mstore(0x40, 0x80)\n    /* \"contracts/priceConversion.sol\":217:311  constructor (address _priceFeed){... */\n  callvalue\n  dup1\n  iszero\n  tag_1\n  jumpi\n  0x00\n  dup1\n  revert\ntag_1:\n  pop\n  mload(0x40)\n  sub(codesize, bytecodeSize)\n  dup1\n  bytecodeSize\n  dup4\n  codecopy\n  dup2\n  dup2\n  add\n  0x40\n  mstore\n  dup2\n  add\n  swap1\n  tag_2\n  swap2\n  swap1\n  tag_3\n  jump\t// in\ntag_2:\n    /* \"contracts/priceConversion.sol\":293:303  _priceFeed */\n  dup1\n    /* \"contracts/priceConversion.sol\":259:268  priceFeed */\n  0x00\n  dup1\n    /* \"contracts/priceConversion.sol\":259:304  priceFeed = AggregatorV3Interface(_priceFeed) */\n  0x0100\n  exp\n  dup2\n  sload\n  dup2\n  0xffffffffffffffffffffffffffffffffffffffff\n  mul\n  not\n  and\n  swap1\n  dup4\n  0xffffffffffffffffffffffffffffffffffffffff\n  and\n  mul\n  or\n  swap1\n  sstore\n  pop\n    /* \"contracts/priceConversion.sol\":217:311  constructor (address _priceFeed){... */\n  pop\n    /* \"contracts/priceConversion.sol\":136:605  contract WeiToDollarConverter {... */\n  jump(tag_6)\n    /* \"#utility.yul\":88:205   */\ntag_8:\n    /* \"#utility.yul\":197:198   */\n  0x00\n    /* \"#utility.yul\":194:195   */\n  dup1\n    /* \"#utility.yul\":187:199   */\n  revert\n    /* \"#utility.yul\":334:460   */\ntag_10:\n    /* \"#utility.yul\":371:378   */\n  0x00\n    /* \"#utility.yul\":411:453   */\n  0xffffffffffffffffffffffffffffffffffffffff\n    /* \"#utility.yul\":404:409   */\n  dup3\n    /* \"#utility.yul\":400:454   */\n  and\n    /* \"#utility.yul\":389:454   */\n  swap1\n  pop\n    /* \"#utility.yul\":334:460   */\n  swap2\n  swap1\n  pop\n  jump\t// out\n    /* \"#utility.yul\":466:562   */\ntag_11:\n    /* \"#utility.yul\":503:510   */\n  0x00\n    /* \"#utility.yul\":532:556   */\n  tag_20\n    /* \"#utility.yul\":550:555   */\n  dup3\n    /* \"#utility.yul\":532:556   */\n  tag_10\n  jump\t// in\ntag_20:\n    /* \"#utility.yul\":521:556   */\n  swap1\n  pop\n    /* \"#utility.yul\":466:562   */\n  swap2\n  swap1\n  pop\n  jump\t// out\n    /* \"#utility.yul\":568:690   */\ntag_12:\n    /* \"#utility.yul\":641:665   */\n  tag_22\n    /* \"#utility.yul\":659:664   */\n  dup2\n    /* \"#utility.yul\":641:665   */\n  tag_11\n  jump\t// in\ntag_22:\n    /* \"#utility.yul\":634:639   */\n  dup2\n    /* \"#utility.yul\":631:666   */\n  eq\n    /* \"#utility.yul\":621:684   */\n  tag_23\n  jumpi\n    /* \"#utility.yul\":680:681   */\n  0x00\n    /* \"#utility.yul\":677:678   */\n  dup1\n    /* \"#utility.yul\":670:682   */\n  revert\n    /* \"#utility.yul\":621:684   */\ntag_23:\n    /* \"#utility.yul\":568:690   */\n  pop\n  jump\t// out\n    /* \"#utility.yul\":696:839   */\ntag_13:\n    /* \"#utility.yul\":753:758   */\n  0x00\n    /* \"#utility.yul\":784:790   */\n  dup2\n    /* \"#utility.yul\":778:791   */\n  mload\n    /* \"#utility.yul\":769:791   */\n  swap1\n  pop\n    /* \"#utility.yul\":800:833   */\n  tag_25\n    /* \"#utility.yul\":827:832   */\n  dup2\n    /* \"#utility.yul\":800:833   */\n  tag_12\n  jump\t// in\ntag_25:\n    /* \"#utility.yul\":696:839   */\n  swap3\n  swap2\n  pop\n  pop\n  jump\t// out\n    /* \"#utility.yul\":845:1196   */\ntag_3:\n    /* \"#utility.yul\":915:921   */\n  0x00\n    /* \"#utility.yul\":964:966   */\n  0x20\n    /* \"#utility.yul\":952:961   */\n  dup3\n    /* \"#utility.yul\":943:950   */\n  dup5\n    /* \"#utility.yul\":939:962   */\n  sub\n    /* \"#utility.yul\":935:967   */\n  slt\n    /* \"#utility.yul\":932:1051   */\n  iszero\n  tag_27\n  jumpi\n    /* \"#utility.yul\":970:1049   */\n  tag_28\n  tag_8\n  jump\t// in\ntag_28:\n    /* \"#utility.yul\":932:1051   */\ntag_27:\n    /* \"#utility.yul\":1090:1091   */\n  0x00\n    /* \"#utility.yul\":1115:1179   */\n  tag_29\n    /* \"#utility.yul\":1171:1178   */\n  dup5\n    /* \"#utility.yul\":1162:1168   */\n  dup3\n    /* \"#utility.yul\":1151:1160   */\n  dup6\n    /* \"#utility.yul\":1147:1169   */\n  add\n    /* \"#utility.yul\":1115:1179   */\n  tag_13\n  jump\t// in\ntag_29:\n    /* \"#utility.yul\":1105:1179   */\n  swap2\n  pop\n    /* \"#utility.yul\":1061:1189   */\n  pop\n    /* \"#utility.yul\":845:1196   */\n  swap3\n  swap2\n  pop\n  pop\n  jump\t// out\n    /* \"contracts/priceConversion.sol\":136:605  contract WeiToDollarConverter {... */\ntag_6:\n  dataSize(sub_0)\n  dup1\n  dataOffset(sub_0)\n  0x00\n  codecopy\n  0x00\n  return\nstop\n\nsub_0: assembly {\n        /* \"contracts/priceConversion.sol\":136:605  contract WeiToDollarConverter {... */\n      mstore(0x40, 0x80)\n      callvalue\n      dup1\n      iszero\n      tag_1\n      jumpi\n      0x00\n      dup1\n      revert\n    tag_1:\n      pop\n      jumpi(tag_2, lt(calldatasize, 0x04))\n      shr(0xe0, calldataload(0x00))\n      dup1\n      0x741bef1a\n      eq\n      tag_3\n      jumpi\n      dup1\n      0x82366f50\n      eq\n      tag_4\n      jumpi\n    tag_2:\n      0x00\n      dup1\n      revert\n        /* \"contracts/priceConversion.sol\":172:210  AggregatorV3Interface public priceFeed */\n    tag_3:\n      tag_5\n      tag_6\n      jump\t// in\n    tag_5:\n      mload(0x40)\n      tag_7\n      swap2\n      swap1\n      tag_8\n      jump\t// in\n    tag_7:\n      mload(0x40)\n      dup1\n      swap2\n      sub\n      swap1\n      return\n        /* \"contracts/priceConversion.sol\":317:602  function ConvertWeiToDollar(uint256 amountInWei) public view returns (uint256) {... */\n    tag_4:\n      tag_9\n      0x04\n      dup1\n      calldatasize\n      sub\n      dup2\n      add\n      swap1\n      tag_10\n      swap2\n      swap1\n      tag_11\n      jump\t// in\n    tag_10:\n      tag_12\n      jump\t// in\n    tag_9:\n      mload(0x40)\n      tag_13\n      swap2\n      swap1\n      tag_14\n      jump\t// in\n    tag_13:\n      mload(0x40)\n      dup1\n      swap2\n      sub\n      swap1\n      return\n        /* \"contracts/priceConversion.sol\":172:210  AggregatorV3Interface public priceFeed */\n    tag_6:\n      0x00\n      dup1\n      sload\n      swap1\n      0x0100\n      exp\n      swap1\n      div\n      0xffffffffffffffffffffffffffffffffffffffff\n      and\n      dup2\n      jump\t// out\n        /* \"contracts/priceConversion.sol\":317:602  function ConvertWeiToDollar(uint256 amountInWei) public view returns (uint256) {... */\n    tag_12:\n        /* \"contracts/priceConversion.sol\":387:394  uint256 */\n      0x00\n        /* \"contracts/priceConversion.sol\":409:421  int256 price */\n      dup1\n        /* \"contracts/priceConversion.sol\":431:440  priceFeed */\n      0x00\n      dup1\n      sload\n      swap1\n      0x0100\n      exp\n      swap1\n      div\n      0xffffffffffffffffffffffffffffffffffffffff\n      and\n        /* \"contracts/priceConversion.sol\":431:456  priceFeed.latestRoundData */\n      0xffffffffffffffffffffffffffffffffffffffff\n      and\n      0xfeaf968c\n        /* \"contracts/priceConversion.sol\":431:458  priceFeed.latestRoundData() */\n      mload(0x40)\n      dup2\n      0xffffffff\n      and\n      0xe0\n      shl\n      dup2\n      mstore\n      0x04\n      add\n      0xa0\n      mload(0x40)\n      dup1\n      dup4\n      sub\n      dup2\n      dup7\n      gas\n      staticcall\n      iszero\n      dup1\n      iszero\n      tag_17\n      jumpi\n      returndatasize\n      0x00\n      dup1\n      returndatacopy\n      revert(0x00, returndatasize)\n    tag_17:\n      pop\n      pop\n      pop\n      pop\n      mload(0x40)\n      returndatasize\n      not(0x1f)\n      0x1f\n      dup3\n      add\n      and\n      dup3\n      add\n      dup1\n      0x40\n      mstore\n      pop\n      dup2\n      add\n      swap1\n      tag_18\n      swap2\n      swap1\n      tag_19\n      jump\t// in\n    tag_18:\n        /* \"contracts/priceConversion.sol\":406:458  (, int256 price, , , ) = priceFeed.latestRoundData() */\n      pop\n      pop\n      pop\n      swap2\n      pop\n      pop\n        /* \"contracts/priceConversion.sol\":468:484  uint256 ethPrice */\n      0x00\n        /* \"contracts/priceConversion.sol\":495:500  price */\n      dup2\n        /* \"contracts/priceConversion.sol\":468:501  uint256 ethPrice = uint256(price) */\n      swap1\n      pop\n        /* \"contracts/priceConversion.sol\":511:533  uint256 amountInDollar */\n      0x00\n        /* \"contracts/priceConversion.sol\":561:564  1e8 */\n      0x05f5e100\n        /* \"contracts/priceConversion.sol\":550:558  ethPrice */\n      dup3\n        /* \"contracts/priceConversion.sol\":536:547  amountInWei */\n      dup7\n        /* \"contracts/priceConversion.sol\":536:558  amountInWei * ethPrice */\n      tag_20\n      swap2\n      swap1\n      tag_21\n      jump\t// in\n    tag_20:\n        /* \"contracts/priceConversion.sol\":536:564  amountInWei * ethPrice / 1e8 */\n      tag_22\n      swap2\n      swap1\n      tag_23\n      jump\t// in\n    tag_22:\n        /* \"contracts/priceConversion.sol\":511:564  uint256 amountInDollar = amountInWei * ethPrice / 1e8 */\n      swap1\n      pop\n        /* \"contracts/priceConversion.sol\":581:595  amountInDollar */\n      dup1\n        /* \"contracts/priceConversion.sol\":574:595  return amountInDollar */\n      swap4\n      pop\n      pop\n      pop\n      pop\n        /* \"contracts/priceConversion.sol\":317:602  function ConvertWeiToDollar(uint256 amountInWei) public view returns (uint256) {... */\n      swap2\n      swap1\n      pop\n      jump\t// out\n        /* \"#utility.yul\":7:133   */\n    tag_24:\n        /* \"#utility.yul\":44:51   */\n      0x00\n        /* \"#utility.yul\":84:126   */\n      0xffffffffffffffffffffffffffffffffffffffff\n        /* \"#utility.yul\":77:82   */\n      dup3\n        /* \"#utility.yul\":73:127   */\n      and\n        /* \"#utility.yul\":62:127   */\n      swap1\n      pop\n        /* \"#utility.yul\":7:133   */\n      swap2\n      swap1\n      pop\n      jump\t// out\n        /* \"#utility.yul\":139:199   */\n    tag_25:\n        /* \"#utility.yul\":167:170   */\n      0x00\n        /* \"#utility.yul\":188:193   */\n      dup2\n        /* \"#utility.yul\":181:193   */\n      swap1\n      pop\n        /* \"#utility.yul\":139:199   */\n      swap2\n      swap1\n      pop\n      jump\t// out\n        /* \"#utility.yul\":205:347   */\n    tag_26:\n        /* \"#utility.yul\":255:264   */\n      0x00\n        /* \"#utility.yul\":288:341   */\n      tag_50\n        /* \"#utility.yul\":306:340   */\n      tag_51\n        /* \"#utility.yul\":315:339   */\n      tag_52\n        /* \"#utility.yul\":333:338   */\n      dup5\n        /* \"#utility.yul\":315:339   */\n      tag_24\n      jump\t// in\n    tag_52:\n        /* \"#utility.yul\":306:340   */\n      tag_25\n      jump\t// in\n    tag_51:\n        /* \"#utility.yul\":288:341   */\n      tag_24\n      jump\t// in\n    tag_50:\n        /* \"#utility.yul\":275:341   */\n      swap1\n      pop\n        /* \"#utility.yul\":205:347   */\n      swap2\n      swap1\n      pop\n      jump\t// out\n        /* \"#utility.yul\":353:479   */\n    tag_27:\n        /* \"#utility.yul\":403:412   */\n      0x00\n        /* \"#utility.yul\":436:473   */\n      tag_54\n        /* \"#utility.yul\":467:472   */\n      dup3\n        /* \"#utility.yul\":436:473   */\n      tag_26\n      jump\t// in\n    tag_54:\n        /* \"#utility.yul\":423:473   */\n      swap1\n      pop\n        /* \"#utility.yul\":353:479   */\n      swap2\n      swap1\n      pop\n      jump\t// out\n        /* \"#utility.yul\":485:639   */\n    tag_28:\n        /* \"#utility.yul\":563:572   */\n      0x00\n        /* \"#utility.yul\":596:633   */\n      tag_56\n        /* \"#utility.yul\":627:632   */\n      dup3\n        /* \"#utility.yul\":596:633   */\n      tag_27\n      jump\t// in\n    tag_56:\n        /* \"#utility.yul\":583:633   */\n      swap1\n      pop\n        /* \"#utility.yul\":485:639   */\n      swap2\n      swap1\n      pop\n      jump\t// out\n        /* \"#utility.yul\":645:832   */\n    tag_29:\n        /* \"#utility.yul\":760:825   */\n      tag_58\n        /* \"#utility.yul\":819:824   */\n      dup2\n        /* \"#utility.yul\":760:825   */\n      tag_28\n      jump\t// in\n    tag_58:\n        /* \"#utility.yul\":755:758   */\n      dup3\n        /* \"#utility.yul\":748:826   */\n      mstore\n        /* \"#utility.yul\":645:832   */\n      pop\n      pop\n      jump\t// out\n        /* \"#utility.yul\":838:1116   */\n    tag_8:\n        /* \"#utility.yul\":959:963   */\n      0x00\n        /* \"#utility.yul\":997:999   */\n      0x20\n        /* \"#utility.yul\":986:995   */\n      dup3\n        /* \"#utility.yul\":982:1000   */\n      add\n        /* \"#utility.yul\":974:1000   */\n      swap1\n      pop\n        /* \"#utility.yul\":1010:1109   */\n      tag_60\n        /* \"#utility.yul\":1106:1107   */\n      0x00\n        /* \"#utility.yul\":1095:1104   */\n      dup4\n        /* \"#utility.yul\":1091:1108   */\n      add\n        /* \"#utility.yul\":1082:1088   */\n      dup5\n        /* \"#utility.yul\":1010:1109   */\n      tag_29\n      jump\t// in\n    tag_60:\n        /* \"#utility.yul\":838:1116   */\n      swap3\n      swap2\n      pop\n      pop\n      jump\t// out\n        /* \"#utility.yul\":1203:1320   */\n    tag_31:\n        /* \"#utility.yul\":1312:1313   */\n      0x00\n        /* \"#utility.yul\":1309:1310   */\n      dup1\n        /* \"#utility.yul\":1302:1314   */\n      revert\n        /* \"#utility.yul\":1449:1526   */\n    tag_33:\n        /* \"#utility.yul\":1486:1493   */\n      0x00\n        /* \"#utility.yul\":1515:1520   */\n      dup2\n        /* \"#utility.yul\":1504:1520   */\n      swap1\n      pop\n        /* \"#utility.yul\":1449:1526   */\n      swap2\n      swap1\n      pop\n      jump\t// out\n        /* \"#utility.yul\":1532:1654   */\n    tag_34:\n        /* \"#utility.yul\":1605:1629   */\n      tag_66\n        /* \"#utility.yul\":1623:1628   */\n      dup2\n        /* \"#utility.yul\":1605:1629   */\n      tag_33\n      jump\t// in\n    tag_66:\n        /* \"#utility.yul\":1598:1603   */\n      dup2\n        /* \"#utility.yul\":1595:1630   */\n      eq\n        /* \"#utility.yul\":1585:1648   */\n      tag_67\n      jumpi\n        /* \"#utility.yul\":1644:1645   */\n      0x00\n        /* \"#utility.yul\":1641:1642   */\n      dup1\n        /* \"#utility.yul\":1634:1646   */\n      revert\n        /* \"#utility.yul\":1585:1648   */\n    tag_67:\n        /* \"#utility.yul\":1532:1654   */\n      pop\n      jump\t// out\n        /* \"#utility.yul\":1660:1799   */\n    tag_35:\n        /* \"#utility.yul\":1706:1711   */\n      0x00\n        /* \"#utility.yul\":1744:1750   */\n      dup2\n        /* \"#utility.yul\":1731:1751   */\n      calldataload\n        /* \"#utility.yul\":1722:1751   */\n      swap1\n      pop\n        /* \"#utility.yul\":1760:1793   */\n      tag_69\n        /* \"#utility.yul\":1787:1792   */\n      dup2\n        /* \"#utility.yul\":1760:1793   */\n      tag_34\n      jump\t// in\n    tag_69:\n        /* \"#utility.yul\":1660:1799   */\n      swap3\n      swap2\n      pop\n      pop\n      jump\t// out\n        /* \"#utility.yul\":1805:2134   */\n    tag_11:\n        /* \"#utility.yul\":1864:1870   */\n      0x00\n        /* \"#utility.yul\":1913:1915   */\n      0x20\n        /* \"#utility.yul\":1901:1910   */\n      dup3\n        /* \"#utility.yul\":1892:1899   */\n      dup5\n        /* \"#utility.yul\":1888:1911   */\n      sub\n        /* \"#utility.yul\":1884:1916   */\n      slt\n        /* \"#utility.yul\":1881:2000   */\n      iszero\n      tag_71\n      jumpi\n        /* \"#utility.yul\":1919:1998   */\n      tag_72\n      tag_31\n      jump\t// in\n    tag_72:\n        /* \"#utility.yul\":1881:2000   */\n    tag_71:\n        /* \"#utility.yul\":2039:2040   */\n      0x00\n        /* \"#utility.yul\":2064:2117   */\n      tag_73\n        /* \"#utility.yul\":2109:2116   */\n      dup5\n        /* \"#utility.yul\":2100:2106   */\n      dup3\n        /* \"#utility.yul\":2089:2098   */\n      dup6\n        /* \"#utility.yul\":2085:2107   */\n      add\n        /* \"#utility.yul\":2064:2117   */\n      tag_35\n      jump\t// in\n    tag_73:\n        /* \"#utility.yul\":2054:2117   */\n      swap2\n      pop\n        /* \"#utility.yul\":2010:2127   */\n      pop\n        /* \"#utility.yul\":1805:2134   */\n      swap3\n      swap2\n      pop\n      pop\n      jump\t// out\n        /* \"#utility.yul\":2140:2258   */\n    tag_36:\n        /* \"#utility.yul\":2227:2251   */\n      tag_75\n        /* \"#utility.yul\":2245:2250   */\n      dup2\n        /* \"#utility.yul\":2227:2251   */\n      tag_33\n      jump\t// in\n    tag_75:\n        /* \"#utility.yul\":2222:2225   */\n      dup3\n        /* \"#utility.yul\":2215:2252   */\n      mstore\n        /* \"#utility.yul\":2140:2258   */\n      pop\n      pop\n      jump\t// out\n        /* \"#utility.yul\":2264:2486   */\n    tag_14:\n        /* \"#utility.yul\":2357:2361   */\n      0x00\n        /* \"#utility.yul\":2395:2397   */\n      0x20\n        /* \"#utility.yul\":2384:2393   */\n      dup3\n        /* \"#utility.yul\":2380:2398   */\n      add\n        /* \"#utility.yul\":2372:2398   */\n      swap1\n      pop\n        /* \"#utility.yul\":2408:2479   */\n      tag_77\n        /* \"#utility.yul\":2476:2477   */\n      0x00\n        /* \"#utility.yul\":2465:2474   */\n      dup4\n        /* \"#utility.yul\":2461:2478   */\n      add\n        /* \"#utility.yul\":2452:2458   */\n      dup5\n        /* \"#utility.yul\":2408:2479   */\n      tag_36\n      jump\t// in\n    tag_77:\n        /* \"#utility.yul\":2264:2486   */\n      swap3\n      swap2\n      pop\n      pop\n      jump\t// out\n        /* \"#utility.yul\":2492:2597   */\n    tag_37:\n        /* \"#utility.yul\":2528:2535   */\n      0x00\n        /* \"#utility.yul\":2568:2590   */\n      0xffffffffffffffffffff\n        /* \"#utility.yul\":2561:2566   */\n      dup3\n        /* \"#utility.yul\":2557:2591   */\n      and\n        /* \"#utility.yul\":2546:2591   */\n      swap1\n      pop\n        /* \"#utility.yul\":2492:2597   */\n      swap2\n      swap1\n      pop\n      jump\t// out\n        /* \"#utility.yul\":2603:2723   */\n    tag_38:\n        /* \"#utility.yul\":2675:2698   */\n      tag_80\n        /* \"#utility.yul\":2692:2697   */\n      dup2\n        /* \"#utility.yul\":2675:2698   */\n      tag_37\n      jump\t// in\n    tag_80:\n        /* \"#utility.yul\":2668:2673   */\n      dup2\n        /* \"#utility.yul\":2665:2699   */\n      eq\n        /* \"#utility.yul\":2655:2717   */\n      tag_81\n      jumpi\n        /* \"#utility.yul\":2713:2714   */\n      0x00\n        /* \"#utility.yul\":2710:2711   */\n      dup1\n        /* \"#utility.yul\":2703:2715   */\n      revert\n        /* \"#utility.yul\":2655:2717   */\n    tag_81:\n        /* \"#utility.yul\":2603:2723   */\n      pop\n      jump\t// out\n        /* \"#utility.yul\":2729:2870   */\n    tag_39:\n        /* \"#utility.yul\":2785:2790   */\n      0x00\n        /* \"#utility.yul\":2816:2822   */\n      dup2\n        /* \"#utility.yul\":2810:2823   */\n      mload\n        /* \"#utility.yul\":2801:2823   */\n      swap1\n      pop\n        /* \"#utility.yul\":2832:2864   */\n      tag_83\n        /* \"#utility.yul\":2858:2863   */\n      dup2\n        /* \"#utility.yul\":2832:2864   */\n      tag_38\n      jump\t// in\n    tag_83:\n        /* \"#utility.yul\":2729:2870   */\n      swap3\n      swap2\n      pop\n      pop\n      jump\t// out\n        /* \"#utility.yul\":2876:2952   */\n    tag_40:\n        /* \"#utility.yul\":2912:2919   */\n      0x00\n        /* \"#utility.yul\":2941:2946   */\n      dup2\n        /* \"#utility.yul\":2930:2946   */\n      swap1\n      pop\n        /* \"#utility.yul\":2876:2952   */\n      swap2\n      swap1\n      pop\n      jump\t// out\n        /* \"#utility.yul\":2958:3078   */\n    tag_41:\n        /* \"#utility.yul\":3030:3053   */\n      tag_86\n        /* \"#utility.yul\":3047:3052   */\n      dup2\n        /* \"#utility.yul\":3030:3053   */\n      tag_40\n      jump\t// in\n    tag_86:\n        /* \"#utility.yul\":3023:3028   */\n      dup2\n        /* \"#utility.yul\":3020:3054   */\n      eq\n        /* \"#utility.yul\":3010:3072   */\n      tag_87\n      jumpi\n        /* \"#utility.yul\":3068:3069   */\n      0x00\n        /* \"#utility.yul\":3065:3066   */\n      dup1\n        /* \"#utility.yul\":3058:3070   */\n      revert\n        /* \"#utility.yul\":3010:3072   */\n    tag_87:\n        /* \"#utility.yul\":2958:3078   */\n      pop\n      jump\t// out\n        /* \"#utility.yul\":3084:3225   */\n    tag_42:\n        /* \"#utility.yul\":3140:3145   */\n      0x00\n        /* \"#utility.yul\":3171:3177   */\n      dup2\n        /* \"#utility.yul\":3165:3178   */\n      mload\n        /* \"#utility.yul\":3156:3178   */\n      swap1\n      pop\n        /* \"#utility.yul\":3187:3219   */\n      tag_89\n        /* \"#utility.yul\":3213:3218   */\n      dup2\n        /* \"#utility.yul\":3187:3219   */\n      tag_41\n      jump\t// in\n    tag_89:\n        /* \"#utility.yul\":3084:3225   */\n      swap3\n      swap2\n      pop\n      pop\n      jump\t// out\n        /* \"#utility.yul\":3231:3374   */\n    tag_43:\n        /* \"#utility.yul\":3288:3293   */\n      0x00\n        /* \"#utility.yul\":3319:3325   */\n      dup2\n        /* \"#utility.yul\":3313:3326   */\n      mload\n        /* \"#utility.yul\":3304:3326   */\n      swap1\n      pop\n        /* \"#utility.yul\":3335:3368   */\n      tag_91\n        /* \"#utility.yul\":3362:3367   */\n      dup2\n        /* \"#utility.yul\":3335:3368   */\n      tag_34\n      jump\t// in\n    tag_91:\n        /* \"#utility.yul\":3231:3374   */\n      swap3\n      swap2\n      pop\n      pop\n      jump\t// out\n        /* \"#utility.yul\":3380:4351   */\n    tag_19:\n        /* \"#utility.yul\":3483:3489   */\n      0x00\n        /* \"#utility.yul\":3491:3497   */\n      dup1\n        /* \"#utility.yul\":3499:3505   */\n      0x00\n        /* \"#utility.yul\":3507:3513   */\n      dup1\n        /* \"#utility.yul\":3515:3521   */\n      0x00\n        /* \"#utility.yul\":3564:3567   */\n      0xa0\n        /* \"#utility.yul\":3552:3561   */\n      dup7\n        /* \"#utility.yul\":3543:3550   */\n      dup9\n        /* \"#utility.yul\":3539:3562   */\n      sub\n        /* \"#utility.yul\":3535:3568   */\n      slt\n        /* \"#utility.yul\":3532:3652   */\n      iszero\n      tag_93\n      jumpi\n        /* \"#utility.yul\":3571:3650   */\n      tag_94\n      tag_31\n      jump\t// in\n    tag_94:\n        /* \"#utility.yul\":3532:3652   */\n    tag_93:\n        /* \"#utility.yul\":3691:3692   */\n      0x00\n        /* \"#utility.yul\":3716:3779   */\n      tag_95\n        /* \"#utility.yul\":3771:3778   */\n      dup9\n        /* \"#utility.yul\":3762:3768   */\n      dup3\n        /* \"#utility.yul\":3751:3760   */\n      dup10\n        /* \"#utility.yul\":3747:3769   */\n      add\n        /* \"#utility.yul\":3716:3779   */\n      tag_39\n      jump\t// in\n    tag_95:\n        /* \"#utility.yul\":3706:3779   */\n      swap6\n      pop\n        /* \"#utility.yul\":3662:3789   */\n      pop\n        /* \"#utility.yul\":3828:3830   */\n      0x20\n        /* \"#utility.yul\":3854:3917   */\n      tag_96\n        /* \"#utility.yul\":3909:3916   */\n      dup9\n        /* \"#utility.yul\":3900:3906   */\n      dup3\n        /* \"#utility.yul\":3889:3898   */\n      dup10\n        /* \"#utility.yul\":3885:3907   */\n      add\n        /* \"#utility.yul\":3854:3917   */\n      tag_42\n      jump\t// in\n    tag_96:\n        /* \"#utility.yul\":3844:3917   */\n      swap5\n      pop\n        /* \"#utility.yul\":3799:3927   */\n      pop\n        /* \"#utility.yul\":3966:3968   */\n      0x40\n        /* \"#utility.yul\":3992:4056   */\n      tag_97\n        /* \"#utility.yul\":4048:4055   */\n      dup9\n        /* \"#utility.yul\":4039:4045   */\n      dup3\n        /* \"#utility.yul\":4028:4037   */\n      dup10\n        /* \"#utility.yul\":4024:4046   */\n      add\n        /* \"#utility.yul\":3992:4056   */\n      tag_43\n      jump\t// in\n    tag_97:\n        /* \"#utility.yul\":3982:4056   */\n      swap4\n      pop\n        /* \"#utility.yul\":3937:4066   */\n      pop\n        /* \"#utility.yul\":4105:4107   */\n      0x60\n        /* \"#utility.yul\":4131:4195   */\n      tag_98\n        /* \"#utility.yul\":4187:4194   */\n      dup9\n        /* \"#utility.yul\":4178:4184   */\n      dup3\n        /* \"#utility.yul\":4167:4176   */\n      dup10\n        /* \"#utility.yul\":4163:4185   */\n      add\n        /* \"#utility.yul\":4131:4195   */\n      tag_43\n      jump\t// in\n    tag_98:\n        /* \"#utility.yul\":4121:4195   */\n      swap3\n      pop\n        /* \"#utility.yul\":4076:4205   */\n      pop\n        /* \"#utility.yul\":4244:4247   */\n      0x80\n        /* \"#utility.yul\":4271:4334   */\n      tag_99\n        /* \"#utility.yul\":4326:4333   */\n      dup9\n        /* \"#utility.yul\":4317:4323   */\n      dup3\n        /* \"#utility.yul\":4306:4315   */\n      dup10\n        /* \"#utility.yul\":4302:4324   */\n      add\n        /* \"#utility.yul\":4271:4334   */\n      tag_39\n      jump\t// in\n    tag_99:\n        /* \"#utility.yul\":4261:4334   */\n      swap2\n      pop\n        /* \"#utility.yul\":4215:4344   */\n      pop\n        /* \"#utility.yul\":3380:4351   */\n      swap3\n      swap6\n      pop\n      swap3\n      swap6\n      swap1\n      swap4\n      pop\n      jump\t// out\n        /* \"#utility.yul\":4357:4537   */\n    tag_44:\n        /* \"#utility.yul\":4405:4482   */\n      0x4e487b7100000000000000000000000000000000000000000000000000000000\n        /* \"#utility.yul\":4402:4403   */\n      0x00\n        /* \"#utility.yul\":4395:4483   */\n      mstore\n        /* \"#utility.yul\":4502:4506   */\n      0x11\n        /* \"#utility.yul\":4499:4500   */\n      0x04\n        /* \"#utility.yul\":4492:4507   */\n      mstore\n        /* \"#utility.yul\":4526:4530   */\n      0x24\n        /* \"#utility.yul\":4523:4524   */\n      0x00\n        /* \"#utility.yul\":4516:4531   */\n      revert\n        /* \"#utility.yul\":4543:4953   */\n    tag_21:\n        /* \"#utility.yul\":4583:4590   */\n      0x00\n        /* \"#utility.yul\":4606:4626   */\n      tag_102\n        /* \"#utility.yul\":4624:4625   */\n      dup3\n        /* \"#utility.yul\":4606:4626   */\n      tag_33\n      jump\t// in\n    tag_102:\n        /* \"#utility.yul\":4601:4626   */\n      swap2\n      pop\n        /* \"#utility.yul\":4640:4660   */\n      tag_103\n        /* \"#utility.yul\":4658:4659   */\n      dup4\n        /* \"#utility.yul\":4640:4660   */\n      tag_33\n      jump\t// in\n    tag_103:\n        /* \"#utility.yul\":4635:4660   */\n      swap3\n      pop\n        /* \"#utility.yul\":4695:4696   */\n      dup3\n        /* \"#utility.yul\":4692:4693   */\n      dup3\n        /* \"#utility.yul\":4688:4697   */\n      mul\n        /* \"#utility.yul\":4717:4747   */\n      tag_104\n        /* \"#utility.yul\":4735:4746   */\n      dup2\n        /* \"#utility.yul\":4717:4747   */\n      tag_33\n      jump\t// in\n    tag_104:\n        /* \"#utility.yul\":4706:4747   */\n      swap2\n      pop\n        /* \"#utility.yul\":4896:4897   */\n      dup3\n        /* \"#utility.yul\":4887:4894   */\n      dup3\n        /* \"#utility.yul\":4883:4898   */\n      div\n        /* \"#utility.yul\":4880:4881   */\n      dup5\n        /* \"#utility.yul\":4877:4899   */\n      eq\n        /* \"#utility.yul\":4857:4858   */\n      dup4\n        /* \"#utility.yul\":4850:4859   */\n      iszero\n        /* \"#utility.yul\":4830:4913   */\n      or\n        /* \"#utility.yul\":4807:4946   */\n      tag_105\n      jumpi\n        /* \"#utility.yul\":4926:4944   */\n      tag_106\n      tag_44\n      jump\t// in\n    tag_106:\n        /* \"#utility.yul\":4807:4946   */\n    tag_105:\n        /* \"#utility.yul\":4591:4953   */\n      pop\n        /* \"#utility.yul\":4543:4953   */\n      swap3\n      swap2\n      pop\n      pop\n      jump\t// out\n        /* \"#utility.yul\":4959:5139   */\n    tag_45:\n        /* \"#utility.yul\":5007:5084   */\n      0x4e487b7100000000000000000000000000000000000000000000000000000000\n        /* \"#utility.yul\":5004:5005   */\n      0x00\n        /* \"#utility.yul\":4997:5085   */\n      mstore\n        /* \"#utility.yul\":5104:5108   */\n      0x12\n        /* \"#utility.yul\":5101:5102   */\n      0x04\n        /* \"#utility.yul\":5094:5109   */\n      mstore\n        /* \"#utility.yul\":5128:5132   */\n      0x24\n        /* \"#utility.yul\":5125:5126   */\n      0x00\n        /* \"#utility.yul\":5118:5133   */\n      revert\n        /* \"#utility.yul\":5145:5330   */\n    tag_23:\n        /* \"#utility.yul\":5185:5186   */\n      0x00\n        /* \"#utility.yul\":5202:5222   */\n      tag_109\n        /* \"#utility.yul\":5220:5221   */\n      dup3\n        /* \"#utility.yul\":5202:5222   */\n      tag_33\n      jump\t// in\n    tag_109:\n        /* \"#utility.yul\":5197:5222   */\n      swap2\n      pop\n        /* \"#utility.yul\":5236:5256   */\n      tag_110\n        /* \"#utility.yul\":5254:5255   */\n      dup4\n        /* \"#utility.yul\":5236:5256   */\n      tag_33\n      jump\t// in\n    tag_110:\n        /* \"#utility.yul\":5231:5256   */\n      swap3\n      pop\n        /* \"#utility.yul\":5275:5276   */\n      dup3\n        /* \"#utility.yul\":5265:5300   */\n      tag_111\n      jumpi\n        /* \"#utility.yul\":5280:5298   */\n      tag_112\n      tag_45\n      jump\t// in\n    tag_112:\n        /* \"#utility.yul\":5265:5300   */\n    tag_111:\n        /* \"#utility.yul\":5322:5323   */\n      dup3\n        /* \"#utility.yul\":5319:5320   */\n      dup3\n        /* \"#utility.yul\":5315:5324   */\n      div\n        /* \"#utility.yul\":5310:5324   */\n      swap1\n      pop\n        /* \"#utility.yul\":5145:5330   */\n      swap3\n      swap2\n      pop\n      pop\n      jump\t// out\n\n    auxdata: 0xa2646970667358221220178935f0264117325eb65d22c9874d68a6e992c7c3ce13895e11d9fe091c259264736f6c63430008120033\n}\n",
				"bytecode": {
					"linkReferences": {},
					"object": "608060405234801561001057600080fd5b506040516105c63803806105c6833981810160405281019061003291906100db565b806000806101000a81548173ffffffffffffffffffffffffffffffffffffffff021916908373ffffffffffffffffffffffffffffffffffffffff16021790555050610108565b600080fd5b600073ffffffffffffffffffffffffffffffffffffffff82169050919050565b60006100a88261007d565b9050919050565b6100b88161009d565b81146100c357600080fd5b50565b6000815190506100d5816100af565b92915050565b6000602082840312156100f1576100f0610078565b5b60006100ff848285016100c6565b91505092915050565b6104af806101176000396000f3fe608060405234801561001057600080fd5b50600436106100365760003560e01c8063741bef1a1461003b57806382366f5014610059575b600080fd5b610043610089565b60405161005091906101f3565b60405180910390f35b610073600480360381019061006e9190610249565b6100ad565b6040516100809190610285565b60405180910390f35b60008054906101000a900473ffffffffffffffffffffffffffffffffffffffff1681565b60008060008054906101000a900473ffffffffffffffffffffffffffffffffffffffff1673ffffffffffffffffffffffffffffffffffffffff1663feaf968c6040518163ffffffff1660e01b815260040160a060405180830381865afa15801561011b573d6000803e3d6000fd5b505050506040513d601f19601f8201168201806040525081019061013f919061032d565b505050915050600081905060006305f5e100828661015d91906103d7565b6101679190610448565b9050809350505050919050565b600073ffffffffffffffffffffffffffffffffffffffff82169050919050565b6000819050919050565b60006101b96101b46101af84610174565b610194565b610174565b9050919050565b60006101cb8261019e565b9050919050565b60006101dd826101c0565b9050919050565b6101ed816101d2565b82525050565b600060208201905061020860008301846101e4565b92915050565b600080fd5b6000819050919050565b61022681610213565b811461023157600080fd5b50565b6000813590506102438161021d565b92915050565b60006020828403121561025f5761025e61020e565b5b600061026d84828501610234565b91505092915050565b61027f81610213565b82525050565b600060208201905061029a6000830184610276565b92915050565b600069ffffffffffffffffffff82169050919050565b6102bf816102a0565b81146102ca57600080fd5b50565b6000815190506102dc816102b6565b92915050565b6000819050919050565b6102f5816102e2565b811461030057600080fd5b50565b600081519050610312816102ec565b92915050565b6000815190506103278161021d565b92915050565b600080600080600060a086880312156103495761034861020e565b5b6000610357888289016102cd565b955050602061036888828901610303565b945050604061037988828901610318565b935050606061038a88828901610318565b925050608061039b888289016102cd565b9150509295509295909350565b7f4e487b7100000000000000000000000000000000000000000000000000000000600052601160045260246000fd5b60006103e282610213565b91506103ed83610213565b92508282026103fb81610213565b91508282048414831517610412576104116103a8565b5b5092915050565b7f4e487b7100000000000000000000000000000000000000000000000000000000600052601260045260246000fd5b600061045382610213565b915061045e83610213565b92508261046e5761046d610419565b5b82820490509291505056fea2646970667358221220178935f0264117325eb65d22c9874d68a6e992c7c3ce13895e11d9fe091c259264736f6c63430008120033",
					"opcodes": "PUSH1 0x80 PUSH1 0x40 MSTORE CALLVALUE DUP1 ISZERO PUSH2 0x10 JUMPI PUSH1 0x0 DUP1 REVERT JUMPDEST POP PUSH1 0x40 MLOAD PUSH2 0x5C6 CODESIZE SUB DUP1 PUSH2 0x5C6 DUP4 CODECOPY DUP2 DUP2 ADD PUSH1 0x40 MSTORE DUP2 ADD SWAP1 PUSH2 0x32 SWAP2 SWAP1 PUSH2 0xDB JUMP JUMPDEST DUP1 PUSH1 0x0 DUP1 PUSH2 0x100 EXP DUP2 SLOAD DUP2 PUSH20 0xFFFFFFFFFFFFFFFFFFFFFFFFFFFFFFFFFFFFFFFF MUL NOT AND SWAP1 DUP4 PUSH20 0xFFFFFFFFFFFFFFFFFFFFFFFFFFFFFFFFFFFFFFFF AND MUL OR SWAP1 SSTORE POP POP PUSH2 0x108 JUMP JUMPDEST PUSH1 0x0 DUP1 REVERT JUMPDEST PUSH1 0x0 PUSH20 0xFFFFFFFFFFFFFFFFFFFFFFFFFFFFFFFFFFFFFFFF DUP3 AND SWAP1 POP SWAP2 SWAP1 POP JUMP JUMPDEST PUSH1 0x0 PUSH2 0xA8 DUP3 PUSH2 0x7D JUMP JUMPDEST SWAP1 POP SWAP2 SWAP1 POP JUMP JUMPDEST PUSH2 0xB8 DUP2 PUSH2 0x9D JUMP JUMPDEST DUP2 EQ PUSH2 0xC3 JUMPI PUSH1 0x0 DUP1 REVERT JUMPDEST POP JUMP JUMPDEST PUSH1 0x0 DUP2 MLOAD SWAP1 POP PUSH2 0xD5 DUP2 PUSH2 0xAF JUMP JUMPDEST SWAP3 SWAP2 POP POP JUMP JUMPDEST PUSH1 0x0 PUSH1 0x20 DUP3 DUP5 SUB SLT ISZERO PUSH2 0xF1 JUMPI PUSH2 0xF0 PUSH2 0x78 JUMP JUMPDEST JUMPDEST PUSH1 0x0 PUSH2 0xFF DUP5 DUP3 DUP6 ADD PUSH2 0xC6 JUMP JUMPDEST SWAP2 POP POP SWAP3 SWAP2 POP POP JUMP JUMPDEST PUSH2 0x4AF DUP1 PUSH2 0x117 PUSH1 0x0 CODECOPY PUSH1 0x0 RETURN INVALID PUSH1 0x80 PUSH1 0x40 MSTORE CALLVALUE DUP1 ISZERO PUSH2 0x10 JUMPI PUSH1 0x0 DUP1 REVERT JUMPDEST POP PUSH1 0x4 CALLDATASIZE LT PUSH2 0x36 JUMPI PUSH1 0x0 CALLDATALOAD PUSH1 0xE0 SHR DUP1 PUSH4 0x741BEF1A EQ PUSH2 0x3B JUMPI DUP1 PUSH4 0x82366F50 EQ PUSH2 0x59 JUMPI JUMPDEST PUSH1 0x0 DUP1 REVERT JUMPDEST PUSH2 0x43 PUSH2 0x89 JUMP JUMPDEST PUSH1 0x40 MLOAD PUSH2 0x50 SWAP2 SWAP1 PUSH2 0x1F3 JUMP JUMPDEST PUSH1 0x40 MLOAD DUP1 SWAP2 SUB SWAP1 RETURN JUMPDEST PUSH2 0x73 PUSH1 0x4 DUP1 CALLDATASIZE SUB DUP2 ADD SWAP1 PUSH2 0x6E SWAP2 SWAP1 PUSH2 0x249 JUMP JUMPDEST PUSH2 0xAD JUMP JUMPDEST PUSH1 0x40 MLOAD PUSH2 0x80 SWAP2 SWAP1 PUSH2 0x285 JUMP JUMPDEST PUSH1 0x40 MLOAD DUP1 SWAP2 SUB SWAP1 RETURN JUMPDEST PUSH1 0x0 DUP1 SLOAD SWAP1 PUSH2 0x100 EXP SWAP1 DIV PUSH20 0xFFFFFFFFFFFFFFFFFFFFFFFFFFFFFFFFFFFFFFFF AND DUP2 JUMP JUMPDEST PUSH1 0x0 DUP1 PUSH1 0x0 DUP1 SLOAD SWAP1 PUSH2 0x100 EXP SWAP1 DIV PUSH20 0xFFFFFFFFFFFFFFFFFFFFFFFFFFFFFFFFFFFFFFFF AND PUSH20 0xFFFFFFFFFFFFFFFFFFFFFFFFFFFFFFFFFFFFFFFF AND PUSH4 0xFEAF968C PUSH1 0x40 MLOAD DUP2 PUSH4 0xFFFFFFFF AND PUSH1 0xE0 SHL DUP2 MSTORE PUSH1 0x4 ADD PUSH1 0xA0 PUSH1 0x40 MLOAD DUP1 DUP4 SUB DUP2 DUP7 GAS STATICCALL ISZERO DUP1 ISZERO PUSH2 0x11B JUMPI RETURNDATASIZE PUSH1 0x0 DUP1 RETURNDATACOPY RETURNDATASIZE PUSH1 0x0 REVERT JUMPDEST POP POP POP POP PUSH1 0x40 MLOAD RETURNDATASIZE PUSH1 0x1F NOT PUSH1 0x1F DUP3 ADD AND DUP3 ADD DUP1 PUSH1 0x40 MSTORE POP DUP2 ADD SWAP1 PUSH2 0x13F SWAP2 SWAP1 PUSH2 0x32D JUMP JUMPDEST POP POP POP SWAP2 POP POP PUSH1 0x0 DUP2 SWAP1 POP PUSH1 0x0 PUSH4 0x5F5E100 DUP3 DUP7 PUSH2 0x15D SWAP2 SWAP1 PUSH2 0x3D7 JUMP JUMPDEST PUSH2 0x167 SWAP2 SWAP1 PUSH2 0x448 JUMP JUMPDEST SWAP1 POP DUP1 SWAP4 POP POP POP POP SWAP2 SWAP1 POP JUMP JUMPDEST PUSH1 0x0 PUSH20 0xFFFFFFFFFFFFFFFFFFFFFFFFFFFFFFFFFFFFFFFF DUP3 AND SWAP1 POP SWAP2 SWAP1 POP JUMP JUMPDEST PUSH1 0x0 DUP2 SWAP1 POP SWAP2 SWAP1 POP JUMP JUMPDEST PUSH1 0x0 PUSH2 0x1B9 PUSH2 0x1B4 PUSH2 0x1AF DUP5 PUSH2 0x174 JUMP JUMPDEST PUSH2 0x194 JUMP JUMPDEST PUSH2 0x174 JUMP JUMPDEST SWAP1 POP SWAP2 SWAP1 POP JUMP JUMPDEST PUSH1 0x0 PUSH2 0x1CB DUP3 PUSH2 0x19E JUMP JUMPDEST SWAP1 POP SWAP2 SWAP1 POP JUMP JUMPDEST PUSH1 0x0 PUSH2 0x1DD DUP3 PUSH2 0x1C0 JUMP JUMPDEST SWAP1 POP SWAP2 SWAP1 POP JUMP JUMPDEST PUSH2 0x1ED DUP2 PUSH2 0x1D2 JUMP JUMPDEST DUP3 MSTORE POP POP JUMP JUMPDEST PUSH1 0x0 PUSH1 0x20 DUP3 ADD SWAP1 POP PUSH2 0x208 PUSH1 0x0 DUP4 ADD DUP5 PUSH2 0x1E4 JUMP JUMPDEST SWAP3 SWAP2 POP POP JUMP JUMPDEST PUSH1 0x0 DUP1 REVERT JUMPDEST PUSH1 0x0 DUP2 SWAP1 POP SWAP2 SWAP1 POP JUMP JUMPDEST PUSH2 0x226 DUP2 PUSH2 0x213 JUMP JUMPDEST DUP2 EQ PUSH2 0x231 JUMPI PUSH1 0x0 DUP1 REVERT JUMPDEST POP JUMP JUMPDEST PUSH1 0x0 DUP2 CALLDATALOAD SWAP1 POP PUSH2 0x243 DUP2 PUSH2 0x21D JUMP JUMPDEST SWAP3 SWAP2 POP POP JUMP JUMPDEST PUSH1 0x0 PUSH1 0x20 DUP3 DUP5 SUB SLT ISZERO PUSH2 0x25F JUMPI PUSH2 0x25E PUSH2 0x20E JUMP JUMPDEST JUMPDEST PUSH1 0x0 PUSH2 0x26D DUP5 DUP3 DUP6 ADD PUSH2 0x234 JUMP JUMPDEST SWAP2 POP POP SWAP3 SWAP2 POP POP JUMP JUMPDEST PUSH2 0x27F DUP2 PUSH2 0x213 JUMP JUMPDEST DUP3 MSTORE POP POP JUMP JUMPDEST PUSH1 0x0 PUSH1 0x20 DUP3 ADD SWAP1 POP PUSH2 0x29A PUSH1 0x0 DUP4 ADD DUP5 PUSH2 0x276 JUMP JUMPDEST SWAP3 SWAP2 POP POP JUMP JUMPDEST PUSH1 0x0 PUSH10 0xFFFFFFFFFFFFFFFFFFFF DUP3 AND SWAP1 POP SWAP2 SWAP1 POP JUMP JUMPDEST PUSH2 0x2BF DUP2 PUSH2 0x2A0 JUMP JUMPDEST DUP2 EQ PUSH2 0x2CA JUMPI PUSH1 0x0 DUP1 REVERT JUMPDEST POP JUMP JUMPDEST PUSH1 0x0 DUP2 MLOAD SWAP1 POP PUSH2 0x2DC DUP2 PUSH2 0x2B6 JUMP JUMPDEST SWAP3 SWAP2 POP POP JUMP JUMPDEST PUSH1 0x0 DUP2 SWAP1 POP SWAP2 SWAP1 POP JUMP JUMPDEST PUSH2 0x2F5 DUP2 PUSH2 0x2E2 JUMP JUMPDEST DUP2 EQ PUSH2 0x300 JUMPI PUSH1 0x0 DUP1 REVERT JUMPDEST POP JUMP JUMPDEST PUSH1 0x0 DUP2 MLOAD SWAP1 POP PUSH2 0x312 DUP2 PUSH2 0x2EC JUMP JUMPDEST SWAP3 SWAP2 POP POP JUMP JUMPDEST PUSH1 0x0 DUP2 MLOAD SWAP1 POP PUSH2 0x327 DUP2 PUSH2 0x21D JUMP JUMPDEST SWAP3 SWAP2 POP POP JUMP JUMPDEST PUSH1 0x0 DUP1 PUSH1 0x0 DUP1 PUSH1 0x0 PUSH1 0xA0 DUP7 DUP9 SUB SLT ISZERO PUSH2 0x349 JUMPI PUSH2 0x348 PUSH2 0x20E JUMP JUMPDEST JUMPDEST PUSH1 0x0 PUSH2 0x357 DUP9 DUP3 DUP10 ADD PUSH2 0x2CD JUMP JUMPDEST SWAP6 POP POP PUSH1 0x20 PUSH2 0x368 DUP9 DUP3 DUP10 ADD PUSH2 0x303 JUMP JUMPDEST SWAP5 POP POP PUSH1 0x40 PUSH2 0x379 DUP9 DUP3 DUP10 ADD PUSH2 0x318 JUMP JUMPDEST SWAP4 POP POP PUSH1 0x60 PUSH2 0x38A DUP9 DUP3 DUP10 ADD PUSH2 0x318 JUMP JUMPDEST SWAP3 POP POP PUSH1 0x80 PUSH2 0x39B DUP9 DUP3 DUP10 ADD PUSH2 0x2CD JUMP JUMPDEST SWAP2 POP POP SWAP3 SWAP6 POP SWAP3 SWAP6 SWAP1 SWAP4 POP JUMP JUMPDEST PUSH32 0x4E487B7100000000000000000000000000000000000000000000000000000000 PUSH1 0x0 MSTORE PUSH1 0x11 PUSH1 0x4 MSTORE PUSH1 0x24 PUSH1 0x0 REVERT JUMPDEST PUSH1 0x0 PUSH2 0x3E2 DUP3 PUSH2 0x213 JUMP JUMPDEST SWAP2 POP PUSH2 0x3ED DUP4 PUSH2 0x213 JUMP JUMPDEST SWAP3 POP DUP3 DUP3 MUL PUSH2 0x3FB DUP2 PUSH2 0x213 JUMP JUMPDEST SWAP2 POP DUP3 DUP3 DIV DUP5 EQ DUP4 ISZERO OR PUSH2 0x412 JUMPI PUSH2 0x411 PUSH2 0x3A8 JUMP JUMPDEST JUMPDEST POP SWAP3 SWAP2 POP POP JUMP JUMPDEST PUSH32 0x4E487B7100000000000000000000000000000000000000000000000000000000 PUSH1 0x0 MSTORE PUSH1 0x12 PUSH1 0x4 MSTORE PUSH1 0x24 PUSH1 0x0 REVERT JUMPDEST PUSH1 0x0 PUSH2 0x453 DUP3 PUSH2 0x213 JUMP JUMPDEST SWAP2 POP PUSH2 0x45E DUP4 PUSH2 0x213 JUMP JUMPDEST SWAP3 POP DUP3 PUSH2 0x46E JUMPI PUSH2 0x46D PUSH2 0x419 JUMP JUMPDEST JUMPDEST DUP3 DUP3 DIV SWAP1 POP SWAP3 SWAP2 POP POP JUMP INVALID LOG2 PUSH5 0x6970667358 0x22 SLT KECCAK256 OR DUP10 CALLDATALOAD CREATE 0x26 COINBASE OR ORIGIN 0x5E 0xB6 0x5D 0x22 0xC9 DUP8 0x4D PUSH9 0xA6E992C7C3CE13895E GT 0xD9 INVALID MULMOD SHR 0x25 SWAP3 PUSH5 0x736F6C6343 STOP ADDMOD SLT STOP CALLER "
				},
				"gasEstimates": {
					"creation": {
						"codeDepositCost": "239800",
						"executionCost": "infinite",
						"totalCost": "infinite"
					},
					"external": {
						"ConvertWeiToDollar(uint256)": "infinite",
						"priceFeed()": "infinite"
					}
				},
				"methodIdentifiers": {
					"ConvertWeiToDollar(uint256)": "82366f50",
					"priceFeed()": "741bef1a"
				}
			},
			"storageLayout": {
				"storage": [
					{
						"astId": 51,
						"contract": "contracts/priceConversion.sol:WeiToDollarConverter",
						"label": "priceFeed",
						"offset": 0,
						"slot": "0",
						"type": "t_contract(AggregatorV3Interface)45"
					}
				],
				"types": {
					"t_contract(AggregatorV3Interface)45": {
						"encoding": "inplace",
						"label": "contract AggregatorV3Interface",
						"numberOfBytes": "20"
					}
				}
			},
			"userdoc": {
				"kind": "user",
				"methods": {},
				"version": 1
			}
		}
	}
}