{
	"contracts/MSWallet.sol": {
		"MultiSignatureWallet": {
			"abi": [
				{
					"inputs": [
						{
							"internalType": "address[]",
							"name": "_owners",
							"type": "address[]"
						},
						{
							"internalType": "uint256",
							"name": "_requiredSignatures",
							"type": "uint256"
						}
					],
					"stateMutability": "nonpayable",
					"type": "constructor"
				},
				{
					"anonymous": false,
					"inputs": [
						{
							"indexed": false,
							"internalType": "address",
							"name": "sender",
							"type": "address"
						},
						{
							"indexed": false,
							"internalType": "uint256",
							"name": "amount",
							"type": "uint256"
						}
					],
					"name": "Deposit",
					"type": "event"
				},
				{
					"anonymous": false,
					"inputs": [
						{
							"indexed": true,
							"internalType": "uint256",
							"name": "transactionId",
							"type": "uint256"
						},
						{
							"indexed": true,
							"internalType": "address",
							"name": "sender",
							"type": "address"
						},
						{
							"indexed": false,
							"internalType": "address[]",
							"name": "signers",
							"type": "address[]"
						},
						{
							"indexed": false,
							"internalType": "uint256[]",
							"name": "amounts",
							"type": "uint256[]"
						},
						{
							"indexed": false,
							"internalType": "address",
							"name": "recipient",
							"type": "address"
						}
					],
					"name": "TransactionCreated",
					"type": "event"
				},
				{
					"anonymous": false,
					"inputs": [
						{
							"indexed": true,
							"internalType": "uint256",
							"name": "transactionId",
							"type": "uint256"
						},
						{
							"indexed": true,
							"internalType": "address",
							"name": "executor",
							"type": "address"
						}
					],
					"name": "TransactionExecuted",
					"type": "event"
				},
				{
					"stateMutability": "payable",
					"type": "fallback"
				},
				{
					"inputs": [
						{
							"internalType": "address[]",
							"name": "_signers",
							"type": "address[]"
						},
						{
							"internalType": "uint256[]",
							"name": "_amounts",
							"type": "uint256[]"
						},
						{
							"internalType": "address",
							"name": "_recipient",
							"type": "address"
						}
					],
					"name": "createTransaction",
					"outputs": [],
					"stateMutability": "nonpayable",
					"type": "function"
				},
				{
					"inputs": [],
					"name": "deposit",
					"outputs": [],
					"stateMutability": "payable",
					"type": "function"
				},
				{
					"inputs": [
						{
							"internalType": "uint256",
							"name": "_transactionId",
							"type": "uint256"
						}
					],
					"name": "executeTransaction",
					"outputs": [],
					"stateMutability": "payable",
					"type": "function"
				},
				{
					"inputs": [
						{
							"internalType": "uint256",
							"name": "_transactionId",
							"type": "uint256"
						}
					],
					"name": "getTransactionAmount",
					"outputs": [
						{
							"internalType": "uint256",
							"name": "",
							"type": "uint256"
						}
					],
					"stateMutability": "view",
					"type": "function"
				},
				{
					"inputs": [
						{
							"internalType": "uint256",
							"name": "_transactionId",
							"type": "uint256"
						}
					],
					"name": "getTransactionRecipient",
					"outputs": [
						{
							"internalType": "address",
							"name": "",
							"type": "address"
						}
					],
					"stateMutability": "pure",
					"type": "function"
				},
				{
					"inputs": [
						{
							"internalType": "uint256",
							"name": "",
							"type": "uint256"
						},
						{
							"internalType": "address",
							"name": "",
							"type": "address"
						}
					],
					"name": "isApproved",
					"outputs": [
						{
							"internalType": "bool",
							"name": "",
							"type": "bool"
						}
					],
					"stateMutability": "view",
					"type": "function"
				},
				{
					"inputs": [
						{
							"internalType": "address",
							"name": "",
							"type": "address"
						}
					],
					"name": "isOwner",
					"outputs": [
						{
							"internalType": "bool",
							"name": "",
							"type": "bool"
						}
					],
					"stateMutability": "view",
					"type": "function"
				},
				{
					"inputs": [
						{
							"internalType": "uint256",
							"name": "_transactionId",
							"type": "uint256"
						}
					],
					"name": "isTransactionApproved",
					"outputs": [
						{
							"internalType": "bool",
							"name": "",
							"type": "bool"
						}
					],
					"stateMutability": "view",
					"type": "function"
				},
				{
					"inputs": [
						{
							"internalType": "uint256",
							"name": "",
							"type": "uint256"
						}
					],
					"name": "isTransactionExecuted",
					"outputs": [
						{
							"internalType": "bool",
							"name": "",
							"type": "bool"
						}
					],
					"stateMutability": "view",
					"type": "function"
				},
				{
					"inputs": [
						{
							"internalType": "uint256",
							"name": "",
							"type": "uint256"
						}
					],
					"name": "owners",
					"outputs": [
						{
							"internalType": "address",
							"name": "",
							"type": "address"
						}
					],
					"stateMutability": "view",
					"type": "function"
				},
				{
					"inputs": [],
					"name": "requiredSignatures",
					"outputs": [
						{
							"internalType": "uint256",
							"name": "",
							"type": "uint256"
						}
					],
					"stateMutability": "view",
					"type": "function"
				},
				{
					"inputs": [
						{
							"internalType": "uint256",
							"name": "",
							"type": "uint256"
						}
					],
					"name": "transactionAmounts",
					"outputs": [
						{
							"internalType": "uint256",
							"name": "",
							"type": "uint256"
						}
					],
					"stateMutability": "view",
					"type": "function"
				},
				{
					"stateMutability": "payable",
					"type": "receive"
				}
			],
			"devdoc": {
				"kind": "dev",
				"methods": {},
				"version": 1
			},
			"evm": {
				"assembly": "    /* \"contracts/MSWallet.sol\":58:4095  contract MultiSignatureWallet {... */\n  mstore(0x40, 0x80)\n    /* \"contracts/MSWallet.sol\":831:1433  constructor (address[] memory _owners, uint256 _requiredSignatures) {... */\n  callvalue\n  dup1\n  iszero\n  tag_1\n  jumpi\n  0x00\n  dup1\n  revert\ntag_1:\n  pop\n  mload(0x40)\n  sub(codesize, bytecodeSize)\n  dup1\n  bytecodeSize\n  dup4\n  codecopy\n  dup2\n  dup2\n  add\n  0x40\n  mstore\n  dup2\n  add\n  swap1\n  tag_2\n  swap2\n  swap1\n  tag_3\n  jump\t// in\ntag_2:\n    /* \"contracts/MSWallet.sol\":934:935  0 */\n  0x00\n    /* \"contracts/MSWallet.sol\":917:924  _owners */\n  dup3\n    /* \"contracts/MSWallet.sol\":917:931  _owners.length */\n  mload\n    /* \"contracts/MSWallet.sol\":917:935  _owners.length > 0 */\n  gt\n    /* \"contracts/MSWallet.sol\":909:956  require(_owners.length > 0 ,\" Owners required\") */\n  tag_6\n  jumpi\n  mload(0x40)\n  0x08c379a000000000000000000000000000000000000000000000000000000000\n  dup2\n  mstore\n  0x04\n  add\n  tag_7\n  swap1\n  tag_8\n  jump\t// in\ntag_7:\n  mload(0x40)\n  dup1\n  swap2\n  sub\n  swap1\n  revert\ntag_6:\n    /* \"contracts/MSWallet.sol\":996:997  0 */\n  0x00\n    /* \"contracts/MSWallet.sol\":974:993  _requiredSignatures */\n  dup2\n    /* \"contracts/MSWallet.sol\":974:997  _requiredSignatures > 0 */\n  gt\n    /* \"contracts/MSWallet.sol\":974:1038  _requiredSignatures > 0 && _requiredSignatures <= _owners.length */\n  dup1\n  iszero\n  tag_9\n  jumpi\n  pop\n    /* \"contracts/MSWallet.sol\":1024:1031  _owners */\n  dup2\n    /* \"contracts/MSWallet.sol\":1024:1038  _owners.length */\n  mload\n    /* \"contracts/MSWallet.sol\":1001:1020  _requiredSignatures */\n  dup2\n    /* \"contracts/MSWallet.sol\":1001:1038  _requiredSignatures <= _owners.length */\n  gt\n  iszero\n    /* \"contracts/MSWallet.sol\":974:1038  _requiredSignatures > 0 && _requiredSignatures <= _owners.length */\ntag_9:\n    /* \"contracts/MSWallet.sol\":966:1070  require(_requiredSignatures > 0 && _requiredSignatures <= _owners.length, \"Invalid required signatures\") */\n  tag_10\n  jumpi\n  mload(0x40)\n  0x08c379a000000000000000000000000000000000000000000000000000000000\n  dup2\n  mstore\n  0x04\n  add\n  tag_11\n  swap1\n  tag_12\n  jump\t// in\ntag_11:\n  mload(0x40)\n  dup1\n  swap2\n  sub\n  swap1\n  revert\ntag_10:\n    /* \"contracts/MSWallet.sol\":1086:1095  uint256 i */\n  0x00\n    /* \"contracts/MSWallet.sol\":1081:1376  for (uint256 i = 0; i < _owners.length; i++){... */\ntag_13:\n    /* \"contracts/MSWallet.sol\":1105:1112  _owners */\n  dup3\n    /* \"contracts/MSWallet.sol\":1105:1119  _owners.length */\n  mload\n    /* \"contracts/MSWallet.sol\":1101:1102  i */\n  dup2\n    /* \"contracts/MSWallet.sol\":1101:1119  i < _owners.length */\n  lt\n    /* \"contracts/MSWallet.sol\":1081:1376  for (uint256 i = 0; i < _owners.length; i++){... */\n  iszero\n  tag_14\n  jumpi\n    /* \"contracts/MSWallet.sol\":1139:1152  address owner */\n  0x00\n    /* \"contracts/MSWallet.sol\":1155:1162  _owners */\n  dup4\n    /* \"contracts/MSWallet.sol\":1163:1164  i */\n  dup3\n    /* \"contracts/MSWallet.sol\":1155:1165  _owners[i] */\n  dup2\n  mload\n  dup2\n  lt\n  tag_16\n  jumpi\n  tag_17\n  tag_18\n  jump\t// in\ntag_17:\ntag_16:\n  0x20\n  mul\n  0x20\n  add\n  add\n  mload\n    /* \"contracts/MSWallet.sol\":1139:1165  address owner = _owners[i] */\n  swap1\n  pop\n    /* \"contracts/MSWallet.sol\":1204:1205  0 */\n  0x00\n    /* \"contracts/MSWallet.sol\":1187:1206  owner != address(0) */\n  0xffffffffffffffffffffffffffffffffffffffff\n  and\n    /* \"contracts/MSWallet.sol\":1187:1192  owner */\n  dup2\n    /* \"contracts/MSWallet.sol\":1187:1206  owner != address(0) */\n  0xffffffffffffffffffffffffffffffffffffffff\n  and\n  sub\n    /* \"contracts/MSWallet.sol\":1179:1232  require(owner != address(0), \"Invalid owner address\") */\n  tag_19\n  jumpi\n  mload(0x40)\n  0x08c379a000000000000000000000000000000000000000000000000000000000\n  dup2\n  mstore\n  0x04\n  add\n  tag_20\n  swap1\n  tag_21\n  jump\t// in\ntag_20:\n  mload(0x40)\n  dup1\n  swap2\n  sub\n  swap1\n  revert\ntag_19:\n    /* \"contracts/MSWallet.sol\":1255:1262  isOwner */\n  0x01\n    /* \"contracts/MSWallet.sol\":1255:1269  isOwner[owner] */\n  0x00\n    /* \"contracts/MSWallet.sol\":1263:1268  owner */\n  dup3\n    /* \"contracts/MSWallet.sol\":1255:1269  isOwner[owner] */\n  0xffffffffffffffffffffffffffffffffffffffff\n  and\n  0xffffffffffffffffffffffffffffffffffffffff\n  and\n  dup2\n  mstore\n  0x20\n  add\n  swap1\n  dup2\n  mstore\n  0x20\n  add\n  0x00\n  keccak256\n  0x00\n  swap1\n  sload\n  swap1\n  0x0100\n  exp\n  swap1\n  div\n  0xff\n  and\n    /* \"contracts/MSWallet.sol\":1254:1269  !isOwner[owner] */\n  iszero\n    /* \"contracts/MSWallet.sol\":1246:1297  require(!isOwner[owner], \"Duplicate owner address\") */\n  tag_22\n  jumpi\n  mload(0x40)\n  0x08c379a000000000000000000000000000000000000000000000000000000000\n  dup2\n  mstore\n  0x04\n  add\n  tag_23\n  swap1\n  tag_24\n  jump\t// in\ntag_23:\n  mload(0x40)\n  dup1\n  swap2\n  sub\n  swap1\n  revert\ntag_22:\n    /* \"contracts/MSWallet.sol\":1312:1318  owners */\n  0x00\n    /* \"contracts/MSWallet.sol\":1324:1329  owner */\n  dup2\n    /* \"contracts/MSWallet.sol\":1312:1330  owners.push(owner) */\n  swap1\n  dup1\n  0x01\n  dup2\n  sload\n  add\n  dup1\n  dup3\n  sstore\n  dup1\n  swap2\n  pop\n  pop\n  0x01\n  swap1\n  sub\n  swap1\n  0x00\n  mstore\n  keccak256(0x00, 0x20)\n  add\n  0x00\n  swap1\n  swap2\n  swap1\n  swap2\n  swap1\n  swap2\n  0x0100\n  exp\n  dup2\n  sload\n  dup2\n  0xffffffffffffffffffffffffffffffffffffffff\n  mul\n  not\n  and\n  swap1\n  dup4\n  0xffffffffffffffffffffffffffffffffffffffff\n  and\n  mul\n  or\n  swap1\n  sstore\n  pop\n    /* \"contracts/MSWallet.sol\":1361:1365  true */\n  0x01\n    /* \"contracts/MSWallet.sol\":1344:1351  isOwner */\n  dup1\n    /* \"contracts/MSWallet.sol\":1344:1358  isOwner[owner] */\n  0x00\n    /* \"contracts/MSWallet.sol\":1352:1357  owner */\n  dup4\n    /* \"contracts/MSWallet.sol\":1344:1358  isOwner[owner] */\n  0xffffffffffffffffffffffffffffffffffffffff\n  and\n  0xffffffffffffffffffffffffffffffffffffffff\n  and\n  dup2\n  mstore\n  0x20\n  add\n  swap1\n  dup2\n  mstore\n  0x20\n  add\n  0x00\n  keccak256\n  0x00\n    /* \"contracts/MSWallet.sol\":1344:1365  isOwner[owner] = true */\n  0x0100\n  exp\n  dup2\n  sload\n  dup2\n  0xff\n  mul\n  not\n  and\n  swap1\n  dup4\n  iszero\n  iszero\n  mul\n  or\n  swap1\n  sstore\n  pop\n    /* \"contracts/MSWallet.sol\":1125:1376  {... */\n  pop\n    /* \"contracts/MSWallet.sol\":1121:1124  i++ */\n  dup1\n  dup1\n  tag_26\n  swap1\n  tag_27\n  jump\t// in\ntag_26:\n  swap2\n  pop\n  pop\n    /* \"contracts/MSWallet.sol\":1081:1376  for (uint256 i = 0; i < _owners.length; i++){... */\n  jump(tag_13)\ntag_14:\n  pop\n    /* \"contracts/MSWallet.sol\":1407:1426  _requiredSignatures */\n  dup1\n    /* \"contracts/MSWallet.sol\":1386:1404  requiredSignatures */\n  0x02\n    /* \"contracts/MSWallet.sol\":1386:1426  requiredSignatures = _requiredSignatures */\n  dup2\n  swap1\n  sstore\n  pop\n    /* \"contracts/MSWallet.sol\":831:1433  constructor (address[] memory _owners, uint256 _requiredSignatures) {... */\n  pop\n  pop\n    /* \"contracts/MSWallet.sol\":58:4095  contract MultiSignatureWallet {... */\n  jump(tag_28)\n    /* \"#utility.yul\":7:82   */\ntag_29:\n    /* \"#utility.yul\":40:46   */\n  0x00\n    /* \"#utility.yul\":73:75   */\n  0x40\n    /* \"#utility.yul\":67:76   */\n  mload\n    /* \"#utility.yul\":57:76   */\n  swap1\n  pop\n    /* \"#utility.yul\":7:82   */\n  swap1\n  jump\t// out\n    /* \"#utility.yul\":88:205   */\ntag_30:\n    /* \"#utility.yul\":197:198   */\n  0x00\n    /* \"#utility.yul\":194:195   */\n  dup1\n    /* \"#utility.yul\":187:199   */\n  revert\n    /* \"#utility.yul\":211:328   */\ntag_31:\n    /* \"#utility.yul\":320:321   */\n  0x00\n    /* \"#utility.yul\":317:318   */\n  dup1\n    /* \"#utility.yul\":310:322   */\n  revert\n    /* \"#utility.yul\":334:451   */\ntag_32:\n    /* \"#utility.yul\":443:444   */\n  0x00\n    /* \"#utility.yul\":440:441   */\n  dup1\n    /* \"#utility.yul\":433:445   */\n  revert\n    /* \"#utility.yul\":457:559   */\ntag_33:\n    /* \"#utility.yul\":498:504   */\n  0x00\n    /* \"#utility.yul\":549:551   */\n  0x1f\n    /* \"#utility.yul\":545:552   */\n  not\n    /* \"#utility.yul\":540:542   */\n  0x1f\n    /* \"#utility.yul\":533:538   */\n  dup4\n    /* \"#utility.yul\":529:543   */\n  add\n    /* \"#utility.yul\":525:553   */\n  and\n    /* \"#utility.yul\":515:553   */\n  swap1\n  pop\n    /* \"#utility.yul\":457:559   */\n  swap2\n  swap1\n  pop\n  jump\t// out\n    /* \"#utility.yul\":565:745   */\ntag_34:\n    /* \"#utility.yul\":613:690   */\n  0x4e487b7100000000000000000000000000000000000000000000000000000000\n    /* \"#utility.yul\":610:611   */\n  0x00\n    /* \"#utility.yul\":603:691   */\n  mstore\n    /* \"#utility.yul\":710:714   */\n  0x41\n    /* \"#utility.yul\":707:708   */\n  0x04\n    /* \"#utility.yul\":700:715   */\n  mstore\n    /* \"#utility.yul\":734:738   */\n  0x24\n    /* \"#utility.yul\":731:732   */\n  0x00\n    /* \"#utility.yul\":724:739   */\n  revert\n    /* \"#utility.yul\":751:1032   */\ntag_35:\n    /* \"#utility.yul\":834:861   */\n  tag_66\n    /* \"#utility.yul\":856:860   */\n  dup3\n    /* \"#utility.yul\":834:861   */\n  tag_33\n  jump\t// in\ntag_66:\n    /* \"#utility.yul\":826:832   */\n  dup2\n    /* \"#utility.yul\":822:862   */\n  add\n    /* \"#utility.yul\":964:970   */\n  dup2\n    /* \"#utility.yul\":952:962   */\n  dup2\n    /* \"#utility.yul\":949:971   */\n  lt\n    /* \"#utility.yul\":928:946   */\n  0xffffffffffffffff\n    /* \"#utility.yul\":916:926   */\n  dup3\n    /* \"#utility.yul\":913:947   */\n  gt\n    /* \"#utility.yul\":910:972   */\n  or\n    /* \"#utility.yul\":907:995   */\n  iszero\n  tag_67\n  jumpi\n    /* \"#utility.yul\":975:993   */\n  tag_68\n  tag_34\n  jump\t// in\ntag_68:\n    /* \"#utility.yul\":907:995   */\ntag_67:\n    /* \"#utility.yul\":1015:1025   */\n  dup1\n    /* \"#utility.yul\":1011:1013   */\n  0x40\n    /* \"#utility.yul\":1004:1026   */\n  mstore\n    /* \"#utility.yul\":794:1032   */\n  pop\n    /* \"#utility.yul\":751:1032   */\n  pop\n  pop\n  jump\t// out\n    /* \"#utility.yul\":1038:1167   */\ntag_36:\n    /* \"#utility.yul\":1072:1078   */\n  0x00\n    /* \"#utility.yul\":1099:1119   */\n  tag_70\n  tag_29\n  jump\t// in\ntag_70:\n    /* \"#utility.yul\":1089:1119   */\n  swap1\n  pop\n    /* \"#utility.yul\":1128:1161   */\n  tag_71\n    /* \"#utility.yul\":1156:1160   */\n  dup3\n    /* \"#utility.yul\":1148:1154   */\n  dup3\n    /* \"#utility.yul\":1128:1161   */\n  tag_35\n  jump\t// in\ntag_71:\n    /* \"#utility.yul\":1038:1167   */\n  swap2\n  swap1\n  pop\n  jump\t// out\n    /* \"#utility.yul\":1173:1484   */\ntag_37:\n    /* \"#utility.yul\":1250:1254   */\n  0x00\n    /* \"#utility.yul\":1340:1358   */\n  0xffffffffffffffff\n    /* \"#utility.yul\":1332:1338   */\n  dup3\n    /* \"#utility.yul\":1329:1359   */\n  gt\n    /* \"#utility.yul\":1326:1382   */\n  iszero\n  tag_73\n  jumpi\n    /* \"#utility.yul\":1362:1380   */\n  tag_74\n  tag_34\n  jump\t// in\ntag_74:\n    /* \"#utility.yul\":1326:1382   */\ntag_73:\n    /* \"#utility.yul\":1412:1416   */\n  0x20\n    /* \"#utility.yul\":1404:1410   */\n  dup3\n    /* \"#utility.yul\":1400:1417   */\n  mul\n    /* \"#utility.yul\":1392:1417   */\n  swap1\n  pop\n    /* \"#utility.yul\":1472:1476   */\n  0x20\n    /* \"#utility.yul\":1466:1470   */\n  dup2\n    /* \"#utility.yul\":1462:1477   */\n  add\n    /* \"#utility.yul\":1454:1477   */\n  swap1\n  pop\n    /* \"#utility.yul\":1173:1484   */\n  swap2\n  swap1\n  pop\n  jump\t// out\n    /* \"#utility.yul\":1490:1607   */\ntag_38:\n    /* \"#utility.yul\":1599:1600   */\n  0x00\n    /* \"#utility.yul\":1596:1597   */\n  dup1\n    /* \"#utility.yul\":1589:1601   */\n  revert\n    /* \"#utility.yul\":1613:1739   */\ntag_39:\n    /* \"#utility.yul\":1650:1657   */\n  0x00\n    /* \"#utility.yul\":1690:1732   */\n  0xffffffffffffffffffffffffffffffffffffffff\n    /* \"#utility.yul\":1683:1688   */\n  dup3\n    /* \"#utility.yul\":1679:1733   */\n  and\n    /* \"#utility.yul\":1668:1733   */\n  swap1\n  pop\n    /* \"#utility.yul\":1613:1739   */\n  swap2\n  swap1\n  pop\n  jump\t// out\n    /* \"#utility.yul\":1745:1841   */\ntag_40:\n    /* \"#utility.yul\":1782:1789   */\n  0x00\n    /* \"#utility.yul\":1811:1835   */\n  tag_78\n    /* \"#utility.yul\":1829:1834   */\n  dup3\n    /* \"#utility.yul\":1811:1835   */\n  tag_39\n  jump\t// in\ntag_78:\n    /* \"#utility.yul\":1800:1835   */\n  swap1\n  pop\n    /* \"#utility.yul\":1745:1841   */\n  swap2\n  swap1\n  pop\n  jump\t// out\n    /* \"#utility.yul\":1847:1969   */\ntag_41:\n    /* \"#utility.yul\":1920:1944   */\n  tag_80\n    /* \"#utility.yul\":1938:1943   */\n  dup2\n    /* \"#utility.yul\":1920:1944   */\n  tag_40\n  jump\t// in\ntag_80:\n    /* \"#utility.yul\":1913:1918   */\n  dup2\n    /* \"#utility.yul\":1910:1945   */\n  eq\n    /* \"#utility.yul\":1900:1963   */\n  tag_81\n  jumpi\n    /* \"#utility.yul\":1959:1960   */\n  0x00\n    /* \"#utility.yul\":1956:1957   */\n  dup1\n    /* \"#utility.yul\":1949:1961   */\n  revert\n    /* \"#utility.yul\":1900:1963   */\ntag_81:\n    /* \"#utility.yul\":1847:1969   */\n  pop\n  jump\t// out\n    /* \"#utility.yul\":1975:2118   */\ntag_42:\n    /* \"#utility.yul\":2032:2037   */\n  0x00\n    /* \"#utility.yul\":2063:2069   */\n  dup2\n    /* \"#utility.yul\":2057:2070   */\n  mload\n    /* \"#utility.yul\":2048:2070   */\n  swap1\n  pop\n    /* \"#utility.yul\":2079:2112   */\n  tag_83\n    /* \"#utility.yul\":2106:2111   */\n  dup2\n    /* \"#utility.yul\":2079:2112   */\n  tag_41\n  jump\t// in\ntag_83:\n    /* \"#utility.yul\":1975:2118   */\n  swap3\n  swap2\n  pop\n  pop\n  jump\t// out\n    /* \"#utility.yul\":2141:2873   */\ntag_43:\n    /* \"#utility.yul\":2248:2253   */\n  0x00\n    /* \"#utility.yul\":2273:2354   */\n  tag_85\n    /* \"#utility.yul\":2289:2353   */\n  tag_86\n    /* \"#utility.yul\":2346:2352   */\n  dup5\n    /* \"#utility.yul\":2289:2353   */\n  tag_37\n  jump\t// in\ntag_86:\n    /* \"#utility.yul\":2273:2354   */\n  tag_36\n  jump\t// in\ntag_85:\n    /* \"#utility.yul\":2264:2354   */\n  swap1\n  pop\n    /* \"#utility.yul\":2374:2379   */\n  dup1\n    /* \"#utility.yul\":2403:2409   */\n  dup4\n    /* \"#utility.yul\":2396:2401   */\n  dup3\n    /* \"#utility.yul\":2389:2410   */\n  mstore\n    /* \"#utility.yul\":2437:2441   */\n  0x20\n    /* \"#utility.yul\":2430:2435   */\n  dup3\n    /* \"#utility.yul\":2426:2442   */\n  add\n    /* \"#utility.yul\":2419:2442   */\n  swap1\n  pop\n    /* \"#utility.yul\":2490:2494   */\n  0x20\n    /* \"#utility.yul\":2482:2488   */\n  dup5\n    /* \"#utility.yul\":2478:2495   */\n  mul\n    /* \"#utility.yul\":2470:2476   */\n  dup4\n    /* \"#utility.yul\":2466:2496   */\n  add\n    /* \"#utility.yul\":2519:2522   */\n  dup6\n    /* \"#utility.yul\":2511:2517   */\n  dup2\n    /* \"#utility.yul\":2508:2523   */\n  gt\n    /* \"#utility.yul\":2505:2627   */\n  iszero\n  tag_87\n  jumpi\n    /* \"#utility.yul\":2538:2617   */\n  tag_88\n  tag_38\n  jump\t// in\ntag_88:\n    /* \"#utility.yul\":2505:2627   */\ntag_87:\n    /* \"#utility.yul\":2653:2659   */\n  dup4\n    /* \"#utility.yul\":2636:2867   */\ntag_89:\n    /* \"#utility.yul\":2670:2676   */\n  dup2\n    /* \"#utility.yul\":2665:2668   */\n  dup2\n    /* \"#utility.yul\":2662:2677   */\n  lt\n    /* \"#utility.yul\":2636:2867   */\n  iszero\n  tag_91\n  jumpi\n    /* \"#utility.yul\":2745:2748   */\n  dup1\n    /* \"#utility.yul\":2774:2822   */\n  tag_92\n    /* \"#utility.yul\":2818:2821   */\n  dup9\n    /* \"#utility.yul\":2806:2816   */\n  dup3\n    /* \"#utility.yul\":2774:2822   */\n  tag_42\n  jump\t// in\ntag_92:\n    /* \"#utility.yul\":2769:2772   */\n  dup5\n    /* \"#utility.yul\":2762:2823   */\n  mstore\n    /* \"#utility.yul\":2852:2856   */\n  0x20\n    /* \"#utility.yul\":2847:2850   */\n  dup5\n    /* \"#utility.yul\":2843:2857   */\n  add\n    /* \"#utility.yul\":2836:2857   */\n  swap4\n  pop\n    /* \"#utility.yul\":2712:2867   */\n  pop\n    /* \"#utility.yul\":2696:2700   */\n  0x20\n    /* \"#utility.yul\":2691:2694   */\n  dup2\n    /* \"#utility.yul\":2687:2701   */\n  add\n    /* \"#utility.yul\":2680:2701   */\n  swap1\n  pop\n    /* \"#utility.yul\":2636:2867   */\n  jump(tag_89)\ntag_91:\n    /* \"#utility.yul\":2640:2661   */\n  pop\n    /* \"#utility.yul\":2254:2873   */\n  pop\n  pop\n    /* \"#utility.yul\":2141:2873   */\n  swap4\n  swap3\n  pop\n  pop\n  pop\n  jump\t// out\n    /* \"#utility.yul\":2896:3281   */\ntag_44:\n    /* \"#utility.yul\":2978:2983   */\n  0x00\n    /* \"#utility.yul\":3027:3030   */\n  dup3\n    /* \"#utility.yul\":3020:3024   */\n  0x1f\n    /* \"#utility.yul\":3012:3018   */\n  dup4\n    /* \"#utility.yul\":3008:3025   */\n  add\n    /* \"#utility.yul\":3004:3031   */\n  slt\n    /* \"#utility.yul\":2994:3116   */\n  tag_94\n  jumpi\n    /* \"#utility.yul\":3035:3114   */\n  tag_95\n  tag_32\n  jump\t// in\ntag_95:\n    /* \"#utility.yul\":2994:3116   */\ntag_94:\n    /* \"#utility.yul\":3145:3151   */\n  dup2\n    /* \"#utility.yul\":3139:3152   */\n  mload\n    /* \"#utility.yul\":3170:3275   */\n  tag_96\n    /* \"#utility.yul\":3271:3274   */\n  dup5\n    /* \"#utility.yul\":3263:3269   */\n  dup3\n    /* \"#utility.yul\":3256:3260   */\n  0x20\n    /* \"#utility.yul\":3248:3254   */\n  dup7\n    /* \"#utility.yul\":3244:3261   */\n  add\n    /* \"#utility.yul\":3170:3275   */\n  tag_43\n  jump\t// in\ntag_96:\n    /* \"#utility.yul\":3161:3275   */\n  swap2\n  pop\n    /* \"#utility.yul\":2984:3281   */\n  pop\n    /* \"#utility.yul\":2896:3281   */\n  swap3\n  swap2\n  pop\n  pop\n  jump\t// out\n    /* \"#utility.yul\":3287:3364   */\ntag_45:\n    /* \"#utility.yul\":3324:3331   */\n  0x00\n    /* \"#utility.yul\":3353:3358   */\n  dup2\n    /* \"#utility.yul\":3342:3358   */\n  swap1\n  pop\n    /* \"#utility.yul\":3287:3364   */\n  swap2\n  swap1\n  pop\n  jump\t// out\n    /* \"#utility.yul\":3370:3492   */\ntag_46:\n    /* \"#utility.yul\":3443:3467   */\n  tag_99\n    /* \"#utility.yul\":3461:3466   */\n  dup2\n    /* \"#utility.yul\":3443:3467   */\n  tag_45\n  jump\t// in\ntag_99:\n    /* \"#utility.yul\":3436:3441   */\n  dup2\n    /* \"#utility.yul\":3433:3468   */\n  eq\n    /* \"#utility.yul\":3423:3486   */\n  tag_100\n  jumpi\n    /* \"#utility.yul\":3482:3483   */\n  0x00\n    /* \"#utility.yul\":3479:3480   */\n  dup1\n    /* \"#utility.yul\":3472:3484   */\n  revert\n    /* \"#utility.yul\":3423:3486   */\ntag_100:\n    /* \"#utility.yul\":3370:3492   */\n  pop\n  jump\t// out\n    /* \"#utility.yul\":3498:3641   */\ntag_47:\n    /* \"#utility.yul\":3555:3560   */\n  0x00\n    /* \"#utility.yul\":3586:3592   */\n  dup2\n    /* \"#utility.yul\":3580:3593   */\n  mload\n    /* \"#utility.yul\":3571:3593   */\n  swap1\n  pop\n    /* \"#utility.yul\":3602:3635   */\n  tag_102\n    /* \"#utility.yul\":3629:3634   */\n  dup2\n    /* \"#utility.yul\":3602:3635   */\n  tag_46\n  jump\t// in\ntag_102:\n    /* \"#utility.yul\":3498:3641   */\n  swap3\n  swap2\n  pop\n  pop\n  jump\t// out\n    /* \"#utility.yul\":3647:4357   */\ntag_3:\n    /* \"#utility.yul\":3751:3757   */\n  0x00\n    /* \"#utility.yul\":3759:3765   */\n  dup1\n    /* \"#utility.yul\":3808:3810   */\n  0x40\n    /* \"#utility.yul\":3796:3805   */\n  dup4\n    /* \"#utility.yul\":3787:3794   */\n  dup6\n    /* \"#utility.yul\":3783:3806   */\n  sub\n    /* \"#utility.yul\":3779:3811   */\n  slt\n    /* \"#utility.yul\":3776:3895   */\n  iszero\n  tag_104\n  jumpi\n    /* \"#utility.yul\":3814:3893   */\n  tag_105\n  tag_30\n  jump\t// in\ntag_105:\n    /* \"#utility.yul\":3776:3895   */\ntag_104:\n    /* \"#utility.yul\":3955:3956   */\n  0x00\n    /* \"#utility.yul\":3944:3953   */\n  dup4\n    /* \"#utility.yul\":3940:3957   */\n  add\n    /* \"#utility.yul\":3934:3958   */\n  mload\n    /* \"#utility.yul\":3985:4003   */\n  0xffffffffffffffff\n    /* \"#utility.yul\":3977:3983   */\n  dup2\n    /* \"#utility.yul\":3974:4004   */\n  gt\n    /* \"#utility.yul\":3971:4088   */\n  iszero\n  tag_106\n  jumpi\n    /* \"#utility.yul\":4007:4086   */\n  tag_107\n  tag_31\n  jump\t// in\ntag_107:\n    /* \"#utility.yul\":3971:4088   */\ntag_106:\n    /* \"#utility.yul\":4112:4201   */\n  tag_108\n    /* \"#utility.yul\":4193:4200   */\n  dup6\n    /* \"#utility.yul\":4184:4190   */\n  dup3\n    /* \"#utility.yul\":4173:4182   */\n  dup7\n    /* \"#utility.yul\":4169:4191   */\n  add\n    /* \"#utility.yul\":4112:4201   */\n  tag_44\n  jump\t// in\ntag_108:\n    /* \"#utility.yul\":4102:4201   */\n  swap3\n  pop\n    /* \"#utility.yul\":3905:4211   */\n  pop\n    /* \"#utility.yul\":4250:4252   */\n  0x20\n    /* \"#utility.yul\":4276:4340   */\n  tag_109\n    /* \"#utility.yul\":4332:4339   */\n  dup6\n    /* \"#utility.yul\":4323:4329   */\n  dup3\n    /* \"#utility.yul\":4312:4321   */\n  dup7\n    /* \"#utility.yul\":4308:4330   */\n  add\n    /* \"#utility.yul\":4276:4340   */\n  tag_47\n  jump\t// in\ntag_109:\n    /* \"#utility.yul\":4266:4340   */\n  swap2\n  pop\n    /* \"#utility.yul\":4221:4350   */\n  pop\n    /* \"#utility.yul\":3647:4357   */\n  swap3\n  pop\n  swap3\n  swap1\n  pop\n  jump\t// out\n    /* \"#utility.yul\":4363:4532   */\ntag_48:\n    /* \"#utility.yul\":4447:4458   */\n  0x00\n    /* \"#utility.yul\":4481:4487   */\n  dup3\n    /* \"#utility.yul\":4476:4479   */\n  dup3\n    /* \"#utility.yul\":4469:4488   */\n  mstore\n    /* \"#utility.yul\":4521:4525   */\n  0x20\n    /* \"#utility.yul\":4516:4519   */\n  dup3\n    /* \"#utility.yul\":4512:4526   */\n  add\n    /* \"#utility.yul\":4497:4526   */\n  swap1\n  pop\n    /* \"#utility.yul\":4363:4532   */\n  swap3\n  swap2\n  pop\n  pop\n  jump\t// out\n    /* \"#utility.yul\":4538:4704   */\ntag_49:\n    /* \"#utility.yul\":4678:4696   */\n  0x204f776e65727320726571756972656400000000000000000000000000000000\n    /* \"#utility.yul\":4674:4675   */\n  0x00\n    /* \"#utility.yul\":4666:4672   */\n  dup3\n    /* \"#utility.yul\":4662:4676   */\n  add\n    /* \"#utility.yul\":4655:4697   */\n  mstore\n    /* \"#utility.yul\":4538:4704   */\n  pop\n  jump\t// out\n    /* \"#utility.yul\":4710:5076   */\ntag_50:\n    /* \"#utility.yul\":4852:4855   */\n  0x00\n    /* \"#utility.yul\":4873:4940   */\n  tag_113\n    /* \"#utility.yul\":4937:4939   */\n  0x10\n    /* \"#utility.yul\":4932:4935   */\n  dup4\n    /* \"#utility.yul\":4873:4940   */\n  tag_48\n  jump\t// in\ntag_113:\n    /* \"#utility.yul\":4866:4940   */\n  swap2\n  pop\n    /* \"#utility.yul\":4949:5042   */\n  tag_114\n    /* \"#utility.yul\":5038:5041   */\n  dup3\n    /* \"#utility.yul\":4949:5042   */\n  tag_49\n  jump\t// in\ntag_114:\n    /* \"#utility.yul\":5067:5069   */\n  0x20\n    /* \"#utility.yul\":5062:5065   */\n  dup3\n    /* \"#utility.yul\":5058:5070   */\n  add\n    /* \"#utility.yul\":5051:5070   */\n  swap1\n  pop\n    /* \"#utility.yul\":4710:5076   */\n  swap2\n  swap1\n  pop\n  jump\t// out\n    /* \"#utility.yul\":5082:5501   */\ntag_8:\n    /* \"#utility.yul\":5248:5252   */\n  0x00\n    /* \"#utility.yul\":5286:5288   */\n  0x20\n    /* \"#utility.yul\":5275:5284   */\n  dup3\n    /* \"#utility.yul\":5271:5289   */\n  add\n    /* \"#utility.yul\":5263:5289   */\n  swap1\n  pop\n    /* \"#utility.yul\":5335:5344   */\n  dup2\n    /* \"#utility.yul\":5329:5333   */\n  dup2\n    /* \"#utility.yul\":5325:5345   */\n  sub\n    /* \"#utility.yul\":5321:5322   */\n  0x00\n    /* \"#utility.yul\":5310:5319   */\n  dup4\n    /* \"#utility.yul\":5306:5323   */\n  add\n    /* \"#utility.yul\":5299:5346   */\n  mstore\n    /* \"#utility.yul\":5363:5494   */\n  tag_116\n    /* \"#utility.yul\":5489:5493   */\n  dup2\n    /* \"#utility.yul\":5363:5494   */\n  tag_50\n  jump\t// in\ntag_116:\n    /* \"#utility.yul\":5355:5494   */\n  swap1\n  pop\n    /* \"#utility.yul\":5082:5501   */\n  swap2\n  swap1\n  pop\n  jump\t// out\n    /* \"#utility.yul\":5507:5684   */\ntag_51:\n    /* \"#utility.yul\":5647:5676   */\n  0x496e76616c6964207265717569726564207369676e6174757265730000000000\n    /* \"#utility.yul\":5643:5644   */\n  0x00\n    /* \"#utility.yul\":5635:5641   */\n  dup3\n    /* \"#utility.yul\":5631:5645   */\n  add\n    /* \"#utility.yul\":5624:5677   */\n  mstore\n    /* \"#utility.yul\":5507:5684   */\n  pop\n  jump\t// out\n    /* \"#utility.yul\":5690:6056   */\ntag_52:\n    /* \"#utility.yul\":5832:5835   */\n  0x00\n    /* \"#utility.yul\":5853:5920   */\n  tag_119\n    /* \"#utility.yul\":5917:5919   */\n  0x1b\n    /* \"#utility.yul\":5912:5915   */\n  dup4\n    /* \"#utility.yul\":5853:5920   */\n  tag_48\n  jump\t// in\ntag_119:\n    /* \"#utility.yul\":5846:5920   */\n  swap2\n  pop\n    /* \"#utility.yul\":5929:6022   */\n  tag_120\n    /* \"#utility.yul\":6018:6021   */\n  dup3\n    /* \"#utility.yul\":5929:6022   */\n  tag_51\n  jump\t// in\ntag_120:\n    /* \"#utility.yul\":6047:6049   */\n  0x20\n    /* \"#utility.yul\":6042:6045   */\n  dup3\n    /* \"#utility.yul\":6038:6050   */\n  add\n    /* \"#utility.yul\":6031:6050   */\n  swap1\n  pop\n    /* \"#utility.yul\":5690:6056   */\n  swap2\n  swap1\n  pop\n  jump\t// out\n    /* \"#utility.yul\":6062:6481   */\ntag_12:\n    /* \"#utility.yul\":6228:6232   */\n  0x00\n    /* \"#utility.yul\":6266:6268   */\n  0x20\n    /* \"#utility.yul\":6255:6264   */\n  dup3\n    /* \"#utility.yul\":6251:6269   */\n  add\n    /* \"#utility.yul\":6243:6269   */\n  swap1\n  pop\n    /* \"#utility.yul\":6315:6324   */\n  dup2\n    /* \"#utility.yul\":6309:6313   */\n  dup2\n    /* \"#utility.yul\":6305:6325   */\n  sub\n    /* \"#utility.yul\":6301:6302   */\n  0x00\n    /* \"#utility.yul\":6290:6299   */\n  dup4\n    /* \"#utility.yul\":6286:6303   */\n  add\n    /* \"#utility.yul\":6279:6326   */\n  mstore\n    /* \"#utility.yul\":6343:6474   */\n  tag_122\n    /* \"#utility.yul\":6469:6473   */\n  dup2\n    /* \"#utility.yul\":6343:6474   */\n  tag_52\n  jump\t// in\ntag_122:\n    /* \"#utility.yul\":6335:6474   */\n  swap1\n  pop\n    /* \"#utility.yul\":6062:6481   */\n  swap2\n  swap1\n  pop\n  jump\t// out\n    /* \"#utility.yul\":6487:6667   */\ntag_18:\n    /* \"#utility.yul\":6535:6612   */\n  0x4e487b7100000000000000000000000000000000000000000000000000000000\n    /* \"#utility.yul\":6532:6533   */\n  0x00\n    /* \"#utility.yul\":6525:6613   */\n  mstore\n    /* \"#utility.yul\":6632:6636   */\n  0x32\n    /* \"#utility.yul\":6629:6630   */\n  0x04\n    /* \"#utility.yul\":6622:6637   */\n  mstore\n    /* \"#utility.yul\":6656:6660   */\n  0x24\n    /* \"#utility.yul\":6653:6654   */\n  0x00\n    /* \"#utility.yul\":6646:6661   */\n  revert\n    /* \"#utility.yul\":6673:6844   */\ntag_53:\n    /* \"#utility.yul\":6813:6836   */\n  0x496e76616c6964206f776e657220616464726573730000000000000000000000\n    /* \"#utility.yul\":6809:6810   */\n  0x00\n    /* \"#utility.yul\":6801:6807   */\n  dup3\n    /* \"#utility.yul\":6797:6811   */\n  add\n    /* \"#utility.yul\":6790:6837   */\n  mstore\n    /* \"#utility.yul\":6673:6844   */\n  pop\n  jump\t// out\n    /* \"#utility.yul\":6850:7216   */\ntag_54:\n    /* \"#utility.yul\":6992:6995   */\n  0x00\n    /* \"#utility.yul\":7013:7080   */\n  tag_126\n    /* \"#utility.yul\":7077:7079   */\n  0x15\n    /* \"#utility.yul\":7072:7075   */\n  dup4\n    /* \"#utility.yul\":7013:7080   */\n  tag_48\n  jump\t// in\ntag_126:\n    /* \"#utility.yul\":7006:7080   */\n  swap2\n  pop\n    /* \"#utility.yul\":7089:7182   */\n  tag_127\n    /* \"#utility.yul\":7178:7181   */\n  dup3\n    /* \"#utility.yul\":7089:7182   */\n  tag_53\n  jump\t// in\ntag_127:\n    /* \"#utility.yul\":7207:7209   */\n  0x20\n    /* \"#utility.yul\":7202:7205   */\n  dup3\n    /* \"#utility.yul\":7198:7210   */\n  add\n    /* \"#utility.yul\":7191:7210   */\n  swap1\n  pop\n    /* \"#utility.yul\":6850:7216   */\n  swap2\n  swap1\n  pop\n  jump\t// out\n    /* \"#utility.yul\":7222:7641   */\ntag_21:\n    /* \"#utility.yul\":7388:7392   */\n  0x00\n    /* \"#utility.yul\":7426:7428   */\n  0x20\n    /* \"#utility.yul\":7415:7424   */\n  dup3\n    /* \"#utility.yul\":7411:7429   */\n  add\n    /* \"#utility.yul\":7403:7429   */\n  swap1\n  pop\n    /* \"#utility.yul\":7475:7484   */\n  dup2\n    /* \"#utility.yul\":7469:7473   */\n  dup2\n    /* \"#utility.yul\":7465:7485   */\n  sub\n    /* \"#utility.yul\":7461:7462   */\n  0x00\n    /* \"#utility.yul\":7450:7459   */\n  dup4\n    /* \"#utility.yul\":7446:7463   */\n  add\n    /* \"#utility.yul\":7439:7486   */\n  mstore\n    /* \"#utility.yul\":7503:7634   */\n  tag_129\n    /* \"#utility.yul\":7629:7633   */\n  dup2\n    /* \"#utility.yul\":7503:7634   */\n  tag_54\n  jump\t// in\ntag_129:\n    /* \"#utility.yul\":7495:7634   */\n  swap1\n  pop\n    /* \"#utility.yul\":7222:7641   */\n  swap2\n  swap1\n  pop\n  jump\t// out\n    /* \"#utility.yul\":7647:7820   */\ntag_55:\n    /* \"#utility.yul\":7787:7812   */\n  0x4475706c6963617465206f776e65722061646472657373000000000000000000\n    /* \"#utility.yul\":7783:7784   */\n  0x00\n    /* \"#utility.yul\":7775:7781   */\n  dup3\n    /* \"#utility.yul\":7771:7785   */\n  add\n    /* \"#utility.yul\":7764:7813   */\n  mstore\n    /* \"#utility.yul\":7647:7820   */\n  pop\n  jump\t// out\n    /* \"#utility.yul\":7826:8192   */\ntag_56:\n    /* \"#utility.yul\":7968:7971   */\n  0x00\n    /* \"#utility.yul\":7989:8056   */\n  tag_132\n    /* \"#utility.yul\":8053:8055   */\n  0x17\n    /* \"#utility.yul\":8048:8051   */\n  dup4\n    /* \"#utility.yul\":7989:8056   */\n  tag_48\n  jump\t// in\ntag_132:\n    /* \"#utility.yul\":7982:8056   */\n  swap2\n  pop\n    /* \"#utility.yul\":8065:8158   */\n  tag_133\n    /* \"#utility.yul\":8154:8157   */\n  dup3\n    /* \"#utility.yul\":8065:8158   */\n  tag_55\n  jump\t// in\ntag_133:\n    /* \"#utility.yul\":8183:8185   */\n  0x20\n    /* \"#utility.yul\":8178:8181   */\n  dup3\n    /* \"#utility.yul\":8174:8186   */\n  add\n    /* \"#utility.yul\":8167:8186   */\n  swap1\n  pop\n    /* \"#utility.yul\":7826:8192   */\n  swap2\n  swap1\n  pop\n  jump\t// out\n    /* \"#utility.yul\":8198:8617   */\ntag_24:\n    /* \"#utility.yul\":8364:8368   */\n  0x00\n    /* \"#utility.yul\":8402:8404   */\n  0x20\n    /* \"#utility.yul\":8391:8400   */\n  dup3\n    /* \"#utility.yul\":8387:8405   */\n  add\n    /* \"#utility.yul\":8379:8405   */\n  swap1\n  pop\n    /* \"#utility.yul\":8451:8460   */\n  dup2\n    /* \"#utility.yul\":8445:8449   */\n  dup2\n    /* \"#utility.yul\":8441:8461   */\n  sub\n    /* \"#utility.yul\":8437:8438   */\n  0x00\n    /* \"#utility.yul\":8426:8435   */\n  dup4\n    /* \"#utility.yul\":8422:8439   */\n  add\n    /* \"#utility.yul\":8415:8462   */\n  mstore\n    /* \"#utility.yul\":8479:8610   */\n  tag_135\n    /* \"#utility.yul\":8605:8609   */\n  dup2\n    /* \"#utility.yul\":8479:8610   */\n  tag_56\n  jump\t// in\ntag_135:\n    /* \"#utility.yul\":8471:8610   */\n  swap1\n  pop\n    /* \"#utility.yul\":8198:8617   */\n  swap2\n  swap1\n  pop\n  jump\t// out\n    /* \"#utility.yul\":8623:8803   */\ntag_57:\n    /* \"#utility.yul\":8671:8748   */\n  0x4e487b7100000000000000000000000000000000000000000000000000000000\n    /* \"#utility.yul\":8668:8669   */\n  0x00\n    /* \"#utility.yul\":8661:8749   */\n  mstore\n    /* \"#utility.yul\":8768:8772   */\n  0x11\n    /* \"#utility.yul\":8765:8766   */\n  0x04\n    /* \"#utility.yul\":8758:8773   */\n  mstore\n    /* \"#utility.yul\":8792:8796   */\n  0x24\n    /* \"#utility.yul\":8789:8790   */\n  0x00\n    /* \"#utility.yul\":8782:8797   */\n  revert\n    /* \"#utility.yul\":8809:9042   */\ntag_27:\n    /* \"#utility.yul\":8848:8851   */\n  0x00\n    /* \"#utility.yul\":8871:8895   */\n  tag_138\n    /* \"#utility.yul\":8889:8894   */\n  dup3\n    /* \"#utility.yul\":8871:8895   */\n  tag_45\n  jump\t// in\ntag_138:\n    /* \"#utility.yul\":8862:8895   */\n  swap2\n  pop\n    /* \"#utility.yul\":8917:8983   */\n  0xffffffffffffffffffffffffffffffffffffffffffffffffffffffffffffffff\n    /* \"#utility.yul\":8910:8915   */\n  dup3\n    /* \"#utility.yul\":8907:8984   */\n  sub\n    /* \"#utility.yul\":8904:9007   */\n  tag_139\n  jumpi\n    /* \"#utility.yul\":8987:9005   */\n  tag_140\n  tag_57\n  jump\t// in\ntag_140:\n    /* \"#utility.yul\":8904:9007   */\ntag_139:\n    /* \"#utility.yul\":9034:9035   */\n  0x01\n    /* \"#utility.yul\":9027:9032   */\n  dup3\n    /* \"#utility.yul\":9023:9036   */\n  add\n    /* \"#utility.yul\":9016:9036   */\n  swap1\n  pop\n    /* \"#utility.yul\":8809:9042   */\n  swap2\n  swap1\n  pop\n  jump\t// out\n    /* \"contracts/MSWallet.sol\":58:4095  contract MultiSignatureWallet {... */\ntag_28:\n  dataSize(sub_0)\n  dup1\n  dataOffset(sub_0)\n  0x00\n  codecopy\n  0x00\n  return\nstop\n\nsub_0: assembly {\n        /* \"contracts/MSWallet.sol\":58:4095  contract MultiSignatureWallet {... */\n      mstore(0x40, 0x80)\n      jumpi(tag_1, lt(calldatasize, 0x04))\n      shr(0xe0, calldataload(0x00))\n      dup1\n      0x81fed0ec\n      gt\n      tag_15\n      jumpi\n      dup1\n      0x81fed0ec\n      eq\n      tag_9\n      jumpi\n      dup1\n      0x8d068043\n      eq\n      tag_10\n      jumpi\n      dup1\n      0x935b8e1b\n      eq\n      tag_11\n      jumpi\n      dup1\n      0xd0e30db0\n      eq\n      tag_12\n      jumpi\n      dup1\n      0xd45c3b8c\n      eq\n      tag_13\n      jumpi\n      dup1\n      0xee22610b\n      eq\n      tag_14\n      jumpi\n      jump(tag_2)\n    tag_15:\n      dup1\n      0x025e7c27\n      eq\n      tag_3\n      jumpi\n      dup1\n      0x2cd6958f\n      eq\n      tag_4\n      jumpi\n      dup1\n      0x2f54bf6e\n      eq\n      tag_5\n      jumpi\n      dup1\n      0x3abb2e4d\n      eq\n      tag_6\n      jumpi\n      dup1\n      0x53d1f1bb\n      eq\n      tag_7\n      jumpi\n      dup1\n      0x56c31637\n      eq\n      tag_8\n      jumpi\n      jump(tag_2)\n    tag_1:\n      jumpi(tag_2, calldatasize)\n      stop\n    tag_2:\n      stop\n        /* \"contracts/MSWallet.sol\":94:117  address[] public owners */\n    tag_3:\n      callvalue\n      dup1\n      iszero\n      tag_20\n      jumpi\n      0x00\n      dup1\n      revert\n    tag_20:\n      pop\n      tag_21\n      0x04\n      dup1\n      calldatasize\n      sub\n      dup2\n      add\n      swap1\n      tag_22\n      swap2\n      swap1\n      tag_23\n      jump\t// in\n    tag_22:\n      tag_24\n      jump\t// in\n    tag_21:\n      mload(0x40)\n      tag_25\n      swap2\n      swap1\n      tag_26\n      jump\t// in\n    tag_25:\n      mload(0x40)\n      dup1\n      swap2\n      sub\n      swap1\n      return\n        /* \"contracts/MSWallet.sol\":336:389  mapping(uint256 => uint256) public transactionAmounts */\n    tag_4:\n      callvalue\n      dup1\n      iszero\n      tag_27\n      jumpi\n      0x00\n      dup1\n      revert\n    tag_27:\n      pop\n      tag_28\n      0x04\n      dup1\n      calldatasize\n      sub\n      dup2\n      add\n      swap1\n      tag_29\n      swap2\n      swap1\n      tag_23\n      jump\t// in\n    tag_29:\n      tag_30\n      jump\t// in\n    tag_28:\n      mload(0x40)\n      tag_31\n      swap2\n      swap1\n      tag_32\n      jump\t// in\n    tag_31:\n      mload(0x40)\n      dup1\n      swap2\n      sub\n      swap1\n      return\n        /* \"contracts/MSWallet.sol\":123:162  mapping(address => bool) public isOwner */\n    tag_5:\n      callvalue\n      dup1\n      iszero\n      tag_33\n      jumpi\n      0x00\n      dup1\n      revert\n    tag_33:\n      pop\n      tag_34\n      0x04\n      dup1\n      calldatasize\n      sub\n      dup2\n      add\n      swap1\n      tag_35\n      swap2\n      swap1\n      tag_36\n      jump\t// in\n    tag_35:\n      tag_37\n      jump\t// in\n    tag_34:\n      mload(0x40)\n      tag_38\n      swap2\n      swap1\n      tag_39\n      jump\t// in\n    tag_38:\n      mload(0x40)\n      dup1\n      swap2\n      sub\n      swap1\n      return\n        /* \"contracts/MSWallet.sol\":3110:3567  function isTransactionApproved(uint256 _transactionId) public view returns (bool) {... */\n    tag_6:\n      callvalue\n      dup1\n      iszero\n      tag_40\n      jumpi\n      0x00\n      dup1\n      revert\n    tag_40:\n      pop\n      tag_41\n      0x04\n      dup1\n      calldatasize\n      sub\n      dup2\n      add\n      swap1\n      tag_42\n      swap2\n      swap1\n      tag_23\n      jump\t// in\n    tag_42:\n      tag_43\n      jump\t// in\n    tag_41:\n      mload(0x40)\n      tag_44\n      swap2\n      swap1\n      tag_39\n      jump\t// in\n    tag_44:\n      mload(0x40)\n      dup1\n      swap2\n      sub\n      swap1\n      return\n        /* \"contracts/MSWallet.sol\":3882:4022  function getTransactionAmount(uint256 _transactionId) public view returns(uint256){... */\n    tag_7:\n      callvalue\n      dup1\n      iszero\n      tag_45\n      jumpi\n      0x00\n      dup1\n      revert\n    tag_45:\n      pop\n      tag_46\n      0x04\n      dup1\n      calldatasize\n      sub\n      dup2\n      add\n      swap1\n      tag_47\n      swap2\n      swap1\n      tag_23\n      jump\t// in\n    tag_47:\n      tag_48\n      jump\t// in\n    tag_46:\n      mload(0x40)\n      tag_49\n      swap2\n      swap1\n      tag_32\n      jump\t// in\n    tag_49:\n      mload(0x40)\n      dup1\n      swap2\n      sub\n      swap1\n      return\n        /* \"contracts/MSWallet.sol\":208:270  mapping(uint256 => mapping(address => bool)) public isApproved */\n    tag_8:\n      callvalue\n      dup1\n      iszero\n      tag_50\n      jumpi\n      0x00\n      dup1\n      revert\n    tag_50:\n      pop\n      tag_51\n      0x04\n      dup1\n      calldatasize\n      sub\n      dup2\n      add\n      swap1\n      tag_52\n      swap2\n      swap1\n      tag_53\n      jump\t// in\n    tag_52:\n      tag_54\n      jump\t// in\n    tag_51:\n      mload(0x40)\n      tag_55\n      swap2\n      swap1\n      tag_39\n      jump\t// in\n    tag_55:\n      mload(0x40)\n      dup1\n      swap2\n      sub\n      swap1\n      return\n        /* \"contracts/MSWallet.sol\":277:330  mapping(uint256 => bool) public isTransactionExecuted */\n    tag_9:\n      callvalue\n      dup1\n      iszero\n      tag_56\n      jumpi\n      0x00\n      dup1\n      revert\n    tag_56:\n      pop\n      tag_57\n      0x04\n      dup1\n      calldatasize\n      sub\n      dup2\n      add\n      swap1\n      tag_58\n      swap2\n      swap1\n      tag_23\n      jump\t// in\n    tag_58:\n      tag_59\n      jump\t// in\n    tag_57:\n      mload(0x40)\n      tag_60\n      swap2\n      swap1\n      tag_39\n      jump\t// in\n    tag_60:\n      mload(0x40)\n      dup1\n      swap2\n      sub\n      swap1\n      return\n        /* \"contracts/MSWallet.sol\":168:201  uint256 public requiredSignatures */\n    tag_10:\n      callvalue\n      dup1\n      iszero\n      tag_61\n      jumpi\n      0x00\n      dup1\n      revert\n    tag_61:\n      pop\n      tag_62\n      tag_63\n      jump\t// in\n    tag_62:\n      mload(0x40)\n      tag_64\n      swap2\n      swap1\n      tag_32\n      jump\t// in\n    tag_64:\n      mload(0x40)\n      dup1\n      swap2\n      sub\n      swap1\n      return\n        /* \"contracts/MSWallet.sol\":3573:3876  function getTransactionRecipient(uint256 _transactionId) public pure returns (address) {... */\n    tag_11:\n      callvalue\n      dup1\n      iszero\n      tag_65\n      jumpi\n      0x00\n      dup1\n      revert\n    tag_65:\n      pop\n      tag_66\n      0x04\n      dup1\n      calldatasize\n      sub\n      dup2\n      add\n      swap1\n      tag_67\n      swap2\n      swap1\n      tag_23\n      jump\t// in\n    tag_67:\n      tag_68\n      jump\t// in\n    tag_66:\n      mload(0x40)\n      tag_69\n      swap2\n      swap1\n      tag_26\n      jump\t// in\n    tag_69:\n      mload(0x40)\n      dup1\n      swap2\n      sub\n      swap1\n      return\n        /* \"contracts/MSWallet.sol\":1439:1525  function deposit() public payable {... */\n    tag_12:\n      tag_70\n      tag_71\n      jump\t// in\n    tag_70:\n      stop\n        /* \"contracts/MSWallet.sol\":1531:2521  function createTransaction(... */\n    tag_13:\n      callvalue\n      dup1\n      iszero\n      tag_72\n      jumpi\n      0x00\n      dup1\n      revert\n    tag_72:\n      pop\n      tag_73\n      0x04\n      dup1\n      calldatasize\n      sub\n      dup2\n      add\n      swap1\n      tag_74\n      swap2\n      swap1\n      tag_75\n      jump\t// in\n    tag_74:\n      tag_76\n      jump\t// in\n    tag_73:\n      stop\n        /* \"contracts/MSWallet.sol\":2527:3104  function executeTransaction(uint256 _transactionId) public payable onlyOwner{... */\n    tag_14:\n      tag_77\n      0x04\n      dup1\n      calldatasize\n      sub\n      dup2\n      add\n      swap1\n      tag_78\n      swap2\n      swap1\n      tag_23\n      jump\t// in\n    tag_78:\n      tag_79\n      jump\t// in\n    tag_77:\n      stop\n        /* \"contracts/MSWallet.sol\":94:117  address[] public owners */\n    tag_24:\n      0x00\n      dup2\n      dup2\n      sload\n      dup2\n      lt\n      tag_80\n      jumpi\n      0x00\n      dup1\n      revert\n    tag_80:\n      swap1\n      0x00\n      mstore\n      keccak256(0x00, 0x20)\n      add\n      0x00\n      swap2\n      pop\n      sload\n      swap1\n      0x0100\n      exp\n      swap1\n      div\n      0xffffffffffffffffffffffffffffffffffffffff\n      and\n      dup2\n      jump\t// out\n        /* \"contracts/MSWallet.sol\":336:389  mapping(uint256 => uint256) public transactionAmounts */\n    tag_30:\n      mstore(0x20, 0x05)\n      dup1\n      0x00\n      mstore\n      keccak256(0x00, 0x40)\n      0x00\n      swap2\n      pop\n      swap1\n      pop\n      sload\n      dup2\n      jump\t// out\n        /* \"contracts/MSWallet.sol\":123:162  mapping(address => bool) public isOwner */\n    tag_37:\n      mstore(0x20, 0x01)\n      dup1\n      0x00\n      mstore\n      keccak256(0x00, 0x40)\n      0x00\n      swap2\n      pop\n      sload\n      swap1\n      0x0100\n      exp\n      swap1\n      div\n      0xff\n      and\n      dup2\n      jump\t// out\n        /* \"contracts/MSWallet.sol\":3110:3567  function isTransactionApproved(uint256 _transactionId) public view returns (bool) {... */\n    tag_43:\n        /* \"contracts/MSWallet.sol\":3186:3190  bool */\n      0x00\n        /* \"contracts/MSWallet.sol\":3202:3223  uint256 approvalCount */\n      dup1\n        /* \"contracts/MSWallet.sol\":3226:3227  0 */\n      0x00\n        /* \"contracts/MSWallet.sol\":3202:3227  uint256 approvalCount = 0 */\n      swap1\n      pop\n        /* \"contracts/MSWallet.sol\":3242:3251  uint256 i */\n      0x00\n        /* \"contracts/MSWallet.sol\":3238:3539  for(uint256 i = 0; i < owners.length; i++){... */\n    tag_83:\n        /* \"contracts/MSWallet.sol\":3261:3267  owners */\n      0x00\n        /* \"contracts/MSWallet.sol\":3261:3274  owners.length */\n      dup1\n      sload\n      swap1\n      pop\n        /* \"contracts/MSWallet.sol\":3257:3258  i */\n      dup2\n        /* \"contracts/MSWallet.sol\":3257:3274  i < owners.length */\n      lt\n        /* \"contracts/MSWallet.sol\":3238:3539  for(uint256 i = 0; i < owners.length; i++){... */\n      iszero\n      tag_84\n      jumpi\n        /* \"contracts/MSWallet.sol\":3294:3307  address owner */\n      0x00\n        /* \"contracts/MSWallet.sol\":3310:3316  owners */\n      dup1\n        /* \"contracts/MSWallet.sol\":3317:3318  i */\n      dup3\n        /* \"contracts/MSWallet.sol\":3310:3319  owners[i] */\n      dup2\n      sload\n      dup2\n      lt\n      tag_86\n      jumpi\n      tag_87\n      tag_88\n      jump\t// in\n    tag_87:\n    tag_86:\n      swap1\n      0x00\n      mstore\n      keccak256(0x00, 0x20)\n      add\n      0x00\n      swap1\n      sload\n      swap1\n      0x0100\n      exp\n      swap1\n      div\n      0xffffffffffffffffffffffffffffffffffffffff\n      and\n        /* \"contracts/MSWallet.sol\":3294:3319  address owner = owners[i] */\n      swap1\n      pop\n        /* \"contracts/MSWallet.sol\":3337:3347  isApproved */\n      0x03\n        /* \"contracts/MSWallet.sol\":3337:3363  isApproved[_transactionId] */\n      0x00\n        /* \"contracts/MSWallet.sol\":3348:3362  _transactionId */\n      dup7\n        /* \"contracts/MSWallet.sol\":3337:3363  isApproved[_transactionId] */\n      dup2\n      mstore\n      0x20\n      add\n      swap1\n      dup2\n      mstore\n      0x20\n      add\n      0x00\n      keccak256\n        /* \"contracts/MSWallet.sol\":3337:3370  isApproved[_transactionId][owner] */\n      0x00\n        /* \"contracts/MSWallet.sol\":3364:3369  owner */\n      dup3\n        /* \"contracts/MSWallet.sol\":3337:3370  isApproved[_transactionId][owner] */\n      0xffffffffffffffffffffffffffffffffffffffff\n      and\n      0xffffffffffffffffffffffffffffffffffffffff\n      and\n      dup2\n      mstore\n      0x20\n      add\n      swap1\n      dup2\n      mstore\n      0x20\n      add\n      0x00\n      keccak256\n      0x00\n      swap1\n      sload\n      swap1\n      0x0100\n      exp\n      swap1\n      div\n      0xff\n      and\n        /* \"contracts/MSWallet.sol\":3333:3420  if (isApproved[_transactionId][owner]){... */\n      iszero\n      tag_90\n      jumpi\n        /* \"contracts/MSWallet.sol\":3389:3405  approvalCount ++ */\n      dup3\n      dup1\n      tag_91\n      swap1\n      tag_92\n      jump\t// in\n    tag_91:\n      swap4\n      pop\n      pop\n        /* \"contracts/MSWallet.sol\":3333:3420  if (isApproved[_transactionId][owner]){... */\n    tag_90:\n        /* \"contracts/MSWallet.sol\":3466:3484  requiredSignatures */\n      sload(0x02)\n        /* \"contracts/MSWallet.sol\":3449:3462  approvalCount */\n      dup4\n        /* \"contracts/MSWallet.sol\":3449:3484  approvalCount >= requiredSignatures */\n      lt\n        /* \"contracts/MSWallet.sol\":3446:3529  if(approvalCount >= requiredSignatures){... */\n      tag_93\n      jumpi\n        /* \"contracts/MSWallet.sol\":3510:3514  true */\n      0x01\n        /* \"contracts/MSWallet.sol\":3503:3514  return true */\n      swap4\n      pop\n      pop\n      pop\n      pop\n      jump(tag_82)\n        /* \"contracts/MSWallet.sol\":3446:3529  if(approvalCount >= requiredSignatures){... */\n    tag_93:\n        /* \"contracts/MSWallet.sol\":3280:3539  {... */\n      pop\n        /* \"contracts/MSWallet.sol\":3276:3279  i++ */\n      dup1\n      dup1\n      tag_94\n      swap1\n      tag_92\n      jump\t// in\n    tag_94:\n      swap2\n      pop\n      pop\n        /* \"contracts/MSWallet.sol\":3238:3539  for(uint256 i = 0; i < owners.length; i++){... */\n      jump(tag_83)\n    tag_84:\n      pop\n        /* \"contracts/MSWallet.sol\":3555:3560  false */\n      0x00\n        /* \"contracts/MSWallet.sol\":3548:3560  return false */\n      swap2\n      pop\n      pop\n        /* \"contracts/MSWallet.sol\":3110:3567  function isTransactionApproved(uint256 _transactionId) public view returns (bool) {... */\n    tag_82:\n      swap2\n      swap1\n      pop\n      jump\t// out\n        /* \"contracts/MSWallet.sol\":3882:4022  function getTransactionAmount(uint256 _transactionId) public view returns(uint256){... */\n    tag_48:\n        /* \"contracts/MSWallet.sol\":3956:3963  uint256 */\n      0x00\n        /* \"contracts/MSWallet.sol\":3981:3999  transactionAmounts */\n      0x05\n        /* \"contracts/MSWallet.sol\":3981:4015  transactionAmounts[_transactionId] */\n      0x00\n        /* \"contracts/MSWallet.sol\":4000:4014  _transactionId */\n      dup4\n        /* \"contracts/MSWallet.sol\":3981:4015  transactionAmounts[_transactionId] */\n      dup2\n      mstore\n      0x20\n      add\n      swap1\n      dup2\n      mstore\n      0x20\n      add\n      0x00\n      keccak256\n      sload\n        /* \"contracts/MSWallet.sol\":3974:4015  return transactionAmounts[_transactionId] */\n      swap1\n      pop\n        /* \"contracts/MSWallet.sol\":3882:4022  function getTransactionAmount(uint256 _transactionId) public view returns(uint256){... */\n      swap2\n      swap1\n      pop\n      jump\t// out\n        /* \"contracts/MSWallet.sol\":208:270  mapping(uint256 => mapping(address => bool)) public isApproved */\n    tag_54:\n      mstore(0x20, 0x03)\n      dup2\n      0x00\n      mstore\n      mstore(0x20, keccak256(0x00, 0x40))\n      dup1\n      0x00\n      mstore\n      keccak256(0x00, 0x40)\n      0x00\n      swap2\n      pop\n      swap2\n      pop\n      swap1\n      sload\n      swap1\n      0x0100\n      exp\n      swap1\n      div\n      0xff\n      and\n      dup2\n      jump\t// out\n        /* \"contracts/MSWallet.sol\":277:330  mapping(uint256 => bool) public isTransactionExecuted */\n    tag_59:\n      mstore(0x20, 0x04)\n      dup1\n      0x00\n      mstore\n      keccak256(0x00, 0x40)\n      0x00\n      swap2\n      pop\n      sload\n      swap1\n      0x0100\n      exp\n      swap1\n      div\n      0xff\n      and\n      dup2\n      jump\t// out\n        /* \"contracts/MSWallet.sol\":168:201  uint256 public requiredSignatures */\n    tag_63:\n      sload(0x02)\n      dup2\n      jump\t// out\n        /* \"contracts/MSWallet.sol\":3573:3876  function getTransactionRecipient(uint256 _transactionId) public pure returns (address) {... */\n    tag_68:\n        /* \"contracts/MSWallet.sol\":3651:3658  address */\n      0x00\n        /* \"contracts/MSWallet.sol\":3670:3694  bytes memory encodedData */\n      dup1\n        /* \"contracts/MSWallet.sol\":3708:3722  _transactionId */\n      dup3\n        /* \"contracts/MSWallet.sol\":3697:3723  abi.encode(_transactionId) */\n      add(0x20, mload(0x40))\n      tag_97\n      swap2\n      swap1\n      tag_32\n      jump\t// in\n    tag_97:\n      mload(0x40)\n      0x20\n      dup2\n      dup4\n      sub\n      sub\n      dup2\n      mstore\n      swap1\n      0x40\n      mstore\n        /* \"contracts/MSWallet.sol\":3670:3723  bytes memory encodedData = abi.encode(_transactionId) */\n      swap1\n      pop\n        /* \"contracts/MSWallet.sol\":3733:3751  bytes32 hashedData */\n      0x00\n        /* \"contracts/MSWallet.sol\":3764:3775  encodedData */\n      dup2\n        /* \"contracts/MSWallet.sol\":3754:3776  keccak256(encodedData) */\n      dup1\n      mload\n      swap1\n      0x20\n      add\n      keccak256\n        /* \"contracts/MSWallet.sol\":3733:3776  bytes32 hashedData = keccak256(encodedData) */\n      swap1\n      pop\n        /* \"contracts/MSWallet.sol\":3786:3803  address recipient */\n      0x00\n        /* \"contracts/MSWallet.sol\":3830:3840  hashedData */\n      dup2\n        /* \"contracts/MSWallet.sol\":3822:3841  uint256(hashedData) */\n      0x00\n      shr\n        /* \"contracts/MSWallet.sol\":3786:3843  address recipient = address(uint160(uint256(hashedData))) */\n      swap1\n      pop\n        /* \"contracts/MSWallet.sol\":3860:3869  recipient */\n      dup1\n        /* \"contracts/MSWallet.sol\":3853:3869  return recipient */\n      swap4\n      pop\n      pop\n      pop\n      pop\n        /* \"contracts/MSWallet.sol\":3573:3876  function getTransactionRecipient(uint256 _transactionId) public pure returns (address) {... */\n      swap2\n      swap1\n      pop\n      jump\t// out\n        /* \"contracts/MSWallet.sol\":1439:1525  function deposit() public payable {... */\n    tag_71:\n        /* \"contracts/MSWallet.sol\":1488:1518  Deposit(msg.sender, msg.value) */\n      0xe1fffcc4923d04b559f4d29a8bfc6cda04eb5b0d3c460751c2402c5c5cc9109c\n        /* \"contracts/MSWallet.sol\":1496:1506  msg.sender */\n      caller\n        /* \"contracts/MSWallet.sol\":1508:1517  msg.value */\n      callvalue\n        /* \"contracts/MSWallet.sol\":1488:1518  Deposit(msg.sender, msg.value) */\n      mload(0x40)\n      tag_99\n      swap3\n      swap2\n      swap1\n      tag_100\n      jump\t// in\n    tag_99:\n      mload(0x40)\n      dup1\n      swap2\n      sub\n      swap1\n      log1\n        /* \"contracts/MSWallet.sol\":1439:1525  function deposit() public payable {... */\n      jump\t// out\n        /* \"contracts/MSWallet.sol\":1531:2521  function createTransaction(... */\n    tag_76:\n        /* \"contracts/MSWallet.sol\":771:778  isOwner */\n      0x01\n        /* \"contracts/MSWallet.sol\":771:790  isOwner[msg.sender] */\n      0x00\n        /* \"contracts/MSWallet.sol\":779:789  msg.sender */\n      caller\n        /* \"contracts/MSWallet.sol\":771:790  isOwner[msg.sender] */\n      0xffffffffffffffffffffffffffffffffffffffff\n      and\n      0xffffffffffffffffffffffffffffffffffffffff\n      and\n      dup2\n      mstore\n      0x20\n      add\n      swap1\n      dup2\n      mstore\n      0x20\n      add\n      0x00\n      keccak256\n      0x00\n      swap1\n      sload\n      swap1\n      0x0100\n      exp\n      swap1\n      div\n      0xff\n      and\n        /* \"contracts/MSWallet.sol\":763:807  require(isOwner[msg.sender], \"Unauthorized\") */\n      tag_102\n      jumpi\n      mload(0x40)\n      0x08c379a000000000000000000000000000000000000000000000000000000000\n      dup2\n      mstore\n      0x04\n      add\n      tag_103\n      swap1\n      tag_104\n      jump\t// in\n    tag_103:\n      mload(0x40)\n      dup1\n      swap2\n      sub\n      swap1\n      revert\n    tag_102:\n        /* \"contracts/MSWallet.sol\":1724:1725  0 */\n      0x00\n        /* \"contracts/MSWallet.sol\":1706:1714  _signers */\n      dup4\n        /* \"contracts/MSWallet.sol\":1706:1721  _signers.length */\n      mload\n        /* \"contracts/MSWallet.sol\":1706:1725  _signers.length > 0 */\n      gt\n        /* \"contracts/MSWallet.sol\":1698:1746  require(_signers.length > 0, \"Signers required\") */\n      tag_106\n      jumpi\n      mload(0x40)\n      0x08c379a000000000000000000000000000000000000000000000000000000000\n      dup2\n      mstore\n      0x04\n      add\n      tag_107\n      swap1\n      tag_108\n      jump\t// in\n    tag_107:\n      mload(0x40)\n      dup1\n      swap2\n      sub\n      swap1\n      revert\n    tag_106:\n        /* \"contracts/MSWallet.sol\":1782:1783  0 */\n      0x00\n        /* \"contracts/MSWallet.sol\":1764:1772  _amounts */\n      dup3\n        /* \"contracts/MSWallet.sol\":1764:1779  _amounts.length */\n      mload\n        /* \"contracts/MSWallet.sol\":1764:1783  _amounts.length > 0 */\n      gt\n        /* \"contracts/MSWallet.sol\":1756:1804  require(_amounts.length > 0, \"Amounts requires\") */\n      tag_109\n      jumpi\n      mload(0x40)\n      0x08c379a000000000000000000000000000000000000000000000000000000000\n      dup2\n      mstore\n      0x04\n      add\n      tag_110\n      swap1\n      tag_111\n      jump\t// in\n    tag_110:\n      mload(0x40)\n      dup1\n      swap2\n      sub\n      swap1\n      revert\n    tag_109:\n        /* \"contracts/MSWallet.sol\":1841:1849  _amounts */\n      dup2\n        /* \"contracts/MSWallet.sol\":1841:1856  _amounts.length */\n      mload\n        /* \"contracts/MSWallet.sol\":1822:1830  _signers */\n      dup4\n        /* \"contracts/MSWallet.sol\":1822:1837  _signers.length */\n      mload\n        /* \"contracts/MSWallet.sol\":1822:1856  _signers.length == _amounts.length */\n      eq\n        /* \"contracts/MSWallet.sol\":1814:1881  require(_signers.length == _amounts.length, \"Invalid input length\") */\n      tag_112\n      jumpi\n      mload(0x40)\n      0x08c379a000000000000000000000000000000000000000000000000000000000\n      dup2\n      mstore\n      0x04\n      add\n      tag_113\n      swap1\n      tag_114\n      jump\t// in\n    tag_113:\n      mload(0x40)\n      dup1\n      swap2\n      sub\n      swap1\n      revert\n    tag_112:\n        /* \"contracts/MSWallet.sol\":1892:1913  uint256 transactionId */\n      0x00\n        /* \"contracts/MSWallet.sol\":1951:1963  block.number */\n      number\n        /* \"contracts/MSWallet.sol\":1965:1980  block.timestamp */\n      timestamp\n        /* \"contracts/MSWallet.sol\":1982:1992  _recipient */\n      dup4\n        /* \"contracts/MSWallet.sol\":1934:1993  abi.encodePacked(block.number, block.timestamp, _recipient) */\n      add(0x20, mload(0x40))\n      tag_115\n      swap4\n      swap3\n      swap2\n      swap1\n      tag_116\n      jump\t// in\n    tag_115:\n      mload(0x40)\n      0x20\n      dup2\n      dup4\n      sub\n      sub\n      dup2\n      mstore\n      swap1\n      0x40\n      mstore\n        /* \"contracts/MSWallet.sol\":1924:1994  keccak256(abi.encodePacked(block.number, block.timestamp, _recipient)) */\n      dup1\n      mload\n      swap1\n      0x20\n      add\n      keccak256\n        /* \"contracts/MSWallet.sol\":1916:1995  uint256(keccak256(abi.encodePacked(block.number, block.timestamp, _recipient))) */\n      0x00\n      shr\n        /* \"contracts/MSWallet.sol\":1892:1995  uint256 transactionId = uint256(keccak256(abi.encodePacked(block.number, block.timestamp, _recipient))) */\n      swap1\n      pop\n        /* \"contracts/MSWallet.sol\":2011:2020  uint256 i */\n      0x00\n        /* \"contracts/MSWallet.sol\":2006:2294  for (uint256 i = 0; i < _amounts.length ; i++){... */\n    tag_117:\n        /* \"contracts/MSWallet.sol\":2030:2038  _amounts */\n      dup4\n        /* \"contracts/MSWallet.sol\":2030:2045  _amounts.length */\n      mload\n        /* \"contracts/MSWallet.sol\":2026:2027  i */\n      dup2\n        /* \"contracts/MSWallet.sol\":2026:2045  i < _amounts.length */\n      lt\n        /* \"contracts/MSWallet.sol\":2006:2294  for (uint256 i = 0; i < _amounts.length ; i++){... */\n      iszero\n      tag_118\n      jumpi\n        /* \"contracts/MSWallet.sol\":2066:2080  address signer */\n      0x00\n        /* \"contracts/MSWallet.sol\":2083:2091  _signers */\n      dup6\n        /* \"contracts/MSWallet.sol\":2092:2093  i */\n      dup3\n        /* \"contracts/MSWallet.sol\":2083:2094  _signers[i] */\n      dup2\n      mload\n      dup2\n      lt\n      tag_120\n      jumpi\n      tag_121\n      tag_88\n      jump\t// in\n    tag_121:\n    tag_120:\n      0x20\n      mul\n      0x20\n      add\n      add\n      mload\n        /* \"contracts/MSWallet.sol\":2066:2094  address signer = _signers[i] */\n      swap1\n      pop\n        /* \"contracts/MSWallet.sol\":2116:2123  isOwner */\n      0x01\n        /* \"contracts/MSWallet.sol\":2116:2131  isOwner[signer] */\n      0x00\n        /* \"contracts/MSWallet.sol\":2124:2130  signer */\n      dup3\n        /* \"contracts/MSWallet.sol\":2116:2131  isOwner[signer] */\n      0xffffffffffffffffffffffffffffffffffffffff\n      and\n      0xffffffffffffffffffffffffffffffffffffffff\n      and\n      dup2\n      mstore\n      0x20\n      add\n      swap1\n      dup2\n      mstore\n      0x20\n      add\n      0x00\n      keccak256\n      0x00\n      swap1\n      sload\n      swap1\n      0x0100\n      exp\n      swap1\n      div\n      0xff\n      and\n        /* \"contracts/MSWallet.sol\":2108:2150  require(isOwner[signer], \"Onvalid signer\") */\n      tag_122\n      jumpi\n      mload(0x40)\n      0x08c379a000000000000000000000000000000000000000000000000000000000\n      dup2\n      mstore\n      0x04\n      add\n      tag_123\n      swap1\n      tag_124\n      jump\t// in\n    tag_123:\n      mload(0x40)\n      dup1\n      swap2\n      sub\n      swap1\n      revert\n    tag_122:\n        /* \"contracts/MSWallet.sol\":2173:2183  isApproved */\n      0x03\n        /* \"contracts/MSWallet.sol\":2173:2198  isApproved[transactionId] */\n      0x00\n        /* \"contracts/MSWallet.sol\":2184:2197  transactionId */\n      dup5\n        /* \"contracts/MSWallet.sol\":2173:2198  isApproved[transactionId] */\n      dup2\n      mstore\n      0x20\n      add\n      swap1\n      dup2\n      mstore\n      0x20\n      add\n      0x00\n      keccak256\n        /* \"contracts/MSWallet.sol\":2173:2206  isApproved[transactionId][signer] */\n      0x00\n        /* \"contracts/MSWallet.sol\":2199:2205  signer */\n      dup3\n        /* \"contracts/MSWallet.sol\":2173:2206  isApproved[transactionId][signer] */\n      0xffffffffffffffffffffffffffffffffffffffff\n      and\n      0xffffffffffffffffffffffffffffffffffffffff\n      and\n      dup2\n      mstore\n      0x20\n      add\n      swap1\n      dup2\n      mstore\n      0x20\n      add\n      0x00\n      keccak256\n      0x00\n      swap1\n      sload\n      swap1\n      0x0100\n      exp\n      swap1\n      div\n      0xff\n      and\n        /* \"contracts/MSWallet.sol\":2172:2206  !isApproved[transactionId][signer] */\n      iszero\n        /* \"contracts/MSWallet.sol\":2164:2227  require(!isApproved[transactionId][signer], \"Duplicate Signer\") */\n      tag_125\n      jumpi\n      mload(0x40)\n      0x08c379a000000000000000000000000000000000000000000000000000000000\n      dup2\n      mstore\n      0x04\n      add\n      tag_126\n      swap1\n      tag_127\n      jump\t// in\n    tag_126:\n      mload(0x40)\n      dup1\n      swap2\n      sub\n      swap1\n      revert\n    tag_125:\n        /* \"contracts/MSWallet.sol\":2278:2282  true */\n      0x01\n        /* \"contracts/MSWallet.sol\":2242:2252  isApproved */\n      0x03\n        /* \"contracts/MSWallet.sol\":2242:2267  isApproved[transactionId] */\n      0x00\n        /* \"contracts/MSWallet.sol\":2253:2266  transactionId */\n      dup6\n        /* \"contracts/MSWallet.sol\":2242:2267  isApproved[transactionId] */\n      dup2\n      mstore\n      0x20\n      add\n      swap1\n      dup2\n      mstore\n      0x20\n      add\n      0x00\n      keccak256\n        /* \"contracts/MSWallet.sol\":2242:2275  isApproved[transactionId][signer] */\n      0x00\n        /* \"contracts/MSWallet.sol\":2268:2274  signer */\n      dup4\n        /* \"contracts/MSWallet.sol\":2242:2275  isApproved[transactionId][signer] */\n      0xffffffffffffffffffffffffffffffffffffffff\n      and\n      0xffffffffffffffffffffffffffffffffffffffff\n      and\n      dup2\n      mstore\n      0x20\n      add\n      swap1\n      dup2\n      mstore\n      0x20\n      add\n      0x00\n      keccak256\n      0x00\n        /* \"contracts/MSWallet.sol\":2242:2282  isApproved[transactionId][signer] = true */\n      0x0100\n      exp\n      dup2\n      sload\n      dup2\n      0xff\n      mul\n      not\n      and\n      swap1\n      dup4\n      iszero\n      iszero\n      mul\n      or\n      swap1\n      sstore\n      pop\n        /* \"contracts/MSWallet.sol\":2052:2294  {... */\n      pop\n        /* \"contracts/MSWallet.sol\":2048:2051  i++ */\n      dup1\n      dup1\n      tag_128\n      swap1\n      tag_92\n      jump\t// in\n    tag_128:\n      swap2\n      pop\n      pop\n        /* \"contracts/MSWallet.sol\":2006:2294  for (uint256 i = 0; i < _amounts.length ; i++){... */\n      jump(tag_117)\n    tag_118:\n      pop\n        /* \"contracts/MSWallet.sol\":2309:2318  uint256 i */\n      0x00\n        /* \"contracts/MSWallet.sol\":2304:2422  for (uint256 i = 0; i < _amounts.length; i++){... */\n    tag_129:\n        /* \"contracts/MSWallet.sol\":2328:2336  _amounts */\n      dup4\n        /* \"contracts/MSWallet.sol\":2328:2343  _amounts.length */\n      mload\n        /* \"contracts/MSWallet.sol\":2324:2325  i */\n      dup2\n        /* \"contracts/MSWallet.sol\":2324:2343  i < _amounts.length */\n      lt\n        /* \"contracts/MSWallet.sol\":2304:2422  for (uint256 i = 0; i < _amounts.length; i++){... */\n      iszero\n      tag_130\n      jumpi\n        /* \"contracts/MSWallet.sol\":2400:2408  _amounts */\n      dup4\n        /* \"contracts/MSWallet.sol\":2409:2410  i */\n      dup2\n        /* \"contracts/MSWallet.sol\":2400:2411  _amounts[i] */\n      dup2\n      mload\n      dup2\n      lt\n      tag_132\n      jumpi\n      tag_133\n      tag_88\n      jump\t// in\n    tag_133:\n    tag_132:\n      0x20\n      mul\n      0x20\n      add\n      add\n      mload\n        /* \"contracts/MSWallet.sol\":2363:2381  transactionAmounts */\n      0x05\n        /* \"contracts/MSWallet.sol\":2363:2396  transactionAmounts[transactionId] */\n      0x00\n        /* \"contracts/MSWallet.sol\":2382:2395  transactionId */\n      dup5\n        /* \"contracts/MSWallet.sol\":2363:2396  transactionAmounts[transactionId] */\n      dup2\n      mstore\n      0x20\n      add\n      swap1\n      dup2\n      mstore\n      0x20\n      add\n      0x00\n      keccak256\n      0x00\n        /* \"contracts/MSWallet.sol\":2363:2411  transactionAmounts[transactionId] += _amounts[i] */\n      dup3\n      dup3\n      sload\n      tag_134\n      swap2\n      swap1\n      tag_135\n      jump\t// in\n    tag_134:\n      swap3\n      pop\n      pop\n      dup2\n      swap1\n      sstore\n      pop\n        /* \"contracts/MSWallet.sol\":2345:2348  i++ */\n      dup1\n      dup1\n      tag_136\n      swap1\n      tag_92\n      jump\t// in\n    tag_136:\n      swap2\n      pop\n      pop\n        /* \"contracts/MSWallet.sol\":2304:2422  for (uint256 i = 0; i < _amounts.length; i++){... */\n      jump(tag_129)\n    tag_130:\n      pop\n        /* \"contracts/MSWallet.sol\":2471:2481  msg.sender */\n      caller\n        /* \"contracts/MSWallet.sol\":2437:2514  TransactionCreated(transactionId, msg.sender, _signers, _amounts, _recipient) */\n      0xffffffffffffffffffffffffffffffffffffffff\n      and\n        /* \"contracts/MSWallet.sol\":2456:2469  transactionId */\n      dup2\n        /* \"contracts/MSWallet.sol\":2437:2514  TransactionCreated(transactionId, msg.sender, _signers, _amounts, _recipient) */\n      0xbdb11b76699ca539678da607432fa18d58fb64fd19a05dabfd0289dbb25bd780\n        /* \"contracts/MSWallet.sol\":2483:2491  _signers */\n      dup7\n        /* \"contracts/MSWallet.sol\":2493:2501  _amounts */\n      dup7\n        /* \"contracts/MSWallet.sol\":2503:2513  _recipient */\n      dup7\n        /* \"contracts/MSWallet.sol\":2437:2514  TransactionCreated(transactionId, msg.sender, _signers, _amounts, _recipient) */\n      mload(0x40)\n      tag_137\n      swap4\n      swap3\n      swap2\n      swap1\n      tag_138\n      jump\t// in\n    tag_137:\n      mload(0x40)\n      dup1\n      swap2\n      sub\n      swap1\n      log3\n        /* \"contracts/MSWallet.sol\":1688:2521  {... */\n      pop\n        /* \"contracts/MSWallet.sol\":1531:2521  function createTransaction(... */\n      pop\n      pop\n      pop\n      jump\t// out\n        /* \"contracts/MSWallet.sol\":2527:3104  function executeTransaction(uint256 _transactionId) public payable onlyOwner{... */\n    tag_79:\n        /* \"contracts/MSWallet.sol\":771:778  isOwner */\n      0x01\n        /* \"contracts/MSWallet.sol\":771:790  isOwner[msg.sender] */\n      0x00\n        /* \"contracts/MSWallet.sol\":779:789  msg.sender */\n      caller\n        /* \"contracts/MSWallet.sol\":771:790  isOwner[msg.sender] */\n      0xffffffffffffffffffffffffffffffffffffffff\n      and\n      0xffffffffffffffffffffffffffffffffffffffff\n      and\n      dup2\n      mstore\n      0x20\n      add\n      swap1\n      dup2\n      mstore\n      0x20\n      add\n      0x00\n      keccak256\n      0x00\n      swap1\n      sload\n      swap1\n      0x0100\n      exp\n      swap1\n      div\n      0xff\n      and\n        /* \"contracts/MSWallet.sol\":763:807  require(isOwner[msg.sender], \"Unauthorized\") */\n      tag_140\n      jumpi\n      mload(0x40)\n      0x08c379a000000000000000000000000000000000000000000000000000000000\n      dup2\n      mstore\n      0x04\n      add\n      tag_141\n      swap1\n      tag_104\n      jump\t// in\n    tag_141:\n      mload(0x40)\n      dup1\n      swap2\n      sub\n      swap1\n      revert\n    tag_140:\n        /* \"contracts/MSWallet.sol\":2621:2658  isTransactionApproved(_transactionId) */\n      tag_143\n        /* \"contracts/MSWallet.sol\":2643:2657  _transactionId */\n      dup2\n        /* \"contracts/MSWallet.sol\":2621:2642  isTransactionApproved */\n      tag_43\n        /* \"contracts/MSWallet.sol\":2621:2658  isTransactionApproved(_transactionId) */\n      jump\t// in\n    tag_143:\n        /* \"contracts/MSWallet.sol\":2613:2686  require(isTransactionApproved(_transactionId),\"Transaction not approved\") */\n      tag_144\n      jumpi\n      mload(0x40)\n      0x08c379a000000000000000000000000000000000000000000000000000000000\n      dup2\n      mstore\n      0x04\n      add\n      tag_145\n      swap1\n      tag_146\n      jump\t// in\n    tag_145:\n      mload(0x40)\n      dup1\n      swap2\n      sub\n      swap1\n      revert\n    tag_144:\n        /* \"contracts/MSWallet.sol\":2705:2726  isTransactionExecuted */\n      0x04\n        /* \"contracts/MSWallet.sol\":2705:2742  isTransactionExecuted[_transactionId] */\n      0x00\n        /* \"contracts/MSWallet.sol\":2727:2741  _transactionId */\n      dup3\n        /* \"contracts/MSWallet.sol\":2705:2742  isTransactionExecuted[_transactionId] */\n      dup2\n      mstore\n      0x20\n      add\n      swap1\n      dup2\n      mstore\n      0x20\n      add\n      0x00\n      keccak256\n      0x00\n      swap1\n      sload\n      swap1\n      0x0100\n      exp\n      swap1\n      div\n      0xff\n      and\n        /* \"contracts/MSWallet.sol\":2704:2742  !isTransactionExecuted[_transactionId] */\n      iszero\n        /* \"contracts/MSWallet.sol\":2696:2774  require(!isTransactionExecuted[_transactionId],\"TRansaction already executed\") */\n      tag_147\n      jumpi\n      mload(0x40)\n      0x08c379a000000000000000000000000000000000000000000000000000000000\n      dup2\n      mstore\n      0x04\n      add\n      tag_148\n      swap1\n      tag_149\n      jump\t// in\n    tag_148:\n      mload(0x40)\n      dup1\n      swap2\n      sub\n      swap1\n      revert\n    tag_147:\n        /* \"contracts/MSWallet.sol\":2825:2829  true */\n      0x01\n        /* \"contracts/MSWallet.sol\":2785:2806  isTransactionExecuted */\n      0x04\n        /* \"contracts/MSWallet.sol\":2785:2822  isTransactionExecuted[_transactionId] */\n      0x00\n        /* \"contracts/MSWallet.sol\":2807:2821  _transactionId */\n      dup4\n        /* \"contracts/MSWallet.sol\":2785:2822  isTransactionExecuted[_transactionId] */\n      dup2\n      mstore\n      0x20\n      add\n      swap1\n      dup2\n      mstore\n      0x20\n      add\n      0x00\n      keccak256\n      0x00\n        /* \"contracts/MSWallet.sol\":2785:2829  isTransactionExecuted[_transactionId] = true */\n      0x0100\n      exp\n      dup2\n      sload\n      dup2\n      0xff\n      mul\n      not\n      and\n      swap1\n      dup4\n      iszero\n      iszero\n      mul\n      or\n      swap1\n      sstore\n      pop\n        /* \"contracts/MSWallet.sol\":2839:2864  address payable recipient */\n      0x00\n        /* \"contracts/MSWallet.sol\":2891:2930  getTransactionRecipient(_transactionId) */\n      tag_150\n        /* \"contracts/MSWallet.sol\":2915:2929  _transactionId */\n      dup3\n        /* \"contracts/MSWallet.sol\":2891:2914  getTransactionRecipient */\n      tag_68\n        /* \"contracts/MSWallet.sol\":2891:2930  getTransactionRecipient(_transactionId) */\n      jump\t// in\n    tag_150:\n        /* \"contracts/MSWallet.sol\":2839:2933  address payable recipient = payable(address(uint160(getTransactionRecipient(_transactionId)))) */\n      swap1\n      pop\n        /* \"contracts/MSWallet.sol\":2943:2957  uint256 amount */\n      0x00\n        /* \"contracts/MSWallet.sol\":2960:2996  getTransactionAmount(_transactionId) */\n      tag_151\n        /* \"contracts/MSWallet.sol\":2981:2995  _transactionId */\n      dup4\n        /* \"contracts/MSWallet.sol\":2960:2980  getTransactionAmount */\n      tag_48\n        /* \"contracts/MSWallet.sol\":2960:2996  getTransactionAmount(_transactionId) */\n      jump\t// in\n    tag_151:\n        /* \"contracts/MSWallet.sol\":2943:2996  uint256 amount = getTransactionAmount(_transactionId) */\n      swap1\n      pop\n        /* \"contracts/MSWallet.sol\":3007:3016  recipient */\n      dup2\n        /* \"contracts/MSWallet.sol\":3007:3025  recipient.transfer */\n      0xffffffffffffffffffffffffffffffffffffffff\n      and\n        /* \"contracts/MSWallet.sol\":3007:3033  recipient.transfer(amount) */\n      0x08fc\n        /* \"contracts/MSWallet.sol\":3026:3032  amount */\n      dup3\n        /* \"contracts/MSWallet.sol\":3007:3033  recipient.transfer(amount) */\n      swap1\n      dup2\n      iszero\n      mul\n      swap1\n      mload(0x40)\n      0x00\n      mload(0x40)\n      dup1\n      dup4\n      sub\n      dup2\n      dup6\n      dup9\n      dup9\n      call\n      swap4\n      pop\n      pop\n      pop\n      pop\n      iszero\n      dup1\n      iszero\n      tag_153\n      jumpi\n      returndatasize\n      0x00\n      dup1\n      returndatacopy\n      revert(0x00, returndatasize)\n    tag_153:\n      pop\n        /* \"contracts/MSWallet.sol\":3085:3095  msg.sender */\n      caller\n        /* \"contracts/MSWallet.sol\":3049:3096  TransactionExecuted(_transactionId, msg.sender) */\n      0xffffffffffffffffffffffffffffffffffffffff\n      and\n        /* \"contracts/MSWallet.sol\":3069:3083  _transactionId */\n      dup4\n        /* \"contracts/MSWallet.sol\":3049:3096  TransactionExecuted(_transactionId, msg.sender) */\n      0xefc13bdcf58f184ea7cae26b499fb33b539e01d0197cea456f3ada289b8cf19b\n      mload(0x40)\n      mload(0x40)\n      dup1\n      swap2\n      sub\n      swap1\n      log3\n        /* \"contracts/MSWallet.sol\":2603:3104  {... */\n      pop\n      pop\n        /* \"contracts/MSWallet.sol\":2527:3104  function executeTransaction(uint256 _transactionId) public payable onlyOwner{... */\n      pop\n      jump\t// out\n        /* \"#utility.yul\":7:82   */\n    tag_154:\n        /* \"#utility.yul\":40:46   */\n      0x00\n        /* \"#utility.yul\":73:75   */\n      0x40\n        /* \"#utility.yul\":67:76   */\n      mload\n        /* \"#utility.yul\":57:76   */\n      swap1\n      pop\n        /* \"#utility.yul\":7:82   */\n      swap1\n      jump\t// out\n        /* \"#utility.yul\":88:205   */\n    tag_155:\n        /* \"#utility.yul\":197:198   */\n      0x00\n        /* \"#utility.yul\":194:195   */\n      dup1\n        /* \"#utility.yul\":187:199   */\n      revert\n        /* \"#utility.yul\":211:328   */\n    tag_156:\n        /* \"#utility.yul\":320:321   */\n      0x00\n        /* \"#utility.yul\":317:318   */\n      dup1\n        /* \"#utility.yul\":310:322   */\n      revert\n        /* \"#utility.yul\":334:411   */\n    tag_157:\n        /* \"#utility.yul\":371:378   */\n      0x00\n        /* \"#utility.yul\":400:405   */\n      dup2\n        /* \"#utility.yul\":389:405   */\n      swap1\n      pop\n        /* \"#utility.yul\":334:411   */\n      swap2\n      swap1\n      pop\n      jump\t// out\n        /* \"#utility.yul\":417:539   */\n    tag_158:\n        /* \"#utility.yul\":490:514   */\n      tag_224\n        /* \"#utility.yul\":508:513   */\n      dup2\n        /* \"#utility.yul\":490:514   */\n      tag_157\n      jump\t// in\n    tag_224:\n        /* \"#utility.yul\":483:488   */\n      dup2\n        /* \"#utility.yul\":480:515   */\n      eq\n        /* \"#utility.yul\":470:533   */\n      tag_225\n      jumpi\n        /* \"#utility.yul\":529:530   */\n      0x00\n        /* \"#utility.yul\":526:527   */\n      dup1\n        /* \"#utility.yul\":519:531   */\n      revert\n        /* \"#utility.yul\":470:533   */\n    tag_225:\n        /* \"#utility.yul\":417:539   */\n      pop\n      jump\t// out\n        /* \"#utility.yul\":545:684   */\n    tag_159:\n        /* \"#utility.yul\":591:596   */\n      0x00\n        /* \"#utility.yul\":629:635   */\n      dup2\n        /* \"#utility.yul\":616:636   */\n      calldataload\n        /* \"#utility.yul\":607:636   */\n      swap1\n      pop\n        /* \"#utility.yul\":645:678   */\n      tag_227\n        /* \"#utility.yul\":672:677   */\n      dup2\n        /* \"#utility.yul\":645:678   */\n      tag_158\n      jump\t// in\n    tag_227:\n        /* \"#utility.yul\":545:684   */\n      swap3\n      swap2\n      pop\n      pop\n      jump\t// out\n        /* \"#utility.yul\":690:1019   */\n    tag_23:\n        /* \"#utility.yul\":749:755   */\n      0x00\n        /* \"#utility.yul\":798:800   */\n      0x20\n        /* \"#utility.yul\":786:795   */\n      dup3\n        /* \"#utility.yul\":777:784   */\n      dup5\n        /* \"#utility.yul\":773:796   */\n      sub\n        /* \"#utility.yul\":769:801   */\n      slt\n        /* \"#utility.yul\":766:885   */\n      iszero\n      tag_229\n      jumpi\n        /* \"#utility.yul\":804:883   */\n      tag_230\n      tag_155\n      jump\t// in\n    tag_230:\n        /* \"#utility.yul\":766:885   */\n    tag_229:\n        /* \"#utility.yul\":924:925   */\n      0x00\n        /* \"#utility.yul\":949:1002   */\n      tag_231\n        /* \"#utility.yul\":994:1001   */\n      dup5\n        /* \"#utility.yul\":985:991   */\n      dup3\n        /* \"#utility.yul\":974:983   */\n      dup6\n        /* \"#utility.yul\":970:992   */\n      add\n        /* \"#utility.yul\":949:1002   */\n      tag_159\n      jump\t// in\n    tag_231:\n        /* \"#utility.yul\":939:1002   */\n      swap2\n      pop\n        /* \"#utility.yul\":895:1012   */\n      pop\n        /* \"#utility.yul\":690:1019   */\n      swap3\n      swap2\n      pop\n      pop\n      jump\t// out\n        /* \"#utility.yul\":1025:1151   */\n    tag_160:\n        /* \"#utility.yul\":1062:1069   */\n      0x00\n        /* \"#utility.yul\":1102:1144   */\n      0xffffffffffffffffffffffffffffffffffffffff\n        /* \"#utility.yul\":1095:1100   */\n      dup3\n        /* \"#utility.yul\":1091:1145   */\n      and\n        /* \"#utility.yul\":1080:1145   */\n      swap1\n      pop\n        /* \"#utility.yul\":1025:1151   */\n      swap2\n      swap1\n      pop\n      jump\t// out\n        /* \"#utility.yul\":1157:1253   */\n    tag_161:\n        /* \"#utility.yul\":1194:1201   */\n      0x00\n        /* \"#utility.yul\":1223:1247   */\n      tag_234\n        /* \"#utility.yul\":1241:1246   */\n      dup3\n        /* \"#utility.yul\":1223:1247   */\n      tag_160\n      jump\t// in\n    tag_234:\n        /* \"#utility.yul\":1212:1247   */\n      swap1\n      pop\n        /* \"#utility.yul\":1157:1253   */\n      swap2\n      swap1\n      pop\n      jump\t// out\n        /* \"#utility.yul\":1259:1377   */\n    tag_162:\n        /* \"#utility.yul\":1346:1370   */\n      tag_236\n        /* \"#utility.yul\":1364:1369   */\n      dup2\n        /* \"#utility.yul\":1346:1370   */\n      tag_161\n      jump\t// in\n    tag_236:\n        /* \"#utility.yul\":1341:1344   */\n      dup3\n        /* \"#utility.yul\":1334:1371   */\n      mstore\n        /* \"#utility.yul\":1259:1377   */\n      pop\n      pop\n      jump\t// out\n        /* \"#utility.yul\":1383:1605   */\n    tag_26:\n        /* \"#utility.yul\":1476:1480   */\n      0x00\n        /* \"#utility.yul\":1514:1516   */\n      0x20\n        /* \"#utility.yul\":1503:1512   */\n      dup3\n        /* \"#utility.yul\":1499:1517   */\n      add\n        /* \"#utility.yul\":1491:1517   */\n      swap1\n      pop\n        /* \"#utility.yul\":1527:1598   */\n      tag_238\n        /* \"#utility.yul\":1595:1596   */\n      0x00\n        /* \"#utility.yul\":1584:1593   */\n      dup4\n        /* \"#utility.yul\":1580:1597   */\n      add\n        /* \"#utility.yul\":1571:1577   */\n      dup5\n        /* \"#utility.yul\":1527:1598   */\n      tag_162\n      jump\t// in\n    tag_238:\n        /* \"#utility.yul\":1383:1605   */\n      swap3\n      swap2\n      pop\n      pop\n      jump\t// out\n        /* \"#utility.yul\":1611:1729   */\n    tag_163:\n        /* \"#utility.yul\":1698:1722   */\n      tag_240\n        /* \"#utility.yul\":1716:1721   */\n      dup2\n        /* \"#utility.yul\":1698:1722   */\n      tag_157\n      jump\t// in\n    tag_240:\n        /* \"#utility.yul\":1693:1696   */\n      dup3\n        /* \"#utility.yul\":1686:1723   */\n      mstore\n        /* \"#utility.yul\":1611:1729   */\n      pop\n      pop\n      jump\t// out\n        /* \"#utility.yul\":1735:1957   */\n    tag_32:\n        /* \"#utility.yul\":1828:1832   */\n      0x00\n        /* \"#utility.yul\":1866:1868   */\n      0x20\n        /* \"#utility.yul\":1855:1864   */\n      dup3\n        /* \"#utility.yul\":1851:1869   */\n      add\n        /* \"#utility.yul\":1843:1869   */\n      swap1\n      pop\n        /* \"#utility.yul\":1879:1950   */\n      tag_242\n        /* \"#utility.yul\":1947:1948   */\n      0x00\n        /* \"#utility.yul\":1936:1945   */\n      dup4\n        /* \"#utility.yul\":1932:1949   */\n      add\n        /* \"#utility.yul\":1923:1929   */\n      dup5\n        /* \"#utility.yul\":1879:1950   */\n      tag_163\n      jump\t// in\n    tag_242:\n        /* \"#utility.yul\":1735:1957   */\n      swap3\n      swap2\n      pop\n      pop\n      jump\t// out\n        /* \"#utility.yul\":1963:2085   */\n    tag_164:\n        /* \"#utility.yul\":2036:2060   */\n      tag_244\n        /* \"#utility.yul\":2054:2059   */\n      dup2\n        /* \"#utility.yul\":2036:2060   */\n      tag_161\n      jump\t// in\n    tag_244:\n        /* \"#utility.yul\":2029:2034   */\n      dup2\n        /* \"#utility.yul\":2026:2061   */\n      eq\n        /* \"#utility.yul\":2016:2079   */\n      tag_245\n      jumpi\n        /* \"#utility.yul\":2075:2076   */\n      0x00\n        /* \"#utility.yul\":2072:2073   */\n      dup1\n        /* \"#utility.yul\":2065:2077   */\n      revert\n        /* \"#utility.yul\":2016:2079   */\n    tag_245:\n        /* \"#utility.yul\":1963:2085   */\n      pop\n      jump\t// out\n        /* \"#utility.yul\":2091:2230   */\n    tag_165:\n        /* \"#utility.yul\":2137:2142   */\n      0x00\n        /* \"#utility.yul\":2175:2181   */\n      dup2\n        /* \"#utility.yul\":2162:2182   */\n      calldataload\n        /* \"#utility.yul\":2153:2182   */\n      swap1\n      pop\n        /* \"#utility.yul\":2191:2224   */\n      tag_247\n        /* \"#utility.yul\":2218:2223   */\n      dup2\n        /* \"#utility.yul\":2191:2224   */\n      tag_164\n      jump\t// in\n    tag_247:\n        /* \"#utility.yul\":2091:2230   */\n      swap3\n      swap2\n      pop\n      pop\n      jump\t// out\n        /* \"#utility.yul\":2236:2565   */\n    tag_36:\n        /* \"#utility.yul\":2295:2301   */\n      0x00\n        /* \"#utility.yul\":2344:2346   */\n      0x20\n        /* \"#utility.yul\":2332:2341   */\n      dup3\n        /* \"#utility.yul\":2323:2330   */\n      dup5\n        /* \"#utility.yul\":2319:2342   */\n      sub\n        /* \"#utility.yul\":2315:2347   */\n      slt\n        /* \"#utility.yul\":2312:2431   */\n      iszero\n      tag_249\n      jumpi\n        /* \"#utility.yul\":2350:2429   */\n      tag_250\n      tag_155\n      jump\t// in\n    tag_250:\n        /* \"#utility.yul\":2312:2431   */\n    tag_249:\n        /* \"#utility.yul\":2470:2471   */\n      0x00\n        /* \"#utility.yul\":2495:2548   */\n      tag_251\n        /* \"#utility.yul\":2540:2547   */\n      dup5\n        /* \"#utility.yul\":2531:2537   */\n      dup3\n        /* \"#utility.yul\":2520:2529   */\n      dup6\n        /* \"#utility.yul\":2516:2538   */\n      add\n        /* \"#utility.yul\":2495:2548   */\n      tag_165\n      jump\t// in\n    tag_251:\n        /* \"#utility.yul\":2485:2548   */\n      swap2\n      pop\n        /* \"#utility.yul\":2441:2558   */\n      pop\n        /* \"#utility.yul\":2236:2565   */\n      swap3\n      swap2\n      pop\n      pop\n      jump\t// out\n        /* \"#utility.yul\":2571:2661   */\n    tag_166:\n        /* \"#utility.yul\":2605:2612   */\n      0x00\n        /* \"#utility.yul\":2648:2653   */\n      dup2\n        /* \"#utility.yul\":2641:2654   */\n      iszero\n        /* \"#utility.yul\":2634:2655   */\n      iszero\n        /* \"#utility.yul\":2623:2655   */\n      swap1\n      pop\n        /* \"#utility.yul\":2571:2661   */\n      swap2\n      swap1\n      pop\n      jump\t// out\n        /* \"#utility.yul\":2667:2776   */\n    tag_167:\n        /* \"#utility.yul\":2748:2769   */\n      tag_254\n        /* \"#utility.yul\":2763:2768   */\n      dup2\n        /* \"#utility.yul\":2748:2769   */\n      tag_166\n      jump\t// in\n    tag_254:\n        /* \"#utility.yul\":2743:2746   */\n      dup3\n        /* \"#utility.yul\":2736:2770   */\n      mstore\n        /* \"#utility.yul\":2667:2776   */\n      pop\n      pop\n      jump\t// out\n        /* \"#utility.yul\":2782:2992   */\n    tag_39:\n        /* \"#utility.yul\":2869:2873   */\n      0x00\n        /* \"#utility.yul\":2907:2909   */\n      0x20\n        /* \"#utility.yul\":2896:2905   */\n      dup3\n        /* \"#utility.yul\":2892:2910   */\n      add\n        /* \"#utility.yul\":2884:2910   */\n      swap1\n      pop\n        /* \"#utility.yul\":2920:2985   */\n      tag_256\n        /* \"#utility.yul\":2982:2983   */\n      0x00\n        /* \"#utility.yul\":2971:2980   */\n      dup4\n        /* \"#utility.yul\":2967:2984   */\n      add\n        /* \"#utility.yul\":2958:2964   */\n      dup5\n        /* \"#utility.yul\":2920:2985   */\n      tag_167\n      jump\t// in\n    tag_256:\n        /* \"#utility.yul\":2782:2992   */\n      swap3\n      swap2\n      pop\n      pop\n      jump\t// out\n        /* \"#utility.yul\":2998:3472   */\n    tag_53:\n        /* \"#utility.yul\":3066:3072   */\n      0x00\n        /* \"#utility.yul\":3074:3080   */\n      dup1\n        /* \"#utility.yul\":3123:3125   */\n      0x40\n        /* \"#utility.yul\":3111:3120   */\n      dup4\n        /* \"#utility.yul\":3102:3109   */\n      dup6\n        /* \"#utility.yul\":3098:3121   */\n      sub\n        /* \"#utility.yul\":3094:3126   */\n      slt\n        /* \"#utility.yul\":3091:3210   */\n      iszero\n      tag_258\n      jumpi\n        /* \"#utility.yul\":3129:3208   */\n      tag_259\n      tag_155\n      jump\t// in\n    tag_259:\n        /* \"#utility.yul\":3091:3210   */\n    tag_258:\n        /* \"#utility.yul\":3249:3250   */\n      0x00\n        /* \"#utility.yul\":3274:3327   */\n      tag_260\n        /* \"#utility.yul\":3319:3326   */\n      dup6\n        /* \"#utility.yul\":3310:3316   */\n      dup3\n        /* \"#utility.yul\":3299:3308   */\n      dup7\n        /* \"#utility.yul\":3295:3317   */\n      add\n        /* \"#utility.yul\":3274:3327   */\n      tag_159\n      jump\t// in\n    tag_260:\n        /* \"#utility.yul\":3264:3327   */\n      swap3\n      pop\n        /* \"#utility.yul\":3220:3337   */\n      pop\n        /* \"#utility.yul\":3376:3378   */\n      0x20\n        /* \"#utility.yul\":3402:3455   */\n      tag_261\n        /* \"#utility.yul\":3447:3454   */\n      dup6\n        /* \"#utility.yul\":3438:3444   */\n      dup3\n        /* \"#utility.yul\":3427:3436   */\n      dup7\n        /* \"#utility.yul\":3423:3445   */\n      add\n        /* \"#utility.yul\":3402:3455   */\n      tag_165\n      jump\t// in\n    tag_261:\n        /* \"#utility.yul\":3392:3455   */\n      swap2\n      pop\n        /* \"#utility.yul\":3347:3465   */\n      pop\n        /* \"#utility.yul\":2998:3472   */\n      swap3\n      pop\n      swap3\n      swap1\n      pop\n      jump\t// out\n        /* \"#utility.yul\":3478:3595   */\n    tag_168:\n        /* \"#utility.yul\":3587:3588   */\n      0x00\n        /* \"#utility.yul\":3584:3585   */\n      dup1\n        /* \"#utility.yul\":3577:3589   */\n      revert\n        /* \"#utility.yul\":3601:3703   */\n    tag_169:\n        /* \"#utility.yul\":3642:3648   */\n      0x00\n        /* \"#utility.yul\":3693:3695   */\n      0x1f\n        /* \"#utility.yul\":3689:3696   */\n      not\n        /* \"#utility.yul\":3684:3686   */\n      0x1f\n        /* \"#utility.yul\":3677:3682   */\n      dup4\n        /* \"#utility.yul\":3673:3687   */\n      add\n        /* \"#utility.yul\":3669:3697   */\n      and\n        /* \"#utility.yul\":3659:3697   */\n      swap1\n      pop\n        /* \"#utility.yul\":3601:3703   */\n      swap2\n      swap1\n      pop\n      jump\t// out\n        /* \"#utility.yul\":3709:3889   */\n    tag_170:\n        /* \"#utility.yul\":3757:3834   */\n      0x4e487b7100000000000000000000000000000000000000000000000000000000\n        /* \"#utility.yul\":3754:3755   */\n      0x00\n        /* \"#utility.yul\":3747:3835   */\n      mstore\n        /* \"#utility.yul\":3854:3858   */\n      0x41\n        /* \"#utility.yul\":3851:3852   */\n      0x04\n        /* \"#utility.yul\":3844:3859   */\n      mstore\n        /* \"#utility.yul\":3878:3882   */\n      0x24\n        /* \"#utility.yul\":3875:3876   */\n      0x00\n        /* \"#utility.yul\":3868:3883   */\n      revert\n        /* \"#utility.yul\":3895:4176   */\n    tag_171:\n        /* \"#utility.yul\":3978:4005   */\n      tag_266\n        /* \"#utility.yul\":4000:4004   */\n      dup3\n        /* \"#utility.yul\":3978:4005   */\n      tag_169\n      jump\t// in\n    tag_266:\n        /* \"#utility.yul\":3970:3976   */\n      dup2\n        /* \"#utility.yul\":3966:4006   */\n      add\n        /* \"#utility.yul\":4108:4114   */\n      dup2\n        /* \"#utility.yul\":4096:4106   */\n      dup2\n        /* \"#utility.yul\":4093:4115   */\n      lt\n        /* \"#utility.yul\":4072:4090   */\n      0xffffffffffffffff\n        /* \"#utility.yul\":4060:4070   */\n      dup3\n        /* \"#utility.yul\":4057:4091   */\n      gt\n        /* \"#utility.yul\":4054:4116   */\n      or\n        /* \"#utility.yul\":4051:4139   */\n      iszero\n      tag_267\n      jumpi\n        /* \"#utility.yul\":4119:4137   */\n      tag_268\n      tag_170\n      jump\t// in\n    tag_268:\n        /* \"#utility.yul\":4051:4139   */\n    tag_267:\n        /* \"#utility.yul\":4159:4169   */\n      dup1\n        /* \"#utility.yul\":4155:4157   */\n      0x40\n        /* \"#utility.yul\":4148:4170   */\n      mstore\n        /* \"#utility.yul\":3938:4176   */\n      pop\n        /* \"#utility.yul\":3895:4176   */\n      pop\n      pop\n      jump\t// out\n        /* \"#utility.yul\":4182:4311   */\n    tag_172:\n        /* \"#utility.yul\":4216:4222   */\n      0x00\n        /* \"#utility.yul\":4243:4263   */\n      tag_270\n      tag_154\n      jump\t// in\n    tag_270:\n        /* \"#utility.yul\":4233:4263   */\n      swap1\n      pop\n        /* \"#utility.yul\":4272:4305   */\n      tag_271\n        /* \"#utility.yul\":4300:4304   */\n      dup3\n        /* \"#utility.yul\":4292:4298   */\n      dup3\n        /* \"#utility.yul\":4272:4305   */\n      tag_171\n      jump\t// in\n    tag_271:\n        /* \"#utility.yul\":4182:4311   */\n      swap2\n      swap1\n      pop\n      jump\t// out\n        /* \"#utility.yul\":4317:4628   */\n    tag_173:\n        /* \"#utility.yul\":4394:4398   */\n      0x00\n        /* \"#utility.yul\":4484:4502   */\n      0xffffffffffffffff\n        /* \"#utility.yul\":4476:4482   */\n      dup3\n        /* \"#utility.yul\":4473:4503   */\n      gt\n        /* \"#utility.yul\":4470:4526   */\n      iszero\n      tag_273\n      jumpi\n        /* \"#utility.yul\":4506:4524   */\n      tag_274\n      tag_170\n      jump\t// in\n    tag_274:\n        /* \"#utility.yul\":4470:4526   */\n    tag_273:\n        /* \"#utility.yul\":4556:4560   */\n      0x20\n        /* \"#utility.yul\":4548:4554   */\n      dup3\n        /* \"#utility.yul\":4544:4561   */\n      mul\n        /* \"#utility.yul\":4536:4561   */\n      swap1\n      pop\n        /* \"#utility.yul\":4616:4620   */\n      0x20\n        /* \"#utility.yul\":4610:4614   */\n      dup2\n        /* \"#utility.yul\":4606:4621   */\n      add\n        /* \"#utility.yul\":4598:4621   */\n      swap1\n      pop\n        /* \"#utility.yul\":4317:4628   */\n      swap2\n      swap1\n      pop\n      jump\t// out\n        /* \"#utility.yul\":4634:4751   */\n    tag_174:\n        /* \"#utility.yul\":4743:4744   */\n      0x00\n        /* \"#utility.yul\":4740:4741   */\n      dup1\n        /* \"#utility.yul\":4733:4745   */\n      revert\n        /* \"#utility.yul\":4774:5484   */\n    tag_175:\n        /* \"#utility.yul\":4870:4875   */\n      0x00\n        /* \"#utility.yul\":4895:4976   */\n      tag_277\n        /* \"#utility.yul\":4911:4975   */\n      tag_278\n        /* \"#utility.yul\":4968:4974   */\n      dup5\n        /* \"#utility.yul\":4911:4975   */\n      tag_173\n      jump\t// in\n    tag_278:\n        /* \"#utility.yul\":4895:4976   */\n      tag_172\n      jump\t// in\n    tag_277:\n        /* \"#utility.yul\":4886:4976   */\n      swap1\n      pop\n        /* \"#utility.yul\":4996:5001   */\n      dup1\n        /* \"#utility.yul\":5025:5031   */\n      dup4\n        /* \"#utility.yul\":5018:5023   */\n      dup3\n        /* \"#utility.yul\":5011:5032   */\n      mstore\n        /* \"#utility.yul\":5059:5063   */\n      0x20\n        /* \"#utility.yul\":5052:5057   */\n      dup3\n        /* \"#utility.yul\":5048:5064   */\n      add\n        /* \"#utility.yul\":5041:5064   */\n      swap1\n      pop\n        /* \"#utility.yul\":5112:5116   */\n      0x20\n        /* \"#utility.yul\":5104:5110   */\n      dup5\n        /* \"#utility.yul\":5100:5117   */\n      mul\n        /* \"#utility.yul\":5092:5098   */\n      dup4\n        /* \"#utility.yul\":5088:5118   */\n      add\n        /* \"#utility.yul\":5141:5144   */\n      dup6\n        /* \"#utility.yul\":5133:5139   */\n      dup2\n        /* \"#utility.yul\":5130:5145   */\n      gt\n        /* \"#utility.yul\":5127:5249   */\n      iszero\n      tag_279\n      jumpi\n        /* \"#utility.yul\":5160:5239   */\n      tag_280\n      tag_174\n      jump\t// in\n    tag_280:\n        /* \"#utility.yul\":5127:5249   */\n    tag_279:\n        /* \"#utility.yul\":5275:5281   */\n      dup4\n        /* \"#utility.yul\":5258:5478   */\n    tag_281:\n        /* \"#utility.yul\":5292:5298   */\n      dup2\n        /* \"#utility.yul\":5287:5290   */\n      dup2\n        /* \"#utility.yul\":5284:5299   */\n      lt\n        /* \"#utility.yul\":5258:5478   */\n      iszero\n      tag_283\n      jumpi\n        /* \"#utility.yul\":5367:5370   */\n      dup1\n        /* \"#utility.yul\":5396:5433   */\n      tag_284\n        /* \"#utility.yul\":5429:5432   */\n      dup9\n        /* \"#utility.yul\":5417:5427   */\n      dup3\n        /* \"#utility.yul\":5396:5433   */\n      tag_165\n      jump\t// in\n    tag_284:\n        /* \"#utility.yul\":5391:5394   */\n      dup5\n        /* \"#utility.yul\":5384:5434   */\n      mstore\n        /* \"#utility.yul\":5463:5467   */\n      0x20\n        /* \"#utility.yul\":5458:5461   */\n      dup5\n        /* \"#utility.yul\":5454:5468   */\n      add\n        /* \"#utility.yul\":5447:5468   */\n      swap4\n      pop\n        /* \"#utility.yul\":5334:5478   */\n      pop\n        /* \"#utility.yul\":5318:5322   */\n      0x20\n        /* \"#utility.yul\":5313:5316   */\n      dup2\n        /* \"#utility.yul\":5309:5323   */\n      add\n        /* \"#utility.yul\":5302:5323   */\n      swap1\n      pop\n        /* \"#utility.yul\":5258:5478   */\n      jump(tag_281)\n    tag_283:\n        /* \"#utility.yul\":5262:5283   */\n      pop\n        /* \"#utility.yul\":4876:5484   */\n      pop\n      pop\n        /* \"#utility.yul\":4774:5484   */\n      swap4\n      swap3\n      pop\n      pop\n      pop\n      jump\t// out\n        /* \"#utility.yul\":5507:5877   */\n    tag_176:\n        /* \"#utility.yul\":5578:5583   */\n      0x00\n        /* \"#utility.yul\":5627:5630   */\n      dup3\n        /* \"#utility.yul\":5620:5624   */\n      0x1f\n        /* \"#utility.yul\":5612:5618   */\n      dup4\n        /* \"#utility.yul\":5608:5625   */\n      add\n        /* \"#utility.yul\":5604:5631   */\n      slt\n        /* \"#utility.yul\":5594:5716   */\n      tag_286\n      jumpi\n        /* \"#utility.yul\":5635:5714   */\n      tag_287\n      tag_168\n      jump\t// in\n    tag_287:\n        /* \"#utility.yul\":5594:5716   */\n    tag_286:\n        /* \"#utility.yul\":5752:5758   */\n      dup2\n        /* \"#utility.yul\":5739:5759   */\n      calldataload\n        /* \"#utility.yul\":5777:5871   */\n      tag_288\n        /* \"#utility.yul\":5867:5870   */\n      dup5\n        /* \"#utility.yul\":5859:5865   */\n      dup3\n        /* \"#utility.yul\":5852:5856   */\n      0x20\n        /* \"#utility.yul\":5844:5850   */\n      dup7\n        /* \"#utility.yul\":5840:5857   */\n      add\n        /* \"#utility.yul\":5777:5871   */\n      tag_175\n      jump\t// in\n    tag_288:\n        /* \"#utility.yul\":5768:5871   */\n      swap2\n      pop\n        /* \"#utility.yul\":5584:5877   */\n      pop\n        /* \"#utility.yul\":5507:5877   */\n      swap3\n      swap2\n      pop\n      pop\n      jump\t// out\n        /* \"#utility.yul\":5883:6194   */\n    tag_177:\n        /* \"#utility.yul\":5960:5964   */\n      0x00\n        /* \"#utility.yul\":6050:6068   */\n      0xffffffffffffffff\n        /* \"#utility.yul\":6042:6048   */\n      dup3\n        /* \"#utility.yul\":6039:6069   */\n      gt\n        /* \"#utility.yul\":6036:6092   */\n      iszero\n      tag_290\n      jumpi\n        /* \"#utility.yul\":6072:6090   */\n      tag_291\n      tag_170\n      jump\t// in\n    tag_291:\n        /* \"#utility.yul\":6036:6092   */\n    tag_290:\n        /* \"#utility.yul\":6122:6126   */\n      0x20\n        /* \"#utility.yul\":6114:6120   */\n      dup3\n        /* \"#utility.yul\":6110:6127   */\n      mul\n        /* \"#utility.yul\":6102:6127   */\n      swap1\n      pop\n        /* \"#utility.yul\":6182:6186   */\n      0x20\n        /* \"#utility.yul\":6176:6180   */\n      dup2\n        /* \"#utility.yul\":6172:6187   */\n      add\n        /* \"#utility.yul\":6164:6187   */\n      swap1\n      pop\n        /* \"#utility.yul\":5883:6194   */\n      swap2\n      swap1\n      pop\n      jump\t// out\n        /* \"#utility.yul\":6217:6927   */\n    tag_178:\n        /* \"#utility.yul\":6313:6318   */\n      0x00\n        /* \"#utility.yul\":6338:6419   */\n      tag_293\n        /* \"#utility.yul\":6354:6418   */\n      tag_294\n        /* \"#utility.yul\":6411:6417   */\n      dup5\n        /* \"#utility.yul\":6354:6418   */\n      tag_177\n      jump\t// in\n    tag_294:\n        /* \"#utility.yul\":6338:6419   */\n      tag_172\n      jump\t// in\n    tag_293:\n        /* \"#utility.yul\":6329:6419   */\n      swap1\n      pop\n        /* \"#utility.yul\":6439:6444   */\n      dup1\n        /* \"#utility.yul\":6468:6474   */\n      dup4\n        /* \"#utility.yul\":6461:6466   */\n      dup3\n        /* \"#utility.yul\":6454:6475   */\n      mstore\n        /* \"#utility.yul\":6502:6506   */\n      0x20\n        /* \"#utility.yul\":6495:6500   */\n      dup3\n        /* \"#utility.yul\":6491:6507   */\n      add\n        /* \"#utility.yul\":6484:6507   */\n      swap1\n      pop\n        /* \"#utility.yul\":6555:6559   */\n      0x20\n        /* \"#utility.yul\":6547:6553   */\n      dup5\n        /* \"#utility.yul\":6543:6560   */\n      mul\n        /* \"#utility.yul\":6535:6541   */\n      dup4\n        /* \"#utility.yul\":6531:6561   */\n      add\n        /* \"#utility.yul\":6584:6587   */\n      dup6\n        /* \"#utility.yul\":6576:6582   */\n      dup2\n        /* \"#utility.yul\":6573:6588   */\n      gt\n        /* \"#utility.yul\":6570:6692   */\n      iszero\n      tag_295\n      jumpi\n        /* \"#utility.yul\":6603:6682   */\n      tag_296\n      tag_174\n      jump\t// in\n    tag_296:\n        /* \"#utility.yul\":6570:6692   */\n    tag_295:\n        /* \"#utility.yul\":6718:6724   */\n      dup4\n        /* \"#utility.yul\":6701:6921   */\n    tag_297:\n        /* \"#utility.yul\":6735:6741   */\n      dup2\n        /* \"#utility.yul\":6730:6733   */\n      dup2\n        /* \"#utility.yul\":6727:6742   */\n      lt\n        /* \"#utility.yul\":6701:6921   */\n      iszero\n      tag_299\n      jumpi\n        /* \"#utility.yul\":6810:6813   */\n      dup1\n        /* \"#utility.yul\":6839:6876   */\n      tag_300\n        /* \"#utility.yul\":6872:6875   */\n      dup9\n        /* \"#utility.yul\":6860:6870   */\n      dup3\n        /* \"#utility.yul\":6839:6876   */\n      tag_159\n      jump\t// in\n    tag_300:\n        /* \"#utility.yul\":6834:6837   */\n      dup5\n        /* \"#utility.yul\":6827:6877   */\n      mstore\n        /* \"#utility.yul\":6906:6910   */\n      0x20\n        /* \"#utility.yul\":6901:6904   */\n      dup5\n        /* \"#utility.yul\":6897:6911   */\n      add\n        /* \"#utility.yul\":6890:6911   */\n      swap4\n      pop\n        /* \"#utility.yul\":6777:6921   */\n      pop\n        /* \"#utility.yul\":6761:6765   */\n      0x20\n        /* \"#utility.yul\":6756:6759   */\n      dup2\n        /* \"#utility.yul\":6752:6766   */\n      add\n        /* \"#utility.yul\":6745:6766   */\n      swap1\n      pop\n        /* \"#utility.yul\":6701:6921   */\n      jump(tag_297)\n    tag_299:\n        /* \"#utility.yul\":6705:6726   */\n      pop\n        /* \"#utility.yul\":6319:6927   */\n      pop\n      pop\n        /* \"#utility.yul\":6217:6927   */\n      swap4\n      swap3\n      pop\n      pop\n      pop\n      jump\t// out\n        /* \"#utility.yul\":6950:7320   */\n    tag_179:\n        /* \"#utility.yul\":7021:7026   */\n      0x00\n        /* \"#utility.yul\":7070:7073   */\n      dup3\n        /* \"#utility.yul\":7063:7067   */\n      0x1f\n        /* \"#utility.yul\":7055:7061   */\n      dup4\n        /* \"#utility.yul\":7051:7068   */\n      add\n        /* \"#utility.yul\":7047:7074   */\n      slt\n        /* \"#utility.yul\":7037:7159   */\n      tag_302\n      jumpi\n        /* \"#utility.yul\":7078:7157   */\n      tag_303\n      tag_168\n      jump\t// in\n    tag_303:\n        /* \"#utility.yul\":7037:7159   */\n    tag_302:\n        /* \"#utility.yul\":7195:7201   */\n      dup2\n        /* \"#utility.yul\":7182:7202   */\n      calldataload\n        /* \"#utility.yul\":7220:7314   */\n      tag_304\n        /* \"#utility.yul\":7310:7313   */\n      dup5\n        /* \"#utility.yul\":7302:7308   */\n      dup3\n        /* \"#utility.yul\":7295:7299   */\n      0x20\n        /* \"#utility.yul\":7287:7293   */\n      dup7\n        /* \"#utility.yul\":7283:7300   */\n      add\n        /* \"#utility.yul\":7220:7314   */\n      tag_178\n      jump\t// in\n    tag_304:\n        /* \"#utility.yul\":7211:7314   */\n      swap2\n      pop\n        /* \"#utility.yul\":7027:7320   */\n      pop\n        /* \"#utility.yul\":6950:7320   */\n      swap3\n      swap2\n      pop\n      pop\n      jump\t// out\n        /* \"#utility.yul\":7326:8365   */\n    tag_75:\n        /* \"#utility.yul\":7453:7459   */\n      0x00\n        /* \"#utility.yul\":7461:7467   */\n      dup1\n        /* \"#utility.yul\":7469:7475   */\n      0x00\n        /* \"#utility.yul\":7518:7520   */\n      0x60\n        /* \"#utility.yul\":7506:7515   */\n      dup5\n        /* \"#utility.yul\":7497:7504   */\n      dup7\n        /* \"#utility.yul\":7493:7516   */\n      sub\n        /* \"#utility.yul\":7489:7521   */\n      slt\n        /* \"#utility.yul\":7486:7605   */\n      iszero\n      tag_306\n      jumpi\n        /* \"#utility.yul\":7524:7603   */\n      tag_307\n      tag_155\n      jump\t// in\n    tag_307:\n        /* \"#utility.yul\":7486:7605   */\n    tag_306:\n        /* \"#utility.yul\":7672:7673   */\n      0x00\n        /* \"#utility.yul\":7661:7670   */\n      dup5\n        /* \"#utility.yul\":7657:7674   */\n      add\n        /* \"#utility.yul\":7644:7675   */\n      calldataload\n        /* \"#utility.yul\":7702:7720   */\n      0xffffffffffffffff\n        /* \"#utility.yul\":7694:7700   */\n      dup2\n        /* \"#utility.yul\":7691:7721   */\n      gt\n        /* \"#utility.yul\":7688:7805   */\n      iszero\n      tag_308\n      jumpi\n        /* \"#utility.yul\":7724:7803   */\n      tag_309\n      tag_156\n      jump\t// in\n    tag_309:\n        /* \"#utility.yul\":7688:7805   */\n    tag_308:\n        /* \"#utility.yul\":7829:7907   */\n      tag_310\n        /* \"#utility.yul\":7899:7906   */\n      dup7\n        /* \"#utility.yul\":7890:7896   */\n      dup3\n        /* \"#utility.yul\":7879:7888   */\n      dup8\n        /* \"#utility.yul\":7875:7897   */\n      add\n        /* \"#utility.yul\":7829:7907   */\n      tag_176\n      jump\t// in\n    tag_310:\n        /* \"#utility.yul\":7819:7907   */\n      swap4\n      pop\n        /* \"#utility.yul\":7615:7917   */\n      pop\n        /* \"#utility.yul\":7984:7986   */\n      0x20\n        /* \"#utility.yul\":7973:7982   */\n      dup5\n        /* \"#utility.yul\":7969:7987   */\n      add\n        /* \"#utility.yul\":7956:7988   */\n      calldataload\n        /* \"#utility.yul\":8015:8033   */\n      0xffffffffffffffff\n        /* \"#utility.yul\":8007:8013   */\n      dup2\n        /* \"#utility.yul\":8004:8034   */\n      gt\n        /* \"#utility.yul\":8001:8118   */\n      iszero\n      tag_311\n      jumpi\n        /* \"#utility.yul\":8037:8116   */\n      tag_312\n      tag_156\n      jump\t// in\n    tag_312:\n        /* \"#utility.yul\":8001:8118   */\n    tag_311:\n        /* \"#utility.yul\":8142:8220   */\n      tag_313\n        /* \"#utility.yul\":8212:8219   */\n      dup7\n        /* \"#utility.yul\":8203:8209   */\n      dup3\n        /* \"#utility.yul\":8192:8201   */\n      dup8\n        /* \"#utility.yul\":8188:8210   */\n      add\n        /* \"#utility.yul\":8142:8220   */\n      tag_179\n      jump\t// in\n    tag_313:\n        /* \"#utility.yul\":8132:8220   */\n      swap3\n      pop\n        /* \"#utility.yul\":7927:8230   */\n      pop\n        /* \"#utility.yul\":8269:8271   */\n      0x40\n        /* \"#utility.yul\":8295:8348   */\n      tag_314\n        /* \"#utility.yul\":8340:8347   */\n      dup7\n        /* \"#utility.yul\":8331:8337   */\n      dup3\n        /* \"#utility.yul\":8320:8329   */\n      dup8\n        /* \"#utility.yul\":8316:8338   */\n      add\n        /* \"#utility.yul\":8295:8348   */\n      tag_165\n      jump\t// in\n    tag_314:\n        /* \"#utility.yul\":8285:8348   */\n      swap2\n      pop\n        /* \"#utility.yul\":8240:8358   */\n      pop\n        /* \"#utility.yul\":7326:8365   */\n      swap3\n      pop\n      swap3\n      pop\n      swap3\n      jump\t// out\n        /* \"#utility.yul\":8371:8551   */\n    tag_88:\n        /* \"#utility.yul\":8419:8496   */\n      0x4e487b7100000000000000000000000000000000000000000000000000000000\n        /* \"#utility.yul\":8416:8417   */\n      0x00\n        /* \"#utility.yul\":8409:8497   */\n      mstore\n        /* \"#utility.yul\":8516:8520   */\n      0x32\n        /* \"#utility.yul\":8513:8514   */\n      0x04\n        /* \"#utility.yul\":8506:8521   */\n      mstore\n        /* \"#utility.yul\":8540:8544   */\n      0x24\n        /* \"#utility.yul\":8537:8538   */\n      0x00\n        /* \"#utility.yul\":8530:8545   */\n      revert\n        /* \"#utility.yul\":8557:8737   */\n    tag_180:\n        /* \"#utility.yul\":8605:8682   */\n      0x4e487b7100000000000000000000000000000000000000000000000000000000\n        /* \"#utility.yul\":8602:8603   */\n      0x00\n        /* \"#utility.yul\":8595:8683   */\n      mstore\n        /* \"#utility.yul\":8702:8706   */\n      0x11\n        /* \"#utility.yul\":8699:8700   */\n      0x04\n        /* \"#utility.yul\":8692:8707   */\n      mstore\n        /* \"#utility.yul\":8726:8730   */\n      0x24\n        /* \"#utility.yul\":8723:8724   */\n      0x00\n        /* \"#utility.yul\":8716:8731   */\n      revert\n        /* \"#utility.yul\":8743:8976   */\n    tag_92:\n        /* \"#utility.yul\":8782:8785   */\n      0x00\n        /* \"#utility.yul\":8805:8829   */\n      tag_318\n        /* \"#utility.yul\":8823:8828   */\n      dup3\n        /* \"#utility.yul\":8805:8829   */\n      tag_157\n      jump\t// in\n    tag_318:\n        /* \"#utility.yul\":8796:8829   */\n      swap2\n      pop\n        /* \"#utility.yul\":8851:8917   */\n      0xffffffffffffffffffffffffffffffffffffffffffffffffffffffffffffffff\n        /* \"#utility.yul\":8844:8849   */\n      dup3\n        /* \"#utility.yul\":8841:8918   */\n      sub\n        /* \"#utility.yul\":8838:8941   */\n      tag_319\n      jumpi\n        /* \"#utility.yul\":8921:8939   */\n      tag_320\n      tag_180\n      jump\t// in\n    tag_320:\n        /* \"#utility.yul\":8838:8941   */\n    tag_319:\n        /* \"#utility.yul\":8968:8969   */\n      0x01\n        /* \"#utility.yul\":8961:8966   */\n      dup3\n        /* \"#utility.yul\":8957:8970   */\n      add\n        /* \"#utility.yul\":8950:8970   */\n      swap1\n      pop\n        /* \"#utility.yul\":8743:8976   */\n      swap2\n      swap1\n      pop\n      jump\t// out\n        /* \"#utility.yul\":8982:9314   */\n    tag_100:\n        /* \"#utility.yul\":9103:9107   */\n      0x00\n        /* \"#utility.yul\":9141:9143   */\n      0x40\n        /* \"#utility.yul\":9130:9139   */\n      dup3\n        /* \"#utility.yul\":9126:9144   */\n      add\n        /* \"#utility.yul\":9118:9144   */\n      swap1\n      pop\n        /* \"#utility.yul\":9154:9225   */\n      tag_322\n        /* \"#utility.yul\":9222:9223   */\n      0x00\n        /* \"#utility.yul\":9211:9220   */\n      dup4\n        /* \"#utility.yul\":9207:9224   */\n      add\n        /* \"#utility.yul\":9198:9204   */\n      dup6\n        /* \"#utility.yul\":9154:9225   */\n      tag_162\n      jump\t// in\n    tag_322:\n        /* \"#utility.yul\":9235:9307   */\n      tag_323\n        /* \"#utility.yul\":9303:9305   */\n      0x20\n        /* \"#utility.yul\":9292:9301   */\n      dup4\n        /* \"#utility.yul\":9288:9306   */\n      add\n        /* \"#utility.yul\":9279:9285   */\n      dup5\n        /* \"#utility.yul\":9235:9307   */\n      tag_163\n      jump\t// in\n    tag_323:\n        /* \"#utility.yul\":8982:9314   */\n      swap4\n      swap3\n      pop\n      pop\n      pop\n      jump\t// out\n        /* \"#utility.yul\":9320:9489   */\n    tag_181:\n        /* \"#utility.yul\":9404:9415   */\n      0x00\n        /* \"#utility.yul\":9438:9444   */\n      dup3\n        /* \"#utility.yul\":9433:9436   */\n      dup3\n        /* \"#utility.yul\":9426:9445   */\n      mstore\n        /* \"#utility.yul\":9478:9482   */\n      0x20\n        /* \"#utility.yul\":9473:9476   */\n      dup3\n        /* \"#utility.yul\":9469:9483   */\n      add\n        /* \"#utility.yul\":9454:9483   */\n      swap1\n      pop\n        /* \"#utility.yul\":9320:9489   */\n      swap3\n      swap2\n      pop\n      pop\n      jump\t// out\n        /* \"#utility.yul\":9495:9657   */\n    tag_182:\n        /* \"#utility.yul\":9635:9649   */\n      0x556e617574686f72697a65640000000000000000000000000000000000000000\n        /* \"#utility.yul\":9631:9632   */\n      0x00\n        /* \"#utility.yul\":9623:9629   */\n      dup3\n        /* \"#utility.yul\":9619:9633   */\n      add\n        /* \"#utility.yul\":9612:9650   */\n      mstore\n        /* \"#utility.yul\":9495:9657   */\n      pop\n      jump\t// out\n        /* \"#utility.yul\":9663:10029   */\n    tag_183:\n        /* \"#utility.yul\":9805:9808   */\n      0x00\n        /* \"#utility.yul\":9826:9893   */\n      tag_327\n        /* \"#utility.yul\":9890:9892   */\n      0x0c\n        /* \"#utility.yul\":9885:9888   */\n      dup4\n        /* \"#utility.yul\":9826:9893   */\n      tag_181\n      jump\t// in\n    tag_327:\n        /* \"#utility.yul\":9819:9893   */\n      swap2\n      pop\n        /* \"#utility.yul\":9902:9995   */\n      tag_328\n        /* \"#utility.yul\":9991:9994   */\n      dup3\n        /* \"#utility.yul\":9902:9995   */\n      tag_182\n      jump\t// in\n    tag_328:\n        /* \"#utility.yul\":10020:10022   */\n      0x20\n        /* \"#utility.yul\":10015:10018   */\n      dup3\n        /* \"#utility.yul\":10011:10023   */\n      add\n        /* \"#utility.yul\":10004:10023   */\n      swap1\n      pop\n        /* \"#utility.yul\":9663:10029   */\n      swap2\n      swap1\n      pop\n      jump\t// out\n        /* \"#utility.yul\":10035:10454   */\n    tag_104:\n        /* \"#utility.yul\":10201:10205   */\n      0x00\n        /* \"#utility.yul\":10239:10241   */\n      0x20\n        /* \"#utility.yul\":10228:10237   */\n      dup3\n        /* \"#utility.yul\":10224:10242   */\n      add\n        /* \"#utility.yul\":10216:10242   */\n      swap1\n      pop\n        /* \"#utility.yul\":10288:10297   */\n      dup2\n        /* \"#utility.yul\":10282:10286   */\n      dup2\n        /* \"#utility.yul\":10278:10298   */\n      sub\n        /* \"#utility.yul\":10274:10275   */\n      0x00\n        /* \"#utility.yul\":10263:10272   */\n      dup4\n        /* \"#utility.yul\":10259:10276   */\n      add\n        /* \"#utility.yul\":10252:10299   */\n      mstore\n        /* \"#utility.yul\":10316:10447   */\n      tag_330\n        /* \"#utility.yul\":10442:10446   */\n      dup2\n        /* \"#utility.yul\":10316:10447   */\n      tag_183\n      jump\t// in\n    tag_330:\n        /* \"#utility.yul\":10308:10447   */\n      swap1\n      pop\n        /* \"#utility.yul\":10035:10454   */\n      swap2\n      swap1\n      pop\n      jump\t// out\n        /* \"#utility.yul\":10460:10626   */\n    tag_184:\n        /* \"#utility.yul\":10600:10618   */\n      0x5369676e65727320726571756972656400000000000000000000000000000000\n        /* \"#utility.yul\":10596:10597   */\n      0x00\n        /* \"#utility.yul\":10588:10594   */\n      dup3\n        /* \"#utility.yul\":10584:10598   */\n      add\n        /* \"#utility.yul\":10577:10619   */\n      mstore\n        /* \"#utility.yul\":10460:10626   */\n      pop\n      jump\t// out\n        /* \"#utility.yul\":10632:10998   */\n    tag_185:\n        /* \"#utility.yul\":10774:10777   */\n      0x00\n        /* \"#utility.yul\":10795:10862   */\n      tag_333\n        /* \"#utility.yul\":10859:10861   */\n      0x10\n        /* \"#utility.yul\":10854:10857   */\n      dup4\n        /* \"#utility.yul\":10795:10862   */\n      tag_181\n      jump\t// in\n    tag_333:\n        /* \"#utility.yul\":10788:10862   */\n      swap2\n      pop\n        /* \"#utility.yul\":10871:10964   */\n      tag_334\n        /* \"#utility.yul\":10960:10963   */\n      dup3\n        /* \"#utility.yul\":10871:10964   */\n      tag_184\n      jump\t// in\n    tag_334:\n        /* \"#utility.yul\":10989:10991   */\n      0x20\n        /* \"#utility.yul\":10984:10987   */\n      dup3\n        /* \"#utility.yul\":10980:10992   */\n      add\n        /* \"#utility.yul\":10973:10992   */\n      swap1\n      pop\n        /* \"#utility.yul\":10632:10998   */\n      swap2\n      swap1\n      pop\n      jump\t// out\n        /* \"#utility.yul\":11004:11423   */\n    tag_108:\n        /* \"#utility.yul\":11170:11174   */\n      0x00\n        /* \"#utility.yul\":11208:11210   */\n      0x20\n        /* \"#utility.yul\":11197:11206   */\n      dup3\n        /* \"#utility.yul\":11193:11211   */\n      add\n        /* \"#utility.yul\":11185:11211   */\n      swap1\n      pop\n        /* \"#utility.yul\":11257:11266   */\n      dup2\n        /* \"#utility.yul\":11251:11255   */\n      dup2\n        /* \"#utility.yul\":11247:11267   */\n      sub\n        /* \"#utility.yul\":11243:11244   */\n      0x00\n        /* \"#utility.yul\":11232:11241   */\n      dup4\n        /* \"#utility.yul\":11228:11245   */\n      add\n        /* \"#utility.yul\":11221:11268   */\n      mstore\n        /* \"#utility.yul\":11285:11416   */\n      tag_336\n        /* \"#utility.yul\":11411:11415   */\n      dup2\n        /* \"#utility.yul\":11285:11416   */\n      tag_185\n      jump\t// in\n    tag_336:\n        /* \"#utility.yul\":11277:11416   */\n      swap1\n      pop\n        /* \"#utility.yul\":11004:11423   */\n      swap2\n      swap1\n      pop\n      jump\t// out\n        /* \"#utility.yul\":11429:11595   */\n    tag_186:\n        /* \"#utility.yul\":11569:11587   */\n      0x416d6f756e747320726571756972657300000000000000000000000000000000\n        /* \"#utility.yul\":11565:11566   */\n      0x00\n        /* \"#utility.yul\":11557:11563   */\n      dup3\n        /* \"#utility.yul\":11553:11567   */\n      add\n        /* \"#utility.yul\":11546:11588   */\n      mstore\n        /* \"#utility.yul\":11429:11595   */\n      pop\n      jump\t// out\n        /* \"#utility.yul\":11601:11967   */\n    tag_187:\n        /* \"#utility.yul\":11743:11746   */\n      0x00\n        /* \"#utility.yul\":11764:11831   */\n      tag_339\n        /* \"#utility.yul\":11828:11830   */\n      0x10\n        /* \"#utility.yul\":11823:11826   */\n      dup4\n        /* \"#utility.yul\":11764:11831   */\n      tag_181\n      jump\t// in\n    tag_339:\n        /* \"#utility.yul\":11757:11831   */\n      swap2\n      pop\n        /* \"#utility.yul\":11840:11933   */\n      tag_340\n        /* \"#utility.yul\":11929:11932   */\n      dup3\n        /* \"#utility.yul\":11840:11933   */\n      tag_186\n      jump\t// in\n    tag_340:\n        /* \"#utility.yul\":11958:11960   */\n      0x20\n        /* \"#utility.yul\":11953:11956   */\n      dup3\n        /* \"#utility.yul\":11949:11961   */\n      add\n        /* \"#utility.yul\":11942:11961   */\n      swap1\n      pop\n        /* \"#utility.yul\":11601:11967   */\n      swap2\n      swap1\n      pop\n      jump\t// out\n        /* \"#utility.yul\":11973:12392   */\n    tag_111:\n        /* \"#utility.yul\":12139:12143   */\n      0x00\n        /* \"#utility.yul\":12177:12179   */\n      0x20\n        /* \"#utility.yul\":12166:12175   */\n      dup3\n        /* \"#utility.yul\":12162:12180   */\n      add\n        /* \"#utility.yul\":12154:12180   */\n      swap1\n      pop\n        /* \"#utility.yul\":12226:12235   */\n      dup2\n        /* \"#utility.yul\":12220:12224   */\n      dup2\n        /* \"#utility.yul\":12216:12236   */\n      sub\n        /* \"#utility.yul\":12212:12213   */\n      0x00\n        /* \"#utility.yul\":12201:12210   */\n      dup4\n        /* \"#utility.yul\":12197:12214   */\n      add\n        /* \"#utility.yul\":12190:12237   */\n      mstore\n        /* \"#utility.yul\":12254:12385   */\n      tag_342\n        /* \"#utility.yul\":12380:12384   */\n      dup2\n        /* \"#utility.yul\":12254:12385   */\n      tag_187\n      jump\t// in\n    tag_342:\n        /* \"#utility.yul\":12246:12385   */\n      swap1\n      pop\n        /* \"#utility.yul\":11973:12392   */\n      swap2\n      swap1\n      pop\n      jump\t// out\n        /* \"#utility.yul\":12398:12568   */\n    tag_188:\n        /* \"#utility.yul\":12538:12560   */\n      0x496e76616c696420696e707574206c656e677468000000000000000000000000\n        /* \"#utility.yul\":12534:12535   */\n      0x00\n        /* \"#utility.yul\":12526:12532   */\n      dup3\n        /* \"#utility.yul\":12522:12536   */\n      add\n        /* \"#utility.yul\":12515:12561   */\n      mstore\n        /* \"#utility.yul\":12398:12568   */\n      pop\n      jump\t// out\n        /* \"#utility.yul\":12574:12940   */\n    tag_189:\n        /* \"#utility.yul\":12716:12719   */\n      0x00\n        /* \"#utility.yul\":12737:12804   */\n      tag_345\n        /* \"#utility.yul\":12801:12803   */\n      0x14\n        /* \"#utility.yul\":12796:12799   */\n      dup4\n        /* \"#utility.yul\":12737:12804   */\n      tag_181\n      jump\t// in\n    tag_345:\n        /* \"#utility.yul\":12730:12804   */\n      swap2\n      pop\n        /* \"#utility.yul\":12813:12906   */\n      tag_346\n        /* \"#utility.yul\":12902:12905   */\n      dup3\n        /* \"#utility.yul\":12813:12906   */\n      tag_188\n      jump\t// in\n    tag_346:\n        /* \"#utility.yul\":12931:12933   */\n      0x20\n        /* \"#utility.yul\":12926:12929   */\n      dup3\n        /* \"#utility.yul\":12922:12934   */\n      add\n        /* \"#utility.yul\":12915:12934   */\n      swap1\n      pop\n        /* \"#utility.yul\":12574:12940   */\n      swap2\n      swap1\n      pop\n      jump\t// out\n        /* \"#utility.yul\":12946:13365   */\n    tag_114:\n        /* \"#utility.yul\":13112:13116   */\n      0x00\n        /* \"#utility.yul\":13150:13152   */\n      0x20\n        /* \"#utility.yul\":13139:13148   */\n      dup3\n        /* \"#utility.yul\":13135:13153   */\n      add\n        /* \"#utility.yul\":13127:13153   */\n      swap1\n      pop\n        /* \"#utility.yul\":13199:13208   */\n      dup2\n        /* \"#utility.yul\":13193:13197   */\n      dup2\n        /* \"#utility.yul\":13189:13209   */\n      sub\n        /* \"#utility.yul\":13185:13186   */\n      0x00\n        /* \"#utility.yul\":13174:13183   */\n      dup4\n        /* \"#utility.yul\":13170:13187   */\n      add\n        /* \"#utility.yul\":13163:13210   */\n      mstore\n        /* \"#utility.yul\":13227:13358   */\n      tag_348\n        /* \"#utility.yul\":13353:13357   */\n      dup2\n        /* \"#utility.yul\":13227:13358   */\n      tag_189\n      jump\t// in\n    tag_348:\n        /* \"#utility.yul\":13219:13358   */\n      swap1\n      pop\n        /* \"#utility.yul\":12946:13365   */\n      swap2\n      swap1\n      pop\n      jump\t// out\n        /* \"#utility.yul\":13371:13450   */\n    tag_190:\n        /* \"#utility.yul\":13410:13417   */\n      0x00\n        /* \"#utility.yul\":13439:13444   */\n      dup2\n        /* \"#utility.yul\":13428:13444   */\n      swap1\n      pop\n        /* \"#utility.yul\":13371:13450   */\n      swap2\n      swap1\n      pop\n      jump\t// out\n        /* \"#utility.yul\":13456:13613   */\n    tag_191:\n        /* \"#utility.yul\":13561:13606   */\n      tag_351\n        /* \"#utility.yul\":13581:13605   */\n      tag_352\n        /* \"#utility.yul\":13599:13604   */\n      dup3\n        /* \"#utility.yul\":13581:13605   */\n      tag_157\n      jump\t// in\n    tag_352:\n        /* \"#utility.yul\":13561:13606   */\n      tag_190\n      jump\t// in\n    tag_351:\n        /* \"#utility.yul\":13556:13559   */\n      dup3\n        /* \"#utility.yul\":13549:13607   */\n      mstore\n        /* \"#utility.yul\":13456:13613   */\n      pop\n      pop\n      jump\t// out\n        /* \"#utility.yul\":13619:13713   */\n    tag_192:\n        /* \"#utility.yul\":13652:13660   */\n      0x00\n        /* \"#utility.yul\":13700:13705   */\n      dup2\n        /* \"#utility.yul\":13696:13698   */\n      0x60\n        /* \"#utility.yul\":13692:13706   */\n      shl\n        /* \"#utility.yul\":13671:13706   */\n      swap1\n      pop\n        /* \"#utility.yul\":13619:13713   */\n      swap2\n      swap1\n      pop\n      jump\t// out\n        /* \"#utility.yul\":13719:13813   */\n    tag_193:\n        /* \"#utility.yul\":13758:13765   */\n      0x00\n        /* \"#utility.yul\":13787:13807   */\n      tag_355\n        /* \"#utility.yul\":13801:13806   */\n      dup3\n        /* \"#utility.yul\":13787:13807   */\n      tag_192\n      jump\t// in\n    tag_355:\n        /* \"#utility.yul\":13776:13807   */\n      swap1\n      pop\n        /* \"#utility.yul\":13719:13813   */\n      swap2\n      swap1\n      pop\n      jump\t// out\n        /* \"#utility.yul\":13819:13919   */\n    tag_194:\n        /* \"#utility.yul\":13858:13865   */\n      0x00\n        /* \"#utility.yul\":13887:13913   */\n      tag_357\n        /* \"#utility.yul\":13907:13912   */\n      dup3\n        /* \"#utility.yul\":13887:13913   */\n      tag_193\n      jump\t// in\n    tag_357:\n        /* \"#utility.yul\":13876:13913   */\n      swap1\n      pop\n        /* \"#utility.yul\":13819:13919   */\n      swap2\n      swap1\n      pop\n      jump\t// out\n        /* \"#utility.yul\":13925:14082   */\n    tag_195:\n        /* \"#utility.yul\":14030:14075   */\n      tag_359\n        /* \"#utility.yul\":14050:14074   */\n      tag_360\n        /* \"#utility.yul\":14068:14073   */\n      dup3\n        /* \"#utility.yul\":14050:14074   */\n      tag_161\n      jump\t// in\n    tag_360:\n        /* \"#utility.yul\":14030:14075   */\n      tag_194\n      jump\t// in\n    tag_359:\n        /* \"#utility.yul\":14025:14028   */\n      dup3\n        /* \"#utility.yul\":14018:14076   */\n      mstore\n        /* \"#utility.yul\":13925:14082   */\n      pop\n      pop\n      jump\t// out\n        /* \"#utility.yul\":14088:14626   */\n    tag_116:\n        /* \"#utility.yul\":14256:14259   */\n      0x00\n        /* \"#utility.yul\":14271:14346   */\n      tag_362\n        /* \"#utility.yul\":14342:14345   */\n      dup3\n        /* \"#utility.yul\":14333:14339   */\n      dup7\n        /* \"#utility.yul\":14271:14346   */\n      tag_191\n      jump\t// in\n    tag_362:\n        /* \"#utility.yul\":14371:14373   */\n      0x20\n        /* \"#utility.yul\":14366:14369   */\n      dup3\n        /* \"#utility.yul\":14362:14374   */\n      add\n        /* \"#utility.yul\":14355:14374   */\n      swap2\n      pop\n        /* \"#utility.yul\":14384:14459   */\n      tag_363\n        /* \"#utility.yul\":14455:14458   */\n      dup3\n        /* \"#utility.yul\":14446:14452   */\n      dup6\n        /* \"#utility.yul\":14384:14459   */\n      tag_191\n      jump\t// in\n    tag_363:\n        /* \"#utility.yul\":14484:14486   */\n      0x20\n        /* \"#utility.yul\":14479:14482   */\n      dup3\n        /* \"#utility.yul\":14475:14487   */\n      add\n        /* \"#utility.yul\":14468:14487   */\n      swap2\n      pop\n        /* \"#utility.yul\":14497:14572   */\n      tag_364\n        /* \"#utility.yul\":14568:14571   */\n      dup3\n        /* \"#utility.yul\":14559:14565   */\n      dup5\n        /* \"#utility.yul\":14497:14572   */\n      tag_195\n      jump\t// in\n    tag_364:\n        /* \"#utility.yul\":14597:14599   */\n      0x14\n        /* \"#utility.yul\":14592:14595   */\n      dup3\n        /* \"#utility.yul\":14588:14600   */\n      add\n        /* \"#utility.yul\":14581:14600   */\n      swap2\n      pop\n        /* \"#utility.yul\":14617:14620   */\n      dup2\n        /* \"#utility.yul\":14610:14620   */\n      swap1\n      pop\n        /* \"#utility.yul\":14088:14626   */\n      swap5\n      swap4\n      pop\n      pop\n      pop\n      pop\n      jump\t// out\n        /* \"#utility.yul\":14632:14796   */\n    tag_196:\n        /* \"#utility.yul\":14772:14788   */\n      0x4f6e76616c6964207369676e6572000000000000000000000000000000000000\n        /* \"#utility.yul\":14768:14769   */\n      0x00\n        /* \"#utility.yul\":14760:14766   */\n      dup3\n        /* \"#utility.yul\":14756:14770   */\n      add\n        /* \"#utility.yul\":14749:14789   */\n      mstore\n        /* \"#utility.yul\":14632:14796   */\n      pop\n      jump\t// out\n        /* \"#utility.yul\":14802:15168   */\n    tag_197:\n        /* \"#utility.yul\":14944:14947   */\n      0x00\n        /* \"#utility.yul\":14965:15032   */\n      tag_367\n        /* \"#utility.yul\":15029:15031   */\n      0x0e\n        /* \"#utility.yul\":15024:15027   */\n      dup4\n        /* \"#utility.yul\":14965:15032   */\n      tag_181\n      jump\t// in\n    tag_367:\n        /* \"#utility.yul\":14958:15032   */\n      swap2\n      pop\n        /* \"#utility.yul\":15041:15134   */\n      tag_368\n        /* \"#utility.yul\":15130:15133   */\n      dup3\n        /* \"#utility.yul\":15041:15134   */\n      tag_196\n      jump\t// in\n    tag_368:\n        /* \"#utility.yul\":15159:15161   */\n      0x20\n        /* \"#utility.yul\":15154:15157   */\n      dup3\n        /* \"#utility.yul\":15150:15162   */\n      add\n        /* \"#utility.yul\":15143:15162   */\n      swap1\n      pop\n        /* \"#utility.yul\":14802:15168   */\n      swap2\n      swap1\n      pop\n      jump\t// out\n        /* \"#utility.yul\":15174:15593   */\n    tag_124:\n        /* \"#utility.yul\":15340:15344   */\n      0x00\n        /* \"#utility.yul\":15378:15380   */\n      0x20\n        /* \"#utility.yul\":15367:15376   */\n      dup3\n        /* \"#utility.yul\":15363:15381   */\n      add\n        /* \"#utility.yul\":15355:15381   */\n      swap1\n      pop\n        /* \"#utility.yul\":15427:15436   */\n      dup2\n        /* \"#utility.yul\":15421:15425   */\n      dup2\n        /* \"#utility.yul\":15417:15437   */\n      sub\n        /* \"#utility.yul\":15413:15414   */\n      0x00\n        /* \"#utility.yul\":15402:15411   */\n      dup4\n        /* \"#utility.yul\":15398:15415   */\n      add\n        /* \"#utility.yul\":15391:15438   */\n      mstore\n        /* \"#utility.yul\":15455:15586   */\n      tag_370\n        /* \"#utility.yul\":15581:15585   */\n      dup2\n        /* \"#utility.yul\":15455:15586   */\n      tag_197\n      jump\t// in\n    tag_370:\n        /* \"#utility.yul\":15447:15586   */\n      swap1\n      pop\n        /* \"#utility.yul\":15174:15593   */\n      swap2\n      swap1\n      pop\n      jump\t// out\n        /* \"#utility.yul\":15599:15765   */\n    tag_198:\n        /* \"#utility.yul\":15739:15757   */\n      0x4475706c6963617465205369676e657200000000000000000000000000000000\n        /* \"#utility.yul\":15735:15736   */\n      0x00\n        /* \"#utility.yul\":15727:15733   */\n      dup3\n        /* \"#utility.yul\":15723:15737   */\n      add\n        /* \"#utility.yul\":15716:15758   */\n      mstore\n        /* \"#utility.yul\":15599:15765   */\n      pop\n      jump\t// out\n        /* \"#utility.yul\":15771:16137   */\n    tag_199:\n        /* \"#utility.yul\":15913:15916   */\n      0x00\n        /* \"#utility.yul\":15934:16001   */\n      tag_373\n        /* \"#utility.yul\":15998:16000   */\n      0x10\n        /* \"#utility.yul\":15993:15996   */\n      dup4\n        /* \"#utility.yul\":15934:16001   */\n      tag_181\n      jump\t// in\n    tag_373:\n        /* \"#utility.yul\":15927:16001   */\n      swap2\n      pop\n        /* \"#utility.yul\":16010:16103   */\n      tag_374\n        /* \"#utility.yul\":16099:16102   */\n      dup3\n        /* \"#utility.yul\":16010:16103   */\n      tag_198\n      jump\t// in\n    tag_374:\n        /* \"#utility.yul\":16128:16130   */\n      0x20\n        /* \"#utility.yul\":16123:16126   */\n      dup3\n        /* \"#utility.yul\":16119:16131   */\n      add\n        /* \"#utility.yul\":16112:16131   */\n      swap1\n      pop\n        /* \"#utility.yul\":15771:16137   */\n      swap2\n      swap1\n      pop\n      jump\t// out\n        /* \"#utility.yul\":16143:16562   */\n    tag_127:\n        /* \"#utility.yul\":16309:16313   */\n      0x00\n        /* \"#utility.yul\":16347:16349   */\n      0x20\n        /* \"#utility.yul\":16336:16345   */\n      dup3\n        /* \"#utility.yul\":16332:16350   */\n      add\n        /* \"#utility.yul\":16324:16350   */\n      swap1\n      pop\n        /* \"#utility.yul\":16396:16405   */\n      dup2\n        /* \"#utility.yul\":16390:16394   */\n      dup2\n        /* \"#utility.yul\":16386:16406   */\n      sub\n        /* \"#utility.yul\":16382:16383   */\n      0x00\n        /* \"#utility.yul\":16371:16380   */\n      dup4\n        /* \"#utility.yul\":16367:16384   */\n      add\n        /* \"#utility.yul\":16360:16407   */\n      mstore\n        /* \"#utility.yul\":16424:16555   */\n      tag_376\n        /* \"#utility.yul\":16550:16554   */\n      dup2\n        /* \"#utility.yul\":16424:16555   */\n      tag_199\n      jump\t// in\n    tag_376:\n        /* \"#utility.yul\":16416:16555   */\n      swap1\n      pop\n        /* \"#utility.yul\":16143:16562   */\n      swap2\n      swap1\n      pop\n      jump\t// out\n        /* \"#utility.yul\":16568:16759   */\n    tag_135:\n        /* \"#utility.yul\":16608:16611   */\n      0x00\n        /* \"#utility.yul\":16627:16647   */\n      tag_378\n        /* \"#utility.yul\":16645:16646   */\n      dup3\n        /* \"#utility.yul\":16627:16647   */\n      tag_157\n      jump\t// in\n    tag_378:\n        /* \"#utility.yul\":16622:16647   */\n      swap2\n      pop\n        /* \"#utility.yul\":16661:16681   */\n      tag_379\n        /* \"#utility.yul\":16679:16680   */\n      dup4\n        /* \"#utility.yul\":16661:16681   */\n      tag_157\n      jump\t// in\n    tag_379:\n        /* \"#utility.yul\":16656:16681   */\n      swap3\n      pop\n        /* \"#utility.yul\":16704:16705   */\n      dup3\n        /* \"#utility.yul\":16701:16702   */\n      dup3\n        /* \"#utility.yul\":16697:16706   */\n      add\n        /* \"#utility.yul\":16690:16706   */\n      swap1\n      pop\n        /* \"#utility.yul\":16725:16728   */\n      dup1\n        /* \"#utility.yul\":16722:16723   */\n      dup3\n        /* \"#utility.yul\":16719:16729   */\n      gt\n        /* \"#utility.yul\":16716:16752   */\n      iszero\n      tag_380\n      jumpi\n        /* \"#utility.yul\":16732:16750   */\n      tag_381\n      tag_180\n      jump\t// in\n    tag_381:\n        /* \"#utility.yul\":16716:16752   */\n    tag_380:\n        /* \"#utility.yul\":16568:16759   */\n      swap3\n      swap2\n      pop\n      pop\n      jump\t// out\n        /* \"#utility.yul\":16765:16879   */\n    tag_200:\n        /* \"#utility.yul\":16832:16838   */\n      0x00\n        /* \"#utility.yul\":16866:16871   */\n      dup2\n        /* \"#utility.yul\":16860:16872   */\n      mload\n        /* \"#utility.yul\":16850:16872   */\n      swap1\n      pop\n        /* \"#utility.yul\":16765:16879   */\n      swap2\n      swap1\n      pop\n      jump\t// out\n        /* \"#utility.yul\":16885:17069   */\n    tag_201:\n        /* \"#utility.yul\":16984:16995   */\n      0x00\n        /* \"#utility.yul\":17018:17024   */\n      dup3\n        /* \"#utility.yul\":17013:17016   */\n      dup3\n        /* \"#utility.yul\":17006:17025   */\n      mstore\n        /* \"#utility.yul\":17058:17062   */\n      0x20\n        /* \"#utility.yul\":17053:17056   */\n      dup3\n        /* \"#utility.yul\":17049:17063   */\n      add\n        /* \"#utility.yul\":17034:17063   */\n      swap1\n      pop\n        /* \"#utility.yul\":16885:17069   */\n      swap3\n      swap2\n      pop\n      pop\n      jump\t// out\n        /* \"#utility.yul\":17075:17207   */\n    tag_202:\n        /* \"#utility.yul\":17142:17146   */\n      0x00\n        /* \"#utility.yul\":17165:17168   */\n      dup2\n        /* \"#utility.yul\":17157:17168   */\n      swap1\n      pop\n        /* \"#utility.yul\":17195:17199   */\n      0x20\n        /* \"#utility.yul\":17190:17193   */\n      dup3\n        /* \"#utility.yul\":17186:17200   */\n      add\n        /* \"#utility.yul\":17178:17200   */\n      swap1\n      pop\n        /* \"#utility.yul\":17075:17207   */\n      swap2\n      swap1\n      pop\n      jump\t// out\n        /* \"#utility.yul\":17213:17321   */\n    tag_203:\n        /* \"#utility.yul\":17290:17314   */\n      tag_386\n        /* \"#utility.yul\":17308:17313   */\n      dup2\n        /* \"#utility.yul\":17290:17314   */\n      tag_161\n      jump\t// in\n    tag_386:\n        /* \"#utility.yul\":17285:17288   */\n      dup3\n        /* \"#utility.yul\":17278:17315   */\n      mstore\n        /* \"#utility.yul\":17213:17321   */\n      pop\n      pop\n      jump\t// out\n        /* \"#utility.yul\":17327:17506   */\n    tag_204:\n        /* \"#utility.yul\":17396:17406   */\n      0x00\n        /* \"#utility.yul\":17417:17463   */\n      tag_388\n        /* \"#utility.yul\":17459:17462   */\n      dup4\n        /* \"#utility.yul\":17451:17457   */\n      dup4\n        /* \"#utility.yul\":17417:17463   */\n      tag_203\n      jump\t// in\n    tag_388:\n        /* \"#utility.yul\":17495:17499   */\n      0x20\n        /* \"#utility.yul\":17490:17493   */\n      dup4\n        /* \"#utility.yul\":17486:17500   */\n      add\n        /* \"#utility.yul\":17472:17500   */\n      swap1\n      pop\n        /* \"#utility.yul\":17327:17506   */\n      swap3\n      swap2\n      pop\n      pop\n      jump\t// out\n        /* \"#utility.yul\":17512:17625   */\n    tag_205:\n        /* \"#utility.yul\":17582:17586   */\n      0x00\n        /* \"#utility.yul\":17614:17618   */\n      0x20\n        /* \"#utility.yul\":17609:17612   */\n      dup3\n        /* \"#utility.yul\":17605:17619   */\n      add\n        /* \"#utility.yul\":17597:17619   */\n      swap1\n      pop\n        /* \"#utility.yul\":17512:17625   */\n      swap2\n      swap1\n      pop\n      jump\t// out\n        /* \"#utility.yul\":17661:18393   */\n    tag_206:\n        /* \"#utility.yul\":17780:17783   */\n      0x00\n        /* \"#utility.yul\":17809:17863   */\n      tag_391\n        /* \"#utility.yul\":17857:17862   */\n      dup3\n        /* \"#utility.yul\":17809:17863   */\n      tag_200\n      jump\t// in\n    tag_391:\n        /* \"#utility.yul\":17879:17965   */\n      tag_392\n        /* \"#utility.yul\":17958:17964   */\n      dup2\n        /* \"#utility.yul\":17953:17956   */\n      dup6\n        /* \"#utility.yul\":17879:17965   */\n      tag_201\n      jump\t// in\n    tag_392:\n        /* \"#utility.yul\":17872:17965   */\n      swap4\n      pop\n        /* \"#utility.yul\":17989:18045   */\n      tag_393\n        /* \"#utility.yul\":18039:18044   */\n      dup4\n        /* \"#utility.yul\":17989:18045   */\n      tag_202\n      jump\t// in\n    tag_393:\n        /* \"#utility.yul\":18068:18075   */\n      dup1\n        /* \"#utility.yul\":18099:18100   */\n      0x00\n        /* \"#utility.yul\":18084:18368   */\n    tag_394:\n        /* \"#utility.yul\":18109:18115   */\n      dup4\n        /* \"#utility.yul\":18106:18107   */\n      dup2\n        /* \"#utility.yul\":18103:18116   */\n      lt\n        /* \"#utility.yul\":18084:18368   */\n      iszero\n      tag_396\n      jumpi\n        /* \"#utility.yul\":18185:18191   */\n      dup2\n        /* \"#utility.yul\":18179:18192   */\n      mload\n        /* \"#utility.yul\":18212:18275   */\n      tag_397\n        /* \"#utility.yul\":18271:18274   */\n      dup9\n        /* \"#utility.yul\":18256:18269   */\n      dup3\n        /* \"#utility.yul\":18212:18275   */\n      tag_204\n      jump\t// in\n    tag_397:\n        /* \"#utility.yul\":18205:18275   */\n      swap8\n      pop\n        /* \"#utility.yul\":18298:18358   */\n      tag_398\n        /* \"#utility.yul\":18351:18357   */\n      dup4\n        /* \"#utility.yul\":18298:18358   */\n      tag_205\n      jump\t// in\n    tag_398:\n        /* \"#utility.yul\":18288:18358   */\n      swap3\n      pop\n        /* \"#utility.yul\":18144:18368   */\n      pop\n        /* \"#utility.yul\":18131:18132   */\n      0x01\n        /* \"#utility.yul\":18128:18129   */\n      dup2\n        /* \"#utility.yul\":18124:18133   */\n      add\n        /* \"#utility.yul\":18119:18133   */\n      swap1\n      pop\n        /* \"#utility.yul\":18084:18368   */\n      jump(tag_394)\n    tag_396:\n        /* \"#utility.yul\":18088:18102   */\n      pop\n        /* \"#utility.yul\":18384:18387   */\n      dup6\n        /* \"#utility.yul\":18377:18387   */\n      swap4\n      pop\n        /* \"#utility.yul\":17785:18393   */\n      pop\n      pop\n      pop\n        /* \"#utility.yul\":17661:18393   */\n      swap3\n      swap2\n      pop\n      pop\n      jump\t// out\n        /* \"#utility.yul\":18399:18513   */\n    tag_207:\n        /* \"#utility.yul\":18466:18472   */\n      0x00\n        /* \"#utility.yul\":18500:18505   */\n      dup2\n        /* \"#utility.yul\":18494:18506   */\n      mload\n        /* \"#utility.yul\":18484:18506   */\n      swap1\n      pop\n        /* \"#utility.yul\":18399:18513   */\n      swap2\n      swap1\n      pop\n      jump\t// out\n        /* \"#utility.yul\":18519:18703   */\n    tag_208:\n        /* \"#utility.yul\":18618:18629   */\n      0x00\n        /* \"#utility.yul\":18652:18658   */\n      dup3\n        /* \"#utility.yul\":18647:18650   */\n      dup3\n        /* \"#utility.yul\":18640:18659   */\n      mstore\n        /* \"#utility.yul\":18692:18696   */\n      0x20\n        /* \"#utility.yul\":18687:18690   */\n      dup3\n        /* \"#utility.yul\":18683:18697   */\n      add\n        /* \"#utility.yul\":18668:18697   */\n      swap1\n      pop\n        /* \"#utility.yul\":18519:18703   */\n      swap3\n      swap2\n      pop\n      pop\n      jump\t// out\n        /* \"#utility.yul\":18709:18841   */\n    tag_209:\n        /* \"#utility.yul\":18776:18780   */\n      0x00\n        /* \"#utility.yul\":18799:18802   */\n      dup2\n        /* \"#utility.yul\":18791:18802   */\n      swap1\n      pop\n        /* \"#utility.yul\":18829:18833   */\n      0x20\n        /* \"#utility.yul\":18824:18827   */\n      dup3\n        /* \"#utility.yul\":18820:18834   */\n      add\n        /* \"#utility.yul\":18812:18834   */\n      swap1\n      pop\n        /* \"#utility.yul\":18709:18841   */\n      swap2\n      swap1\n      pop\n      jump\t// out\n        /* \"#utility.yul\":18847:18955   */\n    tag_210:\n        /* \"#utility.yul\":18924:18948   */\n      tag_403\n        /* \"#utility.yul\":18942:18947   */\n      dup2\n        /* \"#utility.yul\":18924:18948   */\n      tag_157\n      jump\t// in\n    tag_403:\n        /* \"#utility.yul\":18919:18922   */\n      dup3\n        /* \"#utility.yul\":18912:18949   */\n      mstore\n        /* \"#utility.yul\":18847:18955   */\n      pop\n      pop\n      jump\t// out\n        /* \"#utility.yul\":18961:19140   */\n    tag_211:\n        /* \"#utility.yul\":19030:19040   */\n      0x00\n        /* \"#utility.yul\":19051:19097   */\n      tag_405\n        /* \"#utility.yul\":19093:19096   */\n      dup4\n        /* \"#utility.yul\":19085:19091   */\n      dup4\n        /* \"#utility.yul\":19051:19097   */\n      tag_210\n      jump\t// in\n    tag_405:\n        /* \"#utility.yul\":19129:19133   */\n      0x20\n        /* \"#utility.yul\":19124:19127   */\n      dup4\n        /* \"#utility.yul\":19120:19134   */\n      add\n        /* \"#utility.yul\":19106:19134   */\n      swap1\n      pop\n        /* \"#utility.yul\":18961:19140   */\n      swap3\n      swap2\n      pop\n      pop\n      jump\t// out\n        /* \"#utility.yul\":19146:19259   */\n    tag_212:\n        /* \"#utility.yul\":19216:19220   */\n      0x00\n        /* \"#utility.yul\":19248:19252   */\n      0x20\n        /* \"#utility.yul\":19243:19246   */\n      dup3\n        /* \"#utility.yul\":19239:19253   */\n      add\n        /* \"#utility.yul\":19231:19253   */\n      swap1\n      pop\n        /* \"#utility.yul\":19146:19259   */\n      swap2\n      swap1\n      pop\n      jump\t// out\n        /* \"#utility.yul\":19295:20027   */\n    tag_213:\n        /* \"#utility.yul\":19414:19417   */\n      0x00\n        /* \"#utility.yul\":19443:19497   */\n      tag_408\n        /* \"#utility.yul\":19491:19496   */\n      dup3\n        /* \"#utility.yul\":19443:19497   */\n      tag_207\n      jump\t// in\n    tag_408:\n        /* \"#utility.yul\":19513:19599   */\n      tag_409\n        /* \"#utility.yul\":19592:19598   */\n      dup2\n        /* \"#utility.yul\":19587:19590   */\n      dup6\n        /* \"#utility.yul\":19513:19599   */\n      tag_208\n      jump\t// in\n    tag_409:\n        /* \"#utility.yul\":19506:19599   */\n      swap4\n      pop\n        /* \"#utility.yul\":19623:19679   */\n      tag_410\n        /* \"#utility.yul\":19673:19678   */\n      dup4\n        /* \"#utility.yul\":19623:19679   */\n      tag_209\n      jump\t// in\n    tag_410:\n        /* \"#utility.yul\":19702:19709   */\n      dup1\n        /* \"#utility.yul\":19733:19734   */\n      0x00\n        /* \"#utility.yul\":19718:20002   */\n    tag_411:\n        /* \"#utility.yul\":19743:19749   */\n      dup4\n        /* \"#utility.yul\":19740:19741   */\n      dup2\n        /* \"#utility.yul\":19737:19750   */\n      lt\n        /* \"#utility.yul\":19718:20002   */\n      iszero\n      tag_413\n      jumpi\n        /* \"#utility.yul\":19819:19825   */\n      dup2\n        /* \"#utility.yul\":19813:19826   */\n      mload\n        /* \"#utility.yul\":19846:19909   */\n      tag_414\n        /* \"#utility.yul\":19905:19908   */\n      dup9\n        /* \"#utility.yul\":19890:19903   */\n      dup3\n        /* \"#utility.yul\":19846:19909   */\n      tag_211\n      jump\t// in\n    tag_414:\n        /* \"#utility.yul\":19839:19909   */\n      swap8\n      pop\n        /* \"#utility.yul\":19932:19992   */\n      tag_415\n        /* \"#utility.yul\":19985:19991   */\n      dup4\n        /* \"#utility.yul\":19932:19992   */\n      tag_212\n      jump\t// in\n    tag_415:\n        /* \"#utility.yul\":19922:19992   */\n      swap3\n      pop\n        /* \"#utility.yul\":19778:20002   */\n      pop\n        /* \"#utility.yul\":19765:19766   */\n      0x01\n        /* \"#utility.yul\":19762:19763   */\n      dup2\n        /* \"#utility.yul\":19758:19767   */\n      add\n        /* \"#utility.yul\":19753:19767   */\n      swap1\n      pop\n        /* \"#utility.yul\":19718:20002   */\n      jump(tag_411)\n    tag_413:\n        /* \"#utility.yul\":19722:19736   */\n      pop\n        /* \"#utility.yul\":20018:20021   */\n      dup6\n        /* \"#utility.yul\":20011:20021   */\n      swap4\n      pop\n        /* \"#utility.yul\":19419:20027   */\n      pop\n      pop\n      pop\n        /* \"#utility.yul\":19295:20027   */\n      swap3\n      swap2\n      pop\n      pop\n      jump\t// out\n        /* \"#utility.yul\":20033:20777   */\n    tag_138:\n        /* \"#utility.yul\":20282:20286   */\n      0x00\n        /* \"#utility.yul\":20320:20322   */\n      0x60\n        /* \"#utility.yul\":20309:20318   */\n      dup3\n        /* \"#utility.yul\":20305:20323   */\n      add\n        /* \"#utility.yul\":20297:20323   */\n      swap1\n      pop\n        /* \"#utility.yul\":20369:20378   */\n      dup2\n        /* \"#utility.yul\":20363:20367   */\n      dup2\n        /* \"#utility.yul\":20359:20379   */\n      sub\n        /* \"#utility.yul\":20355:20356   */\n      0x00\n        /* \"#utility.yul\":20344:20353   */\n      dup4\n        /* \"#utility.yul\":20340:20357   */\n      add\n        /* \"#utility.yul\":20333:20380   */\n      mstore\n        /* \"#utility.yul\":20397:20505   */\n      tag_417\n        /* \"#utility.yul\":20500:20504   */\n      dup2\n        /* \"#utility.yul\":20491:20497   */\n      dup7\n        /* \"#utility.yul\":20397:20505   */\n      tag_206\n      jump\t// in\n    tag_417:\n        /* \"#utility.yul\":20389:20505   */\n      swap1\n      pop\n        /* \"#utility.yul\":20552:20561   */\n      dup2\n        /* \"#utility.yul\":20546:20550   */\n      dup2\n        /* \"#utility.yul\":20542:20562   */\n      sub\n        /* \"#utility.yul\":20537:20539   */\n      0x20\n        /* \"#utility.yul\":20526:20535   */\n      dup4\n        /* \"#utility.yul\":20522:20540   */\n      add\n        /* \"#utility.yul\":20515:20563   */\n      mstore\n        /* \"#utility.yul\":20580:20688   */\n      tag_418\n        /* \"#utility.yul\":20683:20687   */\n      dup2\n        /* \"#utility.yul\":20674:20680   */\n      dup6\n        /* \"#utility.yul\":20580:20688   */\n      tag_213\n      jump\t// in\n    tag_418:\n        /* \"#utility.yul\":20572:20688   */\n      swap1\n      pop\n        /* \"#utility.yul\":20698:20770   */\n      tag_419\n        /* \"#utility.yul\":20766:20768   */\n      0x40\n        /* \"#utility.yul\":20755:20764   */\n      dup4\n        /* \"#utility.yul\":20751:20769   */\n      add\n        /* \"#utility.yul\":20742:20748   */\n      dup5\n        /* \"#utility.yul\":20698:20770   */\n      tag_162\n      jump\t// in\n    tag_419:\n        /* \"#utility.yul\":20033:20777   */\n      swap5\n      swap4\n      pop\n      pop\n      pop\n      pop\n      jump\t// out\n        /* \"#utility.yul\":20783:20957   */\n    tag_214:\n        /* \"#utility.yul\":20923:20949   */\n      0x5472616e73616374696f6e206e6f7420617070726f7665640000000000000000\n        /* \"#utility.yul\":20919:20920   */\n      0x00\n        /* \"#utility.yul\":20911:20917   */\n      dup3\n        /* \"#utility.yul\":20907:20921   */\n      add\n        /* \"#utility.yul\":20900:20950   */\n      mstore\n        /* \"#utility.yul\":20783:20957   */\n      pop\n      jump\t// out\n        /* \"#utility.yul\":20963:21329   */\n    tag_215:\n        /* \"#utility.yul\":21105:21108   */\n      0x00\n        /* \"#utility.yul\":21126:21193   */\n      tag_422\n        /* \"#utility.yul\":21190:21192   */\n      0x18\n        /* \"#utility.yul\":21185:21188   */\n      dup4\n        /* \"#utility.yul\":21126:21193   */\n      tag_181\n      jump\t// in\n    tag_422:\n        /* \"#utility.yul\":21119:21193   */\n      swap2\n      pop\n        /* \"#utility.yul\":21202:21295   */\n      tag_423\n        /* \"#utility.yul\":21291:21294   */\n      dup3\n        /* \"#utility.yul\":21202:21295   */\n      tag_214\n      jump\t// in\n    tag_423:\n        /* \"#utility.yul\":21320:21322   */\n      0x20\n        /* \"#utility.yul\":21315:21318   */\n      dup3\n        /* \"#utility.yul\":21311:21323   */\n      add\n        /* \"#utility.yul\":21304:21323   */\n      swap1\n      pop\n        /* \"#utility.yul\":20963:21329   */\n      swap2\n      swap1\n      pop\n      jump\t// out\n        /* \"#utility.yul\":21335:21754   */\n    tag_146:\n        /* \"#utility.yul\":21501:21505   */\n      0x00\n        /* \"#utility.yul\":21539:21541   */\n      0x20\n        /* \"#utility.yul\":21528:21537   */\n      dup3\n        /* \"#utility.yul\":21524:21542   */\n      add\n        /* \"#utility.yul\":21516:21542   */\n      swap1\n      pop\n        /* \"#utility.yul\":21588:21597   */\n      dup2\n        /* \"#utility.yul\":21582:21586   */\n      dup2\n        /* \"#utility.yul\":21578:21598   */\n      sub\n        /* \"#utility.yul\":21574:21575   */\n      0x00\n        /* \"#utility.yul\":21563:21572   */\n      dup4\n        /* \"#utility.yul\":21559:21576   */\n      add\n        /* \"#utility.yul\":21552:21599   */\n      mstore\n        /* \"#utility.yul\":21616:21747   */\n      tag_425\n        /* \"#utility.yul\":21742:21746   */\n      dup2\n        /* \"#utility.yul\":21616:21747   */\n      tag_215\n      jump\t// in\n    tag_425:\n        /* \"#utility.yul\":21608:21747   */\n      swap1\n      pop\n        /* \"#utility.yul\":21335:21754   */\n      swap2\n      swap1\n      pop\n      jump\t// out\n        /* \"#utility.yul\":21760:21938   */\n    tag_216:\n        /* \"#utility.yul\":21900:21930   */\n      0x5452616e73616374696f6e20616c726561647920657865637574656400000000\n        /* \"#utility.yul\":21896:21897   */\n      0x00\n        /* \"#utility.yul\":21888:21894   */\n      dup3\n        /* \"#utility.yul\":21884:21898   */\n      add\n        /* \"#utility.yul\":21877:21931   */\n      mstore\n        /* \"#utility.yul\":21760:21938   */\n      pop\n      jump\t// out\n        /* \"#utility.yul\":21944:22310   */\n    tag_217:\n        /* \"#utility.yul\":22086:22089   */\n      0x00\n        /* \"#utility.yul\":22107:22174   */\n      tag_428\n        /* \"#utility.yul\":22171:22173   */\n      0x1c\n        /* \"#utility.yul\":22166:22169   */\n      dup4\n        /* \"#utility.yul\":22107:22174   */\n      tag_181\n      jump\t// in\n    tag_428:\n        /* \"#utility.yul\":22100:22174   */\n      swap2\n      pop\n        /* \"#utility.yul\":22183:22276   */\n      tag_429\n        /* \"#utility.yul\":22272:22275   */\n      dup3\n        /* \"#utility.yul\":22183:22276   */\n      tag_216\n      jump\t// in\n    tag_429:\n        /* \"#utility.yul\":22301:22303   */\n      0x20\n        /* \"#utility.yul\":22296:22299   */\n      dup3\n        /* \"#utility.yul\":22292:22304   */\n      add\n        /* \"#utility.yul\":22285:22304   */\n      swap1\n      pop\n        /* \"#utility.yul\":21944:22310   */\n      swap2\n      swap1\n      pop\n      jump\t// out\n        /* \"#utility.yul\":22316:22735   */\n    tag_149:\n        /* \"#utility.yul\":22482:22486   */\n      0x00\n        /* \"#utility.yul\":22520:22522   */\n      0x20\n        /* \"#utility.yul\":22509:22518   */\n      dup3\n        /* \"#utility.yul\":22505:22523   */\n      add\n        /* \"#utility.yul\":22497:22523   */\n      swap1\n      pop\n        /* \"#utility.yul\":22569:22578   */\n      dup2\n        /* \"#utility.yul\":22563:22567   */\n      dup2\n        /* \"#utility.yul\":22559:22579   */\n      sub\n        /* \"#utility.yul\":22555:22556   */\n      0x00\n        /* \"#utility.yul\":22544:22553   */\n      dup4\n        /* \"#utility.yul\":22540:22557   */\n      add\n        /* \"#utility.yul\":22533:22580   */\n      mstore\n        /* \"#utility.yul\":22597:22728   */\n      tag_431\n        /* \"#utility.yul\":22723:22727   */\n      dup2\n        /* \"#utility.yul\":22597:22728   */\n      tag_217\n      jump\t// in\n    tag_431:\n        /* \"#utility.yul\":22589:22728   */\n      swap1\n      pop\n        /* \"#utility.yul\":22316:22735   */\n      swap2\n      swap1\n      pop\n      jump\t// out\n\n    auxdata: 0xa26469706673582212205502484617c1fb60083e3e6b95c3712c922dfbaf1c55e4348b7de43fc6c2f91664736f6c63430008120033\n}\n",
				"bytecode": {
					"linkReferences": {},
					"object": "60806040523480156200001157600080fd5b5060405162001f2e38038062001f2e83398181016040528101906200003791906200050d565b60008251116200007e576040517f08c379a00000000000000000000000000000000000000000000000000000000081526004016200007590620005d4565b60405180910390fd5b60008111801562000090575081518111155b620000d2576040517f08c379a0000000000000000000000000000000000000000000000000000000008152600401620000c99062000646565b60405180910390fd5b60005b8251811015620002d4576000838281518110620000f757620000f662000668565b5b60200260200101519050600073ffffffffffffffffffffffffffffffffffffffff168173ffffffffffffffffffffffffffffffffffffffff160362000173576040517f08c379a00000000000000000000000000000000000000000000000000000000081526004016200016a90620006e7565b60405180910390fd5b600160008273ffffffffffffffffffffffffffffffffffffffff1673ffffffffffffffffffffffffffffffffffffffff16815260200190815260200160002060009054906101000a900460ff161562000203576040517f08c379a0000000000000000000000000000000000000000000000000000000008152600401620001fa9062000759565b60405180910390fd5b6000819080600181540180825580915050600190039060005260206000200160009091909190916101000a81548173ffffffffffffffffffffffffffffffffffffffff021916908373ffffffffffffffffffffffffffffffffffffffff16021790555060018060008373ffffffffffffffffffffffffffffffffffffffff1673ffffffffffffffffffffffffffffffffffffffff16815260200190815260200160002060006101000a81548160ff021916908315150217905550508080620002cb90620007aa565b915050620000d5565b50806002819055505050620007f7565b6000604051905090565b600080fd5b600080fd5b600080fd5b6000601f19601f8301169050919050565b7f4e487b7100000000000000000000000000000000000000000000000000000000600052604160045260246000fd5b6200034882620002fd565b810181811067ffffffffffffffff821117156200036a57620003696200030e565b5b80604052505050565b60006200037f620002e4565b90506200038d82826200033d565b919050565b600067ffffffffffffffff821115620003b057620003af6200030e565b5b602082029050602081019050919050565b600080fd5b600073ffffffffffffffffffffffffffffffffffffffff82169050919050565b6000620003f382620003c6565b9050919050565b6200040581620003e6565b81146200041157600080fd5b50565b6000815190506200042581620003fa565b92915050565b6000620004426200043c8462000392565b62000373565b90508083825260208201905060208402830185811115620004685762000467620003c1565b5b835b8181101562000495578062000480888262000414565b8452602084019350506020810190506200046a565b5050509392505050565b600082601f830112620004b757620004b6620002f8565b5b8151620004c98482602086016200042b565b91505092915050565b6000819050919050565b620004e781620004d2565b8114620004f357600080fd5b50565b6000815190506200050781620004dc565b92915050565b60008060408385031215620005275762000526620002ee565b5b600083015167ffffffffffffffff811115620005485762000547620002f3565b5b62000556858286016200049f565b92505060206200056985828601620004f6565b9150509250929050565b600082825260208201905092915050565b7f204f776e65727320726571756972656400000000000000000000000000000000600082015250565b6000620005bc60108362000573565b9150620005c98262000584565b602082019050919050565b60006020820190508181036000830152620005ef81620005ad565b9050919050565b7f496e76616c6964207265717569726564207369676e6174757265730000000000600082015250565b60006200062e601b8362000573565b91506200063b82620005f6565b602082019050919050565b6000602082019050818103600083015262000661816200061f565b9050919050565b7f4e487b7100000000000000000000000000000000000000000000000000000000600052603260045260246000fd5b7f496e76616c6964206f776e657220616464726573730000000000000000000000600082015250565b6000620006cf60158362000573565b9150620006dc8262000697565b602082019050919050565b600060208201905081810360008301526200070281620006c0565b9050919050565b7f4475706c6963617465206f776e65722061646472657373000000000000000000600082015250565b60006200074160178362000573565b91506200074e8262000709565b602082019050919050565b60006020820190508181036000830152620007748162000732565b9050919050565b7f4e487b7100000000000000000000000000000000000000000000000000000000600052601160045260246000fd5b6000620007b782620004d2565b91507fffffffffffffffffffffffffffffffffffffffffffffffffffffffffffffffff8203620007ec57620007eb6200077b565b5b600182019050919050565b61172780620008076000396000f3fe6080604052600436106100ab5760003560e01c806381fed0ec1161006457806381fed0ec146102225780638d0680431461025f578063935b8e1b1461028a578063d0e30db0146102c7578063d45c3b8c146102d1578063ee22610b146102fa576100b2565b8063025e7c27146100b45780632cd6958f146100f15780632f54bf6e1461012e5780633abb2e4d1461016b57806353d1f1bb146101a857806356c31637146101e5576100b2565b366100b257005b005b3480156100c057600080fd5b506100db60048036038101906100d69190610bed565b610316565b6040516100e89190610c5b565b60405180910390f35b3480156100fd57600080fd5b5061011860048036038101906101139190610bed565b610355565b6040516101259190610c85565b60405180910390f35b34801561013a57600080fd5b5061015560048036038101906101509190610ccc565b61036d565b6040516101629190610d14565b60405180910390f35b34801561017757600080fd5b50610192600480360381019061018d9190610bed565b61038d565b60405161019f9190610d14565b60405180910390f35b3480156101b457600080fd5b506101cf60048036038101906101ca9190610bed565b61048d565b6040516101dc9190610c85565b60405180910390f35b3480156101f157600080fd5b5061020c60048036038101906102079190610d2f565b6104aa565b6040516102199190610d14565b60405180910390f35b34801561022e57600080fd5b5061024960048036038101906102449190610bed565b6104d9565b6040516102569190610d14565b60405180910390f35b34801561026b57600080fd5b506102746104f9565b6040516102819190610c85565b60405180910390f35b34801561029657600080fd5b506102b160048036038101906102ac9190610bed565b6104ff565b6040516102be9190610c5b565b60405180910390f35b6102cf610543565b005b3480156102dd57600080fd5b506102f860048036038101906102f39190610f8b565b61057e565b005b610314600480360381019061030f9190610bed565b610998565b005b6000818154811061032657600080fd5b906000526020600020016000915054906101000a900473ffffffffffffffffffffffffffffffffffffffff1681565b60056020528060005260406000206000915090505481565b60016020528060005260406000206000915054906101000a900460ff1681565b6000806000905060005b6000805490508110156104815760008082815481106103b9576103b8611016565b5b9060005260206000200160009054906101000a900473ffffffffffffffffffffffffffffffffffffffff1690506003600086815260200190815260200160002060008273ffffffffffffffffffffffffffffffffffffffff1673ffffffffffffffffffffffffffffffffffffffff16815260200190815260200160002060009054906101000a900460ff161561045857828061045490611074565b9350505b600254831061046d5760019350505050610488565b50808061047990611074565b915050610397565b5060009150505b919050565b600060056000838152602001908152602001600020549050919050565b60036020528160005260406000206020528060005260406000206000915091509054906101000a900460ff1681565b60046020528060005260406000206000915054906101000a900460ff1681565b60025481565b600080826040516020016105139190610c85565b604051602081830303815290604052905060008180519060200120905060008160001c9050809350505050919050565b7fe1fffcc4923d04b559f4d29a8bfc6cda04eb5b0d3c460751c2402c5c5cc9109c33346040516105749291906110bc565b60405180910390a1565b600160003373ffffffffffffffffffffffffffffffffffffffff1673ffffffffffffffffffffffffffffffffffffffff16815260200190815260200160002060009054906101000a900460ff1661060a576040517f08c379a000000000000000000000000000000000000000000000000000000000815260040161060190611142565b60405180910390fd5b600083511161064e576040517f08c379a0000000000000000000000000000000000000000000000000000000008152600401610645906111ae565b60405180910390fd5b6000825111610692576040517f08c379a00000000000000000000000000000000000000000000000000000000081526004016106899061121a565b60405180910390fd5b81518351146106d6576040517f08c379a00000000000000000000000000000000000000000000000000000000081526004016106cd90611286565b60405180910390fd5b60004342836040516020016106ed9392919061130f565b6040516020818303038152906040528051906020012060001c905060005b83518110156108da57600085828151811061072957610728611016565b5b60200260200101519050600160008273ffffffffffffffffffffffffffffffffffffffff1673ffffffffffffffffffffffffffffffffffffffff16815260200190815260200160002060009054906101000a900460ff166107bf576040517f08c379a00000000000000000000000000000000000000000000000000000000081526004016107b690611398565b60405180910390fd5b6003600084815260200190815260200160002060008273ffffffffffffffffffffffffffffffffffffffff1673ffffffffffffffffffffffffffffffffffffffff16815260200190815260200160002060009054906101000a900460ff161561085d576040517f08c379a000000000000000000000000000000000000000000000000000000000815260040161085490611404565b60405180910390fd5b60016003600085815260200190815260200160002060008373ffffffffffffffffffffffffffffffffffffffff1673ffffffffffffffffffffffffffffffffffffffff16815260200190815260200160002060006101000a81548160ff0219169083151502179055505080806108d290611074565b91505061070b565b5060005b835181101561093e578381815181106108fa576108f9611016565b5b60200260200101516005600084815260200190815260200160002060008282546109249190611424565b92505081905550808061093690611074565b9150506108de565b503373ffffffffffffffffffffffffffffffffffffffff16817fbdb11b76699ca539678da607432fa18d58fb64fd19a05dabfd0289dbb25bd78086868660405161098a939291906115d4565b60405180910390a350505050565b600160003373ffffffffffffffffffffffffffffffffffffffff1673ffffffffffffffffffffffffffffffffffffffff16815260200190815260200160002060009054906101000a900460ff16610a24576040517f08c379a0000000000000000000000000000000000000000000000000000000008152600401610a1b90611142565b60405180910390fd5b610a2d8161038d565b610a6c576040517f08c379a0000000000000000000000000000000000000000000000000000000008152600401610a6390611665565b60405180910390fd5b6004600082815260200190815260200160002060009054906101000a900460ff1615610acd576040517f08c379a0000000000000000000000000000000000000000000000000000000008152600401610ac4906116d1565b60405180910390fd5b60016004600083815260200190815260200160002060006101000a81548160ff0219169083151502179055506000610b04826104ff565b90506000610b118361048d565b90508173ffffffffffffffffffffffffffffffffffffffff166108fc829081150290604051600060405180830381858888f19350505050158015610b59573d6000803e3d6000fd5b503373ffffffffffffffffffffffffffffffffffffffff16837fefc13bdcf58f184ea7cae26b499fb33b539e01d0197cea456f3ada289b8cf19b60405160405180910390a3505050565b6000604051905090565b600080fd5b600080fd5b6000819050919050565b610bca81610bb7565b8114610bd557600080fd5b50565b600081359050610be781610bc1565b92915050565b600060208284031215610c0357610c02610bad565b5b6000610c1184828501610bd8565b91505092915050565b600073ffffffffffffffffffffffffffffffffffffffff82169050919050565b6000610c4582610c1a565b9050919050565b610c5581610c3a565b82525050565b6000602082019050610c706000830184610c4c565b92915050565b610c7f81610bb7565b82525050565b6000602082019050610c9a6000830184610c76565b92915050565b610ca981610c3a565b8114610cb457600080fd5b50565b600081359050610cc681610ca0565b92915050565b600060208284031215610ce257610ce1610bad565b5b6000610cf084828501610cb7565b91505092915050565b60008115159050919050565b610d0e81610cf9565b82525050565b6000602082019050610d296000830184610d05565b92915050565b60008060408385031215610d4657610d45610bad565b5b6000610d5485828601610bd8565b9250506020610d6585828601610cb7565b9150509250929050565b600080fd5b6000601f19601f8301169050919050565b7f4e487b7100000000000000000000000000000000000000000000000000000000600052604160045260246000fd5b610dbd82610d74565b810181811067ffffffffffffffff82111715610ddc57610ddb610d85565b5b80604052505050565b6000610def610ba3565b9050610dfb8282610db4565b919050565b600067ffffffffffffffff821115610e1b57610e1a610d85565b5b602082029050602081019050919050565b600080fd5b6000610e44610e3f84610e00565b610de5565b90508083825260208201905060208402830185811115610e6757610e66610e2c565b5b835b81811015610e905780610e7c8882610cb7565b845260208401935050602081019050610e69565b5050509392505050565b600082601f830112610eaf57610eae610d6f565b5b8135610ebf848260208601610e31565b91505092915050565b600067ffffffffffffffff821115610ee357610ee2610d85565b5b602082029050602081019050919050565b6000610f07610f0284610ec8565b610de5565b90508083825260208201905060208402830185811115610f2a57610f29610e2c565b5b835b81811015610f535780610f3f8882610bd8565b845260208401935050602081019050610f2c565b5050509392505050565b600082601f830112610f7257610f71610d6f565b5b8135610f82848260208601610ef4565b91505092915050565b600080600060608486031215610fa457610fa3610bad565b5b600084013567ffffffffffffffff811115610fc257610fc1610bb2565b5b610fce86828701610e9a565b935050602084013567ffffffffffffffff811115610fef57610fee610bb2565b5b610ffb86828701610f5d565b925050604061100c86828701610cb7565b9150509250925092565b7f4e487b7100000000000000000000000000000000000000000000000000000000600052603260045260246000fd5b7f4e487b7100000000000000000000000000000000000000000000000000000000600052601160045260246000fd5b600061107f82610bb7565b91507fffffffffffffffffffffffffffffffffffffffffffffffffffffffffffffffff82036110b1576110b0611045565b5b600182019050919050565b60006040820190506110d16000830185610c4c565b6110de6020830184610c76565b9392505050565b600082825260208201905092915050565b7f556e617574686f72697a65640000000000000000000000000000000000000000600082015250565b600061112c600c836110e5565b9150611137826110f6565b602082019050919050565b6000602082019050818103600083015261115b8161111f565b9050919050565b7f5369676e65727320726571756972656400000000000000000000000000000000600082015250565b60006111986010836110e5565b91506111a382611162565b602082019050919050565b600060208201905081810360008301526111c78161118b565b9050919050565b7f416d6f756e747320726571756972657300000000000000000000000000000000600082015250565b60006112046010836110e5565b915061120f826111ce565b602082019050919050565b60006020820190508181036000830152611233816111f7565b9050919050565b7f496e76616c696420696e707574206c656e677468000000000000000000000000600082015250565b60006112706014836110e5565b915061127b8261123a565b602082019050919050565b6000602082019050818103600083015261129f81611263565b9050919050565b6000819050919050565b6112c16112bc82610bb7565b6112a6565b82525050565b60008160601b9050919050565b60006112df826112c7565b9050919050565b60006112f1826112d4565b9050919050565b61130961130482610c3a565b6112e6565b82525050565b600061131b82866112b0565b60208201915061132b82856112b0565b60208201915061133b82846112f8565b601482019150819050949350505050565b7f4f6e76616c6964207369676e6572000000000000000000000000000000000000600082015250565b6000611382600e836110e5565b915061138d8261134c565b602082019050919050565b600060208201905081810360008301526113b181611375565b9050919050565b7f4475706c6963617465205369676e657200000000000000000000000000000000600082015250565b60006113ee6010836110e5565b91506113f9826113b8565b602082019050919050565b6000602082019050818103600083015261141d816113e1565b9050919050565b600061142f82610bb7565b915061143a83610bb7565b925082820190508082111561145257611451611045565b5b92915050565b600081519050919050565b600082825260208201905092915050565b6000819050602082019050919050565b61148d81610c3a565b82525050565b600061149f8383611484565b60208301905092915050565b6000602082019050919050565b60006114c382611458565b6114cd8185611463565b93506114d883611474565b8060005b838110156115095781516114f08882611493565b97506114fb836114ab565b9250506001810190506114dc565b5085935050505092915050565b600081519050919050565b600082825260208201905092915050565b6000819050602082019050919050565b61154b81610bb7565b82525050565b600061155d8383611542565b60208301905092915050565b6000602082019050919050565b600061158182611516565b61158b8185611521565b935061159683611532565b8060005b838110156115c75781516115ae8882611551565b97506115b983611569565b92505060018101905061159a565b5085935050505092915050565b600060608201905081810360008301526115ee81866114b8565b905081810360208301526116028185611576565b90506116116040830184610c4c565b949350505050565b7f5472616e73616374696f6e206e6f7420617070726f7665640000000000000000600082015250565b600061164f6018836110e5565b915061165a82611619565b602082019050919050565b6000602082019050818103600083015261167e81611642565b9050919050565b7f5452616e73616374696f6e20616c726561647920657865637574656400000000600082015250565b60006116bb601c836110e5565b91506116c682611685565b602082019050919050565b600060208201905081810360008301526116ea816116ae565b905091905056fea26469706673582212205502484617c1fb60083e3e6b95c3712c922dfbaf1c55e4348b7de43fc6c2f91664736f6c63430008120033",
					"opcodes": "PUSH1 0x80 PUSH1 0x40 MSTORE CALLVALUE DUP1 ISZERO PUSH3 0x11 JUMPI PUSH1 0x0 DUP1 REVERT JUMPDEST POP PUSH1 0x40 MLOAD PUSH3 0x1F2E CODESIZE SUB DUP1 PUSH3 0x1F2E DUP4 CODECOPY DUP2 DUP2 ADD PUSH1 0x40 MSTORE DUP2 ADD SWAP1 PUSH3 0x37 SWAP2 SWAP1 PUSH3 0x50D JUMP JUMPDEST PUSH1 0x0 DUP3 MLOAD GT PUSH3 0x7E JUMPI PUSH1 0x40 MLOAD PUSH32 0x8C379A000000000000000000000000000000000000000000000000000000000 DUP2 MSTORE PUSH1 0x4 ADD PUSH3 0x75 SWAP1 PUSH3 0x5D4 JUMP JUMPDEST PUSH1 0x40 MLOAD DUP1 SWAP2 SUB SWAP1 REVERT JUMPDEST PUSH1 0x0 DUP2 GT DUP1 ISZERO PUSH3 0x90 JUMPI POP DUP2 MLOAD DUP2 GT ISZERO JUMPDEST PUSH3 0xD2 JUMPI PUSH1 0x40 MLOAD PUSH32 0x8C379A000000000000000000000000000000000000000000000000000000000 DUP2 MSTORE PUSH1 0x4 ADD PUSH3 0xC9 SWAP1 PUSH3 0x646 JUMP JUMPDEST PUSH1 0x40 MLOAD DUP1 SWAP2 SUB SWAP1 REVERT JUMPDEST PUSH1 0x0 JUMPDEST DUP3 MLOAD DUP2 LT ISZERO PUSH3 0x2D4 JUMPI PUSH1 0x0 DUP4 DUP3 DUP2 MLOAD DUP2 LT PUSH3 0xF7 JUMPI PUSH3 0xF6 PUSH3 0x668 JUMP JUMPDEST JUMPDEST PUSH1 0x20 MUL PUSH1 0x20 ADD ADD MLOAD SWAP1 POP PUSH1 0x0 PUSH20 0xFFFFFFFFFFFFFFFFFFFFFFFFFFFFFFFFFFFFFFFF AND DUP2 PUSH20 0xFFFFFFFFFFFFFFFFFFFFFFFFFFFFFFFFFFFFFFFF AND SUB PUSH3 0x173 JUMPI PUSH1 0x40 MLOAD PUSH32 0x8C379A000000000000000000000000000000000000000000000000000000000 DUP2 MSTORE PUSH1 0x4 ADD PUSH3 0x16A SWAP1 PUSH3 0x6E7 JUMP JUMPDEST PUSH1 0x40 MLOAD DUP1 SWAP2 SUB SWAP1 REVERT JUMPDEST PUSH1 0x1 PUSH1 0x0 DUP3 PUSH20 0xFFFFFFFFFFFFFFFFFFFFFFFFFFFFFFFFFFFFFFFF AND PUSH20 0xFFFFFFFFFFFFFFFFFFFFFFFFFFFFFFFFFFFFFFFF AND DUP2 MSTORE PUSH1 0x20 ADD SWAP1 DUP2 MSTORE PUSH1 0x20 ADD PUSH1 0x0 KECCAK256 PUSH1 0x0 SWAP1 SLOAD SWAP1 PUSH2 0x100 EXP SWAP1 DIV PUSH1 0xFF AND ISZERO PUSH3 0x203 JUMPI PUSH1 0x40 MLOAD PUSH32 0x8C379A000000000000000000000000000000000000000000000000000000000 DUP2 MSTORE PUSH1 0x4 ADD PUSH3 0x1FA SWAP1 PUSH3 0x759 JUMP JUMPDEST PUSH1 0x40 MLOAD DUP1 SWAP2 SUB SWAP1 REVERT JUMPDEST PUSH1 0x0 DUP2 SWAP1 DUP1 PUSH1 0x1 DUP2 SLOAD ADD DUP1 DUP3 SSTORE DUP1 SWAP2 POP POP PUSH1 0x1 SWAP1 SUB SWAP1 PUSH1 0x0 MSTORE PUSH1 0x20 PUSH1 0x0 KECCAK256 ADD PUSH1 0x0 SWAP1 SWAP2 SWAP1 SWAP2 SWAP1 SWAP2 PUSH2 0x100 EXP DUP2 SLOAD DUP2 PUSH20 0xFFFFFFFFFFFFFFFFFFFFFFFFFFFFFFFFFFFFFFFF MUL NOT AND SWAP1 DUP4 PUSH20 0xFFFFFFFFFFFFFFFFFFFFFFFFFFFFFFFFFFFFFFFF AND MUL OR SWAP1 SSTORE POP PUSH1 0x1 DUP1 PUSH1 0x0 DUP4 PUSH20 0xFFFFFFFFFFFFFFFFFFFFFFFFFFFFFFFFFFFFFFFF AND PUSH20 0xFFFFFFFFFFFFFFFFFFFFFFFFFFFFFFFFFFFFFFFF AND DUP2 MSTORE PUSH1 0x20 ADD SWAP1 DUP2 MSTORE PUSH1 0x20 ADD PUSH1 0x0 KECCAK256 PUSH1 0x0 PUSH2 0x100 EXP DUP2 SLOAD DUP2 PUSH1 0xFF MUL NOT AND SWAP1 DUP4 ISZERO ISZERO MUL OR SWAP1 SSTORE POP POP DUP1 DUP1 PUSH3 0x2CB SWAP1 PUSH3 0x7AA JUMP JUMPDEST SWAP2 POP POP PUSH3 0xD5 JUMP JUMPDEST POP DUP1 PUSH1 0x2 DUP2 SWAP1 SSTORE POP POP POP PUSH3 0x7F7 JUMP JUMPDEST PUSH1 0x0 PUSH1 0x40 MLOAD SWAP1 POP SWAP1 JUMP JUMPDEST PUSH1 0x0 DUP1 REVERT JUMPDEST PUSH1 0x0 DUP1 REVERT JUMPDEST PUSH1 0x0 DUP1 REVERT JUMPDEST PUSH1 0x0 PUSH1 0x1F NOT PUSH1 0x1F DUP4 ADD AND SWAP1 POP SWAP2 SWAP1 POP JUMP JUMPDEST PUSH32 0x4E487B7100000000000000000000000000000000000000000000000000000000 PUSH1 0x0 MSTORE PUSH1 0x41 PUSH1 0x4 MSTORE PUSH1 0x24 PUSH1 0x0 REVERT JUMPDEST PUSH3 0x348 DUP3 PUSH3 0x2FD JUMP JUMPDEST DUP2 ADD DUP2 DUP2 LT PUSH8 0xFFFFFFFFFFFFFFFF DUP3 GT OR ISZERO PUSH3 0x36A JUMPI PUSH3 0x369 PUSH3 0x30E JUMP JUMPDEST JUMPDEST DUP1 PUSH1 0x40 MSTORE POP POP POP JUMP JUMPDEST PUSH1 0x0 PUSH3 0x37F PUSH3 0x2E4 JUMP JUMPDEST SWAP1 POP PUSH3 0x38D DUP3 DUP3 PUSH3 0x33D JUMP JUMPDEST SWAP2 SWAP1 POP JUMP JUMPDEST PUSH1 0x0 PUSH8 0xFFFFFFFFFFFFFFFF DUP3 GT ISZERO PUSH3 0x3B0 JUMPI PUSH3 0x3AF PUSH3 0x30E JUMP JUMPDEST JUMPDEST PUSH1 0x20 DUP3 MUL SWAP1 POP PUSH1 0x20 DUP2 ADD SWAP1 POP SWAP2 SWAP1 POP JUMP JUMPDEST PUSH1 0x0 DUP1 REVERT JUMPDEST PUSH1 0x0 PUSH20 0xFFFFFFFFFFFFFFFFFFFFFFFFFFFFFFFFFFFFFFFF DUP3 AND SWAP1 POP SWAP2 SWAP1 POP JUMP JUMPDEST PUSH1 0x0 PUSH3 0x3F3 DUP3 PUSH3 0x3C6 JUMP JUMPDEST SWAP1 POP SWAP2 SWAP1 POP JUMP JUMPDEST PUSH3 0x405 DUP2 PUSH3 0x3E6 JUMP JUMPDEST DUP2 EQ PUSH3 0x411 JUMPI PUSH1 0x0 DUP1 REVERT JUMPDEST POP JUMP JUMPDEST PUSH1 0x0 DUP2 MLOAD SWAP1 POP PUSH3 0x425 DUP2 PUSH3 0x3FA JUMP JUMPDEST SWAP3 SWAP2 POP POP JUMP JUMPDEST PUSH1 0x0 PUSH3 0x442 PUSH3 0x43C DUP5 PUSH3 0x392 JUMP JUMPDEST PUSH3 0x373 JUMP JUMPDEST SWAP1 POP DUP1 DUP4 DUP3 MSTORE PUSH1 0x20 DUP3 ADD SWAP1 POP PUSH1 0x20 DUP5 MUL DUP4 ADD DUP6 DUP2 GT ISZERO PUSH3 0x468 JUMPI PUSH3 0x467 PUSH3 0x3C1 JUMP JUMPDEST JUMPDEST DUP4 JUMPDEST DUP2 DUP2 LT ISZERO PUSH3 0x495 JUMPI DUP1 PUSH3 0x480 DUP9 DUP3 PUSH3 0x414 JUMP JUMPDEST DUP5 MSTORE PUSH1 0x20 DUP5 ADD SWAP4 POP POP PUSH1 0x20 DUP2 ADD SWAP1 POP PUSH3 0x46A JUMP JUMPDEST POP POP POP SWAP4 SWAP3 POP POP POP JUMP JUMPDEST PUSH1 0x0 DUP3 PUSH1 0x1F DUP4 ADD SLT PUSH3 0x4B7 JUMPI PUSH3 0x4B6 PUSH3 0x2F8 JUMP JUMPDEST JUMPDEST DUP2 MLOAD PUSH3 0x4C9 DUP5 DUP3 PUSH1 0x20 DUP7 ADD PUSH3 0x42B JUMP JUMPDEST SWAP2 POP POP SWAP3 SWAP2 POP POP JUMP JUMPDEST PUSH1 0x0 DUP2 SWAP1 POP SWAP2 SWAP1 POP JUMP JUMPDEST PUSH3 0x4E7 DUP2 PUSH3 0x4D2 JUMP JUMPDEST DUP2 EQ PUSH3 0x4F3 JUMPI PUSH1 0x0 DUP1 REVERT JUMPDEST POP JUMP JUMPDEST PUSH1 0x0 DUP2 MLOAD SWAP1 POP PUSH3 0x507 DUP2 PUSH3 0x4DC JUMP JUMPDEST SWAP3 SWAP2 POP POP JUMP JUMPDEST PUSH1 0x0 DUP1 PUSH1 0x40 DUP4 DUP6 SUB SLT ISZERO PUSH3 0x527 JUMPI PUSH3 0x526 PUSH3 0x2EE JUMP JUMPDEST JUMPDEST PUSH1 0x0 DUP4 ADD MLOAD PUSH8 0xFFFFFFFFFFFFFFFF DUP2 GT ISZERO PUSH3 0x548 JUMPI PUSH3 0x547 PUSH3 0x2F3 JUMP JUMPDEST JUMPDEST PUSH3 0x556 DUP6 DUP3 DUP7 ADD PUSH3 0x49F JUMP JUMPDEST SWAP3 POP POP PUSH1 0x20 PUSH3 0x569 DUP6 DUP3 DUP7 ADD PUSH3 0x4F6 JUMP JUMPDEST SWAP2 POP POP SWAP3 POP SWAP3 SWAP1 POP JUMP JUMPDEST PUSH1 0x0 DUP3 DUP3 MSTORE PUSH1 0x20 DUP3 ADD SWAP1 POP SWAP3 SWAP2 POP POP JUMP JUMPDEST PUSH32 0x204F776E65727320726571756972656400000000000000000000000000000000 PUSH1 0x0 DUP3 ADD MSTORE POP JUMP JUMPDEST PUSH1 0x0 PUSH3 0x5BC PUSH1 0x10 DUP4 PUSH3 0x573 JUMP JUMPDEST SWAP2 POP PUSH3 0x5C9 DUP3 PUSH3 0x584 JUMP JUMPDEST PUSH1 0x20 DUP3 ADD SWAP1 POP SWAP2 SWAP1 POP JUMP JUMPDEST PUSH1 0x0 PUSH1 0x20 DUP3 ADD SWAP1 POP DUP2 DUP2 SUB PUSH1 0x0 DUP4 ADD MSTORE PUSH3 0x5EF DUP2 PUSH3 0x5AD JUMP JUMPDEST SWAP1 POP SWAP2 SWAP1 POP JUMP JUMPDEST PUSH32 0x496E76616C6964207265717569726564207369676E6174757265730000000000 PUSH1 0x0 DUP3 ADD MSTORE POP JUMP JUMPDEST PUSH1 0x0 PUSH3 0x62E PUSH1 0x1B DUP4 PUSH3 0x573 JUMP JUMPDEST SWAP2 POP PUSH3 0x63B DUP3 PUSH3 0x5F6 JUMP JUMPDEST PUSH1 0x20 DUP3 ADD SWAP1 POP SWAP2 SWAP1 POP JUMP JUMPDEST PUSH1 0x0 PUSH1 0x20 DUP3 ADD SWAP1 POP DUP2 DUP2 SUB PUSH1 0x0 DUP4 ADD MSTORE PUSH3 0x661 DUP2 PUSH3 0x61F JUMP JUMPDEST SWAP1 POP SWAP2 SWAP1 POP JUMP JUMPDEST PUSH32 0x4E487B7100000000000000000000000000000000000000000000000000000000 PUSH1 0x0 MSTORE PUSH1 0x32 PUSH1 0x4 MSTORE PUSH1 0x24 PUSH1 0x0 REVERT JUMPDEST PUSH32 0x496E76616C6964206F776E657220616464726573730000000000000000000000 PUSH1 0x0 DUP3 ADD MSTORE POP JUMP JUMPDEST PUSH1 0x0 PUSH3 0x6CF PUSH1 0x15 DUP4 PUSH3 0x573 JUMP JUMPDEST SWAP2 POP PUSH3 0x6DC DUP3 PUSH3 0x697 JUMP JUMPDEST PUSH1 0x20 DUP3 ADD SWAP1 POP SWAP2 SWAP1 POP JUMP JUMPDEST PUSH1 0x0 PUSH1 0x20 DUP3 ADD SWAP1 POP DUP2 DUP2 SUB PUSH1 0x0 DUP4 ADD MSTORE PUSH3 0x702 DUP2 PUSH3 0x6C0 JUMP JUMPDEST SWAP1 POP SWAP2 SWAP1 POP JUMP JUMPDEST PUSH32 0x4475706C6963617465206F776E65722061646472657373000000000000000000 PUSH1 0x0 DUP3 ADD MSTORE POP JUMP JUMPDEST PUSH1 0x0 PUSH3 0x741 PUSH1 0x17 DUP4 PUSH3 0x573 JUMP JUMPDEST SWAP2 POP PUSH3 0x74E DUP3 PUSH3 0x709 JUMP JUMPDEST PUSH1 0x20 DUP3 ADD SWAP1 POP SWAP2 SWAP1 POP JUMP JUMPDEST PUSH1 0x0 PUSH1 0x20 DUP3 ADD SWAP1 POP DUP2 DUP2 SUB PUSH1 0x0 DUP4 ADD MSTORE PUSH3 0x774 DUP2 PUSH3 0x732 JUMP JUMPDEST SWAP1 POP SWAP2 SWAP1 POP JUMP JUMPDEST PUSH32 0x4E487B7100000000000000000000000000000000000000000000000000000000 PUSH1 0x0 MSTORE PUSH1 0x11 PUSH1 0x4 MSTORE PUSH1 0x24 PUSH1 0x0 REVERT JUMPDEST PUSH1 0x0 PUSH3 0x7B7 DUP3 PUSH3 0x4D2 JUMP JUMPDEST SWAP2 POP PUSH32 0xFFFFFFFFFFFFFFFFFFFFFFFFFFFFFFFFFFFFFFFFFFFFFFFFFFFFFFFFFFFFFFFF DUP3 SUB PUSH3 0x7EC JUMPI PUSH3 0x7EB PUSH3 0x77B JUMP JUMPDEST JUMPDEST PUSH1 0x1 DUP3 ADD SWAP1 POP SWAP2 SWAP1 POP JUMP JUMPDEST PUSH2 0x1727 DUP1 PUSH3 0x807 PUSH1 0x0 CODECOPY PUSH1 0x0 RETURN INVALID PUSH1 0x80 PUSH1 0x40 MSTORE PUSH1 0x4 CALLDATASIZE LT PUSH2 0xAB JUMPI PUSH1 0x0 CALLDATALOAD PUSH1 0xE0 SHR DUP1 PUSH4 0x81FED0EC GT PUSH2 0x64 JUMPI DUP1 PUSH4 0x81FED0EC EQ PUSH2 0x222 JUMPI DUP1 PUSH4 0x8D068043 EQ PUSH2 0x25F JUMPI DUP1 PUSH4 0x935B8E1B EQ PUSH2 0x28A JUMPI DUP1 PUSH4 0xD0E30DB0 EQ PUSH2 0x2C7 JUMPI DUP1 PUSH4 0xD45C3B8C EQ PUSH2 0x2D1 JUMPI DUP1 PUSH4 0xEE22610B EQ PUSH2 0x2FA JUMPI PUSH2 0xB2 JUMP JUMPDEST DUP1 PUSH4 0x25E7C27 EQ PUSH2 0xB4 JUMPI DUP1 PUSH4 0x2CD6958F EQ PUSH2 0xF1 JUMPI DUP1 PUSH4 0x2F54BF6E EQ PUSH2 0x12E JUMPI DUP1 PUSH4 0x3ABB2E4D EQ PUSH2 0x16B JUMPI DUP1 PUSH4 0x53D1F1BB EQ PUSH2 0x1A8 JUMPI DUP1 PUSH4 0x56C31637 EQ PUSH2 0x1E5 JUMPI PUSH2 0xB2 JUMP JUMPDEST CALLDATASIZE PUSH2 0xB2 JUMPI STOP JUMPDEST STOP JUMPDEST CALLVALUE DUP1 ISZERO PUSH2 0xC0 JUMPI PUSH1 0x0 DUP1 REVERT JUMPDEST POP PUSH2 0xDB PUSH1 0x4 DUP1 CALLDATASIZE SUB DUP2 ADD SWAP1 PUSH2 0xD6 SWAP2 SWAP1 PUSH2 0xBED JUMP JUMPDEST PUSH2 0x316 JUMP JUMPDEST PUSH1 0x40 MLOAD PUSH2 0xE8 SWAP2 SWAP1 PUSH2 0xC5B JUMP JUMPDEST PUSH1 0x40 MLOAD DUP1 SWAP2 SUB SWAP1 RETURN JUMPDEST CALLVALUE DUP1 ISZERO PUSH2 0xFD JUMPI PUSH1 0x0 DUP1 REVERT JUMPDEST POP PUSH2 0x118 PUSH1 0x4 DUP1 CALLDATASIZE SUB DUP2 ADD SWAP1 PUSH2 0x113 SWAP2 SWAP1 PUSH2 0xBED JUMP JUMPDEST PUSH2 0x355 JUMP JUMPDEST PUSH1 0x40 MLOAD PUSH2 0x125 SWAP2 SWAP1 PUSH2 0xC85 JUMP JUMPDEST PUSH1 0x40 MLOAD DUP1 SWAP2 SUB SWAP1 RETURN JUMPDEST CALLVALUE DUP1 ISZERO PUSH2 0x13A JUMPI PUSH1 0x0 DUP1 REVERT JUMPDEST POP PUSH2 0x155 PUSH1 0x4 DUP1 CALLDATASIZE SUB DUP2 ADD SWAP1 PUSH2 0x150 SWAP2 SWAP1 PUSH2 0xCCC JUMP JUMPDEST PUSH2 0x36D JUMP JUMPDEST PUSH1 0x40 MLOAD PUSH2 0x162 SWAP2 SWAP1 PUSH2 0xD14 JUMP JUMPDEST PUSH1 0x40 MLOAD DUP1 SWAP2 SUB SWAP1 RETURN JUMPDEST CALLVALUE DUP1 ISZERO PUSH2 0x177 JUMPI PUSH1 0x0 DUP1 REVERT JUMPDEST POP PUSH2 0x192 PUSH1 0x4 DUP1 CALLDATASIZE SUB DUP2 ADD SWAP1 PUSH2 0x18D SWAP2 SWAP1 PUSH2 0xBED JUMP JUMPDEST PUSH2 0x38D JUMP JUMPDEST PUSH1 0x40 MLOAD PUSH2 0x19F SWAP2 SWAP1 PUSH2 0xD14 JUMP JUMPDEST PUSH1 0x40 MLOAD DUP1 SWAP2 SUB SWAP1 RETURN JUMPDEST CALLVALUE DUP1 ISZERO PUSH2 0x1B4 JUMPI PUSH1 0x0 DUP1 REVERT JUMPDEST POP PUSH2 0x1CF PUSH1 0x4 DUP1 CALLDATASIZE SUB DUP2 ADD SWAP1 PUSH2 0x1CA SWAP2 SWAP1 PUSH2 0xBED JUMP JUMPDEST PUSH2 0x48D JUMP JUMPDEST PUSH1 0x40 MLOAD PUSH2 0x1DC SWAP2 SWAP1 PUSH2 0xC85 JUMP JUMPDEST PUSH1 0x40 MLOAD DUP1 SWAP2 SUB SWAP1 RETURN JUMPDEST CALLVALUE DUP1 ISZERO PUSH2 0x1F1 JUMPI PUSH1 0x0 DUP1 REVERT JUMPDEST POP PUSH2 0x20C PUSH1 0x4 DUP1 CALLDATASIZE SUB DUP2 ADD SWAP1 PUSH2 0x207 SWAP2 SWAP1 PUSH2 0xD2F JUMP JUMPDEST PUSH2 0x4AA JUMP JUMPDEST PUSH1 0x40 MLOAD PUSH2 0x219 SWAP2 SWAP1 PUSH2 0xD14 JUMP JUMPDEST PUSH1 0x40 MLOAD DUP1 SWAP2 SUB SWAP1 RETURN JUMPDEST CALLVALUE DUP1 ISZERO PUSH2 0x22E JUMPI PUSH1 0x0 DUP1 REVERT JUMPDEST POP PUSH2 0x249 PUSH1 0x4 DUP1 CALLDATASIZE SUB DUP2 ADD SWAP1 PUSH2 0x244 SWAP2 SWAP1 PUSH2 0xBED JUMP JUMPDEST PUSH2 0x4D9 JUMP JUMPDEST PUSH1 0x40 MLOAD PUSH2 0x256 SWAP2 SWAP1 PUSH2 0xD14 JUMP JUMPDEST PUSH1 0x40 MLOAD DUP1 SWAP2 SUB SWAP1 RETURN JUMPDEST CALLVALUE DUP1 ISZERO PUSH2 0x26B JUMPI PUSH1 0x0 DUP1 REVERT JUMPDEST POP PUSH2 0x274 PUSH2 0x4F9 JUMP JUMPDEST PUSH1 0x40 MLOAD PUSH2 0x281 SWAP2 SWAP1 PUSH2 0xC85 JUMP JUMPDEST PUSH1 0x40 MLOAD DUP1 SWAP2 SUB SWAP1 RETURN JUMPDEST CALLVALUE DUP1 ISZERO PUSH2 0x296 JUMPI PUSH1 0x0 DUP1 REVERT JUMPDEST POP PUSH2 0x2B1 PUSH1 0x4 DUP1 CALLDATASIZE SUB DUP2 ADD SWAP1 PUSH2 0x2AC SWAP2 SWAP1 PUSH2 0xBED JUMP JUMPDEST PUSH2 0x4FF JUMP JUMPDEST PUSH1 0x40 MLOAD PUSH2 0x2BE SWAP2 SWAP1 PUSH2 0xC5B JUMP JUMPDEST PUSH1 0x40 MLOAD DUP1 SWAP2 SUB SWAP1 RETURN JUMPDEST PUSH2 0x2CF PUSH2 0x543 JUMP JUMPDEST STOP JUMPDEST CALLVALUE DUP1 ISZERO PUSH2 0x2DD JUMPI PUSH1 0x0 DUP1 REVERT JUMPDEST POP PUSH2 0x2F8 PUSH1 0x4 DUP1 CALLDATASIZE SUB DUP2 ADD SWAP1 PUSH2 0x2F3 SWAP2 SWAP1 PUSH2 0xF8B JUMP JUMPDEST PUSH2 0x57E JUMP JUMPDEST STOP JUMPDEST PUSH2 0x314 PUSH1 0x4 DUP1 CALLDATASIZE SUB DUP2 ADD SWAP1 PUSH2 0x30F SWAP2 SWAP1 PUSH2 0xBED JUMP JUMPDEST PUSH2 0x998 JUMP JUMPDEST STOP JUMPDEST PUSH1 0x0 DUP2 DUP2 SLOAD DUP2 LT PUSH2 0x326 JUMPI PUSH1 0x0 DUP1 REVERT JUMPDEST SWAP1 PUSH1 0x0 MSTORE PUSH1 0x20 PUSH1 0x0 KECCAK256 ADD PUSH1 0x0 SWAP2 POP SLOAD SWAP1 PUSH2 0x100 EXP SWAP1 DIV PUSH20 0xFFFFFFFFFFFFFFFFFFFFFFFFFFFFFFFFFFFFFFFF AND DUP2 JUMP JUMPDEST PUSH1 0x5 PUSH1 0x20 MSTORE DUP1 PUSH1 0x0 MSTORE PUSH1 0x40 PUSH1 0x0 KECCAK256 PUSH1 0x0 SWAP2 POP SWAP1 POP SLOAD DUP2 JUMP JUMPDEST PUSH1 0x1 PUSH1 0x20 MSTORE DUP1 PUSH1 0x0 MSTORE PUSH1 0x40 PUSH1 0x0 KECCAK256 PUSH1 0x0 SWAP2 POP SLOAD SWAP1 PUSH2 0x100 EXP SWAP1 DIV PUSH1 0xFF AND DUP2 JUMP JUMPDEST PUSH1 0x0 DUP1 PUSH1 0x0 SWAP1 POP PUSH1 0x0 JUMPDEST PUSH1 0x0 DUP1 SLOAD SWAP1 POP DUP2 LT ISZERO PUSH2 0x481 JUMPI PUSH1 0x0 DUP1 DUP3 DUP2 SLOAD DUP2 LT PUSH2 0x3B9 JUMPI PUSH2 0x3B8 PUSH2 0x1016 JUMP JUMPDEST JUMPDEST SWAP1 PUSH1 0x0 MSTORE PUSH1 0x20 PUSH1 0x0 KECCAK256 ADD PUSH1 0x0 SWAP1 SLOAD SWAP1 PUSH2 0x100 EXP SWAP1 DIV PUSH20 0xFFFFFFFFFFFFFFFFFFFFFFFFFFFFFFFFFFFFFFFF AND SWAP1 POP PUSH1 0x3 PUSH1 0x0 DUP7 DUP2 MSTORE PUSH1 0x20 ADD SWAP1 DUP2 MSTORE PUSH1 0x20 ADD PUSH1 0x0 KECCAK256 PUSH1 0x0 DUP3 PUSH20 0xFFFFFFFFFFFFFFFFFFFFFFFFFFFFFFFFFFFFFFFF AND PUSH20 0xFFFFFFFFFFFFFFFFFFFFFFFFFFFFFFFFFFFFFFFF AND DUP2 MSTORE PUSH1 0x20 ADD SWAP1 DUP2 MSTORE PUSH1 0x20 ADD PUSH1 0x0 KECCAK256 PUSH1 0x0 SWAP1 SLOAD SWAP1 PUSH2 0x100 EXP SWAP1 DIV PUSH1 0xFF AND ISZERO PUSH2 0x458 JUMPI DUP3 DUP1 PUSH2 0x454 SWAP1 PUSH2 0x1074 JUMP JUMPDEST SWAP4 POP POP JUMPDEST PUSH1 0x2 SLOAD DUP4 LT PUSH2 0x46D JUMPI PUSH1 0x1 SWAP4 POP POP POP POP PUSH2 0x488 JUMP JUMPDEST POP DUP1 DUP1 PUSH2 0x479 SWAP1 PUSH2 0x1074 JUMP JUMPDEST SWAP2 POP POP PUSH2 0x397 JUMP JUMPDEST POP PUSH1 0x0 SWAP2 POP POP JUMPDEST SWAP2 SWAP1 POP JUMP JUMPDEST PUSH1 0x0 PUSH1 0x5 PUSH1 0x0 DUP4 DUP2 MSTORE PUSH1 0x20 ADD SWAP1 DUP2 MSTORE PUSH1 0x20 ADD PUSH1 0x0 KECCAK256 SLOAD SWAP1 POP SWAP2 SWAP1 POP JUMP JUMPDEST PUSH1 0x3 PUSH1 0x20 MSTORE DUP2 PUSH1 0x0 MSTORE PUSH1 0x40 PUSH1 0x0 KECCAK256 PUSH1 0x20 MSTORE DUP1 PUSH1 0x0 MSTORE PUSH1 0x40 PUSH1 0x0 KECCAK256 PUSH1 0x0 SWAP2 POP SWAP2 POP SWAP1 SLOAD SWAP1 PUSH2 0x100 EXP SWAP1 DIV PUSH1 0xFF AND DUP2 JUMP JUMPDEST PUSH1 0x4 PUSH1 0x20 MSTORE DUP1 PUSH1 0x0 MSTORE PUSH1 0x40 PUSH1 0x0 KECCAK256 PUSH1 0x0 SWAP2 POP SLOAD SWAP1 PUSH2 0x100 EXP SWAP1 DIV PUSH1 0xFF AND DUP2 JUMP JUMPDEST PUSH1 0x2 SLOAD DUP2 JUMP JUMPDEST PUSH1 0x0 DUP1 DUP3 PUSH1 0x40 MLOAD PUSH1 0x20 ADD PUSH2 0x513 SWAP2 SWAP1 PUSH2 0xC85 JUMP JUMPDEST PUSH1 0x40 MLOAD PUSH1 0x20 DUP2 DUP4 SUB SUB DUP2 MSTORE SWAP1 PUSH1 0x40 MSTORE SWAP1 POP PUSH1 0x0 DUP2 DUP1 MLOAD SWAP1 PUSH1 0x20 ADD KECCAK256 SWAP1 POP PUSH1 0x0 DUP2 PUSH1 0x0 SHR SWAP1 POP DUP1 SWAP4 POP POP POP POP SWAP2 SWAP1 POP JUMP JUMPDEST PUSH32 0xE1FFFCC4923D04B559F4D29A8BFC6CDA04EB5B0D3C460751C2402C5C5CC9109C CALLER CALLVALUE PUSH1 0x40 MLOAD PUSH2 0x574 SWAP3 SWAP2 SWAP1 PUSH2 0x10BC JUMP JUMPDEST PUSH1 0x40 MLOAD DUP1 SWAP2 SUB SWAP1 LOG1 JUMP JUMPDEST PUSH1 0x1 PUSH1 0x0 CALLER PUSH20 0xFFFFFFFFFFFFFFFFFFFFFFFFFFFFFFFFFFFFFFFF AND PUSH20 0xFFFFFFFFFFFFFFFFFFFFFFFFFFFFFFFFFFFFFFFF AND DUP2 MSTORE PUSH1 0x20 ADD SWAP1 DUP2 MSTORE PUSH1 0x20 ADD PUSH1 0x0 KECCAK256 PUSH1 0x0 SWAP1 SLOAD SWAP1 PUSH2 0x100 EXP SWAP1 DIV PUSH1 0xFF AND PUSH2 0x60A JUMPI PUSH1 0x40 MLOAD PUSH32 0x8C379A000000000000000000000000000000000000000000000000000000000 DUP2 MSTORE PUSH1 0x4 ADD PUSH2 0x601 SWAP1 PUSH2 0x1142 JUMP JUMPDEST PUSH1 0x40 MLOAD DUP1 SWAP2 SUB SWAP1 REVERT JUMPDEST PUSH1 0x0 DUP4 MLOAD GT PUSH2 0x64E JUMPI PUSH1 0x40 MLOAD PUSH32 0x8C379A000000000000000000000000000000000000000000000000000000000 DUP2 MSTORE PUSH1 0x4 ADD PUSH2 0x645 SWAP1 PUSH2 0x11AE JUMP JUMPDEST PUSH1 0x40 MLOAD DUP1 SWAP2 SUB SWAP1 REVERT JUMPDEST PUSH1 0x0 DUP3 MLOAD GT PUSH2 0x692 JUMPI PUSH1 0x40 MLOAD PUSH32 0x8C379A000000000000000000000000000000000000000000000000000000000 DUP2 MSTORE PUSH1 0x4 ADD PUSH2 0x689 SWAP1 PUSH2 0x121A JUMP JUMPDEST PUSH1 0x40 MLOAD DUP1 SWAP2 SUB SWAP1 REVERT JUMPDEST DUP2 MLOAD DUP4 MLOAD EQ PUSH2 0x6D6 JUMPI PUSH1 0x40 MLOAD PUSH32 0x8C379A000000000000000000000000000000000000000000000000000000000 DUP2 MSTORE PUSH1 0x4 ADD PUSH2 0x6CD SWAP1 PUSH2 0x1286 JUMP JUMPDEST PUSH1 0x40 MLOAD DUP1 SWAP2 SUB SWAP1 REVERT JUMPDEST PUSH1 0x0 NUMBER TIMESTAMP DUP4 PUSH1 0x40 MLOAD PUSH1 0x20 ADD PUSH2 0x6ED SWAP4 SWAP3 SWAP2 SWAP1 PUSH2 0x130F JUMP JUMPDEST PUSH1 0x40 MLOAD PUSH1 0x20 DUP2 DUP4 SUB SUB DUP2 MSTORE SWAP1 PUSH1 0x40 MSTORE DUP1 MLOAD SWAP1 PUSH1 0x20 ADD KECCAK256 PUSH1 0x0 SHR SWAP1 POP PUSH1 0x0 JUMPDEST DUP4 MLOAD DUP2 LT ISZERO PUSH2 0x8DA JUMPI PUSH1 0x0 DUP6 DUP3 DUP2 MLOAD DUP2 LT PUSH2 0x729 JUMPI PUSH2 0x728 PUSH2 0x1016 JUMP JUMPDEST JUMPDEST PUSH1 0x20 MUL PUSH1 0x20 ADD ADD MLOAD SWAP1 POP PUSH1 0x1 PUSH1 0x0 DUP3 PUSH20 0xFFFFFFFFFFFFFFFFFFFFFFFFFFFFFFFFFFFFFFFF AND PUSH20 0xFFFFFFFFFFFFFFFFFFFFFFFFFFFFFFFFFFFFFFFF AND DUP2 MSTORE PUSH1 0x20 ADD SWAP1 DUP2 MSTORE PUSH1 0x20 ADD PUSH1 0x0 KECCAK256 PUSH1 0x0 SWAP1 SLOAD SWAP1 PUSH2 0x100 EXP SWAP1 DIV PUSH1 0xFF AND PUSH2 0x7BF JUMPI PUSH1 0x40 MLOAD PUSH32 0x8C379A000000000000000000000000000000000000000000000000000000000 DUP2 MSTORE PUSH1 0x4 ADD PUSH2 0x7B6 SWAP1 PUSH2 0x1398 JUMP JUMPDEST PUSH1 0x40 MLOAD DUP1 SWAP2 SUB SWAP1 REVERT JUMPDEST PUSH1 0x3 PUSH1 0x0 DUP5 DUP2 MSTORE PUSH1 0x20 ADD SWAP1 DUP2 MSTORE PUSH1 0x20 ADD PUSH1 0x0 KECCAK256 PUSH1 0x0 DUP3 PUSH20 0xFFFFFFFFFFFFFFFFFFFFFFFFFFFFFFFFFFFFFFFF AND PUSH20 0xFFFFFFFFFFFFFFFFFFFFFFFFFFFFFFFFFFFFFFFF AND DUP2 MSTORE PUSH1 0x20 ADD SWAP1 DUP2 MSTORE PUSH1 0x20 ADD PUSH1 0x0 KECCAK256 PUSH1 0x0 SWAP1 SLOAD SWAP1 PUSH2 0x100 EXP SWAP1 DIV PUSH1 0xFF AND ISZERO PUSH2 0x85D JUMPI PUSH1 0x40 MLOAD PUSH32 0x8C379A000000000000000000000000000000000000000000000000000000000 DUP2 MSTORE PUSH1 0x4 ADD PUSH2 0x854 SWAP1 PUSH2 0x1404 JUMP JUMPDEST PUSH1 0x40 MLOAD DUP1 SWAP2 SUB SWAP1 REVERT JUMPDEST PUSH1 0x1 PUSH1 0x3 PUSH1 0x0 DUP6 DUP2 MSTORE PUSH1 0x20 ADD SWAP1 DUP2 MSTORE PUSH1 0x20 ADD PUSH1 0x0 KECCAK256 PUSH1 0x0 DUP4 PUSH20 0xFFFFFFFFFFFFFFFFFFFFFFFFFFFFFFFFFFFFFFFF AND PUSH20 0xFFFFFFFFFFFFFFFFFFFFFFFFFFFFFFFFFFFFFFFF AND DUP2 MSTORE PUSH1 0x20 ADD SWAP1 DUP2 MSTORE PUSH1 0x20 ADD PUSH1 0x0 KECCAK256 PUSH1 0x0 PUSH2 0x100 EXP DUP2 SLOAD DUP2 PUSH1 0xFF MUL NOT AND SWAP1 DUP4 ISZERO ISZERO MUL OR SWAP1 SSTORE POP POP DUP1 DUP1 PUSH2 0x8D2 SWAP1 PUSH2 0x1074 JUMP JUMPDEST SWAP2 POP POP PUSH2 0x70B JUMP JUMPDEST POP PUSH1 0x0 JUMPDEST DUP4 MLOAD DUP2 LT ISZERO PUSH2 0x93E JUMPI DUP4 DUP2 DUP2 MLOAD DUP2 LT PUSH2 0x8FA JUMPI PUSH2 0x8F9 PUSH2 0x1016 JUMP JUMPDEST JUMPDEST PUSH1 0x20 MUL PUSH1 0x20 ADD ADD MLOAD PUSH1 0x5 PUSH1 0x0 DUP5 DUP2 MSTORE PUSH1 0x20 ADD SWAP1 DUP2 MSTORE PUSH1 0x20 ADD PUSH1 0x0 KECCAK256 PUSH1 0x0 DUP3 DUP3 SLOAD PUSH2 0x924 SWAP2 SWAP1 PUSH2 0x1424 JUMP JUMPDEST SWAP3 POP POP DUP2 SWAP1 SSTORE POP DUP1 DUP1 PUSH2 0x936 SWAP1 PUSH2 0x1074 JUMP JUMPDEST SWAP2 POP POP PUSH2 0x8DE JUMP JUMPDEST POP CALLER PUSH20 0xFFFFFFFFFFFFFFFFFFFFFFFFFFFFFFFFFFFFFFFF AND DUP2 PUSH32 0xBDB11B76699CA539678DA607432FA18D58FB64FD19A05DABFD0289DBB25BD780 DUP7 DUP7 DUP7 PUSH1 0x40 MLOAD PUSH2 0x98A SWAP4 SWAP3 SWAP2 SWAP1 PUSH2 0x15D4 JUMP JUMPDEST PUSH1 0x40 MLOAD DUP1 SWAP2 SUB SWAP1 LOG3 POP POP POP POP JUMP JUMPDEST PUSH1 0x1 PUSH1 0x0 CALLER PUSH20 0xFFFFFFFFFFFFFFFFFFFFFFFFFFFFFFFFFFFFFFFF AND PUSH20 0xFFFFFFFFFFFFFFFFFFFFFFFFFFFFFFFFFFFFFFFF AND DUP2 MSTORE PUSH1 0x20 ADD SWAP1 DUP2 MSTORE PUSH1 0x20 ADD PUSH1 0x0 KECCAK256 PUSH1 0x0 SWAP1 SLOAD SWAP1 PUSH2 0x100 EXP SWAP1 DIV PUSH1 0xFF AND PUSH2 0xA24 JUMPI PUSH1 0x40 MLOAD PUSH32 0x8C379A000000000000000000000000000000000000000000000000000000000 DUP2 MSTORE PUSH1 0x4 ADD PUSH2 0xA1B SWAP1 PUSH2 0x1142 JUMP JUMPDEST PUSH1 0x40 MLOAD DUP1 SWAP2 SUB SWAP1 REVERT JUMPDEST PUSH2 0xA2D DUP2 PUSH2 0x38D JUMP JUMPDEST PUSH2 0xA6C JUMPI PUSH1 0x40 MLOAD PUSH32 0x8C379A000000000000000000000000000000000000000000000000000000000 DUP2 MSTORE PUSH1 0x4 ADD PUSH2 0xA63 SWAP1 PUSH2 0x1665 JUMP JUMPDEST PUSH1 0x40 MLOAD DUP1 SWAP2 SUB SWAP1 REVERT JUMPDEST PUSH1 0x4 PUSH1 0x0 DUP3 DUP2 MSTORE PUSH1 0x20 ADD SWAP1 DUP2 MSTORE PUSH1 0x20 ADD PUSH1 0x0 KECCAK256 PUSH1 0x0 SWAP1 SLOAD SWAP1 PUSH2 0x100 EXP SWAP1 DIV PUSH1 0xFF AND ISZERO PUSH2 0xACD JUMPI PUSH1 0x40 MLOAD PUSH32 0x8C379A000000000000000000000000000000000000000000000000000000000 DUP2 MSTORE PUSH1 0x4 ADD PUSH2 0xAC4 SWAP1 PUSH2 0x16D1 JUMP JUMPDEST PUSH1 0x40 MLOAD DUP1 SWAP2 SUB SWAP1 REVERT JUMPDEST PUSH1 0x1 PUSH1 0x4 PUSH1 0x0 DUP4 DUP2 MSTORE PUSH1 0x20 ADD SWAP1 DUP2 MSTORE PUSH1 0x20 ADD PUSH1 0x0 KECCAK256 PUSH1 0x0 PUSH2 0x100 EXP DUP2 SLOAD DUP2 PUSH1 0xFF MUL NOT AND SWAP1 DUP4 ISZERO ISZERO MUL OR SWAP1 SSTORE POP PUSH1 0x0 PUSH2 0xB04 DUP3 PUSH2 0x4FF JUMP JUMPDEST SWAP1 POP PUSH1 0x0 PUSH2 0xB11 DUP4 PUSH2 0x48D JUMP JUMPDEST SWAP1 POP DUP2 PUSH20 0xFFFFFFFFFFFFFFFFFFFFFFFFFFFFFFFFFFFFFFFF AND PUSH2 0x8FC DUP3 SWAP1 DUP2 ISZERO MUL SWAP1 PUSH1 0x40 MLOAD PUSH1 0x0 PUSH1 0x40 MLOAD DUP1 DUP4 SUB DUP2 DUP6 DUP9 DUP9 CALL SWAP4 POP POP POP POP ISZERO DUP1 ISZERO PUSH2 0xB59 JUMPI RETURNDATASIZE PUSH1 0x0 DUP1 RETURNDATACOPY RETURNDATASIZE PUSH1 0x0 REVERT JUMPDEST POP CALLER PUSH20 0xFFFFFFFFFFFFFFFFFFFFFFFFFFFFFFFFFFFFFFFF AND DUP4 PUSH32 0xEFC13BDCF58F184EA7CAE26B499FB33B539E01D0197CEA456F3ADA289B8CF19B PUSH1 0x40 MLOAD PUSH1 0x40 MLOAD DUP1 SWAP2 SUB SWAP1 LOG3 POP POP POP JUMP JUMPDEST PUSH1 0x0 PUSH1 0x40 MLOAD SWAP1 POP SWAP1 JUMP JUMPDEST PUSH1 0x0 DUP1 REVERT JUMPDEST PUSH1 0x0 DUP1 REVERT JUMPDEST PUSH1 0x0 DUP2 SWAP1 POP SWAP2 SWAP1 POP JUMP JUMPDEST PUSH2 0xBCA DUP2 PUSH2 0xBB7 JUMP JUMPDEST DUP2 EQ PUSH2 0xBD5 JUMPI PUSH1 0x0 DUP1 REVERT JUMPDEST POP JUMP JUMPDEST PUSH1 0x0 DUP2 CALLDATALOAD SWAP1 POP PUSH2 0xBE7 DUP2 PUSH2 0xBC1 JUMP JUMPDEST SWAP3 SWAP2 POP POP JUMP JUMPDEST PUSH1 0x0 PUSH1 0x20 DUP3 DUP5 SUB SLT ISZERO PUSH2 0xC03 JUMPI PUSH2 0xC02 PUSH2 0xBAD JUMP JUMPDEST JUMPDEST PUSH1 0x0 PUSH2 0xC11 DUP5 DUP3 DUP6 ADD PUSH2 0xBD8 JUMP JUMPDEST SWAP2 POP POP SWAP3 SWAP2 POP POP JUMP JUMPDEST PUSH1 0x0 PUSH20 0xFFFFFFFFFFFFFFFFFFFFFFFFFFFFFFFFFFFFFFFF DUP3 AND SWAP1 POP SWAP2 SWAP1 POP JUMP JUMPDEST PUSH1 0x0 PUSH2 0xC45 DUP3 PUSH2 0xC1A JUMP JUMPDEST SWAP1 POP SWAP2 SWAP1 POP JUMP JUMPDEST PUSH2 0xC55 DUP2 PUSH2 0xC3A JUMP JUMPDEST DUP3 MSTORE POP POP JUMP JUMPDEST PUSH1 0x0 PUSH1 0x20 DUP3 ADD SWAP1 POP PUSH2 0xC70 PUSH1 0x0 DUP4 ADD DUP5 PUSH2 0xC4C JUMP JUMPDEST SWAP3 SWAP2 POP POP JUMP JUMPDEST PUSH2 0xC7F DUP2 PUSH2 0xBB7 JUMP JUMPDEST DUP3 MSTORE POP POP JUMP JUMPDEST PUSH1 0x0 PUSH1 0x20 DUP3 ADD SWAP1 POP PUSH2 0xC9A PUSH1 0x0 DUP4 ADD DUP5 PUSH2 0xC76 JUMP JUMPDEST SWAP3 SWAP2 POP POP JUMP JUMPDEST PUSH2 0xCA9 DUP2 PUSH2 0xC3A JUMP JUMPDEST DUP2 EQ PUSH2 0xCB4 JUMPI PUSH1 0x0 DUP1 REVERT JUMPDEST POP JUMP JUMPDEST PUSH1 0x0 DUP2 CALLDATALOAD SWAP1 POP PUSH2 0xCC6 DUP2 PUSH2 0xCA0 JUMP JUMPDEST SWAP3 SWAP2 POP POP JUMP JUMPDEST PUSH1 0x0 PUSH1 0x20 DUP3 DUP5 SUB SLT ISZERO PUSH2 0xCE2 JUMPI PUSH2 0xCE1 PUSH2 0xBAD JUMP JUMPDEST JUMPDEST PUSH1 0x0 PUSH2 0xCF0 DUP5 DUP3 DUP6 ADD PUSH2 0xCB7 JUMP JUMPDEST SWAP2 POP POP SWAP3 SWAP2 POP POP JUMP JUMPDEST PUSH1 0x0 DUP2 ISZERO ISZERO SWAP1 POP SWAP2 SWAP1 POP JUMP JUMPDEST PUSH2 0xD0E DUP2 PUSH2 0xCF9 JUMP JUMPDEST DUP3 MSTORE POP POP JUMP JUMPDEST PUSH1 0x0 PUSH1 0x20 DUP3 ADD SWAP1 POP PUSH2 0xD29 PUSH1 0x0 DUP4 ADD DUP5 PUSH2 0xD05 JUMP JUMPDEST SWAP3 SWAP2 POP POP JUMP JUMPDEST PUSH1 0x0 DUP1 PUSH1 0x40 DUP4 DUP6 SUB SLT ISZERO PUSH2 0xD46 JUMPI PUSH2 0xD45 PUSH2 0xBAD JUMP JUMPDEST JUMPDEST PUSH1 0x0 PUSH2 0xD54 DUP6 DUP3 DUP7 ADD PUSH2 0xBD8 JUMP JUMPDEST SWAP3 POP POP PUSH1 0x20 PUSH2 0xD65 DUP6 DUP3 DUP7 ADD PUSH2 0xCB7 JUMP JUMPDEST SWAP2 POP POP SWAP3 POP SWAP3 SWAP1 POP JUMP JUMPDEST PUSH1 0x0 DUP1 REVERT JUMPDEST PUSH1 0x0 PUSH1 0x1F NOT PUSH1 0x1F DUP4 ADD AND SWAP1 POP SWAP2 SWAP1 POP JUMP JUMPDEST PUSH32 0x4E487B7100000000000000000000000000000000000000000000000000000000 PUSH1 0x0 MSTORE PUSH1 0x41 PUSH1 0x4 MSTORE PUSH1 0x24 PUSH1 0x0 REVERT JUMPDEST PUSH2 0xDBD DUP3 PUSH2 0xD74 JUMP JUMPDEST DUP2 ADD DUP2 DUP2 LT PUSH8 0xFFFFFFFFFFFFFFFF DUP3 GT OR ISZERO PUSH2 0xDDC JUMPI PUSH2 0xDDB PUSH2 0xD85 JUMP JUMPDEST JUMPDEST DUP1 PUSH1 0x40 MSTORE POP POP POP JUMP JUMPDEST PUSH1 0x0 PUSH2 0xDEF PUSH2 0xBA3 JUMP JUMPDEST SWAP1 POP PUSH2 0xDFB DUP3 DUP3 PUSH2 0xDB4 JUMP JUMPDEST SWAP2 SWAP1 POP JUMP JUMPDEST PUSH1 0x0 PUSH8 0xFFFFFFFFFFFFFFFF DUP3 GT ISZERO PUSH2 0xE1B JUMPI PUSH2 0xE1A PUSH2 0xD85 JUMP JUMPDEST JUMPDEST PUSH1 0x20 DUP3 MUL SWAP1 POP PUSH1 0x20 DUP2 ADD SWAP1 POP SWAP2 SWAP1 POP JUMP JUMPDEST PUSH1 0x0 DUP1 REVERT JUMPDEST PUSH1 0x0 PUSH2 0xE44 PUSH2 0xE3F DUP5 PUSH2 0xE00 JUMP JUMPDEST PUSH2 0xDE5 JUMP JUMPDEST SWAP1 POP DUP1 DUP4 DUP3 MSTORE PUSH1 0x20 DUP3 ADD SWAP1 POP PUSH1 0x20 DUP5 MUL DUP4 ADD DUP6 DUP2 GT ISZERO PUSH2 0xE67 JUMPI PUSH2 0xE66 PUSH2 0xE2C JUMP JUMPDEST JUMPDEST DUP4 JUMPDEST DUP2 DUP2 LT ISZERO PUSH2 0xE90 JUMPI DUP1 PUSH2 0xE7C DUP9 DUP3 PUSH2 0xCB7 JUMP JUMPDEST DUP5 MSTORE PUSH1 0x20 DUP5 ADD SWAP4 POP POP PUSH1 0x20 DUP2 ADD SWAP1 POP PUSH2 0xE69 JUMP JUMPDEST POP POP POP SWAP4 SWAP3 POP POP POP JUMP JUMPDEST PUSH1 0x0 DUP3 PUSH1 0x1F DUP4 ADD SLT PUSH2 0xEAF JUMPI PUSH2 0xEAE PUSH2 0xD6F JUMP JUMPDEST JUMPDEST DUP2 CALLDATALOAD PUSH2 0xEBF DUP5 DUP3 PUSH1 0x20 DUP7 ADD PUSH2 0xE31 JUMP JUMPDEST SWAP2 POP POP SWAP3 SWAP2 POP POP JUMP JUMPDEST PUSH1 0x0 PUSH8 0xFFFFFFFFFFFFFFFF DUP3 GT ISZERO PUSH2 0xEE3 JUMPI PUSH2 0xEE2 PUSH2 0xD85 JUMP JUMPDEST JUMPDEST PUSH1 0x20 DUP3 MUL SWAP1 POP PUSH1 0x20 DUP2 ADD SWAP1 POP SWAP2 SWAP1 POP JUMP JUMPDEST PUSH1 0x0 PUSH2 0xF07 PUSH2 0xF02 DUP5 PUSH2 0xEC8 JUMP JUMPDEST PUSH2 0xDE5 JUMP JUMPDEST SWAP1 POP DUP1 DUP4 DUP3 MSTORE PUSH1 0x20 DUP3 ADD SWAP1 POP PUSH1 0x20 DUP5 MUL DUP4 ADD DUP6 DUP2 GT ISZERO PUSH2 0xF2A JUMPI PUSH2 0xF29 PUSH2 0xE2C JUMP JUMPDEST JUMPDEST DUP4 JUMPDEST DUP2 DUP2 LT ISZERO PUSH2 0xF53 JUMPI DUP1 PUSH2 0xF3F DUP9 DUP3 PUSH2 0xBD8 JUMP JUMPDEST DUP5 MSTORE PUSH1 0x20 DUP5 ADD SWAP4 POP POP PUSH1 0x20 DUP2 ADD SWAP1 POP PUSH2 0xF2C JUMP JUMPDEST POP POP POP SWAP4 SWAP3 POP POP POP JUMP JUMPDEST PUSH1 0x0 DUP3 PUSH1 0x1F DUP4 ADD SLT PUSH2 0xF72 JUMPI PUSH2 0xF71 PUSH2 0xD6F JUMP JUMPDEST JUMPDEST DUP2 CALLDATALOAD PUSH2 0xF82 DUP5 DUP3 PUSH1 0x20 DUP7 ADD PUSH2 0xEF4 JUMP JUMPDEST SWAP2 POP POP SWAP3 SWAP2 POP POP JUMP JUMPDEST PUSH1 0x0 DUP1 PUSH1 0x0 PUSH1 0x60 DUP5 DUP7 SUB SLT ISZERO PUSH2 0xFA4 JUMPI PUSH2 0xFA3 PUSH2 0xBAD JUMP JUMPDEST JUMPDEST PUSH1 0x0 DUP5 ADD CALLDATALOAD PUSH8 0xFFFFFFFFFFFFFFFF DUP2 GT ISZERO PUSH2 0xFC2 JUMPI PUSH2 0xFC1 PUSH2 0xBB2 JUMP JUMPDEST JUMPDEST PUSH2 0xFCE DUP7 DUP3 DUP8 ADD PUSH2 0xE9A JUMP JUMPDEST SWAP4 POP POP PUSH1 0x20 DUP5 ADD CALLDATALOAD PUSH8 0xFFFFFFFFFFFFFFFF DUP2 GT ISZERO PUSH2 0xFEF JUMPI PUSH2 0xFEE PUSH2 0xBB2 JUMP JUMPDEST JUMPDEST PUSH2 0xFFB DUP7 DUP3 DUP8 ADD PUSH2 0xF5D JUMP JUMPDEST SWAP3 POP POP PUSH1 0x40 PUSH2 0x100C DUP7 DUP3 DUP8 ADD PUSH2 0xCB7 JUMP JUMPDEST SWAP2 POP POP SWAP3 POP SWAP3 POP SWAP3 JUMP JUMPDEST PUSH32 0x4E487B7100000000000000000000000000000000000000000000000000000000 PUSH1 0x0 MSTORE PUSH1 0x32 PUSH1 0x4 MSTORE PUSH1 0x24 PUSH1 0x0 REVERT JUMPDEST PUSH32 0x4E487B7100000000000000000000000000000000000000000000000000000000 PUSH1 0x0 MSTORE PUSH1 0x11 PUSH1 0x4 MSTORE PUSH1 0x24 PUSH1 0x0 REVERT JUMPDEST PUSH1 0x0 PUSH2 0x107F DUP3 PUSH2 0xBB7 JUMP JUMPDEST SWAP2 POP PUSH32 0xFFFFFFFFFFFFFFFFFFFFFFFFFFFFFFFFFFFFFFFFFFFFFFFFFFFFFFFFFFFFFFFF DUP3 SUB PUSH2 0x10B1 JUMPI PUSH2 0x10B0 PUSH2 0x1045 JUMP JUMPDEST JUMPDEST PUSH1 0x1 DUP3 ADD SWAP1 POP SWAP2 SWAP1 POP JUMP JUMPDEST PUSH1 0x0 PUSH1 0x40 DUP3 ADD SWAP1 POP PUSH2 0x10D1 PUSH1 0x0 DUP4 ADD DUP6 PUSH2 0xC4C JUMP JUMPDEST PUSH2 0x10DE PUSH1 0x20 DUP4 ADD DUP5 PUSH2 0xC76 JUMP JUMPDEST SWAP4 SWAP3 POP POP POP JUMP JUMPDEST PUSH1 0x0 DUP3 DUP3 MSTORE PUSH1 0x20 DUP3 ADD SWAP1 POP SWAP3 SWAP2 POP POP JUMP JUMPDEST PUSH32 0x556E617574686F72697A65640000000000000000000000000000000000000000 PUSH1 0x0 DUP3 ADD MSTORE POP JUMP JUMPDEST PUSH1 0x0 PUSH2 0x112C PUSH1 0xC DUP4 PUSH2 0x10E5 JUMP JUMPDEST SWAP2 POP PUSH2 0x1137 DUP3 PUSH2 0x10F6 JUMP JUMPDEST PUSH1 0x20 DUP3 ADD SWAP1 POP SWAP2 SWAP1 POP JUMP JUMPDEST PUSH1 0x0 PUSH1 0x20 DUP3 ADD SWAP1 POP DUP2 DUP2 SUB PUSH1 0x0 DUP4 ADD MSTORE PUSH2 0x115B DUP2 PUSH2 0x111F JUMP JUMPDEST SWAP1 POP SWAP2 SWAP1 POP JUMP JUMPDEST PUSH32 0x5369676E65727320726571756972656400000000000000000000000000000000 PUSH1 0x0 DUP3 ADD MSTORE POP JUMP JUMPDEST PUSH1 0x0 PUSH2 0x1198 PUSH1 0x10 DUP4 PUSH2 0x10E5 JUMP JUMPDEST SWAP2 POP PUSH2 0x11A3 DUP3 PUSH2 0x1162 JUMP JUMPDEST PUSH1 0x20 DUP3 ADD SWAP1 POP SWAP2 SWAP1 POP JUMP JUMPDEST PUSH1 0x0 PUSH1 0x20 DUP3 ADD SWAP1 POP DUP2 DUP2 SUB PUSH1 0x0 DUP4 ADD MSTORE PUSH2 0x11C7 DUP2 PUSH2 0x118B JUMP JUMPDEST SWAP1 POP SWAP2 SWAP1 POP JUMP JUMPDEST PUSH32 0x416D6F756E747320726571756972657300000000000000000000000000000000 PUSH1 0x0 DUP3 ADD MSTORE POP JUMP JUMPDEST PUSH1 0x0 PUSH2 0x1204 PUSH1 0x10 DUP4 PUSH2 0x10E5 JUMP JUMPDEST SWAP2 POP PUSH2 0x120F DUP3 PUSH2 0x11CE JUMP JUMPDEST PUSH1 0x20 DUP3 ADD SWAP1 POP SWAP2 SWAP1 POP JUMP JUMPDEST PUSH1 0x0 PUSH1 0x20 DUP3 ADD SWAP1 POP DUP2 DUP2 SUB PUSH1 0x0 DUP4 ADD MSTORE PUSH2 0x1233 DUP2 PUSH2 0x11F7 JUMP JUMPDEST SWAP1 POP SWAP2 SWAP1 POP JUMP JUMPDEST PUSH32 0x496E76616C696420696E707574206C656E677468000000000000000000000000 PUSH1 0x0 DUP3 ADD MSTORE POP JUMP JUMPDEST PUSH1 0x0 PUSH2 0x1270 PUSH1 0x14 DUP4 PUSH2 0x10E5 JUMP JUMPDEST SWAP2 POP PUSH2 0x127B DUP3 PUSH2 0x123A JUMP JUMPDEST PUSH1 0x20 DUP3 ADD SWAP1 POP SWAP2 SWAP1 POP JUMP JUMPDEST PUSH1 0x0 PUSH1 0x20 DUP3 ADD SWAP1 POP DUP2 DUP2 SUB PUSH1 0x0 DUP4 ADD MSTORE PUSH2 0x129F DUP2 PUSH2 0x1263 JUMP JUMPDEST SWAP1 POP SWAP2 SWAP1 POP JUMP JUMPDEST PUSH1 0x0 DUP2 SWAP1 POP SWAP2 SWAP1 POP JUMP JUMPDEST PUSH2 0x12C1 PUSH2 0x12BC DUP3 PUSH2 0xBB7 JUMP JUMPDEST PUSH2 0x12A6 JUMP JUMPDEST DUP3 MSTORE POP POP JUMP JUMPDEST PUSH1 0x0 DUP2 PUSH1 0x60 SHL SWAP1 POP SWAP2 SWAP1 POP JUMP JUMPDEST PUSH1 0x0 PUSH2 0x12DF DUP3 PUSH2 0x12C7 JUMP JUMPDEST SWAP1 POP SWAP2 SWAP1 POP JUMP JUMPDEST PUSH1 0x0 PUSH2 0x12F1 DUP3 PUSH2 0x12D4 JUMP JUMPDEST SWAP1 POP SWAP2 SWAP1 POP JUMP JUMPDEST PUSH2 0x1309 PUSH2 0x1304 DUP3 PUSH2 0xC3A JUMP JUMPDEST PUSH2 0x12E6 JUMP JUMPDEST DUP3 MSTORE POP POP JUMP JUMPDEST PUSH1 0x0 PUSH2 0x131B DUP3 DUP7 PUSH2 0x12B0 JUMP JUMPDEST PUSH1 0x20 DUP3 ADD SWAP2 POP PUSH2 0x132B DUP3 DUP6 PUSH2 0x12B0 JUMP JUMPDEST PUSH1 0x20 DUP3 ADD SWAP2 POP PUSH2 0x133B DUP3 DUP5 PUSH2 0x12F8 JUMP JUMPDEST PUSH1 0x14 DUP3 ADD SWAP2 POP DUP2 SWAP1 POP SWAP5 SWAP4 POP POP POP POP JUMP JUMPDEST PUSH32 0x4F6E76616C6964207369676E6572000000000000000000000000000000000000 PUSH1 0x0 DUP3 ADD MSTORE POP JUMP JUMPDEST PUSH1 0x0 PUSH2 0x1382 PUSH1 0xE DUP4 PUSH2 0x10E5 JUMP JUMPDEST SWAP2 POP PUSH2 0x138D DUP3 PUSH2 0x134C JUMP JUMPDEST PUSH1 0x20 DUP3 ADD SWAP1 POP SWAP2 SWAP1 POP JUMP JUMPDEST PUSH1 0x0 PUSH1 0x20 DUP3 ADD SWAP1 POP DUP2 DUP2 SUB PUSH1 0x0 DUP4 ADD MSTORE PUSH2 0x13B1 DUP2 PUSH2 0x1375 JUMP JUMPDEST SWAP1 POP SWAP2 SWAP1 POP JUMP JUMPDEST PUSH32 0x4475706C6963617465205369676E657200000000000000000000000000000000 PUSH1 0x0 DUP3 ADD MSTORE POP JUMP JUMPDEST PUSH1 0x0 PUSH2 0x13EE PUSH1 0x10 DUP4 PUSH2 0x10E5 JUMP JUMPDEST SWAP2 POP PUSH2 0x13F9 DUP3 PUSH2 0x13B8 JUMP JUMPDEST PUSH1 0x20 DUP3 ADD SWAP1 POP SWAP2 SWAP1 POP JUMP JUMPDEST PUSH1 0x0 PUSH1 0x20 DUP3 ADD SWAP1 POP DUP2 DUP2 SUB PUSH1 0x0 DUP4 ADD MSTORE PUSH2 0x141D DUP2 PUSH2 0x13E1 JUMP JUMPDEST SWAP1 POP SWAP2 SWAP1 POP JUMP JUMPDEST PUSH1 0x0 PUSH2 0x142F DUP3 PUSH2 0xBB7 JUMP JUMPDEST SWAP2 POP PUSH2 0x143A DUP4 PUSH2 0xBB7 JUMP JUMPDEST SWAP3 POP DUP3 DUP3 ADD SWAP1 POP DUP1 DUP3 GT ISZERO PUSH2 0x1452 JUMPI PUSH2 0x1451 PUSH2 0x1045 JUMP JUMPDEST JUMPDEST SWAP3 SWAP2 POP POP JUMP JUMPDEST PUSH1 0x0 DUP2 MLOAD SWAP1 POP SWAP2 SWAP1 POP JUMP JUMPDEST PUSH1 0x0 DUP3 DUP3 MSTORE PUSH1 0x20 DUP3 ADD SWAP1 POP SWAP3 SWAP2 POP POP JUMP JUMPDEST PUSH1 0x0 DUP2 SWAP1 POP PUSH1 0x20 DUP3 ADD SWAP1 POP SWAP2 SWAP1 POP JUMP JUMPDEST PUSH2 0x148D DUP2 PUSH2 0xC3A JUMP JUMPDEST DUP3 MSTORE POP POP JUMP JUMPDEST PUSH1 0x0 PUSH2 0x149F DUP4 DUP4 PUSH2 0x1484 JUMP JUMPDEST PUSH1 0x20 DUP4 ADD SWAP1 POP SWAP3 SWAP2 POP POP JUMP JUMPDEST PUSH1 0x0 PUSH1 0x20 DUP3 ADD SWAP1 POP SWAP2 SWAP1 POP JUMP JUMPDEST PUSH1 0x0 PUSH2 0x14C3 DUP3 PUSH2 0x1458 JUMP JUMPDEST PUSH2 0x14CD DUP2 DUP6 PUSH2 0x1463 JUMP JUMPDEST SWAP4 POP PUSH2 0x14D8 DUP4 PUSH2 0x1474 JUMP JUMPDEST DUP1 PUSH1 0x0 JUMPDEST DUP4 DUP2 LT ISZERO PUSH2 0x1509 JUMPI DUP2 MLOAD PUSH2 0x14F0 DUP9 DUP3 PUSH2 0x1493 JUMP JUMPDEST SWAP8 POP PUSH2 0x14FB DUP4 PUSH2 0x14AB JUMP JUMPDEST SWAP3 POP POP PUSH1 0x1 DUP2 ADD SWAP1 POP PUSH2 0x14DC JUMP JUMPDEST POP DUP6 SWAP4 POP POP POP POP SWAP3 SWAP2 POP POP JUMP JUMPDEST PUSH1 0x0 DUP2 MLOAD SWAP1 POP SWAP2 SWAP1 POP JUMP JUMPDEST PUSH1 0x0 DUP3 DUP3 MSTORE PUSH1 0x20 DUP3 ADD SWAP1 POP SWAP3 SWAP2 POP POP JUMP JUMPDEST PUSH1 0x0 DUP2 SWAP1 POP PUSH1 0x20 DUP3 ADD SWAP1 POP SWAP2 SWAP1 POP JUMP JUMPDEST PUSH2 0x154B DUP2 PUSH2 0xBB7 JUMP JUMPDEST DUP3 MSTORE POP POP JUMP JUMPDEST PUSH1 0x0 PUSH2 0x155D DUP4 DUP4 PUSH2 0x1542 JUMP JUMPDEST PUSH1 0x20 DUP4 ADD SWAP1 POP SWAP3 SWAP2 POP POP JUMP JUMPDEST PUSH1 0x0 PUSH1 0x20 DUP3 ADD SWAP1 POP SWAP2 SWAP1 POP JUMP JUMPDEST PUSH1 0x0 PUSH2 0x1581 DUP3 PUSH2 0x1516 JUMP JUMPDEST PUSH2 0x158B DUP2 DUP6 PUSH2 0x1521 JUMP JUMPDEST SWAP4 POP PUSH2 0x1596 DUP4 PUSH2 0x1532 JUMP JUMPDEST DUP1 PUSH1 0x0 JUMPDEST DUP4 DUP2 LT ISZERO PUSH2 0x15C7 JUMPI DUP2 MLOAD PUSH2 0x15AE DUP9 DUP3 PUSH2 0x1551 JUMP JUMPDEST SWAP8 POP PUSH2 0x15B9 DUP4 PUSH2 0x1569 JUMP JUMPDEST SWAP3 POP POP PUSH1 0x1 DUP2 ADD SWAP1 POP PUSH2 0x159A JUMP JUMPDEST POP DUP6 SWAP4 POP POP POP POP SWAP3 SWAP2 POP POP JUMP JUMPDEST PUSH1 0x0 PUSH1 0x60 DUP3 ADD SWAP1 POP DUP2 DUP2 SUB PUSH1 0x0 DUP4 ADD MSTORE PUSH2 0x15EE DUP2 DUP7 PUSH2 0x14B8 JUMP JUMPDEST SWAP1 POP DUP2 DUP2 SUB PUSH1 0x20 DUP4 ADD MSTORE PUSH2 0x1602 DUP2 DUP6 PUSH2 0x1576 JUMP JUMPDEST SWAP1 POP PUSH2 0x1611 PUSH1 0x40 DUP4 ADD DUP5 PUSH2 0xC4C JUMP JUMPDEST SWAP5 SWAP4 POP POP POP POP JUMP JUMPDEST PUSH32 0x5472616E73616374696F6E206E6F7420617070726F7665640000000000000000 PUSH1 0x0 DUP3 ADD MSTORE POP JUMP JUMPDEST PUSH1 0x0 PUSH2 0x164F PUSH1 0x18 DUP4 PUSH2 0x10E5 JUMP JUMPDEST SWAP2 POP PUSH2 0x165A DUP3 PUSH2 0x1619 JUMP JUMPDEST PUSH1 0x20 DUP3 ADD SWAP1 POP SWAP2 SWAP1 POP JUMP JUMPDEST PUSH1 0x0 PUSH1 0x20 DUP3 ADD SWAP1 POP DUP2 DUP2 SUB PUSH1 0x0 DUP4 ADD MSTORE PUSH2 0x167E DUP2 PUSH2 0x1642 JUMP JUMPDEST SWAP1 POP SWAP2 SWAP1 POP JUMP JUMPDEST PUSH32 0x5452616E73616374696F6E20616C726561647920657865637574656400000000 PUSH1 0x0 DUP3 ADD MSTORE POP JUMP JUMPDEST PUSH1 0x0 PUSH2 0x16BB PUSH1 0x1C DUP4 PUSH2 0x10E5 JUMP JUMPDEST SWAP2 POP PUSH2 0x16C6 DUP3 PUSH2 0x1685 JUMP JUMPDEST PUSH1 0x20 DUP3 ADD SWAP1 POP SWAP2 SWAP1 POP JUMP JUMPDEST PUSH1 0x0 PUSH1 0x20 DUP3 ADD SWAP1 POP DUP2 DUP2 SUB PUSH1 0x0 DUP4 ADD MSTORE PUSH2 0x16EA DUP2 PUSH2 0x16AE JUMP JUMPDEST SWAP1 POP SWAP2 SWAP1 POP JUMP INVALID LOG2 PUSH5 0x6970667358 0x22 SLT KECCAK256 SSTORE MUL BASEFEE CHAINID OR 0xC1 0xFB PUSH1 0x8 RETURNDATACOPY RETURNDATACOPY PUSH12 0x95C3712C922DFBAF1C55E434 DUP12 PUSH30 0xE43FC6C2F91664736F6C6343000812003300000000000000000000000000 "
				},
				"gasEstimates": {
					"creation": {
						"codeDepositCost": "1185400",
						"executionCost": "infinite",
						"totalCost": "infinite"
					},
					"external": {
						"": "218",
						"createTransaction(address[],uint256[],address)": "infinite",
						"deposit()": "1783",
						"executeTransaction(uint256)": "infinite",
						"getTransactionAmount(uint256)": "infinite",
						"getTransactionRecipient(uint256)": "infinite",
						"isApproved(uint256,address)": "3198",
						"isOwner(address)": "2890",
						"isTransactionApproved(uint256)": "infinite",
						"isTransactionExecuted(uint256)": "2796",
						"owners(uint256)": "4957",
						"requiredSignatures()": "2451",
						"transactionAmounts(uint256)": "infinite"
					}
				},
				"methodIdentifiers": {
					"createTransaction(address[],uint256[],address)": "d45c3b8c",
					"deposit()": "d0e30db0",
					"executeTransaction(uint256)": "ee22610b",
					"getTransactionAmount(uint256)": "53d1f1bb",
					"getTransactionRecipient(uint256)": "935b8e1b",
					"isApproved(uint256,address)": "56c31637",
					"isOwner(address)": "2f54bf6e",
					"isTransactionApproved(uint256)": "3abb2e4d",
					"isTransactionExecuted(uint256)": "81fed0ec",
					"owners(uint256)": "025e7c27",
					"requiredSignatures()": "8d068043",
					"transactionAmounts(uint256)": "2cd6958f"
				}
			},
			"storageLayout": {
				"storage": [
					{
						"astId": 4,
						"contract": "contracts/MSWallet.sol:MultiSignatureWallet",
						"label": "owners",
						"offset": 0,
						"slot": "0",
						"type": "t_array(t_address)dyn_storage"
					},
					{
						"astId": 8,
						"contract": "contracts/MSWallet.sol:MultiSignatureWallet",
						"label": "isOwner",
						"offset": 0,
						"slot": "1",
						"type": "t_mapping(t_address,t_bool)"
					},
					{
						"astId": 10,
						"contract": "contracts/MSWallet.sol:MultiSignatureWallet",
						"label": "requiredSignatures",
						"offset": 0,
						"slot": "2",
						"type": "t_uint256"
					},
					{
						"astId": 16,
						"contract": "contracts/MSWallet.sol:MultiSignatureWallet",
						"label": "isApproved",
						"offset": 0,
						"slot": "3",
						"type": "t_mapping(t_uint256,t_mapping(t_address,t_bool))"
					},
					{
						"astId": 20,
						"contract": "contracts/MSWallet.sol:MultiSignatureWallet",
						"label": "isTransactionExecuted",
						"offset": 0,
						"slot": "4",
						"type": "t_mapping(t_uint256,t_bool)"
					},
					{
						"astId": 24,
						"contract": "contracts/MSWallet.sol:MultiSignatureWallet",
						"label": "transactionAmounts",
						"offset": 0,
						"slot": "5",
						"type": "t_mapping(t_uint256,t_uint256)"
					}
				],
				"types": {
					"t_address": {
						"encoding": "inplace",
						"label": "address",
						"numberOfBytes": "20"
					},
					"t_array(t_address)dyn_storage": {
						"base": "t_address",
						"encoding": "dynamic_array",
						"label": "address[]",
						"numberOfBytes": "32"
					},
					"t_bool": {
						"encoding": "inplace",
						"label": "bool",
						"numberOfBytes": "1"
					},
					"t_mapping(t_address,t_bool)": {
						"encoding": "mapping",
						"key": "t_address",
						"label": "mapping(address => bool)",
						"numberOfBytes": "32",
						"value": "t_bool"
					},
					"t_mapping(t_uint256,t_bool)": {
						"encoding": "mapping",
						"key": "t_uint256",
						"label": "mapping(uint256 => bool)",
						"numberOfBytes": "32",
						"value": "t_bool"
					},
					"t_mapping(t_uint256,t_mapping(t_address,t_bool))": {
						"encoding": "mapping",
						"key": "t_uint256",
						"label": "mapping(uint256 => mapping(address => bool))",
						"numberOfBytes": "32",
						"value": "t_mapping(t_address,t_bool)"
					},
					"t_mapping(t_uint256,t_uint256)": {
						"encoding": "mapping",
						"key": "t_uint256",
						"label": "mapping(uint256 => uint256)",
						"numberOfBytes": "32",
						"value": "t_uint256"
					},
					"t_uint256": {
						"encoding": "inplace",
						"label": "uint256",
						"numberOfBytes": "32"
					}
				}
			},
			"userdoc": {
				"kind": "user",
				"methods": {},
				"version": 1
			}
		}
	}
}