{
	"contracts/Dex2.sol": {
		"DecentralizedExchange": {
			"abi": [
				{
					"inputs": [],
					"stateMutability": "nonpayable",
					"type": "constructor"
				},
				{
					"anonymous": false,
					"inputs": [
						{
							"indexed": true,
							"internalType": "address",
							"name": "account",
							"type": "address"
						},
						{
							"indexed": false,
							"internalType": "uint256",
							"name": "amount",
							"type": "uint256"
						}
					],
					"name": "Deposit",
					"type": "event"
				},
				{
					"anonymous": false,
					"inputs": [
						{
							"indexed": true,
							"internalType": "address",
							"name": "buyer",
							"type": "address"
						},
						{
							"indexed": true,
							"internalType": "address",
							"name": "seller",
							"type": "address"
						},
						{
							"indexed": false,
							"internalType": "uint256",
							"name": "amount",
							"type": "uint256"
						},
						{
							"indexed": false,
							"internalType": "uint256",
							"name": "price",
							"type": "uint256"
						}
					],
					"name": "Trade",
					"type": "event"
				},
				{
					"anonymous": false,
					"inputs": [
						{
							"indexed": true,
							"internalType": "address",
							"name": "account",
							"type": "address"
						},
						{
							"indexed": false,
							"internalType": "uint256",
							"name": "amount",
							"type": "uint256"
						}
					],
					"name": "Withdarawal",
					"type": "event"
				},
				{
					"stateMutability": "payable",
					"type": "fallback"
				},
				{
					"inputs": [
						{
							"internalType": "address",
							"name": "",
							"type": "address"
						}
					],
					"name": "balances",
					"outputs": [
						{
							"internalType": "uint256",
							"name": "",
							"type": "uint256"
						}
					],
					"stateMutability": "view",
					"type": "function"
				},
				{
					"inputs": [
						{
							"internalType": "uint256",
							"name": "amount",
							"type": "uint256"
						}
					],
					"name": "deposit",
					"outputs": [],
					"stateMutability": "payable",
					"type": "function"
				},
				{
					"inputs": [],
					"name": "owner",
					"outputs": [
						{
							"internalType": "address",
							"name": "",
							"type": "address"
						}
					],
					"stateMutability": "view",
					"type": "function"
				},
				{
					"inputs": [
						{
							"internalType": "address",
							"name": "tokenAddress",
							"type": "address"
						},
						{
							"internalType": "uint256",
							"name": "amount",
							"type": "uint256"
						},
						{
							"internalType": "uint256",
							"name": "price",
							"type": "uint256"
						}
					],
					"name": "trade",
					"outputs": [],
					"stateMutability": "payable",
					"type": "function"
				},
				{
					"inputs": [
						{
							"internalType": "uint256",
							"name": "amount",
							"type": "uint256"
						}
					],
					"name": "withdraw",
					"outputs": [],
					"stateMutability": "nonpayable",
					"type": "function"
				},
				{
					"stateMutability": "payable",
					"type": "receive"
				}
			],
			"devdoc": {
				"kind": "dev",
				"methods": {},
				"version": 1
			},
			"evm": {
				"assembly": "    /* \"contracts/Dex2.sol\":161:1570  contract DecentralizedExchange {... */\n  mstore(0x40, 0x80)\n    /* \"contracts/Dex2.sol\":494:543  constructor() {... */\n  callvalue\n  dup1\n  iszero\n  tag_1\n  jumpi\n  0x00\n  dup1\n  revert\ntag_1:\n  pop\n    /* \"contracts/Dex2.sol\":526:536  msg.sender */\n  caller\n    /* \"contracts/Dex2.sol\":518:523  owner */\n  0x00\n  dup1\n    /* \"contracts/Dex2.sol\":518:536  owner = msg.sender */\n  0x0100\n  exp\n  dup2\n  sload\n  dup2\n  0xffffffffffffffffffffffffffffffffffffffff\n  mul\n  not\n  and\n  swap1\n  dup4\n  0xffffffffffffffffffffffffffffffffffffffff\n  and\n  mul\n  or\n  swap1\n  sstore\n  pop\n    /* \"contracts/Dex2.sol\":161:1570  contract DecentralizedExchange {... */\n  dataSize(sub_0)\n  dup1\n  dataOffset(sub_0)\n  0x00\n  codecopy\n  0x00\n  return\nstop\n\nsub_0: assembly {\n        /* \"contracts/Dex2.sol\":161:1570  contract DecentralizedExchange {... */\n      mstore(0x40, 0x80)\n      jumpi(tag_1, lt(calldatasize, 0x04))\n      shr(0xe0, calldataload(0x00))\n      dup1\n      0x27e235e3\n      eq\n      tag_3\n      jumpi\n      dup1\n      0x2e1a7d4d\n      eq\n      tag_4\n      jumpi\n      dup1\n      0x8da5cb5b\n      eq\n      tag_5\n      jumpi\n      dup1\n      0xb44b96e1\n      eq\n      tag_6\n      jumpi\n      dup1\n      0xb6b55f25\n      eq\n      tag_7\n      jumpi\n      jump(tag_2)\n    tag_1:\n      jumpi(tag_2, calldatasize)\n        /* \"contracts/Dex2.sol\":586:604  deposit(msg.value) */\n      tag_10\n        /* \"contracts/Dex2.sol\":594:603  msg.value */\n      callvalue\n        /* \"contracts/Dex2.sol\":586:593  deposit */\n      tag_11\n        /* \"contracts/Dex2.sol\":586:604  deposit(msg.value) */\n      jump\t// in\n    tag_10:\n        /* \"contracts/Dex2.sol\":161:1570  contract DecentralizedExchange {... */\n      stop\n    tag_2:\n        /* \"contracts/Dex2.sol\":655:673  deposit(msg.value) */\n      tag_14\n        /* \"contracts/Dex2.sol\":663:672  msg.value */\n      callvalue\n        /* \"contracts/Dex2.sol\":655:662  deposit */\n      tag_11\n        /* \"contracts/Dex2.sol\":655:673  deposit(msg.value) */\n      jump\t// in\n    tag_14:\n        /* \"contracts/Dex2.sol\":161:1570  contract DecentralizedExchange {... */\n      stop\n        /* \"contracts/Dex2.sol\":224:267  mapping(address => uint256) public balances */\n    tag_3:\n      callvalue\n      dup1\n      iszero\n      tag_15\n      jumpi\n      0x00\n      dup1\n      revert\n    tag_15:\n      pop\n      tag_16\n      0x04\n      dup1\n      calldatasize\n      sub\n      dup2\n      add\n      swap1\n      tag_17\n      swap2\n      swap1\n      tag_18\n      jump\t// in\n    tag_17:\n      tag_19\n      jump\t// in\n    tag_16:\n      mload(0x40)\n      tag_20\n      swap2\n      swap1\n      tag_21\n      jump\t// in\n    tag_20:\n      mload(0x40)\n      dup1\n      swap2\n      sub\n      swap1\n      return\n        /* \"contracts/Dex2.sol\":886:1200  function withdraw(uint256 amount) public {... */\n    tag_4:\n      callvalue\n      dup1\n      iszero\n      tag_22\n      jumpi\n      0x00\n      dup1\n      revert\n    tag_22:\n      pop\n      tag_23\n      0x04\n      dup1\n      calldatasize\n      sub\n      dup2\n      add\n      swap1\n      tag_24\n      swap2\n      swap1\n      tag_25\n      jump\t// in\n    tag_24:\n      tag_26\n      jump\t// in\n    tag_23:\n      stop\n        /* \"contracts/Dex2.sol\":198:218  address public owner */\n    tag_5:\n      callvalue\n      dup1\n      iszero\n      tag_27\n      jumpi\n      0x00\n      dup1\n      revert\n    tag_27:\n      pop\n      tag_28\n      tag_29\n      jump\t// in\n    tag_28:\n      mload(0x40)\n      tag_30\n      swap2\n      swap1\n      tag_31\n      jump\t// in\n    tag_30:\n      mload(0x40)\n      dup1\n      swap2\n      sub\n      swap1\n      return\n        /* \"contracts/Dex2.sol\":1206:1562  function trade(address tokenAddress, uint256 amount, uint256 price) public payable {... */\n    tag_6:\n      tag_32\n      0x04\n      dup1\n      calldatasize\n      sub\n      dup2\n      add\n      swap1\n      tag_33\n      swap2\n      swap1\n      tag_34\n      jump\t// in\n    tag_33:\n      tag_35\n      jump\t// in\n    tag_32:\n      stop\n        /* \"contracts/Dex2.sol\":686:880  function deposit(uint256 amount) public payable {... */\n    tag_7:\n      tag_36\n      0x04\n      dup1\n      calldatasize\n      sub\n      dup2\n      add\n      swap1\n      tag_37\n      swap2\n      swap1\n      tag_25\n      jump\t// in\n    tag_37:\n      tag_11\n      jump\t// in\n    tag_36:\n      stop\n    tag_11:\n        /* \"contracts/Dex2.sol\":761:762  0 */\n      0x00\n        /* \"contracts/Dex2.sol\":752:758  amount */\n      dup2\n        /* \"contracts/Dex2.sol\":752:762  amount > 0 */\n      gt\n        /* \"contracts/Dex2.sol\":744:789  require(amount > 0, \"Invalid deposit amount\") */\n      tag_39\n      jumpi\n      mload(0x40)\n      0x08c379a000000000000000000000000000000000000000000000000000000000\n      dup2\n      mstore\n      0x04\n      add\n      tag_40\n      swap1\n      tag_41\n      jump\t// in\n    tag_40:\n      mload(0x40)\n      dup1\n      swap2\n      sub\n      swap1\n      revert\n    tag_39:\n        /* \"contracts/Dex2.sol\":824:830  amount */\n      dup1\n        /* \"contracts/Dex2.sol\":800:808  balances */\n      0x01\n        /* \"contracts/Dex2.sol\":800:820  balances[msg.sender] */\n      0x00\n        /* \"contracts/Dex2.sol\":809:819  msg.sender */\n      caller\n        /* \"contracts/Dex2.sol\":800:820  balances[msg.sender] */\n      0xffffffffffffffffffffffffffffffffffffffff\n      and\n      0xffffffffffffffffffffffffffffffffffffffff\n      and\n      dup2\n      mstore\n      0x20\n      add\n      swap1\n      dup2\n      mstore\n      0x20\n      add\n      0x00\n      keccak256\n      0x00\n        /* \"contracts/Dex2.sol\":800:830  balances[msg.sender] += amount */\n      dup3\n      dup3\n      sload\n      tag_42\n      swap2\n      swap1\n      tag_43\n      jump\t// in\n    tag_42:\n      swap3\n      pop\n      pop\n      dup2\n      swap1\n      sstore\n      pop\n        /* \"contracts/Dex2.sol\":854:864  msg.sender */\n      caller\n        /* \"contracts/Dex2.sol\":846:873  Deposit(msg.sender, amount) */\n      0xffffffffffffffffffffffffffffffffffffffff\n      and\n      0xe1fffcc4923d04b559f4d29a8bfc6cda04eb5b0d3c460751c2402c5c5cc9109c\n        /* \"contracts/Dex2.sol\":866:872  amount */\n      dup3\n        /* \"contracts/Dex2.sol\":846:873  Deposit(msg.sender, amount) */\n      mload(0x40)\n      tag_44\n      swap2\n      swap1\n      tag_21\n      jump\t// in\n    tag_44:\n      mload(0x40)\n      dup1\n      swap2\n      sub\n      swap1\n      log2\n        /* \"contracts/Dex2.sol\":686:880  function deposit(uint256 amount) public payable {... */\n      pop\n      jump\t// out\n        /* \"contracts/Dex2.sol\":224:267  mapping(address => uint256) public balances */\n    tag_19:\n      mstore(0x20, 0x01)\n      dup1\n      0x00\n      mstore\n      keccak256(0x00, 0x40)\n      0x00\n      swap2\n      pop\n      swap1\n      pop\n      sload\n      dup2\n      jump\t// out\n        /* \"contracts/Dex2.sol\":886:1200  function withdraw(uint256 amount) public {... */\n    tag_26:\n        /* \"contracts/Dex2.sol\":954:955  0 */\n      0x00\n        /* \"contracts/Dex2.sol\":945:951  amount */\n      dup2\n        /* \"contracts/Dex2.sol\":945:955  amount > 0 */\n      gt\n        /* \"contracts/Dex2.sol\":937:985  require(amount > 0, \"Invalid withdrawal amount\") */\n      tag_46\n      jumpi\n      mload(0x40)\n      0x08c379a000000000000000000000000000000000000000000000000000000000\n      dup2\n      mstore\n      0x04\n      add\n      tag_47\n      swap1\n      tag_48\n      jump\t// in\n    tag_47:\n      mload(0x40)\n      dup1\n      swap2\n      sub\n      swap1\n      revert\n    tag_46:\n        /* \"contracts/Dex2.sol\":1013:1021  balances */\n      0x01\n        /* \"contracts/Dex2.sol\":1013:1033  balances[msg.sender] */\n      0x00\n        /* \"contracts/Dex2.sol\":1022:1032  msg.sender */\n      caller\n        /* \"contracts/Dex2.sol\":1013:1033  balances[msg.sender] */\n      0xffffffffffffffffffffffffffffffffffffffff\n      and\n      0xffffffffffffffffffffffffffffffffffffffff\n      and\n      dup2\n      mstore\n      0x20\n      add\n      swap1\n      dup2\n      mstore\n      0x20\n      add\n      0x00\n      keccak256\n      sload\n        /* \"contracts/Dex2.sol\":1003:1009  amount */\n      dup2\n        /* \"contracts/Dex2.sol\":1003:1033  amount <= balances[msg.sender] */\n      gt\n      iszero\n        /* \"contracts/Dex2.sol\":995:1058  require(amount <= balances[msg.sender], \"Insufficient balance\") */\n      tag_49\n      jumpi\n      mload(0x40)\n      0x08c379a000000000000000000000000000000000000000000000000000000000\n      dup2\n      mstore\n      0x04\n      add\n      tag_50\n      swap1\n      tag_51\n      jump\t// in\n    tag_50:\n      mload(0x40)\n      dup1\n      swap2\n      sub\n      swap1\n      revert\n    tag_49:\n        /* \"contracts/Dex2.sol\":1093:1099  amount */\n      dup1\n        /* \"contracts/Dex2.sol\":1069:1077  balances */\n      0x01\n        /* \"contracts/Dex2.sol\":1069:1089  balances[msg.sender] */\n      0x00\n        /* \"contracts/Dex2.sol\":1078:1088  msg.sender */\n      caller\n        /* \"contracts/Dex2.sol\":1069:1089  balances[msg.sender] */\n      0xffffffffffffffffffffffffffffffffffffffff\n      and\n      0xffffffffffffffffffffffffffffffffffffffff\n      and\n      dup2\n      mstore\n      0x20\n      add\n      swap1\n      dup2\n      mstore\n      0x20\n      add\n      0x00\n      keccak256\n      0x00\n        /* \"contracts/Dex2.sol\":1069:1099  balances[msg.sender] -= amount */\n      dup3\n      dup3\n      sload\n      tag_52\n      swap2\n      swap1\n      tag_53\n      jump\t// in\n    tag_52:\n      swap3\n      pop\n      pop\n      dup2\n      swap1\n      sstore\n      pop\n        /* \"contracts/Dex2.sol\":1118:1128  msg.sender */\n      caller\n        /* \"contracts/Dex2.sol\":1110:1138  payable(msg.sender).transfer */\n      0xffffffffffffffffffffffffffffffffffffffff\n      and\n        /* \"contracts/Dex2.sol\":1110:1146  payable(msg.sender).transfer(amount) */\n      0x08fc\n        /* \"contracts/Dex2.sol\":1139:1145  amount */\n      dup3\n        /* \"contracts/Dex2.sol\":1110:1146  payable(msg.sender).transfer(amount) */\n      swap1\n      dup2\n      iszero\n      mul\n      swap1\n      mload(0x40)\n      0x00\n      mload(0x40)\n      dup1\n      dup4\n      sub\n      dup2\n      dup6\n      dup9\n      dup9\n      call\n      swap4\n      pop\n      pop\n      pop\n      pop\n      iszero\n      dup1\n      iszero\n      tag_55\n      jumpi\n      returndatasize\n      0x00\n      dup1\n      returndatacopy\n      revert(0x00, returndatasize)\n    tag_55:\n      pop\n        /* \"contracts/Dex2.sol\":1174:1184  msg.sender */\n      caller\n        /* \"contracts/Dex2.sol\":1162:1193  Withdarawal(msg.sender, amount) */\n      0xffffffffffffffffffffffffffffffffffffffff\n      and\n      0x0ac5ba04576315cac54ec942c9cf0ab334efb6b4999b315d86ba31ecf93401ec\n        /* \"contracts/Dex2.sol\":1186:1192  amount */\n      dup3\n        /* \"contracts/Dex2.sol\":1162:1193  Withdarawal(msg.sender, amount) */\n      mload(0x40)\n      tag_56\n      swap2\n      swap1\n      tag_21\n      jump\t// in\n    tag_56:\n      mload(0x40)\n      dup1\n      swap2\n      sub\n      swap1\n      log2\n        /* \"contracts/Dex2.sol\":886:1200  function withdraw(uint256 amount) public {... */\n      pop\n      jump\t// out\n        /* \"contracts/Dex2.sol\":198:218  address public owner */\n    tag_29:\n      0x00\n      dup1\n      sload\n      swap1\n      0x0100\n      exp\n      swap1\n      div\n      0xffffffffffffffffffffffffffffffffffffffff\n      and\n      dup2\n      jump\t// out\n        /* \"contracts/Dex2.sol\":1206:1562  function trade(address tokenAddress, uint256 amount, uint256 price) public payable {... */\n    tag_35:\n        /* \"contracts/Dex2.sol\":1335:1336  0 */\n      0x00\n        /* \"contracts/Dex2.sol\":1311:1337  tokenAddress != address(0) */\n      0xffffffffffffffffffffffffffffffffffffffff\n      and\n        /* \"contracts/Dex2.sol\":1311:1323  tokenAddress */\n      dup4\n        /* \"contracts/Dex2.sol\":1311:1337  tokenAddress != address(0) */\n      0xffffffffffffffffffffffffffffffffffffffff\n      and\n      sub\n        /* \"contracts/Dex2.sol\":1303:1363  require(tokenAddress != address(0), \"Invalid token address\") */\n      tag_58\n      jumpi\n      mload(0x40)\n      0x08c379a000000000000000000000000000000000000000000000000000000000\n      dup2\n      mstore\n      0x04\n      add\n      tag_59\n      swap1\n      tag_60\n      jump\t// in\n    tag_59:\n      mload(0x40)\n      dup1\n      swap2\n      sub\n      swap1\n      revert\n    tag_58:\n        /* \"contracts/Dex2.sol\":1394:1395  0 */\n      0x00\n        /* \"contracts/Dex2.sol\":1385:1391  amount */\n      dup3\n        /* \"contracts/Dex2.sol\":1385:1395  amount > 0 */\n      gt\n        /* \"contracts/Dex2.sol\":1377:1414  require(amount > 0, \"Invalid amount\") */\n      tag_61\n      jumpi\n      mload(0x40)\n      0x08c379a000000000000000000000000000000000000000000000000000000000\n      dup2\n      mstore\n      0x04\n      add\n      tag_62\n      swap1\n      tag_63\n      jump\t// in\n    tag_62:\n      mload(0x40)\n      dup1\n      swap2\n      sub\n      swap1\n      revert\n    tag_61:\n        /* \"contracts/Dex2.sol\":1460:1466  amount */\n      dup2\n        /* \"contracts/Dex2.sol\":1436:1444  balances */\n      0x01\n        /* \"contracts/Dex2.sol\":1436:1456  balances[msg.sender] */\n      0x00\n        /* \"contracts/Dex2.sol\":1445:1455  msg.sender */\n      caller\n        /* \"contracts/Dex2.sol\":1436:1456  balances[msg.sender] */\n      0xffffffffffffffffffffffffffffffffffffffff\n      and\n      0xffffffffffffffffffffffffffffffffffffffff\n      and\n      dup2\n      mstore\n      0x20\n      add\n      swap1\n      dup2\n      mstore\n      0x20\n      add\n      0x00\n      keccak256\n      sload\n        /* \"contracts/Dex2.sol\":1436:1466  balances[msg.sender] >= amount */\n      lt\n      iszero\n        /* \"contracts/Dex2.sol\":1428:1489  require(balances[msg.sender] >= amount, \"Insufficient funds\") */\n      tag_64\n      jumpi\n      mload(0x40)\n      0x08c379a000000000000000000000000000000000000000000000000000000000\n      dup2\n      mstore\n      0x04\n      add\n      tag_65\n      swap1\n      tag_66\n      jump\t// in\n    tag_65:\n      mload(0x40)\n      dup1\n      swap2\n      sub\n      swap1\n      revert\n    tag_64:\n        /* \"contracts/Dex2.sol\":1527:1539  tokenAddress */\n      dup3\n        /* \"contracts/Dex2.sol\":1509:1555  Trade(msg.sender, tokenAddress, amount, price) */\n      0xffffffffffffffffffffffffffffffffffffffff\n      and\n        /* \"contracts/Dex2.sol\":1515:1525  msg.sender */\n      caller\n        /* \"contracts/Dex2.sol\":1509:1555  Trade(msg.sender, tokenAddress, amount, price) */\n      0xffffffffffffffffffffffffffffffffffffffff\n      and\n      0x4b5796113f074ebf8f11d5bcdeb6349b2fbe47abed78419cdcdbbc15c6fcf845\n        /* \"contracts/Dex2.sol\":1541:1547  amount */\n      dup5\n        /* \"contracts/Dex2.sol\":1549:1554  price */\n      dup5\n        /* \"contracts/Dex2.sol\":1509:1555  Trade(msg.sender, tokenAddress, amount, price) */\n      mload(0x40)\n      tag_67\n      swap3\n      swap2\n      swap1\n      tag_68\n      jump\t// in\n    tag_67:\n      mload(0x40)\n      dup1\n      swap2\n      sub\n      swap1\n      log3\n        /* \"contracts/Dex2.sol\":1206:1562  function trade(address tokenAddress, uint256 amount, uint256 price) public payable {... */\n      pop\n      pop\n      pop\n      jump\t// out\n        /* \"#utility.yul\":88:205   */\n    tag_70:\n        /* \"#utility.yul\":197:198   */\n      0x00\n        /* \"#utility.yul\":194:195   */\n      dup1\n        /* \"#utility.yul\":187:199   */\n      revert\n        /* \"#utility.yul\":334:460   */\n    tag_72:\n        /* \"#utility.yul\":371:378   */\n      0x00\n        /* \"#utility.yul\":411:453   */\n      0xffffffffffffffffffffffffffffffffffffffff\n        /* \"#utility.yul\":404:409   */\n      dup3\n        /* \"#utility.yul\":400:454   */\n      and\n        /* \"#utility.yul\":389:454   */\n      swap1\n      pop\n        /* \"#utility.yul\":334:460   */\n      swap2\n      swap1\n      pop\n      jump\t// out\n        /* \"#utility.yul\":466:562   */\n    tag_73:\n        /* \"#utility.yul\":503:510   */\n      0x00\n        /* \"#utility.yul\":532:556   */\n      tag_101\n        /* \"#utility.yul\":550:555   */\n      dup3\n        /* \"#utility.yul\":532:556   */\n      tag_72\n      jump\t// in\n    tag_101:\n        /* \"#utility.yul\":521:556   */\n      swap1\n      pop\n        /* \"#utility.yul\":466:562   */\n      swap2\n      swap1\n      pop\n      jump\t// out\n        /* \"#utility.yul\":568:690   */\n    tag_74:\n        /* \"#utility.yul\":641:665   */\n      tag_103\n        /* \"#utility.yul\":659:664   */\n      dup2\n        /* \"#utility.yul\":641:665   */\n      tag_73\n      jump\t// in\n    tag_103:\n        /* \"#utility.yul\":634:639   */\n      dup2\n        /* \"#utility.yul\":631:666   */\n      eq\n        /* \"#utility.yul\":621:684   */\n      tag_104\n      jumpi\n        /* \"#utility.yul\":680:681   */\n      0x00\n        /* \"#utility.yul\":677:678   */\n      dup1\n        /* \"#utility.yul\":670:682   */\n      revert\n        /* \"#utility.yul\":621:684   */\n    tag_104:\n        /* \"#utility.yul\":568:690   */\n      pop\n      jump\t// out\n        /* \"#utility.yul\":696:835   */\n    tag_75:\n        /* \"#utility.yul\":742:747   */\n      0x00\n        /* \"#utility.yul\":780:786   */\n      dup2\n        /* \"#utility.yul\":767:787   */\n      calldataload\n        /* \"#utility.yul\":758:787   */\n      swap1\n      pop\n        /* \"#utility.yul\":796:829   */\n      tag_106\n        /* \"#utility.yul\":823:828   */\n      dup2\n        /* \"#utility.yul\":796:829   */\n      tag_74\n      jump\t// in\n    tag_106:\n        /* \"#utility.yul\":696:835   */\n      swap3\n      swap2\n      pop\n      pop\n      jump\t// out\n        /* \"#utility.yul\":841:1170   */\n    tag_18:\n        /* \"#utility.yul\":900:906   */\n      0x00\n        /* \"#utility.yul\":949:951   */\n      0x20\n        /* \"#utility.yul\":937:946   */\n      dup3\n        /* \"#utility.yul\":928:935   */\n      dup5\n        /* \"#utility.yul\":924:947   */\n      sub\n        /* \"#utility.yul\":920:952   */\n      slt\n        /* \"#utility.yul\":917:1036   */\n      iszero\n      tag_108\n      jumpi\n        /* \"#utility.yul\":955:1034   */\n      tag_109\n      tag_70\n      jump\t// in\n    tag_109:\n        /* \"#utility.yul\":917:1036   */\n    tag_108:\n        /* \"#utility.yul\":1075:1076   */\n      0x00\n        /* \"#utility.yul\":1100:1153   */\n      tag_110\n        /* \"#utility.yul\":1145:1152   */\n      dup5\n        /* \"#utility.yul\":1136:1142   */\n      dup3\n        /* \"#utility.yul\":1125:1134   */\n      dup6\n        /* \"#utility.yul\":1121:1143   */\n      add\n        /* \"#utility.yul\":1100:1153   */\n      tag_75\n      jump\t// in\n    tag_110:\n        /* \"#utility.yul\":1090:1153   */\n      swap2\n      pop\n        /* \"#utility.yul\":1046:1163   */\n      pop\n        /* \"#utility.yul\":841:1170   */\n      swap3\n      swap2\n      pop\n      pop\n      jump\t// out\n        /* \"#utility.yul\":1176:1253   */\n    tag_76:\n        /* \"#utility.yul\":1213:1220   */\n      0x00\n        /* \"#utility.yul\":1242:1247   */\n      dup2\n        /* \"#utility.yul\":1231:1247   */\n      swap1\n      pop\n        /* \"#utility.yul\":1176:1253   */\n      swap2\n      swap1\n      pop\n      jump\t// out\n        /* \"#utility.yul\":1259:1377   */\n    tag_77:\n        /* \"#utility.yul\":1346:1370   */\n      tag_113\n        /* \"#utility.yul\":1364:1369   */\n      dup2\n        /* \"#utility.yul\":1346:1370   */\n      tag_76\n      jump\t// in\n    tag_113:\n        /* \"#utility.yul\":1341:1344   */\n      dup3\n        /* \"#utility.yul\":1334:1371   */\n      mstore\n        /* \"#utility.yul\":1259:1377   */\n      pop\n      pop\n      jump\t// out\n        /* \"#utility.yul\":1383:1605   */\n    tag_21:\n        /* \"#utility.yul\":1476:1480   */\n      0x00\n        /* \"#utility.yul\":1514:1516   */\n      0x20\n        /* \"#utility.yul\":1503:1512   */\n      dup3\n        /* \"#utility.yul\":1499:1517   */\n      add\n        /* \"#utility.yul\":1491:1517   */\n      swap1\n      pop\n        /* \"#utility.yul\":1527:1598   */\n      tag_115\n        /* \"#utility.yul\":1595:1596   */\n      0x00\n        /* \"#utility.yul\":1584:1593   */\n      dup4\n        /* \"#utility.yul\":1580:1597   */\n      add\n        /* \"#utility.yul\":1571:1577   */\n      dup5\n        /* \"#utility.yul\":1527:1598   */\n      tag_77\n      jump\t// in\n    tag_115:\n        /* \"#utility.yul\":1383:1605   */\n      swap3\n      swap2\n      pop\n      pop\n      jump\t// out\n        /* \"#utility.yul\":1611:1733   */\n    tag_78:\n        /* \"#utility.yul\":1684:1708   */\n      tag_117\n        /* \"#utility.yul\":1702:1707   */\n      dup2\n        /* \"#utility.yul\":1684:1708   */\n      tag_76\n      jump\t// in\n    tag_117:\n        /* \"#utility.yul\":1677:1682   */\n      dup2\n        /* \"#utility.yul\":1674:1709   */\n      eq\n        /* \"#utility.yul\":1664:1727   */\n      tag_118\n      jumpi\n        /* \"#utility.yul\":1723:1724   */\n      0x00\n        /* \"#utility.yul\":1720:1721   */\n      dup1\n        /* \"#utility.yul\":1713:1725   */\n      revert\n        /* \"#utility.yul\":1664:1727   */\n    tag_118:\n        /* \"#utility.yul\":1611:1733   */\n      pop\n      jump\t// out\n        /* \"#utility.yul\":1739:1878   */\n    tag_79:\n        /* \"#utility.yul\":1785:1790   */\n      0x00\n        /* \"#utility.yul\":1823:1829   */\n      dup2\n        /* \"#utility.yul\":1810:1830   */\n      calldataload\n        /* \"#utility.yul\":1801:1830   */\n      swap1\n      pop\n        /* \"#utility.yul\":1839:1872   */\n      tag_120\n        /* \"#utility.yul\":1866:1871   */\n      dup2\n        /* \"#utility.yul\":1839:1872   */\n      tag_78\n      jump\t// in\n    tag_120:\n        /* \"#utility.yul\":1739:1878   */\n      swap3\n      swap2\n      pop\n      pop\n      jump\t// out\n        /* \"#utility.yul\":1884:2213   */\n    tag_25:\n        /* \"#utility.yul\":1943:1949   */\n      0x00\n        /* \"#utility.yul\":1992:1994   */\n      0x20\n        /* \"#utility.yul\":1980:1989   */\n      dup3\n        /* \"#utility.yul\":1971:1978   */\n      dup5\n        /* \"#utility.yul\":1967:1990   */\n      sub\n        /* \"#utility.yul\":1963:1995   */\n      slt\n        /* \"#utility.yul\":1960:2079   */\n      iszero\n      tag_122\n      jumpi\n        /* \"#utility.yul\":1998:2077   */\n      tag_123\n      tag_70\n      jump\t// in\n    tag_123:\n        /* \"#utility.yul\":1960:2079   */\n    tag_122:\n        /* \"#utility.yul\":2118:2119   */\n      0x00\n        /* \"#utility.yul\":2143:2196   */\n      tag_124\n        /* \"#utility.yul\":2188:2195   */\n      dup5\n        /* \"#utility.yul\":2179:2185   */\n      dup3\n        /* \"#utility.yul\":2168:2177   */\n      dup6\n        /* \"#utility.yul\":2164:2186   */\n      add\n        /* \"#utility.yul\":2143:2196   */\n      tag_79\n      jump\t// in\n    tag_124:\n        /* \"#utility.yul\":2133:2196   */\n      swap2\n      pop\n        /* \"#utility.yul\":2089:2206   */\n      pop\n        /* \"#utility.yul\":1884:2213   */\n      swap3\n      swap2\n      pop\n      pop\n      jump\t// out\n        /* \"#utility.yul\":2219:2337   */\n    tag_80:\n        /* \"#utility.yul\":2306:2330   */\n      tag_126\n        /* \"#utility.yul\":2324:2329   */\n      dup2\n        /* \"#utility.yul\":2306:2330   */\n      tag_73\n      jump\t// in\n    tag_126:\n        /* \"#utility.yul\":2301:2304   */\n      dup3\n        /* \"#utility.yul\":2294:2331   */\n      mstore\n        /* \"#utility.yul\":2219:2337   */\n      pop\n      pop\n      jump\t// out\n        /* \"#utility.yul\":2343:2565   */\n    tag_31:\n        /* \"#utility.yul\":2436:2440   */\n      0x00\n        /* \"#utility.yul\":2474:2476   */\n      0x20\n        /* \"#utility.yul\":2463:2472   */\n      dup3\n        /* \"#utility.yul\":2459:2477   */\n      add\n        /* \"#utility.yul\":2451:2477   */\n      swap1\n      pop\n        /* \"#utility.yul\":2487:2558   */\n      tag_128\n        /* \"#utility.yul\":2555:2556   */\n      0x00\n        /* \"#utility.yul\":2544:2553   */\n      dup4\n        /* \"#utility.yul\":2540:2557   */\n      add\n        /* \"#utility.yul\":2531:2537   */\n      dup5\n        /* \"#utility.yul\":2487:2558   */\n      tag_80\n      jump\t// in\n    tag_128:\n        /* \"#utility.yul\":2343:2565   */\n      swap3\n      swap2\n      pop\n      pop\n      jump\t// out\n        /* \"#utility.yul\":2571:3190   */\n    tag_34:\n        /* \"#utility.yul\":2648:2654   */\n      0x00\n        /* \"#utility.yul\":2656:2662   */\n      dup1\n        /* \"#utility.yul\":2664:2670   */\n      0x00\n        /* \"#utility.yul\":2713:2715   */\n      0x60\n        /* \"#utility.yul\":2701:2710   */\n      dup5\n        /* \"#utility.yul\":2692:2699   */\n      dup7\n        /* \"#utility.yul\":2688:2711   */\n      sub\n        /* \"#utility.yul\":2684:2716   */\n      slt\n        /* \"#utility.yul\":2681:2800   */\n      iszero\n      tag_130\n      jumpi\n        /* \"#utility.yul\":2719:2798   */\n      tag_131\n      tag_70\n      jump\t// in\n    tag_131:\n        /* \"#utility.yul\":2681:2800   */\n    tag_130:\n        /* \"#utility.yul\":2839:2840   */\n      0x00\n        /* \"#utility.yul\":2864:2917   */\n      tag_132\n        /* \"#utility.yul\":2909:2916   */\n      dup7\n        /* \"#utility.yul\":2900:2906   */\n      dup3\n        /* \"#utility.yul\":2889:2898   */\n      dup8\n        /* \"#utility.yul\":2885:2907   */\n      add\n        /* \"#utility.yul\":2864:2917   */\n      tag_75\n      jump\t// in\n    tag_132:\n        /* \"#utility.yul\":2854:2917   */\n      swap4\n      pop\n        /* \"#utility.yul\":2810:2927   */\n      pop\n        /* \"#utility.yul\":2966:2968   */\n      0x20\n        /* \"#utility.yul\":2992:3045   */\n      tag_133\n        /* \"#utility.yul\":3037:3044   */\n      dup7\n        /* \"#utility.yul\":3028:3034   */\n      dup3\n        /* \"#utility.yul\":3017:3026   */\n      dup8\n        /* \"#utility.yul\":3013:3035   */\n      add\n        /* \"#utility.yul\":2992:3045   */\n      tag_79\n      jump\t// in\n    tag_133:\n        /* \"#utility.yul\":2982:3045   */\n      swap3\n      pop\n        /* \"#utility.yul\":2937:3055   */\n      pop\n        /* \"#utility.yul\":3094:3096   */\n      0x40\n        /* \"#utility.yul\":3120:3173   */\n      tag_134\n        /* \"#utility.yul\":3165:3172   */\n      dup7\n        /* \"#utility.yul\":3156:3162   */\n      dup3\n        /* \"#utility.yul\":3145:3154   */\n      dup8\n        /* \"#utility.yul\":3141:3163   */\n      add\n        /* \"#utility.yul\":3120:3173   */\n      tag_79\n      jump\t// in\n    tag_134:\n        /* \"#utility.yul\":3110:3173   */\n      swap2\n      pop\n        /* \"#utility.yul\":3065:3183   */\n      pop\n        /* \"#utility.yul\":2571:3190   */\n      swap3\n      pop\n      swap3\n      pop\n      swap3\n      jump\t// out\n        /* \"#utility.yul\":3196:3365   */\n    tag_81:\n        /* \"#utility.yul\":3280:3291   */\n      0x00\n        /* \"#utility.yul\":3314:3320   */\n      dup3\n        /* \"#utility.yul\":3309:3312   */\n      dup3\n        /* \"#utility.yul\":3302:3321   */\n      mstore\n        /* \"#utility.yul\":3354:3358   */\n      0x20\n        /* \"#utility.yul\":3349:3352   */\n      dup3\n        /* \"#utility.yul\":3345:3359   */\n      add\n        /* \"#utility.yul\":3330:3359   */\n      swap1\n      pop\n        /* \"#utility.yul\":3196:3365   */\n      swap3\n      swap2\n      pop\n      pop\n      jump\t// out\n        /* \"#utility.yul\":3371:3543   */\n    tag_82:\n        /* \"#utility.yul\":3511:3535   */\n      0x496e76616c6964206465706f73697420616d6f756e7400000000000000000000\n        /* \"#utility.yul\":3507:3508   */\n      0x00\n        /* \"#utility.yul\":3499:3505   */\n      dup3\n        /* \"#utility.yul\":3495:3509   */\n      add\n        /* \"#utility.yul\":3488:3536   */\n      mstore\n        /* \"#utility.yul\":3371:3543   */\n      pop\n      jump\t// out\n        /* \"#utility.yul\":3549:3915   */\n    tag_83:\n        /* \"#utility.yul\":3691:3694   */\n      0x00\n        /* \"#utility.yul\":3712:3779   */\n      tag_138\n        /* \"#utility.yul\":3776:3778   */\n      0x16\n        /* \"#utility.yul\":3771:3774   */\n      dup4\n        /* \"#utility.yul\":3712:3779   */\n      tag_81\n      jump\t// in\n    tag_138:\n        /* \"#utility.yul\":3705:3779   */\n      swap2\n      pop\n        /* \"#utility.yul\":3788:3881   */\n      tag_139\n        /* \"#utility.yul\":3877:3880   */\n      dup3\n        /* \"#utility.yul\":3788:3881   */\n      tag_82\n      jump\t// in\n    tag_139:\n        /* \"#utility.yul\":3906:3908   */\n      0x20\n        /* \"#utility.yul\":3901:3904   */\n      dup3\n        /* \"#utility.yul\":3897:3909   */\n      add\n        /* \"#utility.yul\":3890:3909   */\n      swap1\n      pop\n        /* \"#utility.yul\":3549:3915   */\n      swap2\n      swap1\n      pop\n      jump\t// out\n        /* \"#utility.yul\":3921:4340   */\n    tag_41:\n        /* \"#utility.yul\":4087:4091   */\n      0x00\n        /* \"#utility.yul\":4125:4127   */\n      0x20\n        /* \"#utility.yul\":4114:4123   */\n      dup3\n        /* \"#utility.yul\":4110:4128   */\n      add\n        /* \"#utility.yul\":4102:4128   */\n      swap1\n      pop\n        /* \"#utility.yul\":4174:4183   */\n      dup2\n        /* \"#utility.yul\":4168:4172   */\n      dup2\n        /* \"#utility.yul\":4164:4184   */\n      sub\n        /* \"#utility.yul\":4160:4161   */\n      0x00\n        /* \"#utility.yul\":4149:4158   */\n      dup4\n        /* \"#utility.yul\":4145:4162   */\n      add\n        /* \"#utility.yul\":4138:4185   */\n      mstore\n        /* \"#utility.yul\":4202:4333   */\n      tag_141\n        /* \"#utility.yul\":4328:4332   */\n      dup2\n        /* \"#utility.yul\":4202:4333   */\n      tag_83\n      jump\t// in\n    tag_141:\n        /* \"#utility.yul\":4194:4333   */\n      swap1\n      pop\n        /* \"#utility.yul\":3921:4340   */\n      swap2\n      swap1\n      pop\n      jump\t// out\n        /* \"#utility.yul\":4346:4526   */\n    tag_84:\n        /* \"#utility.yul\":4394:4471   */\n      0x4e487b7100000000000000000000000000000000000000000000000000000000\n        /* \"#utility.yul\":4391:4392   */\n      0x00\n        /* \"#utility.yul\":4384:4472   */\n      mstore\n        /* \"#utility.yul\":4491:4495   */\n      0x11\n        /* \"#utility.yul\":4488:4489   */\n      0x04\n        /* \"#utility.yul\":4481:4496   */\n      mstore\n        /* \"#utility.yul\":4515:4519   */\n      0x24\n        /* \"#utility.yul\":4512:4513   */\n      0x00\n        /* \"#utility.yul\":4505:4520   */\n      revert\n        /* \"#utility.yul\":4532:4723   */\n    tag_43:\n        /* \"#utility.yul\":4572:4575   */\n      0x00\n        /* \"#utility.yul\":4591:4611   */\n      tag_144\n        /* \"#utility.yul\":4609:4610   */\n      dup3\n        /* \"#utility.yul\":4591:4611   */\n      tag_76\n      jump\t// in\n    tag_144:\n        /* \"#utility.yul\":4586:4611   */\n      swap2\n      pop\n        /* \"#utility.yul\":4625:4645   */\n      tag_145\n        /* \"#utility.yul\":4643:4644   */\n      dup4\n        /* \"#utility.yul\":4625:4645   */\n      tag_76\n      jump\t// in\n    tag_145:\n        /* \"#utility.yul\":4620:4645   */\n      swap3\n      pop\n        /* \"#utility.yul\":4668:4669   */\n      dup3\n        /* \"#utility.yul\":4665:4666   */\n      dup3\n        /* \"#utility.yul\":4661:4670   */\n      add\n        /* \"#utility.yul\":4654:4670   */\n      swap1\n      pop\n        /* \"#utility.yul\":4689:4692   */\n      dup1\n        /* \"#utility.yul\":4686:4687   */\n      dup3\n        /* \"#utility.yul\":4683:4693   */\n      gt\n        /* \"#utility.yul\":4680:4716   */\n      iszero\n      tag_146\n      jumpi\n        /* \"#utility.yul\":4696:4714   */\n      tag_147\n      tag_84\n      jump\t// in\n    tag_147:\n        /* \"#utility.yul\":4680:4716   */\n    tag_146:\n        /* \"#utility.yul\":4532:4723   */\n      swap3\n      swap2\n      pop\n      pop\n      jump\t// out\n        /* \"#utility.yul\":4729:4904   */\n    tag_85:\n        /* \"#utility.yul\":4869:4896   */\n      0x496e76616c6964207769746864726177616c20616d6f756e7400000000000000\n        /* \"#utility.yul\":4865:4866   */\n      0x00\n        /* \"#utility.yul\":4857:4863   */\n      dup3\n        /* \"#utility.yul\":4853:4867   */\n      add\n        /* \"#utility.yul\":4846:4897   */\n      mstore\n        /* \"#utility.yul\":4729:4904   */\n      pop\n      jump\t// out\n        /* \"#utility.yul\":4910:5276   */\n    tag_86:\n        /* \"#utility.yul\":5052:5055   */\n      0x00\n        /* \"#utility.yul\":5073:5140   */\n      tag_150\n        /* \"#utility.yul\":5137:5139   */\n      0x19\n        /* \"#utility.yul\":5132:5135   */\n      dup4\n        /* \"#utility.yul\":5073:5140   */\n      tag_81\n      jump\t// in\n    tag_150:\n        /* \"#utility.yul\":5066:5140   */\n      swap2\n      pop\n        /* \"#utility.yul\":5149:5242   */\n      tag_151\n        /* \"#utility.yul\":5238:5241   */\n      dup3\n        /* \"#utility.yul\":5149:5242   */\n      tag_85\n      jump\t// in\n    tag_151:\n        /* \"#utility.yul\":5267:5269   */\n      0x20\n        /* \"#utility.yul\":5262:5265   */\n      dup3\n        /* \"#utility.yul\":5258:5270   */\n      add\n        /* \"#utility.yul\":5251:5270   */\n      swap1\n      pop\n        /* \"#utility.yul\":4910:5276   */\n      swap2\n      swap1\n      pop\n      jump\t// out\n        /* \"#utility.yul\":5282:5701   */\n    tag_48:\n        /* \"#utility.yul\":5448:5452   */\n      0x00\n        /* \"#utility.yul\":5486:5488   */\n      0x20\n        /* \"#utility.yul\":5475:5484   */\n      dup3\n        /* \"#utility.yul\":5471:5489   */\n      add\n        /* \"#utility.yul\":5463:5489   */\n      swap1\n      pop\n        /* \"#utility.yul\":5535:5544   */\n      dup2\n        /* \"#utility.yul\":5529:5533   */\n      dup2\n        /* \"#utility.yul\":5525:5545   */\n      sub\n        /* \"#utility.yul\":5521:5522   */\n      0x00\n        /* \"#utility.yul\":5510:5519   */\n      dup4\n        /* \"#utility.yul\":5506:5523   */\n      add\n        /* \"#utility.yul\":5499:5546   */\n      mstore\n        /* \"#utility.yul\":5563:5694   */\n      tag_153\n        /* \"#utility.yul\":5689:5693   */\n      dup2\n        /* \"#utility.yul\":5563:5694   */\n      tag_86\n      jump\t// in\n    tag_153:\n        /* \"#utility.yul\":5555:5694   */\n      swap1\n      pop\n        /* \"#utility.yul\":5282:5701   */\n      swap2\n      swap1\n      pop\n      jump\t// out\n        /* \"#utility.yul\":5707:5877   */\n    tag_87:\n        /* \"#utility.yul\":5847:5869   */\n      0x496e73756666696369656e742062616c616e6365000000000000000000000000\n        /* \"#utility.yul\":5843:5844   */\n      0x00\n        /* \"#utility.yul\":5835:5841   */\n      dup3\n        /* \"#utility.yul\":5831:5845   */\n      add\n        /* \"#utility.yul\":5824:5870   */\n      mstore\n        /* \"#utility.yul\":5707:5877   */\n      pop\n      jump\t// out\n        /* \"#utility.yul\":5883:6249   */\n    tag_88:\n        /* \"#utility.yul\":6025:6028   */\n      0x00\n        /* \"#utility.yul\":6046:6113   */\n      tag_156\n        /* \"#utility.yul\":6110:6112   */\n      0x14\n        /* \"#utility.yul\":6105:6108   */\n      dup4\n        /* \"#utility.yul\":6046:6113   */\n      tag_81\n      jump\t// in\n    tag_156:\n        /* \"#utility.yul\":6039:6113   */\n      swap2\n      pop\n        /* \"#utility.yul\":6122:6215   */\n      tag_157\n        /* \"#utility.yul\":6211:6214   */\n      dup3\n        /* \"#utility.yul\":6122:6215   */\n      tag_87\n      jump\t// in\n    tag_157:\n        /* \"#utility.yul\":6240:6242   */\n      0x20\n        /* \"#utility.yul\":6235:6238   */\n      dup3\n        /* \"#utility.yul\":6231:6243   */\n      add\n        /* \"#utility.yul\":6224:6243   */\n      swap1\n      pop\n        /* \"#utility.yul\":5883:6249   */\n      swap2\n      swap1\n      pop\n      jump\t// out\n        /* \"#utility.yul\":6255:6674   */\n    tag_51:\n        /* \"#utility.yul\":6421:6425   */\n      0x00\n        /* \"#utility.yul\":6459:6461   */\n      0x20\n        /* \"#utility.yul\":6448:6457   */\n      dup3\n        /* \"#utility.yul\":6444:6462   */\n      add\n        /* \"#utility.yul\":6436:6462   */\n      swap1\n      pop\n        /* \"#utility.yul\":6508:6517   */\n      dup2\n        /* \"#utility.yul\":6502:6506   */\n      dup2\n        /* \"#utility.yul\":6498:6518   */\n      sub\n        /* \"#utility.yul\":6494:6495   */\n      0x00\n        /* \"#utility.yul\":6483:6492   */\n      dup4\n        /* \"#utility.yul\":6479:6496   */\n      add\n        /* \"#utility.yul\":6472:6519   */\n      mstore\n        /* \"#utility.yul\":6536:6667   */\n      tag_159\n        /* \"#utility.yul\":6662:6666   */\n      dup2\n        /* \"#utility.yul\":6536:6667   */\n      tag_88\n      jump\t// in\n    tag_159:\n        /* \"#utility.yul\":6528:6667   */\n      swap1\n      pop\n        /* \"#utility.yul\":6255:6674   */\n      swap2\n      swap1\n      pop\n      jump\t// out\n        /* \"#utility.yul\":6680:6874   */\n    tag_53:\n        /* \"#utility.yul\":6720:6724   */\n      0x00\n        /* \"#utility.yul\":6740:6760   */\n      tag_161\n        /* \"#utility.yul\":6758:6759   */\n      dup3\n        /* \"#utility.yul\":6740:6760   */\n      tag_76\n      jump\t// in\n    tag_161:\n        /* \"#utility.yul\":6735:6760   */\n      swap2\n      pop\n        /* \"#utility.yul\":6774:6794   */\n      tag_162\n        /* \"#utility.yul\":6792:6793   */\n      dup4\n        /* \"#utility.yul\":6774:6794   */\n      tag_76\n      jump\t// in\n    tag_162:\n        /* \"#utility.yul\":6769:6794   */\n      swap3\n      pop\n        /* \"#utility.yul\":6818:6819   */\n      dup3\n        /* \"#utility.yul\":6815:6816   */\n      dup3\n        /* \"#utility.yul\":6811:6820   */\n      sub\n        /* \"#utility.yul\":6803:6820   */\n      swap1\n      pop\n        /* \"#utility.yul\":6842:6843   */\n      dup2\n        /* \"#utility.yul\":6836:6840   */\n      dup2\n        /* \"#utility.yul\":6833:6844   */\n      gt\n        /* \"#utility.yul\":6830:6867   */\n      iszero\n      tag_163\n      jumpi\n        /* \"#utility.yul\":6847:6865   */\n      tag_164\n      tag_84\n      jump\t// in\n    tag_164:\n        /* \"#utility.yul\":6830:6867   */\n    tag_163:\n        /* \"#utility.yul\":6680:6874   */\n      swap3\n      swap2\n      pop\n      pop\n      jump\t// out\n        /* \"#utility.yul\":6880:7051   */\n    tag_89:\n        /* \"#utility.yul\":7020:7043   */\n      0x496e76616c696420746f6b656e20616464726573730000000000000000000000\n        /* \"#utility.yul\":7016:7017   */\n      0x00\n        /* \"#utility.yul\":7008:7014   */\n      dup3\n        /* \"#utility.yul\":7004:7018   */\n      add\n        /* \"#utility.yul\":6997:7044   */\n      mstore\n        /* \"#utility.yul\":6880:7051   */\n      pop\n      jump\t// out\n        /* \"#utility.yul\":7057:7423   */\n    tag_90:\n        /* \"#utility.yul\":7199:7202   */\n      0x00\n        /* \"#utility.yul\":7220:7287   */\n      tag_167\n        /* \"#utility.yul\":7284:7286   */\n      0x15\n        /* \"#utility.yul\":7279:7282   */\n      dup4\n        /* \"#utility.yul\":7220:7287   */\n      tag_81\n      jump\t// in\n    tag_167:\n        /* \"#utility.yul\":7213:7287   */\n      swap2\n      pop\n        /* \"#utility.yul\":7296:7389   */\n      tag_168\n        /* \"#utility.yul\":7385:7388   */\n      dup3\n        /* \"#utility.yul\":7296:7389   */\n      tag_89\n      jump\t// in\n    tag_168:\n        /* \"#utility.yul\":7414:7416   */\n      0x20\n        /* \"#utility.yul\":7409:7412   */\n      dup3\n        /* \"#utility.yul\":7405:7417   */\n      add\n        /* \"#utility.yul\":7398:7417   */\n      swap1\n      pop\n        /* \"#utility.yul\":7057:7423   */\n      swap2\n      swap1\n      pop\n      jump\t// out\n        /* \"#utility.yul\":7429:7848   */\n    tag_60:\n        /* \"#utility.yul\":7595:7599   */\n      0x00\n        /* \"#utility.yul\":7633:7635   */\n      0x20\n        /* \"#utility.yul\":7622:7631   */\n      dup3\n        /* \"#utility.yul\":7618:7636   */\n      add\n        /* \"#utility.yul\":7610:7636   */\n      swap1\n      pop\n        /* \"#utility.yul\":7682:7691   */\n      dup2\n        /* \"#utility.yul\":7676:7680   */\n      dup2\n        /* \"#utility.yul\":7672:7692   */\n      sub\n        /* \"#utility.yul\":7668:7669   */\n      0x00\n        /* \"#utility.yul\":7657:7666   */\n      dup4\n        /* \"#utility.yul\":7653:7670   */\n      add\n        /* \"#utility.yul\":7646:7693   */\n      mstore\n        /* \"#utility.yul\":7710:7841   */\n      tag_170\n        /* \"#utility.yul\":7836:7840   */\n      dup2\n        /* \"#utility.yul\":7710:7841   */\n      tag_90\n      jump\t// in\n    tag_170:\n        /* \"#utility.yul\":7702:7841   */\n      swap1\n      pop\n        /* \"#utility.yul\":7429:7848   */\n      swap2\n      swap1\n      pop\n      jump\t// out\n        /* \"#utility.yul\":7854:8018   */\n    tag_91:\n        /* \"#utility.yul\":7994:8010   */\n      0x496e76616c696420616d6f756e74000000000000000000000000000000000000\n        /* \"#utility.yul\":7990:7991   */\n      0x00\n        /* \"#utility.yul\":7982:7988   */\n      dup3\n        /* \"#utility.yul\":7978:7992   */\n      add\n        /* \"#utility.yul\":7971:8011   */\n      mstore\n        /* \"#utility.yul\":7854:8018   */\n      pop\n      jump\t// out\n        /* \"#utility.yul\":8024:8390   */\n    tag_92:\n        /* \"#utility.yul\":8166:8169   */\n      0x00\n        /* \"#utility.yul\":8187:8254   */\n      tag_173\n        /* \"#utility.yul\":8251:8253   */\n      0x0e\n        /* \"#utility.yul\":8246:8249   */\n      dup4\n        /* \"#utility.yul\":8187:8254   */\n      tag_81\n      jump\t// in\n    tag_173:\n        /* \"#utility.yul\":8180:8254   */\n      swap2\n      pop\n        /* \"#utility.yul\":8263:8356   */\n      tag_174\n        /* \"#utility.yul\":8352:8355   */\n      dup3\n        /* \"#utility.yul\":8263:8356   */\n      tag_91\n      jump\t// in\n    tag_174:\n        /* \"#utility.yul\":8381:8383   */\n      0x20\n        /* \"#utility.yul\":8376:8379   */\n      dup3\n        /* \"#utility.yul\":8372:8384   */\n      add\n        /* \"#utility.yul\":8365:8384   */\n      swap1\n      pop\n        /* \"#utility.yul\":8024:8390   */\n      swap2\n      swap1\n      pop\n      jump\t// out\n        /* \"#utility.yul\":8396:8815   */\n    tag_63:\n        /* \"#utility.yul\":8562:8566   */\n      0x00\n        /* \"#utility.yul\":8600:8602   */\n      0x20\n        /* \"#utility.yul\":8589:8598   */\n      dup3\n        /* \"#utility.yul\":8585:8603   */\n      add\n        /* \"#utility.yul\":8577:8603   */\n      swap1\n      pop\n        /* \"#utility.yul\":8649:8658   */\n      dup2\n        /* \"#utility.yul\":8643:8647   */\n      dup2\n        /* \"#utility.yul\":8639:8659   */\n      sub\n        /* \"#utility.yul\":8635:8636   */\n      0x00\n        /* \"#utility.yul\":8624:8633   */\n      dup4\n        /* \"#utility.yul\":8620:8637   */\n      add\n        /* \"#utility.yul\":8613:8660   */\n      mstore\n        /* \"#utility.yul\":8677:8808   */\n      tag_176\n        /* \"#utility.yul\":8803:8807   */\n      dup2\n        /* \"#utility.yul\":8677:8808   */\n      tag_92\n      jump\t// in\n    tag_176:\n        /* \"#utility.yul\":8669:8808   */\n      swap1\n      pop\n        /* \"#utility.yul\":8396:8815   */\n      swap2\n      swap1\n      pop\n      jump\t// out\n        /* \"#utility.yul\":8821:8989   */\n    tag_93:\n        /* \"#utility.yul\":8961:8981   */\n      0x496e73756666696369656e742066756e64730000000000000000000000000000\n        /* \"#utility.yul\":8957:8958   */\n      0x00\n        /* \"#utility.yul\":8949:8955   */\n      dup3\n        /* \"#utility.yul\":8945:8959   */\n      add\n        /* \"#utility.yul\":8938:8982   */\n      mstore\n        /* \"#utility.yul\":8821:8989   */\n      pop\n      jump\t// out\n        /* \"#utility.yul\":8995:9361   */\n    tag_94:\n        /* \"#utility.yul\":9137:9140   */\n      0x00\n        /* \"#utility.yul\":9158:9225   */\n      tag_179\n        /* \"#utility.yul\":9222:9224   */\n      0x12\n        /* \"#utility.yul\":9217:9220   */\n      dup4\n        /* \"#utility.yul\":9158:9225   */\n      tag_81\n      jump\t// in\n    tag_179:\n        /* \"#utility.yul\":9151:9225   */\n      swap2\n      pop\n        /* \"#utility.yul\":9234:9327   */\n      tag_180\n        /* \"#utility.yul\":9323:9326   */\n      dup3\n        /* \"#utility.yul\":9234:9327   */\n      tag_93\n      jump\t// in\n    tag_180:\n        /* \"#utility.yul\":9352:9354   */\n      0x20\n        /* \"#utility.yul\":9347:9350   */\n      dup3\n        /* \"#utility.yul\":9343:9355   */\n      add\n        /* \"#utility.yul\":9336:9355   */\n      swap1\n      pop\n        /* \"#utility.yul\":8995:9361   */\n      swap2\n      swap1\n      pop\n      jump\t// out\n        /* \"#utility.yul\":9367:9786   */\n    tag_66:\n        /* \"#utility.yul\":9533:9537   */\n      0x00\n        /* \"#utility.yul\":9571:9573   */\n      0x20\n        /* \"#utility.yul\":9560:9569   */\n      dup3\n        /* \"#utility.yul\":9556:9574   */\n      add\n        /* \"#utility.yul\":9548:9574   */\n      swap1\n      pop\n        /* \"#utility.yul\":9620:9629   */\n      dup2\n        /* \"#utility.yul\":9614:9618   */\n      dup2\n        /* \"#utility.yul\":9610:9630   */\n      sub\n        /* \"#utility.yul\":9606:9607   */\n      0x00\n        /* \"#utility.yul\":9595:9604   */\n      dup4\n        /* \"#utility.yul\":9591:9608   */\n      add\n        /* \"#utility.yul\":9584:9631   */\n      mstore\n        /* \"#utility.yul\":9648:9779   */\n      tag_182\n        /* \"#utility.yul\":9774:9778   */\n      dup2\n        /* \"#utility.yul\":9648:9779   */\n      tag_94\n      jump\t// in\n    tag_182:\n        /* \"#utility.yul\":9640:9779   */\n      swap1\n      pop\n        /* \"#utility.yul\":9367:9786   */\n      swap2\n      swap1\n      pop\n      jump\t// out\n        /* \"#utility.yul\":9792:10124   */\n    tag_68:\n        /* \"#utility.yul\":9913:9917   */\n      0x00\n        /* \"#utility.yul\":9951:9953   */\n      0x40\n        /* \"#utility.yul\":9940:9949   */\n      dup3\n        /* \"#utility.yul\":9936:9954   */\n      add\n        /* \"#utility.yul\":9928:9954   */\n      swap1\n      pop\n        /* \"#utility.yul\":9964:10035   */\n      tag_184\n        /* \"#utility.yul\":10032:10033   */\n      0x00\n        /* \"#utility.yul\":10021:10030   */\n      dup4\n        /* \"#utility.yul\":10017:10034   */\n      add\n        /* \"#utility.yul\":10008:10014   */\n      dup6\n        /* \"#utility.yul\":9964:10035   */\n      tag_77\n      jump\t// in\n    tag_184:\n        /* \"#utility.yul\":10045:10117   */\n      tag_185\n        /* \"#utility.yul\":10113:10115   */\n      0x20\n        /* \"#utility.yul\":10102:10111   */\n      dup4\n        /* \"#utility.yul\":10098:10116   */\n      add\n        /* \"#utility.yul\":10089:10095   */\n      dup5\n        /* \"#utility.yul\":10045:10117   */\n      tag_77\n      jump\t// in\n    tag_185:\n        /* \"#utility.yul\":9792:10124   */\n      swap4\n      swap3\n      pop\n      pop\n      pop\n      jump\t// out\n\n    auxdata: 0xa2646970667358221220b6c5875c6fa21116373e392ba356bb2088e07b5e9c91e5cbe7f49f372d4caac064736f6c63430008120033\n}\n",
				"bytecode": {
					"linkReferences": {},
					"object": "608060405234801561001057600080fd5b50336000806101000a81548173ffffffffffffffffffffffffffffffffffffffff021916908373ffffffffffffffffffffffffffffffffffffffff160217905550610ad4806100606000396000f3fe60806040526004361061004e5760003560e01c806327e235e3146100695780632e1a7d4d146100a65780638da5cb5b146100cf578063b44b96e1146100fa578063b6b55f25146101165761005e565b3661005e5761005c34610132565b005b61006734610132565b005b34801561007557600080fd5b50610090600480360381019061008b919061060e565b61021c565b60405161009d9190610654565b60405180910390f35b3480156100b257600080fd5b506100cd60048036038101906100c8919061069b565b610234565b005b3480156100db57600080fd5b506100e46103e7565b6040516100f191906106d7565b60405180910390f35b610114600480360381019061010f91906106f2565b61040b565b005b610130600480360381019061012b919061069b565b610132565b005b60008111610175576040517f08c379a000000000000000000000000000000000000000000000000000000000815260040161016c906107a2565b60405180910390fd5b80600160003373ffffffffffffffffffffffffffffffffffffffff1673ffffffffffffffffffffffffffffffffffffffff16815260200190815260200160002060008282546101c491906107f1565b925050819055503373ffffffffffffffffffffffffffffffffffffffff167fe1fffcc4923d04b559f4d29a8bfc6cda04eb5b0d3c460751c2402c5c5cc9109c826040516102119190610654565b60405180910390a250565b60016020528060005260406000206000915090505481565b60008111610277576040517f08c379a000000000000000000000000000000000000000000000000000000000815260040161026e90610871565b60405180910390fd5b600160003373ffffffffffffffffffffffffffffffffffffffff1673ffffffffffffffffffffffffffffffffffffffff168152602001908152602001600020548111156102f9576040517f08c379a00000000000000000000000000000000000000000000000000000000081526004016102f0906108dd565b60405180910390fd5b80600160003373ffffffffffffffffffffffffffffffffffffffff1673ffffffffffffffffffffffffffffffffffffffff168152602001908152602001600020600082825461034891906108fd565b925050819055503373ffffffffffffffffffffffffffffffffffffffff166108fc829081150290604051600060405180830381858888f19350505050158015610395573d6000803e3d6000fd5b503373ffffffffffffffffffffffffffffffffffffffff167f0ac5ba04576315cac54ec942c9cf0ab334efb6b4999b315d86ba31ecf93401ec826040516103dc9190610654565b60405180910390a250565b60008054906101000a900473ffffffffffffffffffffffffffffffffffffffff1681565b600073ffffffffffffffffffffffffffffffffffffffff168373ffffffffffffffffffffffffffffffffffffffff160361047a576040517f08c379a00000000000000000000000000000000000000000000000000000000081526004016104719061097d565b60405180910390fd5b600082116104bd576040517f08c379a00000000000000000000000000000000000000000000000000000000081526004016104b4906109e9565b60405180910390fd5b81600160003373ffffffffffffffffffffffffffffffffffffffff1673ffffffffffffffffffffffffffffffffffffffff16815260200190815260200160002054101561053f576040517f08c379a000000000000000000000000000000000000000000000000000000000815260040161053690610a55565b60405180910390fd5b8273ffffffffffffffffffffffffffffffffffffffff163373ffffffffffffffffffffffffffffffffffffffff167f4b5796113f074ebf8f11d5bcdeb6349b2fbe47abed78419cdcdbbc15c6fcf845848460405161059e929190610a75565b60405180910390a3505050565b600080fd5b600073ffffffffffffffffffffffffffffffffffffffff82169050919050565b60006105db826105b0565b9050919050565b6105eb816105d0565b81146105f657600080fd5b50565b600081359050610608816105e2565b92915050565b600060208284031215610624576106236105ab565b5b6000610632848285016105f9565b91505092915050565b6000819050919050565b61064e8161063b565b82525050565b60006020820190506106696000830184610645565b92915050565b6106788161063b565b811461068357600080fd5b50565b6000813590506106958161066f565b92915050565b6000602082840312156106b1576106b06105ab565b5b60006106bf84828501610686565b91505092915050565b6106d1816105d0565b82525050565b60006020820190506106ec60008301846106c8565b92915050565b60008060006060848603121561070b5761070a6105ab565b5b6000610719868287016105f9565b935050602061072a86828701610686565b925050604061073b86828701610686565b9150509250925092565b600082825260208201905092915050565b7f496e76616c6964206465706f73697420616d6f756e7400000000000000000000600082015250565b600061078c601683610745565b915061079782610756565b602082019050919050565b600060208201905081810360008301526107bb8161077f565b9050919050565b7f4e487b7100000000000000000000000000000000000000000000000000000000600052601160045260246000fd5b60006107fc8261063b565b91506108078361063b565b925082820190508082111561081f5761081e6107c2565b5b92915050565b7f496e76616c6964207769746864726177616c20616d6f756e7400000000000000600082015250565b600061085b601983610745565b915061086682610825565b602082019050919050565b6000602082019050818103600083015261088a8161084e565b9050919050565b7f496e73756666696369656e742062616c616e6365000000000000000000000000600082015250565b60006108c7601483610745565b91506108d282610891565b602082019050919050565b600060208201905081810360008301526108f6816108ba565b9050919050565b60006109088261063b565b91506109138361063b565b925082820390508181111561092b5761092a6107c2565b5b92915050565b7f496e76616c696420746f6b656e20616464726573730000000000000000000000600082015250565b6000610967601583610745565b915061097282610931565b602082019050919050565b600060208201905081810360008301526109968161095a565b9050919050565b7f496e76616c696420616d6f756e74000000000000000000000000000000000000600082015250565b60006109d3600e83610745565b91506109de8261099d565b602082019050919050565b60006020820190508181036000830152610a02816109c6565b9050919050565b7f496e73756666696369656e742066756e64730000000000000000000000000000600082015250565b6000610a3f601283610745565b9150610a4a82610a09565b602082019050919050565b60006020820190508181036000830152610a6e81610a32565b9050919050565b6000604082019050610a8a6000830185610645565b610a976020830184610645565b939250505056fea2646970667358221220b6c5875c6fa21116373e392ba356bb2088e07b5e9c91e5cbe7f49f372d4caac064736f6c63430008120033",
					"opcodes": "PUSH1 0x80 PUSH1 0x40 MSTORE CALLVALUE DUP1 ISZERO PUSH2 0x10 JUMPI PUSH1 0x0 DUP1 REVERT JUMPDEST POP CALLER PUSH1 0x0 DUP1 PUSH2 0x100 EXP DUP2 SLOAD DUP2 PUSH20 0xFFFFFFFFFFFFFFFFFFFFFFFFFFFFFFFFFFFFFFFF MUL NOT AND SWAP1 DUP4 PUSH20 0xFFFFFFFFFFFFFFFFFFFFFFFFFFFFFFFFFFFFFFFF AND MUL OR SWAP1 SSTORE POP PUSH2 0xAD4 DUP1 PUSH2 0x60 PUSH1 0x0 CODECOPY PUSH1 0x0 RETURN INVALID PUSH1 0x80 PUSH1 0x40 MSTORE PUSH1 0x4 CALLDATASIZE LT PUSH2 0x4E JUMPI PUSH1 0x0 CALLDATALOAD PUSH1 0xE0 SHR DUP1 PUSH4 0x27E235E3 EQ PUSH2 0x69 JUMPI DUP1 PUSH4 0x2E1A7D4D EQ PUSH2 0xA6 JUMPI DUP1 PUSH4 0x8DA5CB5B EQ PUSH2 0xCF JUMPI DUP1 PUSH4 0xB44B96E1 EQ PUSH2 0xFA JUMPI DUP1 PUSH4 0xB6B55F25 EQ PUSH2 0x116 JUMPI PUSH2 0x5E JUMP JUMPDEST CALLDATASIZE PUSH2 0x5E JUMPI PUSH2 0x5C CALLVALUE PUSH2 0x132 JUMP JUMPDEST STOP JUMPDEST PUSH2 0x67 CALLVALUE PUSH2 0x132 JUMP JUMPDEST STOP JUMPDEST CALLVALUE DUP1 ISZERO PUSH2 0x75 JUMPI PUSH1 0x0 DUP1 REVERT JUMPDEST POP PUSH2 0x90 PUSH1 0x4 DUP1 CALLDATASIZE SUB DUP2 ADD SWAP1 PUSH2 0x8B SWAP2 SWAP1 PUSH2 0x60E JUMP JUMPDEST PUSH2 0x21C JUMP JUMPDEST PUSH1 0x40 MLOAD PUSH2 0x9D SWAP2 SWAP1 PUSH2 0x654 JUMP JUMPDEST PUSH1 0x40 MLOAD DUP1 SWAP2 SUB SWAP1 RETURN JUMPDEST CALLVALUE DUP1 ISZERO PUSH2 0xB2 JUMPI PUSH1 0x0 DUP1 REVERT JUMPDEST POP PUSH2 0xCD PUSH1 0x4 DUP1 CALLDATASIZE SUB DUP2 ADD SWAP1 PUSH2 0xC8 SWAP2 SWAP1 PUSH2 0x69B JUMP JUMPDEST PUSH2 0x234 JUMP JUMPDEST STOP JUMPDEST CALLVALUE DUP1 ISZERO PUSH2 0xDB JUMPI PUSH1 0x0 DUP1 REVERT JUMPDEST POP PUSH2 0xE4 PUSH2 0x3E7 JUMP JUMPDEST PUSH1 0x40 MLOAD PUSH2 0xF1 SWAP2 SWAP1 PUSH2 0x6D7 JUMP JUMPDEST PUSH1 0x40 MLOAD DUP1 SWAP2 SUB SWAP1 RETURN JUMPDEST PUSH2 0x114 PUSH1 0x4 DUP1 CALLDATASIZE SUB DUP2 ADD SWAP1 PUSH2 0x10F SWAP2 SWAP1 PUSH2 0x6F2 JUMP JUMPDEST PUSH2 0x40B JUMP JUMPDEST STOP JUMPDEST PUSH2 0x130 PUSH1 0x4 DUP1 CALLDATASIZE SUB DUP2 ADD SWAP1 PUSH2 0x12B SWAP2 SWAP1 PUSH2 0x69B JUMP JUMPDEST PUSH2 0x132 JUMP JUMPDEST STOP JUMPDEST PUSH1 0x0 DUP2 GT PUSH2 0x175 JUMPI PUSH1 0x40 MLOAD PUSH32 0x8C379A000000000000000000000000000000000000000000000000000000000 DUP2 MSTORE PUSH1 0x4 ADD PUSH2 0x16C SWAP1 PUSH2 0x7A2 JUMP JUMPDEST PUSH1 0x40 MLOAD DUP1 SWAP2 SUB SWAP1 REVERT JUMPDEST DUP1 PUSH1 0x1 PUSH1 0x0 CALLER PUSH20 0xFFFFFFFFFFFFFFFFFFFFFFFFFFFFFFFFFFFFFFFF AND PUSH20 0xFFFFFFFFFFFFFFFFFFFFFFFFFFFFFFFFFFFFFFFF AND DUP2 MSTORE PUSH1 0x20 ADD SWAP1 DUP2 MSTORE PUSH1 0x20 ADD PUSH1 0x0 KECCAK256 PUSH1 0x0 DUP3 DUP3 SLOAD PUSH2 0x1C4 SWAP2 SWAP1 PUSH2 0x7F1 JUMP JUMPDEST SWAP3 POP POP DUP2 SWAP1 SSTORE POP CALLER PUSH20 0xFFFFFFFFFFFFFFFFFFFFFFFFFFFFFFFFFFFFFFFF AND PUSH32 0xE1FFFCC4923D04B559F4D29A8BFC6CDA04EB5B0D3C460751C2402C5C5CC9109C DUP3 PUSH1 0x40 MLOAD PUSH2 0x211 SWAP2 SWAP1 PUSH2 0x654 JUMP JUMPDEST PUSH1 0x40 MLOAD DUP1 SWAP2 SUB SWAP1 LOG2 POP JUMP JUMPDEST PUSH1 0x1 PUSH1 0x20 MSTORE DUP1 PUSH1 0x0 MSTORE PUSH1 0x40 PUSH1 0x0 KECCAK256 PUSH1 0x0 SWAP2 POP SWAP1 POP SLOAD DUP2 JUMP JUMPDEST PUSH1 0x0 DUP2 GT PUSH2 0x277 JUMPI PUSH1 0x40 MLOAD PUSH32 0x8C379A000000000000000000000000000000000000000000000000000000000 DUP2 MSTORE PUSH1 0x4 ADD PUSH2 0x26E SWAP1 PUSH2 0x871 JUMP JUMPDEST PUSH1 0x40 MLOAD DUP1 SWAP2 SUB SWAP1 REVERT JUMPDEST PUSH1 0x1 PUSH1 0x0 CALLER PUSH20 0xFFFFFFFFFFFFFFFFFFFFFFFFFFFFFFFFFFFFFFFF AND PUSH20 0xFFFFFFFFFFFFFFFFFFFFFFFFFFFFFFFFFFFFFFFF AND DUP2 MSTORE PUSH1 0x20 ADD SWAP1 DUP2 MSTORE PUSH1 0x20 ADD PUSH1 0x0 KECCAK256 SLOAD DUP2 GT ISZERO PUSH2 0x2F9 JUMPI PUSH1 0x40 MLOAD PUSH32 0x8C379A000000000000000000000000000000000000000000000000000000000 DUP2 MSTORE PUSH1 0x4 ADD PUSH2 0x2F0 SWAP1 PUSH2 0x8DD JUMP JUMPDEST PUSH1 0x40 MLOAD DUP1 SWAP2 SUB SWAP1 REVERT JUMPDEST DUP1 PUSH1 0x1 PUSH1 0x0 CALLER PUSH20 0xFFFFFFFFFFFFFFFFFFFFFFFFFFFFFFFFFFFFFFFF AND PUSH20 0xFFFFFFFFFFFFFFFFFFFFFFFFFFFFFFFFFFFFFFFF AND DUP2 MSTORE PUSH1 0x20 ADD SWAP1 DUP2 MSTORE PUSH1 0x20 ADD PUSH1 0x0 KECCAK256 PUSH1 0x0 DUP3 DUP3 SLOAD PUSH2 0x348 SWAP2 SWAP1 PUSH2 0x8FD JUMP JUMPDEST SWAP3 POP POP DUP2 SWAP1 SSTORE POP CALLER PUSH20 0xFFFFFFFFFFFFFFFFFFFFFFFFFFFFFFFFFFFFFFFF AND PUSH2 0x8FC DUP3 SWAP1 DUP2 ISZERO MUL SWAP1 PUSH1 0x40 MLOAD PUSH1 0x0 PUSH1 0x40 MLOAD DUP1 DUP4 SUB DUP2 DUP6 DUP9 DUP9 CALL SWAP4 POP POP POP POP ISZERO DUP1 ISZERO PUSH2 0x395 JUMPI RETURNDATASIZE PUSH1 0x0 DUP1 RETURNDATACOPY RETURNDATASIZE PUSH1 0x0 REVERT JUMPDEST POP CALLER PUSH20 0xFFFFFFFFFFFFFFFFFFFFFFFFFFFFFFFFFFFFFFFF AND PUSH32 0xAC5BA04576315CAC54EC942C9CF0AB334EFB6B4999B315D86BA31ECF93401EC DUP3 PUSH1 0x40 MLOAD PUSH2 0x3DC SWAP2 SWAP1 PUSH2 0x654 JUMP JUMPDEST PUSH1 0x40 MLOAD DUP1 SWAP2 SUB SWAP1 LOG2 POP JUMP JUMPDEST PUSH1 0x0 DUP1 SLOAD SWAP1 PUSH2 0x100 EXP SWAP1 DIV PUSH20 0xFFFFFFFFFFFFFFFFFFFFFFFFFFFFFFFFFFFFFFFF AND DUP2 JUMP JUMPDEST PUSH1 0x0 PUSH20 0xFFFFFFFFFFFFFFFFFFFFFFFFFFFFFFFFFFFFFFFF AND DUP4 PUSH20 0xFFFFFFFFFFFFFFFFFFFFFFFFFFFFFFFFFFFFFFFF AND SUB PUSH2 0x47A JUMPI PUSH1 0x40 MLOAD PUSH32 0x8C379A000000000000000000000000000000000000000000000000000000000 DUP2 MSTORE PUSH1 0x4 ADD PUSH2 0x471 SWAP1 PUSH2 0x97D JUMP JUMPDEST PUSH1 0x40 MLOAD DUP1 SWAP2 SUB SWAP1 REVERT JUMPDEST PUSH1 0x0 DUP3 GT PUSH2 0x4BD JUMPI PUSH1 0x40 MLOAD PUSH32 0x8C379A000000000000000000000000000000000000000000000000000000000 DUP2 MSTORE PUSH1 0x4 ADD PUSH2 0x4B4 SWAP1 PUSH2 0x9E9 JUMP JUMPDEST PUSH1 0x40 MLOAD DUP1 SWAP2 SUB SWAP1 REVERT JUMPDEST DUP2 PUSH1 0x1 PUSH1 0x0 CALLER PUSH20 0xFFFFFFFFFFFFFFFFFFFFFFFFFFFFFFFFFFFFFFFF AND PUSH20 0xFFFFFFFFFFFFFFFFFFFFFFFFFFFFFFFFFFFFFFFF AND DUP2 MSTORE PUSH1 0x20 ADD SWAP1 DUP2 MSTORE PUSH1 0x20 ADD PUSH1 0x0 KECCAK256 SLOAD LT ISZERO PUSH2 0x53F JUMPI PUSH1 0x40 MLOAD PUSH32 0x8C379A000000000000000000000000000000000000000000000000000000000 DUP2 MSTORE PUSH1 0x4 ADD PUSH2 0x536 SWAP1 PUSH2 0xA55 JUMP JUMPDEST PUSH1 0x40 MLOAD DUP1 SWAP2 SUB SWAP1 REVERT JUMPDEST DUP3 PUSH20 0xFFFFFFFFFFFFFFFFFFFFFFFFFFFFFFFFFFFFFFFF AND CALLER PUSH20 0xFFFFFFFFFFFFFFFFFFFFFFFFFFFFFFFFFFFFFFFF AND PUSH32 0x4B5796113F074EBF8F11D5BCDEB6349B2FBE47ABED78419CDCDBBC15C6FCF845 DUP5 DUP5 PUSH1 0x40 MLOAD PUSH2 0x59E SWAP3 SWAP2 SWAP1 PUSH2 0xA75 JUMP JUMPDEST PUSH1 0x40 MLOAD DUP1 SWAP2 SUB SWAP1 LOG3 POP POP POP JUMP JUMPDEST PUSH1 0x0 DUP1 REVERT JUMPDEST PUSH1 0x0 PUSH20 0xFFFFFFFFFFFFFFFFFFFFFFFFFFFFFFFFFFFFFFFF DUP3 AND SWAP1 POP SWAP2 SWAP1 POP JUMP JUMPDEST PUSH1 0x0 PUSH2 0x5DB DUP3 PUSH2 0x5B0 JUMP JUMPDEST SWAP1 POP SWAP2 SWAP1 POP JUMP JUMPDEST PUSH2 0x5EB DUP2 PUSH2 0x5D0 JUMP JUMPDEST DUP2 EQ PUSH2 0x5F6 JUMPI PUSH1 0x0 DUP1 REVERT JUMPDEST POP JUMP JUMPDEST PUSH1 0x0 DUP2 CALLDATALOAD SWAP1 POP PUSH2 0x608 DUP2 PUSH2 0x5E2 JUMP JUMPDEST SWAP3 SWAP2 POP POP JUMP JUMPDEST PUSH1 0x0 PUSH1 0x20 DUP3 DUP5 SUB SLT ISZERO PUSH2 0x624 JUMPI PUSH2 0x623 PUSH2 0x5AB JUMP JUMPDEST JUMPDEST PUSH1 0x0 PUSH2 0x632 DUP5 DUP3 DUP6 ADD PUSH2 0x5F9 JUMP JUMPDEST SWAP2 POP POP SWAP3 SWAP2 POP POP JUMP JUMPDEST PUSH1 0x0 DUP2 SWAP1 POP SWAP2 SWAP1 POP JUMP JUMPDEST PUSH2 0x64E DUP2 PUSH2 0x63B JUMP JUMPDEST DUP3 MSTORE POP POP JUMP JUMPDEST PUSH1 0x0 PUSH1 0x20 DUP3 ADD SWAP1 POP PUSH2 0x669 PUSH1 0x0 DUP4 ADD DUP5 PUSH2 0x645 JUMP JUMPDEST SWAP3 SWAP2 POP POP JUMP JUMPDEST PUSH2 0x678 DUP2 PUSH2 0x63B JUMP JUMPDEST DUP2 EQ PUSH2 0x683 JUMPI PUSH1 0x0 DUP1 REVERT JUMPDEST POP JUMP JUMPDEST PUSH1 0x0 DUP2 CALLDATALOAD SWAP1 POP PUSH2 0x695 DUP2 PUSH2 0x66F JUMP JUMPDEST SWAP3 SWAP2 POP POP JUMP JUMPDEST PUSH1 0x0 PUSH1 0x20 DUP3 DUP5 SUB SLT ISZERO PUSH2 0x6B1 JUMPI PUSH2 0x6B0 PUSH2 0x5AB JUMP JUMPDEST JUMPDEST PUSH1 0x0 PUSH2 0x6BF DUP5 DUP3 DUP6 ADD PUSH2 0x686 JUMP JUMPDEST SWAP2 POP POP SWAP3 SWAP2 POP POP JUMP JUMPDEST PUSH2 0x6D1 DUP2 PUSH2 0x5D0 JUMP JUMPDEST DUP3 MSTORE POP POP JUMP JUMPDEST PUSH1 0x0 PUSH1 0x20 DUP3 ADD SWAP1 POP PUSH2 0x6EC PUSH1 0x0 DUP4 ADD DUP5 PUSH2 0x6C8 JUMP JUMPDEST SWAP3 SWAP2 POP POP JUMP JUMPDEST PUSH1 0x0 DUP1 PUSH1 0x0 PUSH1 0x60 DUP5 DUP7 SUB SLT ISZERO PUSH2 0x70B JUMPI PUSH2 0x70A PUSH2 0x5AB JUMP JUMPDEST JUMPDEST PUSH1 0x0 PUSH2 0x719 DUP7 DUP3 DUP8 ADD PUSH2 0x5F9 JUMP JUMPDEST SWAP4 POP POP PUSH1 0x20 PUSH2 0x72A DUP7 DUP3 DUP8 ADD PUSH2 0x686 JUMP JUMPDEST SWAP3 POP POP PUSH1 0x40 PUSH2 0x73B DUP7 DUP3 DUP8 ADD PUSH2 0x686 JUMP JUMPDEST SWAP2 POP POP SWAP3 POP SWAP3 POP SWAP3 JUMP JUMPDEST PUSH1 0x0 DUP3 DUP3 MSTORE PUSH1 0x20 DUP3 ADD SWAP1 POP SWAP3 SWAP2 POP POP JUMP JUMPDEST PUSH32 0x496E76616C6964206465706F73697420616D6F756E7400000000000000000000 PUSH1 0x0 DUP3 ADD MSTORE POP JUMP JUMPDEST PUSH1 0x0 PUSH2 0x78C PUSH1 0x16 DUP4 PUSH2 0x745 JUMP JUMPDEST SWAP2 POP PUSH2 0x797 DUP3 PUSH2 0x756 JUMP JUMPDEST PUSH1 0x20 DUP3 ADD SWAP1 POP SWAP2 SWAP1 POP JUMP JUMPDEST PUSH1 0x0 PUSH1 0x20 DUP3 ADD SWAP1 POP DUP2 DUP2 SUB PUSH1 0x0 DUP4 ADD MSTORE PUSH2 0x7BB DUP2 PUSH2 0x77F JUMP JUMPDEST SWAP1 POP SWAP2 SWAP1 POP JUMP JUMPDEST PUSH32 0x4E487B7100000000000000000000000000000000000000000000000000000000 PUSH1 0x0 MSTORE PUSH1 0x11 PUSH1 0x4 MSTORE PUSH1 0x24 PUSH1 0x0 REVERT JUMPDEST PUSH1 0x0 PUSH2 0x7FC DUP3 PUSH2 0x63B JUMP JUMPDEST SWAP2 POP PUSH2 0x807 DUP4 PUSH2 0x63B JUMP JUMPDEST SWAP3 POP DUP3 DUP3 ADD SWAP1 POP DUP1 DUP3 GT ISZERO PUSH2 0x81F JUMPI PUSH2 0x81E PUSH2 0x7C2 JUMP JUMPDEST JUMPDEST SWAP3 SWAP2 POP POP JUMP JUMPDEST PUSH32 0x496E76616C6964207769746864726177616C20616D6F756E7400000000000000 PUSH1 0x0 DUP3 ADD MSTORE POP JUMP JUMPDEST PUSH1 0x0 PUSH2 0x85B PUSH1 0x19 DUP4 PUSH2 0x745 JUMP JUMPDEST SWAP2 POP PUSH2 0x866 DUP3 PUSH2 0x825 JUMP JUMPDEST PUSH1 0x20 DUP3 ADD SWAP1 POP SWAP2 SWAP1 POP JUMP JUMPDEST PUSH1 0x0 PUSH1 0x20 DUP3 ADD SWAP1 POP DUP2 DUP2 SUB PUSH1 0x0 DUP4 ADD MSTORE PUSH2 0x88A DUP2 PUSH2 0x84E JUMP JUMPDEST SWAP1 POP SWAP2 SWAP1 POP JUMP JUMPDEST PUSH32 0x496E73756666696369656E742062616C616E6365000000000000000000000000 PUSH1 0x0 DUP3 ADD MSTORE POP JUMP JUMPDEST PUSH1 0x0 PUSH2 0x8C7 PUSH1 0x14 DUP4 PUSH2 0x745 JUMP JUMPDEST SWAP2 POP PUSH2 0x8D2 DUP3 PUSH2 0x891 JUMP JUMPDEST PUSH1 0x20 DUP3 ADD SWAP1 POP SWAP2 SWAP1 POP JUMP JUMPDEST PUSH1 0x0 PUSH1 0x20 DUP3 ADD SWAP1 POP DUP2 DUP2 SUB PUSH1 0x0 DUP4 ADD MSTORE PUSH2 0x8F6 DUP2 PUSH2 0x8BA JUMP JUMPDEST SWAP1 POP SWAP2 SWAP1 POP JUMP JUMPDEST PUSH1 0x0 PUSH2 0x908 DUP3 PUSH2 0x63B JUMP JUMPDEST SWAP2 POP PUSH2 0x913 DUP4 PUSH2 0x63B JUMP JUMPDEST SWAP3 POP DUP3 DUP3 SUB SWAP1 POP DUP2 DUP2 GT ISZERO PUSH2 0x92B JUMPI PUSH2 0x92A PUSH2 0x7C2 JUMP JUMPDEST JUMPDEST SWAP3 SWAP2 POP POP JUMP JUMPDEST PUSH32 0x496E76616C696420746F6B656E20616464726573730000000000000000000000 PUSH1 0x0 DUP3 ADD MSTORE POP JUMP JUMPDEST PUSH1 0x0 PUSH2 0x967 PUSH1 0x15 DUP4 PUSH2 0x745 JUMP JUMPDEST SWAP2 POP PUSH2 0x972 DUP3 PUSH2 0x931 JUMP JUMPDEST PUSH1 0x20 DUP3 ADD SWAP1 POP SWAP2 SWAP1 POP JUMP JUMPDEST PUSH1 0x0 PUSH1 0x20 DUP3 ADD SWAP1 POP DUP2 DUP2 SUB PUSH1 0x0 DUP4 ADD MSTORE PUSH2 0x996 DUP2 PUSH2 0x95A JUMP JUMPDEST SWAP1 POP SWAP2 SWAP1 POP JUMP JUMPDEST PUSH32 0x496E76616C696420616D6F756E74000000000000000000000000000000000000 PUSH1 0x0 DUP3 ADD MSTORE POP JUMP JUMPDEST PUSH1 0x0 PUSH2 0x9D3 PUSH1 0xE DUP4 PUSH2 0x745 JUMP JUMPDEST SWAP2 POP PUSH2 0x9DE DUP3 PUSH2 0x99D JUMP JUMPDEST PUSH1 0x20 DUP3 ADD SWAP1 POP SWAP2 SWAP1 POP JUMP JUMPDEST PUSH1 0x0 PUSH1 0x20 DUP3 ADD SWAP1 POP DUP2 DUP2 SUB PUSH1 0x0 DUP4 ADD MSTORE PUSH2 0xA02 DUP2 PUSH2 0x9C6 JUMP JUMPDEST SWAP1 POP SWAP2 SWAP1 POP JUMP JUMPDEST PUSH32 0x496E73756666696369656E742066756E64730000000000000000000000000000 PUSH1 0x0 DUP3 ADD MSTORE POP JUMP JUMPDEST PUSH1 0x0 PUSH2 0xA3F PUSH1 0x12 DUP4 PUSH2 0x745 JUMP JUMPDEST SWAP2 POP PUSH2 0xA4A DUP3 PUSH2 0xA09 JUMP JUMPDEST PUSH1 0x20 DUP3 ADD SWAP1 POP SWAP2 SWAP1 POP JUMP JUMPDEST PUSH1 0x0 PUSH1 0x20 DUP3 ADD SWAP1 POP DUP2 DUP2 SUB PUSH1 0x0 DUP4 ADD MSTORE PUSH2 0xA6E DUP2 PUSH2 0xA32 JUMP JUMPDEST SWAP1 POP SWAP2 SWAP1 POP JUMP JUMPDEST PUSH1 0x0 PUSH1 0x40 DUP3 ADD SWAP1 POP PUSH2 0xA8A PUSH1 0x0 DUP4 ADD DUP6 PUSH2 0x645 JUMP JUMPDEST PUSH2 0xA97 PUSH1 0x20 DUP4 ADD DUP5 PUSH2 0x645 JUMP JUMPDEST SWAP4 SWAP3 POP POP POP JUMP INVALID LOG2 PUSH5 0x6970667358 0x22 SLT KECCAK256 0xB6 0xC5 DUP8 0x5C PUSH16 0xA21116373E392BA356BB2088E07B5E9C SWAP2 0xE5 0xCB 0xE7 DELEGATECALL SWAP16 CALLDATACOPY 0x2D 0x4C 0xAA 0xC0 PUSH5 0x736F6C6343 STOP ADDMOD SLT STOP CALLER "
				},
				"gasEstimates": {
					"creation": {
						"codeDepositCost": "554400",
						"executionCost": "24853",
						"totalCost": "579253"
					},
					"external": {
						"": "infinite",
						"balances(address)": "2792",
						"deposit(uint256)": "infinite",
						"owner()": "2533",
						"trade(address,uint256,uint256)": "infinite",
						"withdraw(uint256)": "infinite"
					}
				},
				"methodIdentifiers": {
					"balances(address)": "27e235e3",
					"deposit(uint256)": "b6b55f25",
					"owner()": "8da5cb5b",
					"trade(address,uint256,uint256)": "b44b96e1",
					"withdraw(uint256)": "2e1a7d4d"
				}
			},
			"storageLayout": {
				"storage": [
					{
						"astId": 13,
						"contract": "contracts/Dex2.sol:DecentralizedExchange",
						"label": "owner",
						"offset": 0,
						"slot": "0",
						"type": "t_address"
					},
					{
						"astId": 17,
						"contract": "contracts/Dex2.sol:DecentralizedExchange",
						"label": "balances",
						"offset": 0,
						"slot": "1",
						"type": "t_mapping(t_address,t_uint256)"
					}
				],
				"types": {
					"t_address": {
						"encoding": "inplace",
						"label": "address",
						"numberOfBytes": "20"
					},
					"t_mapping(t_address,t_uint256)": {
						"encoding": "mapping",
						"key": "t_address",
						"label": "mapping(address => uint256)",
						"numberOfBytes": "32",
						"value": "t_uint256"
					},
					"t_uint256": {
						"encoding": "inplace",
						"label": "uint256",
						"numberOfBytes": "32"
					}
				}
			},
			"userdoc": {
				"kind": "user",
				"methods": {},
				"version": 1
			}
		}
	}
}