{
	"contracts/ticket.sol": {
		"TicketingSystem": {
			"abi": [
				{
					"anonymous": false,
					"inputs": [
						{
							"indexed": false,
							"internalType": "uint256",
							"name": "id",
							"type": "uint256"
						},
						{
							"indexed": false,
							"internalType": "address",
							"name": "seller",
							"type": "address"
						},
						{
							"indexed": false,
							"internalType": "string",
							"name": "eventName",
							"type": "string"
						},
						{
							"indexed": false,
							"internalType": "uint256",
							"name": "price",
							"type": "uint256"
						}
					],
					"name": "TicketCreated",
					"type": "event"
				},
				{
					"anonymous": false,
					"inputs": [
						{
							"indexed": false,
							"internalType": "uint256",
							"name": "id",
							"type": "uint256"
						},
						{
							"indexed": false,
							"internalType": "address",
							"name": "buyer",
							"type": "address"
						},
						{
							"indexed": false,
							"internalType": "string",
							"name": "eventName",
							"type": "string"
						},
						{
							"indexed": false,
							"internalType": "uint256",
							"name": "price",
							"type": "uint256"
						}
					],
					"name": "TicketPurchased",
					"type": "event"
				},
				{
					"inputs": [
						{
							"internalType": "uint256",
							"name": "_id",
							"type": "uint256"
						}
					],
					"name": "PurchaseTicket",
					"outputs": [],
					"stateMutability": "payable",
					"type": "function"
				},
				{
					"inputs": [
						{
							"internalType": "string",
							"name": "_eventName",
							"type": "string"
						},
						{
							"internalType": "uint256",
							"name": "_price",
							"type": "uint256"
						}
					],
					"name": "createTicket",
					"outputs": [],
					"stateMutability": "nonpayable",
					"type": "function"
				},
				{
					"inputs": [
						{
							"internalType": "uint256",
							"name": "_id",
							"type": "uint256"
						}
					],
					"name": "getTicket",
					"outputs": [
						{
							"internalType": "uint256",
							"name": "id",
							"type": "uint256"
						},
						{
							"internalType": "address",
							"name": "seller",
							"type": "address"
						},
						{
							"internalType": "string",
							"name": "eventName",
							"type": "string"
						},
						{
							"internalType": "uint256",
							"name": "price",
							"type": "uint256"
						},
						{
							"internalType": "bool",
							"name": "available",
							"type": "bool"
						}
					],
					"stateMutability": "view",
					"type": "function"
				},
				{
					"inputs": [],
					"name": "ticketCount",
					"outputs": [
						{
							"internalType": "uint256",
							"name": "",
							"type": "uint256"
						}
					],
					"stateMutability": "view",
					"type": "function"
				},
				{
					"inputs": [
						{
							"internalType": "uint256",
							"name": "",
							"type": "uint256"
						}
					],
					"name": "tickets",
					"outputs": [
						{
							"internalType": "uint256",
							"name": "id",
							"type": "uint256"
						},
						{
							"internalType": "address",
							"name": "seller",
							"type": "address"
						},
						{
							"internalType": "string",
							"name": "eventName",
							"type": "string"
						},
						{
							"internalType": "uint256",
							"name": "price",
							"type": "uint256"
						},
						{
							"internalType": "bool",
							"name": "available",
							"type": "bool"
						}
					],
					"stateMutability": "view",
					"type": "function"
				}
			],
			"devdoc": {
				"kind": "dev",
				"methods": {},
				"version": 1
			},
			"evm": {
				"assembly": "    /* \"contracts/ticket.sol\":58:1932  contract TicketingSystem{... */\n  mstore(0x40, 0x80)\n  callvalue\n  dup1\n  iszero\n  tag_1\n  jumpi\n  0x00\n  dup1\n  revert\ntag_1:\n  pop\n  dataSize(sub_0)\n  dup1\n  dataOffset(sub_0)\n  0x00\n  codecopy\n  0x00\n  return\nstop\n\nsub_0: assembly {\n        /* \"contracts/ticket.sol\":58:1932  contract TicketingSystem{... */\n      mstore(0x40, 0x80)\n      jumpi(tag_1, lt(calldatasize, 0x04))\n      shr(0xe0, calldataload(0x00))\n      dup1\n      0x4283f7f1\n      eq\n      tag_2\n      jumpi\n      dup1\n      0x50b44712\n      eq\n      tag_3\n      jumpi\n      dup1\n      0x7dc379fa\n      eq\n      tag_4\n      jumpi\n      dup1\n      0x8729004f\n      eq\n      tag_5\n      jumpi\n      dup1\n      0xcfbd900f\n      eq\n      tag_6\n      jumpi\n    tag_1:\n      0x00\n      dup1\n      revert\n        /* \"contracts/ticket.sol\":1017:1455  function PurchaseTicket(uint256 _id) public payable {... */\n    tag_2:\n      tag_7\n      0x04\n      dup1\n      calldatasize\n      sub\n      dup2\n      add\n      swap1\n      tag_8\n      swap2\n      swap1\n      tag_9\n      jump\t// in\n    tag_8:\n      tag_10\n      jump\t// in\n    tag_7:\n      stop\n        /* \"contracts/ticket.sol\":263:304  mapping(uint256 => Ticket) public tickets */\n    tag_3:\n      callvalue\n      dup1\n      iszero\n      tag_11\n      jumpi\n      0x00\n      dup1\n      revert\n    tag_11:\n      pop\n      tag_12\n      0x04\n      dup1\n      calldatasize\n      sub\n      dup2\n      add\n      swap1\n      tag_13\n      swap2\n      swap1\n      tag_9\n      jump\t// in\n    tag_13:\n      tag_14\n      jump\t// in\n    tag_12:\n      mload(0x40)\n      tag_15\n      swap6\n      swap5\n      swap4\n      swap3\n      swap2\n      swap1\n      tag_16\n      jump\t// in\n    tag_15:\n      mload(0x40)\n      dup1\n      swap2\n      sub\n      swap1\n      return\n        /* \"contracts/ticket.sol\":1461:1928  function getTicket(uint256 _id) public view returns (... */\n    tag_4:\n      callvalue\n      dup1\n      iszero\n      tag_17\n      jumpi\n      0x00\n      dup1\n      revert\n    tag_17:\n      pop\n      tag_18\n      0x04\n      dup1\n      calldatasize\n      sub\n      dup2\n      add\n      swap1\n      tag_19\n      swap2\n      swap1\n      tag_9\n      jump\t// in\n    tag_19:\n      tag_20\n      jump\t// in\n    tag_18:\n      mload(0x40)\n      tag_21\n      swap6\n      swap5\n      swap4\n      swap3\n      swap2\n      swap1\n      tag_16\n      jump\t// in\n    tag_21:\n      mload(0x40)\n      dup1\n      swap2\n      sub\n      swap1\n      return\n        /* \"contracts/ticket.sol\":484:1011  function createTicket(string memory _eventName, uint256 _price) public {... */\n    tag_5:\n      callvalue\n      dup1\n      iszero\n      tag_22\n      jumpi\n      0x00\n      dup1\n      revert\n    tag_22:\n      pop\n      tag_23\n      0x04\n      dup1\n      calldatasize\n      sub\n      dup2\n      add\n      swap1\n      tag_24\n      swap2\n      swap1\n      tag_25\n      jump\t// in\n    tag_24:\n      tag_26\n      jump\t// in\n    tag_23:\n      stop\n        /* \"contracts/ticket.sol\":231:257  uint256 public ticketCount */\n    tag_6:\n      callvalue\n      dup1\n      iszero\n      tag_27\n      jumpi\n      0x00\n      dup1\n      revert\n    tag_27:\n      pop\n      tag_28\n      tag_29\n      jump\t// in\n    tag_28:\n      mload(0x40)\n      tag_30\n      swap2\n      swap1\n      tag_31\n      jump\t// in\n    tag_30:\n      mload(0x40)\n      dup1\n      swap2\n      sub\n      swap1\n      return\n        /* \"contracts/ticket.sol\":1017:1455  function PurchaseTicket(uint256 _id) public payable {... */\n    tag_10:\n        /* \"contracts/ticket.sol\":1093:1094  0 */\n      0x00\n        /* \"contracts/ticket.sol\":1087:1090  _id */\n      dup2\n        /* \"contracts/ticket.sol\":1087:1094  _id > 0 */\n      gt\n        /* \"contracts/ticket.sol\":1087:1116  _id > 0 && _id <= ticketCount */\n      dup1\n      iszero\n      tag_33\n      jumpi\n      pop\n        /* \"contracts/ticket.sol\":1105:1116  ticketCount */\n      sload(0x00)\n        /* \"contracts/ticket.sol\":1098:1101  _id */\n      dup2\n        /* \"contracts/ticket.sol\":1098:1116  _id <= ticketCount */\n      gt\n      iszero\n        /* \"contracts/ticket.sol\":1087:1116  _id > 0 && _id <= ticketCount */\n    tag_33:\n        /* \"contracts/ticket.sol\":1079:1138  require(_id > 0 && _id <= ticketCount, \"Invalid ticket ID\") */\n      tag_34\n      jumpi\n      mload(0x40)\n      0x08c379a000000000000000000000000000000000000000000000000000000000\n      dup2\n      mstore\n      0x04\n      add\n      tag_35\n      swap1\n      tag_36\n      jump\t// in\n    tag_35:\n      mload(0x40)\n      dup1\n      swap2\n      sub\n      swap1\n      revert\n    tag_34:\n        /* \"contracts/ticket.sol\":1149:1170  Ticket storage ticket */\n      0x00\n        /* \"contracts/ticket.sol\":1173:1180  tickets */\n      0x01\n        /* \"contracts/ticket.sol\":1173:1185  tickets[_id] */\n      0x00\n        /* \"contracts/ticket.sol\":1181:1184  _id */\n      dup4\n        /* \"contracts/ticket.sol\":1173:1185  tickets[_id] */\n      dup2\n      mstore\n      0x20\n      add\n      swap1\n      dup2\n      mstore\n      0x20\n      add\n      0x00\n      keccak256\n        /* \"contracts/ticket.sol\":1149:1185  Ticket storage ticket = tickets[_id] */\n      swap1\n      pop\n        /* \"contracts/ticket.sol\":1204:1210  ticket */\n      dup1\n        /* \"contracts/ticket.sol\":1204:1220  ticket.available */\n      0x04\n      add\n      0x00\n      swap1\n      sload\n      swap1\n      0x0100\n      exp\n      swap1\n      div\n      0xff\n      and\n        /* \"contracts/ticket.sol\":1196:1245  require(ticket.available, \"Ticket not available\") */\n      tag_37\n      jumpi\n      mload(0x40)\n      0x08c379a000000000000000000000000000000000000000000000000000000000\n      dup2\n      mstore\n      0x04\n      add\n      tag_38\n      swap1\n      tag_39\n      jump\t// in\n    tag_38:\n      mload(0x40)\n      dup1\n      swap2\n      sub\n      swap1\n      revert\n    tag_37:\n        /* \"contracts/ticket.sol\":1276:1282  ticket */\n      dup1\n        /* \"contracts/ticket.sol\":1276:1288  ticket.price */\n      0x03\n      add\n      sload\n        /* \"contracts/ticket.sol\":1263:1272  msg.value */\n      callvalue\n        /* \"contracts/ticket.sol\":1263:1288  msg.value == ticket.price */\n      eq\n        /* \"contracts/ticket.sol\":1255:1333  require(msg.value == ticket.price, \"Not a valid amount for buying the ticket\") */\n      tag_40\n      jumpi\n      mload(0x40)\n      0x08c379a000000000000000000000000000000000000000000000000000000000\n      dup2\n      mstore\n      0x04\n      add\n      tag_41\n      swap1\n      tag_42\n      jump\t// in\n    tag_41:\n      mload(0x40)\n      dup1\n      swap2\n      sub\n      swap1\n      revert\n    tag_40:\n        /* \"contracts/ticket.sol\":1363:1368  false */\n      0x00\n        /* \"contracts/ticket.sol\":1344:1350  ticket */\n      dup2\n        /* \"contracts/ticket.sol\":1344:1360  ticket.available */\n      0x04\n      add\n      0x00\n        /* \"contracts/ticket.sol\":1344:1368  ticket.available = false */\n      0x0100\n      exp\n      dup2\n      sload\n      dup2\n      0xff\n      mul\n      not\n      and\n      swap1\n      dup4\n      iszero\n      iszero\n      mul\n      or\n      swap1\n      sstore\n      pop\n        /* \"contracts/ticket.sol\":1384:1448  TicketPurchased(_id, msg.sender, ticket.eventName, ticket.price) */\n      0xedff126a959c32951b576fa2ce20c377c50349226898a5ab7ded1ae246a09c17\n        /* \"contracts/ticket.sol\":1400:1403  _id */\n      dup3\n        /* \"contracts/ticket.sol\":1405:1415  msg.sender */\n      caller\n        /* \"contracts/ticket.sol\":1417:1423  ticket */\n      dup4\n        /* \"contracts/ticket.sol\":1417:1433  ticket.eventName */\n      0x02\n      add\n        /* \"contracts/ticket.sol\":1435:1441  ticket */\n      dup5\n        /* \"contracts/ticket.sol\":1435:1447  ticket.price */\n      0x03\n      add\n      sload\n        /* \"contracts/ticket.sol\":1384:1448  TicketPurchased(_id, msg.sender, ticket.eventName, ticket.price) */\n      mload(0x40)\n      tag_43\n      swap5\n      swap4\n      swap3\n      swap2\n      swap1\n      tag_44\n      jump\t// in\n    tag_43:\n      mload(0x40)\n      dup1\n      swap2\n      sub\n      swap1\n      log1\n        /* \"contracts/ticket.sol\":1069:1455  {... */\n      pop\n        /* \"contracts/ticket.sol\":1017:1455  function PurchaseTicket(uint256 _id) public payable {... */\n      pop\n      jump\t// out\n        /* \"contracts/ticket.sol\":263:304  mapping(uint256 => Ticket) public tickets */\n    tag_14:\n      mstore(0x20, 0x01)\n      dup1\n      0x00\n      mstore\n      keccak256(0x00, 0x40)\n      0x00\n      swap2\n      pop\n      swap1\n      pop\n      dup1\n      0x00\n      add\n      sload\n      swap1\n      dup1\n      0x01\n      add\n      0x00\n      swap1\n      sload\n      swap1\n      0x0100\n      exp\n      swap1\n      div\n      0xffffffffffffffffffffffffffffffffffffffff\n      and\n      swap1\n      dup1\n      0x02\n      add\n      dup1\n      sload\n      tag_45\n      swap1\n      tag_46\n      jump\t// in\n    tag_45:\n      dup1\n      0x1f\n      add\n      0x20\n      dup1\n      swap2\n      div\n      mul\n      0x20\n      add\n      mload(0x40)\n      swap1\n      dup2\n      add\n      0x40\n      mstore\n      dup1\n      swap3\n      swap2\n      swap1\n      dup2\n      dup2\n      mstore\n      0x20\n      add\n      dup3\n      dup1\n      sload\n      tag_47\n      swap1\n      tag_46\n      jump\t// in\n    tag_47:\n      dup1\n      iszero\n      tag_48\n      jumpi\n      dup1\n      0x1f\n      lt\n      tag_49\n      jumpi\n      0x0100\n      dup1\n      dup4\n      sload\n      div\n      mul\n      dup4\n      mstore\n      swap2\n      0x20\n      add\n      swap2\n      jump(tag_48)\n    tag_49:\n      dup3\n      add\n      swap2\n      swap1\n      0x00\n      mstore\n      keccak256(0x00, 0x20)\n      swap1\n    tag_50:\n      dup2\n      sload\n      dup2\n      mstore\n      swap1\n      0x01\n      add\n      swap1\n      0x20\n      add\n      dup1\n      dup4\n      gt\n      tag_50\n      jumpi\n      dup3\n      swap1\n      sub\n      0x1f\n      and\n      dup3\n      add\n      swap2\n    tag_48:\n      pop\n      pop\n      pop\n      pop\n      pop\n      swap1\n      dup1\n      0x03\n      add\n      sload\n      swap1\n      dup1\n      0x04\n      add\n      0x00\n      swap1\n      sload\n      swap1\n      0x0100\n      exp\n      swap1\n      div\n      0xff\n      and\n      swap1\n      pop\n      dup6\n      jump\t// out\n        /* \"contracts/ticket.sol\":1461:1928  function getTicket(uint256 _id) public view returns (... */\n    tag_20:\n        /* \"contracts/ticket.sol\":1523:1533  uint256 id */\n      0x00\n        /* \"contracts/ticket.sol\":1543:1557  address seller */\n      dup1\n        /* \"contracts/ticket.sol\":1567:1590  string memory eventName */\n      0x60\n        /* \"contracts/ticket.sol\":1600:1613  uint256 price */\n      0x00\n        /* \"contracts/ticket.sol\":1623:1637  bool available */\n      dup1\n        /* \"contracts/ticket.sol\":1667:1668  0 */\n      0x00\n        /* \"contracts/ticket.sol\":1661:1664  _id */\n      dup7\n        /* \"contracts/ticket.sol\":1661:1668  _id > 0 */\n      gt\n        /* \"contracts/ticket.sol\":1661:1690  _id > 0 && _id <= ticketCount */\n      dup1\n      iszero\n      tag_52\n      jumpi\n      pop\n        /* \"contracts/ticket.sol\":1679:1690  ticketCount */\n      sload(0x00)\n        /* \"contracts/ticket.sol\":1672:1675  _id */\n      dup7\n        /* \"contracts/ticket.sol\":1672:1690  _id <= ticketCount */\n      gt\n      iszero\n        /* \"contracts/ticket.sol\":1661:1690  _id > 0 && _id <= ticketCount */\n    tag_52:\n        /* \"contracts/ticket.sol\":1653:1712  require(_id > 0 && _id <= ticketCount, \"Invalid Ticket ID\") */\n      tag_53\n      jumpi\n      mload(0x40)\n      0x08c379a000000000000000000000000000000000000000000000000000000000\n      dup2\n      mstore\n      0x04\n      add\n      tag_54\n      swap1\n      tag_55\n      jump\t// in\n    tag_54:\n      mload(0x40)\n      dup1\n      swap2\n      sub\n      swap1\n      revert\n    tag_53:\n        /* \"contracts/ticket.sol\":1722:1743  Ticket storage ticket */\n      0x00\n        /* \"contracts/ticket.sol\":1746:1753  tickets */\n      0x01\n        /* \"contracts/ticket.sol\":1746:1758  tickets[_id] */\n      0x00\n        /* \"contracts/ticket.sol\":1754:1757  _id */\n      dup9\n        /* \"contracts/ticket.sol\":1746:1758  tickets[_id] */\n      dup2\n      mstore\n      0x20\n      add\n      swap1\n      dup2\n      mstore\n      0x20\n      add\n      0x00\n      keccak256\n        /* \"contracts/ticket.sol\":1722:1758  Ticket storage ticket = tickets[_id] */\n      swap1\n      pop\n        /* \"contracts/ticket.sol\":1789:1795  ticket */\n      dup1\n        /* \"contracts/ticket.sol\":1789:1798  ticket.id */\n      0x00\n      add\n      sload\n        /* \"contracts/ticket.sol\":1812:1818  ticket */\n      dup2\n        /* \"contracts/ticket.sol\":1812:1825  ticket.seller */\n      0x01\n      add\n      0x00\n      swap1\n      sload\n      swap1\n      0x0100\n      exp\n      swap1\n      div\n      0xffffffffffffffffffffffffffffffffffffffff\n      and\n        /* \"contracts/ticket.sol\":1839:1845  ticket */\n      dup3\n        /* \"contracts/ticket.sol\":1839:1855  ticket.eventName */\n      0x02\n      add\n        /* \"contracts/ticket.sol\":1869:1875  ticket */\n      dup4\n        /* \"contracts/ticket.sol\":1869:1881  ticket.price */\n      0x03\n      add\n      sload\n        /* \"contracts/ticket.sol\":1895:1901  ticket */\n      dup5\n        /* \"contracts/ticket.sol\":1895:1911  ticket.available */\n      0x04\n      add\n      0x00\n      swap1\n      sload\n      swap1\n      0x0100\n      exp\n      swap1\n      div\n      0xff\n      and\n        /* \"contracts/ticket.sol\":1769:1921  return(... */\n      dup3\n      dup1\n      sload\n      tag_56\n      swap1\n      tag_46\n      jump\t// in\n    tag_56:\n      dup1\n      0x1f\n      add\n      0x20\n      dup1\n      swap2\n      div\n      mul\n      0x20\n      add\n      mload(0x40)\n      swap1\n      dup2\n      add\n      0x40\n      mstore\n      dup1\n      swap3\n      swap2\n      swap1\n      dup2\n      dup2\n      mstore\n      0x20\n      add\n      dup3\n      dup1\n      sload\n      tag_57\n      swap1\n      tag_46\n      jump\t// in\n    tag_57:\n      dup1\n      iszero\n      tag_58\n      jumpi\n      dup1\n      0x1f\n      lt\n      tag_59\n      jumpi\n      0x0100\n      dup1\n      dup4\n      sload\n      div\n      mul\n      dup4\n      mstore\n      swap2\n      0x20\n      add\n      swap2\n      jump(tag_58)\n    tag_59:\n      dup3\n      add\n      swap2\n      swap1\n      0x00\n      mstore\n      keccak256(0x00, 0x20)\n      swap1\n    tag_60:\n      dup2\n      sload\n      dup2\n      mstore\n      swap1\n      0x01\n      add\n      swap1\n      0x20\n      add\n      dup1\n      dup4\n      gt\n      tag_60\n      jumpi\n      dup3\n      swap1\n      sub\n      0x1f\n      and\n      dup3\n      add\n      swap2\n    tag_58:\n      pop\n      pop\n      pop\n      pop\n      pop\n      swap3\n      pop\n      swap6\n      pop\n      swap6\n      pop\n      swap6\n      pop\n      swap6\n      pop\n      swap6\n      pop\n      pop\n        /* \"contracts/ticket.sol\":1461:1928  function getTicket(uint256 _id) public view returns (... */\n      swap2\n      swap4\n      swap6\n      swap1\n      swap3\n      swap5\n      pop\n      jump\t// out\n        /* \"contracts/ticket.sol\":484:1011  function createTicket(string memory _eventName, uint256 _price) public {... */\n    tag_26:\n        /* \"contracts/ticket.sol\":600:601  0 */\n      0x00\n        /* \"contracts/ticket.sol\":579:589  _eventName */\n      dup3\n        /* \"contracts/ticket.sol\":573:597  bytes(_eventName).length */\n      mload\n        /* \"contracts/ticket.sol\":573:601  bytes(_eventName).length > 0 */\n      gt\n        /* \"contracts/ticket.sol\":565:633  require(bytes(_eventName).length > 0 , \"Event name cannot be empty\") */\n      tag_62\n      jumpi\n      mload(0x40)\n      0x08c379a000000000000000000000000000000000000000000000000000000000\n      dup2\n      mstore\n      0x04\n      add\n      tag_63\n      swap1\n      tag_64\n      jump\t// in\n    tag_63:\n      mload(0x40)\n      dup1\n      swap2\n      sub\n      swap1\n      revert\n    tag_62:\n        /* \"contracts/ticket.sol\":660:661  0 */\n      0x00\n        /* \"contracts/ticket.sol\":651:657  _price */\n      dup2\n        /* \"contracts/ticket.sol\":651:661  _price > 0 */\n      gt\n        /* \"contracts/ticket.sol\":643:704  require(_price > 0, \"Ticket price must be greater than zero\") */\n      tag_65\n      jumpi\n      mload(0x40)\n      0x08c379a000000000000000000000000000000000000000000000000000000000\n      dup2\n      mstore\n      0x04\n      add\n      tag_66\n      swap1\n      tag_67\n      jump\t// in\n    tag_66:\n      mload(0x40)\n      dup1\n      swap2\n      sub\n      swap1\n      revert\n    tag_65:\n        /* \"contracts/ticket.sol\":715:726  ticketCount */\n      0x00\n      dup1\n        /* \"contracts/ticket.sol\":715:729  ticketCount ++ */\n      dup2\n      sload\n      dup1\n      swap3\n      swap2\n      swap1\n      tag_68\n      swap1\n      tag_69\n      jump\t// in\n    tag_68:\n      swap2\n      swap1\n      pop\n      sstore\n      pop\n        /* \"contracts/ticket.sol\":763:930  Ticket({... */\n      mload(0x40)\n      dup1\n      0xa0\n      add\n      0x40\n      mstore\n      dup1\n        /* \"contracts/ticket.sol\":787:798  ticketCount */\n      sload(0x00)\n        /* \"contracts/ticket.sol\":763:930  Ticket({... */\n      dup2\n      mstore\n      0x20\n      add\n        /* \"contracts/ticket.sol\":819:829  msg.sender */\n      caller\n        /* \"contracts/ticket.sol\":763:930  Ticket({... */\n      0xffffffffffffffffffffffffffffffffffffffff\n      and\n      dup2\n      mstore\n      0x20\n      add\n        /* \"contracts/ticket.sol\":853:863  _eventName */\n      dup4\n        /* \"contracts/ticket.sol\":763:930  Ticket({... */\n      dup2\n      mstore\n      0x20\n      add\n        /* \"contracts/ticket.sol\":884:890  _price */\n      dup3\n        /* \"contracts/ticket.sol\":763:930  Ticket({... */\n      dup2\n      mstore\n      0x20\n      add\n        /* \"contracts/ticket.sol\":915:919  true */\n      0x01\n        /* \"contracts/ticket.sol\":763:930  Ticket({... */\n      iszero\n      iszero\n      dup2\n      mstore\n      pop\n        /* \"contracts/ticket.sol\":740:747  tickets */\n      0x01\n        /* \"contracts/ticket.sol\":740:760  tickets[ticketCount] */\n      0x00\n        /* \"contracts/ticket.sol\":748:759  ticketCount */\n      dup1\n      sload\n        /* \"contracts/ticket.sol\":740:760  tickets[ticketCount] */\n      dup2\n      mstore\n      0x20\n      add\n      swap1\n      dup2\n      mstore\n      0x20\n      add\n      0x00\n      keccak256\n        /* \"contracts/ticket.sol\":740:930  tickets[ticketCount] = Ticket({... */\n      0x00\n      dup3\n      add\n      mload\n      dup2\n      0x00\n      add\n      sstore\n      0x20\n      dup3\n      add\n      mload\n      dup2\n      0x01\n      add\n      exp(0x0100, 0x00)\n      dup2\n      sload\n      dup2\n      0xffffffffffffffffffffffffffffffffffffffff\n      mul\n      not\n      and\n      swap1\n      dup4\n      0xffffffffffffffffffffffffffffffffffffffff\n      and\n      mul\n      or\n      swap1\n      sstore\n      pop\n      0x40\n      dup3\n      add\n      mload\n      dup2\n      0x02\n      add\n      swap1\n      dup2\n      tag_70\n      swap2\n      swap1\n      tag_71\n      jump\t// in\n    tag_70:\n      pop\n      0x60\n      dup3\n      add\n      mload\n      dup2\n      0x03\n      add\n      sstore\n      0x80\n      dup3\n      add\n      mload\n      dup2\n      0x04\n      add\n      exp(0x0100, 0x00)\n      dup2\n      sload\n      dup2\n      0xff\n      mul\n      not\n      and\n      swap1\n      dup4\n      iszero\n      iszero\n      mul\n      or\n      swap1\n      sstore\n      pop\n      swap1\n      pop\n      pop\n        /* \"contracts/ticket.sol\":946:1004  TicketCreated(ticketCount, msg.sender, _eventName, _price) */\n      0x86ba2f4a4d754320055ff8c07aa554c74e8535895bc672fed416c8395fae0020\n        /* \"contracts/ticket.sol\":960:971  ticketCount */\n      sload(0x00)\n        /* \"contracts/ticket.sol\":973:983  msg.sender */\n      caller\n        /* \"contracts/ticket.sol\":985:995  _eventName */\n      dup5\n        /* \"contracts/ticket.sol\":997:1003  _price */\n      dup5\n        /* \"contracts/ticket.sol\":946:1004  TicketCreated(ticketCount, msg.sender, _eventName, _price) */\n      mload(0x40)\n      tag_72\n      swap5\n      swap4\n      swap3\n      swap2\n      swap1\n      tag_73\n      jump\t// in\n    tag_72:\n      mload(0x40)\n      dup1\n      swap2\n      sub\n      swap1\n      log1\n        /* \"contracts/ticket.sol\":484:1011  function createTicket(string memory _eventName, uint256 _price) public {... */\n      pop\n      pop\n      jump\t// out\n        /* \"contracts/ticket.sol\":231:257  uint256 public ticketCount */\n    tag_29:\n      sload(0x00)\n      dup2\n      jump\t// out\n        /* \"#utility.yul\":7:82   */\n    tag_74:\n        /* \"#utility.yul\":40:46   */\n      0x00\n        /* \"#utility.yul\":73:75   */\n      0x40\n        /* \"#utility.yul\":67:76   */\n      mload\n        /* \"#utility.yul\":57:76   */\n      swap1\n      pop\n        /* \"#utility.yul\":7:82   */\n      swap1\n      jump\t// out\n        /* \"#utility.yul\":88:205   */\n    tag_75:\n        /* \"#utility.yul\":197:198   */\n      0x00\n        /* \"#utility.yul\":194:195   */\n      dup1\n        /* \"#utility.yul\":187:199   */\n      revert\n        /* \"#utility.yul\":211:328   */\n    tag_76:\n        /* \"#utility.yul\":320:321   */\n      0x00\n        /* \"#utility.yul\":317:318   */\n      dup1\n        /* \"#utility.yul\":310:322   */\n      revert\n        /* \"#utility.yul\":334:411   */\n    tag_77:\n        /* \"#utility.yul\":371:378   */\n      0x00\n        /* \"#utility.yul\":400:405   */\n      dup2\n        /* \"#utility.yul\":389:405   */\n      swap1\n      pop\n        /* \"#utility.yul\":334:411   */\n      swap2\n      swap1\n      pop\n      jump\t// out\n        /* \"#utility.yul\":417:539   */\n    tag_78:\n        /* \"#utility.yul\":490:514   */\n      tag_136\n        /* \"#utility.yul\":508:513   */\n      dup2\n        /* \"#utility.yul\":490:514   */\n      tag_77\n      jump\t// in\n    tag_136:\n        /* \"#utility.yul\":483:488   */\n      dup2\n        /* \"#utility.yul\":480:515   */\n      eq\n        /* \"#utility.yul\":470:533   */\n      tag_137\n      jumpi\n        /* \"#utility.yul\":529:530   */\n      0x00\n        /* \"#utility.yul\":526:527   */\n      dup1\n        /* \"#utility.yul\":519:531   */\n      revert\n        /* \"#utility.yul\":470:533   */\n    tag_137:\n        /* \"#utility.yul\":417:539   */\n      pop\n      jump\t// out\n        /* \"#utility.yul\":545:684   */\n    tag_79:\n        /* \"#utility.yul\":591:596   */\n      0x00\n        /* \"#utility.yul\":629:635   */\n      dup2\n        /* \"#utility.yul\":616:636   */\n      calldataload\n        /* \"#utility.yul\":607:636   */\n      swap1\n      pop\n        /* \"#utility.yul\":645:678   */\n      tag_139\n        /* \"#utility.yul\":672:677   */\n      dup2\n        /* \"#utility.yul\":645:678   */\n      tag_78\n      jump\t// in\n    tag_139:\n        /* \"#utility.yul\":545:684   */\n      swap3\n      swap2\n      pop\n      pop\n      jump\t// out\n        /* \"#utility.yul\":690:1019   */\n    tag_9:\n        /* \"#utility.yul\":749:755   */\n      0x00\n        /* \"#utility.yul\":798:800   */\n      0x20\n        /* \"#utility.yul\":786:795   */\n      dup3\n        /* \"#utility.yul\":777:784   */\n      dup5\n        /* \"#utility.yul\":773:796   */\n      sub\n        /* \"#utility.yul\":769:801   */\n      slt\n        /* \"#utility.yul\":766:885   */\n      iszero\n      tag_141\n      jumpi\n        /* \"#utility.yul\":804:883   */\n      tag_142\n      tag_75\n      jump\t// in\n    tag_142:\n        /* \"#utility.yul\":766:885   */\n    tag_141:\n        /* \"#utility.yul\":924:925   */\n      0x00\n        /* \"#utility.yul\":949:1002   */\n      tag_143\n        /* \"#utility.yul\":994:1001   */\n      dup5\n        /* \"#utility.yul\":985:991   */\n      dup3\n        /* \"#utility.yul\":974:983   */\n      dup6\n        /* \"#utility.yul\":970:992   */\n      add\n        /* \"#utility.yul\":949:1002   */\n      tag_79\n      jump\t// in\n    tag_143:\n        /* \"#utility.yul\":939:1002   */\n      swap2\n      pop\n        /* \"#utility.yul\":895:1012   */\n      pop\n        /* \"#utility.yul\":690:1019   */\n      swap3\n      swap2\n      pop\n      pop\n      jump\t// out\n        /* \"#utility.yul\":1025:1143   */\n    tag_80:\n        /* \"#utility.yul\":1112:1136   */\n      tag_145\n        /* \"#utility.yul\":1130:1135   */\n      dup2\n        /* \"#utility.yul\":1112:1136   */\n      tag_77\n      jump\t// in\n    tag_145:\n        /* \"#utility.yul\":1107:1110   */\n      dup3\n        /* \"#utility.yul\":1100:1137   */\n      mstore\n        /* \"#utility.yul\":1025:1143   */\n      pop\n      pop\n      jump\t// out\n        /* \"#utility.yul\":1149:1275   */\n    tag_81:\n        /* \"#utility.yul\":1186:1193   */\n      0x00\n        /* \"#utility.yul\":1226:1268   */\n      0xffffffffffffffffffffffffffffffffffffffff\n        /* \"#utility.yul\":1219:1224   */\n      dup3\n        /* \"#utility.yul\":1215:1269   */\n      and\n        /* \"#utility.yul\":1204:1269   */\n      swap1\n      pop\n        /* \"#utility.yul\":1149:1275   */\n      swap2\n      swap1\n      pop\n      jump\t// out\n        /* \"#utility.yul\":1281:1377   */\n    tag_82:\n        /* \"#utility.yul\":1318:1325   */\n      0x00\n        /* \"#utility.yul\":1347:1371   */\n      tag_148\n        /* \"#utility.yul\":1365:1370   */\n      dup3\n        /* \"#utility.yul\":1347:1371   */\n      tag_81\n      jump\t// in\n    tag_148:\n        /* \"#utility.yul\":1336:1371   */\n      swap1\n      pop\n        /* \"#utility.yul\":1281:1377   */\n      swap2\n      swap1\n      pop\n      jump\t// out\n        /* \"#utility.yul\":1383:1501   */\n    tag_83:\n        /* \"#utility.yul\":1470:1494   */\n      tag_150\n        /* \"#utility.yul\":1488:1493   */\n      dup2\n        /* \"#utility.yul\":1470:1494   */\n      tag_82\n      jump\t// in\n    tag_150:\n        /* \"#utility.yul\":1465:1468   */\n      dup3\n        /* \"#utility.yul\":1458:1495   */\n      mstore\n        /* \"#utility.yul\":1383:1501   */\n      pop\n      pop\n      jump\t// out\n        /* \"#utility.yul\":1507:1606   */\n    tag_84:\n        /* \"#utility.yul\":1559:1565   */\n      0x00\n        /* \"#utility.yul\":1593:1598   */\n      dup2\n        /* \"#utility.yul\":1587:1599   */\n      mload\n        /* \"#utility.yul\":1577:1599   */\n      swap1\n      pop\n        /* \"#utility.yul\":1507:1606   */\n      swap2\n      swap1\n      pop\n      jump\t// out\n        /* \"#utility.yul\":1612:1781   */\n    tag_85:\n        /* \"#utility.yul\":1696:1707   */\n      0x00\n        /* \"#utility.yul\":1730:1736   */\n      dup3\n        /* \"#utility.yul\":1725:1728   */\n      dup3\n        /* \"#utility.yul\":1718:1737   */\n      mstore\n        /* \"#utility.yul\":1770:1774   */\n      0x20\n        /* \"#utility.yul\":1765:1768   */\n      dup3\n        /* \"#utility.yul\":1761:1775   */\n      add\n        /* \"#utility.yul\":1746:1775   */\n      swap1\n      pop\n        /* \"#utility.yul\":1612:1781   */\n      swap3\n      swap2\n      pop\n      pop\n      jump\t// out\n        /* \"#utility.yul\":1787:2033   */\n    tag_86:\n        /* \"#utility.yul\":1868:1869   */\n      0x00\n        /* \"#utility.yul\":1878:1991   */\n    tag_154:\n        /* \"#utility.yul\":1892:1898   */\n      dup4\n        /* \"#utility.yul\":1889:1890   */\n      dup2\n        /* \"#utility.yul\":1886:1899   */\n      lt\n        /* \"#utility.yul\":1878:1991   */\n      iszero\n      tag_156\n      jumpi\n        /* \"#utility.yul\":1977:1978   */\n      dup1\n        /* \"#utility.yul\":1972:1975   */\n      dup3\n        /* \"#utility.yul\":1968:1979   */\n      add\n        /* \"#utility.yul\":1962:1980   */\n      mload\n        /* \"#utility.yul\":1958:1959   */\n      dup2\n        /* \"#utility.yul\":1953:1956   */\n      dup5\n        /* \"#utility.yul\":1949:1960   */\n      add\n        /* \"#utility.yul\":1942:1981   */\n      mstore\n        /* \"#utility.yul\":1914:1916   */\n      0x20\n        /* \"#utility.yul\":1911:1912   */\n      dup2\n        /* \"#utility.yul\":1907:1917   */\n      add\n        /* \"#utility.yul\":1902:1917   */\n      swap1\n      pop\n        /* \"#utility.yul\":1878:1991   */\n      jump(tag_154)\n    tag_156:\n        /* \"#utility.yul\":2025:2026   */\n      0x00\n        /* \"#utility.yul\":2016:2022   */\n      dup5\n        /* \"#utility.yul\":2011:2014   */\n      dup5\n        /* \"#utility.yul\":2007:2023   */\n      add\n        /* \"#utility.yul\":2000:2027   */\n      mstore\n        /* \"#utility.yul\":1849:2033   */\n      pop\n        /* \"#utility.yul\":1787:2033   */\n      pop\n      pop\n      pop\n      jump\t// out\n        /* \"#utility.yul\":2039:2141   */\n    tag_87:\n        /* \"#utility.yul\":2080:2086   */\n      0x00\n        /* \"#utility.yul\":2131:2133   */\n      0x1f\n        /* \"#utility.yul\":2127:2134   */\n      not\n        /* \"#utility.yul\":2122:2124   */\n      0x1f\n        /* \"#utility.yul\":2115:2120   */\n      dup4\n        /* \"#utility.yul\":2111:2125   */\n      add\n        /* \"#utility.yul\":2107:2135   */\n      and\n        /* \"#utility.yul\":2097:2135   */\n      swap1\n      pop\n        /* \"#utility.yul\":2039:2141   */\n      swap2\n      swap1\n      pop\n      jump\t// out\n        /* \"#utility.yul\":2147:2524   */\n    tag_88:\n        /* \"#utility.yul\":2235:2238   */\n      0x00\n        /* \"#utility.yul\":2263:2302   */\n      tag_159\n        /* \"#utility.yul\":2296:2301   */\n      dup3\n        /* \"#utility.yul\":2263:2302   */\n      tag_84\n      jump\t// in\n    tag_159:\n        /* \"#utility.yul\":2318:2389   */\n      tag_160\n        /* \"#utility.yul\":2382:2388   */\n      dup2\n        /* \"#utility.yul\":2377:2380   */\n      dup6\n        /* \"#utility.yul\":2318:2389   */\n      tag_85\n      jump\t// in\n    tag_160:\n        /* \"#utility.yul\":2311:2389   */\n      swap4\n      pop\n        /* \"#utility.yul\":2398:2463   */\n      tag_161\n        /* \"#utility.yul\":2456:2462   */\n      dup2\n        /* \"#utility.yul\":2451:2454   */\n      dup6\n        /* \"#utility.yul\":2444:2448   */\n      0x20\n        /* \"#utility.yul\":2437:2442   */\n      dup7\n        /* \"#utility.yul\":2433:2449   */\n      add\n        /* \"#utility.yul\":2398:2463   */\n      tag_86\n      jump\t// in\n    tag_161:\n        /* \"#utility.yul\":2488:2517   */\n      tag_162\n        /* \"#utility.yul\":2510:2516   */\n      dup2\n        /* \"#utility.yul\":2488:2517   */\n      tag_87\n      jump\t// in\n    tag_162:\n        /* \"#utility.yul\":2483:2486   */\n      dup5\n        /* \"#utility.yul\":2479:2518   */\n      add\n        /* \"#utility.yul\":2472:2518   */\n      swap2\n      pop\n        /* \"#utility.yul\":2239:2524   */\n      pop\n        /* \"#utility.yul\":2147:2524   */\n      swap3\n      swap2\n      pop\n      pop\n      jump\t// out\n        /* \"#utility.yul\":2530:2620   */\n    tag_89:\n        /* \"#utility.yul\":2564:2571   */\n      0x00\n        /* \"#utility.yul\":2607:2612   */\n      dup2\n        /* \"#utility.yul\":2600:2613   */\n      iszero\n        /* \"#utility.yul\":2593:2614   */\n      iszero\n        /* \"#utility.yul\":2582:2614   */\n      swap1\n      pop\n        /* \"#utility.yul\":2530:2620   */\n      swap2\n      swap1\n      pop\n      jump\t// out\n        /* \"#utility.yul\":2626:2735   */\n    tag_90:\n        /* \"#utility.yul\":2707:2728   */\n      tag_165\n        /* \"#utility.yul\":2722:2727   */\n      dup2\n        /* \"#utility.yul\":2707:2728   */\n      tag_89\n      jump\t// in\n    tag_165:\n        /* \"#utility.yul\":2702:2705   */\n      dup3\n        /* \"#utility.yul\":2695:2729   */\n      mstore\n        /* \"#utility.yul\":2626:2735   */\n      pop\n      pop\n      jump\t// out\n        /* \"#utility.yul\":2741:3484   */\n    tag_16:\n        /* \"#utility.yul\":2960:2964   */\n      0x00\n        /* \"#utility.yul\":2998:3001   */\n      0xa0\n        /* \"#utility.yul\":2987:2996   */\n      dup3\n        /* \"#utility.yul\":2983:3002   */\n      add\n        /* \"#utility.yul\":2975:3002   */\n      swap1\n      pop\n        /* \"#utility.yul\":3012:3083   */\n      tag_167\n        /* \"#utility.yul\":3080:3081   */\n      0x00\n        /* \"#utility.yul\":3069:3078   */\n      dup4\n        /* \"#utility.yul\":3065:3082   */\n      add\n        /* \"#utility.yul\":3056:3062   */\n      dup9\n        /* \"#utility.yul\":3012:3083   */\n      tag_80\n      jump\t// in\n    tag_167:\n        /* \"#utility.yul\":3093:3165   */\n      tag_168\n        /* \"#utility.yul\":3161:3163   */\n      0x20\n        /* \"#utility.yul\":3150:3159   */\n      dup4\n        /* \"#utility.yul\":3146:3164   */\n      add\n        /* \"#utility.yul\":3137:3143   */\n      dup8\n        /* \"#utility.yul\":3093:3165   */\n      tag_83\n      jump\t// in\n    tag_168:\n        /* \"#utility.yul\":3212:3221   */\n      dup2\n        /* \"#utility.yul\":3206:3210   */\n      dup2\n        /* \"#utility.yul\":3202:3222   */\n      sub\n        /* \"#utility.yul\":3197:3199   */\n      0x40\n        /* \"#utility.yul\":3186:3195   */\n      dup4\n        /* \"#utility.yul\":3182:3200   */\n      add\n        /* \"#utility.yul\":3175:3223   */\n      mstore\n        /* \"#utility.yul\":3240:3318   */\n      tag_169\n        /* \"#utility.yul\":3313:3317   */\n      dup2\n        /* \"#utility.yul\":3304:3310   */\n      dup7\n        /* \"#utility.yul\":3240:3318   */\n      tag_88\n      jump\t// in\n    tag_169:\n        /* \"#utility.yul\":3232:3318   */\n      swap1\n      pop\n        /* \"#utility.yul\":3328:3400   */\n      tag_170\n        /* \"#utility.yul\":3396:3398   */\n      0x60\n        /* \"#utility.yul\":3385:3394   */\n      dup4\n        /* \"#utility.yul\":3381:3399   */\n      add\n        /* \"#utility.yul\":3372:3378   */\n      dup6\n        /* \"#utility.yul\":3328:3400   */\n      tag_80\n      jump\t// in\n    tag_170:\n        /* \"#utility.yul\":3410:3477   */\n      tag_171\n        /* \"#utility.yul\":3472:3475   */\n      0x80\n        /* \"#utility.yul\":3461:3470   */\n      dup4\n        /* \"#utility.yul\":3457:3476   */\n      add\n        /* \"#utility.yul\":3448:3454   */\n      dup5\n        /* \"#utility.yul\":3410:3477   */\n      tag_90\n      jump\t// in\n    tag_171:\n        /* \"#utility.yul\":2741:3484   */\n      swap7\n      swap6\n      pop\n      pop\n      pop\n      pop\n      pop\n      pop\n      jump\t// out\n        /* \"#utility.yul\":3490:3607   */\n    tag_91:\n        /* \"#utility.yul\":3599:3600   */\n      0x00\n        /* \"#utility.yul\":3596:3597   */\n      dup1\n        /* \"#utility.yul\":3589:3601   */\n      revert\n        /* \"#utility.yul\":3613:3730   */\n    tag_92:\n        /* \"#utility.yul\":3722:3723   */\n      0x00\n        /* \"#utility.yul\":3719:3720   */\n      dup1\n        /* \"#utility.yul\":3712:3724   */\n      revert\n        /* \"#utility.yul\":3736:3916   */\n    tag_93:\n        /* \"#utility.yul\":3784:3861   */\n      0x4e487b7100000000000000000000000000000000000000000000000000000000\n        /* \"#utility.yul\":3781:3782   */\n      0x00\n        /* \"#utility.yul\":3774:3862   */\n      mstore\n        /* \"#utility.yul\":3881:3885   */\n      0x41\n        /* \"#utility.yul\":3878:3879   */\n      0x04\n        /* \"#utility.yul\":3871:3886   */\n      mstore\n        /* \"#utility.yul\":3905:3909   */\n      0x24\n        /* \"#utility.yul\":3902:3903   */\n      0x00\n        /* \"#utility.yul\":3895:3910   */\n      revert\n        /* \"#utility.yul\":3922:4203   */\n    tag_94:\n        /* \"#utility.yul\":4005:4032   */\n      tag_176\n        /* \"#utility.yul\":4027:4031   */\n      dup3\n        /* \"#utility.yul\":4005:4032   */\n      tag_87\n      jump\t// in\n    tag_176:\n        /* \"#utility.yul\":3997:4003   */\n      dup2\n        /* \"#utility.yul\":3993:4033   */\n      add\n        /* \"#utility.yul\":4135:4141   */\n      dup2\n        /* \"#utility.yul\":4123:4133   */\n      dup2\n        /* \"#utility.yul\":4120:4142   */\n      lt\n        /* \"#utility.yul\":4099:4117   */\n      0xffffffffffffffff\n        /* \"#utility.yul\":4087:4097   */\n      dup3\n        /* \"#utility.yul\":4084:4118   */\n      gt\n        /* \"#utility.yul\":4081:4143   */\n      or\n        /* \"#utility.yul\":4078:4166   */\n      iszero\n      tag_177\n      jumpi\n        /* \"#utility.yul\":4146:4164   */\n      tag_178\n      tag_93\n      jump\t// in\n    tag_178:\n        /* \"#utility.yul\":4078:4166   */\n    tag_177:\n        /* \"#utility.yul\":4186:4196   */\n      dup1\n        /* \"#utility.yul\":4182:4184   */\n      0x40\n        /* \"#utility.yul\":4175:4197   */\n      mstore\n        /* \"#utility.yul\":3965:4203   */\n      pop\n        /* \"#utility.yul\":3922:4203   */\n      pop\n      pop\n      jump\t// out\n        /* \"#utility.yul\":4209:4338   */\n    tag_95:\n        /* \"#utility.yul\":4243:4249   */\n      0x00\n        /* \"#utility.yul\":4270:4290   */\n      tag_180\n      tag_74\n      jump\t// in\n    tag_180:\n        /* \"#utility.yul\":4260:4290   */\n      swap1\n      pop\n        /* \"#utility.yul\":4299:4332   */\n      tag_181\n        /* \"#utility.yul\":4327:4331   */\n      dup3\n        /* \"#utility.yul\":4319:4325   */\n      dup3\n        /* \"#utility.yul\":4299:4332   */\n      tag_94\n      jump\t// in\n    tag_181:\n        /* \"#utility.yul\":4209:4338   */\n      swap2\n      swap1\n      pop\n      jump\t// out\n        /* \"#utility.yul\":4344:4652   */\n    tag_96:\n        /* \"#utility.yul\":4406:4410   */\n      0x00\n        /* \"#utility.yul\":4496:4514   */\n      0xffffffffffffffff\n        /* \"#utility.yul\":4488:4494   */\n      dup3\n        /* \"#utility.yul\":4485:4515   */\n      gt\n        /* \"#utility.yul\":4482:4538   */\n      iszero\n      tag_183\n      jumpi\n        /* \"#utility.yul\":4518:4536   */\n      tag_184\n      tag_93\n      jump\t// in\n    tag_184:\n        /* \"#utility.yul\":4482:4538   */\n    tag_183:\n        /* \"#utility.yul\":4556:4585   */\n      tag_185\n        /* \"#utility.yul\":4578:4584   */\n      dup3\n        /* \"#utility.yul\":4556:4585   */\n      tag_87\n      jump\t// in\n    tag_185:\n        /* \"#utility.yul\":4548:4585   */\n      swap1\n      pop\n        /* \"#utility.yul\":4640:4644   */\n      0x20\n        /* \"#utility.yul\":4634:4638   */\n      dup2\n        /* \"#utility.yul\":4630:4645   */\n      add\n        /* \"#utility.yul\":4622:4645   */\n      swap1\n      pop\n        /* \"#utility.yul\":4344:4652   */\n      swap2\n      swap1\n      pop\n      jump\t// out\n        /* \"#utility.yul\":4658:4804   */\n    tag_97:\n        /* \"#utility.yul\":4755:4761   */\n      dup3\n        /* \"#utility.yul\":4750:4753   */\n      dup2\n        /* \"#utility.yul\":4745:4748   */\n      dup4\n        /* \"#utility.yul\":4732:4762   */\n      calldatacopy\n        /* \"#utility.yul\":4796:4797   */\n      0x00\n        /* \"#utility.yul\":4787:4793   */\n      dup4\n        /* \"#utility.yul\":4782:4785   */\n      dup4\n        /* \"#utility.yul\":4778:4794   */\n      add\n        /* \"#utility.yul\":4771:4798   */\n      mstore\n        /* \"#utility.yul\":4658:4804   */\n      pop\n      pop\n      pop\n      jump\t// out\n        /* \"#utility.yul\":4810:5235   */\n    tag_98:\n        /* \"#utility.yul\":4888:4893   */\n      0x00\n        /* \"#utility.yul\":4913:4979   */\n      tag_188\n        /* \"#utility.yul\":4929:4978   */\n      tag_189\n        /* \"#utility.yul\":4971:4977   */\n      dup5\n        /* \"#utility.yul\":4929:4978   */\n      tag_96\n      jump\t// in\n    tag_189:\n        /* \"#utility.yul\":4913:4979   */\n      tag_95\n      jump\t// in\n    tag_188:\n        /* \"#utility.yul\":4904:4979   */\n      swap1\n      pop\n        /* \"#utility.yul\":5002:5008   */\n      dup3\n        /* \"#utility.yul\":4995:5000   */\n      dup2\n        /* \"#utility.yul\":4988:5009   */\n      mstore\n        /* \"#utility.yul\":5040:5044   */\n      0x20\n        /* \"#utility.yul\":5033:5038   */\n      dup2\n        /* \"#utility.yul\":5029:5045   */\n      add\n        /* \"#utility.yul\":5078:5081   */\n      dup5\n        /* \"#utility.yul\":5069:5075   */\n      dup5\n        /* \"#utility.yul\":5064:5067   */\n      dup5\n        /* \"#utility.yul\":5060:5076   */\n      add\n        /* \"#utility.yul\":5057:5082   */\n      gt\n        /* \"#utility.yul\":5054:5166   */\n      iszero\n      tag_190\n      jumpi\n        /* \"#utility.yul\":5085:5164   */\n      tag_191\n      tag_92\n      jump\t// in\n    tag_191:\n        /* \"#utility.yul\":5054:5166   */\n    tag_190:\n        /* \"#utility.yul\":5175:5229   */\n      tag_192\n        /* \"#utility.yul\":5222:5228   */\n      dup5\n        /* \"#utility.yul\":5217:5220   */\n      dup3\n        /* \"#utility.yul\":5212:5215   */\n      dup6\n        /* \"#utility.yul\":5175:5229   */\n      tag_97\n      jump\t// in\n    tag_192:\n        /* \"#utility.yul\":4894:5235   */\n      pop\n        /* \"#utility.yul\":4810:5235   */\n      swap4\n      swap3\n      pop\n      pop\n      pop\n      jump\t// out\n        /* \"#utility.yul\":5255:5595   */\n    tag_99:\n        /* \"#utility.yul\":5311:5316   */\n      0x00\n        /* \"#utility.yul\":5360:5363   */\n      dup3\n        /* \"#utility.yul\":5353:5357   */\n      0x1f\n        /* \"#utility.yul\":5345:5351   */\n      dup4\n        /* \"#utility.yul\":5341:5358   */\n      add\n        /* \"#utility.yul\":5337:5364   */\n      slt\n        /* \"#utility.yul\":5327:5449   */\n      tag_194\n      jumpi\n        /* \"#utility.yul\":5368:5447   */\n      tag_195\n      tag_91\n      jump\t// in\n    tag_195:\n        /* \"#utility.yul\":5327:5449   */\n    tag_194:\n        /* \"#utility.yul\":5485:5491   */\n      dup2\n        /* \"#utility.yul\":5472:5492   */\n      calldataload\n        /* \"#utility.yul\":5510:5589   */\n      tag_196\n        /* \"#utility.yul\":5585:5588   */\n      dup5\n        /* \"#utility.yul\":5577:5583   */\n      dup3\n        /* \"#utility.yul\":5570:5574   */\n      0x20\n        /* \"#utility.yul\":5562:5568   */\n      dup7\n        /* \"#utility.yul\":5558:5575   */\n      add\n        /* \"#utility.yul\":5510:5589   */\n      tag_98\n      jump\t// in\n    tag_196:\n        /* \"#utility.yul\":5501:5589   */\n      swap2\n      pop\n        /* \"#utility.yul\":5317:5595   */\n      pop\n        /* \"#utility.yul\":5255:5595   */\n      swap3\n      swap2\n      pop\n      pop\n      jump\t// out\n        /* \"#utility.yul\":5601:6255   */\n    tag_25:\n        /* \"#utility.yul\":5679:5685   */\n      0x00\n        /* \"#utility.yul\":5687:5693   */\n      dup1\n        /* \"#utility.yul\":5736:5738   */\n      0x40\n        /* \"#utility.yul\":5724:5733   */\n      dup4\n        /* \"#utility.yul\":5715:5722   */\n      dup6\n        /* \"#utility.yul\":5711:5734   */\n      sub\n        /* \"#utility.yul\":5707:5739   */\n      slt\n        /* \"#utility.yul\":5704:5823   */\n      iszero\n      tag_198\n      jumpi\n        /* \"#utility.yul\":5742:5821   */\n      tag_199\n      tag_75\n      jump\t// in\n    tag_199:\n        /* \"#utility.yul\":5704:5823   */\n    tag_198:\n        /* \"#utility.yul\":5890:5891   */\n      0x00\n        /* \"#utility.yul\":5879:5888   */\n      dup4\n        /* \"#utility.yul\":5875:5892   */\n      add\n        /* \"#utility.yul\":5862:5893   */\n      calldataload\n        /* \"#utility.yul\":5920:5938   */\n      0xffffffffffffffff\n        /* \"#utility.yul\":5912:5918   */\n      dup2\n        /* \"#utility.yul\":5909:5939   */\n      gt\n        /* \"#utility.yul\":5906:6023   */\n      iszero\n      tag_200\n      jumpi\n        /* \"#utility.yul\":5942:6021   */\n      tag_201\n      tag_76\n      jump\t// in\n    tag_201:\n        /* \"#utility.yul\":5906:6023   */\n    tag_200:\n        /* \"#utility.yul\":6047:6110   */\n      tag_202\n        /* \"#utility.yul\":6102:6109   */\n      dup6\n        /* \"#utility.yul\":6093:6099   */\n      dup3\n        /* \"#utility.yul\":6082:6091   */\n      dup7\n        /* \"#utility.yul\":6078:6100   */\n      add\n        /* \"#utility.yul\":6047:6110   */\n      tag_99\n      jump\t// in\n    tag_202:\n        /* \"#utility.yul\":6037:6110   */\n      swap3\n      pop\n        /* \"#utility.yul\":5833:6120   */\n      pop\n        /* \"#utility.yul\":6159:6161   */\n      0x20\n        /* \"#utility.yul\":6185:6238   */\n      tag_203\n        /* \"#utility.yul\":6230:6237   */\n      dup6\n        /* \"#utility.yul\":6221:6227   */\n      dup3\n        /* \"#utility.yul\":6210:6219   */\n      dup7\n        /* \"#utility.yul\":6206:6228   */\n      add\n        /* \"#utility.yul\":6185:6238   */\n      tag_79\n      jump\t// in\n    tag_203:\n        /* \"#utility.yul\":6175:6238   */\n      swap2\n      pop\n        /* \"#utility.yul\":6130:6248   */\n      pop\n        /* \"#utility.yul\":5601:6255   */\n      swap3\n      pop\n      swap3\n      swap1\n      pop\n      jump\t// out\n        /* \"#utility.yul\":6261:6483   */\n    tag_31:\n        /* \"#utility.yul\":6354:6358   */\n      0x00\n        /* \"#utility.yul\":6392:6394   */\n      0x20\n        /* \"#utility.yul\":6381:6390   */\n      dup3\n        /* \"#utility.yul\":6377:6395   */\n      add\n        /* \"#utility.yul\":6369:6395   */\n      swap1\n      pop\n        /* \"#utility.yul\":6405:6476   */\n      tag_205\n        /* \"#utility.yul\":6473:6474   */\n      0x00\n        /* \"#utility.yul\":6462:6471   */\n      dup4\n        /* \"#utility.yul\":6458:6475   */\n      add\n        /* \"#utility.yul\":6449:6455   */\n      dup5\n        /* \"#utility.yul\":6405:6476   */\n      tag_80\n      jump\t// in\n    tag_205:\n        /* \"#utility.yul\":6261:6483   */\n      swap3\n      swap2\n      pop\n      pop\n      jump\t// out\n        /* \"#utility.yul\":6489:6656   */\n    tag_100:\n        /* \"#utility.yul\":6629:6648   */\n      0x496e76616c6964207469636b6574204944000000000000000000000000000000\n        /* \"#utility.yul\":6625:6626   */\n      0x00\n        /* \"#utility.yul\":6617:6623   */\n      dup3\n        /* \"#utility.yul\":6613:6627   */\n      add\n        /* \"#utility.yul\":6606:6649   */\n      mstore\n        /* \"#utility.yul\":6489:6656   */\n      pop\n      jump\t// out\n        /* \"#utility.yul\":6662:7028   */\n    tag_101:\n        /* \"#utility.yul\":6804:6807   */\n      0x00\n        /* \"#utility.yul\":6825:6892   */\n      tag_208\n        /* \"#utility.yul\":6889:6891   */\n      0x11\n        /* \"#utility.yul\":6884:6887   */\n      dup4\n        /* \"#utility.yul\":6825:6892   */\n      tag_85\n      jump\t// in\n    tag_208:\n        /* \"#utility.yul\":6818:6892   */\n      swap2\n      pop\n        /* \"#utility.yul\":6901:6994   */\n      tag_209\n        /* \"#utility.yul\":6990:6993   */\n      dup3\n        /* \"#utility.yul\":6901:6994   */\n      tag_100\n      jump\t// in\n    tag_209:\n        /* \"#utility.yul\":7019:7021   */\n      0x20\n        /* \"#utility.yul\":7014:7017   */\n      dup3\n        /* \"#utility.yul\":7010:7022   */\n      add\n        /* \"#utility.yul\":7003:7022   */\n      swap1\n      pop\n        /* \"#utility.yul\":6662:7028   */\n      swap2\n      swap1\n      pop\n      jump\t// out\n        /* \"#utility.yul\":7034:7453   */\n    tag_36:\n        /* \"#utility.yul\":7200:7204   */\n      0x00\n        /* \"#utility.yul\":7238:7240   */\n      0x20\n        /* \"#utility.yul\":7227:7236   */\n      dup3\n        /* \"#utility.yul\":7223:7241   */\n      add\n        /* \"#utility.yul\":7215:7241   */\n      swap1\n      pop\n        /* \"#utility.yul\":7287:7296   */\n      dup2\n        /* \"#utility.yul\":7281:7285   */\n      dup2\n        /* \"#utility.yul\":7277:7297   */\n      sub\n        /* \"#utility.yul\":7273:7274   */\n      0x00\n        /* \"#utility.yul\":7262:7271   */\n      dup4\n        /* \"#utility.yul\":7258:7275   */\n      add\n        /* \"#utility.yul\":7251:7298   */\n      mstore\n        /* \"#utility.yul\":7315:7446   */\n      tag_211\n        /* \"#utility.yul\":7441:7445   */\n      dup2\n        /* \"#utility.yul\":7315:7446   */\n      tag_101\n      jump\t// in\n    tag_211:\n        /* \"#utility.yul\":7307:7446   */\n      swap1\n      pop\n        /* \"#utility.yul\":7034:7453   */\n      swap2\n      swap1\n      pop\n      jump\t// out\n        /* \"#utility.yul\":7459:7629   */\n    tag_102:\n        /* \"#utility.yul\":7599:7621   */\n      0x5469636b6574206e6f7420617661696c61626c65000000000000000000000000\n        /* \"#utility.yul\":7595:7596   */\n      0x00\n        /* \"#utility.yul\":7587:7593   */\n      dup3\n        /* \"#utility.yul\":7583:7597   */\n      add\n        /* \"#utility.yul\":7576:7622   */\n      mstore\n        /* \"#utility.yul\":7459:7629   */\n      pop\n      jump\t// out\n        /* \"#utility.yul\":7635:8001   */\n    tag_103:\n        /* \"#utility.yul\":7777:7780   */\n      0x00\n        /* \"#utility.yul\":7798:7865   */\n      tag_214\n        /* \"#utility.yul\":7862:7864   */\n      0x14\n        /* \"#utility.yul\":7857:7860   */\n      dup4\n        /* \"#utility.yul\":7798:7865   */\n      tag_85\n      jump\t// in\n    tag_214:\n        /* \"#utility.yul\":7791:7865   */\n      swap2\n      pop\n        /* \"#utility.yul\":7874:7967   */\n      tag_215\n        /* \"#utility.yul\":7963:7966   */\n      dup3\n        /* \"#utility.yul\":7874:7967   */\n      tag_102\n      jump\t// in\n    tag_215:\n        /* \"#utility.yul\":7992:7994   */\n      0x20\n        /* \"#utility.yul\":7987:7990   */\n      dup3\n        /* \"#utility.yul\":7983:7995   */\n      add\n        /* \"#utility.yul\":7976:7995   */\n      swap1\n      pop\n        /* \"#utility.yul\":7635:8001   */\n      swap2\n      swap1\n      pop\n      jump\t// out\n        /* \"#utility.yul\":8007:8426   */\n    tag_39:\n        /* \"#utility.yul\":8173:8177   */\n      0x00\n        /* \"#utility.yul\":8211:8213   */\n      0x20\n        /* \"#utility.yul\":8200:8209   */\n      dup3\n        /* \"#utility.yul\":8196:8214   */\n      add\n        /* \"#utility.yul\":8188:8214   */\n      swap1\n      pop\n        /* \"#utility.yul\":8260:8269   */\n      dup2\n        /* \"#utility.yul\":8254:8258   */\n      dup2\n        /* \"#utility.yul\":8250:8270   */\n      sub\n        /* \"#utility.yul\":8246:8247   */\n      0x00\n        /* \"#utility.yul\":8235:8244   */\n      dup4\n        /* \"#utility.yul\":8231:8248   */\n      add\n        /* \"#utility.yul\":8224:8271   */\n      mstore\n        /* \"#utility.yul\":8288:8419   */\n      tag_217\n        /* \"#utility.yul\":8414:8418   */\n      dup2\n        /* \"#utility.yul\":8288:8419   */\n      tag_103\n      jump\t// in\n    tag_217:\n        /* \"#utility.yul\":8280:8419   */\n      swap1\n      pop\n        /* \"#utility.yul\":8007:8426   */\n      swap2\n      swap1\n      pop\n      jump\t// out\n        /* \"#utility.yul\":8432:8659   */\n    tag_104:\n        /* \"#utility.yul\":8572:8606   */\n      0x4e6f7420612076616c696420616d6f756e7420666f7220627579696e67207468\n        /* \"#utility.yul\":8568:8569   */\n      0x00\n        /* \"#utility.yul\":8560:8566   */\n      dup3\n        /* \"#utility.yul\":8556:8570   */\n      add\n        /* \"#utility.yul\":8549:8607   */\n      mstore\n        /* \"#utility.yul\":8641:8651   */\n      0x65207469636b6574000000000000000000000000000000000000000000000000\n        /* \"#utility.yul\":8636:8638   */\n      0x20\n        /* \"#utility.yul\":8628:8634   */\n      dup3\n        /* \"#utility.yul\":8624:8639   */\n      add\n        /* \"#utility.yul\":8617:8652   */\n      mstore\n        /* \"#utility.yul\":8432:8659   */\n      pop\n      jump\t// out\n        /* \"#utility.yul\":8665:9031   */\n    tag_105:\n        /* \"#utility.yul\":8807:8810   */\n      0x00\n        /* \"#utility.yul\":8828:8895   */\n      tag_220\n        /* \"#utility.yul\":8892:8894   */\n      0x28\n        /* \"#utility.yul\":8887:8890   */\n      dup4\n        /* \"#utility.yul\":8828:8895   */\n      tag_85\n      jump\t// in\n    tag_220:\n        /* \"#utility.yul\":8821:8895   */\n      swap2\n      pop\n        /* \"#utility.yul\":8904:8997   */\n      tag_221\n        /* \"#utility.yul\":8993:8996   */\n      dup3\n        /* \"#utility.yul\":8904:8997   */\n      tag_104\n      jump\t// in\n    tag_221:\n        /* \"#utility.yul\":9022:9024   */\n      0x40\n        /* \"#utility.yul\":9017:9020   */\n      dup3\n        /* \"#utility.yul\":9013:9025   */\n      add\n        /* \"#utility.yul\":9006:9025   */\n      swap1\n      pop\n        /* \"#utility.yul\":8665:9031   */\n      swap2\n      swap1\n      pop\n      jump\t// out\n        /* \"#utility.yul\":9037:9456   */\n    tag_42:\n        /* \"#utility.yul\":9203:9207   */\n      0x00\n        /* \"#utility.yul\":9241:9243   */\n      0x20\n        /* \"#utility.yul\":9230:9239   */\n      dup3\n        /* \"#utility.yul\":9226:9244   */\n      add\n        /* \"#utility.yul\":9218:9244   */\n      swap1\n      pop\n        /* \"#utility.yul\":9290:9299   */\n      dup2\n        /* \"#utility.yul\":9284:9288   */\n      dup2\n        /* \"#utility.yul\":9280:9300   */\n      sub\n        /* \"#utility.yul\":9276:9277   */\n      0x00\n        /* \"#utility.yul\":9265:9274   */\n      dup4\n        /* \"#utility.yul\":9261:9278   */\n      add\n        /* \"#utility.yul\":9254:9301   */\n      mstore\n        /* \"#utility.yul\":9318:9449   */\n      tag_223\n        /* \"#utility.yul\":9444:9448   */\n      dup2\n        /* \"#utility.yul\":9318:9449   */\n      tag_105\n      jump\t// in\n    tag_223:\n        /* \"#utility.yul\":9310:9449   */\n      swap1\n      pop\n        /* \"#utility.yul\":9037:9456   */\n      swap2\n      swap1\n      pop\n      jump\t// out\n        /* \"#utility.yul\":9462:9642   */\n    tag_106:\n        /* \"#utility.yul\":9510:9587   */\n      0x4e487b7100000000000000000000000000000000000000000000000000000000\n        /* \"#utility.yul\":9507:9508   */\n      0x00\n        /* \"#utility.yul\":9500:9588   */\n      mstore\n        /* \"#utility.yul\":9607:9611   */\n      0x22\n        /* \"#utility.yul\":9604:9605   */\n      0x04\n        /* \"#utility.yul\":9597:9612   */\n      mstore\n        /* \"#utility.yul\":9631:9635   */\n      0x24\n        /* \"#utility.yul\":9628:9629   */\n      0x00\n        /* \"#utility.yul\":9621:9636   */\n      revert\n        /* \"#utility.yul\":9648:9968   */\n    tag_46:\n        /* \"#utility.yul\":9692:9698   */\n      0x00\n        /* \"#utility.yul\":9729:9730   */\n      0x02\n        /* \"#utility.yul\":9723:9727   */\n      dup3\n        /* \"#utility.yul\":9719:9731   */\n      div\n        /* \"#utility.yul\":9709:9731   */\n      swap1\n      pop\n        /* \"#utility.yul\":9776:9777   */\n      0x01\n        /* \"#utility.yul\":9770:9774   */\n      dup3\n        /* \"#utility.yul\":9766:9778   */\n      and\n        /* \"#utility.yul\":9797:9815   */\n      dup1\n        /* \"#utility.yul\":9787:9868   */\n      tag_226\n      jumpi\n        /* \"#utility.yul\":9853:9857   */\n      0x7f\n        /* \"#utility.yul\":9845:9851   */\n      dup3\n        /* \"#utility.yul\":9841:9858   */\n      and\n        /* \"#utility.yul\":9831:9858   */\n      swap2\n      pop\n        /* \"#utility.yul\":9787:9868   */\n    tag_226:\n        /* \"#utility.yul\":9915:9917   */\n      0x20\n        /* \"#utility.yul\":9907:9913   */\n      dup3\n        /* \"#utility.yul\":9904:9918   */\n      lt\n        /* \"#utility.yul\":9884:9902   */\n      dup2\n        /* \"#utility.yul\":9881:9919   */\n      sub\n        /* \"#utility.yul\":9878:9962   */\n      tag_227\n      jumpi\n        /* \"#utility.yul\":9934:9952   */\n      tag_228\n      tag_106\n      jump\t// in\n    tag_228:\n        /* \"#utility.yul\":9878:9962   */\n    tag_227:\n        /* \"#utility.yul\":9699:9968   */\n      pop\n        /* \"#utility.yul\":9648:9968   */\n      swap2\n      swap1\n      pop\n      jump\t// out\n        /* \"#utility.yul\":9974:10115   */\n    tag_107:\n        /* \"#utility.yul\":10023:10027   */\n      0x00\n        /* \"#utility.yul\":10046:10049   */\n      dup2\n        /* \"#utility.yul\":10038:10049   */\n      swap1\n      pop\n        /* \"#utility.yul\":10069:10072   */\n      dup2\n        /* \"#utility.yul\":10066:10067   */\n      0x00\n        /* \"#utility.yul\":10059:10073   */\n      mstore\n        /* \"#utility.yul\":10103:10107   */\n      0x20\n        /* \"#utility.yul\":10100:10101   */\n      0x00\n        /* \"#utility.yul\":10090:10108   */\n      keccak256\n        /* \"#utility.yul\":10082:10108   */\n      swap1\n      pop\n        /* \"#utility.yul\":9974:10115   */\n      swap2\n      swap1\n      pop\n      jump\t// out\n        /* \"#utility.yul\":10145:10976   */\n    tag_108:\n        /* \"#utility.yul\":10230:10233   */\n      0x00\n        /* \"#utility.yul\":10267:10272   */\n      dup2\n        /* \"#utility.yul\":10261:10273   */\n      sload\n        /* \"#utility.yul\":10296:10332   */\n      tag_231\n        /* \"#utility.yul\":10322:10331   */\n      dup2\n        /* \"#utility.yul\":10296:10332   */\n      tag_46\n      jump\t// in\n    tag_231:\n        /* \"#utility.yul\":10348:10419   */\n      tag_232\n        /* \"#utility.yul\":10412:10418   */\n      dup2\n        /* \"#utility.yul\":10407:10410   */\n      dup7\n        /* \"#utility.yul\":10348:10419   */\n      tag_85\n      jump\t// in\n    tag_232:\n        /* \"#utility.yul\":10341:10419   */\n      swap5\n      pop\n        /* \"#utility.yul\":10450:10451   */\n      0x01\n        /* \"#utility.yul\":10439:10448   */\n      dup3\n        /* \"#utility.yul\":10435:10452   */\n      and\n        /* \"#utility.yul\":10466:10467   */\n      0x00\n        /* \"#utility.yul\":10461:10625   */\n      dup2\n      eq\n      tag_234\n      jumpi\n        /* \"#utility.yul\":10639:10640   */\n      0x01\n        /* \"#utility.yul\":10634:10970   */\n      dup2\n      eq\n      tag_235\n      jumpi\n        /* \"#utility.yul\":10428:10970   */\n      jump(tag_233)\n        /* \"#utility.yul\":10461:10625   */\n    tag_234:\n        /* \"#utility.yul\":10545:10549   */\n      0xff\n        /* \"#utility.yul\":10541:10550   */\n      not\n        /* \"#utility.yul\":10530:10539   */\n      dup4\n        /* \"#utility.yul\":10526:10551   */\n      and\n        /* \"#utility.yul\":10521:10524   */\n      dup7\n        /* \"#utility.yul\":10514:10552   */\n      mstore\n        /* \"#utility.yul\":10605:10611   */\n      dup2\n        /* \"#utility.yul\":10598:10612   */\n      iszero\n        /* \"#utility.yul\":10591:10613   */\n      iszero\n        /* \"#utility.yul\":10585:10589   */\n      0x20\n        /* \"#utility.yul\":10581:10614   */\n      mul\n        /* \"#utility.yul\":10576:10579   */\n      dup7\n        /* \"#utility.yul\":10572:10615   */\n      add\n        /* \"#utility.yul\":10565:10615   */\n      swap4\n      pop\n        /* \"#utility.yul\":10461:10625   */\n      jump(tag_233)\n        /* \"#utility.yul\":10634:10970   */\n    tag_235:\n        /* \"#utility.yul\":10701:10739   */\n      tag_236\n        /* \"#utility.yul\":10733:10738   */\n      dup6\n        /* \"#utility.yul\":10701:10739   */\n      tag_107\n      jump\t// in\n    tag_236:\n        /* \"#utility.yul\":10761:10762   */\n      0x00\n        /* \"#utility.yul\":10775:10929   */\n    tag_237:\n        /* \"#utility.yul\":10789:10795   */\n      dup4\n        /* \"#utility.yul\":10786:10787   */\n      dup2\n        /* \"#utility.yul\":10783:10796   */\n      lt\n        /* \"#utility.yul\":10775:10929   */\n      iszero\n      tag_239\n      jumpi\n        /* \"#utility.yul\":10863:10870   */\n      dup2\n        /* \"#utility.yul\":10857:10871   */\n      sload\n        /* \"#utility.yul\":10853:10854   */\n      dup2\n        /* \"#utility.yul\":10848:10851   */\n      dup10\n        /* \"#utility.yul\":10844:10855   */\n      add\n        /* \"#utility.yul\":10837:10872   */\n      mstore\n        /* \"#utility.yul\":10913:10914   */\n      0x01\n        /* \"#utility.yul\":10904:10911   */\n      dup3\n        /* \"#utility.yul\":10900:10915   */\n      add\n        /* \"#utility.yul\":10889:10915   */\n      swap2\n      pop\n        /* \"#utility.yul\":10811:10815   */\n      0x20\n        /* \"#utility.yul\":10808:10809   */\n      dup2\n        /* \"#utility.yul\":10804:10816   */\n      add\n        /* \"#utility.yul\":10799:10816   */\n      swap1\n      pop\n        /* \"#utility.yul\":10775:10929   */\n      jump(tag_237)\n    tag_239:\n        /* \"#utility.yul\":10958:10959   */\n      dup1\n        /* \"#utility.yul\":10953:10956   */\n      dup9\n        /* \"#utility.yul\":10949:10960   */\n      add\n        /* \"#utility.yul\":10942:10960   */\n      swap6\n      pop\n        /* \"#utility.yul\":10641:10970   */\n      pop\n      pop\n        /* \"#utility.yul\":10428:10970   */\n    tag_233:\n      pop\n        /* \"#utility.yul\":10234:10976   */\n      pop\n      pop\n        /* \"#utility.yul\":10145:10976   */\n      swap3\n      swap2\n      pop\n      pop\n      jump\t// out\n        /* \"#utility.yul\":10982:11620   */\n    tag_44:\n        /* \"#utility.yul\":11176:11180   */\n      0x00\n        /* \"#utility.yul\":11214:11217   */\n      0x80\n        /* \"#utility.yul\":11203:11212   */\n      dup3\n        /* \"#utility.yul\":11199:11218   */\n      add\n        /* \"#utility.yul\":11191:11218   */\n      swap1\n      pop\n        /* \"#utility.yul\":11228:11299   */\n      tag_241\n        /* \"#utility.yul\":11296:11297   */\n      0x00\n        /* \"#utility.yul\":11285:11294   */\n      dup4\n        /* \"#utility.yul\":11281:11298   */\n      add\n        /* \"#utility.yul\":11272:11278   */\n      dup8\n        /* \"#utility.yul\":11228:11299   */\n      tag_80\n      jump\t// in\n    tag_241:\n        /* \"#utility.yul\":11309:11381   */\n      tag_242\n        /* \"#utility.yul\":11377:11379   */\n      0x20\n        /* \"#utility.yul\":11366:11375   */\n      dup4\n        /* \"#utility.yul\":11362:11380   */\n      add\n        /* \"#utility.yul\":11353:11359   */\n      dup7\n        /* \"#utility.yul\":11309:11381   */\n      tag_83\n      jump\t// in\n    tag_242:\n        /* \"#utility.yul\":11428:11437   */\n      dup2\n        /* \"#utility.yul\":11422:11426   */\n      dup2\n        /* \"#utility.yul\":11418:11438   */\n      sub\n        /* \"#utility.yul\":11413:11415   */\n      0x40\n        /* \"#utility.yul\":11402:11411   */\n      dup4\n        /* \"#utility.yul\":11398:11416   */\n      add\n        /* \"#utility.yul\":11391:11439   */\n      mstore\n        /* \"#utility.yul\":11456:11531   */\n      tag_243\n        /* \"#utility.yul\":11526:11530   */\n      dup2\n        /* \"#utility.yul\":11517:11523   */\n      dup6\n        /* \"#utility.yul\":11456:11531   */\n      tag_108\n      jump\t// in\n    tag_243:\n        /* \"#utility.yul\":11448:11531   */\n      swap1\n      pop\n        /* \"#utility.yul\":11541:11613   */\n      tag_244\n        /* \"#utility.yul\":11609:11611   */\n      0x60\n        /* \"#utility.yul\":11598:11607   */\n      dup4\n        /* \"#utility.yul\":11594:11612   */\n      add\n        /* \"#utility.yul\":11585:11591   */\n      dup5\n        /* \"#utility.yul\":11541:11613   */\n      tag_80\n      jump\t// in\n    tag_244:\n        /* \"#utility.yul\":10982:11620   */\n      swap6\n      swap5\n      pop\n      pop\n      pop\n      pop\n      pop\n      jump\t// out\n        /* \"#utility.yul\":11626:11793   */\n    tag_109:\n        /* \"#utility.yul\":11766:11785   */\n      0x496e76616c6964205469636b6574204944000000000000000000000000000000\n        /* \"#utility.yul\":11762:11763   */\n      0x00\n        /* \"#utility.yul\":11754:11760   */\n      dup3\n        /* \"#utility.yul\":11750:11764   */\n      add\n        /* \"#utility.yul\":11743:11786   */\n      mstore\n        /* \"#utility.yul\":11626:11793   */\n      pop\n      jump\t// out\n        /* \"#utility.yul\":11799:12165   */\n    tag_110:\n        /* \"#utility.yul\":11941:11944   */\n      0x00\n        /* \"#utility.yul\":11962:12029   */\n      tag_247\n        /* \"#utility.yul\":12026:12028   */\n      0x11\n        /* \"#utility.yul\":12021:12024   */\n      dup4\n        /* \"#utility.yul\":11962:12029   */\n      tag_85\n      jump\t// in\n    tag_247:\n        /* \"#utility.yul\":11955:12029   */\n      swap2\n      pop\n        /* \"#utility.yul\":12038:12131   */\n      tag_248\n        /* \"#utility.yul\":12127:12130   */\n      dup3\n        /* \"#utility.yul\":12038:12131   */\n      tag_109\n      jump\t// in\n    tag_248:\n        /* \"#utility.yul\":12156:12158   */\n      0x20\n        /* \"#utility.yul\":12151:12154   */\n      dup3\n        /* \"#utility.yul\":12147:12159   */\n      add\n        /* \"#utility.yul\":12140:12159   */\n      swap1\n      pop\n        /* \"#utility.yul\":11799:12165   */\n      swap2\n      swap1\n      pop\n      jump\t// out\n        /* \"#utility.yul\":12171:12590   */\n    tag_55:\n        /* \"#utility.yul\":12337:12341   */\n      0x00\n        /* \"#utility.yul\":12375:12377   */\n      0x20\n        /* \"#utility.yul\":12364:12373   */\n      dup3\n        /* \"#utility.yul\":12360:12378   */\n      add\n        /* \"#utility.yul\":12352:12378   */\n      swap1\n      pop\n        /* \"#utility.yul\":12424:12433   */\n      dup2\n        /* \"#utility.yul\":12418:12422   */\n      dup2\n        /* \"#utility.yul\":12414:12434   */\n      sub\n        /* \"#utility.yul\":12410:12411   */\n      0x00\n        /* \"#utility.yul\":12399:12408   */\n      dup4\n        /* \"#utility.yul\":12395:12412   */\n      add\n        /* \"#utility.yul\":12388:12435   */\n      mstore\n        /* \"#utility.yul\":12452:12583   */\n      tag_250\n        /* \"#utility.yul\":12578:12582   */\n      dup2\n        /* \"#utility.yul\":12452:12583   */\n      tag_110\n      jump\t// in\n    tag_250:\n        /* \"#utility.yul\":12444:12583   */\n      swap1\n      pop\n        /* \"#utility.yul\":12171:12590   */\n      swap2\n      swap1\n      pop\n      jump\t// out\n        /* \"#utility.yul\":12596:12772   */\n    tag_111:\n        /* \"#utility.yul\":12736:12764   */\n      0x4576656e74206e616d652063616e6e6f7420626520656d707479000000000000\n        /* \"#utility.yul\":12732:12733   */\n      0x00\n        /* \"#utility.yul\":12724:12730   */\n      dup3\n        /* \"#utility.yul\":12720:12734   */\n      add\n        /* \"#utility.yul\":12713:12765   */\n      mstore\n        /* \"#utility.yul\":12596:12772   */\n      pop\n      jump\t// out\n        /* \"#utility.yul\":12778:13144   */\n    tag_112:\n        /* \"#utility.yul\":12920:12923   */\n      0x00\n        /* \"#utility.yul\":12941:13008   */\n      tag_253\n        /* \"#utility.yul\":13005:13007   */\n      0x1a\n        /* \"#utility.yul\":13000:13003   */\n      dup4\n        /* \"#utility.yul\":12941:13008   */\n      tag_85\n      jump\t// in\n    tag_253:\n        /* \"#utility.yul\":12934:13008   */\n      swap2\n      pop\n        /* \"#utility.yul\":13017:13110   */\n      tag_254\n        /* \"#utility.yul\":13106:13109   */\n      dup3\n        /* \"#utility.yul\":13017:13110   */\n      tag_111\n      jump\t// in\n    tag_254:\n        /* \"#utility.yul\":13135:13137   */\n      0x20\n        /* \"#utility.yul\":13130:13133   */\n      dup3\n        /* \"#utility.yul\":13126:13138   */\n      add\n        /* \"#utility.yul\":13119:13138   */\n      swap1\n      pop\n        /* \"#utility.yul\":12778:13144   */\n      swap2\n      swap1\n      pop\n      jump\t// out\n        /* \"#utility.yul\":13150:13569   */\n    tag_64:\n        /* \"#utility.yul\":13316:13320   */\n      0x00\n        /* \"#utility.yul\":13354:13356   */\n      0x20\n        /* \"#utility.yul\":13343:13352   */\n      dup3\n        /* \"#utility.yul\":13339:13357   */\n      add\n        /* \"#utility.yul\":13331:13357   */\n      swap1\n      pop\n        /* \"#utility.yul\":13403:13412   */\n      dup2\n        /* \"#utility.yul\":13397:13401   */\n      dup2\n        /* \"#utility.yul\":13393:13413   */\n      sub\n        /* \"#utility.yul\":13389:13390   */\n      0x00\n        /* \"#utility.yul\":13378:13387   */\n      dup4\n        /* \"#utility.yul\":13374:13391   */\n      add\n        /* \"#utility.yul\":13367:13414   */\n      mstore\n        /* \"#utility.yul\":13431:13562   */\n      tag_256\n        /* \"#utility.yul\":13557:13561   */\n      dup2\n        /* \"#utility.yul\":13431:13562   */\n      tag_112\n      jump\t// in\n    tag_256:\n        /* \"#utility.yul\":13423:13562   */\n      swap1\n      pop\n        /* \"#utility.yul\":13150:13569   */\n      swap2\n      swap1\n      pop\n      jump\t// out\n        /* \"#utility.yul\":13575:13800   */\n    tag_113:\n        /* \"#utility.yul\":13715:13749   */\n      0x5469636b6574207072696365206d757374206265206772656174657220746861\n        /* \"#utility.yul\":13711:13712   */\n      0x00\n        /* \"#utility.yul\":13703:13709   */\n      dup3\n        /* \"#utility.yul\":13699:13713   */\n      add\n        /* \"#utility.yul\":13692:13750   */\n      mstore\n        /* \"#utility.yul\":13784:13792   */\n      0x6e207a65726f0000000000000000000000000000000000000000000000000000\n        /* \"#utility.yul\":13779:13781   */\n      0x20\n        /* \"#utility.yul\":13771:13777   */\n      dup3\n        /* \"#utility.yul\":13767:13782   */\n      add\n        /* \"#utility.yul\":13760:13793   */\n      mstore\n        /* \"#utility.yul\":13575:13800   */\n      pop\n      jump\t// out\n        /* \"#utility.yul\":13806:14172   */\n    tag_114:\n        /* \"#utility.yul\":13948:13951   */\n      0x00\n        /* \"#utility.yul\":13969:14036   */\n      tag_259\n        /* \"#utility.yul\":14033:14035   */\n      0x26\n        /* \"#utility.yul\":14028:14031   */\n      dup4\n        /* \"#utility.yul\":13969:14036   */\n      tag_85\n      jump\t// in\n    tag_259:\n        /* \"#utility.yul\":13962:14036   */\n      swap2\n      pop\n        /* \"#utility.yul\":14045:14138   */\n      tag_260\n        /* \"#utility.yul\":14134:14137   */\n      dup3\n        /* \"#utility.yul\":14045:14138   */\n      tag_113\n      jump\t// in\n    tag_260:\n        /* \"#utility.yul\":14163:14165   */\n      0x40\n        /* \"#utility.yul\":14158:14161   */\n      dup3\n        /* \"#utility.yul\":14154:14166   */\n      add\n        /* \"#utility.yul\":14147:14166   */\n      swap1\n      pop\n        /* \"#utility.yul\":13806:14172   */\n      swap2\n      swap1\n      pop\n      jump\t// out\n        /* \"#utility.yul\":14178:14597   */\n    tag_67:\n        /* \"#utility.yul\":14344:14348   */\n      0x00\n        /* \"#utility.yul\":14382:14384   */\n      0x20\n        /* \"#utility.yul\":14371:14380   */\n      dup3\n        /* \"#utility.yul\":14367:14385   */\n      add\n        /* \"#utility.yul\":14359:14385   */\n      swap1\n      pop\n        /* \"#utility.yul\":14431:14440   */\n      dup2\n        /* \"#utility.yul\":14425:14429   */\n      dup2\n        /* \"#utility.yul\":14421:14441   */\n      sub\n        /* \"#utility.yul\":14417:14418   */\n      0x00\n        /* \"#utility.yul\":14406:14415   */\n      dup4\n        /* \"#utility.yul\":14402:14419   */\n      add\n        /* \"#utility.yul\":14395:14442   */\n      mstore\n        /* \"#utility.yul\":14459:14590   */\n      tag_262\n        /* \"#utility.yul\":14585:14589   */\n      dup2\n        /* \"#utility.yul\":14459:14590   */\n      tag_114\n      jump\t// in\n    tag_262:\n        /* \"#utility.yul\":14451:14590   */\n      swap1\n      pop\n        /* \"#utility.yul\":14178:14597   */\n      swap2\n      swap1\n      pop\n      jump\t// out\n        /* \"#utility.yul\":14603:14783   */\n    tag_115:\n        /* \"#utility.yul\":14651:14728   */\n      0x4e487b7100000000000000000000000000000000000000000000000000000000\n        /* \"#utility.yul\":14648:14649   */\n      0x00\n        /* \"#utility.yul\":14641:14729   */\n      mstore\n        /* \"#utility.yul\":14748:14752   */\n      0x11\n        /* \"#utility.yul\":14745:14746   */\n      0x04\n        /* \"#utility.yul\":14738:14753   */\n      mstore\n        /* \"#utility.yul\":14772:14776   */\n      0x24\n        /* \"#utility.yul\":14769:14770   */\n      0x00\n        /* \"#utility.yul\":14762:14777   */\n      revert\n        /* \"#utility.yul\":14789:15022   */\n    tag_69:\n        /* \"#utility.yul\":14828:14831   */\n      0x00\n        /* \"#utility.yul\":14851:14875   */\n      tag_265\n        /* \"#utility.yul\":14869:14874   */\n      dup3\n        /* \"#utility.yul\":14851:14875   */\n      tag_77\n      jump\t// in\n    tag_265:\n        /* \"#utility.yul\":14842:14875   */\n      swap2\n      pop\n        /* \"#utility.yul\":14897:14963   */\n      0xffffffffffffffffffffffffffffffffffffffffffffffffffffffffffffffff\n        /* \"#utility.yul\":14890:14895   */\n      dup3\n        /* \"#utility.yul\":14887:14964   */\n      sub\n        /* \"#utility.yul\":14884:14987   */\n      tag_266\n      jumpi\n        /* \"#utility.yul\":14967:14985   */\n      tag_267\n      tag_115\n      jump\t// in\n    tag_267:\n        /* \"#utility.yul\":14884:14987   */\n    tag_266:\n        /* \"#utility.yul\":15014:15015   */\n      0x01\n        /* \"#utility.yul\":15007:15012   */\n      dup3\n        /* \"#utility.yul\":15003:15016   */\n      add\n        /* \"#utility.yul\":14996:15016   */\n      swap1\n      pop\n        /* \"#utility.yul\":14789:15022   */\n      swap2\n      swap1\n      pop\n      jump\t// out\n        /* \"#utility.yul\":15028:15121   */\n    tag_116:\n        /* \"#utility.yul\":15065:15071   */\n      0x00\n        /* \"#utility.yul\":15112:15114   */\n      0x20\n        /* \"#utility.yul\":15107:15109   */\n      0x1f\n        /* \"#utility.yul\":15100:15105   */\n      dup4\n        /* \"#utility.yul\":15096:15110   */\n      add\n        /* \"#utility.yul\":15092:15115   */\n      div\n        /* \"#utility.yul\":15082:15115   */\n      swap1\n      pop\n        /* \"#utility.yul\":15028:15121   */\n      swap2\n      swap1\n      pop\n      jump\t// out\n        /* \"#utility.yul\":15127:15234   */\n    tag_117:\n        /* \"#utility.yul\":15171:15179   */\n      0x00\n        /* \"#utility.yul\":15221:15226   */\n      dup3\n        /* \"#utility.yul\":15215:15219   */\n      dup3\n        /* \"#utility.yul\":15211:15227   */\n      shl\n        /* \"#utility.yul\":15190:15227   */\n      swap1\n      pop\n        /* \"#utility.yul\":15127:15234   */\n      swap3\n      swap2\n      pop\n      pop\n      jump\t// out\n        /* \"#utility.yul\":15240:15633   */\n    tag_118:\n        /* \"#utility.yul\":15309:15315   */\n      0x00\n        /* \"#utility.yul\":15359:15360   */\n      0x08\n        /* \"#utility.yul\":15347:15357   */\n      dup4\n        /* \"#utility.yul\":15343:15361   */\n      mul\n        /* \"#utility.yul\":15382:15479   */\n      tag_271\n        /* \"#utility.yul\":15412:15478   */\n      0xffffffffffffffffffffffffffffffffffffffffffffffffffffffffffffffff\n        /* \"#utility.yul\":15401:15410   */\n      dup3\n        /* \"#utility.yul\":15382:15479   */\n      tag_117\n      jump\t// in\n    tag_271:\n        /* \"#utility.yul\":15500:15539   */\n      tag_272\n        /* \"#utility.yul\":15530:15538   */\n      dup7\n        /* \"#utility.yul\":15519:15528   */\n      dup4\n        /* \"#utility.yul\":15500:15539   */\n      tag_117\n      jump\t// in\n    tag_272:\n        /* \"#utility.yul\":15488:15539   */\n      swap6\n      pop\n        /* \"#utility.yul\":15572:15576   */\n      dup1\n        /* \"#utility.yul\":15568:15577   */\n      not\n        /* \"#utility.yul\":15561:15566   */\n      dup5\n        /* \"#utility.yul\":15557:15578   */\n      and\n        /* \"#utility.yul\":15548:15578   */\n      swap4\n      pop\n        /* \"#utility.yul\":15621:15625   */\n      dup1\n        /* \"#utility.yul\":15611:15619   */\n      dup7\n        /* \"#utility.yul\":15607:15626   */\n      and\n        /* \"#utility.yul\":15600:15605   */\n      dup5\n        /* \"#utility.yul\":15597:15627   */\n      or\n        /* \"#utility.yul\":15587:15627   */\n      swap3\n      pop\n        /* \"#utility.yul\":15316:15633   */\n      pop\n      pop\n        /* \"#utility.yul\":15240:15633   */\n      swap4\n      swap3\n      pop\n      pop\n      pop\n      jump\t// out\n        /* \"#utility.yul\":15639:15699   */\n    tag_119:\n        /* \"#utility.yul\":15667:15670   */\n      0x00\n        /* \"#utility.yul\":15688:15693   */\n      dup2\n        /* \"#utility.yul\":15681:15693   */\n      swap1\n      pop\n        /* \"#utility.yul\":15639:15699   */\n      swap2\n      swap1\n      pop\n      jump\t// out\n        /* \"#utility.yul\":15705:15847   */\n    tag_120:\n        /* \"#utility.yul\":15755:15764   */\n      0x00\n        /* \"#utility.yul\":15788:15841   */\n      tag_275\n        /* \"#utility.yul\":15806:15840   */\n      tag_276\n        /* \"#utility.yul\":15815:15839   */\n      tag_277\n        /* \"#utility.yul\":15833:15838   */\n      dup5\n        /* \"#utility.yul\":15815:15839   */\n      tag_77\n      jump\t// in\n    tag_277:\n        /* \"#utility.yul\":15806:15840   */\n      tag_119\n      jump\t// in\n    tag_276:\n        /* \"#utility.yul\":15788:15841   */\n      tag_77\n      jump\t// in\n    tag_275:\n        /* \"#utility.yul\":15775:15841   */\n      swap1\n      pop\n        /* \"#utility.yul\":15705:15847   */\n      swap2\n      swap1\n      pop\n      jump\t// out\n        /* \"#utility.yul\":15853:15928   */\n    tag_121:\n        /* \"#utility.yul\":15896:15899   */\n      0x00\n        /* \"#utility.yul\":15917:15922   */\n      dup2\n        /* \"#utility.yul\":15910:15922   */\n      swap1\n      pop\n        /* \"#utility.yul\":15853:15928   */\n      swap2\n      swap1\n      pop\n      jump\t// out\n        /* \"#utility.yul\":15934:16203   */\n    tag_122:\n        /* \"#utility.yul\":16044:16083   */\n      tag_280\n        /* \"#utility.yul\":16075:16082   */\n      dup4\n        /* \"#utility.yul\":16044:16083   */\n      tag_120\n      jump\t// in\n    tag_280:\n        /* \"#utility.yul\":16105:16196   */\n      tag_281\n        /* \"#utility.yul\":16154:16195   */\n      tag_282\n        /* \"#utility.yul\":16178:16194   */\n      dup3\n        /* \"#utility.yul\":16154:16195   */\n      tag_121\n      jump\t// in\n    tag_282:\n        /* \"#utility.yul\":16146:16152   */\n      dup5\n        /* \"#utility.yul\":16139:16143   */\n      dup5\n        /* \"#utility.yul\":16133:16144   */\n      sload\n        /* \"#utility.yul\":16105:16196   */\n      tag_118\n      jump\t// in\n    tag_281:\n        /* \"#utility.yul\":16099:16103   */\n      dup3\n        /* \"#utility.yul\":16092:16197   */\n      sstore\n        /* \"#utility.yul\":16010:16203   */\n      pop\n        /* \"#utility.yul\":15934:16203   */\n      pop\n      pop\n      pop\n      jump\t// out\n        /* \"#utility.yul\":16209:16282   */\n    tag_123:\n        /* \"#utility.yul\":16254:16257   */\n      0x00\n        /* \"#utility.yul\":16209:16282   */\n      swap1\n      jump\t// out\n        /* \"#utility.yul\":16288:16477   */\n    tag_124:\n        /* \"#utility.yul\":16365:16397   */\n      tag_285\n      tag_123\n      jump\t// in\n    tag_285:\n        /* \"#utility.yul\":16406:16471   */\n      tag_286\n        /* \"#utility.yul\":16464:16470   */\n      dup2\n        /* \"#utility.yul\":16456:16462   */\n      dup5\n        /* \"#utility.yul\":16450:16454   */\n      dup5\n        /* \"#utility.yul\":16406:16471   */\n      tag_122\n      jump\t// in\n    tag_286:\n        /* \"#utility.yul\":16341:16477   */\n      pop\n        /* \"#utility.yul\":16288:16477   */\n      pop\n      pop\n      jump\t// out\n        /* \"#utility.yul\":16483:16669   */\n    tag_125:\n        /* \"#utility.yul\":16543:16663   */\n    tag_288:\n        /* \"#utility.yul\":16560:16563   */\n      dup2\n        /* \"#utility.yul\":16553:16558   */\n      dup2\n        /* \"#utility.yul\":16550:16564   */\n      lt\n        /* \"#utility.yul\":16543:16663   */\n      iszero\n      tag_290\n      jumpi\n        /* \"#utility.yul\":16614:16653   */\n      tag_291\n        /* \"#utility.yul\":16651:16652   */\n      0x00\n        /* \"#utility.yul\":16644:16649   */\n      dup3\n        /* \"#utility.yul\":16614:16653   */\n      tag_124\n      jump\t// in\n    tag_291:\n        /* \"#utility.yul\":16587:16588   */\n      0x01\n        /* \"#utility.yul\":16580:16585   */\n      dup2\n        /* \"#utility.yul\":16576:16589   */\n      add\n        /* \"#utility.yul\":16567:16589   */\n      swap1\n      pop\n        /* \"#utility.yul\":16543:16663   */\n      jump(tag_288)\n    tag_290:\n        /* \"#utility.yul\":16483:16669   */\n      pop\n      pop\n      jump\t// out\n        /* \"#utility.yul\":16675:17218   */\n    tag_126:\n        /* \"#utility.yul\":16776:16778   */\n      0x1f\n        /* \"#utility.yul\":16771:16774   */\n      dup3\n        /* \"#utility.yul\":16768:16779   */\n      gt\n        /* \"#utility.yul\":16765:17211   */\n      iszero\n      tag_293\n      jumpi\n        /* \"#utility.yul\":16810:16848   */\n      tag_294\n        /* \"#utility.yul\":16842:16847   */\n      dup2\n        /* \"#utility.yul\":16810:16848   */\n      tag_107\n      jump\t// in\n    tag_294:\n        /* \"#utility.yul\":16894:16923   */\n      tag_295\n        /* \"#utility.yul\":16912:16922   */\n      dup5\n        /* \"#utility.yul\":16894:16923   */\n      tag_116\n      jump\t// in\n    tag_295:\n        /* \"#utility.yul\":16884:16892   */\n      dup2\n        /* \"#utility.yul\":16880:16924   */\n      add\n        /* \"#utility.yul\":17077:17079   */\n      0x20\n        /* \"#utility.yul\":17065:17075   */\n      dup6\n        /* \"#utility.yul\":17062:17080   */\n      lt\n        /* \"#utility.yul\":17059:17108   */\n      iszero\n      tag_296\n      jumpi\n        /* \"#utility.yul\":17098:17106   */\n      dup2\n        /* \"#utility.yul\":17083:17106   */\n      swap1\n      pop\n        /* \"#utility.yul\":17059:17108   */\n    tag_296:\n        /* \"#utility.yul\":17121:17201   */\n      tag_297\n        /* \"#utility.yul\":17177:17199   */\n      tag_298\n        /* \"#utility.yul\":17195:17198   */\n      dup6\n        /* \"#utility.yul\":17177:17199   */\n      tag_116\n      jump\t// in\n    tag_298:\n        /* \"#utility.yul\":17167:17175   */\n      dup4\n        /* \"#utility.yul\":17163:17200   */\n      add\n        /* \"#utility.yul\":17150:17161   */\n      dup3\n        /* \"#utility.yul\":17121:17201   */\n      tag_125\n      jump\t// in\n    tag_297:\n        /* \"#utility.yul\":16780:17211   */\n      pop\n      pop\n        /* \"#utility.yul\":16765:17211   */\n    tag_293:\n        /* \"#utility.yul\":16675:17218   */\n      pop\n      pop\n      pop\n      jump\t// out\n        /* \"#utility.yul\":17224:17341   */\n    tag_127:\n        /* \"#utility.yul\":17278:17286   */\n      0x00\n        /* \"#utility.yul\":17328:17333   */\n      dup3\n        /* \"#utility.yul\":17322:17326   */\n      dup3\n        /* \"#utility.yul\":17318:17334   */\n      shr\n        /* \"#utility.yul\":17297:17334   */\n      swap1\n      pop\n        /* \"#utility.yul\":17224:17341   */\n      swap3\n      swap2\n      pop\n      pop\n      jump\t// out\n        /* \"#utility.yul\":17347:17516   */\n    tag_128:\n        /* \"#utility.yul\":17391:17397   */\n      0x00\n        /* \"#utility.yul\":17424:17475   */\n      tag_301\n        /* \"#utility.yul\":17472:17473   */\n      0x00\n        /* \"#utility.yul\":17468:17474   */\n      not\n        /* \"#utility.yul\":17460:17465   */\n      dup5\n        /* \"#utility.yul\":17457:17458   */\n      0x08\n        /* \"#utility.yul\":17453:17466   */\n      mul\n        /* \"#utility.yul\":17424:17475   */\n      tag_127\n      jump\t// in\n    tag_301:\n        /* \"#utility.yul\":17420:17476   */\n      not\n        /* \"#utility.yul\":17505:17509   */\n      dup1\n        /* \"#utility.yul\":17499:17503   */\n      dup4\n        /* \"#utility.yul\":17495:17510   */\n      and\n        /* \"#utility.yul\":17485:17510   */\n      swap2\n      pop\n        /* \"#utility.yul\":17398:17516   */\n      pop\n        /* \"#utility.yul\":17347:17516   */\n      swap3\n      swap2\n      pop\n      pop\n      jump\t// out\n        /* \"#utility.yul\":17521:17816   */\n    tag_129:\n        /* \"#utility.yul\":17597:17601   */\n      0x00\n        /* \"#utility.yul\":17743:17772   */\n      tag_303\n        /* \"#utility.yul\":17768:17771   */\n      dup4\n        /* \"#utility.yul\":17762:17766   */\n      dup4\n        /* \"#utility.yul\":17743:17772   */\n      tag_128\n      jump\t// in\n    tag_303:\n        /* \"#utility.yul\":17735:17772   */\n      swap2\n      pop\n        /* \"#utility.yul\":17805:17808   */\n      dup3\n        /* \"#utility.yul\":17802:17803   */\n      0x02\n        /* \"#utility.yul\":17798:17809   */\n      mul\n        /* \"#utility.yul\":17792:17796   */\n      dup3\n        /* \"#utility.yul\":17789:17810   */\n      or\n        /* \"#utility.yul\":17781:17810   */\n      swap1\n      pop\n        /* \"#utility.yul\":17521:17816   */\n      swap3\n      swap2\n      pop\n      pop\n      jump\t// out\n        /* \"#utility.yul\":17821:19216   */\n    tag_71:\n        /* \"#utility.yul\":17938:17975   */\n      tag_305\n        /* \"#utility.yul\":17971:17974   */\n      dup3\n        /* \"#utility.yul\":17938:17975   */\n      tag_84\n      jump\t// in\n    tag_305:\n        /* \"#utility.yul\":18040:18058   */\n      0xffffffffffffffff\n        /* \"#utility.yul\":18032:18038   */\n      dup2\n        /* \"#utility.yul\":18029:18059   */\n      gt\n        /* \"#utility.yul\":18026:18082   */\n      iszero\n      tag_306\n      jumpi\n        /* \"#utility.yul\":18062:18080   */\n      tag_307\n      tag_93\n      jump\t// in\n    tag_307:\n        /* \"#utility.yul\":18026:18082   */\n    tag_306:\n        /* \"#utility.yul\":18106:18144   */\n      tag_308\n        /* \"#utility.yul\":18138:18142   */\n      dup3\n        /* \"#utility.yul\":18132:18143   */\n      sload\n        /* \"#utility.yul\":18106:18144   */\n      tag_46\n      jump\t// in\n    tag_308:\n        /* \"#utility.yul\":18191:18258   */\n      tag_309\n        /* \"#utility.yul\":18251:18257   */\n      dup3\n        /* \"#utility.yul\":18243:18249   */\n      dup3\n        /* \"#utility.yul\":18237:18241   */\n      dup6\n        /* \"#utility.yul\":18191:18258   */\n      tag_126\n      jump\t// in\n    tag_309:\n        /* \"#utility.yul\":18285:18286   */\n      0x00\n        /* \"#utility.yul\":18309:18313   */\n      0x20\n        /* \"#utility.yul\":18296:18313   */\n      swap1\n      pop\n        /* \"#utility.yul\":18341:18343   */\n      0x1f\n        /* \"#utility.yul\":18333:18339   */\n      dup4\n        /* \"#utility.yul\":18330:18344   */\n      gt\n        /* \"#utility.yul\":18358:18359   */\n      0x01\n        /* \"#utility.yul\":18353:18971   */\n      dup2\n      eq\n      tag_311\n      jumpi\n        /* \"#utility.yul\":19015:19016   */\n      0x00\n        /* \"#utility.yul\":19032:19038   */\n      dup5\n        /* \"#utility.yul\":19029:19106   */\n      iszero\n      tag_312\n      jumpi\n        /* \"#utility.yul\":19081:19090   */\n      dup3\n        /* \"#utility.yul\":19076:19079   */\n      dup8\n        /* \"#utility.yul\":19072:19091   */\n      add\n        /* \"#utility.yul\":19066:19092   */\n      mload\n        /* \"#utility.yul\":19057:19092   */\n      swap1\n      pop\n        /* \"#utility.yul\":19029:19106   */\n    tag_312:\n        /* \"#utility.yul\":19132:19199   */\n      tag_313\n        /* \"#utility.yul\":19192:19198   */\n      dup6\n        /* \"#utility.yul\":19185:19190   */\n      dup3\n        /* \"#utility.yul\":19132:19199   */\n      tag_129\n      jump\t// in\n    tag_313:\n        /* \"#utility.yul\":19126:19130   */\n      dup7\n        /* \"#utility.yul\":19119:19200   */\n      sstore\n        /* \"#utility.yul\":18988:19210   */\n      pop\n        /* \"#utility.yul\":18323:19210   */\n      jump(tag_310)\n        /* \"#utility.yul\":18353:18971   */\n    tag_311:\n        /* \"#utility.yul\":18405:18409   */\n      0x1f\n        /* \"#utility.yul\":18401:18410   */\n      not\n        /* \"#utility.yul\":18393:18399   */\n      dup5\n        /* \"#utility.yul\":18389:18411   */\n      and\n        /* \"#utility.yul\":18439:18476   */\n      tag_314\n        /* \"#utility.yul\":18471:18475   */\n      dup7\n        /* \"#utility.yul\":18439:18476   */\n      tag_107\n      jump\t// in\n    tag_314:\n        /* \"#utility.yul\":18498:18499   */\n      0x00\n        /* \"#utility.yul\":18512:18720   */\n    tag_315:\n        /* \"#utility.yul\":18526:18533   */\n      dup3\n        /* \"#utility.yul\":18523:18524   */\n      dup2\n        /* \"#utility.yul\":18520:18534   */\n      lt\n        /* \"#utility.yul\":18512:18720   */\n      iszero\n      tag_317\n      jumpi\n        /* \"#utility.yul\":18605:18614   */\n      dup5\n        /* \"#utility.yul\":18600:18603   */\n      dup10\n        /* \"#utility.yul\":18596:18615   */\n      add\n        /* \"#utility.yul\":18590:18616   */\n      mload\n        /* \"#utility.yul\":18582:18588   */\n      dup3\n        /* \"#utility.yul\":18575:18617   */\n      sstore\n        /* \"#utility.yul\":18656:18657   */\n      0x01\n        /* \"#utility.yul\":18648:18654   */\n      dup3\n        /* \"#utility.yul\":18644:18658   */\n      add\n        /* \"#utility.yul\":18634:18658   */\n      swap2\n      pop\n        /* \"#utility.yul\":18703:18705   */\n      0x20\n        /* \"#utility.yul\":18692:18701   */\n      dup6\n        /* \"#utility.yul\":18688:18706   */\n      add\n        /* \"#utility.yul\":18675:18706   */\n      swap5\n      pop\n        /* \"#utility.yul\":18549:18553   */\n      0x20\n        /* \"#utility.yul\":18546:18547   */\n      dup2\n        /* \"#utility.yul\":18542:18554   */\n      add\n        /* \"#utility.yul\":18537:18554   */\n      swap1\n      pop\n        /* \"#utility.yul\":18512:18720   */\n      jump(tag_315)\n    tag_317:\n        /* \"#utility.yul\":18748:18754   */\n      dup7\n        /* \"#utility.yul\":18739:18746   */\n      dup4\n        /* \"#utility.yul\":18736:18755   */\n      lt\n        /* \"#utility.yul\":18733:18912   */\n      iszero\n      tag_318\n      jumpi\n        /* \"#utility.yul\":18806:18815   */\n      dup5\n        /* \"#utility.yul\":18801:18804   */\n      dup10\n        /* \"#utility.yul\":18797:18816   */\n      add\n        /* \"#utility.yul\":18791:18817   */\n      mload\n        /* \"#utility.yul\":18849:18897   */\n      tag_319\n        /* \"#utility.yul\":18891:18895   */\n      0x1f\n        /* \"#utility.yul\":18883:18889   */\n      dup10\n        /* \"#utility.yul\":18879:18896   */\n      and\n        /* \"#utility.yul\":18868:18877   */\n      dup3\n        /* \"#utility.yul\":18849:18897   */\n      tag_128\n      jump\t// in\n    tag_319:\n        /* \"#utility.yul\":18841:18847   */\n      dup4\n        /* \"#utility.yul\":18834:18898   */\n      sstore\n        /* \"#utility.yul\":18756:18912   */\n      pop\n        /* \"#utility.yul\":18733:18912   */\n    tag_318:\n        /* \"#utility.yul\":18958:18959   */\n      0x01\n        /* \"#utility.yul\":18954:18955   */\n      0x02\n        /* \"#utility.yul\":18946:18952   */\n      dup9\n        /* \"#utility.yul\":18942:18956   */\n      mul\n        /* \"#utility.yul\":18938:18960   */\n      add\n        /* \"#utility.yul\":18932:18936   */\n      dup9\n        /* \"#utility.yul\":18925:18961   */\n      sstore\n        /* \"#utility.yul\":18360:18971   */\n      pop\n      pop\n      pop\n        /* \"#utility.yul\":18323:19210   */\n    tag_310:\n      pop\n        /* \"#utility.yul\":17913:19216   */\n      pop\n      pop\n      pop\n        /* \"#utility.yul\":17821:19216   */\n      pop\n      pop\n      jump\t// out\n        /* \"#utility.yul\":19222:19866   */\n    tag_73:\n        /* \"#utility.yul\":19419:19423   */\n      0x00\n        /* \"#utility.yul\":19457:19460   */\n      0x80\n        /* \"#utility.yul\":19446:19455   */\n      dup3\n        /* \"#utility.yul\":19442:19461   */\n      add\n        /* \"#utility.yul\":19434:19461   */\n      swap1\n      pop\n        /* \"#utility.yul\":19471:19542   */\n      tag_321\n        /* \"#utility.yul\":19539:19540   */\n      0x00\n        /* \"#utility.yul\":19528:19537   */\n      dup4\n        /* \"#utility.yul\":19524:19541   */\n      add\n        /* \"#utility.yul\":19515:19521   */\n      dup8\n        /* \"#utility.yul\":19471:19542   */\n      tag_80\n      jump\t// in\n    tag_321:\n        /* \"#utility.yul\":19552:19624   */\n      tag_322\n        /* \"#utility.yul\":19620:19622   */\n      0x20\n        /* \"#utility.yul\":19609:19618   */\n      dup4\n        /* \"#utility.yul\":19605:19623   */\n      add\n        /* \"#utility.yul\":19596:19602   */\n      dup7\n        /* \"#utility.yul\":19552:19624   */\n      tag_83\n      jump\t// in\n    tag_322:\n        /* \"#utility.yul\":19671:19680   */\n      dup2\n        /* \"#utility.yul\":19665:19669   */\n      dup2\n        /* \"#utility.yul\":19661:19681   */\n      sub\n        /* \"#utility.yul\":19656:19658   */\n      0x40\n        /* \"#utility.yul\":19645:19654   */\n      dup4\n        /* \"#utility.yul\":19641:19659   */\n      add\n        /* \"#utility.yul\":19634:19682   */\n      mstore\n        /* \"#utility.yul\":19699:19777   */\n      tag_323\n        /* \"#utility.yul\":19772:19776   */\n      dup2\n        /* \"#utility.yul\":19763:19769   */\n      dup6\n        /* \"#utility.yul\":19699:19777   */\n      tag_88\n      jump\t// in\n    tag_323:\n        /* \"#utility.yul\":19691:19777   */\n      swap1\n      pop\n        /* \"#utility.yul\":19787:19859   */\n      tag_324\n        /* \"#utility.yul\":19855:19857   */\n      0x60\n        /* \"#utility.yul\":19844:19853   */\n      dup4\n        /* \"#utility.yul\":19840:19858   */\n      add\n        /* \"#utility.yul\":19831:19837   */\n      dup5\n        /* \"#utility.yul\":19787:19859   */\n      tag_80\n      jump\t// in\n    tag_324:\n        /* \"#utility.yul\":19222:19866   */\n      swap6\n      swap5\n      pop\n      pop\n      pop\n      pop\n      pop\n      jump\t// out\n\n    auxdata: 0xa2646970667358221220381d95768b88d7fd39df7fccb9f8c4a5ab98afa070219fd9c7501a21cf1546a964736f6c63430008120033\n}\n",
				"bytecode": {
					"linkReferences": {},
					"object": "608060405234801561001057600080fd5b506111a9806100206000396000f3fe60806040526004361061004a5760003560e01c80634283f7f11461004f57806350b447121461006b5780637dc379fa146100ac5780638729004f146100ed578063cfbd900f14610116575b600080fd5b61006960048036038101906100649190610700565b610141565b005b34801561007757600080fd5b50610092600480360381019061008d9190610700565b6102a5565b6040516100a3959493929190610828565b60405180910390f35b3480156100b857600080fd5b506100d360048036038101906100ce9190610700565b610390565b6040516100e4959493929190610828565b60405180910390f35b3480156100f957600080fd5b50610114600480360381019061010f91906109b7565b6104e5565b005b34801561012257600080fd5b5061012b6106b0565b6040516101389190610a13565b60405180910390f35b60008111801561015357506000548111155b610192576040517f08c379a000000000000000000000000000000000000000000000000000000000815260040161018990610a7a565b60405180910390fd5b60006001600083815260200190815260200160002090508060040160009054906101000a900460ff166101fa576040517f08c379a00000000000000000000000000000000000000000000000000000000081526004016101f190610ae6565b60405180910390fd5b80600301543414610240576040517f08c379a000000000000000000000000000000000000000000000000000000000815260040161023790610b78565b60405180910390fd5b60008160040160006101000a81548160ff0219169083151502179055507fedff126a959c32951b576fa2ce20c377c50349226898a5ab7ded1ae246a09c1782338360020184600301546040516102999493929190610c91565b60405180910390a15050565b60016020528060005260406000206000915090508060000154908060010160009054906101000a900473ffffffffffffffffffffffffffffffffffffffff16908060020180546102f490610bc7565b80601f016020809104026020016040519081016040528092919081815260200182805461032090610bc7565b801561036d5780601f106103425761010080835404028352916020019161036d565b820191906000526020600020905b81548152906001019060200180831161035057829003601f168201915b5050505050908060030154908060040160009054906101000a900460ff16905085565b60008060606000806000861180156103aa57506000548611155b6103e9576040517f08c379a00000000000000000000000000000000000000000000000000000000081526004016103e090610d29565b60405180910390fd5b600060016000888152602001908152602001600020905080600001548160010160009054906101000a900473ffffffffffffffffffffffffffffffffffffffff168260020183600301548460040160009054906101000a900460ff1682805461045190610bc7565b80601f016020809104026020016040519081016040528092919081815260200182805461047d90610bc7565b80156104ca5780601f1061049f576101008083540402835291602001916104ca565b820191906000526020600020905b8154815290600101906020018083116104ad57829003601f168201915b50505050509250955095509550955095505091939590929450565b6000825111610529576040517f08c379a000000000000000000000000000000000000000000000000000000000815260040161052090610d95565b60405180910390fd5b6000811161056c576040517f08c379a000000000000000000000000000000000000000000000000000000000815260040161056390610e27565b60405180910390fd5b60008081548092919061057e90610e76565b91905055506040518060a0016040528060005481526020013373ffffffffffffffffffffffffffffffffffffffff1681526020018381526020018281526020016001151581525060016000805481526020019081526020016000206000820151816000015560208201518160010160006101000a81548173ffffffffffffffffffffffffffffffffffffffff021916908373ffffffffffffffffffffffffffffffffffffffff160217905550604082015181600201908161063f9190611055565b506060820151816003015560808201518160040160006101000a81548160ff0219169083151502179055509050507f86ba2f4a4d754320055ff8c07aa554c74e8535895bc672fed416c8395fae00206000543384846040516106a49493929190611127565b60405180910390a15050565b60005481565b6000604051905090565b600080fd5b600080fd5b6000819050919050565b6106dd816106ca565b81146106e857600080fd5b50565b6000813590506106fa816106d4565b92915050565b600060208284031215610716576107156106c0565b5b6000610724848285016106eb565b91505092915050565b610736816106ca565b82525050565b600073ffffffffffffffffffffffffffffffffffffffff82169050919050565b60006107678261073c565b9050919050565b6107778161075c565b82525050565b600081519050919050565b600082825260208201905092915050565b60005b838110156107b757808201518184015260208101905061079c565b60008484015250505050565b6000601f19601f8301169050919050565b60006107df8261077d565b6107e98185610788565b93506107f9818560208601610799565b610802816107c3565b840191505092915050565b60008115159050919050565b6108228161080d565b82525050565b600060a08201905061083d600083018861072d565b61084a602083018761076e565b818103604083015261085c81866107d4565b905061086b606083018561072d565b6108786080830184610819565b9695505050505050565b600080fd5b600080fd5b7f4e487b7100000000000000000000000000000000000000000000000000000000600052604160045260246000fd5b6108c4826107c3565b810181811067ffffffffffffffff821117156108e3576108e261088c565b5b80604052505050565b60006108f66106b6565b905061090282826108bb565b919050565b600067ffffffffffffffff8211156109225761092161088c565b5b61092b826107c3565b9050602081019050919050565b82818337600083830152505050565b600061095a61095584610907565b6108ec565b90508281526020810184848401111561097657610975610887565b5b610981848285610938565b509392505050565b600082601f83011261099e5761099d610882565b5b81356109ae848260208601610947565b91505092915050565b600080604083850312156109ce576109cd6106c0565b5b600083013567ffffffffffffffff8111156109ec576109eb6106c5565b5b6109f885828601610989565b9250506020610a09858286016106eb565b9150509250929050565b6000602082019050610a28600083018461072d565b92915050565b7f496e76616c6964207469636b6574204944000000000000000000000000000000600082015250565b6000610a64601183610788565b9150610a6f82610a2e565b602082019050919050565b60006020820190508181036000830152610a9381610a57565b9050919050565b7f5469636b6574206e6f7420617661696c61626c65000000000000000000000000600082015250565b6000610ad0601483610788565b9150610adb82610a9a565b602082019050919050565b60006020820190508181036000830152610aff81610ac3565b9050919050565b7f4e6f7420612076616c696420616d6f756e7420666f7220627579696e6720746860008201527f65207469636b6574000000000000000000000000000000000000000000000000602082015250565b6000610b62602883610788565b9150610b6d82610b06565b604082019050919050565b60006020820190508181036000830152610b9181610b55565b9050919050565b7f4e487b7100000000000000000000000000000000000000000000000000000000600052602260045260246000fd5b60006002820490506001821680610bdf57607f821691505b602082108103610bf257610bf1610b98565b5b50919050565b60008190508160005260206000209050919050565b60008154610c1a81610bc7565b610c248186610788565b94506001821660008114610c3f5760018114610c5557610c88565b60ff198316865281151560200286019350610c88565b610c5e85610bf8565b60005b83811015610c8057815481890152600182019150602081019050610c61565b808801955050505b50505092915050565b6000608082019050610ca6600083018761072d565b610cb3602083018661076e565b8181036040830152610cc58185610c0d565b9050610cd4606083018461072d565b95945050505050565b7f496e76616c6964205469636b6574204944000000000000000000000000000000600082015250565b6000610d13601183610788565b9150610d1e82610cdd565b602082019050919050565b60006020820190508181036000830152610d4281610d06565b9050919050565b7f4576656e74206e616d652063616e6e6f7420626520656d707479000000000000600082015250565b6000610d7f601a83610788565b9150610d8a82610d49565b602082019050919050565b60006020820190508181036000830152610dae81610d72565b9050919050565b7f5469636b6574207072696365206d75737420626520677265617465722074686160008201527f6e207a65726f0000000000000000000000000000000000000000000000000000602082015250565b6000610e11602683610788565b9150610e1c82610db5565b604082019050919050565b60006020820190508181036000830152610e4081610e04565b9050919050565b7f4e487b7100000000000000000000000000000000000000000000000000000000600052601160045260246000fd5b6000610e81826106ca565b91507fffffffffffffffffffffffffffffffffffffffffffffffffffffffffffffffff8203610eb357610eb2610e47565b5b600182019050919050565b60006020601f8301049050919050565b600082821b905092915050565b600060088302610f0b7fffffffffffffffffffffffffffffffffffffffffffffffffffffffffffffffff82610ece565b610f158683610ece565b95508019841693508086168417925050509392505050565b6000819050919050565b6000610f52610f4d610f48846106ca565b610f2d565b6106ca565b9050919050565b6000819050919050565b610f6c83610f37565b610f80610f7882610f59565b848454610edb565b825550505050565b600090565b610f95610f88565b610fa0818484610f63565b505050565b5b81811015610fc457610fb9600082610f8d565b600181019050610fa6565b5050565b601f82111561100957610fda81610bf8565b610fe384610ebe565b81016020851015610ff2578190505b611006610ffe85610ebe565b830182610fa5565b50505b505050565b600082821c905092915050565b600061102c6000198460080261100e565b1980831691505092915050565b6000611045838361101b565b9150826002028217905092915050565b61105e8261077d565b67ffffffffffffffff8111156110775761107661088c565b5b6110818254610bc7565b61108c828285610fc8565b600060209050601f8311600181146110bf57600084156110ad578287015190505b6110b78582611039565b86555061111f565b601f1984166110cd86610bf8565b60005b828110156110f5578489015182556001820191506020850194506020810190506110d0565b86831015611112578489015161110e601f89168261101b565b8355505b6001600288020188555050505b505050505050565b600060808201905061113c600083018761072d565b611149602083018661076e565b818103604083015261115b81856107d4565b905061116a606083018461072d565b9594505050505056fea2646970667358221220381d95768b88d7fd39df7fccb9f8c4a5ab98afa070219fd9c7501a21cf1546a964736f6c63430008120033",
					"opcodes": "PUSH1 0x80 PUSH1 0x40 MSTORE CALLVALUE DUP1 ISZERO PUSH2 0x10 JUMPI PUSH1 0x0 DUP1 REVERT JUMPDEST POP PUSH2 0x11A9 DUP1 PUSH2 0x20 PUSH1 0x0 CODECOPY PUSH1 0x0 RETURN INVALID PUSH1 0x80 PUSH1 0x40 MSTORE PUSH1 0x4 CALLDATASIZE LT PUSH2 0x4A JUMPI PUSH1 0x0 CALLDATALOAD PUSH1 0xE0 SHR DUP1 PUSH4 0x4283F7F1 EQ PUSH2 0x4F JUMPI DUP1 PUSH4 0x50B44712 EQ PUSH2 0x6B JUMPI DUP1 PUSH4 0x7DC379FA EQ PUSH2 0xAC JUMPI DUP1 PUSH4 0x8729004F EQ PUSH2 0xED JUMPI DUP1 PUSH4 0xCFBD900F EQ PUSH2 0x116 JUMPI JUMPDEST PUSH1 0x0 DUP1 REVERT JUMPDEST PUSH2 0x69 PUSH1 0x4 DUP1 CALLDATASIZE SUB DUP2 ADD SWAP1 PUSH2 0x64 SWAP2 SWAP1 PUSH2 0x700 JUMP JUMPDEST PUSH2 0x141 JUMP JUMPDEST STOP JUMPDEST CALLVALUE DUP1 ISZERO PUSH2 0x77 JUMPI PUSH1 0x0 DUP1 REVERT JUMPDEST POP PUSH2 0x92 PUSH1 0x4 DUP1 CALLDATASIZE SUB DUP2 ADD SWAP1 PUSH2 0x8D SWAP2 SWAP1 PUSH2 0x700 JUMP JUMPDEST PUSH2 0x2A5 JUMP JUMPDEST PUSH1 0x40 MLOAD PUSH2 0xA3 SWAP6 SWAP5 SWAP4 SWAP3 SWAP2 SWAP1 PUSH2 0x828 JUMP JUMPDEST PUSH1 0x40 MLOAD DUP1 SWAP2 SUB SWAP1 RETURN JUMPDEST CALLVALUE DUP1 ISZERO PUSH2 0xB8 JUMPI PUSH1 0x0 DUP1 REVERT JUMPDEST POP PUSH2 0xD3 PUSH1 0x4 DUP1 CALLDATASIZE SUB DUP2 ADD SWAP1 PUSH2 0xCE SWAP2 SWAP1 PUSH2 0x700 JUMP JUMPDEST PUSH2 0x390 JUMP JUMPDEST PUSH1 0x40 MLOAD PUSH2 0xE4 SWAP6 SWAP5 SWAP4 SWAP3 SWAP2 SWAP1 PUSH2 0x828 JUMP JUMPDEST PUSH1 0x40 MLOAD DUP1 SWAP2 SUB SWAP1 RETURN JUMPDEST CALLVALUE DUP1 ISZERO PUSH2 0xF9 JUMPI PUSH1 0x0 DUP1 REVERT JUMPDEST POP PUSH2 0x114 PUSH1 0x4 DUP1 CALLDATASIZE SUB DUP2 ADD SWAP1 PUSH2 0x10F SWAP2 SWAP1 PUSH2 0x9B7 JUMP JUMPDEST PUSH2 0x4E5 JUMP JUMPDEST STOP JUMPDEST CALLVALUE DUP1 ISZERO PUSH2 0x122 JUMPI PUSH1 0x0 DUP1 REVERT JUMPDEST POP PUSH2 0x12B PUSH2 0x6B0 JUMP JUMPDEST PUSH1 0x40 MLOAD PUSH2 0x138 SWAP2 SWAP1 PUSH2 0xA13 JUMP JUMPDEST PUSH1 0x40 MLOAD DUP1 SWAP2 SUB SWAP1 RETURN JUMPDEST PUSH1 0x0 DUP2 GT DUP1 ISZERO PUSH2 0x153 JUMPI POP PUSH1 0x0 SLOAD DUP2 GT ISZERO JUMPDEST PUSH2 0x192 JUMPI PUSH1 0x40 MLOAD PUSH32 0x8C379A000000000000000000000000000000000000000000000000000000000 DUP2 MSTORE PUSH1 0x4 ADD PUSH2 0x189 SWAP1 PUSH2 0xA7A JUMP JUMPDEST PUSH1 0x40 MLOAD DUP1 SWAP2 SUB SWAP1 REVERT JUMPDEST PUSH1 0x0 PUSH1 0x1 PUSH1 0x0 DUP4 DUP2 MSTORE PUSH1 0x20 ADD SWAP1 DUP2 MSTORE PUSH1 0x20 ADD PUSH1 0x0 KECCAK256 SWAP1 POP DUP1 PUSH1 0x4 ADD PUSH1 0x0 SWAP1 SLOAD SWAP1 PUSH2 0x100 EXP SWAP1 DIV PUSH1 0xFF AND PUSH2 0x1FA JUMPI PUSH1 0x40 MLOAD PUSH32 0x8C379A000000000000000000000000000000000000000000000000000000000 DUP2 MSTORE PUSH1 0x4 ADD PUSH2 0x1F1 SWAP1 PUSH2 0xAE6 JUMP JUMPDEST PUSH1 0x40 MLOAD DUP1 SWAP2 SUB SWAP1 REVERT JUMPDEST DUP1 PUSH1 0x3 ADD SLOAD CALLVALUE EQ PUSH2 0x240 JUMPI PUSH1 0x40 MLOAD PUSH32 0x8C379A000000000000000000000000000000000000000000000000000000000 DUP2 MSTORE PUSH1 0x4 ADD PUSH2 0x237 SWAP1 PUSH2 0xB78 JUMP JUMPDEST PUSH1 0x40 MLOAD DUP1 SWAP2 SUB SWAP1 REVERT JUMPDEST PUSH1 0x0 DUP2 PUSH1 0x4 ADD PUSH1 0x0 PUSH2 0x100 EXP DUP2 SLOAD DUP2 PUSH1 0xFF MUL NOT AND SWAP1 DUP4 ISZERO ISZERO MUL OR SWAP1 SSTORE POP PUSH32 0xEDFF126A959C32951B576FA2CE20C377C50349226898A5AB7DED1AE246A09C17 DUP3 CALLER DUP4 PUSH1 0x2 ADD DUP5 PUSH1 0x3 ADD SLOAD PUSH1 0x40 MLOAD PUSH2 0x299 SWAP5 SWAP4 SWAP3 SWAP2 SWAP1 PUSH2 0xC91 JUMP JUMPDEST PUSH1 0x40 MLOAD DUP1 SWAP2 SUB SWAP1 LOG1 POP POP JUMP JUMPDEST PUSH1 0x1 PUSH1 0x20 MSTORE DUP1 PUSH1 0x0 MSTORE PUSH1 0x40 PUSH1 0x0 KECCAK256 PUSH1 0x0 SWAP2 POP SWAP1 POP DUP1 PUSH1 0x0 ADD SLOAD SWAP1 DUP1 PUSH1 0x1 ADD PUSH1 0x0 SWAP1 SLOAD SWAP1 PUSH2 0x100 EXP SWAP1 DIV PUSH20 0xFFFFFFFFFFFFFFFFFFFFFFFFFFFFFFFFFFFFFFFF AND SWAP1 DUP1 PUSH1 0x2 ADD DUP1 SLOAD PUSH2 0x2F4 SWAP1 PUSH2 0xBC7 JUMP JUMPDEST DUP1 PUSH1 0x1F ADD PUSH1 0x20 DUP1 SWAP2 DIV MUL PUSH1 0x20 ADD PUSH1 0x40 MLOAD SWAP1 DUP2 ADD PUSH1 0x40 MSTORE DUP1 SWAP3 SWAP2 SWAP1 DUP2 DUP2 MSTORE PUSH1 0x20 ADD DUP3 DUP1 SLOAD PUSH2 0x320 SWAP1 PUSH2 0xBC7 JUMP JUMPDEST DUP1 ISZERO PUSH2 0x36D JUMPI DUP1 PUSH1 0x1F LT PUSH2 0x342 JUMPI PUSH2 0x100 DUP1 DUP4 SLOAD DIV MUL DUP4 MSTORE SWAP2 PUSH1 0x20 ADD SWAP2 PUSH2 0x36D JUMP JUMPDEST DUP3 ADD SWAP2 SWAP1 PUSH1 0x0 MSTORE PUSH1 0x20 PUSH1 0x0 KECCAK256 SWAP1 JUMPDEST DUP2 SLOAD DUP2 MSTORE SWAP1 PUSH1 0x1 ADD SWAP1 PUSH1 0x20 ADD DUP1 DUP4 GT PUSH2 0x350 JUMPI DUP3 SWAP1 SUB PUSH1 0x1F AND DUP3 ADD SWAP2 JUMPDEST POP POP POP POP POP SWAP1 DUP1 PUSH1 0x3 ADD SLOAD SWAP1 DUP1 PUSH1 0x4 ADD PUSH1 0x0 SWAP1 SLOAD SWAP1 PUSH2 0x100 EXP SWAP1 DIV PUSH1 0xFF AND SWAP1 POP DUP6 JUMP JUMPDEST PUSH1 0x0 DUP1 PUSH1 0x60 PUSH1 0x0 DUP1 PUSH1 0x0 DUP7 GT DUP1 ISZERO PUSH2 0x3AA JUMPI POP PUSH1 0x0 SLOAD DUP7 GT ISZERO JUMPDEST PUSH2 0x3E9 JUMPI PUSH1 0x40 MLOAD PUSH32 0x8C379A000000000000000000000000000000000000000000000000000000000 DUP2 MSTORE PUSH1 0x4 ADD PUSH2 0x3E0 SWAP1 PUSH2 0xD29 JUMP JUMPDEST PUSH1 0x40 MLOAD DUP1 SWAP2 SUB SWAP1 REVERT JUMPDEST PUSH1 0x0 PUSH1 0x1 PUSH1 0x0 DUP9 DUP2 MSTORE PUSH1 0x20 ADD SWAP1 DUP2 MSTORE PUSH1 0x20 ADD PUSH1 0x0 KECCAK256 SWAP1 POP DUP1 PUSH1 0x0 ADD SLOAD DUP2 PUSH1 0x1 ADD PUSH1 0x0 SWAP1 SLOAD SWAP1 PUSH2 0x100 EXP SWAP1 DIV PUSH20 0xFFFFFFFFFFFFFFFFFFFFFFFFFFFFFFFFFFFFFFFF AND DUP3 PUSH1 0x2 ADD DUP4 PUSH1 0x3 ADD SLOAD DUP5 PUSH1 0x4 ADD PUSH1 0x0 SWAP1 SLOAD SWAP1 PUSH2 0x100 EXP SWAP1 DIV PUSH1 0xFF AND DUP3 DUP1 SLOAD PUSH2 0x451 SWAP1 PUSH2 0xBC7 JUMP JUMPDEST DUP1 PUSH1 0x1F ADD PUSH1 0x20 DUP1 SWAP2 DIV MUL PUSH1 0x20 ADD PUSH1 0x40 MLOAD SWAP1 DUP2 ADD PUSH1 0x40 MSTORE DUP1 SWAP3 SWAP2 SWAP1 DUP2 DUP2 MSTORE PUSH1 0x20 ADD DUP3 DUP1 SLOAD PUSH2 0x47D SWAP1 PUSH2 0xBC7 JUMP JUMPDEST DUP1 ISZERO PUSH2 0x4CA JUMPI DUP1 PUSH1 0x1F LT PUSH2 0x49F JUMPI PUSH2 0x100 DUP1 DUP4 SLOAD DIV MUL DUP4 MSTORE SWAP2 PUSH1 0x20 ADD SWAP2 PUSH2 0x4CA JUMP JUMPDEST DUP3 ADD SWAP2 SWAP1 PUSH1 0x0 MSTORE PUSH1 0x20 PUSH1 0x0 KECCAK256 SWAP1 JUMPDEST DUP2 SLOAD DUP2 MSTORE SWAP1 PUSH1 0x1 ADD SWAP1 PUSH1 0x20 ADD DUP1 DUP4 GT PUSH2 0x4AD JUMPI DUP3 SWAP1 SUB PUSH1 0x1F AND DUP3 ADD SWAP2 JUMPDEST POP POP POP POP POP SWAP3 POP SWAP6 POP SWAP6 POP SWAP6 POP SWAP6 POP SWAP6 POP POP SWAP2 SWAP4 SWAP6 SWAP1 SWAP3 SWAP5 POP JUMP JUMPDEST PUSH1 0x0 DUP3 MLOAD GT PUSH2 0x529 JUMPI PUSH1 0x40 MLOAD PUSH32 0x8C379A000000000000000000000000000000000000000000000000000000000 DUP2 MSTORE PUSH1 0x4 ADD PUSH2 0x520 SWAP1 PUSH2 0xD95 JUMP JUMPDEST PUSH1 0x40 MLOAD DUP1 SWAP2 SUB SWAP1 REVERT JUMPDEST PUSH1 0x0 DUP2 GT PUSH2 0x56C JUMPI PUSH1 0x40 MLOAD PUSH32 0x8C379A000000000000000000000000000000000000000000000000000000000 DUP2 MSTORE PUSH1 0x4 ADD PUSH2 0x563 SWAP1 PUSH2 0xE27 JUMP JUMPDEST PUSH1 0x40 MLOAD DUP1 SWAP2 SUB SWAP1 REVERT JUMPDEST PUSH1 0x0 DUP1 DUP2 SLOAD DUP1 SWAP3 SWAP2 SWAP1 PUSH2 0x57E SWAP1 PUSH2 0xE76 JUMP JUMPDEST SWAP2 SWAP1 POP SSTORE POP PUSH1 0x40 MLOAD DUP1 PUSH1 0xA0 ADD PUSH1 0x40 MSTORE DUP1 PUSH1 0x0 SLOAD DUP2 MSTORE PUSH1 0x20 ADD CALLER PUSH20 0xFFFFFFFFFFFFFFFFFFFFFFFFFFFFFFFFFFFFFFFF AND DUP2 MSTORE PUSH1 0x20 ADD DUP4 DUP2 MSTORE PUSH1 0x20 ADD DUP3 DUP2 MSTORE PUSH1 0x20 ADD PUSH1 0x1 ISZERO ISZERO DUP2 MSTORE POP PUSH1 0x1 PUSH1 0x0 DUP1 SLOAD DUP2 MSTORE PUSH1 0x20 ADD SWAP1 DUP2 MSTORE PUSH1 0x20 ADD PUSH1 0x0 KECCAK256 PUSH1 0x0 DUP3 ADD MLOAD DUP2 PUSH1 0x0 ADD SSTORE PUSH1 0x20 DUP3 ADD MLOAD DUP2 PUSH1 0x1 ADD PUSH1 0x0 PUSH2 0x100 EXP DUP2 SLOAD DUP2 PUSH20 0xFFFFFFFFFFFFFFFFFFFFFFFFFFFFFFFFFFFFFFFF MUL NOT AND SWAP1 DUP4 PUSH20 0xFFFFFFFFFFFFFFFFFFFFFFFFFFFFFFFFFFFFFFFF AND MUL OR SWAP1 SSTORE POP PUSH1 0x40 DUP3 ADD MLOAD DUP2 PUSH1 0x2 ADD SWAP1 DUP2 PUSH2 0x63F SWAP2 SWAP1 PUSH2 0x1055 JUMP JUMPDEST POP PUSH1 0x60 DUP3 ADD MLOAD DUP2 PUSH1 0x3 ADD SSTORE PUSH1 0x80 DUP3 ADD MLOAD DUP2 PUSH1 0x4 ADD PUSH1 0x0 PUSH2 0x100 EXP DUP2 SLOAD DUP2 PUSH1 0xFF MUL NOT AND SWAP1 DUP4 ISZERO ISZERO MUL OR SWAP1 SSTORE POP SWAP1 POP POP PUSH32 0x86BA2F4A4D754320055FF8C07AA554C74E8535895BC672FED416C8395FAE0020 PUSH1 0x0 SLOAD CALLER DUP5 DUP5 PUSH1 0x40 MLOAD PUSH2 0x6A4 SWAP5 SWAP4 SWAP3 SWAP2 SWAP1 PUSH2 0x1127 JUMP JUMPDEST PUSH1 0x40 MLOAD DUP1 SWAP2 SUB SWAP1 LOG1 POP POP JUMP JUMPDEST PUSH1 0x0 SLOAD DUP2 JUMP JUMPDEST PUSH1 0x0 PUSH1 0x40 MLOAD SWAP1 POP SWAP1 JUMP JUMPDEST PUSH1 0x0 DUP1 REVERT JUMPDEST PUSH1 0x0 DUP1 REVERT JUMPDEST PUSH1 0x0 DUP2 SWAP1 POP SWAP2 SWAP1 POP JUMP JUMPDEST PUSH2 0x6DD DUP2 PUSH2 0x6CA JUMP JUMPDEST DUP2 EQ PUSH2 0x6E8 JUMPI PUSH1 0x0 DUP1 REVERT JUMPDEST POP JUMP JUMPDEST PUSH1 0x0 DUP2 CALLDATALOAD SWAP1 POP PUSH2 0x6FA DUP2 PUSH2 0x6D4 JUMP JUMPDEST SWAP3 SWAP2 POP POP JUMP JUMPDEST PUSH1 0x0 PUSH1 0x20 DUP3 DUP5 SUB SLT ISZERO PUSH2 0x716 JUMPI PUSH2 0x715 PUSH2 0x6C0 JUMP JUMPDEST JUMPDEST PUSH1 0x0 PUSH2 0x724 DUP5 DUP3 DUP6 ADD PUSH2 0x6EB JUMP JUMPDEST SWAP2 POP POP SWAP3 SWAP2 POP POP JUMP JUMPDEST PUSH2 0x736 DUP2 PUSH2 0x6CA JUMP JUMPDEST DUP3 MSTORE POP POP JUMP JUMPDEST PUSH1 0x0 PUSH20 0xFFFFFFFFFFFFFFFFFFFFFFFFFFFFFFFFFFFFFFFF DUP3 AND SWAP1 POP SWAP2 SWAP1 POP JUMP JUMPDEST PUSH1 0x0 PUSH2 0x767 DUP3 PUSH2 0x73C JUMP JUMPDEST SWAP1 POP SWAP2 SWAP1 POP JUMP JUMPDEST PUSH2 0x777 DUP2 PUSH2 0x75C JUMP JUMPDEST DUP3 MSTORE POP POP JUMP JUMPDEST PUSH1 0x0 DUP2 MLOAD SWAP1 POP SWAP2 SWAP1 POP JUMP JUMPDEST PUSH1 0x0 DUP3 DUP3 MSTORE PUSH1 0x20 DUP3 ADD SWAP1 POP SWAP3 SWAP2 POP POP JUMP JUMPDEST PUSH1 0x0 JUMPDEST DUP4 DUP2 LT ISZERO PUSH2 0x7B7 JUMPI DUP1 DUP3 ADD MLOAD DUP2 DUP5 ADD MSTORE PUSH1 0x20 DUP2 ADD SWAP1 POP PUSH2 0x79C JUMP JUMPDEST PUSH1 0x0 DUP5 DUP5 ADD MSTORE POP POP POP POP JUMP JUMPDEST PUSH1 0x0 PUSH1 0x1F NOT PUSH1 0x1F DUP4 ADD AND SWAP1 POP SWAP2 SWAP1 POP JUMP JUMPDEST PUSH1 0x0 PUSH2 0x7DF DUP3 PUSH2 0x77D JUMP JUMPDEST PUSH2 0x7E9 DUP2 DUP6 PUSH2 0x788 JUMP JUMPDEST SWAP4 POP PUSH2 0x7F9 DUP2 DUP6 PUSH1 0x20 DUP7 ADD PUSH2 0x799 JUMP JUMPDEST PUSH2 0x802 DUP2 PUSH2 0x7C3 JUMP JUMPDEST DUP5 ADD SWAP2 POP POP SWAP3 SWAP2 POP POP JUMP JUMPDEST PUSH1 0x0 DUP2 ISZERO ISZERO SWAP1 POP SWAP2 SWAP1 POP JUMP JUMPDEST PUSH2 0x822 DUP2 PUSH2 0x80D JUMP JUMPDEST DUP3 MSTORE POP POP JUMP JUMPDEST PUSH1 0x0 PUSH1 0xA0 DUP3 ADD SWAP1 POP PUSH2 0x83D PUSH1 0x0 DUP4 ADD DUP9 PUSH2 0x72D JUMP JUMPDEST PUSH2 0x84A PUSH1 0x20 DUP4 ADD DUP8 PUSH2 0x76E JUMP JUMPDEST DUP2 DUP2 SUB PUSH1 0x40 DUP4 ADD MSTORE PUSH2 0x85C DUP2 DUP7 PUSH2 0x7D4 JUMP JUMPDEST SWAP1 POP PUSH2 0x86B PUSH1 0x60 DUP4 ADD DUP6 PUSH2 0x72D JUMP JUMPDEST PUSH2 0x878 PUSH1 0x80 DUP4 ADD DUP5 PUSH2 0x819 JUMP JUMPDEST SWAP7 SWAP6 POP POP POP POP POP POP JUMP JUMPDEST PUSH1 0x0 DUP1 REVERT JUMPDEST PUSH1 0x0 DUP1 REVERT JUMPDEST PUSH32 0x4E487B7100000000000000000000000000000000000000000000000000000000 PUSH1 0x0 MSTORE PUSH1 0x41 PUSH1 0x4 MSTORE PUSH1 0x24 PUSH1 0x0 REVERT JUMPDEST PUSH2 0x8C4 DUP3 PUSH2 0x7C3 JUMP JUMPDEST DUP2 ADD DUP2 DUP2 LT PUSH8 0xFFFFFFFFFFFFFFFF DUP3 GT OR ISZERO PUSH2 0x8E3 JUMPI PUSH2 0x8E2 PUSH2 0x88C JUMP JUMPDEST JUMPDEST DUP1 PUSH1 0x40 MSTORE POP POP POP JUMP JUMPDEST PUSH1 0x0 PUSH2 0x8F6 PUSH2 0x6B6 JUMP JUMPDEST SWAP1 POP PUSH2 0x902 DUP3 DUP3 PUSH2 0x8BB JUMP JUMPDEST SWAP2 SWAP1 POP JUMP JUMPDEST PUSH1 0x0 PUSH8 0xFFFFFFFFFFFFFFFF DUP3 GT ISZERO PUSH2 0x922 JUMPI PUSH2 0x921 PUSH2 0x88C JUMP JUMPDEST JUMPDEST PUSH2 0x92B DUP3 PUSH2 0x7C3 JUMP JUMPDEST SWAP1 POP PUSH1 0x20 DUP2 ADD SWAP1 POP SWAP2 SWAP1 POP JUMP JUMPDEST DUP3 DUP2 DUP4 CALLDATACOPY PUSH1 0x0 DUP4 DUP4 ADD MSTORE POP POP POP JUMP JUMPDEST PUSH1 0x0 PUSH2 0x95A PUSH2 0x955 DUP5 PUSH2 0x907 JUMP JUMPDEST PUSH2 0x8EC JUMP JUMPDEST SWAP1 POP DUP3 DUP2 MSTORE PUSH1 0x20 DUP2 ADD DUP5 DUP5 DUP5 ADD GT ISZERO PUSH2 0x976 JUMPI PUSH2 0x975 PUSH2 0x887 JUMP JUMPDEST JUMPDEST PUSH2 0x981 DUP5 DUP3 DUP6 PUSH2 0x938 JUMP JUMPDEST POP SWAP4 SWAP3 POP POP POP JUMP JUMPDEST PUSH1 0x0 DUP3 PUSH1 0x1F DUP4 ADD SLT PUSH2 0x99E JUMPI PUSH2 0x99D PUSH2 0x882 JUMP JUMPDEST JUMPDEST DUP2 CALLDATALOAD PUSH2 0x9AE DUP5 DUP3 PUSH1 0x20 DUP7 ADD PUSH2 0x947 JUMP JUMPDEST SWAP2 POP POP SWAP3 SWAP2 POP POP JUMP JUMPDEST PUSH1 0x0 DUP1 PUSH1 0x40 DUP4 DUP6 SUB SLT ISZERO PUSH2 0x9CE JUMPI PUSH2 0x9CD PUSH2 0x6C0 JUMP JUMPDEST JUMPDEST PUSH1 0x0 DUP4 ADD CALLDATALOAD PUSH8 0xFFFFFFFFFFFFFFFF DUP2 GT ISZERO PUSH2 0x9EC JUMPI PUSH2 0x9EB PUSH2 0x6C5 JUMP JUMPDEST JUMPDEST PUSH2 0x9F8 DUP6 DUP3 DUP7 ADD PUSH2 0x989 JUMP JUMPDEST SWAP3 POP POP PUSH1 0x20 PUSH2 0xA09 DUP6 DUP3 DUP7 ADD PUSH2 0x6EB JUMP JUMPDEST SWAP2 POP POP SWAP3 POP SWAP3 SWAP1 POP JUMP JUMPDEST PUSH1 0x0 PUSH1 0x20 DUP3 ADD SWAP1 POP PUSH2 0xA28 PUSH1 0x0 DUP4 ADD DUP5 PUSH2 0x72D JUMP JUMPDEST SWAP3 SWAP2 POP POP JUMP JUMPDEST PUSH32 0x496E76616C6964207469636B6574204944000000000000000000000000000000 PUSH1 0x0 DUP3 ADD MSTORE POP JUMP JUMPDEST PUSH1 0x0 PUSH2 0xA64 PUSH1 0x11 DUP4 PUSH2 0x788 JUMP JUMPDEST SWAP2 POP PUSH2 0xA6F DUP3 PUSH2 0xA2E JUMP JUMPDEST PUSH1 0x20 DUP3 ADD SWAP1 POP SWAP2 SWAP1 POP JUMP JUMPDEST PUSH1 0x0 PUSH1 0x20 DUP3 ADD SWAP1 POP DUP2 DUP2 SUB PUSH1 0x0 DUP4 ADD MSTORE PUSH2 0xA93 DUP2 PUSH2 0xA57 JUMP JUMPDEST SWAP1 POP SWAP2 SWAP1 POP JUMP JUMPDEST PUSH32 0x5469636B6574206E6F7420617661696C61626C65000000000000000000000000 PUSH1 0x0 DUP3 ADD MSTORE POP JUMP JUMPDEST PUSH1 0x0 PUSH2 0xAD0 PUSH1 0x14 DUP4 PUSH2 0x788 JUMP JUMPDEST SWAP2 POP PUSH2 0xADB DUP3 PUSH2 0xA9A JUMP JUMPDEST PUSH1 0x20 DUP3 ADD SWAP1 POP SWAP2 SWAP1 POP JUMP JUMPDEST PUSH1 0x0 PUSH1 0x20 DUP3 ADD SWAP1 POP DUP2 DUP2 SUB PUSH1 0x0 DUP4 ADD MSTORE PUSH2 0xAFF DUP2 PUSH2 0xAC3 JUMP JUMPDEST SWAP1 POP SWAP2 SWAP1 POP JUMP JUMPDEST PUSH32 0x4E6F7420612076616C696420616D6F756E7420666F7220627579696E67207468 PUSH1 0x0 DUP3 ADD MSTORE PUSH32 0x65207469636B6574000000000000000000000000000000000000000000000000 PUSH1 0x20 DUP3 ADD MSTORE POP JUMP JUMPDEST PUSH1 0x0 PUSH2 0xB62 PUSH1 0x28 DUP4 PUSH2 0x788 JUMP JUMPDEST SWAP2 POP PUSH2 0xB6D DUP3 PUSH2 0xB06 JUMP JUMPDEST PUSH1 0x40 DUP3 ADD SWAP1 POP SWAP2 SWAP1 POP JUMP JUMPDEST PUSH1 0x0 PUSH1 0x20 DUP3 ADD SWAP1 POP DUP2 DUP2 SUB PUSH1 0x0 DUP4 ADD MSTORE PUSH2 0xB91 DUP2 PUSH2 0xB55 JUMP JUMPDEST SWAP1 POP SWAP2 SWAP1 POP JUMP JUMPDEST PUSH32 0x4E487B7100000000000000000000000000000000000000000000000000000000 PUSH1 0x0 MSTORE PUSH1 0x22 PUSH1 0x4 MSTORE PUSH1 0x24 PUSH1 0x0 REVERT JUMPDEST PUSH1 0x0 PUSH1 0x2 DUP3 DIV SWAP1 POP PUSH1 0x1 DUP3 AND DUP1 PUSH2 0xBDF JUMPI PUSH1 0x7F DUP3 AND SWAP2 POP JUMPDEST PUSH1 0x20 DUP3 LT DUP2 SUB PUSH2 0xBF2 JUMPI PUSH2 0xBF1 PUSH2 0xB98 JUMP JUMPDEST JUMPDEST POP SWAP2 SWAP1 POP JUMP JUMPDEST PUSH1 0x0 DUP2 SWAP1 POP DUP2 PUSH1 0x0 MSTORE PUSH1 0x20 PUSH1 0x0 KECCAK256 SWAP1 POP SWAP2 SWAP1 POP JUMP JUMPDEST PUSH1 0x0 DUP2 SLOAD PUSH2 0xC1A DUP2 PUSH2 0xBC7 JUMP JUMPDEST PUSH2 0xC24 DUP2 DUP7 PUSH2 0x788 JUMP JUMPDEST SWAP5 POP PUSH1 0x1 DUP3 AND PUSH1 0x0 DUP2 EQ PUSH2 0xC3F JUMPI PUSH1 0x1 DUP2 EQ PUSH2 0xC55 JUMPI PUSH2 0xC88 JUMP JUMPDEST PUSH1 0xFF NOT DUP4 AND DUP7 MSTORE DUP2 ISZERO ISZERO PUSH1 0x20 MUL DUP7 ADD SWAP4 POP PUSH2 0xC88 JUMP JUMPDEST PUSH2 0xC5E DUP6 PUSH2 0xBF8 JUMP JUMPDEST PUSH1 0x0 JUMPDEST DUP4 DUP2 LT ISZERO PUSH2 0xC80 JUMPI DUP2 SLOAD DUP2 DUP10 ADD MSTORE PUSH1 0x1 DUP3 ADD SWAP2 POP PUSH1 0x20 DUP2 ADD SWAP1 POP PUSH2 0xC61 JUMP JUMPDEST DUP1 DUP9 ADD SWAP6 POP POP POP JUMPDEST POP POP POP SWAP3 SWAP2 POP POP JUMP JUMPDEST PUSH1 0x0 PUSH1 0x80 DUP3 ADD SWAP1 POP PUSH2 0xCA6 PUSH1 0x0 DUP4 ADD DUP8 PUSH2 0x72D JUMP JUMPDEST PUSH2 0xCB3 PUSH1 0x20 DUP4 ADD DUP7 PUSH2 0x76E JUMP JUMPDEST DUP2 DUP2 SUB PUSH1 0x40 DUP4 ADD MSTORE PUSH2 0xCC5 DUP2 DUP6 PUSH2 0xC0D JUMP JUMPDEST SWAP1 POP PUSH2 0xCD4 PUSH1 0x60 DUP4 ADD DUP5 PUSH2 0x72D JUMP JUMPDEST SWAP6 SWAP5 POP POP POP POP POP JUMP JUMPDEST PUSH32 0x496E76616C6964205469636B6574204944000000000000000000000000000000 PUSH1 0x0 DUP3 ADD MSTORE POP JUMP JUMPDEST PUSH1 0x0 PUSH2 0xD13 PUSH1 0x11 DUP4 PUSH2 0x788 JUMP JUMPDEST SWAP2 POP PUSH2 0xD1E DUP3 PUSH2 0xCDD JUMP JUMPDEST PUSH1 0x20 DUP3 ADD SWAP1 POP SWAP2 SWAP1 POP JUMP JUMPDEST PUSH1 0x0 PUSH1 0x20 DUP3 ADD SWAP1 POP DUP2 DUP2 SUB PUSH1 0x0 DUP4 ADD MSTORE PUSH2 0xD42 DUP2 PUSH2 0xD06 JUMP JUMPDEST SWAP1 POP SWAP2 SWAP1 POP JUMP JUMPDEST PUSH32 0x4576656E74206E616D652063616E6E6F7420626520656D707479000000000000 PUSH1 0x0 DUP3 ADD MSTORE POP JUMP JUMPDEST PUSH1 0x0 PUSH2 0xD7F PUSH1 0x1A DUP4 PUSH2 0x788 JUMP JUMPDEST SWAP2 POP PUSH2 0xD8A DUP3 PUSH2 0xD49 JUMP JUMPDEST PUSH1 0x20 DUP3 ADD SWAP1 POP SWAP2 SWAP1 POP JUMP JUMPDEST PUSH1 0x0 PUSH1 0x20 DUP3 ADD SWAP1 POP DUP2 DUP2 SUB PUSH1 0x0 DUP4 ADD MSTORE PUSH2 0xDAE DUP2 PUSH2 0xD72 JUMP JUMPDEST SWAP1 POP SWAP2 SWAP1 POP JUMP JUMPDEST PUSH32 0x5469636B6574207072696365206D757374206265206772656174657220746861 PUSH1 0x0 DUP3 ADD MSTORE PUSH32 0x6E207A65726F0000000000000000000000000000000000000000000000000000 PUSH1 0x20 DUP3 ADD MSTORE POP JUMP JUMPDEST PUSH1 0x0 PUSH2 0xE11 PUSH1 0x26 DUP4 PUSH2 0x788 JUMP JUMPDEST SWAP2 POP PUSH2 0xE1C DUP3 PUSH2 0xDB5 JUMP JUMPDEST PUSH1 0x40 DUP3 ADD SWAP1 POP SWAP2 SWAP1 POP JUMP JUMPDEST PUSH1 0x0 PUSH1 0x20 DUP3 ADD SWAP1 POP DUP2 DUP2 SUB PUSH1 0x0 DUP4 ADD MSTORE PUSH2 0xE40 DUP2 PUSH2 0xE04 JUMP JUMPDEST SWAP1 POP SWAP2 SWAP1 POP JUMP JUMPDEST PUSH32 0x4E487B7100000000000000000000000000000000000000000000000000000000 PUSH1 0x0 MSTORE PUSH1 0x11 PUSH1 0x4 MSTORE PUSH1 0x24 PUSH1 0x0 REVERT JUMPDEST PUSH1 0x0 PUSH2 0xE81 DUP3 PUSH2 0x6CA JUMP JUMPDEST SWAP2 POP PUSH32 0xFFFFFFFFFFFFFFFFFFFFFFFFFFFFFFFFFFFFFFFFFFFFFFFFFFFFFFFFFFFFFFFF DUP3 SUB PUSH2 0xEB3 JUMPI PUSH2 0xEB2 PUSH2 0xE47 JUMP JUMPDEST JUMPDEST PUSH1 0x1 DUP3 ADD SWAP1 POP SWAP2 SWAP1 POP JUMP JUMPDEST PUSH1 0x0 PUSH1 0x20 PUSH1 0x1F DUP4 ADD DIV SWAP1 POP SWAP2 SWAP1 POP JUMP JUMPDEST PUSH1 0x0 DUP3 DUP3 SHL SWAP1 POP SWAP3 SWAP2 POP POP JUMP JUMPDEST PUSH1 0x0 PUSH1 0x8 DUP4 MUL PUSH2 0xF0B PUSH32 0xFFFFFFFFFFFFFFFFFFFFFFFFFFFFFFFFFFFFFFFFFFFFFFFFFFFFFFFFFFFFFFFF DUP3 PUSH2 0xECE JUMP JUMPDEST PUSH2 0xF15 DUP7 DUP4 PUSH2 0xECE JUMP JUMPDEST SWAP6 POP DUP1 NOT DUP5 AND SWAP4 POP DUP1 DUP7 AND DUP5 OR SWAP3 POP POP POP SWAP4 SWAP3 POP POP POP JUMP JUMPDEST PUSH1 0x0 DUP2 SWAP1 POP SWAP2 SWAP1 POP JUMP JUMPDEST PUSH1 0x0 PUSH2 0xF52 PUSH2 0xF4D PUSH2 0xF48 DUP5 PUSH2 0x6CA JUMP JUMPDEST PUSH2 0xF2D JUMP JUMPDEST PUSH2 0x6CA JUMP JUMPDEST SWAP1 POP SWAP2 SWAP1 POP JUMP JUMPDEST PUSH1 0x0 DUP2 SWAP1 POP SWAP2 SWAP1 POP JUMP JUMPDEST PUSH2 0xF6C DUP4 PUSH2 0xF37 JUMP JUMPDEST PUSH2 0xF80 PUSH2 0xF78 DUP3 PUSH2 0xF59 JUMP JUMPDEST DUP5 DUP5 SLOAD PUSH2 0xEDB JUMP JUMPDEST DUP3 SSTORE POP POP POP POP JUMP JUMPDEST PUSH1 0x0 SWAP1 JUMP JUMPDEST PUSH2 0xF95 PUSH2 0xF88 JUMP JUMPDEST PUSH2 0xFA0 DUP2 DUP5 DUP5 PUSH2 0xF63 JUMP JUMPDEST POP POP POP JUMP JUMPDEST JUMPDEST DUP2 DUP2 LT ISZERO PUSH2 0xFC4 JUMPI PUSH2 0xFB9 PUSH1 0x0 DUP3 PUSH2 0xF8D JUMP JUMPDEST PUSH1 0x1 DUP2 ADD SWAP1 POP PUSH2 0xFA6 JUMP JUMPDEST POP POP JUMP JUMPDEST PUSH1 0x1F DUP3 GT ISZERO PUSH2 0x1009 JUMPI PUSH2 0xFDA DUP2 PUSH2 0xBF8 JUMP JUMPDEST PUSH2 0xFE3 DUP5 PUSH2 0xEBE JUMP JUMPDEST DUP2 ADD PUSH1 0x20 DUP6 LT ISZERO PUSH2 0xFF2 JUMPI DUP2 SWAP1 POP JUMPDEST PUSH2 0x1006 PUSH2 0xFFE DUP6 PUSH2 0xEBE JUMP JUMPDEST DUP4 ADD DUP3 PUSH2 0xFA5 JUMP JUMPDEST POP POP JUMPDEST POP POP POP JUMP JUMPDEST PUSH1 0x0 DUP3 DUP3 SHR SWAP1 POP SWAP3 SWAP2 POP POP JUMP JUMPDEST PUSH1 0x0 PUSH2 0x102C PUSH1 0x0 NOT DUP5 PUSH1 0x8 MUL PUSH2 0x100E JUMP JUMPDEST NOT DUP1 DUP4 AND SWAP2 POP POP SWAP3 SWAP2 POP POP JUMP JUMPDEST PUSH1 0x0 PUSH2 0x1045 DUP4 DUP4 PUSH2 0x101B JUMP JUMPDEST SWAP2 POP DUP3 PUSH1 0x2 MUL DUP3 OR SWAP1 POP SWAP3 SWAP2 POP POP JUMP JUMPDEST PUSH2 0x105E DUP3 PUSH2 0x77D JUMP JUMPDEST PUSH8 0xFFFFFFFFFFFFFFFF DUP2 GT ISZERO PUSH2 0x1077 JUMPI PUSH2 0x1076 PUSH2 0x88C JUMP JUMPDEST JUMPDEST PUSH2 0x1081 DUP3 SLOAD PUSH2 0xBC7 JUMP JUMPDEST PUSH2 0x108C DUP3 DUP3 DUP6 PUSH2 0xFC8 JUMP JUMPDEST PUSH1 0x0 PUSH1 0x20 SWAP1 POP PUSH1 0x1F DUP4 GT PUSH1 0x1 DUP2 EQ PUSH2 0x10BF JUMPI PUSH1 0x0 DUP5 ISZERO PUSH2 0x10AD JUMPI DUP3 DUP8 ADD MLOAD SWAP1 POP JUMPDEST PUSH2 0x10B7 DUP6 DUP3 PUSH2 0x1039 JUMP JUMPDEST DUP7 SSTORE POP PUSH2 0x111F JUMP JUMPDEST PUSH1 0x1F NOT DUP5 AND PUSH2 0x10CD DUP7 PUSH2 0xBF8 JUMP JUMPDEST PUSH1 0x0 JUMPDEST DUP3 DUP2 LT ISZERO PUSH2 0x10F5 JUMPI DUP5 DUP10 ADD MLOAD DUP3 SSTORE PUSH1 0x1 DUP3 ADD SWAP2 POP PUSH1 0x20 DUP6 ADD SWAP5 POP PUSH1 0x20 DUP2 ADD SWAP1 POP PUSH2 0x10D0 JUMP JUMPDEST DUP7 DUP4 LT ISZERO PUSH2 0x1112 JUMPI DUP5 DUP10 ADD MLOAD PUSH2 0x110E PUSH1 0x1F DUP10 AND DUP3 PUSH2 0x101B JUMP JUMPDEST DUP4 SSTORE POP JUMPDEST PUSH1 0x1 PUSH1 0x2 DUP9 MUL ADD DUP9 SSTORE POP POP POP JUMPDEST POP POP POP POP POP POP JUMP JUMPDEST PUSH1 0x0 PUSH1 0x80 DUP3 ADD SWAP1 POP PUSH2 0x113C PUSH1 0x0 DUP4 ADD DUP8 PUSH2 0x72D JUMP JUMPDEST PUSH2 0x1149 PUSH1 0x20 DUP4 ADD DUP7 PUSH2 0x76E JUMP JUMPDEST DUP2 DUP2 SUB PUSH1 0x40 DUP4 ADD MSTORE PUSH2 0x115B DUP2 DUP6 PUSH2 0x7D4 JUMP JUMPDEST SWAP1 POP PUSH2 0x116A PUSH1 0x60 DUP4 ADD DUP5 PUSH2 0x72D JUMP JUMPDEST SWAP6 SWAP5 POP POP POP POP POP JUMP INVALID LOG2 PUSH5 0x6970667358 0x22 SLT KECCAK256 CODESIZE SAR SWAP6 PUSH23 0x8B88D7FD39DF7FCCB9F8C4A5AB98AFA070219FD9C7501A 0x21 0xCF ISZERO CHAINID 0xA9 PUSH5 0x736F6C6343 STOP ADDMOD SLT STOP CALLER "
				},
				"gasEstimates": {
					"creation": {
						"codeDepositCost": "904200",
						"executionCost": "942",
						"totalCost": "905142"
					},
					"external": {
						"PurchaseTicket(uint256)": "infinite",
						"createTicket(string,uint256)": "infinite",
						"getTicket(uint256)": "infinite",
						"ticketCount()": "2495",
						"tickets(uint256)": "infinite"
					}
				},
				"methodIdentifiers": {
					"PurchaseTicket(uint256)": "4283f7f1",
					"createTicket(string,uint256)": "8729004f",
					"getTicket(uint256)": "7dc379fa",
					"ticketCount()": "cfbd900f",
					"tickets(uint256)": "50b44712"
				}
			},
			"storageLayout": {
				"storage": [
					{
						"astId": 14,
						"contract": "contracts/ticket.sol:TicketingSystem",
						"label": "ticketCount",
						"offset": 0,
						"slot": "0",
						"type": "t_uint256"
					},
					{
						"astId": 19,
						"contract": "contracts/ticket.sol:TicketingSystem",
						"label": "tickets",
						"offset": 0,
						"slot": "1",
						"type": "t_mapping(t_uint256,t_struct(Ticket)12_storage)"
					}
				],
				"types": {
					"t_address": {
						"encoding": "inplace",
						"label": "address",
						"numberOfBytes": "20"
					},
					"t_bool": {
						"encoding": "inplace",
						"label": "bool",
						"numberOfBytes": "1"
					},
					"t_mapping(t_uint256,t_struct(Ticket)12_storage)": {
						"encoding": "mapping",
						"key": "t_uint256",
						"label": "mapping(uint256 => struct TicketingSystem.Ticket)",
						"numberOfBytes": "32",
						"value": "t_struct(Ticket)12_storage"
					},
					"t_string_storage": {
						"encoding": "bytes",
						"label": "string",
						"numberOfBytes": "32"
					},
					"t_struct(Ticket)12_storage": {
						"encoding": "inplace",
						"label": "struct TicketingSystem.Ticket",
						"members": [
							{
								"astId": 3,
								"contract": "contracts/ticket.sol:TicketingSystem",
								"label": "id",
								"offset": 0,
								"slot": "0",
								"type": "t_uint256"
							},
							{
								"astId": 5,
								"contract": "contracts/ticket.sol:TicketingSystem",
								"label": "seller",
								"offset": 0,
								"slot": "1",
								"type": "t_address"
							},
							{
								"astId": 7,
								"contract": "contracts/ticket.sol:TicketingSystem",
								"label": "eventName",
								"offset": 0,
								"slot": "2",
								"type": "t_string_storage"
							},
							{
								"astId": 9,
								"contract": "contracts/ticket.sol:TicketingSystem",
								"label": "price",
								"offset": 0,
								"slot": "3",
								"type": "t_uint256"
							},
							{
								"astId": 11,
								"contract": "contracts/ticket.sol:TicketingSystem",
								"label": "available",
								"offset": 0,
								"slot": "4",
								"type": "t_bool"
							}
						],
						"numberOfBytes": "160"
					},
					"t_uint256": {
						"encoding": "inplace",
						"label": "uint256",
						"numberOfBytes": "32"
					}
				}
			},
			"userdoc": {
				"kind": "user",
				"methods": {},
				"version": 1
			}
		}
	}
}