{
	"contracts/simple_vote.sol": {
		"Voting": {
			"abi": [
				{
					"inputs": [
						{
							"internalType": "address",
							"name": "",
							"type": "address"
						}
					],
					"name": "hasVoted",
					"outputs": [
						{
							"internalType": "bool",
							"name": "",
							"type": "bool"
						}
					],
					"stateMutability": "view",
					"type": "function"
				},
				{
					"inputs": [
						{
							"internalType": "string",
							"name": "candidate",
							"type": "string"
						}
					],
					"name": "vote",
					"outputs": [],
					"stateMutability": "nonpayable",
					"type": "function"
				},
				{
					"inputs": [
						{
							"internalType": "string",
							"name": "",
							"type": "string"
						}
					],
					"name": "voteCount",
					"outputs": [
						{
							"internalType": "uint256",
							"name": "",
							"type": "uint256"
						}
					],
					"stateMutability": "view",
					"type": "function"
				}
			],
			"devdoc": {
				"kind": "dev",
				"methods": {},
				"version": 1
			},
			"evm": {
				"assembly": "    /* \"contracts/simple_vote.sol\":58:354  contract Voting {... */\n  mstore(0x40, 0x80)\n  callvalue\n  dup1\n  iszero\n  tag_1\n  jumpi\n  0x00\n  dup1\n  revert\ntag_1:\n  pop\n  dataSize(sub_0)\n  dup1\n  dataOffset(sub_0)\n  0x00\n  codecopy\n  0x00\n  return\nstop\n\nsub_0: assembly {\n        /* \"contracts/simple_vote.sol\":58:354  contract Voting {... */\n      mstore(0x40, 0x80)\n      callvalue\n      dup1\n      iszero\n      tag_1\n      jumpi\n      0x00\n      dup1\n      revert\n    tag_1:\n      pop\n      jumpi(tag_2, lt(calldatasize, 0x04))\n      shr(0xe0, calldataload(0x00))\n      dup1\n      0x09eef43e\n      eq\n      tag_3\n      jumpi\n      dup1\n      0xba7f7552\n      eq\n      tag_4\n      jumpi\n      dup1\n      0xfc36e15b\n      eq\n      tag_5\n      jumpi\n    tag_2:\n      0x00\n      dup1\n      revert\n        /* \"contracts/simple_vote.sol\":80:120  mapping(address => bool) public hasVoted */\n    tag_3:\n      tag_6\n      0x04\n      dup1\n      calldatasize\n      sub\n      dup2\n      add\n      swap1\n      tag_7\n      swap2\n      swap1\n      tag_8\n      jump\t// in\n    tag_7:\n      tag_9\n      jump\t// in\n    tag_6:\n      mload(0x40)\n      tag_10\n      swap2\n      swap1\n      tag_11\n      jump\t// in\n    tag_10:\n      mload(0x40)\n      dup1\n      swap2\n      sub\n      swap1\n      return\n        /* \"contracts/simple_vote.sol\":126:166  mapping(string => uint) public voteCount */\n    tag_4:\n      tag_12\n      0x04\n      dup1\n      calldatasize\n      sub\n      dup2\n      add\n      swap1\n      tag_13\n      swap2\n      swap1\n      tag_14\n      jump\t// in\n    tag_13:\n      tag_15\n      jump\t// in\n    tag_12:\n      mload(0x40)\n      tag_16\n      swap2\n      swap1\n      tag_17\n      jump\t// in\n    tag_16:\n      mload(0x40)\n      dup1\n      swap2\n      sub\n      swap1\n      return\n        /* \"contracts/simple_vote.sol\":173:352  function vote(string memory candidate) public {... */\n    tag_5:\n      tag_18\n      0x04\n      dup1\n      calldatasize\n      sub\n      dup2\n      add\n      swap1\n      tag_19\n      swap2\n      swap1\n      tag_14\n      jump\t// in\n    tag_19:\n      tag_20\n      jump\t// in\n    tag_18:\n      stop\n        /* \"contracts/simple_vote.sol\":80:120  mapping(address => bool) public hasVoted */\n    tag_9:\n      mstore(0x20, 0x00)\n      dup1\n      0x00\n      mstore\n      keccak256(0x00, 0x40)\n      0x00\n      swap2\n      pop\n      sload\n      swap1\n      0x0100\n      exp\n      swap1\n      div\n      0xff\n      and\n      dup2\n      jump\t// out\n        /* \"contracts/simple_vote.sol\":126:166  mapping(string => uint) public voteCount */\n    tag_15:\n      0x01\n      dup2\n      dup1\n      mload\n      0x20\n      dup2\n      add\n      dup3\n      add\n      dup1\n      mload\n      dup5\n      dup3\n      mstore\n      0x20\n      dup4\n      add\n      0x20\n      dup6\n      add\n      keccak256\n      dup2\n      dup4\n      mstore\n      dup1\n      swap6\n      pop\n      pop\n      pop\n      pop\n      pop\n      pop\n      0x00\n      swap2\n      pop\n      swap1\n      pop\n      sload\n      dup2\n      jump\t// out\n        /* \"contracts/simple_vote.sol\":173:352  function vote(string memory candidate) public {... */\n    tag_20:\n        /* \"contracts/simple_vote.sol\":238:246  hasVoted */\n      0x00\n        /* \"contracts/simple_vote.sol\":238:258  hasVoted[msg.sender] */\n      dup1\n        /* \"contracts/simple_vote.sol\":247:257  msg.sender */\n      caller\n        /* \"contracts/simple_vote.sol\":238:258  hasVoted[msg.sender] */\n      0xffffffffffffffffffffffffffffffffffffffff\n      and\n      0xffffffffffffffffffffffffffffffffffffffff\n      and\n      dup2\n      mstore\n      0x20\n      add\n      swap1\n      dup2\n      mstore\n      0x20\n      add\n      0x00\n      keccak256\n      0x00\n      swap1\n      sload\n      swap1\n      0x0100\n      exp\n      swap1\n      div\n      0xff\n      and\n        /* \"contracts/simple_vote.sol\":237:258  !hasVoted[msg.sender] */\n      iszero\n        /* \"contracts/simple_vote.sol\":229:276  require(!hasVoted[msg.sender], \"Already voted\") */\n      tag_22\n      jumpi\n      mload(0x40)\n      0x08c379a000000000000000000000000000000000000000000000000000000000\n      dup2\n      mstore\n      0x04\n      add\n      tag_23\n      swap1\n      tag_24\n      jump\t// in\n    tag_23:\n      mload(0x40)\n      dup1\n      swap2\n      sub\n      swap1\n      revert\n    tag_22:\n        /* \"contracts/simple_vote.sol\":286:295  voteCount */\n      0x01\n        /* \"contracts/simple_vote.sol\":296:305  candidate */\n      dup2\n        /* \"contracts/simple_vote.sol\":286:306  voteCount[candidate] */\n      mload(0x40)\n      tag_25\n      swap2\n      swap1\n      tag_26\n      jump\t// in\n    tag_25:\n      swap1\n      dup2\n      mstore\n      0x20\n      add\n      mload(0x40)\n      dup1\n      swap2\n      sub\n      swap1\n      keccak256\n      0x00\n        /* \"contracts/simple_vote.sol\":286:308  voteCount[candidate]++ */\n      dup2\n      sload\n      dup1\n      swap3\n      swap2\n      swap1\n      tag_27\n      swap1\n      tag_28\n      jump\t// in\n    tag_27:\n      swap2\n      swap1\n      pop\n      sstore\n      pop\n        /* \"contracts/simple_vote.sol\":341:345  true */\n      0x01\n        /* \"contracts/simple_vote.sol\":318:326  hasVoted */\n      0x00\n        /* \"contracts/simple_vote.sol\":318:338  hasVoted[msg.sender] */\n      dup1\n        /* \"contracts/simple_vote.sol\":327:337  msg.sender */\n      caller\n        /* \"contracts/simple_vote.sol\":318:338  hasVoted[msg.sender] */\n      0xffffffffffffffffffffffffffffffffffffffff\n      and\n      0xffffffffffffffffffffffffffffffffffffffff\n      and\n      dup2\n      mstore\n      0x20\n      add\n      swap1\n      dup2\n      mstore\n      0x20\n      add\n      0x00\n      keccak256\n      0x00\n        /* \"contracts/simple_vote.sol\":318:345  hasVoted[msg.sender] = true */\n      0x0100\n      exp\n      dup2\n      sload\n      dup2\n      0xff\n      mul\n      not\n      and\n      swap1\n      dup4\n      iszero\n      iszero\n      mul\n      or\n      swap1\n      sstore\n      pop\n        /* \"contracts/simple_vote.sol\":173:352  function vote(string memory candidate) public {... */\n      pop\n      jump\t// out\n        /* \"#utility.yul\":7:82   */\n    tag_29:\n        /* \"#utility.yul\":40:46   */\n      0x00\n        /* \"#utility.yul\":73:75   */\n      0x40\n        /* \"#utility.yul\":67:76   */\n      mload\n        /* \"#utility.yul\":57:76   */\n      swap1\n      pop\n        /* \"#utility.yul\":7:82   */\n      swap1\n      jump\t// out\n        /* \"#utility.yul\":88:205   */\n    tag_30:\n        /* \"#utility.yul\":197:198   */\n      0x00\n        /* \"#utility.yul\":194:195   */\n      dup1\n        /* \"#utility.yul\":187:199   */\n      revert\n        /* \"#utility.yul\":211:328   */\n    tag_31:\n        /* \"#utility.yul\":320:321   */\n      0x00\n        /* \"#utility.yul\":317:318   */\n      dup1\n        /* \"#utility.yul\":310:322   */\n      revert\n        /* \"#utility.yul\":334:460   */\n    tag_32:\n        /* \"#utility.yul\":371:378   */\n      0x00\n        /* \"#utility.yul\":411:453   */\n      0xffffffffffffffffffffffffffffffffffffffff\n        /* \"#utility.yul\":404:409   */\n      dup3\n        /* \"#utility.yul\":400:454   */\n      and\n        /* \"#utility.yul\":389:454   */\n      swap1\n      pop\n        /* \"#utility.yul\":334:460   */\n      swap2\n      swap1\n      pop\n      jump\t// out\n        /* \"#utility.yul\":466:562   */\n    tag_33:\n        /* \"#utility.yul\":503:510   */\n      0x00\n        /* \"#utility.yul\":532:556   */\n      tag_64\n        /* \"#utility.yul\":550:555   */\n      dup3\n        /* \"#utility.yul\":532:556   */\n      tag_32\n      jump\t// in\n    tag_64:\n        /* \"#utility.yul\":521:556   */\n      swap1\n      pop\n        /* \"#utility.yul\":466:562   */\n      swap2\n      swap1\n      pop\n      jump\t// out\n        /* \"#utility.yul\":568:690   */\n    tag_34:\n        /* \"#utility.yul\":641:665   */\n      tag_66\n        /* \"#utility.yul\":659:664   */\n      dup2\n        /* \"#utility.yul\":641:665   */\n      tag_33\n      jump\t// in\n    tag_66:\n        /* \"#utility.yul\":634:639   */\n      dup2\n        /* \"#utility.yul\":631:666   */\n      eq\n        /* \"#utility.yul\":621:684   */\n      tag_67\n      jumpi\n        /* \"#utility.yul\":680:681   */\n      0x00\n        /* \"#utility.yul\":677:678   */\n      dup1\n        /* \"#utility.yul\":670:682   */\n      revert\n        /* \"#utility.yul\":621:684   */\n    tag_67:\n        /* \"#utility.yul\":568:690   */\n      pop\n      jump\t// out\n        /* \"#utility.yul\":696:835   */\n    tag_35:\n        /* \"#utility.yul\":742:747   */\n      0x00\n        /* \"#utility.yul\":780:786   */\n      dup2\n        /* \"#utility.yul\":767:787   */\n      calldataload\n        /* \"#utility.yul\":758:787   */\n      swap1\n      pop\n        /* \"#utility.yul\":796:829   */\n      tag_69\n        /* \"#utility.yul\":823:828   */\n      dup2\n        /* \"#utility.yul\":796:829   */\n      tag_34\n      jump\t// in\n    tag_69:\n        /* \"#utility.yul\":696:835   */\n      swap3\n      swap2\n      pop\n      pop\n      jump\t// out\n        /* \"#utility.yul\":841:1170   */\n    tag_8:\n        /* \"#utility.yul\":900:906   */\n      0x00\n        /* \"#utility.yul\":949:951   */\n      0x20\n        /* \"#utility.yul\":937:946   */\n      dup3\n        /* \"#utility.yul\":928:935   */\n      dup5\n        /* \"#utility.yul\":924:947   */\n      sub\n        /* \"#utility.yul\":920:952   */\n      slt\n        /* \"#utility.yul\":917:1036   */\n      iszero\n      tag_71\n      jumpi\n        /* \"#utility.yul\":955:1034   */\n      tag_72\n      tag_30\n      jump\t// in\n    tag_72:\n        /* \"#utility.yul\":917:1036   */\n    tag_71:\n        /* \"#utility.yul\":1075:1076   */\n      0x00\n        /* \"#utility.yul\":1100:1153   */\n      tag_73\n        /* \"#utility.yul\":1145:1152   */\n      dup5\n        /* \"#utility.yul\":1136:1142   */\n      dup3\n        /* \"#utility.yul\":1125:1134   */\n      dup6\n        /* \"#utility.yul\":1121:1143   */\n      add\n        /* \"#utility.yul\":1100:1153   */\n      tag_35\n      jump\t// in\n    tag_73:\n        /* \"#utility.yul\":1090:1153   */\n      swap2\n      pop\n        /* \"#utility.yul\":1046:1163   */\n      pop\n        /* \"#utility.yul\":841:1170   */\n      swap3\n      swap2\n      pop\n      pop\n      jump\t// out\n        /* \"#utility.yul\":1176:1266   */\n    tag_36:\n        /* \"#utility.yul\":1210:1217   */\n      0x00\n        /* \"#utility.yul\":1253:1258   */\n      dup2\n        /* \"#utility.yul\":1246:1259   */\n      iszero\n        /* \"#utility.yul\":1239:1260   */\n      iszero\n        /* \"#utility.yul\":1228:1260   */\n      swap1\n      pop\n        /* \"#utility.yul\":1176:1266   */\n      swap2\n      swap1\n      pop\n      jump\t// out\n        /* \"#utility.yul\":1272:1381   */\n    tag_37:\n        /* \"#utility.yul\":1353:1374   */\n      tag_76\n        /* \"#utility.yul\":1368:1373   */\n      dup2\n        /* \"#utility.yul\":1353:1374   */\n      tag_36\n      jump\t// in\n    tag_76:\n        /* \"#utility.yul\":1348:1351   */\n      dup3\n        /* \"#utility.yul\":1341:1375   */\n      mstore\n        /* \"#utility.yul\":1272:1381   */\n      pop\n      pop\n      jump\t// out\n        /* \"#utility.yul\":1387:1597   */\n    tag_11:\n        /* \"#utility.yul\":1474:1478   */\n      0x00\n        /* \"#utility.yul\":1512:1514   */\n      0x20\n        /* \"#utility.yul\":1501:1510   */\n      dup3\n        /* \"#utility.yul\":1497:1515   */\n      add\n        /* \"#utility.yul\":1489:1515   */\n      swap1\n      pop\n        /* \"#utility.yul\":1525:1590   */\n      tag_78\n        /* \"#utility.yul\":1587:1588   */\n      0x00\n        /* \"#utility.yul\":1576:1585   */\n      dup4\n        /* \"#utility.yul\":1572:1589   */\n      add\n        /* \"#utility.yul\":1563:1569   */\n      dup5\n        /* \"#utility.yul\":1525:1590   */\n      tag_37\n      jump\t// in\n    tag_78:\n        /* \"#utility.yul\":1387:1597   */\n      swap3\n      swap2\n      pop\n      pop\n      jump\t// out\n        /* \"#utility.yul\":1603:1720   */\n    tag_38:\n        /* \"#utility.yul\":1712:1713   */\n      0x00\n        /* \"#utility.yul\":1709:1710   */\n      dup1\n        /* \"#utility.yul\":1702:1714   */\n      revert\n        /* \"#utility.yul\":1726:1843   */\n    tag_39:\n        /* \"#utility.yul\":1835:1836   */\n      0x00\n        /* \"#utility.yul\":1832:1833   */\n      dup1\n        /* \"#utility.yul\":1825:1837   */\n      revert\n        /* \"#utility.yul\":1849:1951   */\n    tag_40:\n        /* \"#utility.yul\":1890:1896   */\n      0x00\n        /* \"#utility.yul\":1941:1943   */\n      0x1f\n        /* \"#utility.yul\":1937:1944   */\n      not\n        /* \"#utility.yul\":1932:1934   */\n      0x1f\n        /* \"#utility.yul\":1925:1930   */\n      dup4\n        /* \"#utility.yul\":1921:1935   */\n      add\n        /* \"#utility.yul\":1917:1945   */\n      and\n        /* \"#utility.yul\":1907:1945   */\n      swap1\n      pop\n        /* \"#utility.yul\":1849:1951   */\n      swap2\n      swap1\n      pop\n      jump\t// out\n        /* \"#utility.yul\":1957:2137   */\n    tag_41:\n        /* \"#utility.yul\":2005:2082   */\n      0x4e487b7100000000000000000000000000000000000000000000000000000000\n        /* \"#utility.yul\":2002:2003   */\n      0x00\n        /* \"#utility.yul\":1995:2083   */\n      mstore\n        /* \"#utility.yul\":2102:2106   */\n      0x41\n        /* \"#utility.yul\":2099:2100   */\n      0x04\n        /* \"#utility.yul\":2092:2107   */\n      mstore\n        /* \"#utility.yul\":2126:2130   */\n      0x24\n        /* \"#utility.yul\":2123:2124   */\n      0x00\n        /* \"#utility.yul\":2116:2131   */\n      revert\n        /* \"#utility.yul\":2143:2424   */\n    tag_42:\n        /* \"#utility.yul\":2226:2253   */\n      tag_84\n        /* \"#utility.yul\":2248:2252   */\n      dup3\n        /* \"#utility.yul\":2226:2253   */\n      tag_40\n      jump\t// in\n    tag_84:\n        /* \"#utility.yul\":2218:2224   */\n      dup2\n        /* \"#utility.yul\":2214:2254   */\n      add\n        /* \"#utility.yul\":2356:2362   */\n      dup2\n        /* \"#utility.yul\":2344:2354   */\n      dup2\n        /* \"#utility.yul\":2341:2363   */\n      lt\n        /* \"#utility.yul\":2320:2338   */\n      0xffffffffffffffff\n        /* \"#utility.yul\":2308:2318   */\n      dup3\n        /* \"#utility.yul\":2305:2339   */\n      gt\n        /* \"#utility.yul\":2302:2364   */\n      or\n        /* \"#utility.yul\":2299:2387   */\n      iszero\n      tag_85\n      jumpi\n        /* \"#utility.yul\":2367:2385   */\n      tag_86\n      tag_41\n      jump\t// in\n    tag_86:\n        /* \"#utility.yul\":2299:2387   */\n    tag_85:\n        /* \"#utility.yul\":2407:2417   */\n      dup1\n        /* \"#utility.yul\":2403:2405   */\n      0x40\n        /* \"#utility.yul\":2396:2418   */\n      mstore\n        /* \"#utility.yul\":2186:2424   */\n      pop\n        /* \"#utility.yul\":2143:2424   */\n      pop\n      pop\n      jump\t// out\n        /* \"#utility.yul\":2430:2559   */\n    tag_43:\n        /* \"#utility.yul\":2464:2470   */\n      0x00\n        /* \"#utility.yul\":2491:2511   */\n      tag_88\n      tag_29\n      jump\t// in\n    tag_88:\n        /* \"#utility.yul\":2481:2511   */\n      swap1\n      pop\n        /* \"#utility.yul\":2520:2553   */\n      tag_89\n        /* \"#utility.yul\":2548:2552   */\n      dup3\n        /* \"#utility.yul\":2540:2546   */\n      dup3\n        /* \"#utility.yul\":2520:2553   */\n      tag_42\n      jump\t// in\n    tag_89:\n        /* \"#utility.yul\":2430:2559   */\n      swap2\n      swap1\n      pop\n      jump\t// out\n        /* \"#utility.yul\":2565:2873   */\n    tag_44:\n        /* \"#utility.yul\":2627:2631   */\n      0x00\n        /* \"#utility.yul\":2717:2735   */\n      0xffffffffffffffff\n        /* \"#utility.yul\":2709:2715   */\n      dup3\n        /* \"#utility.yul\":2706:2736   */\n      gt\n        /* \"#utility.yul\":2703:2759   */\n      iszero\n      tag_91\n      jumpi\n        /* \"#utility.yul\":2739:2757   */\n      tag_92\n      tag_41\n      jump\t// in\n    tag_92:\n        /* \"#utility.yul\":2703:2759   */\n    tag_91:\n        /* \"#utility.yul\":2777:2806   */\n      tag_93\n        /* \"#utility.yul\":2799:2805   */\n      dup3\n        /* \"#utility.yul\":2777:2806   */\n      tag_40\n      jump\t// in\n    tag_93:\n        /* \"#utility.yul\":2769:2806   */\n      swap1\n      pop\n        /* \"#utility.yul\":2861:2865   */\n      0x20\n        /* \"#utility.yul\":2855:2859   */\n      dup2\n        /* \"#utility.yul\":2851:2866   */\n      add\n        /* \"#utility.yul\":2843:2866   */\n      swap1\n      pop\n        /* \"#utility.yul\":2565:2873   */\n      swap2\n      swap1\n      pop\n      jump\t// out\n        /* \"#utility.yul\":2879:3025   */\n    tag_45:\n        /* \"#utility.yul\":2976:2982   */\n      dup3\n        /* \"#utility.yul\":2971:2974   */\n      dup2\n        /* \"#utility.yul\":2966:2969   */\n      dup4\n        /* \"#utility.yul\":2953:2983   */\n      calldatacopy\n        /* \"#utility.yul\":3017:3018   */\n      0x00\n        /* \"#utility.yul\":3008:3014   */\n      dup4\n        /* \"#utility.yul\":3003:3006   */\n      dup4\n        /* \"#utility.yul\":2999:3015   */\n      add\n        /* \"#utility.yul\":2992:3019   */\n      mstore\n        /* \"#utility.yul\":2879:3025   */\n      pop\n      pop\n      pop\n      jump\t// out\n        /* \"#utility.yul\":3031:3456   */\n    tag_46:\n        /* \"#utility.yul\":3109:3114   */\n      0x00\n        /* \"#utility.yul\":3134:3200   */\n      tag_96\n        /* \"#utility.yul\":3150:3199   */\n      tag_97\n        /* \"#utility.yul\":3192:3198   */\n      dup5\n        /* \"#utility.yul\":3150:3199   */\n      tag_44\n      jump\t// in\n    tag_97:\n        /* \"#utility.yul\":3134:3200   */\n      tag_43\n      jump\t// in\n    tag_96:\n        /* \"#utility.yul\":3125:3200   */\n      swap1\n      pop\n        /* \"#utility.yul\":3223:3229   */\n      dup3\n        /* \"#utility.yul\":3216:3221   */\n      dup2\n        /* \"#utility.yul\":3209:3230   */\n      mstore\n        /* \"#utility.yul\":3261:3265   */\n      0x20\n        /* \"#utility.yul\":3254:3259   */\n      dup2\n        /* \"#utility.yul\":3250:3266   */\n      add\n        /* \"#utility.yul\":3299:3302   */\n      dup5\n        /* \"#utility.yul\":3290:3296   */\n      dup5\n        /* \"#utility.yul\":3285:3288   */\n      dup5\n        /* \"#utility.yul\":3281:3297   */\n      add\n        /* \"#utility.yul\":3278:3303   */\n      gt\n        /* \"#utility.yul\":3275:3387   */\n      iszero\n      tag_98\n      jumpi\n        /* \"#utility.yul\":3306:3385   */\n      tag_99\n      tag_39\n      jump\t// in\n    tag_99:\n        /* \"#utility.yul\":3275:3387   */\n    tag_98:\n        /* \"#utility.yul\":3396:3450   */\n      tag_100\n        /* \"#utility.yul\":3443:3449   */\n      dup5\n        /* \"#utility.yul\":3438:3441   */\n      dup3\n        /* \"#utility.yul\":3433:3436   */\n      dup6\n        /* \"#utility.yul\":3396:3450   */\n      tag_45\n      jump\t// in\n    tag_100:\n        /* \"#utility.yul\":3115:3456   */\n      pop\n        /* \"#utility.yul\":3031:3456   */\n      swap4\n      swap3\n      pop\n      pop\n      pop\n      jump\t// out\n        /* \"#utility.yul\":3476:3816   */\n    tag_47:\n        /* \"#utility.yul\":3532:3537   */\n      0x00\n        /* \"#utility.yul\":3581:3584   */\n      dup3\n        /* \"#utility.yul\":3574:3578   */\n      0x1f\n        /* \"#utility.yul\":3566:3572   */\n      dup4\n        /* \"#utility.yul\":3562:3579   */\n      add\n        /* \"#utility.yul\":3558:3585   */\n      slt\n        /* \"#utility.yul\":3548:3670   */\n      tag_102\n      jumpi\n        /* \"#utility.yul\":3589:3668   */\n      tag_103\n      tag_38\n      jump\t// in\n    tag_103:\n        /* \"#utility.yul\":3548:3670   */\n    tag_102:\n        /* \"#utility.yul\":3706:3712   */\n      dup2\n        /* \"#utility.yul\":3693:3713   */\n      calldataload\n        /* \"#utility.yul\":3731:3810   */\n      tag_104\n        /* \"#utility.yul\":3806:3809   */\n      dup5\n        /* \"#utility.yul\":3798:3804   */\n      dup3\n        /* \"#utility.yul\":3791:3795   */\n      0x20\n        /* \"#utility.yul\":3783:3789   */\n      dup7\n        /* \"#utility.yul\":3779:3796   */\n      add\n        /* \"#utility.yul\":3731:3810   */\n      tag_46\n      jump\t// in\n    tag_104:\n        /* \"#utility.yul\":3722:3810   */\n      swap2\n      pop\n        /* \"#utility.yul\":3538:3816   */\n      pop\n        /* \"#utility.yul\":3476:3816   */\n      swap3\n      swap2\n      pop\n      pop\n      jump\t// out\n        /* \"#utility.yul\":3822:4331   */\n    tag_14:\n        /* \"#utility.yul\":3891:3897   */\n      0x00\n        /* \"#utility.yul\":3940:3942   */\n      0x20\n        /* \"#utility.yul\":3928:3937   */\n      dup3\n        /* \"#utility.yul\":3919:3926   */\n      dup5\n        /* \"#utility.yul\":3915:3938   */\n      sub\n        /* \"#utility.yul\":3911:3943   */\n      slt\n        /* \"#utility.yul\":3908:4027   */\n      iszero\n      tag_106\n      jumpi\n        /* \"#utility.yul\":3946:4025   */\n      tag_107\n      tag_30\n      jump\t// in\n    tag_107:\n        /* \"#utility.yul\":3908:4027   */\n    tag_106:\n        /* \"#utility.yul\":4094:4095   */\n      0x00\n        /* \"#utility.yul\":4083:4092   */\n      dup3\n        /* \"#utility.yul\":4079:4096   */\n      add\n        /* \"#utility.yul\":4066:4097   */\n      calldataload\n        /* \"#utility.yul\":4124:4142   */\n      0xffffffffffffffff\n        /* \"#utility.yul\":4116:4122   */\n      dup2\n        /* \"#utility.yul\":4113:4143   */\n      gt\n        /* \"#utility.yul\":4110:4227   */\n      iszero\n      tag_108\n      jumpi\n        /* \"#utility.yul\":4146:4225   */\n      tag_109\n      tag_31\n      jump\t// in\n    tag_109:\n        /* \"#utility.yul\":4110:4227   */\n    tag_108:\n        /* \"#utility.yul\":4251:4314   */\n      tag_110\n        /* \"#utility.yul\":4306:4313   */\n      dup5\n        /* \"#utility.yul\":4297:4303   */\n      dup3\n        /* \"#utility.yul\":4286:4295   */\n      dup6\n        /* \"#utility.yul\":4282:4304   */\n      add\n        /* \"#utility.yul\":4251:4314   */\n      tag_47\n      jump\t// in\n    tag_110:\n        /* \"#utility.yul\":4241:4314   */\n      swap2\n      pop\n        /* \"#utility.yul\":4037:4324   */\n      pop\n        /* \"#utility.yul\":3822:4331   */\n      swap3\n      swap2\n      pop\n      pop\n      jump\t// out\n        /* \"#utility.yul\":4337:4414   */\n    tag_48:\n        /* \"#utility.yul\":4374:4381   */\n      0x00\n        /* \"#utility.yul\":4403:4408   */\n      dup2\n        /* \"#utility.yul\":4392:4408   */\n      swap1\n      pop\n        /* \"#utility.yul\":4337:4414   */\n      swap2\n      swap1\n      pop\n      jump\t// out\n        /* \"#utility.yul\":4420:4538   */\n    tag_49:\n        /* \"#utility.yul\":4507:4531   */\n      tag_113\n        /* \"#utility.yul\":4525:4530   */\n      dup2\n        /* \"#utility.yul\":4507:4531   */\n      tag_48\n      jump\t// in\n    tag_113:\n        /* \"#utility.yul\":4502:4505   */\n      dup3\n        /* \"#utility.yul\":4495:4532   */\n      mstore\n        /* \"#utility.yul\":4420:4538   */\n      pop\n      pop\n      jump\t// out\n        /* \"#utility.yul\":4544:4766   */\n    tag_17:\n        /* \"#utility.yul\":4637:4641   */\n      0x00\n        /* \"#utility.yul\":4675:4677   */\n      0x20\n        /* \"#utility.yul\":4664:4673   */\n      dup3\n        /* \"#utility.yul\":4660:4678   */\n      add\n        /* \"#utility.yul\":4652:4678   */\n      swap1\n      pop\n        /* \"#utility.yul\":4688:4759   */\n      tag_115\n        /* \"#utility.yul\":4756:4757   */\n      0x00\n        /* \"#utility.yul\":4745:4754   */\n      dup4\n        /* \"#utility.yul\":4741:4758   */\n      add\n        /* \"#utility.yul\":4732:4738   */\n      dup5\n        /* \"#utility.yul\":4688:4759   */\n      tag_49\n      jump\t// in\n    tag_115:\n        /* \"#utility.yul\":4544:4766   */\n      swap3\n      swap2\n      pop\n      pop\n      jump\t// out\n        /* \"#utility.yul\":4772:4941   */\n    tag_50:\n        /* \"#utility.yul\":4856:4867   */\n      0x00\n        /* \"#utility.yul\":4890:4896   */\n      dup3\n        /* \"#utility.yul\":4885:4888   */\n      dup3\n        /* \"#utility.yul\":4878:4897   */\n      mstore\n        /* \"#utility.yul\":4930:4934   */\n      0x20\n        /* \"#utility.yul\":4925:4928   */\n      dup3\n        /* \"#utility.yul\":4921:4935   */\n      add\n        /* \"#utility.yul\":4906:4935   */\n      swap1\n      pop\n        /* \"#utility.yul\":4772:4941   */\n      swap3\n      swap2\n      pop\n      pop\n      jump\t// out\n        /* \"#utility.yul\":4947:5110   */\n    tag_51:\n        /* \"#utility.yul\":5087:5102   */\n      0x416c726561647920766f74656400000000000000000000000000000000000000\n        /* \"#utility.yul\":5083:5084   */\n      0x00\n        /* \"#utility.yul\":5075:5081   */\n      dup3\n        /* \"#utility.yul\":5071:5085   */\n      add\n        /* \"#utility.yul\":5064:5103   */\n      mstore\n        /* \"#utility.yul\":4947:5110   */\n      pop\n      jump\t// out\n        /* \"#utility.yul\":5116:5482   */\n    tag_52:\n        /* \"#utility.yul\":5258:5261   */\n      0x00\n        /* \"#utility.yul\":5279:5346   */\n      tag_119\n        /* \"#utility.yul\":5343:5345   */\n      0x0d\n        /* \"#utility.yul\":5338:5341   */\n      dup4\n        /* \"#utility.yul\":5279:5346   */\n      tag_50\n      jump\t// in\n    tag_119:\n        /* \"#utility.yul\":5272:5346   */\n      swap2\n      pop\n        /* \"#utility.yul\":5355:5448   */\n      tag_120\n        /* \"#utility.yul\":5444:5447   */\n      dup3\n        /* \"#utility.yul\":5355:5448   */\n      tag_51\n      jump\t// in\n    tag_120:\n        /* \"#utility.yul\":5473:5475   */\n      0x20\n        /* \"#utility.yul\":5468:5471   */\n      dup3\n        /* \"#utility.yul\":5464:5476   */\n      add\n        /* \"#utility.yul\":5457:5476   */\n      swap1\n      pop\n        /* \"#utility.yul\":5116:5482   */\n      swap2\n      swap1\n      pop\n      jump\t// out\n        /* \"#utility.yul\":5488:5907   */\n    tag_24:\n        /* \"#utility.yul\":5654:5658   */\n      0x00\n        /* \"#utility.yul\":5692:5694   */\n      0x20\n        /* \"#utility.yul\":5681:5690   */\n      dup3\n        /* \"#utility.yul\":5677:5695   */\n      add\n        /* \"#utility.yul\":5669:5695   */\n      swap1\n      pop\n        /* \"#utility.yul\":5741:5750   */\n      dup2\n        /* \"#utility.yul\":5735:5739   */\n      dup2\n        /* \"#utility.yul\":5731:5751   */\n      sub\n        /* \"#utility.yul\":5727:5728   */\n      0x00\n        /* \"#utility.yul\":5716:5725   */\n      dup4\n        /* \"#utility.yul\":5712:5729   */\n      add\n        /* \"#utility.yul\":5705:5752   */\n      mstore\n        /* \"#utility.yul\":5769:5900   */\n      tag_122\n        /* \"#utility.yul\":5895:5899   */\n      dup2\n        /* \"#utility.yul\":5769:5900   */\n      tag_52\n      jump\t// in\n    tag_122:\n        /* \"#utility.yul\":5761:5900   */\n      swap1\n      pop\n        /* \"#utility.yul\":5488:5907   */\n      swap2\n      swap1\n      pop\n      jump\t// out\n        /* \"#utility.yul\":5913:6012   */\n    tag_53:\n        /* \"#utility.yul\":5965:5971   */\n      0x00\n        /* \"#utility.yul\":5999:6004   */\n      dup2\n        /* \"#utility.yul\":5993:6005   */\n      mload\n        /* \"#utility.yul\":5983:6005   */\n      swap1\n      pop\n        /* \"#utility.yul\":5913:6012   */\n      swap2\n      swap1\n      pop\n      jump\t// out\n        /* \"#utility.yul\":6018:6166   */\n    tag_54:\n        /* \"#utility.yul\":6120:6131   */\n      0x00\n        /* \"#utility.yul\":6157:6160   */\n      dup2\n        /* \"#utility.yul\":6142:6160   */\n      swap1\n      pop\n        /* \"#utility.yul\":6018:6166   */\n      swap3\n      swap2\n      pop\n      pop\n      jump\t// out\n        /* \"#utility.yul\":6172:6418   */\n    tag_55:\n        /* \"#utility.yul\":6253:6254   */\n      0x00\n        /* \"#utility.yul\":6263:6376   */\n    tag_126:\n        /* \"#utility.yul\":6277:6283   */\n      dup4\n        /* \"#utility.yul\":6274:6275   */\n      dup2\n        /* \"#utility.yul\":6271:6284   */\n      lt\n        /* \"#utility.yul\":6263:6376   */\n      iszero\n      tag_128\n      jumpi\n        /* \"#utility.yul\":6362:6363   */\n      dup1\n        /* \"#utility.yul\":6357:6360   */\n      dup3\n        /* \"#utility.yul\":6353:6364   */\n      add\n        /* \"#utility.yul\":6347:6365   */\n      mload\n        /* \"#utility.yul\":6343:6344   */\n      dup2\n        /* \"#utility.yul\":6338:6341   */\n      dup5\n        /* \"#utility.yul\":6334:6345   */\n      add\n        /* \"#utility.yul\":6327:6366   */\n      mstore\n        /* \"#utility.yul\":6299:6301   */\n      0x20\n        /* \"#utility.yul\":6296:6297   */\n      dup2\n        /* \"#utility.yul\":6292:6302   */\n      add\n        /* \"#utility.yul\":6287:6302   */\n      swap1\n      pop\n        /* \"#utility.yul\":6263:6376   */\n      jump(tag_126)\n    tag_128:\n        /* \"#utility.yul\":6410:6411   */\n      0x00\n        /* \"#utility.yul\":6401:6407   */\n      dup5\n        /* \"#utility.yul\":6396:6399   */\n      dup5\n        /* \"#utility.yul\":6392:6408   */\n      add\n        /* \"#utility.yul\":6385:6412   */\n      mstore\n        /* \"#utility.yul\":6234:6418   */\n      pop\n        /* \"#utility.yul\":6172:6418   */\n      pop\n      pop\n      pop\n      jump\t// out\n        /* \"#utility.yul\":6424:6814   */\n    tag_56:\n        /* \"#utility.yul\":6530:6533   */\n      0x00\n        /* \"#utility.yul\":6558:6597   */\n      tag_130\n        /* \"#utility.yul\":6591:6596   */\n      dup3\n        /* \"#utility.yul\":6558:6597   */\n      tag_53\n      jump\t// in\n    tag_130:\n        /* \"#utility.yul\":6613:6702   */\n      tag_131\n        /* \"#utility.yul\":6695:6701   */\n      dup2\n        /* \"#utility.yul\":6690:6693   */\n      dup6\n        /* \"#utility.yul\":6613:6702   */\n      tag_54\n      jump\t// in\n    tag_131:\n        /* \"#utility.yul\":6606:6702   */\n      swap4\n      pop\n        /* \"#utility.yul\":6711:6776   */\n      tag_132\n        /* \"#utility.yul\":6769:6775   */\n      dup2\n        /* \"#utility.yul\":6764:6767   */\n      dup6\n        /* \"#utility.yul\":6757:6761   */\n      0x20\n        /* \"#utility.yul\":6750:6755   */\n      dup7\n        /* \"#utility.yul\":6746:6762   */\n      add\n        /* \"#utility.yul\":6711:6776   */\n      tag_55\n      jump\t// in\n    tag_132:\n        /* \"#utility.yul\":6801:6807   */\n      dup1\n        /* \"#utility.yul\":6796:6799   */\n      dup5\n        /* \"#utility.yul\":6792:6808   */\n      add\n        /* \"#utility.yul\":6785:6808   */\n      swap2\n      pop\n        /* \"#utility.yul\":6534:6814   */\n      pop\n        /* \"#utility.yul\":6424:6814   */\n      swap3\n      swap2\n      pop\n      pop\n      jump\t// out\n        /* \"#utility.yul\":6820:7095   */\n    tag_26:\n        /* \"#utility.yul\":6952:6955   */\n      0x00\n        /* \"#utility.yul\":6974:7069   */\n      tag_134\n        /* \"#utility.yul\":7065:7068   */\n      dup3\n        /* \"#utility.yul\":7056:7062   */\n      dup5\n        /* \"#utility.yul\":6974:7069   */\n      tag_56\n      jump\t// in\n    tag_134:\n        /* \"#utility.yul\":6967:7069   */\n      swap2\n      pop\n        /* \"#utility.yul\":7086:7089   */\n      dup2\n        /* \"#utility.yul\":7079:7089   */\n      swap1\n      pop\n        /* \"#utility.yul\":6820:7095   */\n      swap3\n      swap2\n      pop\n      pop\n      jump\t// out\n        /* \"#utility.yul\":7101:7281   */\n    tag_57:\n        /* \"#utility.yul\":7149:7226   */\n      0x4e487b7100000000000000000000000000000000000000000000000000000000\n        /* \"#utility.yul\":7146:7147   */\n      0x00\n        /* \"#utility.yul\":7139:7227   */\n      mstore\n        /* \"#utility.yul\":7246:7250   */\n      0x11\n        /* \"#utility.yul\":7243:7244   */\n      0x04\n        /* \"#utility.yul\":7236:7251   */\n      mstore\n        /* \"#utility.yul\":7270:7274   */\n      0x24\n        /* \"#utility.yul\":7267:7268   */\n      0x00\n        /* \"#utility.yul\":7260:7275   */\n      revert\n        /* \"#utility.yul\":7287:7520   */\n    tag_28:\n        /* \"#utility.yul\":7326:7329   */\n      0x00\n        /* \"#utility.yul\":7349:7373   */\n      tag_137\n        /* \"#utility.yul\":7367:7372   */\n      dup3\n        /* \"#utility.yul\":7349:7373   */\n      tag_48\n      jump\t// in\n    tag_137:\n        /* \"#utility.yul\":7340:7373   */\n      swap2\n      pop\n        /* \"#utility.yul\":7395:7461   */\n      0xffffffffffffffffffffffffffffffffffffffffffffffffffffffffffffffff\n        /* \"#utility.yul\":7388:7393   */\n      dup3\n        /* \"#utility.yul\":7385:7462   */\n      sub\n        /* \"#utility.yul\":7382:7485   */\n      tag_138\n      jumpi\n        /* \"#utility.yul\":7465:7483   */\n      tag_139\n      tag_57\n      jump\t// in\n    tag_139:\n        /* \"#utility.yul\":7382:7485   */\n    tag_138:\n        /* \"#utility.yul\":7512:7513   */\n      0x01\n        /* \"#utility.yul\":7505:7510   */\n      dup3\n        /* \"#utility.yul\":7501:7514   */\n      add\n        /* \"#utility.yul\":7494:7514   */\n      swap1\n      pop\n        /* \"#utility.yul\":7287:7520   */\n      swap2\n      swap1\n      pop\n      jump\t// out\n\n    auxdata: 0xa26469706673582212208d870e28872b223a196356f7671a7310b598ec54edc22c99e4e539469c02217b64736f6c63430008120033\n}\n",
				"bytecode": {
					"linkReferences": {},
					"object": "608060405234801561001057600080fd5b50610674806100206000396000f3fe608060405234801561001057600080fd5b50600436106100415760003560e01c806309eef43e14610046578063ba7f755214610076578063fc36e15b146100a6575b600080fd5b610060600480360381019061005b919061029c565b6100c2565b60405161006d91906102e4565b60405180910390f35b610090600480360381019061008b9190610445565b6100e2565b60405161009d91906104a7565b60405180910390f35b6100c060048036038101906100bb9190610445565b610110565b005b60006020528060005260406000206000915054906101000a900460ff1681565b6001818051602081018201805184825260208301602085012081835280955050505050506000915090505481565b6000803373ffffffffffffffffffffffffffffffffffffffff1673ffffffffffffffffffffffffffffffffffffffff16815260200190815260200160002060009054906101000a900460ff161561019c576040517f08c379a00000000000000000000000000000000000000000000000000000000081526004016101939061051f565b60405180910390fd5b6001816040516101ac91906105b0565b908152602001604051809103902060008154809291906101cb906105f6565b919050555060016000803373ffffffffffffffffffffffffffffffffffffffff1673ffffffffffffffffffffffffffffffffffffffff16815260200190815260200160002060006101000a81548160ff02191690831515021790555050565b6000604051905090565b600080fd5b600080fd5b600073ffffffffffffffffffffffffffffffffffffffff82169050919050565b60006102698261023e565b9050919050565b6102798161025e565b811461028457600080fd5b50565b60008135905061029681610270565b92915050565b6000602082840312156102b2576102b1610234565b5b60006102c084828501610287565b91505092915050565b60008115159050919050565b6102de816102c9565b82525050565b60006020820190506102f960008301846102d5565b92915050565b600080fd5b600080fd5b6000601f19601f8301169050919050565b7f4e487b7100000000000000000000000000000000000000000000000000000000600052604160045260246000fd5b61035282610309565b810181811067ffffffffffffffff821117156103715761037061031a565b5b80604052505050565b600061038461022a565b90506103908282610349565b919050565b600067ffffffffffffffff8211156103b0576103af61031a565b5b6103b982610309565b9050602081019050919050565b82818337600083830152505050565b60006103e86103e384610395565b61037a565b90508281526020810184848401111561040457610403610304565b5b61040f8482856103c6565b509392505050565b600082601f83011261042c5761042b6102ff565b5b813561043c8482602086016103d5565b91505092915050565b60006020828403121561045b5761045a610234565b5b600082013567ffffffffffffffff81111561047957610478610239565b5b61048584828501610417565b91505092915050565b6000819050919050565b6104a18161048e565b82525050565b60006020820190506104bc6000830184610498565b92915050565b600082825260208201905092915050565b7f416c726561647920766f74656400000000000000000000000000000000000000600082015250565b6000610509600d836104c2565b9150610514826104d3565b602082019050919050565b60006020820190508181036000830152610538816104fc565b9050919050565b600081519050919050565b600081905092915050565b60005b83811015610573578082015181840152602081019050610558565b60008484015250505050565b600061058a8261053f565b610594818561054a565b93506105a4818560208601610555565b80840191505092915050565b60006105bc828461057f565b915081905092915050565b7f4e487b7100000000000000000000000000000000000000000000000000000000600052601160045260246000fd5b60006106018261048e565b91507fffffffffffffffffffffffffffffffffffffffffffffffffffffffffffffffff8203610633576106326105c7565b5b60018201905091905056fea26469706673582212208d870e28872b223a196356f7671a7310b598ec54edc22c99e4e539469c02217b64736f6c63430008120033",
					"opcodes": "PUSH1 0x80 PUSH1 0x40 MSTORE CALLVALUE DUP1 ISZERO PUSH2 0x10 JUMPI PUSH1 0x0 DUP1 REVERT JUMPDEST POP PUSH2 0x674 DUP1 PUSH2 0x20 PUSH1 0x0 CODECOPY PUSH1 0x0 RETURN INVALID PUSH1 0x80 PUSH1 0x40 MSTORE CALLVALUE DUP1 ISZERO PUSH2 0x10 JUMPI PUSH1 0x0 DUP1 REVERT JUMPDEST POP PUSH1 0x4 CALLDATASIZE LT PUSH2 0x41 JUMPI PUSH1 0x0 CALLDATALOAD PUSH1 0xE0 SHR DUP1 PUSH4 0x9EEF43E EQ PUSH2 0x46 JUMPI DUP1 PUSH4 0xBA7F7552 EQ PUSH2 0x76 JUMPI DUP1 PUSH4 0xFC36E15B EQ PUSH2 0xA6 JUMPI JUMPDEST PUSH1 0x0 DUP1 REVERT JUMPDEST PUSH2 0x60 PUSH1 0x4 DUP1 CALLDATASIZE SUB DUP2 ADD SWAP1 PUSH2 0x5B SWAP2 SWAP1 PUSH2 0x29C JUMP JUMPDEST PUSH2 0xC2 JUMP JUMPDEST PUSH1 0x40 MLOAD PUSH2 0x6D SWAP2 SWAP1 PUSH2 0x2E4 JUMP JUMPDEST PUSH1 0x40 MLOAD DUP1 SWAP2 SUB SWAP1 RETURN JUMPDEST PUSH2 0x90 PUSH1 0x4 DUP1 CALLDATASIZE SUB DUP2 ADD SWAP1 PUSH2 0x8B SWAP2 SWAP1 PUSH2 0x445 JUMP JUMPDEST PUSH2 0xE2 JUMP JUMPDEST PUSH1 0x40 MLOAD PUSH2 0x9D SWAP2 SWAP1 PUSH2 0x4A7 JUMP JUMPDEST PUSH1 0x40 MLOAD DUP1 SWAP2 SUB SWAP1 RETURN JUMPDEST PUSH2 0xC0 PUSH1 0x4 DUP1 CALLDATASIZE SUB DUP2 ADD SWAP1 PUSH2 0xBB SWAP2 SWAP1 PUSH2 0x445 JUMP JUMPDEST PUSH2 0x110 JUMP JUMPDEST STOP JUMPDEST PUSH1 0x0 PUSH1 0x20 MSTORE DUP1 PUSH1 0x0 MSTORE PUSH1 0x40 PUSH1 0x0 KECCAK256 PUSH1 0x0 SWAP2 POP SLOAD SWAP1 PUSH2 0x100 EXP SWAP1 DIV PUSH1 0xFF AND DUP2 JUMP JUMPDEST PUSH1 0x1 DUP2 DUP1 MLOAD PUSH1 0x20 DUP2 ADD DUP3 ADD DUP1 MLOAD DUP5 DUP3 MSTORE PUSH1 0x20 DUP4 ADD PUSH1 0x20 DUP6 ADD KECCAK256 DUP2 DUP4 MSTORE DUP1 SWAP6 POP POP POP POP POP POP PUSH1 0x0 SWAP2 POP SWAP1 POP SLOAD DUP2 JUMP JUMPDEST PUSH1 0x0 DUP1 CALLER PUSH20 0xFFFFFFFFFFFFFFFFFFFFFFFFFFFFFFFFFFFFFFFF AND PUSH20 0xFFFFFFFFFFFFFFFFFFFFFFFFFFFFFFFFFFFFFFFF AND DUP2 MSTORE PUSH1 0x20 ADD SWAP1 DUP2 MSTORE PUSH1 0x20 ADD PUSH1 0x0 KECCAK256 PUSH1 0x0 SWAP1 SLOAD SWAP1 PUSH2 0x100 EXP SWAP1 DIV PUSH1 0xFF AND ISZERO PUSH2 0x19C JUMPI PUSH1 0x40 MLOAD PUSH32 0x8C379A000000000000000000000000000000000000000000000000000000000 DUP2 MSTORE PUSH1 0x4 ADD PUSH2 0x193 SWAP1 PUSH2 0x51F JUMP JUMPDEST PUSH1 0x40 MLOAD DUP1 SWAP2 SUB SWAP1 REVERT JUMPDEST PUSH1 0x1 DUP2 PUSH1 0x40 MLOAD PUSH2 0x1AC SWAP2 SWAP1 PUSH2 0x5B0 JUMP JUMPDEST SWAP1 DUP2 MSTORE PUSH1 0x20 ADD PUSH1 0x40 MLOAD DUP1 SWAP2 SUB SWAP1 KECCAK256 PUSH1 0x0 DUP2 SLOAD DUP1 SWAP3 SWAP2 SWAP1 PUSH2 0x1CB SWAP1 PUSH2 0x5F6 JUMP JUMPDEST SWAP2 SWAP1 POP SSTORE POP PUSH1 0x1 PUSH1 0x0 DUP1 CALLER PUSH20 0xFFFFFFFFFFFFFFFFFFFFFFFFFFFFFFFFFFFFFFFF AND PUSH20 0xFFFFFFFFFFFFFFFFFFFFFFFFFFFFFFFFFFFFFFFF AND DUP2 MSTORE PUSH1 0x20 ADD SWAP1 DUP2 MSTORE PUSH1 0x20 ADD PUSH1 0x0 KECCAK256 PUSH1 0x0 PUSH2 0x100 EXP DUP2 SLOAD DUP2 PUSH1 0xFF MUL NOT AND SWAP1 DUP4 ISZERO ISZERO MUL OR SWAP1 SSTORE POP POP JUMP JUMPDEST PUSH1 0x0 PUSH1 0x40 MLOAD SWAP1 POP SWAP1 JUMP JUMPDEST PUSH1 0x0 DUP1 REVERT JUMPDEST PUSH1 0x0 DUP1 REVERT JUMPDEST PUSH1 0x0 PUSH20 0xFFFFFFFFFFFFFFFFFFFFFFFFFFFFFFFFFFFFFFFF DUP3 AND SWAP1 POP SWAP2 SWAP1 POP JUMP JUMPDEST PUSH1 0x0 PUSH2 0x269 DUP3 PUSH2 0x23E JUMP JUMPDEST SWAP1 POP SWAP2 SWAP1 POP JUMP JUMPDEST PUSH2 0x279 DUP2 PUSH2 0x25E JUMP JUMPDEST DUP2 EQ PUSH2 0x284 JUMPI PUSH1 0x0 DUP1 REVERT JUMPDEST POP JUMP JUMPDEST PUSH1 0x0 DUP2 CALLDATALOAD SWAP1 POP PUSH2 0x296 DUP2 PUSH2 0x270 JUMP JUMPDEST SWAP3 SWAP2 POP POP JUMP JUMPDEST PUSH1 0x0 PUSH1 0x20 DUP3 DUP5 SUB SLT ISZERO PUSH2 0x2B2 JUMPI PUSH2 0x2B1 PUSH2 0x234 JUMP JUMPDEST JUMPDEST PUSH1 0x0 PUSH2 0x2C0 DUP5 DUP3 DUP6 ADD PUSH2 0x287 JUMP JUMPDEST SWAP2 POP POP SWAP3 SWAP2 POP POP JUMP JUMPDEST PUSH1 0x0 DUP2 ISZERO ISZERO SWAP1 POP SWAP2 SWAP1 POP JUMP JUMPDEST PUSH2 0x2DE DUP2 PUSH2 0x2C9 JUMP JUMPDEST DUP3 MSTORE POP POP JUMP JUMPDEST PUSH1 0x0 PUSH1 0x20 DUP3 ADD SWAP1 POP PUSH2 0x2F9 PUSH1 0x0 DUP4 ADD DUP5 PUSH2 0x2D5 JUMP JUMPDEST SWAP3 SWAP2 POP POP JUMP JUMPDEST PUSH1 0x0 DUP1 REVERT JUMPDEST PUSH1 0x0 DUP1 REVERT JUMPDEST PUSH1 0x0 PUSH1 0x1F NOT PUSH1 0x1F DUP4 ADD AND SWAP1 POP SWAP2 SWAP1 POP JUMP JUMPDEST PUSH32 0x4E487B7100000000000000000000000000000000000000000000000000000000 PUSH1 0x0 MSTORE PUSH1 0x41 PUSH1 0x4 MSTORE PUSH1 0x24 PUSH1 0x0 REVERT JUMPDEST PUSH2 0x352 DUP3 PUSH2 0x309 JUMP JUMPDEST DUP2 ADD DUP2 DUP2 LT PUSH8 0xFFFFFFFFFFFFFFFF DUP3 GT OR ISZERO PUSH2 0x371 JUMPI PUSH2 0x370 PUSH2 0x31A JUMP JUMPDEST JUMPDEST DUP1 PUSH1 0x40 MSTORE POP POP POP JUMP JUMPDEST PUSH1 0x0 PUSH2 0x384 PUSH2 0x22A JUMP JUMPDEST SWAP1 POP PUSH2 0x390 DUP3 DUP3 PUSH2 0x349 JUMP JUMPDEST SWAP2 SWAP1 POP JUMP JUMPDEST PUSH1 0x0 PUSH8 0xFFFFFFFFFFFFFFFF DUP3 GT ISZERO PUSH2 0x3B0 JUMPI PUSH2 0x3AF PUSH2 0x31A JUMP JUMPDEST JUMPDEST PUSH2 0x3B9 DUP3 PUSH2 0x309 JUMP JUMPDEST SWAP1 POP PUSH1 0x20 DUP2 ADD SWAP1 POP SWAP2 SWAP1 POP JUMP JUMPDEST DUP3 DUP2 DUP4 CALLDATACOPY PUSH1 0x0 DUP4 DUP4 ADD MSTORE POP POP POP JUMP JUMPDEST PUSH1 0x0 PUSH2 0x3E8 PUSH2 0x3E3 DUP5 PUSH2 0x395 JUMP JUMPDEST PUSH2 0x37A JUMP JUMPDEST SWAP1 POP DUP3 DUP2 MSTORE PUSH1 0x20 DUP2 ADD DUP5 DUP5 DUP5 ADD GT ISZERO PUSH2 0x404 JUMPI PUSH2 0x403 PUSH2 0x304 JUMP JUMPDEST JUMPDEST PUSH2 0x40F DUP5 DUP3 DUP6 PUSH2 0x3C6 JUMP JUMPDEST POP SWAP4 SWAP3 POP POP POP JUMP JUMPDEST PUSH1 0x0 DUP3 PUSH1 0x1F DUP4 ADD SLT PUSH2 0x42C JUMPI PUSH2 0x42B PUSH2 0x2FF JUMP JUMPDEST JUMPDEST DUP2 CALLDATALOAD PUSH2 0x43C DUP5 DUP3 PUSH1 0x20 DUP7 ADD PUSH2 0x3D5 JUMP JUMPDEST SWAP2 POP POP SWAP3 SWAP2 POP POP JUMP JUMPDEST PUSH1 0x0 PUSH1 0x20 DUP3 DUP5 SUB SLT ISZERO PUSH2 0x45B JUMPI PUSH2 0x45A PUSH2 0x234 JUMP JUMPDEST JUMPDEST PUSH1 0x0 DUP3 ADD CALLDATALOAD PUSH8 0xFFFFFFFFFFFFFFFF DUP2 GT ISZERO PUSH2 0x479 JUMPI PUSH2 0x478 PUSH2 0x239 JUMP JUMPDEST JUMPDEST PUSH2 0x485 DUP5 DUP3 DUP6 ADD PUSH2 0x417 JUMP JUMPDEST SWAP2 POP POP SWAP3 SWAP2 POP POP JUMP JUMPDEST PUSH1 0x0 DUP2 SWAP1 POP SWAP2 SWAP1 POP JUMP JUMPDEST PUSH2 0x4A1 DUP2 PUSH2 0x48E JUMP JUMPDEST DUP3 MSTORE POP POP JUMP JUMPDEST PUSH1 0x0 PUSH1 0x20 DUP3 ADD SWAP1 POP PUSH2 0x4BC PUSH1 0x0 DUP4 ADD DUP5 PUSH2 0x498 JUMP JUMPDEST SWAP3 SWAP2 POP POP JUMP JUMPDEST PUSH1 0x0 DUP3 DUP3 MSTORE PUSH1 0x20 DUP3 ADD SWAP1 POP SWAP3 SWAP2 POP POP JUMP JUMPDEST PUSH32 0x416C726561647920766F74656400000000000000000000000000000000000000 PUSH1 0x0 DUP3 ADD MSTORE POP JUMP JUMPDEST PUSH1 0x0 PUSH2 0x509 PUSH1 0xD DUP4 PUSH2 0x4C2 JUMP JUMPDEST SWAP2 POP PUSH2 0x514 DUP3 PUSH2 0x4D3 JUMP JUMPDEST PUSH1 0x20 DUP3 ADD SWAP1 POP SWAP2 SWAP1 POP JUMP JUMPDEST PUSH1 0x0 PUSH1 0x20 DUP3 ADD SWAP1 POP DUP2 DUP2 SUB PUSH1 0x0 DUP4 ADD MSTORE PUSH2 0x538 DUP2 PUSH2 0x4FC JUMP JUMPDEST SWAP1 POP SWAP2 SWAP1 POP JUMP JUMPDEST PUSH1 0x0 DUP2 MLOAD SWAP1 POP SWAP2 SWAP1 POP JUMP JUMPDEST PUSH1 0x0 DUP2 SWAP1 POP SWAP3 SWAP2 POP POP JUMP JUMPDEST PUSH1 0x0 JUMPDEST DUP4 DUP2 LT ISZERO PUSH2 0x573 JUMPI DUP1 DUP3 ADD MLOAD DUP2 DUP5 ADD MSTORE PUSH1 0x20 DUP2 ADD SWAP1 POP PUSH2 0x558 JUMP JUMPDEST PUSH1 0x0 DUP5 DUP5 ADD MSTORE POP POP POP POP JUMP JUMPDEST PUSH1 0x0 PUSH2 0x58A DUP3 PUSH2 0x53F JUMP JUMPDEST PUSH2 0x594 DUP2 DUP6 PUSH2 0x54A JUMP JUMPDEST SWAP4 POP PUSH2 0x5A4 DUP2 DUP6 PUSH1 0x20 DUP7 ADD PUSH2 0x555 JUMP JUMPDEST DUP1 DUP5 ADD SWAP2 POP POP SWAP3 SWAP2 POP POP JUMP JUMPDEST PUSH1 0x0 PUSH2 0x5BC DUP3 DUP5 PUSH2 0x57F JUMP JUMPDEST SWAP2 POP DUP2 SWAP1 POP SWAP3 SWAP2 POP POP JUMP JUMPDEST PUSH32 0x4E487B7100000000000000000000000000000000000000000000000000000000 PUSH1 0x0 MSTORE PUSH1 0x11 PUSH1 0x4 MSTORE PUSH1 0x24 PUSH1 0x0 REVERT JUMPDEST PUSH1 0x0 PUSH2 0x601 DUP3 PUSH2 0x48E JUMP JUMPDEST SWAP2 POP PUSH32 0xFFFFFFFFFFFFFFFFFFFFFFFFFFFFFFFFFFFFFFFFFFFFFFFFFFFFFFFFFFFFFFFF DUP3 SUB PUSH2 0x633 JUMPI PUSH2 0x632 PUSH2 0x5C7 JUMP JUMPDEST JUMPDEST PUSH1 0x1 DUP3 ADD SWAP1 POP SWAP2 SWAP1 POP JUMP INVALID LOG2 PUSH5 0x6970667358 0x22 SLT KECCAK256 DUP14 DUP8 0xE 0x28 DUP8 0x2B 0x22 GASPRICE NOT PUSH4 0x56F7671A PUSH20 0x10B598EC54EDC22C99E4E539469C02217B64736F PUSH13 0x63430008120033000000000000 "
				},
				"gasEstimates": {
					"creation": {
						"codeDepositCost": "330400",
						"executionCost": "368",
						"totalCost": "330768"
					},
					"external": {
						"hasVoted(address)": "2823",
						"vote(string)": "infinite",
						"voteCount(string)": "infinite"
					}
				},
				"methodIdentifiers": {
					"hasVoted(address)": "09eef43e",
					"vote(string)": "fc36e15b",
					"voteCount(string)": "ba7f7552"
				}
			},
			"storageLayout": {
				"storage": [
					{
						"astId": 5,
						"contract": "contracts/simple_vote.sol:Voting",
						"label": "hasVoted",
						"offset": 0,
						"slot": "0",
						"type": "t_mapping(t_address,t_bool)"
					},
					{
						"astId": 9,
						"contract": "contracts/simple_vote.sol:Voting",
						"label": "voteCount",
						"offset": 0,
						"slot": "1",
						"type": "t_mapping(t_string_memory_ptr,t_uint256)"
					}
				],
				"types": {
					"t_address": {
						"encoding": "inplace",
						"label": "address",
						"numberOfBytes": "20"
					},
					"t_bool": {
						"encoding": "inplace",
						"label": "bool",
						"numberOfBytes": "1"
					},
					"t_mapping(t_address,t_bool)": {
						"encoding": "mapping",
						"key": "t_address",
						"label": "mapping(address => bool)",
						"numberOfBytes": "32",
						"value": "t_bool"
					},
					"t_mapping(t_string_memory_ptr,t_uint256)": {
						"encoding": "mapping",
						"key": "t_string_memory_ptr",
						"label": "mapping(string => uint256)",
						"numberOfBytes": "32",
						"value": "t_uint256"
					},
					"t_string_memory_ptr": {
						"encoding": "bytes",
						"label": "string",
						"numberOfBytes": "32"
					},
					"t_uint256": {
						"encoding": "inplace",
						"label": "uint256",
						"numberOfBytes": "32"
					}
				}
			},
			"userdoc": {
				"kind": "user",
				"methods": {},
				"version": 1
			}
		}
	}
}