{
	"contracts/marketplace.sol": {
		"marketPlace": {
			"abi": [
				{
					"anonymous": false,
					"inputs": [
						{
							"indexed": false,
							"internalType": "uint256",
							"name": "id",
							"type": "uint256"
						},
						{
							"indexed": false,
							"internalType": "string",
							"name": "name",
							"type": "string"
						},
						{
							"indexed": false,
							"internalType": "uint256",
							"name": "price",
							"type": "uint256"
						},
						{
							"indexed": false,
							"internalType": "address",
							"name": "seller",
							"type": "address"
						}
					],
					"name": "ProductCreated",
					"type": "event"
				},
				{
					"anonymous": false,
					"inputs": [
						{
							"indexed": false,
							"internalType": "uint256",
							"name": "id",
							"type": "uint256"
						},
						{
							"indexed": false,
							"internalType": "string",
							"name": "name",
							"type": "string"
						},
						{
							"indexed": false,
							"internalType": "uint256",
							"name": "price",
							"type": "uint256"
						},
						{
							"indexed": false,
							"internalType": "address",
							"name": "seller",
							"type": "address"
						},
						{
							"indexed": false,
							"internalType": "address",
							"name": "buyer",
							"type": "address"
						}
					],
					"name": "ProductSold",
					"type": "event"
				},
				{
					"inputs": [],
					"name": "ProductCount",
					"outputs": [
						{
							"internalType": "uint256",
							"name": "",
							"type": "uint256"
						}
					],
					"stateMutability": "view",
					"type": "function"
				},
				{
					"inputs": [
						{
							"internalType": "uint256",
							"name": "_id",
							"type": "uint256"
						}
					],
					"name": "buyProduct",
					"outputs": [],
					"stateMutability": "payable",
					"type": "function"
				},
				{
					"inputs": [
						{
							"internalType": "string",
							"name": "_name",
							"type": "string"
						},
						{
							"internalType": "uint256",
							"name": "_price",
							"type": "uint256"
						}
					],
					"name": "createProduct",
					"outputs": [],
					"stateMutability": "nonpayable",
					"type": "function"
				},
				{
					"inputs": [
						{
							"internalType": "uint256",
							"name": "",
							"type": "uint256"
						}
					],
					"name": "products",
					"outputs": [
						{
							"internalType": "uint256",
							"name": "id",
							"type": "uint256"
						},
						{
							"internalType": "string",
							"name": "name",
							"type": "string"
						},
						{
							"internalType": "uint256",
							"name": "price",
							"type": "uint256"
						},
						{
							"internalType": "address payable",
							"name": "seller",
							"type": "address"
						},
						{
							"internalType": "bool",
							"name": "isSold",
							"type": "bool"
						}
					],
					"stateMutability": "view",
					"type": "function"
				}
			],
			"devdoc": {
				"kind": "dev",
				"methods": {},
				"version": 1
			},
			"evm": {
				"assembly": "    /* \"contracts/marketplace.sol\":58:1256  contract marketPlace {... */\n  mstore(0x40, 0x80)\n  callvalue\n  dup1\n  iszero\n  tag_1\n  jumpi\n  0x00\n  dup1\n  revert\ntag_1:\n  pop\n  dataSize(sub_0)\n  dup1\n  dataOffset(sub_0)\n  0x00\n  codecopy\n  0x00\n  return\nstop\n\nsub_0: assembly {\n        /* \"contracts/marketplace.sol\":58:1256  contract marketPlace {... */\n      mstore(0x40, 0x80)\n      jumpi(tag_1, lt(calldatasize, 0x04))\n      shr(0xe0, calldataload(0x00))\n      dup1\n      0x4f67c624\n      eq\n      tag_2\n      jumpi\n      dup1\n      0x7acc0b20\n      eq\n      tag_3\n      jumpi\n      dup1\n      0x8642269e\n      eq\n      tag_4\n      jumpi\n      dup1\n      0xe9300c6c\n      eq\n      tag_5\n      jumpi\n    tag_1:\n      0x00\n      dup1\n      revert\n        /* \"contracts/marketplace.sol\":224:248  uint public ProductCount */\n    tag_2:\n      callvalue\n      dup1\n      iszero\n      tag_6\n      jumpi\n      0x00\n      dup1\n      revert\n    tag_6:\n      pop\n      tag_7\n      tag_8\n      jump\t// in\n    tag_7:\n      mload(0x40)\n      tag_9\n      swap2\n      swap1\n      tag_10\n      jump\t// in\n    tag_9:\n      mload(0x40)\n      dup1\n      swap2\n      sub\n      swap1\n      return\n        /* \"contracts/marketplace.sol\":254:294  mapping(uint => Product) public products */\n    tag_3:\n      callvalue\n      dup1\n      iszero\n      tag_11\n      jumpi\n      0x00\n      dup1\n      revert\n    tag_11:\n      pop\n      tag_12\n      0x04\n      dup1\n      calldatasize\n      sub\n      dup2\n      add\n      swap1\n      tag_13\n      swap2\n      swap1\n      tag_14\n      jump\t// in\n    tag_13:\n      tag_15\n      jump\t// in\n    tag_12:\n      mload(0x40)\n      tag_16\n      swap6\n      swap5\n      swap4\n      swap3\n      swap2\n      swap1\n      tag_17\n      jump\t// in\n    tag_16:\n      mload(0x40)\n      dup1\n      swap2\n      sub\n      swap1\n      return\n        /* \"contracts/marketplace.sol\":748:1254  function buyProduct(uint _id) public payable{... */\n    tag_4:\n      tag_18\n      0x04\n      dup1\n      calldatasize\n      sub\n      dup2\n      add\n      swap1\n      tag_19\n      swap2\n      swap1\n      tag_14\n      jump\t// in\n    tag_19:\n      tag_20\n      jump\t// in\n    tag_18:\n      stop\n        /* \"contracts/marketplace.sol\":466:742  function createProduct(string memory _name, uint _price) public {... */\n    tag_5:\n      callvalue\n      dup1\n      iszero\n      tag_21\n      jumpi\n      0x00\n      dup1\n      revert\n    tag_21:\n      pop\n      tag_22\n      0x04\n      dup1\n      calldatasize\n      sub\n      dup2\n      add\n      swap1\n      tag_23\n      swap2\n      swap1\n      tag_24\n      jump\t// in\n    tag_23:\n      tag_25\n      jump\t// in\n    tag_22:\n      stop\n        /* \"contracts/marketplace.sol\":224:248  uint public ProductCount */\n    tag_8:\n      sload(0x00)\n      dup2\n      jump\t// out\n        /* \"contracts/marketplace.sol\":254:294  mapping(uint => Product) public products */\n    tag_15:\n      mstore(0x20, 0x01)\n      dup1\n      0x00\n      mstore\n      keccak256(0x00, 0x40)\n      0x00\n      swap2\n      pop\n      swap1\n      pop\n      dup1\n      0x00\n      add\n      sload\n      swap1\n      dup1\n      0x01\n      add\n      dup1\n      sload\n      tag_26\n      swap1\n      tag_27\n      jump\t// in\n    tag_26:\n      dup1\n      0x1f\n      add\n      0x20\n      dup1\n      swap2\n      div\n      mul\n      0x20\n      add\n      mload(0x40)\n      swap1\n      dup2\n      add\n      0x40\n      mstore\n      dup1\n      swap3\n      swap2\n      swap1\n      dup2\n      dup2\n      mstore\n      0x20\n      add\n      dup3\n      dup1\n      sload\n      tag_28\n      swap1\n      tag_27\n      jump\t// in\n    tag_28:\n      dup1\n      iszero\n      tag_29\n      jumpi\n      dup1\n      0x1f\n      lt\n      tag_30\n      jumpi\n      0x0100\n      dup1\n      dup4\n      sload\n      div\n      mul\n      dup4\n      mstore\n      swap2\n      0x20\n      add\n      swap2\n      jump(tag_29)\n    tag_30:\n      dup3\n      add\n      swap2\n      swap1\n      0x00\n      mstore\n      keccak256(0x00, 0x20)\n      swap1\n    tag_31:\n      dup2\n      sload\n      dup2\n      mstore\n      swap1\n      0x01\n      add\n      swap1\n      0x20\n      add\n      dup1\n      dup4\n      gt\n      tag_31\n      jumpi\n      dup3\n      swap1\n      sub\n      0x1f\n      and\n      dup3\n      add\n      swap2\n    tag_29:\n      pop\n      pop\n      pop\n      pop\n      pop\n      swap1\n      dup1\n      0x02\n      add\n      sload\n      swap1\n      dup1\n      0x03\n      add\n      0x00\n      swap1\n      sload\n      swap1\n      0x0100\n      exp\n      swap1\n      div\n      0xffffffffffffffffffffffffffffffffffffffff\n      and\n      swap1\n      dup1\n      0x03\n      add\n      0x14\n      swap1\n      sload\n      swap1\n      0x0100\n      exp\n      swap1\n      div\n      0xff\n      and\n      swap1\n      pop\n      dup6\n      jump\t// out\n        /* \"contracts/marketplace.sol\":748:1254  function buyProduct(uint _id) public payable{... */\n    tag_20:\n        /* \"contracts/marketplace.sol\":802:825  Product storage product */\n      0x00\n        /* \"contracts/marketplace.sol\":828:836  products */\n      0x01\n        /* \"contracts/marketplace.sol\":828:841  products[_id] */\n      0x00\n        /* \"contracts/marketplace.sol\":837:840  _id */\n      dup4\n        /* \"contracts/marketplace.sol\":828:841  products[_id] */\n      dup2\n      mstore\n      0x20\n      add\n      swap1\n      dup2\n      mstore\n      0x20\n      add\n      0x00\n      keccak256\n        /* \"contracts/marketplace.sol\":802:841  Product storage product = products[_id] */\n      swap1\n      pop\n        /* \"contracts/marketplace.sol\":873:874  0 */\n      0x00\n        /* \"contracts/marketplace.sol\":860:867  product */\n      dup2\n        /* \"contracts/marketplace.sol\":860:870  product.id */\n      0x00\n      add\n      sload\n        /* \"contracts/marketplace.sol\":860:874  product.id > 0 */\n      gt\n        /* \"contracts/marketplace.sol\":860:904  product.id > 0 && product.id <= ProductCount */\n      dup1\n      iszero\n      tag_33\n      jumpi\n      pop\n        /* \"contracts/marketplace.sol\":892:904  ProductCount */\n      sload(0x00)\n        /* \"contracts/marketplace.sol\":878:885  product */\n      dup2\n        /* \"contracts/marketplace.sol\":878:888  product.id */\n      0x00\n      add\n      sload\n        /* \"contracts/marketplace.sol\":878:904  product.id <= ProductCount */\n      gt\n      iszero\n        /* \"contracts/marketplace.sol\":860:904  product.id > 0 && product.id <= ProductCount */\n    tag_33:\n        /* \"contracts/marketplace.sol\":852:927  require(product.id > 0 && product.id <= ProductCount, \"Invalid Product ID\") */\n      tag_34\n      jumpi\n      mload(0x40)\n      0x08c379a000000000000000000000000000000000000000000000000000000000\n      dup2\n      mstore\n      0x04\n      add\n      tag_35\n      swap1\n      tag_36\n      jump\t// in\n    tag_35:\n      mload(0x40)\n      dup1\n      swap2\n      sub\n      swap1\n      revert\n    tag_34:\n        /* \"contracts/marketplace.sol\":946:953  product */\n      dup1\n        /* \"contracts/marketplace.sol\":946:960  product.isSold */\n      0x03\n      add\n      0x14\n      swap1\n      sload\n      swap1\n      0x0100\n      exp\n      swap1\n      div\n      0xff\n      and\n        /* \"contracts/marketplace.sol\":945:960  !product.isSold */\n      iszero\n        /* \"contracts/marketplace.sol\":937:986  require(!product.isSold, \"Product Already Sold!\") */\n      tag_37\n      jumpi\n      mload(0x40)\n      0x08c379a000000000000000000000000000000000000000000000000000000000\n      dup2\n      mstore\n      0x04\n      add\n      tag_38\n      swap1\n      tag_39\n      jump\t// in\n    tag_38:\n      mload(0x40)\n      dup1\n      swap2\n      sub\n      swap1\n      revert\n    tag_37:\n        /* \"contracts/marketplace.sol\":1017:1024  product */\n      dup1\n        /* \"contracts/marketplace.sol\":1017:1030  product.price */\n      0x02\n      add\n      sload\n        /* \"contracts/marketplace.sol\":1004:1013  msg.value */\n      callvalue\n        /* \"contracts/marketplace.sol\":1004:1030  msg.value >= product.price */\n      lt\n      iszero\n        /* \"contracts/marketplace.sol\":996:1053  require(msg.value >= product.price, \"Insufficient funds\") */\n      tag_40\n      jumpi\n      mload(0x40)\n      0x08c379a000000000000000000000000000000000000000000000000000000000\n      dup2\n      mstore\n      0x04\n      add\n      tag_41\n      swap1\n      tag_42\n      jump\t// in\n    tag_41:\n      mload(0x40)\n      dup1\n      swap2\n      sub\n      swap1\n      revert\n    tag_40:\n        /* \"contracts/marketplace.sol\":1081:1085  true */\n      0x01\n        /* \"contracts/marketplace.sol\":1064:1071  product */\n      dup2\n        /* \"contracts/marketplace.sol\":1064:1078  product.isSold */\n      0x03\n      add\n      0x14\n        /* \"contracts/marketplace.sol\":1064:1085  product.isSold = true */\n      0x0100\n      exp\n      dup2\n      sload\n      dup2\n      0xff\n      mul\n      not\n      and\n      swap1\n      dup4\n      iszero\n      iszero\n      mul\n      or\n      swap1\n      sstore\n      pop\n        /* \"contracts/marketplace.sol\":1095:1102  product */\n      dup1\n        /* \"contracts/marketplace.sol\":1095:1109  product.seller */\n      0x03\n      add\n      0x00\n      swap1\n      sload\n      swap1\n      0x0100\n      exp\n      swap1\n      div\n      0xffffffffffffffffffffffffffffffffffffffff\n      and\n        /* \"contracts/marketplace.sol\":1095:1118  product.seller.transfer */\n      0xffffffffffffffffffffffffffffffffffffffff\n      and\n        /* \"contracts/marketplace.sol\":1095:1133  product.seller.transfer(product.price) */\n      0x08fc\n        /* \"contracts/marketplace.sol\":1119:1126  product */\n      dup3\n        /* \"contracts/marketplace.sol\":1119:1132  product.price */\n      0x02\n      add\n      sload\n        /* \"contracts/marketplace.sol\":1095:1133  product.seller.transfer(product.price) */\n      swap1\n      dup2\n      iszero\n      mul\n      swap1\n      mload(0x40)\n      0x00\n      mload(0x40)\n      dup1\n      dup4\n      sub\n      dup2\n      dup6\n      dup9\n      dup9\n      call\n      swap4\n      pop\n      pop\n      pop\n      pop\n      iszero\n      dup1\n      iszero\n      tag_44\n      jumpi\n      returndatasize\n      0x00\n      dup1\n      returndatacopy\n      revert(0x00, returndatasize)\n    tag_44:\n      pop\n        /* \"contracts/marketplace.sol\":1149:1247  ProductSold(product.id, product.name, product.price, payable(product.seller), payable(msg.sender)) */\n      0x2047c6629399a11ff135b2bc592507ecc4e0f9fbea4846a6834c0e455288b148\n        /* \"contracts/marketplace.sol\":1161:1168  product */\n      dup2\n        /* \"contracts/marketplace.sol\":1161:1171  product.id */\n      0x00\n      add\n      sload\n        /* \"contracts/marketplace.sol\":1173:1180  product */\n      dup3\n        /* \"contracts/marketplace.sol\":1173:1185  product.name */\n      0x01\n      add\n        /* \"contracts/marketplace.sol\":1187:1194  product */\n      dup4\n        /* \"contracts/marketplace.sol\":1187:1200  product.price */\n      0x02\n      add\n      sload\n        /* \"contracts/marketplace.sol\":1210:1217  product */\n      dup5\n        /* \"contracts/marketplace.sol\":1210:1224  product.seller */\n      0x03\n      add\n      0x00\n      swap1\n      sload\n      swap1\n      0x0100\n      exp\n      swap1\n      div\n      0xffffffffffffffffffffffffffffffffffffffff\n      and\n        /* \"contracts/marketplace.sol\":1235:1245  msg.sender */\n      caller\n        /* \"contracts/marketplace.sol\":1149:1247  ProductSold(product.id, product.name, product.price, payable(product.seller), payable(msg.sender)) */\n      mload(0x40)\n      tag_45\n      swap6\n      swap5\n      swap4\n      swap3\n      swap2\n      swap1\n      tag_46\n      jump\t// in\n    tag_45:\n      mload(0x40)\n      dup1\n      swap2\n      sub\n      swap1\n      log1\n        /* \"contracts/marketplace.sol\":792:1254  {... */\n      pop\n        /* \"contracts/marketplace.sol\":748:1254  function buyProduct(uint _id) public payable{... */\n      pop\n      jump\t// out\n        /* \"contracts/marketplace.sol\":466:742  function createProduct(string memory _name, uint _price) public {... */\n    tag_25:\n        /* \"contracts/marketplace.sol\":540:552  ProductCount */\n      0x00\n      dup1\n        /* \"contracts/marketplace.sol\":540:555  ProductCount ++ */\n      dup2\n      sload\n      dup1\n      swap3\n      swap2\n      swap1\n      tag_48\n      swap1\n      tag_49\n      jump\t// in\n    tag_48:\n      swap2\n      swap1\n      pop\n      sstore\n      pop\n        /* \"contracts/marketplace.sol\":591:655  Product(ProductCount, _name, _price, payable(msg.sender), false) */\n      mload(0x40)\n      dup1\n      0xa0\n      add\n      0x40\n      mstore\n      dup1\n        /* \"contracts/marketplace.sol\":599:611  ProductCount */\n      sload(0x00)\n        /* \"contracts/marketplace.sol\":591:655  Product(ProductCount, _name, _price, payable(msg.sender), false) */\n      dup2\n      mstore\n      0x20\n      add\n        /* \"contracts/marketplace.sol\":613:618  _name */\n      dup4\n        /* \"contracts/marketplace.sol\":591:655  Product(ProductCount, _name, _price, payable(msg.sender), false) */\n      dup2\n      mstore\n      0x20\n      add\n        /* \"contracts/marketplace.sol\":620:626  _price */\n      dup3\n        /* \"contracts/marketplace.sol\":591:655  Product(ProductCount, _name, _price, payable(msg.sender), false) */\n      dup2\n      mstore\n      0x20\n      add\n        /* \"contracts/marketplace.sol\":636:646  msg.sender */\n      caller\n        /* \"contracts/marketplace.sol\":591:655  Product(ProductCount, _name, _price, payable(msg.sender), false) */\n      0xffffffffffffffffffffffffffffffffffffffff\n      and\n      dup2\n      mstore\n      0x20\n      add\n        /* \"contracts/marketplace.sol\":649:654  false */\n      0x00\n        /* \"contracts/marketplace.sol\":591:655  Product(ProductCount, _name, _price, payable(msg.sender), false) */\n      iszero\n      iszero\n      dup2\n      mstore\n      pop\n        /* \"contracts/marketplace.sol\":566:574  products */\n      0x01\n        /* \"contracts/marketplace.sol\":566:588  products[ProductCount] */\n      0x00\n        /* \"contracts/marketplace.sol\":575:587  ProductCount */\n      dup1\n      sload\n        /* \"contracts/marketplace.sol\":566:588  products[ProductCount] */\n      dup2\n      mstore\n      0x20\n      add\n      swap1\n      dup2\n      mstore\n      0x20\n      add\n      0x00\n      keccak256\n        /* \"contracts/marketplace.sol\":566:655  products[ProductCount] = Product(ProductCount, _name, _price, payable(msg.sender), false) */\n      0x00\n      dup3\n      add\n      mload\n      dup2\n      0x00\n      add\n      sstore\n      0x20\n      dup3\n      add\n      mload\n      dup2\n      0x01\n      add\n      swap1\n      dup2\n      tag_50\n      swap2\n      swap1\n      tag_51\n      jump\t// in\n    tag_50:\n      pop\n      0x40\n      dup3\n      add\n      mload\n      dup2\n      0x02\n      add\n      sstore\n      0x60\n      dup3\n      add\n      mload\n      dup2\n      0x03\n      add\n      exp(0x0100, 0x00)\n      dup2\n      sload\n      dup2\n      0xffffffffffffffffffffffffffffffffffffffff\n      mul\n      not\n      and\n      swap1\n      dup4\n      0xffffffffffffffffffffffffffffffffffffffff\n      and\n      mul\n      or\n      swap1\n      sstore\n      pop\n      0x80\n      dup3\n      add\n      mload\n      dup2\n      0x03\n      add\n      exp(0x0100, 0x14)\n      dup2\n      sload\n      dup2\n      0xff\n      mul\n      not\n      and\n      swap1\n      dup4\n      iszero\n      iszero\n      mul\n      or\n      swap1\n      sstore\n      pop\n      swap1\n      pop\n      pop\n        /* \"contracts/marketplace.sol\":671:735  ProductCreated(ProductCount, _name, _price, payable(msg.sender)) */\n      0x2e87df3c8f53fb06266ed52023929f5fab9f24130224ef6538b665d9cac82530\n        /* \"contracts/marketplace.sol\":686:698  ProductCount */\n      sload(0x00)\n        /* \"contracts/marketplace.sol\":700:705  _name */\n      dup4\n        /* \"contracts/marketplace.sol\":707:713  _price */\n      dup4\n        /* \"contracts/marketplace.sol\":723:733  msg.sender */\n      caller\n        /* \"contracts/marketplace.sol\":671:735  ProductCreated(ProductCount, _name, _price, payable(msg.sender)) */\n      mload(0x40)\n      tag_52\n      swap5\n      swap4\n      swap3\n      swap2\n      swap1\n      tag_53\n      jump\t// in\n    tag_52:\n      mload(0x40)\n      dup1\n      swap2\n      sub\n      swap1\n      log1\n        /* \"contracts/marketplace.sol\":466:742  function createProduct(string memory _name, uint _price) public {... */\n      pop\n      pop\n      jump\t// out\n        /* \"#utility.yul\":7:84   */\n    tag_54:\n        /* \"#utility.yul\":44:51   */\n      0x00\n        /* \"#utility.yul\":73:78   */\n      dup2\n        /* \"#utility.yul\":62:78   */\n      swap1\n      pop\n        /* \"#utility.yul\":7:84   */\n      swap2\n      swap1\n      pop\n      jump\t// out\n        /* \"#utility.yul\":90:208   */\n    tag_55:\n        /* \"#utility.yul\":177:201   */\n      tag_111\n        /* \"#utility.yul\":195:200   */\n      dup2\n        /* \"#utility.yul\":177:201   */\n      tag_54\n      jump\t// in\n    tag_111:\n        /* \"#utility.yul\":172:175   */\n      dup3\n        /* \"#utility.yul\":165:202   */\n      mstore\n        /* \"#utility.yul\":90:208   */\n      pop\n      pop\n      jump\t// out\n        /* \"#utility.yul\":214:436   */\n    tag_10:\n        /* \"#utility.yul\":307:311   */\n      0x00\n        /* \"#utility.yul\":345:347   */\n      0x20\n        /* \"#utility.yul\":334:343   */\n      dup3\n        /* \"#utility.yul\":330:348   */\n      add\n        /* \"#utility.yul\":322:348   */\n      swap1\n      pop\n        /* \"#utility.yul\":358:429   */\n      tag_113\n        /* \"#utility.yul\":426:427   */\n      0x00\n        /* \"#utility.yul\":415:424   */\n      dup4\n        /* \"#utility.yul\":411:428   */\n      add\n        /* \"#utility.yul\":402:408   */\n      dup5\n        /* \"#utility.yul\":358:429   */\n      tag_55\n      jump\t// in\n    tag_113:\n        /* \"#utility.yul\":214:436   */\n      swap3\n      swap2\n      pop\n      pop\n      jump\t// out\n        /* \"#utility.yul\":442:517   */\n    tag_56:\n        /* \"#utility.yul\":475:481   */\n      0x00\n        /* \"#utility.yul\":508:510   */\n      0x40\n        /* \"#utility.yul\":502:511   */\n      mload\n        /* \"#utility.yul\":492:511   */\n      swap1\n      pop\n        /* \"#utility.yul\":442:517   */\n      swap1\n      jump\t// out\n        /* \"#utility.yul\":523:640   */\n    tag_57:\n        /* \"#utility.yul\":632:633   */\n      0x00\n        /* \"#utility.yul\":629:630   */\n      dup1\n        /* \"#utility.yul\":622:634   */\n      revert\n        /* \"#utility.yul\":646:763   */\n    tag_58:\n        /* \"#utility.yul\":755:756   */\n      0x00\n        /* \"#utility.yul\":752:753   */\n      dup1\n        /* \"#utility.yul\":745:757   */\n      revert\n        /* \"#utility.yul\":769:891   */\n    tag_59:\n        /* \"#utility.yul\":842:866   */\n      tag_118\n        /* \"#utility.yul\":860:865   */\n      dup2\n        /* \"#utility.yul\":842:866   */\n      tag_54\n      jump\t// in\n    tag_118:\n        /* \"#utility.yul\":835:840   */\n      dup2\n        /* \"#utility.yul\":832:867   */\n      eq\n        /* \"#utility.yul\":822:885   */\n      tag_119\n      jumpi\n        /* \"#utility.yul\":881:882   */\n      0x00\n        /* \"#utility.yul\":878:879   */\n      dup1\n        /* \"#utility.yul\":871:883   */\n      revert\n        /* \"#utility.yul\":822:885   */\n    tag_119:\n        /* \"#utility.yul\":769:891   */\n      pop\n      jump\t// out\n        /* \"#utility.yul\":897:1036   */\n    tag_60:\n        /* \"#utility.yul\":943:948   */\n      0x00\n        /* \"#utility.yul\":981:987   */\n      dup2\n        /* \"#utility.yul\":968:988   */\n      calldataload\n        /* \"#utility.yul\":959:988   */\n      swap1\n      pop\n        /* \"#utility.yul\":997:1030   */\n      tag_121\n        /* \"#utility.yul\":1024:1029   */\n      dup2\n        /* \"#utility.yul\":997:1030   */\n      tag_59\n      jump\t// in\n    tag_121:\n        /* \"#utility.yul\":897:1036   */\n      swap3\n      swap2\n      pop\n      pop\n      jump\t// out\n        /* \"#utility.yul\":1042:1371   */\n    tag_14:\n        /* \"#utility.yul\":1101:1107   */\n      0x00\n        /* \"#utility.yul\":1150:1152   */\n      0x20\n        /* \"#utility.yul\":1138:1147   */\n      dup3\n        /* \"#utility.yul\":1129:1136   */\n      dup5\n        /* \"#utility.yul\":1125:1148   */\n      sub\n        /* \"#utility.yul\":1121:1153   */\n      slt\n        /* \"#utility.yul\":1118:1237   */\n      iszero\n      tag_123\n      jumpi\n        /* \"#utility.yul\":1156:1235   */\n      tag_124\n      tag_57\n      jump\t// in\n    tag_124:\n        /* \"#utility.yul\":1118:1237   */\n    tag_123:\n        /* \"#utility.yul\":1276:1277   */\n      0x00\n        /* \"#utility.yul\":1301:1354   */\n      tag_125\n        /* \"#utility.yul\":1346:1353   */\n      dup5\n        /* \"#utility.yul\":1337:1343   */\n      dup3\n        /* \"#utility.yul\":1326:1335   */\n      dup6\n        /* \"#utility.yul\":1322:1344   */\n      add\n        /* \"#utility.yul\":1301:1354   */\n      tag_60\n      jump\t// in\n    tag_125:\n        /* \"#utility.yul\":1291:1354   */\n      swap2\n      pop\n        /* \"#utility.yul\":1247:1364   */\n      pop\n        /* \"#utility.yul\":1042:1371   */\n      swap3\n      swap2\n      pop\n      pop\n      jump\t// out\n        /* \"#utility.yul\":1377:1476   */\n    tag_61:\n        /* \"#utility.yul\":1429:1435   */\n      0x00\n        /* \"#utility.yul\":1463:1468   */\n      dup2\n        /* \"#utility.yul\":1457:1469   */\n      mload\n        /* \"#utility.yul\":1447:1469   */\n      swap1\n      pop\n        /* \"#utility.yul\":1377:1476   */\n      swap2\n      swap1\n      pop\n      jump\t// out\n        /* \"#utility.yul\":1482:1651   */\n    tag_62:\n        /* \"#utility.yul\":1566:1577   */\n      0x00\n        /* \"#utility.yul\":1600:1606   */\n      dup3\n        /* \"#utility.yul\":1595:1598   */\n      dup3\n        /* \"#utility.yul\":1588:1607   */\n      mstore\n        /* \"#utility.yul\":1640:1644   */\n      0x20\n        /* \"#utility.yul\":1635:1638   */\n      dup3\n        /* \"#utility.yul\":1631:1645   */\n      add\n        /* \"#utility.yul\":1616:1645   */\n      swap1\n      pop\n        /* \"#utility.yul\":1482:1651   */\n      swap3\n      swap2\n      pop\n      pop\n      jump\t// out\n        /* \"#utility.yul\":1657:1903   */\n    tag_63:\n        /* \"#utility.yul\":1738:1739   */\n      0x00\n        /* \"#utility.yul\":1748:1861   */\n    tag_129:\n        /* \"#utility.yul\":1762:1768   */\n      dup4\n        /* \"#utility.yul\":1759:1760   */\n      dup2\n        /* \"#utility.yul\":1756:1769   */\n      lt\n        /* \"#utility.yul\":1748:1861   */\n      iszero\n      tag_131\n      jumpi\n        /* \"#utility.yul\":1847:1848   */\n      dup1\n        /* \"#utility.yul\":1842:1845   */\n      dup3\n        /* \"#utility.yul\":1838:1849   */\n      add\n        /* \"#utility.yul\":1832:1850   */\n      mload\n        /* \"#utility.yul\":1828:1829   */\n      dup2\n        /* \"#utility.yul\":1823:1826   */\n      dup5\n        /* \"#utility.yul\":1819:1830   */\n      add\n        /* \"#utility.yul\":1812:1851   */\n      mstore\n        /* \"#utility.yul\":1784:1786   */\n      0x20\n        /* \"#utility.yul\":1781:1782   */\n      dup2\n        /* \"#utility.yul\":1777:1787   */\n      add\n        /* \"#utility.yul\":1772:1787   */\n      swap1\n      pop\n        /* \"#utility.yul\":1748:1861   */\n      jump(tag_129)\n    tag_131:\n        /* \"#utility.yul\":1895:1896   */\n      0x00\n        /* \"#utility.yul\":1886:1892   */\n      dup5\n        /* \"#utility.yul\":1881:1884   */\n      dup5\n        /* \"#utility.yul\":1877:1893   */\n      add\n        /* \"#utility.yul\":1870:1897   */\n      mstore\n        /* \"#utility.yul\":1719:1903   */\n      pop\n        /* \"#utility.yul\":1657:1903   */\n      pop\n      pop\n      pop\n      jump\t// out\n        /* \"#utility.yul\":1909:2011   */\n    tag_64:\n        /* \"#utility.yul\":1950:1956   */\n      0x00\n        /* \"#utility.yul\":2001:2003   */\n      0x1f\n        /* \"#utility.yul\":1997:2004   */\n      not\n        /* \"#utility.yul\":1992:1994   */\n      0x1f\n        /* \"#utility.yul\":1985:1990   */\n      dup4\n        /* \"#utility.yul\":1981:1995   */\n      add\n        /* \"#utility.yul\":1977:2005   */\n      and\n        /* \"#utility.yul\":1967:2005   */\n      swap1\n      pop\n        /* \"#utility.yul\":1909:2011   */\n      swap2\n      swap1\n      pop\n      jump\t// out\n        /* \"#utility.yul\":2017:2394   */\n    tag_65:\n        /* \"#utility.yul\":2105:2108   */\n      0x00\n        /* \"#utility.yul\":2133:2172   */\n      tag_134\n        /* \"#utility.yul\":2166:2171   */\n      dup3\n        /* \"#utility.yul\":2133:2172   */\n      tag_61\n      jump\t// in\n    tag_134:\n        /* \"#utility.yul\":2188:2259   */\n      tag_135\n        /* \"#utility.yul\":2252:2258   */\n      dup2\n        /* \"#utility.yul\":2247:2250   */\n      dup6\n        /* \"#utility.yul\":2188:2259   */\n      tag_62\n      jump\t// in\n    tag_135:\n        /* \"#utility.yul\":2181:2259   */\n      swap4\n      pop\n        /* \"#utility.yul\":2268:2333   */\n      tag_136\n        /* \"#utility.yul\":2326:2332   */\n      dup2\n        /* \"#utility.yul\":2321:2324   */\n      dup6\n        /* \"#utility.yul\":2314:2318   */\n      0x20\n        /* \"#utility.yul\":2307:2312   */\n      dup7\n        /* \"#utility.yul\":2303:2319   */\n      add\n        /* \"#utility.yul\":2268:2333   */\n      tag_63\n      jump\t// in\n    tag_136:\n        /* \"#utility.yul\":2358:2387   */\n      tag_137\n        /* \"#utility.yul\":2380:2386   */\n      dup2\n        /* \"#utility.yul\":2358:2387   */\n      tag_64\n      jump\t// in\n    tag_137:\n        /* \"#utility.yul\":2353:2356   */\n      dup5\n        /* \"#utility.yul\":2349:2388   */\n      add\n        /* \"#utility.yul\":2342:2388   */\n      swap2\n      pop\n        /* \"#utility.yul\":2109:2394   */\n      pop\n        /* \"#utility.yul\":2017:2394   */\n      swap3\n      swap2\n      pop\n      pop\n      jump\t// out\n        /* \"#utility.yul\":2400:2526   */\n    tag_66:\n        /* \"#utility.yul\":2437:2444   */\n      0x00\n        /* \"#utility.yul\":2477:2519   */\n      0xffffffffffffffffffffffffffffffffffffffff\n        /* \"#utility.yul\":2470:2475   */\n      dup3\n        /* \"#utility.yul\":2466:2520   */\n      and\n        /* \"#utility.yul\":2455:2520   */\n      swap1\n      pop\n        /* \"#utility.yul\":2400:2526   */\n      swap2\n      swap1\n      pop\n      jump\t// out\n        /* \"#utility.yul\":2532:2636   */\n    tag_67:\n        /* \"#utility.yul\":2577:2584   */\n      0x00\n        /* \"#utility.yul\":2606:2630   */\n      tag_140\n        /* \"#utility.yul\":2624:2629   */\n      dup3\n        /* \"#utility.yul\":2606:2630   */\n      tag_66\n      jump\t// in\n    tag_140:\n        /* \"#utility.yul\":2595:2630   */\n      swap1\n      pop\n        /* \"#utility.yul\":2532:2636   */\n      swap2\n      swap1\n      pop\n      jump\t// out\n        /* \"#utility.yul\":2642:2784   */\n    tag_68:\n        /* \"#utility.yul\":2745:2777   */\n      tag_142\n        /* \"#utility.yul\":2771:2776   */\n      dup2\n        /* \"#utility.yul\":2745:2777   */\n      tag_67\n      jump\t// in\n    tag_142:\n        /* \"#utility.yul\":2740:2743   */\n      dup3\n        /* \"#utility.yul\":2733:2778   */\n      mstore\n        /* \"#utility.yul\":2642:2784   */\n      pop\n      pop\n      jump\t// out\n        /* \"#utility.yul\":2790:2880   */\n    tag_69:\n        /* \"#utility.yul\":2824:2831   */\n      0x00\n        /* \"#utility.yul\":2867:2872   */\n      dup2\n        /* \"#utility.yul\":2860:2873   */\n      iszero\n        /* \"#utility.yul\":2853:2874   */\n      iszero\n        /* \"#utility.yul\":2842:2874   */\n      swap1\n      pop\n        /* \"#utility.yul\":2790:2880   */\n      swap2\n      swap1\n      pop\n      jump\t// out\n        /* \"#utility.yul\":2886:2995   */\n    tag_70:\n        /* \"#utility.yul\":2967:2988   */\n      tag_145\n        /* \"#utility.yul\":2982:2987   */\n      dup2\n        /* \"#utility.yul\":2967:2988   */\n      tag_69\n      jump\t// in\n    tag_145:\n        /* \"#utility.yul\":2962:2965   */\n      dup3\n        /* \"#utility.yul\":2955:2989   */\n      mstore\n        /* \"#utility.yul\":2886:2995   */\n      pop\n      pop\n      jump\t// out\n        /* \"#utility.yul\":3001:3776   */\n    tag_17:\n        /* \"#utility.yul\":3236:3240   */\n      0x00\n        /* \"#utility.yul\":3274:3277   */\n      0xa0\n        /* \"#utility.yul\":3263:3272   */\n      dup3\n        /* \"#utility.yul\":3259:3278   */\n      add\n        /* \"#utility.yul\":3251:3278   */\n      swap1\n      pop\n        /* \"#utility.yul\":3288:3359   */\n      tag_147\n        /* \"#utility.yul\":3356:3357   */\n      0x00\n        /* \"#utility.yul\":3345:3354   */\n      dup4\n        /* \"#utility.yul\":3341:3358   */\n      add\n        /* \"#utility.yul\":3332:3338   */\n      dup9\n        /* \"#utility.yul\":3288:3359   */\n      tag_55\n      jump\t// in\n    tag_147:\n        /* \"#utility.yul\":3406:3415   */\n      dup2\n        /* \"#utility.yul\":3400:3404   */\n      dup2\n        /* \"#utility.yul\":3396:3416   */\n      sub\n        /* \"#utility.yul\":3391:3393   */\n      0x20\n        /* \"#utility.yul\":3380:3389   */\n      dup4\n        /* \"#utility.yul\":3376:3394   */\n      add\n        /* \"#utility.yul\":3369:3417   */\n      mstore\n        /* \"#utility.yul\":3434:3512   */\n      tag_148\n        /* \"#utility.yul\":3507:3511   */\n      dup2\n        /* \"#utility.yul\":3498:3504   */\n      dup8\n        /* \"#utility.yul\":3434:3512   */\n      tag_65\n      jump\t// in\n    tag_148:\n        /* \"#utility.yul\":3426:3512   */\n      swap1\n      pop\n        /* \"#utility.yul\":3522:3594   */\n      tag_149\n        /* \"#utility.yul\":3590:3592   */\n      0x40\n        /* \"#utility.yul\":3579:3588   */\n      dup4\n        /* \"#utility.yul\":3575:3593   */\n      add\n        /* \"#utility.yul\":3566:3572   */\n      dup7\n        /* \"#utility.yul\":3522:3594   */\n      tag_55\n      jump\t// in\n    tag_149:\n        /* \"#utility.yul\":3604:3692   */\n      tag_150\n        /* \"#utility.yul\":3688:3690   */\n      0x60\n        /* \"#utility.yul\":3677:3686   */\n      dup4\n        /* \"#utility.yul\":3673:3691   */\n      add\n        /* \"#utility.yul\":3664:3670   */\n      dup6\n        /* \"#utility.yul\":3604:3692   */\n      tag_68\n      jump\t// in\n    tag_150:\n        /* \"#utility.yul\":3702:3769   */\n      tag_151\n        /* \"#utility.yul\":3764:3767   */\n      0x80\n        /* \"#utility.yul\":3753:3762   */\n      dup4\n        /* \"#utility.yul\":3749:3768   */\n      add\n        /* \"#utility.yul\":3740:3746   */\n      dup5\n        /* \"#utility.yul\":3702:3769   */\n      tag_70\n      jump\t// in\n    tag_151:\n        /* \"#utility.yul\":3001:3776   */\n      swap7\n      swap6\n      pop\n      pop\n      pop\n      pop\n      pop\n      pop\n      jump\t// out\n        /* \"#utility.yul\":3782:3899   */\n    tag_71:\n        /* \"#utility.yul\":3891:3892   */\n      0x00\n        /* \"#utility.yul\":3888:3889   */\n      dup1\n        /* \"#utility.yul\":3881:3893   */\n      revert\n        /* \"#utility.yul\":3905:4022   */\n    tag_72:\n        /* \"#utility.yul\":4014:4015   */\n      0x00\n        /* \"#utility.yul\":4011:4012   */\n      dup1\n        /* \"#utility.yul\":4004:4016   */\n      revert\n        /* \"#utility.yul\":4028:4208   */\n    tag_73:\n        /* \"#utility.yul\":4076:4153   */\n      0x4e487b7100000000000000000000000000000000000000000000000000000000\n        /* \"#utility.yul\":4073:4074   */\n      0x00\n        /* \"#utility.yul\":4066:4154   */\n      mstore\n        /* \"#utility.yul\":4173:4177   */\n      0x41\n        /* \"#utility.yul\":4170:4171   */\n      0x04\n        /* \"#utility.yul\":4163:4178   */\n      mstore\n        /* \"#utility.yul\":4197:4201   */\n      0x24\n        /* \"#utility.yul\":4194:4195   */\n      0x00\n        /* \"#utility.yul\":4187:4202   */\n      revert\n        /* \"#utility.yul\":4214:4495   */\n    tag_74:\n        /* \"#utility.yul\":4297:4324   */\n      tag_156\n        /* \"#utility.yul\":4319:4323   */\n      dup3\n        /* \"#utility.yul\":4297:4324   */\n      tag_64\n      jump\t// in\n    tag_156:\n        /* \"#utility.yul\":4289:4295   */\n      dup2\n        /* \"#utility.yul\":4285:4325   */\n      add\n        /* \"#utility.yul\":4427:4433   */\n      dup2\n        /* \"#utility.yul\":4415:4425   */\n      dup2\n        /* \"#utility.yul\":4412:4434   */\n      lt\n        /* \"#utility.yul\":4391:4409   */\n      0xffffffffffffffff\n        /* \"#utility.yul\":4379:4389   */\n      dup3\n        /* \"#utility.yul\":4376:4410   */\n      gt\n        /* \"#utility.yul\":4373:4435   */\n      or\n        /* \"#utility.yul\":4370:4458   */\n      iszero\n      tag_157\n      jumpi\n        /* \"#utility.yul\":4438:4456   */\n      tag_158\n      tag_73\n      jump\t// in\n    tag_158:\n        /* \"#utility.yul\":4370:4458   */\n    tag_157:\n        /* \"#utility.yul\":4478:4488   */\n      dup1\n        /* \"#utility.yul\":4474:4476   */\n      0x40\n        /* \"#utility.yul\":4467:4489   */\n      mstore\n        /* \"#utility.yul\":4257:4495   */\n      pop\n        /* \"#utility.yul\":4214:4495   */\n      pop\n      pop\n      jump\t// out\n        /* \"#utility.yul\":4501:4630   */\n    tag_75:\n        /* \"#utility.yul\":4535:4541   */\n      0x00\n        /* \"#utility.yul\":4562:4582   */\n      tag_160\n      tag_56\n      jump\t// in\n    tag_160:\n        /* \"#utility.yul\":4552:4582   */\n      swap1\n      pop\n        /* \"#utility.yul\":4591:4624   */\n      tag_161\n        /* \"#utility.yul\":4619:4623   */\n      dup3\n        /* \"#utility.yul\":4611:4617   */\n      dup3\n        /* \"#utility.yul\":4591:4624   */\n      tag_74\n      jump\t// in\n    tag_161:\n        /* \"#utility.yul\":4501:4630   */\n      swap2\n      swap1\n      pop\n      jump\t// out\n        /* \"#utility.yul\":4636:4944   */\n    tag_76:\n        /* \"#utility.yul\":4698:4702   */\n      0x00\n        /* \"#utility.yul\":4788:4806   */\n      0xffffffffffffffff\n        /* \"#utility.yul\":4780:4786   */\n      dup3\n        /* \"#utility.yul\":4777:4807   */\n      gt\n        /* \"#utility.yul\":4774:4830   */\n      iszero\n      tag_163\n      jumpi\n        /* \"#utility.yul\":4810:4828   */\n      tag_164\n      tag_73\n      jump\t// in\n    tag_164:\n        /* \"#utility.yul\":4774:4830   */\n    tag_163:\n        /* \"#utility.yul\":4848:4877   */\n      tag_165\n        /* \"#utility.yul\":4870:4876   */\n      dup3\n        /* \"#utility.yul\":4848:4877   */\n      tag_64\n      jump\t// in\n    tag_165:\n        /* \"#utility.yul\":4840:4877   */\n      swap1\n      pop\n        /* \"#utility.yul\":4932:4936   */\n      0x20\n        /* \"#utility.yul\":4926:4930   */\n      dup2\n        /* \"#utility.yul\":4922:4937   */\n      add\n        /* \"#utility.yul\":4914:4937   */\n      swap1\n      pop\n        /* \"#utility.yul\":4636:4944   */\n      swap2\n      swap1\n      pop\n      jump\t// out\n        /* \"#utility.yul\":4950:5096   */\n    tag_77:\n        /* \"#utility.yul\":5047:5053   */\n      dup3\n        /* \"#utility.yul\":5042:5045   */\n      dup2\n        /* \"#utility.yul\":5037:5040   */\n      dup4\n        /* \"#utility.yul\":5024:5054   */\n      calldatacopy\n        /* \"#utility.yul\":5088:5089   */\n      0x00\n        /* \"#utility.yul\":5079:5085   */\n      dup4\n        /* \"#utility.yul\":5074:5077   */\n      dup4\n        /* \"#utility.yul\":5070:5086   */\n      add\n        /* \"#utility.yul\":5063:5090   */\n      mstore\n        /* \"#utility.yul\":4950:5096   */\n      pop\n      pop\n      pop\n      jump\t// out\n        /* \"#utility.yul\":5102:5527   */\n    tag_78:\n        /* \"#utility.yul\":5180:5185   */\n      0x00\n        /* \"#utility.yul\":5205:5271   */\n      tag_168\n        /* \"#utility.yul\":5221:5270   */\n      tag_169\n        /* \"#utility.yul\":5263:5269   */\n      dup5\n        /* \"#utility.yul\":5221:5270   */\n      tag_76\n      jump\t// in\n    tag_169:\n        /* \"#utility.yul\":5205:5271   */\n      tag_75\n      jump\t// in\n    tag_168:\n        /* \"#utility.yul\":5196:5271   */\n      swap1\n      pop\n        /* \"#utility.yul\":5294:5300   */\n      dup3\n        /* \"#utility.yul\":5287:5292   */\n      dup2\n        /* \"#utility.yul\":5280:5301   */\n      mstore\n        /* \"#utility.yul\":5332:5336   */\n      0x20\n        /* \"#utility.yul\":5325:5330   */\n      dup2\n        /* \"#utility.yul\":5321:5337   */\n      add\n        /* \"#utility.yul\":5370:5373   */\n      dup5\n        /* \"#utility.yul\":5361:5367   */\n      dup5\n        /* \"#utility.yul\":5356:5359   */\n      dup5\n        /* \"#utility.yul\":5352:5368   */\n      add\n        /* \"#utility.yul\":5349:5374   */\n      gt\n        /* \"#utility.yul\":5346:5458   */\n      iszero\n      tag_170\n      jumpi\n        /* \"#utility.yul\":5377:5456   */\n      tag_171\n      tag_72\n      jump\t// in\n    tag_171:\n        /* \"#utility.yul\":5346:5458   */\n    tag_170:\n        /* \"#utility.yul\":5467:5521   */\n      tag_172\n        /* \"#utility.yul\":5514:5520   */\n      dup5\n        /* \"#utility.yul\":5509:5512   */\n      dup3\n        /* \"#utility.yul\":5504:5507   */\n      dup6\n        /* \"#utility.yul\":5467:5521   */\n      tag_77\n      jump\t// in\n    tag_172:\n        /* \"#utility.yul\":5186:5527   */\n      pop\n        /* \"#utility.yul\":5102:5527   */\n      swap4\n      swap3\n      pop\n      pop\n      pop\n      jump\t// out\n        /* \"#utility.yul\":5547:5887   */\n    tag_79:\n        /* \"#utility.yul\":5603:5608   */\n      0x00\n        /* \"#utility.yul\":5652:5655   */\n      dup3\n        /* \"#utility.yul\":5645:5649   */\n      0x1f\n        /* \"#utility.yul\":5637:5643   */\n      dup4\n        /* \"#utility.yul\":5633:5650   */\n      add\n        /* \"#utility.yul\":5629:5656   */\n      slt\n        /* \"#utility.yul\":5619:5741   */\n      tag_174\n      jumpi\n        /* \"#utility.yul\":5660:5739   */\n      tag_175\n      tag_71\n      jump\t// in\n    tag_175:\n        /* \"#utility.yul\":5619:5741   */\n    tag_174:\n        /* \"#utility.yul\":5777:5783   */\n      dup2\n        /* \"#utility.yul\":5764:5784   */\n      calldataload\n        /* \"#utility.yul\":5802:5881   */\n      tag_176\n        /* \"#utility.yul\":5877:5880   */\n      dup5\n        /* \"#utility.yul\":5869:5875   */\n      dup3\n        /* \"#utility.yul\":5862:5866   */\n      0x20\n        /* \"#utility.yul\":5854:5860   */\n      dup7\n        /* \"#utility.yul\":5850:5867   */\n      add\n        /* \"#utility.yul\":5802:5881   */\n      tag_78\n      jump\t// in\n    tag_176:\n        /* \"#utility.yul\":5793:5881   */\n      swap2\n      pop\n        /* \"#utility.yul\":5609:5887   */\n      pop\n        /* \"#utility.yul\":5547:5887   */\n      swap3\n      swap2\n      pop\n      pop\n      jump\t// out\n        /* \"#utility.yul\":5893:6547   */\n    tag_24:\n        /* \"#utility.yul\":5971:5977   */\n      0x00\n        /* \"#utility.yul\":5979:5985   */\n      dup1\n        /* \"#utility.yul\":6028:6030   */\n      0x40\n        /* \"#utility.yul\":6016:6025   */\n      dup4\n        /* \"#utility.yul\":6007:6014   */\n      dup6\n        /* \"#utility.yul\":6003:6026   */\n      sub\n        /* \"#utility.yul\":5999:6031   */\n      slt\n        /* \"#utility.yul\":5996:6115   */\n      iszero\n      tag_178\n      jumpi\n        /* \"#utility.yul\":6034:6113   */\n      tag_179\n      tag_57\n      jump\t// in\n    tag_179:\n        /* \"#utility.yul\":5996:6115   */\n    tag_178:\n        /* \"#utility.yul\":6182:6183   */\n      0x00\n        /* \"#utility.yul\":6171:6180   */\n      dup4\n        /* \"#utility.yul\":6167:6184   */\n      add\n        /* \"#utility.yul\":6154:6185   */\n      calldataload\n        /* \"#utility.yul\":6212:6230   */\n      0xffffffffffffffff\n        /* \"#utility.yul\":6204:6210   */\n      dup2\n        /* \"#utility.yul\":6201:6231   */\n      gt\n        /* \"#utility.yul\":6198:6315   */\n      iszero\n      tag_180\n      jumpi\n        /* \"#utility.yul\":6234:6313   */\n      tag_181\n      tag_58\n      jump\t// in\n    tag_181:\n        /* \"#utility.yul\":6198:6315   */\n    tag_180:\n        /* \"#utility.yul\":6339:6402   */\n      tag_182\n        /* \"#utility.yul\":6394:6401   */\n      dup6\n        /* \"#utility.yul\":6385:6391   */\n      dup3\n        /* \"#utility.yul\":6374:6383   */\n      dup7\n        /* \"#utility.yul\":6370:6392   */\n      add\n        /* \"#utility.yul\":6339:6402   */\n      tag_79\n      jump\t// in\n    tag_182:\n        /* \"#utility.yul\":6329:6402   */\n      swap3\n      pop\n        /* \"#utility.yul\":6125:6412   */\n      pop\n        /* \"#utility.yul\":6451:6453   */\n      0x20\n        /* \"#utility.yul\":6477:6530   */\n      tag_183\n        /* \"#utility.yul\":6522:6529   */\n      dup6\n        /* \"#utility.yul\":6513:6519   */\n      dup3\n        /* \"#utility.yul\":6502:6511   */\n      dup7\n        /* \"#utility.yul\":6498:6520   */\n      add\n        /* \"#utility.yul\":6477:6530   */\n      tag_60\n      jump\t// in\n    tag_183:\n        /* \"#utility.yul\":6467:6530   */\n      swap2\n      pop\n        /* \"#utility.yul\":6422:6540   */\n      pop\n        /* \"#utility.yul\":5893:6547   */\n      swap3\n      pop\n      swap3\n      swap1\n      pop\n      jump\t// out\n        /* \"#utility.yul\":6553:6733   */\n    tag_80:\n        /* \"#utility.yul\":6601:6678   */\n      0x4e487b7100000000000000000000000000000000000000000000000000000000\n        /* \"#utility.yul\":6598:6599   */\n      0x00\n        /* \"#utility.yul\":6591:6679   */\n      mstore\n        /* \"#utility.yul\":6698:6702   */\n      0x22\n        /* \"#utility.yul\":6695:6696   */\n      0x04\n        /* \"#utility.yul\":6688:6703   */\n      mstore\n        /* \"#utility.yul\":6722:6726   */\n      0x24\n        /* \"#utility.yul\":6719:6720   */\n      0x00\n        /* \"#utility.yul\":6712:6727   */\n      revert\n        /* \"#utility.yul\":6739:7059   */\n    tag_27:\n        /* \"#utility.yul\":6783:6789   */\n      0x00\n        /* \"#utility.yul\":6820:6821   */\n      0x02\n        /* \"#utility.yul\":6814:6818   */\n      dup3\n        /* \"#utility.yul\":6810:6822   */\n      div\n        /* \"#utility.yul\":6800:6822   */\n      swap1\n      pop\n        /* \"#utility.yul\":6867:6868   */\n      0x01\n        /* \"#utility.yul\":6861:6865   */\n      dup3\n        /* \"#utility.yul\":6857:6869   */\n      and\n        /* \"#utility.yul\":6888:6906   */\n      dup1\n        /* \"#utility.yul\":6878:6959   */\n      tag_186\n      jumpi\n        /* \"#utility.yul\":6944:6948   */\n      0x7f\n        /* \"#utility.yul\":6936:6942   */\n      dup3\n        /* \"#utility.yul\":6932:6949   */\n      and\n        /* \"#utility.yul\":6922:6949   */\n      swap2\n      pop\n        /* \"#utility.yul\":6878:6959   */\n    tag_186:\n        /* \"#utility.yul\":7006:7008   */\n      0x20\n        /* \"#utility.yul\":6998:7004   */\n      dup3\n        /* \"#utility.yul\":6995:7009   */\n      lt\n        /* \"#utility.yul\":6975:6993   */\n      dup2\n        /* \"#utility.yul\":6972:7010   */\n      sub\n        /* \"#utility.yul\":6969:7053   */\n      tag_187\n      jumpi\n        /* \"#utility.yul\":7025:7043   */\n      tag_188\n      tag_80\n      jump\t// in\n    tag_188:\n        /* \"#utility.yul\":6969:7053   */\n    tag_187:\n        /* \"#utility.yul\":6790:7059   */\n      pop\n        /* \"#utility.yul\":6739:7059   */\n      swap2\n      swap1\n      pop\n      jump\t// out\n        /* \"#utility.yul\":7065:7233   */\n    tag_81:\n        /* \"#utility.yul\":7205:7225   */\n      0x496e76616c69642050726f647563742049440000000000000000000000000000\n        /* \"#utility.yul\":7201:7202   */\n      0x00\n        /* \"#utility.yul\":7193:7199   */\n      dup3\n        /* \"#utility.yul\":7189:7203   */\n      add\n        /* \"#utility.yul\":7182:7226   */\n      mstore\n        /* \"#utility.yul\":7065:7233   */\n      pop\n      jump\t// out\n        /* \"#utility.yul\":7239:7605   */\n    tag_82:\n        /* \"#utility.yul\":7381:7384   */\n      0x00\n        /* \"#utility.yul\":7402:7469   */\n      tag_191\n        /* \"#utility.yul\":7466:7468   */\n      0x12\n        /* \"#utility.yul\":7461:7464   */\n      dup4\n        /* \"#utility.yul\":7402:7469   */\n      tag_62\n      jump\t// in\n    tag_191:\n        /* \"#utility.yul\":7395:7469   */\n      swap2\n      pop\n        /* \"#utility.yul\":7478:7571   */\n      tag_192\n        /* \"#utility.yul\":7567:7570   */\n      dup3\n        /* \"#utility.yul\":7478:7571   */\n      tag_81\n      jump\t// in\n    tag_192:\n        /* \"#utility.yul\":7596:7598   */\n      0x20\n        /* \"#utility.yul\":7591:7594   */\n      dup3\n        /* \"#utility.yul\":7587:7599   */\n      add\n        /* \"#utility.yul\":7580:7599   */\n      swap1\n      pop\n        /* \"#utility.yul\":7239:7605   */\n      swap2\n      swap1\n      pop\n      jump\t// out\n        /* \"#utility.yul\":7611:8030   */\n    tag_36:\n        /* \"#utility.yul\":7777:7781   */\n      0x00\n        /* \"#utility.yul\":7815:7817   */\n      0x20\n        /* \"#utility.yul\":7804:7813   */\n      dup3\n        /* \"#utility.yul\":7800:7818   */\n      add\n        /* \"#utility.yul\":7792:7818   */\n      swap1\n      pop\n        /* \"#utility.yul\":7864:7873   */\n      dup2\n        /* \"#utility.yul\":7858:7862   */\n      dup2\n        /* \"#utility.yul\":7854:7874   */\n      sub\n        /* \"#utility.yul\":7850:7851   */\n      0x00\n        /* \"#utility.yul\":7839:7848   */\n      dup4\n        /* \"#utility.yul\":7835:7852   */\n      add\n        /* \"#utility.yul\":7828:7875   */\n      mstore\n        /* \"#utility.yul\":7892:8023   */\n      tag_194\n        /* \"#utility.yul\":8018:8022   */\n      dup2\n        /* \"#utility.yul\":7892:8023   */\n      tag_82\n      jump\t// in\n    tag_194:\n        /* \"#utility.yul\":7884:8023   */\n      swap1\n      pop\n        /* \"#utility.yul\":7611:8030   */\n      swap2\n      swap1\n      pop\n      jump\t// out\n        /* \"#utility.yul\":8036:8207   */\n    tag_83:\n        /* \"#utility.yul\":8176:8199   */\n      0x50726f6475637420416c726561647920536f6c64210000000000000000000000\n        /* \"#utility.yul\":8172:8173   */\n      0x00\n        /* \"#utility.yul\":8164:8170   */\n      dup3\n        /* \"#utility.yul\":8160:8174   */\n      add\n        /* \"#utility.yul\":8153:8200   */\n      mstore\n        /* \"#utility.yul\":8036:8207   */\n      pop\n      jump\t// out\n        /* \"#utility.yul\":8213:8579   */\n    tag_84:\n        /* \"#utility.yul\":8355:8358   */\n      0x00\n        /* \"#utility.yul\":8376:8443   */\n      tag_197\n        /* \"#utility.yul\":8440:8442   */\n      0x15\n        /* \"#utility.yul\":8435:8438   */\n      dup4\n        /* \"#utility.yul\":8376:8443   */\n      tag_62\n      jump\t// in\n    tag_197:\n        /* \"#utility.yul\":8369:8443   */\n      swap2\n      pop\n        /* \"#utility.yul\":8452:8545   */\n      tag_198\n        /* \"#utility.yul\":8541:8544   */\n      dup3\n        /* \"#utility.yul\":8452:8545   */\n      tag_83\n      jump\t// in\n    tag_198:\n        /* \"#utility.yul\":8570:8572   */\n      0x20\n        /* \"#utility.yul\":8565:8568   */\n      dup3\n        /* \"#utility.yul\":8561:8573   */\n      add\n        /* \"#utility.yul\":8554:8573   */\n      swap1\n      pop\n        /* \"#utility.yul\":8213:8579   */\n      swap2\n      swap1\n      pop\n      jump\t// out\n        /* \"#utility.yul\":8585:9004   */\n    tag_39:\n        /* \"#utility.yul\":8751:8755   */\n      0x00\n        /* \"#utility.yul\":8789:8791   */\n      0x20\n        /* \"#utility.yul\":8778:8787   */\n      dup3\n        /* \"#utility.yul\":8774:8792   */\n      add\n        /* \"#utility.yul\":8766:8792   */\n      swap1\n      pop\n        /* \"#utility.yul\":8838:8847   */\n      dup2\n        /* \"#utility.yul\":8832:8836   */\n      dup2\n        /* \"#utility.yul\":8828:8848   */\n      sub\n        /* \"#utility.yul\":8824:8825   */\n      0x00\n        /* \"#utility.yul\":8813:8822   */\n      dup4\n        /* \"#utility.yul\":8809:8826   */\n      add\n        /* \"#utility.yul\":8802:8849   */\n      mstore\n        /* \"#utility.yul\":8866:8997   */\n      tag_200\n        /* \"#utility.yul\":8992:8996   */\n      dup2\n        /* \"#utility.yul\":8866:8997   */\n      tag_84\n      jump\t// in\n    tag_200:\n        /* \"#utility.yul\":8858:8997   */\n      swap1\n      pop\n        /* \"#utility.yul\":8585:9004   */\n      swap2\n      swap1\n      pop\n      jump\t// out\n        /* \"#utility.yul\":9010:9178   */\n    tag_85:\n        /* \"#utility.yul\":9150:9170   */\n      0x496e73756666696369656e742066756e64730000000000000000000000000000\n        /* \"#utility.yul\":9146:9147   */\n      0x00\n        /* \"#utility.yul\":9138:9144   */\n      dup3\n        /* \"#utility.yul\":9134:9148   */\n      add\n        /* \"#utility.yul\":9127:9171   */\n      mstore\n        /* \"#utility.yul\":9010:9178   */\n      pop\n      jump\t// out\n        /* \"#utility.yul\":9184:9550   */\n    tag_86:\n        /* \"#utility.yul\":9326:9329   */\n      0x00\n        /* \"#utility.yul\":9347:9414   */\n      tag_203\n        /* \"#utility.yul\":9411:9413   */\n      0x12\n        /* \"#utility.yul\":9406:9409   */\n      dup4\n        /* \"#utility.yul\":9347:9414   */\n      tag_62\n      jump\t// in\n    tag_203:\n        /* \"#utility.yul\":9340:9414   */\n      swap2\n      pop\n        /* \"#utility.yul\":9423:9516   */\n      tag_204\n        /* \"#utility.yul\":9512:9515   */\n      dup3\n        /* \"#utility.yul\":9423:9516   */\n      tag_85\n      jump\t// in\n    tag_204:\n        /* \"#utility.yul\":9541:9543   */\n      0x20\n        /* \"#utility.yul\":9536:9539   */\n      dup3\n        /* \"#utility.yul\":9532:9544   */\n      add\n        /* \"#utility.yul\":9525:9544   */\n      swap1\n      pop\n        /* \"#utility.yul\":9184:9550   */\n      swap2\n      swap1\n      pop\n      jump\t// out\n        /* \"#utility.yul\":9556:9975   */\n    tag_42:\n        /* \"#utility.yul\":9722:9726   */\n      0x00\n        /* \"#utility.yul\":9760:9762   */\n      0x20\n        /* \"#utility.yul\":9749:9758   */\n      dup3\n        /* \"#utility.yul\":9745:9763   */\n      add\n        /* \"#utility.yul\":9737:9763   */\n      swap1\n      pop\n        /* \"#utility.yul\":9809:9818   */\n      dup2\n        /* \"#utility.yul\":9803:9807   */\n      dup2\n        /* \"#utility.yul\":9799:9819   */\n      sub\n        /* \"#utility.yul\":9795:9796   */\n      0x00\n        /* \"#utility.yul\":9784:9793   */\n      dup4\n        /* \"#utility.yul\":9780:9797   */\n      add\n        /* \"#utility.yul\":9773:9820   */\n      mstore\n        /* \"#utility.yul\":9837:9968   */\n      tag_206\n        /* \"#utility.yul\":9963:9967   */\n      dup2\n        /* \"#utility.yul\":9837:9968   */\n      tag_86\n      jump\t// in\n    tag_206:\n        /* \"#utility.yul\":9829:9968   */\n      swap1\n      pop\n        /* \"#utility.yul\":9556:9975   */\n      swap2\n      swap1\n      pop\n      jump\t// out\n        /* \"#utility.yul\":9981:10122   */\n    tag_87:\n        /* \"#utility.yul\":10030:10034   */\n      0x00\n        /* \"#utility.yul\":10053:10056   */\n      dup2\n        /* \"#utility.yul\":10045:10056   */\n      swap1\n      pop\n        /* \"#utility.yul\":10076:10079   */\n      dup2\n        /* \"#utility.yul\":10073:10074   */\n      0x00\n        /* \"#utility.yul\":10066:10080   */\n      mstore\n        /* \"#utility.yul\":10110:10114   */\n      0x20\n        /* \"#utility.yul\":10107:10108   */\n      0x00\n        /* \"#utility.yul\":10097:10115   */\n      keccak256\n        /* \"#utility.yul\":10089:10115   */\n      swap1\n      pop\n        /* \"#utility.yul\":9981:10122   */\n      swap2\n      swap1\n      pop\n      jump\t// out\n        /* \"#utility.yul\":10152:10983   */\n    tag_88:\n        /* \"#utility.yul\":10237:10240   */\n      0x00\n        /* \"#utility.yul\":10274:10279   */\n      dup2\n        /* \"#utility.yul\":10268:10280   */\n      sload\n        /* \"#utility.yul\":10303:10339   */\n      tag_209\n        /* \"#utility.yul\":10329:10338   */\n      dup2\n        /* \"#utility.yul\":10303:10339   */\n      tag_27\n      jump\t// in\n    tag_209:\n        /* \"#utility.yul\":10355:10426   */\n      tag_210\n        /* \"#utility.yul\":10419:10425   */\n      dup2\n        /* \"#utility.yul\":10414:10417   */\n      dup7\n        /* \"#utility.yul\":10355:10426   */\n      tag_62\n      jump\t// in\n    tag_210:\n        /* \"#utility.yul\":10348:10426   */\n      swap5\n      pop\n        /* \"#utility.yul\":10457:10458   */\n      0x01\n        /* \"#utility.yul\":10446:10455   */\n      dup3\n        /* \"#utility.yul\":10442:10459   */\n      and\n        /* \"#utility.yul\":10473:10474   */\n      0x00\n        /* \"#utility.yul\":10468:10632   */\n      dup2\n      eq\n      tag_212\n      jumpi\n        /* \"#utility.yul\":10646:10647   */\n      0x01\n        /* \"#utility.yul\":10641:10977   */\n      dup2\n      eq\n      tag_213\n      jumpi\n        /* \"#utility.yul\":10435:10977   */\n      jump(tag_211)\n        /* \"#utility.yul\":10468:10632   */\n    tag_212:\n        /* \"#utility.yul\":10552:10556   */\n      0xff\n        /* \"#utility.yul\":10548:10557   */\n      not\n        /* \"#utility.yul\":10537:10546   */\n      dup4\n        /* \"#utility.yul\":10533:10558   */\n      and\n        /* \"#utility.yul\":10528:10531   */\n      dup7\n        /* \"#utility.yul\":10521:10559   */\n      mstore\n        /* \"#utility.yul\":10612:10618   */\n      dup2\n        /* \"#utility.yul\":10605:10619   */\n      iszero\n        /* \"#utility.yul\":10598:10620   */\n      iszero\n        /* \"#utility.yul\":10592:10596   */\n      0x20\n        /* \"#utility.yul\":10588:10621   */\n      mul\n        /* \"#utility.yul\":10583:10586   */\n      dup7\n        /* \"#utility.yul\":10579:10622   */\n      add\n        /* \"#utility.yul\":10572:10622   */\n      swap4\n      pop\n        /* \"#utility.yul\":10468:10632   */\n      jump(tag_211)\n        /* \"#utility.yul\":10641:10977   */\n    tag_213:\n        /* \"#utility.yul\":10708:10746   */\n      tag_214\n        /* \"#utility.yul\":10740:10745   */\n      dup6\n        /* \"#utility.yul\":10708:10746   */\n      tag_87\n      jump\t// in\n    tag_214:\n        /* \"#utility.yul\":10768:10769   */\n      0x00\n        /* \"#utility.yul\":10782:10936   */\n    tag_215:\n        /* \"#utility.yul\":10796:10802   */\n      dup4\n        /* \"#utility.yul\":10793:10794   */\n      dup2\n        /* \"#utility.yul\":10790:10803   */\n      lt\n        /* \"#utility.yul\":10782:10936   */\n      iszero\n      tag_217\n      jumpi\n        /* \"#utility.yul\":10870:10877   */\n      dup2\n        /* \"#utility.yul\":10864:10878   */\n      sload\n        /* \"#utility.yul\":10860:10861   */\n      dup2\n        /* \"#utility.yul\":10855:10858   */\n      dup10\n        /* \"#utility.yul\":10851:10862   */\n      add\n        /* \"#utility.yul\":10844:10879   */\n      mstore\n        /* \"#utility.yul\":10920:10921   */\n      0x01\n        /* \"#utility.yul\":10911:10918   */\n      dup3\n        /* \"#utility.yul\":10907:10922   */\n      add\n        /* \"#utility.yul\":10896:10922   */\n      swap2\n      pop\n        /* \"#utility.yul\":10818:10822   */\n      0x20\n        /* \"#utility.yul\":10815:10816   */\n      dup2\n        /* \"#utility.yul\":10811:10823   */\n      add\n        /* \"#utility.yul\":10806:10823   */\n      swap1\n      pop\n        /* \"#utility.yul\":10782:10936   */\n      jump(tag_215)\n    tag_217:\n        /* \"#utility.yul\":10965:10966   */\n      dup1\n        /* \"#utility.yul\":10960:10963   */\n      dup9\n        /* \"#utility.yul\":10956:10967   */\n      add\n        /* \"#utility.yul\":10949:10967   */\n      swap6\n      pop\n        /* \"#utility.yul\":10648:10977   */\n      pop\n      pop\n        /* \"#utility.yul\":10435:10977   */\n    tag_211:\n      pop\n        /* \"#utility.yul\":10241:10983   */\n      pop\n      pop\n        /* \"#utility.yul\":10152:10983   */\n      swap3\n      swap2\n      pop\n      pop\n      jump\t// out\n        /* \"#utility.yul\":10989:11049   */\n    tag_89:\n        /* \"#utility.yul\":11017:11020   */\n      0x00\n        /* \"#utility.yul\":11038:11043   */\n      dup2\n        /* \"#utility.yul\":11031:11043   */\n      swap1\n      pop\n        /* \"#utility.yul\":10989:11049   */\n      swap2\n      swap1\n      pop\n      jump\t// out\n        /* \"#utility.yul\":11055:11197   */\n    tag_90:\n        /* \"#utility.yul\":11105:11114   */\n      0x00\n        /* \"#utility.yul\":11138:11191   */\n      tag_220\n        /* \"#utility.yul\":11156:11190   */\n      tag_221\n        /* \"#utility.yul\":11165:11189   */\n      tag_222\n        /* \"#utility.yul\":11183:11188   */\n      dup5\n        /* \"#utility.yul\":11165:11189   */\n      tag_66\n      jump\t// in\n    tag_222:\n        /* \"#utility.yul\":11156:11190   */\n      tag_89\n      jump\t// in\n    tag_221:\n        /* \"#utility.yul\":11138:11191   */\n      tag_66\n      jump\t// in\n    tag_220:\n        /* \"#utility.yul\":11125:11191   */\n      swap1\n      pop\n        /* \"#utility.yul\":11055:11197   */\n      swap2\n      swap1\n      pop\n      jump\t// out\n        /* \"#utility.yul\":11203:11329   */\n    tag_91:\n        /* \"#utility.yul\":11253:11262   */\n      0x00\n        /* \"#utility.yul\":11286:11323   */\n      tag_224\n        /* \"#utility.yul\":11317:11322   */\n      dup3\n        /* \"#utility.yul\":11286:11323   */\n      tag_90\n      jump\t// in\n    tag_224:\n        /* \"#utility.yul\":11273:11323   */\n      swap1\n      pop\n        /* \"#utility.yul\":11203:11329   */\n      swap2\n      swap1\n      pop\n      jump\t// out\n        /* \"#utility.yul\":11335:11469   */\n    tag_92:\n        /* \"#utility.yul\":11393:11402   */\n      0x00\n        /* \"#utility.yul\":11426:11463   */\n      tag_226\n        /* \"#utility.yul\":11457:11462   */\n      dup3\n        /* \"#utility.yul\":11426:11463   */\n      tag_91\n      jump\t// in\n    tag_226:\n        /* \"#utility.yul\":11413:11463   */\n      swap1\n      pop\n        /* \"#utility.yul\":11335:11469   */\n      swap2\n      swap1\n      pop\n      jump\t// out\n        /* \"#utility.yul\":11475:11622   */\n    tag_93:\n        /* \"#utility.yul\":11570:11615   */\n      tag_228\n        /* \"#utility.yul\":11609:11614   */\n      dup2\n        /* \"#utility.yul\":11570:11615   */\n      tag_92\n      jump\t// in\n    tag_228:\n        /* \"#utility.yul\":11565:11568   */\n      dup3\n        /* \"#utility.yul\":11558:11616   */\n      mstore\n        /* \"#utility.yul\":11475:11622   */\n      pop\n      pop\n      jump\t// out\n        /* \"#utility.yul\":11628:12409   */\n    tag_46:\n        /* \"#utility.yul\":11866:11870   */\n      0x00\n        /* \"#utility.yul\":11904:11907   */\n      0xa0\n        /* \"#utility.yul\":11893:11902   */\n      dup3\n        /* \"#utility.yul\":11889:11908   */\n      add\n        /* \"#utility.yul\":11881:11908   */\n      swap1\n      pop\n        /* \"#utility.yul\":11918:11989   */\n      tag_230\n        /* \"#utility.yul\":11986:11987   */\n      0x00\n        /* \"#utility.yul\":11975:11984   */\n      dup4\n        /* \"#utility.yul\":11971:11988   */\n      add\n        /* \"#utility.yul\":11962:11968   */\n      dup9\n        /* \"#utility.yul\":11918:11989   */\n      tag_55\n      jump\t// in\n    tag_230:\n        /* \"#utility.yul\":12036:12045   */\n      dup2\n        /* \"#utility.yul\":12030:12034   */\n      dup2\n        /* \"#utility.yul\":12026:12046   */\n      sub\n        /* \"#utility.yul\":12021:12023   */\n      0x20\n        /* \"#utility.yul\":12010:12019   */\n      dup4\n        /* \"#utility.yul\":12006:12024   */\n      add\n        /* \"#utility.yul\":11999:12047   */\n      mstore\n        /* \"#utility.yul\":12064:12139   */\n      tag_231\n        /* \"#utility.yul\":12134:12138   */\n      dup2\n        /* \"#utility.yul\":12125:12131   */\n      dup8\n        /* \"#utility.yul\":12064:12139   */\n      tag_88\n      jump\t// in\n    tag_231:\n        /* \"#utility.yul\":12056:12139   */\n      swap1\n      pop\n        /* \"#utility.yul\":12149:12221   */\n      tag_232\n        /* \"#utility.yul\":12217:12219   */\n      0x40\n        /* \"#utility.yul\":12206:12215   */\n      dup4\n        /* \"#utility.yul\":12202:12220   */\n      add\n        /* \"#utility.yul\":12193:12199   */\n      dup7\n        /* \"#utility.yul\":12149:12221   */\n      tag_55\n      jump\t// in\n    tag_232:\n        /* \"#utility.yul\":12231:12311   */\n      tag_233\n        /* \"#utility.yul\":12307:12309   */\n      0x60\n        /* \"#utility.yul\":12296:12305   */\n      dup4\n        /* \"#utility.yul\":12292:12310   */\n      add\n        /* \"#utility.yul\":12283:12289   */\n      dup6\n        /* \"#utility.yul\":12231:12311   */\n      tag_93\n      jump\t// in\n    tag_233:\n        /* \"#utility.yul\":12321:12402   */\n      tag_234\n        /* \"#utility.yul\":12397:12400   */\n      0x80\n        /* \"#utility.yul\":12386:12395   */\n      dup4\n        /* \"#utility.yul\":12382:12401   */\n      add\n        /* \"#utility.yul\":12373:12379   */\n      dup5\n        /* \"#utility.yul\":12321:12402   */\n      tag_93\n      jump\t// in\n    tag_234:\n        /* \"#utility.yul\":11628:12409   */\n      swap7\n      swap6\n      pop\n      pop\n      pop\n      pop\n      pop\n      pop\n      jump\t// out\n        /* \"#utility.yul\":12415:12595   */\n    tag_94:\n        /* \"#utility.yul\":12463:12540   */\n      0x4e487b7100000000000000000000000000000000000000000000000000000000\n        /* \"#utility.yul\":12460:12461   */\n      0x00\n        /* \"#utility.yul\":12453:12541   */\n      mstore\n        /* \"#utility.yul\":12560:12564   */\n      0x11\n        /* \"#utility.yul\":12557:12558   */\n      0x04\n        /* \"#utility.yul\":12550:12565   */\n      mstore\n        /* \"#utility.yul\":12584:12588   */\n      0x24\n        /* \"#utility.yul\":12581:12582   */\n      0x00\n        /* \"#utility.yul\":12574:12589   */\n      revert\n        /* \"#utility.yul\":12601:12834   */\n    tag_49:\n        /* \"#utility.yul\":12640:12643   */\n      0x00\n        /* \"#utility.yul\":12663:12687   */\n      tag_237\n        /* \"#utility.yul\":12681:12686   */\n      dup3\n        /* \"#utility.yul\":12663:12687   */\n      tag_54\n      jump\t// in\n    tag_237:\n        /* \"#utility.yul\":12654:12687   */\n      swap2\n      pop\n        /* \"#utility.yul\":12709:12775   */\n      0xffffffffffffffffffffffffffffffffffffffffffffffffffffffffffffffff\n        /* \"#utility.yul\":12702:12707   */\n      dup3\n        /* \"#utility.yul\":12699:12776   */\n      sub\n        /* \"#utility.yul\":12696:12799   */\n      tag_238\n      jumpi\n        /* \"#utility.yul\":12779:12797   */\n      tag_239\n      tag_94\n      jump\t// in\n    tag_239:\n        /* \"#utility.yul\":12696:12799   */\n    tag_238:\n        /* \"#utility.yul\":12826:12827   */\n      0x01\n        /* \"#utility.yul\":12819:12824   */\n      dup3\n        /* \"#utility.yul\":12815:12828   */\n      add\n        /* \"#utility.yul\":12808:12828   */\n      swap1\n      pop\n        /* \"#utility.yul\":12601:12834   */\n      swap2\n      swap1\n      pop\n      jump\t// out\n        /* \"#utility.yul\":12840:12933   */\n    tag_95:\n        /* \"#utility.yul\":12877:12883   */\n      0x00\n        /* \"#utility.yul\":12924:12926   */\n      0x20\n        /* \"#utility.yul\":12919:12921   */\n      0x1f\n        /* \"#utility.yul\":12912:12917   */\n      dup4\n        /* \"#utility.yul\":12908:12922   */\n      add\n        /* \"#utility.yul\":12904:12927   */\n      div\n        /* \"#utility.yul\":12894:12927   */\n      swap1\n      pop\n        /* \"#utility.yul\":12840:12933   */\n      swap2\n      swap1\n      pop\n      jump\t// out\n        /* \"#utility.yul\":12939:13046   */\n    tag_96:\n        /* \"#utility.yul\":12983:12991   */\n      0x00\n        /* \"#utility.yul\":13033:13038   */\n      dup3\n        /* \"#utility.yul\":13027:13031   */\n      dup3\n        /* \"#utility.yul\":13023:13039   */\n      shl\n        /* \"#utility.yul\":13002:13039   */\n      swap1\n      pop\n        /* \"#utility.yul\":12939:13046   */\n      swap3\n      swap2\n      pop\n      pop\n      jump\t// out\n        /* \"#utility.yul\":13052:13445   */\n    tag_97:\n        /* \"#utility.yul\":13121:13127   */\n      0x00\n        /* \"#utility.yul\":13171:13172   */\n      0x08\n        /* \"#utility.yul\":13159:13169   */\n      dup4\n        /* \"#utility.yul\":13155:13173   */\n      mul\n        /* \"#utility.yul\":13194:13291   */\n      tag_243\n        /* \"#utility.yul\":13224:13290   */\n      0xffffffffffffffffffffffffffffffffffffffffffffffffffffffffffffffff\n        /* \"#utility.yul\":13213:13222   */\n      dup3\n        /* \"#utility.yul\":13194:13291   */\n      tag_96\n      jump\t// in\n    tag_243:\n        /* \"#utility.yul\":13312:13351   */\n      tag_244\n        /* \"#utility.yul\":13342:13350   */\n      dup7\n        /* \"#utility.yul\":13331:13340   */\n      dup4\n        /* \"#utility.yul\":13312:13351   */\n      tag_96\n      jump\t// in\n    tag_244:\n        /* \"#utility.yul\":13300:13351   */\n      swap6\n      pop\n        /* \"#utility.yul\":13384:13388   */\n      dup1\n        /* \"#utility.yul\":13380:13389   */\n      not\n        /* \"#utility.yul\":13373:13378   */\n      dup5\n        /* \"#utility.yul\":13369:13390   */\n      and\n        /* \"#utility.yul\":13360:13390   */\n      swap4\n      pop\n        /* \"#utility.yul\":13433:13437   */\n      dup1\n        /* \"#utility.yul\":13423:13431   */\n      dup7\n        /* \"#utility.yul\":13419:13438   */\n      and\n        /* \"#utility.yul\":13412:13417   */\n      dup5\n        /* \"#utility.yul\":13409:13439   */\n      or\n        /* \"#utility.yul\":13399:13439   */\n      swap3\n      pop\n        /* \"#utility.yul\":13128:13445   */\n      pop\n      pop\n        /* \"#utility.yul\":13052:13445   */\n      swap4\n      swap3\n      pop\n      pop\n      pop\n      jump\t// out\n        /* \"#utility.yul\":13451:13593   */\n    tag_98:\n        /* \"#utility.yul\":13501:13510   */\n      0x00\n        /* \"#utility.yul\":13534:13587   */\n      tag_246\n        /* \"#utility.yul\":13552:13586   */\n      tag_247\n        /* \"#utility.yul\":13561:13585   */\n      tag_248\n        /* \"#utility.yul\":13579:13584   */\n      dup5\n        /* \"#utility.yul\":13561:13585   */\n      tag_54\n      jump\t// in\n    tag_248:\n        /* \"#utility.yul\":13552:13586   */\n      tag_89\n      jump\t// in\n    tag_247:\n        /* \"#utility.yul\":13534:13587   */\n      tag_54\n      jump\t// in\n    tag_246:\n        /* \"#utility.yul\":13521:13587   */\n      swap1\n      pop\n        /* \"#utility.yul\":13451:13593   */\n      swap2\n      swap1\n      pop\n      jump\t// out\n        /* \"#utility.yul\":13599:13674   */\n    tag_99:\n        /* \"#utility.yul\":13642:13645   */\n      0x00\n        /* \"#utility.yul\":13663:13668   */\n      dup2\n        /* \"#utility.yul\":13656:13668   */\n      swap1\n      pop\n        /* \"#utility.yul\":13599:13674   */\n      swap2\n      swap1\n      pop\n      jump\t// out\n        /* \"#utility.yul\":13680:13949   */\n    tag_100:\n        /* \"#utility.yul\":13790:13829   */\n      tag_251\n        /* \"#utility.yul\":13821:13828   */\n      dup4\n        /* \"#utility.yul\":13790:13829   */\n      tag_98\n      jump\t// in\n    tag_251:\n        /* \"#utility.yul\":13851:13942   */\n      tag_252\n        /* \"#utility.yul\":13900:13941   */\n      tag_253\n        /* \"#utility.yul\":13924:13940   */\n      dup3\n        /* \"#utility.yul\":13900:13941   */\n      tag_99\n      jump\t// in\n    tag_253:\n        /* \"#utility.yul\":13892:13898   */\n      dup5\n        /* \"#utility.yul\":13885:13889   */\n      dup5\n        /* \"#utility.yul\":13879:13890   */\n      sload\n        /* \"#utility.yul\":13851:13942   */\n      tag_97\n      jump\t// in\n    tag_252:\n        /* \"#utility.yul\":13845:13849   */\n      dup3\n        /* \"#utility.yul\":13838:13943   */\n      sstore\n        /* \"#utility.yul\":13756:13949   */\n      pop\n        /* \"#utility.yul\":13680:13949   */\n      pop\n      pop\n      pop\n      jump\t// out\n        /* \"#utility.yul\":13955:14028   */\n    tag_101:\n        /* \"#utility.yul\":14000:14003   */\n      0x00\n        /* \"#utility.yul\":13955:14028   */\n      swap1\n      jump\t// out\n        /* \"#utility.yul\":14034:14223   */\n    tag_102:\n        /* \"#utility.yul\":14111:14143   */\n      tag_256\n      tag_101\n      jump\t// in\n    tag_256:\n        /* \"#utility.yul\":14152:14217   */\n      tag_257\n        /* \"#utility.yul\":14210:14216   */\n      dup2\n        /* \"#utility.yul\":14202:14208   */\n      dup5\n        /* \"#utility.yul\":14196:14200   */\n      dup5\n        /* \"#utility.yul\":14152:14217   */\n      tag_100\n      jump\t// in\n    tag_257:\n        /* \"#utility.yul\":14087:14223   */\n      pop\n        /* \"#utility.yul\":14034:14223   */\n      pop\n      pop\n      jump\t// out\n        /* \"#utility.yul\":14229:14415   */\n    tag_103:\n        /* \"#utility.yul\":14289:14409   */\n    tag_259:\n        /* \"#utility.yul\":14306:14309   */\n      dup2\n        /* \"#utility.yul\":14299:14304   */\n      dup2\n        /* \"#utility.yul\":14296:14310   */\n      lt\n        /* \"#utility.yul\":14289:14409   */\n      iszero\n      tag_261\n      jumpi\n        /* \"#utility.yul\":14360:14399   */\n      tag_262\n        /* \"#utility.yul\":14397:14398   */\n      0x00\n        /* \"#utility.yul\":14390:14395   */\n      dup3\n        /* \"#utility.yul\":14360:14399   */\n      tag_102\n      jump\t// in\n    tag_262:\n        /* \"#utility.yul\":14333:14334   */\n      0x01\n        /* \"#utility.yul\":14326:14331   */\n      dup2\n        /* \"#utility.yul\":14322:14335   */\n      add\n        /* \"#utility.yul\":14313:14335   */\n      swap1\n      pop\n        /* \"#utility.yul\":14289:14409   */\n      jump(tag_259)\n    tag_261:\n        /* \"#utility.yul\":14229:14415   */\n      pop\n      pop\n      jump\t// out\n        /* \"#utility.yul\":14421:14964   */\n    tag_104:\n        /* \"#utility.yul\":14522:14524   */\n      0x1f\n        /* \"#utility.yul\":14517:14520   */\n      dup3\n        /* \"#utility.yul\":14514:14525   */\n      gt\n        /* \"#utility.yul\":14511:14957   */\n      iszero\n      tag_264\n      jumpi\n        /* \"#utility.yul\":14556:14594   */\n      tag_265\n        /* \"#utility.yul\":14588:14593   */\n      dup2\n        /* \"#utility.yul\":14556:14594   */\n      tag_87\n      jump\t// in\n    tag_265:\n        /* \"#utility.yul\":14640:14669   */\n      tag_266\n        /* \"#utility.yul\":14658:14668   */\n      dup5\n        /* \"#utility.yul\":14640:14669   */\n      tag_95\n      jump\t// in\n    tag_266:\n        /* \"#utility.yul\":14630:14638   */\n      dup2\n        /* \"#utility.yul\":14626:14670   */\n      add\n        /* \"#utility.yul\":14823:14825   */\n      0x20\n        /* \"#utility.yul\":14811:14821   */\n      dup6\n        /* \"#utility.yul\":14808:14826   */\n      lt\n        /* \"#utility.yul\":14805:14854   */\n      iszero\n      tag_267\n      jumpi\n        /* \"#utility.yul\":14844:14852   */\n      dup2\n        /* \"#utility.yul\":14829:14852   */\n      swap1\n      pop\n        /* \"#utility.yul\":14805:14854   */\n    tag_267:\n        /* \"#utility.yul\":14867:14947   */\n      tag_268\n        /* \"#utility.yul\":14923:14945   */\n      tag_269\n        /* \"#utility.yul\":14941:14944   */\n      dup6\n        /* \"#utility.yul\":14923:14945   */\n      tag_95\n      jump\t// in\n    tag_269:\n        /* \"#utility.yul\":14913:14921   */\n      dup4\n        /* \"#utility.yul\":14909:14946   */\n      add\n        /* \"#utility.yul\":14896:14907   */\n      dup3\n        /* \"#utility.yul\":14867:14947   */\n      tag_103\n      jump\t// in\n    tag_268:\n        /* \"#utility.yul\":14526:14957   */\n      pop\n      pop\n        /* \"#utility.yul\":14511:14957   */\n    tag_264:\n        /* \"#utility.yul\":14421:14964   */\n      pop\n      pop\n      pop\n      jump\t// out\n        /* \"#utility.yul\":14970:15087   */\n    tag_105:\n        /* \"#utility.yul\":15024:15032   */\n      0x00\n        /* \"#utility.yul\":15074:15079   */\n      dup3\n        /* \"#utility.yul\":15068:15072   */\n      dup3\n        /* \"#utility.yul\":15064:15080   */\n      shr\n        /* \"#utility.yul\":15043:15080   */\n      swap1\n      pop\n        /* \"#utility.yul\":14970:15087   */\n      swap3\n      swap2\n      pop\n      pop\n      jump\t// out\n        /* \"#utility.yul\":15093:15262   */\n    tag_106:\n        /* \"#utility.yul\":15137:15143   */\n      0x00\n        /* \"#utility.yul\":15170:15221   */\n      tag_272\n        /* \"#utility.yul\":15218:15219   */\n      0x00\n        /* \"#utility.yul\":15214:15220   */\n      not\n        /* \"#utility.yul\":15206:15211   */\n      dup5\n        /* \"#utility.yul\":15203:15204   */\n      0x08\n        /* \"#utility.yul\":15199:15212   */\n      mul\n        /* \"#utility.yul\":15170:15221   */\n      tag_105\n      jump\t// in\n    tag_272:\n        /* \"#utility.yul\":15166:15222   */\n      not\n        /* \"#utility.yul\":15251:15255   */\n      dup1\n        /* \"#utility.yul\":15245:15249   */\n      dup4\n        /* \"#utility.yul\":15241:15256   */\n      and\n        /* \"#utility.yul\":15231:15256   */\n      swap2\n      pop\n        /* \"#utility.yul\":15144:15262   */\n      pop\n        /* \"#utility.yul\":15093:15262   */\n      swap3\n      swap2\n      pop\n      pop\n      jump\t// out\n        /* \"#utility.yul\":15267:15562   */\n    tag_107:\n        /* \"#utility.yul\":15343:15347   */\n      0x00\n        /* \"#utility.yul\":15489:15518   */\n      tag_274\n        /* \"#utility.yul\":15514:15517   */\n      dup4\n        /* \"#utility.yul\":15508:15512   */\n      dup4\n        /* \"#utility.yul\":15489:15518   */\n      tag_106\n      jump\t// in\n    tag_274:\n        /* \"#utility.yul\":15481:15518   */\n      swap2\n      pop\n        /* \"#utility.yul\":15551:15554   */\n      dup3\n        /* \"#utility.yul\":15548:15549   */\n      0x02\n        /* \"#utility.yul\":15544:15555   */\n      mul\n        /* \"#utility.yul\":15538:15542   */\n      dup3\n        /* \"#utility.yul\":15535:15556   */\n      or\n        /* \"#utility.yul\":15527:15556   */\n      swap1\n      pop\n        /* \"#utility.yul\":15267:15562   */\n      swap3\n      swap2\n      pop\n      pop\n      jump\t// out\n        /* \"#utility.yul\":15567:16962   */\n    tag_51:\n        /* \"#utility.yul\":15684:15721   */\n      tag_276\n        /* \"#utility.yul\":15717:15720   */\n      dup3\n        /* \"#utility.yul\":15684:15721   */\n      tag_61\n      jump\t// in\n    tag_276:\n        /* \"#utility.yul\":15786:15804   */\n      0xffffffffffffffff\n        /* \"#utility.yul\":15778:15784   */\n      dup2\n        /* \"#utility.yul\":15775:15805   */\n      gt\n        /* \"#utility.yul\":15772:15828   */\n      iszero\n      tag_277\n      jumpi\n        /* \"#utility.yul\":15808:15826   */\n      tag_278\n      tag_73\n      jump\t// in\n    tag_278:\n        /* \"#utility.yul\":15772:15828   */\n    tag_277:\n        /* \"#utility.yul\":15852:15890   */\n      tag_279\n        /* \"#utility.yul\":15884:15888   */\n      dup3\n        /* \"#utility.yul\":15878:15889   */\n      sload\n        /* \"#utility.yul\":15852:15890   */\n      tag_27\n      jump\t// in\n    tag_279:\n        /* \"#utility.yul\":15937:16004   */\n      tag_280\n        /* \"#utility.yul\":15997:16003   */\n      dup3\n        /* \"#utility.yul\":15989:15995   */\n      dup3\n        /* \"#utility.yul\":15983:15987   */\n      dup6\n        /* \"#utility.yul\":15937:16004   */\n      tag_104\n      jump\t// in\n    tag_280:\n        /* \"#utility.yul\":16031:16032   */\n      0x00\n        /* \"#utility.yul\":16055:16059   */\n      0x20\n        /* \"#utility.yul\":16042:16059   */\n      swap1\n      pop\n        /* \"#utility.yul\":16087:16089   */\n      0x1f\n        /* \"#utility.yul\":16079:16085   */\n      dup4\n        /* \"#utility.yul\":16076:16090   */\n      gt\n        /* \"#utility.yul\":16104:16105   */\n      0x01\n        /* \"#utility.yul\":16099:16717   */\n      dup2\n      eq\n      tag_282\n      jumpi\n        /* \"#utility.yul\":16761:16762   */\n      0x00\n        /* \"#utility.yul\":16778:16784   */\n      dup5\n        /* \"#utility.yul\":16775:16852   */\n      iszero\n      tag_283\n      jumpi\n        /* \"#utility.yul\":16827:16836   */\n      dup3\n        /* \"#utility.yul\":16822:16825   */\n      dup8\n        /* \"#utility.yul\":16818:16837   */\n      add\n        /* \"#utility.yul\":16812:16838   */\n      mload\n        /* \"#utility.yul\":16803:16838   */\n      swap1\n      pop\n        /* \"#utility.yul\":16775:16852   */\n    tag_283:\n        /* \"#utility.yul\":16878:16945   */\n      tag_284\n        /* \"#utility.yul\":16938:16944   */\n      dup6\n        /* \"#utility.yul\":16931:16936   */\n      dup3\n        /* \"#utility.yul\":16878:16945   */\n      tag_107\n      jump\t// in\n    tag_284:\n        /* \"#utility.yul\":16872:16876   */\n      dup7\n        /* \"#utility.yul\":16865:16946   */\n      sstore\n        /* \"#utility.yul\":16734:16956   */\n      pop\n        /* \"#utility.yul\":16069:16956   */\n      jump(tag_281)\n        /* \"#utility.yul\":16099:16717   */\n    tag_282:\n        /* \"#utility.yul\":16151:16155   */\n      0x1f\n        /* \"#utility.yul\":16147:16156   */\n      not\n        /* \"#utility.yul\":16139:16145   */\n      dup5\n        /* \"#utility.yul\":16135:16157   */\n      and\n        /* \"#utility.yul\":16185:16222   */\n      tag_285\n        /* \"#utility.yul\":16217:16221   */\n      dup7\n        /* \"#utility.yul\":16185:16222   */\n      tag_87\n      jump\t// in\n    tag_285:\n        /* \"#utility.yul\":16244:16245   */\n      0x00\n        /* \"#utility.yul\":16258:16466   */\n    tag_286:\n        /* \"#utility.yul\":16272:16279   */\n      dup3\n        /* \"#utility.yul\":16269:16270   */\n      dup2\n        /* \"#utility.yul\":16266:16280   */\n      lt\n        /* \"#utility.yul\":16258:16466   */\n      iszero\n      tag_288\n      jumpi\n        /* \"#utility.yul\":16351:16360   */\n      dup5\n        /* \"#utility.yul\":16346:16349   */\n      dup10\n        /* \"#utility.yul\":16342:16361   */\n      add\n        /* \"#utility.yul\":16336:16362   */\n      mload\n        /* \"#utility.yul\":16328:16334   */\n      dup3\n        /* \"#utility.yul\":16321:16363   */\n      sstore\n        /* \"#utility.yul\":16402:16403   */\n      0x01\n        /* \"#utility.yul\":16394:16400   */\n      dup3\n        /* \"#utility.yul\":16390:16404   */\n      add\n        /* \"#utility.yul\":16380:16404   */\n      swap2\n      pop\n        /* \"#utility.yul\":16449:16451   */\n      0x20\n        /* \"#utility.yul\":16438:16447   */\n      dup6\n        /* \"#utility.yul\":16434:16452   */\n      add\n        /* \"#utility.yul\":16421:16452   */\n      swap5\n      pop\n        /* \"#utility.yul\":16295:16299   */\n      0x20\n        /* \"#utility.yul\":16292:16293   */\n      dup2\n        /* \"#utility.yul\":16288:16300   */\n      add\n        /* \"#utility.yul\":16283:16300   */\n      swap1\n      pop\n        /* \"#utility.yul\":16258:16466   */\n      jump(tag_286)\n    tag_288:\n        /* \"#utility.yul\":16494:16500   */\n      dup7\n        /* \"#utility.yul\":16485:16492   */\n      dup4\n        /* \"#utility.yul\":16482:16501   */\n      lt\n        /* \"#utility.yul\":16479:16658   */\n      iszero\n      tag_289\n      jumpi\n        /* \"#utility.yul\":16552:16561   */\n      dup5\n        /* \"#utility.yul\":16547:16550   */\n      dup10\n        /* \"#utility.yul\":16543:16562   */\n      add\n        /* \"#utility.yul\":16537:16563   */\n      mload\n        /* \"#utility.yul\":16595:16643   */\n      tag_290\n        /* \"#utility.yul\":16637:16641   */\n      0x1f\n        /* \"#utility.yul\":16629:16635   */\n      dup10\n        /* \"#utility.yul\":16625:16642   */\n      and\n        /* \"#utility.yul\":16614:16623   */\n      dup3\n        /* \"#utility.yul\":16595:16643   */\n      tag_106\n      jump\t// in\n    tag_290:\n        /* \"#utility.yul\":16587:16593   */\n      dup4\n        /* \"#utility.yul\":16580:16644   */\n      sstore\n        /* \"#utility.yul\":16502:16658   */\n      pop\n        /* \"#utility.yul\":16479:16658   */\n    tag_289:\n        /* \"#utility.yul\":16704:16705   */\n      0x01\n        /* \"#utility.yul\":16700:16701   */\n      0x02\n        /* \"#utility.yul\":16692:16698   */\n      dup9\n        /* \"#utility.yul\":16688:16702   */\n      mul\n        /* \"#utility.yul\":16684:16706   */\n      add\n        /* \"#utility.yul\":16678:16682   */\n      dup9\n        /* \"#utility.yul\":16671:16707   */\n      sstore\n        /* \"#utility.yul\":16106:16717   */\n      pop\n      pop\n      pop\n        /* \"#utility.yul\":16069:16956   */\n    tag_281:\n      pop\n        /* \"#utility.yul\":15659:16962   */\n      pop\n      pop\n      pop\n        /* \"#utility.yul\":15567:16962   */\n      pop\n      pop\n      jump\t// out\n        /* \"#utility.yul\":16968:17628   */\n    tag_53:\n        /* \"#utility.yul\":17173:17177   */\n      0x00\n        /* \"#utility.yul\":17211:17214   */\n      0x80\n        /* \"#utility.yul\":17200:17209   */\n      dup3\n        /* \"#utility.yul\":17196:17215   */\n      add\n        /* \"#utility.yul\":17188:17215   */\n      swap1\n      pop\n        /* \"#utility.yul\":17225:17296   */\n      tag_292\n        /* \"#utility.yul\":17293:17294   */\n      0x00\n        /* \"#utility.yul\":17282:17291   */\n      dup4\n        /* \"#utility.yul\":17278:17295   */\n      add\n        /* \"#utility.yul\":17269:17275   */\n      dup8\n        /* \"#utility.yul\":17225:17296   */\n      tag_55\n      jump\t// in\n    tag_292:\n        /* \"#utility.yul\":17343:17352   */\n      dup2\n        /* \"#utility.yul\":17337:17341   */\n      dup2\n        /* \"#utility.yul\":17333:17353   */\n      sub\n        /* \"#utility.yul\":17328:17330   */\n      0x20\n        /* \"#utility.yul\":17317:17326   */\n      dup4\n        /* \"#utility.yul\":17313:17331   */\n      add\n        /* \"#utility.yul\":17306:17354   */\n      mstore\n        /* \"#utility.yul\":17371:17449   */\n      tag_293\n        /* \"#utility.yul\":17444:17448   */\n      dup2\n        /* \"#utility.yul\":17435:17441   */\n      dup7\n        /* \"#utility.yul\":17371:17449   */\n      tag_65\n      jump\t// in\n    tag_293:\n        /* \"#utility.yul\":17363:17449   */\n      swap1\n      pop\n        /* \"#utility.yul\":17459:17531   */\n      tag_294\n        /* \"#utility.yul\":17527:17529   */\n      0x40\n        /* \"#utility.yul\":17516:17525   */\n      dup4\n        /* \"#utility.yul\":17512:17530   */\n      add\n        /* \"#utility.yul\":17503:17509   */\n      dup6\n        /* \"#utility.yul\":17459:17531   */\n      tag_55\n      jump\t// in\n    tag_294:\n        /* \"#utility.yul\":17541:17621   */\n      tag_295\n        /* \"#utility.yul\":17617:17619   */\n      0x60\n        /* \"#utility.yul\":17606:17615   */\n      dup4\n        /* \"#utility.yul\":17602:17620   */\n      add\n        /* \"#utility.yul\":17593:17599   */\n      dup5\n        /* \"#utility.yul\":17541:17621   */\n      tag_93\n      jump\t// in\n    tag_295:\n        /* \"#utility.yul\":16968:17628   */\n      swap6\n      swap5\n      pop\n      pop\n      pop\n      pop\n      pop\n      jump\t// out\n\n    auxdata: 0xa26469706673582212205eb8939f2c707317f315b9c68c0fc55f3c935d332aeeeb459fb2ead835e49ad064736f6c63430008120033\n}\n",
				"bytecode": {
					"linkReferences": {},
					"object": "608060405234801561001057600080fd5b50610ef7806100206000396000f3fe60806040526004361061003f5760003560e01c80634f67c624146100445780637acc0b201461006f5780638642269e146100b0578063e9300c6c146100cc575b600080fd5b34801561005057600080fd5b506100596100f5565b604051610066919061054a565b60405180910390f35b34801561007b57600080fd5b50610096600480360381019061009191906105a5565b6100fb565b6040516100a79594939291906106be565b60405180910390f35b6100ca60048036038101906100c591906105a5565b6101e6565b005b3480156100d857600080fd5b506100f360048036038101906100ee919061084d565b6103ed565b005b60005481565b6001602052806000526040600020600091509050806000015490806001018054610124906108d8565b80601f0160208091040260200160405190810160405280929190818152602001828054610150906108d8565b801561019d5780601f106101725761010080835404028352916020019161019d565b820191906000526020600020905b81548152906001019060200180831161018057829003601f168201915b5050505050908060020154908060030160009054906101000a900473ffffffffffffffffffffffffffffffffffffffff16908060030160149054906101000a900460ff16905085565b6000600160008381526020019081526020016000209050600081600001541180156102175750600054816000015411155b610256576040517f08c379a000000000000000000000000000000000000000000000000000000000815260040161024d90610955565b60405180910390fd5b8060030160149054906101000a900460ff16156102a8576040517f08c379a000000000000000000000000000000000000000000000000000000000815260040161029f906109c1565b60405180910390fd5b80600201543410156102ef576040517f08c379a00000000000000000000000000000000000000000000000000000000081526004016102e690610a2d565b60405180910390fd5b60018160030160146101000a81548160ff0219169083151502179055508060030160009054906101000a900473ffffffffffffffffffffffffffffffffffffffff1673ffffffffffffffffffffffffffffffffffffffff166108fc82600201549081150290604051600060405180830381858888f1935050505015801561037a573d6000803e3d6000fd5b507f2047c6629399a11ff135b2bc592507ecc4e0f9fbea4846a6834c0e455288b14881600001548260010183600201548460030160009054906101000a900473ffffffffffffffffffffffffffffffffffffffff16336040516103e1959493929190610b45565b60405180910390a15050565b6000808154809291906103ff90610bce565b91905055506040518060a0016040528060005481526020018381526020018281526020013373ffffffffffffffffffffffffffffffffffffffff1681526020016000151581525060016000805481526020019081526020016000206000820151816000015560208201518160010190816104799190610da3565b506040820151816002015560608201518160030160006101000a81548173ffffffffffffffffffffffffffffffffffffffff021916908373ffffffffffffffffffffffffffffffffffffffff16021790555060808201518160030160146101000a81548160ff0219169083151502179055509050507f2e87df3c8f53fb06266ed52023929f5fab9f24130224ef6538b665d9cac825306000548383336040516105259493929190610e75565b60405180910390a15050565b6000819050919050565b61054481610531565b82525050565b600060208201905061055f600083018461053b565b92915050565b6000604051905090565b600080fd5b600080fd5b61058281610531565b811461058d57600080fd5b50565b60008135905061059f81610579565b92915050565b6000602082840312156105bb576105ba61056f565b5b60006105c984828501610590565b91505092915050565b600081519050919050565b600082825260208201905092915050565b60005b8381101561060c5780820151818401526020810190506105f1565b60008484015250505050565b6000601f19601f8301169050919050565b6000610634826105d2565b61063e81856105dd565b935061064e8185602086016105ee565b61065781610618565b840191505092915050565b600073ffffffffffffffffffffffffffffffffffffffff82169050919050565b600061068d82610662565b9050919050565b61069d81610682565b82525050565b60008115159050919050565b6106b8816106a3565b82525050565b600060a0820190506106d3600083018861053b565b81810360208301526106e58187610629565b90506106f4604083018661053b565b6107016060830185610694565b61070e60808301846106af565b9695505050505050565b600080fd5b600080fd5b7f4e487b7100000000000000000000000000000000000000000000000000000000600052604160045260246000fd5b61075a82610618565b810181811067ffffffffffffffff8211171561077957610778610722565b5b80604052505050565b600061078c610565565b90506107988282610751565b919050565b600067ffffffffffffffff8211156107b8576107b7610722565b5b6107c182610618565b9050602081019050919050565b82818337600083830152505050565b60006107f06107eb8461079d565b610782565b90508281526020810184848401111561080c5761080b61071d565b5b6108178482856107ce565b509392505050565b600082601f83011261083457610833610718565b5b81356108448482602086016107dd565b91505092915050565b600080604083850312156108645761086361056f565b5b600083013567ffffffffffffffff81111561088257610881610574565b5b61088e8582860161081f565b925050602061089f85828601610590565b9150509250929050565b7f4e487b7100000000000000000000000000000000000000000000000000000000600052602260045260246000fd5b600060028204905060018216806108f057607f821691505b602082108103610903576109026108a9565b5b50919050565b7f496e76616c69642050726f647563742049440000000000000000000000000000600082015250565b600061093f6012836105dd565b915061094a82610909565b602082019050919050565b6000602082019050818103600083015261096e81610932565b9050919050565b7f50726f6475637420416c726561647920536f6c64210000000000000000000000600082015250565b60006109ab6015836105dd565b91506109b682610975565b602082019050919050565b600060208201905081810360008301526109da8161099e565b9050919050565b7f496e73756666696369656e742066756e64730000000000000000000000000000600082015250565b6000610a176012836105dd565b9150610a22826109e1565b602082019050919050565b60006020820190508181036000830152610a4681610a0a565b9050919050565b60008190508160005260206000209050919050565b60008154610a6f816108d8565b610a7981866105dd565b94506001821660008114610a945760018114610aaa57610add565b60ff198316865281151560200286019350610add565b610ab385610a4d565b60005b83811015610ad557815481890152600182019150602081019050610ab6565b808801955050505b50505092915050565b6000819050919050565b6000610b0b610b06610b0184610662565b610ae6565b610662565b9050919050565b6000610b1d82610af0565b9050919050565b6000610b2f82610b12565b9050919050565b610b3f81610b24565b82525050565b600060a082019050610b5a600083018861053b565b8181036020830152610b6c8187610a62565b9050610b7b604083018661053b565b610b886060830185610b36565b610b956080830184610b36565b9695505050505050565b7f4e487b7100000000000000000000000000000000000000000000000000000000600052601160045260246000fd5b6000610bd982610531565b91507fffffffffffffffffffffffffffffffffffffffffffffffffffffffffffffffff8203610c0b57610c0a610b9f565b5b600182019050919050565b60006020601f8301049050919050565b600082821b905092915050565b600060088302610c637fffffffffffffffffffffffffffffffffffffffffffffffffffffffffffffffff82610c26565b610c6d8683610c26565b95508019841693508086168417925050509392505050565b6000610ca0610c9b610c9684610531565b610ae6565b610531565b9050919050565b6000819050919050565b610cba83610c85565b610cce610cc682610ca7565b848454610c33565b825550505050565b600090565b610ce3610cd6565b610cee818484610cb1565b505050565b5b81811015610d1257610d07600082610cdb565b600181019050610cf4565b5050565b601f821115610d5757610d2881610a4d565b610d3184610c16565b81016020851015610d40578190505b610d54610d4c85610c16565b830182610cf3565b50505b505050565b600082821c905092915050565b6000610d7a60001984600802610d5c565b1980831691505092915050565b6000610d938383610d69565b9150826002028217905092915050565b610dac826105d2565b67ffffffffffffffff811115610dc557610dc4610722565b5b610dcf82546108d8565b610dda828285610d16565b600060209050601f831160018114610e0d5760008415610dfb578287015190505b610e058582610d87565b865550610e6d565b601f198416610e1b86610a4d565b60005b82811015610e4357848901518255600182019150602085019450602081019050610e1e565b86831015610e605784890151610e5c601f891682610d69565b8355505b6001600288020188555050505b505050505050565b6000608082019050610e8a600083018761053b565b8181036020830152610e9c8186610629565b9050610eab604083018561053b565b610eb86060830184610b36565b9594505050505056fea26469706673582212205eb8939f2c707317f315b9c68c0fc55f3c935d332aeeeb459fb2ead835e49ad064736f6c63430008120033",
					"opcodes": "PUSH1 0x80 PUSH1 0x40 MSTORE CALLVALUE DUP1 ISZERO PUSH2 0x10 JUMPI PUSH1 0x0 DUP1 REVERT JUMPDEST POP PUSH2 0xEF7 DUP1 PUSH2 0x20 PUSH1 0x0 CODECOPY PUSH1 0x0 RETURN INVALID PUSH1 0x80 PUSH1 0x40 MSTORE PUSH1 0x4 CALLDATASIZE LT PUSH2 0x3F JUMPI PUSH1 0x0 CALLDATALOAD PUSH1 0xE0 SHR DUP1 PUSH4 0x4F67C624 EQ PUSH2 0x44 JUMPI DUP1 PUSH4 0x7ACC0B20 EQ PUSH2 0x6F JUMPI DUP1 PUSH4 0x8642269E EQ PUSH2 0xB0 JUMPI DUP1 PUSH4 0xE9300C6C EQ PUSH2 0xCC JUMPI JUMPDEST PUSH1 0x0 DUP1 REVERT JUMPDEST CALLVALUE DUP1 ISZERO PUSH2 0x50 JUMPI PUSH1 0x0 DUP1 REVERT JUMPDEST POP PUSH2 0x59 PUSH2 0xF5 JUMP JUMPDEST PUSH1 0x40 MLOAD PUSH2 0x66 SWAP2 SWAP1 PUSH2 0x54A JUMP JUMPDEST PUSH1 0x40 MLOAD DUP1 SWAP2 SUB SWAP1 RETURN JUMPDEST CALLVALUE DUP1 ISZERO PUSH2 0x7B JUMPI PUSH1 0x0 DUP1 REVERT JUMPDEST POP PUSH2 0x96 PUSH1 0x4 DUP1 CALLDATASIZE SUB DUP2 ADD SWAP1 PUSH2 0x91 SWAP2 SWAP1 PUSH2 0x5A5 JUMP JUMPDEST PUSH2 0xFB JUMP JUMPDEST PUSH1 0x40 MLOAD PUSH2 0xA7 SWAP6 SWAP5 SWAP4 SWAP3 SWAP2 SWAP1 PUSH2 0x6BE JUMP JUMPDEST PUSH1 0x40 MLOAD DUP1 SWAP2 SUB SWAP1 RETURN JUMPDEST PUSH2 0xCA PUSH1 0x4 DUP1 CALLDATASIZE SUB DUP2 ADD SWAP1 PUSH2 0xC5 SWAP2 SWAP1 PUSH2 0x5A5 JUMP JUMPDEST PUSH2 0x1E6 JUMP JUMPDEST STOP JUMPDEST CALLVALUE DUP1 ISZERO PUSH2 0xD8 JUMPI PUSH1 0x0 DUP1 REVERT JUMPDEST POP PUSH2 0xF3 PUSH1 0x4 DUP1 CALLDATASIZE SUB DUP2 ADD SWAP1 PUSH2 0xEE SWAP2 SWAP1 PUSH2 0x84D JUMP JUMPDEST PUSH2 0x3ED JUMP JUMPDEST STOP JUMPDEST PUSH1 0x0 SLOAD DUP2 JUMP JUMPDEST PUSH1 0x1 PUSH1 0x20 MSTORE DUP1 PUSH1 0x0 MSTORE PUSH1 0x40 PUSH1 0x0 KECCAK256 PUSH1 0x0 SWAP2 POP SWAP1 POP DUP1 PUSH1 0x0 ADD SLOAD SWAP1 DUP1 PUSH1 0x1 ADD DUP1 SLOAD PUSH2 0x124 SWAP1 PUSH2 0x8D8 JUMP JUMPDEST DUP1 PUSH1 0x1F ADD PUSH1 0x20 DUP1 SWAP2 DIV MUL PUSH1 0x20 ADD PUSH1 0x40 MLOAD SWAP1 DUP2 ADD PUSH1 0x40 MSTORE DUP1 SWAP3 SWAP2 SWAP1 DUP2 DUP2 MSTORE PUSH1 0x20 ADD DUP3 DUP1 SLOAD PUSH2 0x150 SWAP1 PUSH2 0x8D8 JUMP JUMPDEST DUP1 ISZERO PUSH2 0x19D JUMPI DUP1 PUSH1 0x1F LT PUSH2 0x172 JUMPI PUSH2 0x100 DUP1 DUP4 SLOAD DIV MUL DUP4 MSTORE SWAP2 PUSH1 0x20 ADD SWAP2 PUSH2 0x19D JUMP JUMPDEST DUP3 ADD SWAP2 SWAP1 PUSH1 0x0 MSTORE PUSH1 0x20 PUSH1 0x0 KECCAK256 SWAP1 JUMPDEST DUP2 SLOAD DUP2 MSTORE SWAP1 PUSH1 0x1 ADD SWAP1 PUSH1 0x20 ADD DUP1 DUP4 GT PUSH2 0x180 JUMPI DUP3 SWAP1 SUB PUSH1 0x1F AND DUP3 ADD SWAP2 JUMPDEST POP POP POP POP POP SWAP1 DUP1 PUSH1 0x2 ADD SLOAD SWAP1 DUP1 PUSH1 0x3 ADD PUSH1 0x0 SWAP1 SLOAD SWAP1 PUSH2 0x100 EXP SWAP1 DIV PUSH20 0xFFFFFFFFFFFFFFFFFFFFFFFFFFFFFFFFFFFFFFFF AND SWAP1 DUP1 PUSH1 0x3 ADD PUSH1 0x14 SWAP1 SLOAD SWAP1 PUSH2 0x100 EXP SWAP1 DIV PUSH1 0xFF AND SWAP1 POP DUP6 JUMP JUMPDEST PUSH1 0x0 PUSH1 0x1 PUSH1 0x0 DUP4 DUP2 MSTORE PUSH1 0x20 ADD SWAP1 DUP2 MSTORE PUSH1 0x20 ADD PUSH1 0x0 KECCAK256 SWAP1 POP PUSH1 0x0 DUP2 PUSH1 0x0 ADD SLOAD GT DUP1 ISZERO PUSH2 0x217 JUMPI POP PUSH1 0x0 SLOAD DUP2 PUSH1 0x0 ADD SLOAD GT ISZERO JUMPDEST PUSH2 0x256 JUMPI PUSH1 0x40 MLOAD PUSH32 0x8C379A000000000000000000000000000000000000000000000000000000000 DUP2 MSTORE PUSH1 0x4 ADD PUSH2 0x24D SWAP1 PUSH2 0x955 JUMP JUMPDEST PUSH1 0x40 MLOAD DUP1 SWAP2 SUB SWAP1 REVERT JUMPDEST DUP1 PUSH1 0x3 ADD PUSH1 0x14 SWAP1 SLOAD SWAP1 PUSH2 0x100 EXP SWAP1 DIV PUSH1 0xFF AND ISZERO PUSH2 0x2A8 JUMPI PUSH1 0x40 MLOAD PUSH32 0x8C379A000000000000000000000000000000000000000000000000000000000 DUP2 MSTORE PUSH1 0x4 ADD PUSH2 0x29F SWAP1 PUSH2 0x9C1 JUMP JUMPDEST PUSH1 0x40 MLOAD DUP1 SWAP2 SUB SWAP1 REVERT JUMPDEST DUP1 PUSH1 0x2 ADD SLOAD CALLVALUE LT ISZERO PUSH2 0x2EF JUMPI PUSH1 0x40 MLOAD PUSH32 0x8C379A000000000000000000000000000000000000000000000000000000000 DUP2 MSTORE PUSH1 0x4 ADD PUSH2 0x2E6 SWAP1 PUSH2 0xA2D JUMP JUMPDEST PUSH1 0x40 MLOAD DUP1 SWAP2 SUB SWAP1 REVERT JUMPDEST PUSH1 0x1 DUP2 PUSH1 0x3 ADD PUSH1 0x14 PUSH2 0x100 EXP DUP2 SLOAD DUP2 PUSH1 0xFF MUL NOT AND SWAP1 DUP4 ISZERO ISZERO MUL OR SWAP1 SSTORE POP DUP1 PUSH1 0x3 ADD PUSH1 0x0 SWAP1 SLOAD SWAP1 PUSH2 0x100 EXP SWAP1 DIV PUSH20 0xFFFFFFFFFFFFFFFFFFFFFFFFFFFFFFFFFFFFFFFF AND PUSH20 0xFFFFFFFFFFFFFFFFFFFFFFFFFFFFFFFFFFFFFFFF AND PUSH2 0x8FC DUP3 PUSH1 0x2 ADD SLOAD SWAP1 DUP2 ISZERO MUL SWAP1 PUSH1 0x40 MLOAD PUSH1 0x0 PUSH1 0x40 MLOAD DUP1 DUP4 SUB DUP2 DUP6 DUP9 DUP9 CALL SWAP4 POP POP POP POP ISZERO DUP1 ISZERO PUSH2 0x37A JUMPI RETURNDATASIZE PUSH1 0x0 DUP1 RETURNDATACOPY RETURNDATASIZE PUSH1 0x0 REVERT JUMPDEST POP PUSH32 0x2047C6629399A11FF135B2BC592507ECC4E0F9FBEA4846A6834C0E455288B148 DUP2 PUSH1 0x0 ADD SLOAD DUP3 PUSH1 0x1 ADD DUP4 PUSH1 0x2 ADD SLOAD DUP5 PUSH1 0x3 ADD PUSH1 0x0 SWAP1 SLOAD SWAP1 PUSH2 0x100 EXP SWAP1 DIV PUSH20 0xFFFFFFFFFFFFFFFFFFFFFFFFFFFFFFFFFFFFFFFF AND CALLER PUSH1 0x40 MLOAD PUSH2 0x3E1 SWAP6 SWAP5 SWAP4 SWAP3 SWAP2 SWAP1 PUSH2 0xB45 JUMP JUMPDEST PUSH1 0x40 MLOAD DUP1 SWAP2 SUB SWAP1 LOG1 POP POP JUMP JUMPDEST PUSH1 0x0 DUP1 DUP2 SLOAD DUP1 SWAP3 SWAP2 SWAP1 PUSH2 0x3FF SWAP1 PUSH2 0xBCE JUMP JUMPDEST SWAP2 SWAP1 POP SSTORE POP PUSH1 0x40 MLOAD DUP1 PUSH1 0xA0 ADD PUSH1 0x40 MSTORE DUP1 PUSH1 0x0 SLOAD DUP2 MSTORE PUSH1 0x20 ADD DUP4 DUP2 MSTORE PUSH1 0x20 ADD DUP3 DUP2 MSTORE PUSH1 0x20 ADD CALLER PUSH20 0xFFFFFFFFFFFFFFFFFFFFFFFFFFFFFFFFFFFFFFFF AND DUP2 MSTORE PUSH1 0x20 ADD PUSH1 0x0 ISZERO ISZERO DUP2 MSTORE POP PUSH1 0x1 PUSH1 0x0 DUP1 SLOAD DUP2 MSTORE PUSH1 0x20 ADD SWAP1 DUP2 MSTORE PUSH1 0x20 ADD PUSH1 0x0 KECCAK256 PUSH1 0x0 DUP3 ADD MLOAD DUP2 PUSH1 0x0 ADD SSTORE PUSH1 0x20 DUP3 ADD MLOAD DUP2 PUSH1 0x1 ADD SWAP1 DUP2 PUSH2 0x479 SWAP2 SWAP1 PUSH2 0xDA3 JUMP JUMPDEST POP PUSH1 0x40 DUP3 ADD MLOAD DUP2 PUSH1 0x2 ADD SSTORE PUSH1 0x60 DUP3 ADD MLOAD DUP2 PUSH1 0x3 ADD PUSH1 0x0 PUSH2 0x100 EXP DUP2 SLOAD DUP2 PUSH20 0xFFFFFFFFFFFFFFFFFFFFFFFFFFFFFFFFFFFFFFFF MUL NOT AND SWAP1 DUP4 PUSH20 0xFFFFFFFFFFFFFFFFFFFFFFFFFFFFFFFFFFFFFFFF AND MUL OR SWAP1 SSTORE POP PUSH1 0x80 DUP3 ADD MLOAD DUP2 PUSH1 0x3 ADD PUSH1 0x14 PUSH2 0x100 EXP DUP2 SLOAD DUP2 PUSH1 0xFF MUL NOT AND SWAP1 DUP4 ISZERO ISZERO MUL OR SWAP1 SSTORE POP SWAP1 POP POP PUSH32 0x2E87DF3C8F53FB06266ED52023929F5FAB9F24130224EF6538B665D9CAC82530 PUSH1 0x0 SLOAD DUP4 DUP4 CALLER PUSH1 0x40 MLOAD PUSH2 0x525 SWAP5 SWAP4 SWAP3 SWAP2 SWAP1 PUSH2 0xE75 JUMP JUMPDEST PUSH1 0x40 MLOAD DUP1 SWAP2 SUB SWAP1 LOG1 POP POP JUMP JUMPDEST PUSH1 0x0 DUP2 SWAP1 POP SWAP2 SWAP1 POP JUMP JUMPDEST PUSH2 0x544 DUP2 PUSH2 0x531 JUMP JUMPDEST DUP3 MSTORE POP POP JUMP JUMPDEST PUSH1 0x0 PUSH1 0x20 DUP3 ADD SWAP1 POP PUSH2 0x55F PUSH1 0x0 DUP4 ADD DUP5 PUSH2 0x53B JUMP JUMPDEST SWAP3 SWAP2 POP POP JUMP JUMPDEST PUSH1 0x0 PUSH1 0x40 MLOAD SWAP1 POP SWAP1 JUMP JUMPDEST PUSH1 0x0 DUP1 REVERT JUMPDEST PUSH1 0x0 DUP1 REVERT JUMPDEST PUSH2 0x582 DUP2 PUSH2 0x531 JUMP JUMPDEST DUP2 EQ PUSH2 0x58D JUMPI PUSH1 0x0 DUP1 REVERT JUMPDEST POP JUMP JUMPDEST PUSH1 0x0 DUP2 CALLDATALOAD SWAP1 POP PUSH2 0x59F DUP2 PUSH2 0x579 JUMP JUMPDEST SWAP3 SWAP2 POP POP JUMP JUMPDEST PUSH1 0x0 PUSH1 0x20 DUP3 DUP5 SUB SLT ISZERO PUSH2 0x5BB JUMPI PUSH2 0x5BA PUSH2 0x56F JUMP JUMPDEST JUMPDEST PUSH1 0x0 PUSH2 0x5C9 DUP5 DUP3 DUP6 ADD PUSH2 0x590 JUMP JUMPDEST SWAP2 POP POP SWAP3 SWAP2 POP POP JUMP JUMPDEST PUSH1 0x0 DUP2 MLOAD SWAP1 POP SWAP2 SWAP1 POP JUMP JUMPDEST PUSH1 0x0 DUP3 DUP3 MSTORE PUSH1 0x20 DUP3 ADD SWAP1 POP SWAP3 SWAP2 POP POP JUMP JUMPDEST PUSH1 0x0 JUMPDEST DUP4 DUP2 LT ISZERO PUSH2 0x60C JUMPI DUP1 DUP3 ADD MLOAD DUP2 DUP5 ADD MSTORE PUSH1 0x20 DUP2 ADD SWAP1 POP PUSH2 0x5F1 JUMP JUMPDEST PUSH1 0x0 DUP5 DUP5 ADD MSTORE POP POP POP POP JUMP JUMPDEST PUSH1 0x0 PUSH1 0x1F NOT PUSH1 0x1F DUP4 ADD AND SWAP1 POP SWAP2 SWAP1 POP JUMP JUMPDEST PUSH1 0x0 PUSH2 0x634 DUP3 PUSH2 0x5D2 JUMP JUMPDEST PUSH2 0x63E DUP2 DUP6 PUSH2 0x5DD JUMP JUMPDEST SWAP4 POP PUSH2 0x64E DUP2 DUP6 PUSH1 0x20 DUP7 ADD PUSH2 0x5EE JUMP JUMPDEST PUSH2 0x657 DUP2 PUSH2 0x618 JUMP JUMPDEST DUP5 ADD SWAP2 POP POP SWAP3 SWAP2 POP POP JUMP JUMPDEST PUSH1 0x0 PUSH20 0xFFFFFFFFFFFFFFFFFFFFFFFFFFFFFFFFFFFFFFFF DUP3 AND SWAP1 POP SWAP2 SWAP1 POP JUMP JUMPDEST PUSH1 0x0 PUSH2 0x68D DUP3 PUSH2 0x662 JUMP JUMPDEST SWAP1 POP SWAP2 SWAP1 POP JUMP JUMPDEST PUSH2 0x69D DUP2 PUSH2 0x682 JUMP JUMPDEST DUP3 MSTORE POP POP JUMP JUMPDEST PUSH1 0x0 DUP2 ISZERO ISZERO SWAP1 POP SWAP2 SWAP1 POP JUMP JUMPDEST PUSH2 0x6B8 DUP2 PUSH2 0x6A3 JUMP JUMPDEST DUP3 MSTORE POP POP JUMP JUMPDEST PUSH1 0x0 PUSH1 0xA0 DUP3 ADD SWAP1 POP PUSH2 0x6D3 PUSH1 0x0 DUP4 ADD DUP9 PUSH2 0x53B JUMP JUMPDEST DUP2 DUP2 SUB PUSH1 0x20 DUP4 ADD MSTORE PUSH2 0x6E5 DUP2 DUP8 PUSH2 0x629 JUMP JUMPDEST SWAP1 POP PUSH2 0x6F4 PUSH1 0x40 DUP4 ADD DUP7 PUSH2 0x53B JUMP JUMPDEST PUSH2 0x701 PUSH1 0x60 DUP4 ADD DUP6 PUSH2 0x694 JUMP JUMPDEST PUSH2 0x70E PUSH1 0x80 DUP4 ADD DUP5 PUSH2 0x6AF JUMP JUMPDEST SWAP7 SWAP6 POP POP POP POP POP POP JUMP JUMPDEST PUSH1 0x0 DUP1 REVERT JUMPDEST PUSH1 0x0 DUP1 REVERT JUMPDEST PUSH32 0x4E487B7100000000000000000000000000000000000000000000000000000000 PUSH1 0x0 MSTORE PUSH1 0x41 PUSH1 0x4 MSTORE PUSH1 0x24 PUSH1 0x0 REVERT JUMPDEST PUSH2 0x75A DUP3 PUSH2 0x618 JUMP JUMPDEST DUP2 ADD DUP2 DUP2 LT PUSH8 0xFFFFFFFFFFFFFFFF DUP3 GT OR ISZERO PUSH2 0x779 JUMPI PUSH2 0x778 PUSH2 0x722 JUMP JUMPDEST JUMPDEST DUP1 PUSH1 0x40 MSTORE POP POP POP JUMP JUMPDEST PUSH1 0x0 PUSH2 0x78C PUSH2 0x565 JUMP JUMPDEST SWAP1 POP PUSH2 0x798 DUP3 DUP3 PUSH2 0x751 JUMP JUMPDEST SWAP2 SWAP1 POP JUMP JUMPDEST PUSH1 0x0 PUSH8 0xFFFFFFFFFFFFFFFF DUP3 GT ISZERO PUSH2 0x7B8 JUMPI PUSH2 0x7B7 PUSH2 0x722 JUMP JUMPDEST JUMPDEST PUSH2 0x7C1 DUP3 PUSH2 0x618 JUMP JUMPDEST SWAP1 POP PUSH1 0x20 DUP2 ADD SWAP1 POP SWAP2 SWAP1 POP JUMP JUMPDEST DUP3 DUP2 DUP4 CALLDATACOPY PUSH1 0x0 DUP4 DUP4 ADD MSTORE POP POP POP JUMP JUMPDEST PUSH1 0x0 PUSH2 0x7F0 PUSH2 0x7EB DUP5 PUSH2 0x79D JUMP JUMPDEST PUSH2 0x782 JUMP JUMPDEST SWAP1 POP DUP3 DUP2 MSTORE PUSH1 0x20 DUP2 ADD DUP5 DUP5 DUP5 ADD GT ISZERO PUSH2 0x80C JUMPI PUSH2 0x80B PUSH2 0x71D JUMP JUMPDEST JUMPDEST PUSH2 0x817 DUP5 DUP3 DUP6 PUSH2 0x7CE JUMP JUMPDEST POP SWAP4 SWAP3 POP POP POP JUMP JUMPDEST PUSH1 0x0 DUP3 PUSH1 0x1F DUP4 ADD SLT PUSH2 0x834 JUMPI PUSH2 0x833 PUSH2 0x718 JUMP JUMPDEST JUMPDEST DUP2 CALLDATALOAD PUSH2 0x844 DUP5 DUP3 PUSH1 0x20 DUP7 ADD PUSH2 0x7DD JUMP JUMPDEST SWAP2 POP POP SWAP3 SWAP2 POP POP JUMP JUMPDEST PUSH1 0x0 DUP1 PUSH1 0x40 DUP4 DUP6 SUB SLT ISZERO PUSH2 0x864 JUMPI PUSH2 0x863 PUSH2 0x56F JUMP JUMPDEST JUMPDEST PUSH1 0x0 DUP4 ADD CALLDATALOAD PUSH8 0xFFFFFFFFFFFFFFFF DUP2 GT ISZERO PUSH2 0x882 JUMPI PUSH2 0x881 PUSH2 0x574 JUMP JUMPDEST JUMPDEST PUSH2 0x88E DUP6 DUP3 DUP7 ADD PUSH2 0x81F JUMP JUMPDEST SWAP3 POP POP PUSH1 0x20 PUSH2 0x89F DUP6 DUP3 DUP7 ADD PUSH2 0x590 JUMP JUMPDEST SWAP2 POP POP SWAP3 POP SWAP3 SWAP1 POP JUMP JUMPDEST PUSH32 0x4E487B7100000000000000000000000000000000000000000000000000000000 PUSH1 0x0 MSTORE PUSH1 0x22 PUSH1 0x4 MSTORE PUSH1 0x24 PUSH1 0x0 REVERT JUMPDEST PUSH1 0x0 PUSH1 0x2 DUP3 DIV SWAP1 POP PUSH1 0x1 DUP3 AND DUP1 PUSH2 0x8F0 JUMPI PUSH1 0x7F DUP3 AND SWAP2 POP JUMPDEST PUSH1 0x20 DUP3 LT DUP2 SUB PUSH2 0x903 JUMPI PUSH2 0x902 PUSH2 0x8A9 JUMP JUMPDEST JUMPDEST POP SWAP2 SWAP1 POP JUMP JUMPDEST PUSH32 0x496E76616C69642050726F647563742049440000000000000000000000000000 PUSH1 0x0 DUP3 ADD MSTORE POP JUMP JUMPDEST PUSH1 0x0 PUSH2 0x93F PUSH1 0x12 DUP4 PUSH2 0x5DD JUMP JUMPDEST SWAP2 POP PUSH2 0x94A DUP3 PUSH2 0x909 JUMP JUMPDEST PUSH1 0x20 DUP3 ADD SWAP1 POP SWAP2 SWAP1 POP JUMP JUMPDEST PUSH1 0x0 PUSH1 0x20 DUP3 ADD SWAP1 POP DUP2 DUP2 SUB PUSH1 0x0 DUP4 ADD MSTORE PUSH2 0x96E DUP2 PUSH2 0x932 JUMP JUMPDEST SWAP1 POP SWAP2 SWAP1 POP JUMP JUMPDEST PUSH32 0x50726F6475637420416C726561647920536F6C64210000000000000000000000 PUSH1 0x0 DUP3 ADD MSTORE POP JUMP JUMPDEST PUSH1 0x0 PUSH2 0x9AB PUSH1 0x15 DUP4 PUSH2 0x5DD JUMP JUMPDEST SWAP2 POP PUSH2 0x9B6 DUP3 PUSH2 0x975 JUMP JUMPDEST PUSH1 0x20 DUP3 ADD SWAP1 POP SWAP2 SWAP1 POP JUMP JUMPDEST PUSH1 0x0 PUSH1 0x20 DUP3 ADD SWAP1 POP DUP2 DUP2 SUB PUSH1 0x0 DUP4 ADD MSTORE PUSH2 0x9DA DUP2 PUSH2 0x99E JUMP JUMPDEST SWAP1 POP SWAP2 SWAP1 POP JUMP JUMPDEST PUSH32 0x496E73756666696369656E742066756E64730000000000000000000000000000 PUSH1 0x0 DUP3 ADD MSTORE POP JUMP JUMPDEST PUSH1 0x0 PUSH2 0xA17 PUSH1 0x12 DUP4 PUSH2 0x5DD JUMP JUMPDEST SWAP2 POP PUSH2 0xA22 DUP3 PUSH2 0x9E1 JUMP JUMPDEST PUSH1 0x20 DUP3 ADD SWAP1 POP SWAP2 SWAP1 POP JUMP JUMPDEST PUSH1 0x0 PUSH1 0x20 DUP3 ADD SWAP1 POP DUP2 DUP2 SUB PUSH1 0x0 DUP4 ADD MSTORE PUSH2 0xA46 DUP2 PUSH2 0xA0A JUMP JUMPDEST SWAP1 POP SWAP2 SWAP1 POP JUMP JUMPDEST PUSH1 0x0 DUP2 SWAP1 POP DUP2 PUSH1 0x0 MSTORE PUSH1 0x20 PUSH1 0x0 KECCAK256 SWAP1 POP SWAP2 SWAP1 POP JUMP JUMPDEST PUSH1 0x0 DUP2 SLOAD PUSH2 0xA6F DUP2 PUSH2 0x8D8 JUMP JUMPDEST PUSH2 0xA79 DUP2 DUP7 PUSH2 0x5DD JUMP JUMPDEST SWAP5 POP PUSH1 0x1 DUP3 AND PUSH1 0x0 DUP2 EQ PUSH2 0xA94 JUMPI PUSH1 0x1 DUP2 EQ PUSH2 0xAAA JUMPI PUSH2 0xADD JUMP JUMPDEST PUSH1 0xFF NOT DUP4 AND DUP7 MSTORE DUP2 ISZERO ISZERO PUSH1 0x20 MUL DUP7 ADD SWAP4 POP PUSH2 0xADD JUMP JUMPDEST PUSH2 0xAB3 DUP6 PUSH2 0xA4D JUMP JUMPDEST PUSH1 0x0 JUMPDEST DUP4 DUP2 LT ISZERO PUSH2 0xAD5 JUMPI DUP2 SLOAD DUP2 DUP10 ADD MSTORE PUSH1 0x1 DUP3 ADD SWAP2 POP PUSH1 0x20 DUP2 ADD SWAP1 POP PUSH2 0xAB6 JUMP JUMPDEST DUP1 DUP9 ADD SWAP6 POP POP POP JUMPDEST POP POP POP SWAP3 SWAP2 POP POP JUMP JUMPDEST PUSH1 0x0 DUP2 SWAP1 POP SWAP2 SWAP1 POP JUMP JUMPDEST PUSH1 0x0 PUSH2 0xB0B PUSH2 0xB06 PUSH2 0xB01 DUP5 PUSH2 0x662 JUMP JUMPDEST PUSH2 0xAE6 JUMP JUMPDEST PUSH2 0x662 JUMP JUMPDEST SWAP1 POP SWAP2 SWAP1 POP JUMP JUMPDEST PUSH1 0x0 PUSH2 0xB1D DUP3 PUSH2 0xAF0 JUMP JUMPDEST SWAP1 POP SWAP2 SWAP1 POP JUMP JUMPDEST PUSH1 0x0 PUSH2 0xB2F DUP3 PUSH2 0xB12 JUMP JUMPDEST SWAP1 POP SWAP2 SWAP1 POP JUMP JUMPDEST PUSH2 0xB3F DUP2 PUSH2 0xB24 JUMP JUMPDEST DUP3 MSTORE POP POP JUMP JUMPDEST PUSH1 0x0 PUSH1 0xA0 DUP3 ADD SWAP1 POP PUSH2 0xB5A PUSH1 0x0 DUP4 ADD DUP9 PUSH2 0x53B JUMP JUMPDEST DUP2 DUP2 SUB PUSH1 0x20 DUP4 ADD MSTORE PUSH2 0xB6C DUP2 DUP8 PUSH2 0xA62 JUMP JUMPDEST SWAP1 POP PUSH2 0xB7B PUSH1 0x40 DUP4 ADD DUP7 PUSH2 0x53B JUMP JUMPDEST PUSH2 0xB88 PUSH1 0x60 DUP4 ADD DUP6 PUSH2 0xB36 JUMP JUMPDEST PUSH2 0xB95 PUSH1 0x80 DUP4 ADD DUP5 PUSH2 0xB36 JUMP JUMPDEST SWAP7 SWAP6 POP POP POP POP POP POP JUMP JUMPDEST PUSH32 0x4E487B7100000000000000000000000000000000000000000000000000000000 PUSH1 0x0 MSTORE PUSH1 0x11 PUSH1 0x4 MSTORE PUSH1 0x24 PUSH1 0x0 REVERT JUMPDEST PUSH1 0x0 PUSH2 0xBD9 DUP3 PUSH2 0x531 JUMP JUMPDEST SWAP2 POP PUSH32 0xFFFFFFFFFFFFFFFFFFFFFFFFFFFFFFFFFFFFFFFFFFFFFFFFFFFFFFFFFFFFFFFF DUP3 SUB PUSH2 0xC0B JUMPI PUSH2 0xC0A PUSH2 0xB9F JUMP JUMPDEST JUMPDEST PUSH1 0x1 DUP3 ADD SWAP1 POP SWAP2 SWAP1 POP JUMP JUMPDEST PUSH1 0x0 PUSH1 0x20 PUSH1 0x1F DUP4 ADD DIV SWAP1 POP SWAP2 SWAP1 POP JUMP JUMPDEST PUSH1 0x0 DUP3 DUP3 SHL SWAP1 POP SWAP3 SWAP2 POP POP JUMP JUMPDEST PUSH1 0x0 PUSH1 0x8 DUP4 MUL PUSH2 0xC63 PUSH32 0xFFFFFFFFFFFFFFFFFFFFFFFFFFFFFFFFFFFFFFFFFFFFFFFFFFFFFFFFFFFFFFFF DUP3 PUSH2 0xC26 JUMP JUMPDEST PUSH2 0xC6D DUP7 DUP4 PUSH2 0xC26 JUMP JUMPDEST SWAP6 POP DUP1 NOT DUP5 AND SWAP4 POP DUP1 DUP7 AND DUP5 OR SWAP3 POP POP POP SWAP4 SWAP3 POP POP POP JUMP JUMPDEST PUSH1 0x0 PUSH2 0xCA0 PUSH2 0xC9B PUSH2 0xC96 DUP5 PUSH2 0x531 JUMP JUMPDEST PUSH2 0xAE6 JUMP JUMPDEST PUSH2 0x531 JUMP JUMPDEST SWAP1 POP SWAP2 SWAP1 POP JUMP JUMPDEST PUSH1 0x0 DUP2 SWAP1 POP SWAP2 SWAP1 POP JUMP JUMPDEST PUSH2 0xCBA DUP4 PUSH2 0xC85 JUMP JUMPDEST PUSH2 0xCCE PUSH2 0xCC6 DUP3 PUSH2 0xCA7 JUMP JUMPDEST DUP5 DUP5 SLOAD PUSH2 0xC33 JUMP JUMPDEST DUP3 SSTORE POP POP POP POP JUMP JUMPDEST PUSH1 0x0 SWAP1 JUMP JUMPDEST PUSH2 0xCE3 PUSH2 0xCD6 JUMP JUMPDEST PUSH2 0xCEE DUP2 DUP5 DUP5 PUSH2 0xCB1 JUMP JUMPDEST POP POP POP JUMP JUMPDEST JUMPDEST DUP2 DUP2 LT ISZERO PUSH2 0xD12 JUMPI PUSH2 0xD07 PUSH1 0x0 DUP3 PUSH2 0xCDB JUMP JUMPDEST PUSH1 0x1 DUP2 ADD SWAP1 POP PUSH2 0xCF4 JUMP JUMPDEST POP POP JUMP JUMPDEST PUSH1 0x1F DUP3 GT ISZERO PUSH2 0xD57 JUMPI PUSH2 0xD28 DUP2 PUSH2 0xA4D JUMP JUMPDEST PUSH2 0xD31 DUP5 PUSH2 0xC16 JUMP JUMPDEST DUP2 ADD PUSH1 0x20 DUP6 LT ISZERO PUSH2 0xD40 JUMPI DUP2 SWAP1 POP JUMPDEST PUSH2 0xD54 PUSH2 0xD4C DUP6 PUSH2 0xC16 JUMP JUMPDEST DUP4 ADD DUP3 PUSH2 0xCF3 JUMP JUMPDEST POP POP JUMPDEST POP POP POP JUMP JUMPDEST PUSH1 0x0 DUP3 DUP3 SHR SWAP1 POP SWAP3 SWAP2 POP POP JUMP JUMPDEST PUSH1 0x0 PUSH2 0xD7A PUSH1 0x0 NOT DUP5 PUSH1 0x8 MUL PUSH2 0xD5C JUMP JUMPDEST NOT DUP1 DUP4 AND SWAP2 POP POP SWAP3 SWAP2 POP POP JUMP JUMPDEST PUSH1 0x0 PUSH2 0xD93 DUP4 DUP4 PUSH2 0xD69 JUMP JUMPDEST SWAP2 POP DUP3 PUSH1 0x2 MUL DUP3 OR SWAP1 POP SWAP3 SWAP2 POP POP JUMP JUMPDEST PUSH2 0xDAC DUP3 PUSH2 0x5D2 JUMP JUMPDEST PUSH8 0xFFFFFFFFFFFFFFFF DUP2 GT ISZERO PUSH2 0xDC5 JUMPI PUSH2 0xDC4 PUSH2 0x722 JUMP JUMPDEST JUMPDEST PUSH2 0xDCF DUP3 SLOAD PUSH2 0x8D8 JUMP JUMPDEST PUSH2 0xDDA DUP3 DUP3 DUP6 PUSH2 0xD16 JUMP JUMPDEST PUSH1 0x0 PUSH1 0x20 SWAP1 POP PUSH1 0x1F DUP4 GT PUSH1 0x1 DUP2 EQ PUSH2 0xE0D JUMPI PUSH1 0x0 DUP5 ISZERO PUSH2 0xDFB JUMPI DUP3 DUP8 ADD MLOAD SWAP1 POP JUMPDEST PUSH2 0xE05 DUP6 DUP3 PUSH2 0xD87 JUMP JUMPDEST DUP7 SSTORE POP PUSH2 0xE6D JUMP JUMPDEST PUSH1 0x1F NOT DUP5 AND PUSH2 0xE1B DUP7 PUSH2 0xA4D JUMP JUMPDEST PUSH1 0x0 JUMPDEST DUP3 DUP2 LT ISZERO PUSH2 0xE43 JUMPI DUP5 DUP10 ADD MLOAD DUP3 SSTORE PUSH1 0x1 DUP3 ADD SWAP2 POP PUSH1 0x20 DUP6 ADD SWAP5 POP PUSH1 0x20 DUP2 ADD SWAP1 POP PUSH2 0xE1E JUMP JUMPDEST DUP7 DUP4 LT ISZERO PUSH2 0xE60 JUMPI DUP5 DUP10 ADD MLOAD PUSH2 0xE5C PUSH1 0x1F DUP10 AND DUP3 PUSH2 0xD69 JUMP JUMPDEST DUP4 SSTORE POP JUMPDEST PUSH1 0x1 PUSH1 0x2 DUP9 MUL ADD DUP9 SSTORE POP POP POP JUMPDEST POP POP POP POP POP POP JUMP JUMPDEST PUSH1 0x0 PUSH1 0x80 DUP3 ADD SWAP1 POP PUSH2 0xE8A PUSH1 0x0 DUP4 ADD DUP8 PUSH2 0x53B JUMP JUMPDEST DUP2 DUP2 SUB PUSH1 0x20 DUP4 ADD MSTORE PUSH2 0xE9C DUP2 DUP7 PUSH2 0x629 JUMP JUMPDEST SWAP1 POP PUSH2 0xEAB PUSH1 0x40 DUP4 ADD DUP6 PUSH2 0x53B JUMP JUMPDEST PUSH2 0xEB8 PUSH1 0x60 DUP4 ADD DUP5 PUSH2 0xB36 JUMP JUMPDEST SWAP6 SWAP5 POP POP POP POP POP JUMP INVALID LOG2 PUSH5 0x6970667358 0x22 SLT KECCAK256 0x5E 0xB8 SWAP4 SWAP16 0x2C PUSH17 0x7317F315B9C68C0FC55F3C935D332AEEEB GASLIMIT SWAP16 0xB2 0xEA 0xD8 CALLDATALOAD 0xE4 SWAP11 0xD0 PUSH5 0x736F6C6343 STOP ADDMOD SLT STOP CALLER "
				},
				"gasEstimates": {
					"creation": {
						"codeDepositCost": "766200",
						"executionCost": "799",
						"totalCost": "766999"
					},
					"external": {
						"ProductCount()": "2407",
						"buyProduct(uint256)": "infinite",
						"createProduct(string,uint256)": "infinite",
						"products(uint256)": "infinite"
					}
				},
				"methodIdentifiers": {
					"ProductCount()": "4f67c624",
					"buyProduct(uint256)": "8642269e",
					"createProduct(string,uint256)": "e9300c6c",
					"products(uint256)": "7acc0b20"
				}
			},
			"storageLayout": {
				"storage": [
					{
						"astId": 14,
						"contract": "contracts/marketplace.sol:marketPlace",
						"label": "ProductCount",
						"offset": 0,
						"slot": "0",
						"type": "t_uint256"
					},
					{
						"astId": 19,
						"contract": "contracts/marketplace.sol:marketPlace",
						"label": "products",
						"offset": 0,
						"slot": "1",
						"type": "t_mapping(t_uint256,t_struct(Product)12_storage)"
					}
				],
				"types": {
					"t_address_payable": {
						"encoding": "inplace",
						"label": "address payable",
						"numberOfBytes": "20"
					},
					"t_bool": {
						"encoding": "inplace",
						"label": "bool",
						"numberOfBytes": "1"
					},
					"t_mapping(t_uint256,t_struct(Product)12_storage)": {
						"encoding": "mapping",
						"key": "t_uint256",
						"label": "mapping(uint256 => struct marketPlace.Product)",
						"numberOfBytes": "32",
						"value": "t_struct(Product)12_storage"
					},
					"t_string_storage": {
						"encoding": "bytes",
						"label": "string",
						"numberOfBytes": "32"
					},
					"t_struct(Product)12_storage": {
						"encoding": "inplace",
						"label": "struct marketPlace.Product",
						"members": [
							{
								"astId": 3,
								"contract": "contracts/marketplace.sol:marketPlace",
								"label": "id",
								"offset": 0,
								"slot": "0",
								"type": "t_uint256"
							},
							{
								"astId": 5,
								"contract": "contracts/marketplace.sol:marketPlace",
								"label": "name",
								"offset": 0,
								"slot": "1",
								"type": "t_string_storage"
							},
							{
								"astId": 7,
								"contract": "contracts/marketplace.sol:marketPlace",
								"label": "price",
								"offset": 0,
								"slot": "2",
								"type": "t_uint256"
							},
							{
								"astId": 9,
								"contract": "contracts/marketplace.sol:marketPlace",
								"label": "seller",
								"offset": 0,
								"slot": "3",
								"type": "t_address_payable"
							},
							{
								"astId": 11,
								"contract": "contracts/marketplace.sol:marketPlace",
								"label": "isSold",
								"offset": 20,
								"slot": "3",
								"type": "t_bool"
							}
						],
						"numberOfBytes": "128"
					},
					"t_uint256": {
						"encoding": "inplace",
						"label": "uint256",
						"numberOfBytes": "32"
					}
				}
			},
			"userdoc": {
				"kind": "user",
				"methods": {},
				"version": 1
			}
		}
	}
}