{
	"contracts/complex_vote.sol": {
		"Voting": {
			"abi": [
				{
					"inputs": [
						{
							"internalType": "uint256",
							"name": "",
							"type": "uint256"
						}
					],
					"name": "candidates",
					"outputs": [
						{
							"internalType": "string",
							"name": "",
							"type": "string"
						}
					],
					"stateMutability": "view",
					"type": "function"
				},
				{
					"inputs": [
						{
							"internalType": "address",
							"name": "",
							"type": "address"
						}
					],
					"name": "hasVoted",
					"outputs": [
						{
							"internalType": "bool",
							"name": "",
							"type": "bool"
						}
					],
					"stateMutability": "view",
					"type": "function"
				},
				{
					"inputs": [
						{
							"internalType": "string",
							"name": "candidate",
							"type": "string"
						}
					],
					"name": "registerCandidates",
					"outputs": [],
					"stateMutability": "nonpayable",
					"type": "function"
				},
				{
					"inputs": [
						{
							"internalType": "string",
							"name": "candidate",
							"type": "string"
						}
					],
					"name": "vote",
					"outputs": [],
					"stateMutability": "nonpayable",
					"type": "function"
				},
				{
					"inputs": [
						{
							"internalType": "string",
							"name": "",
							"type": "string"
						}
					],
					"name": "voteCount",
					"outputs": [
						{
							"internalType": "uint256",
							"name": "",
							"type": "uint256"
						}
					],
					"stateMutability": "view",
					"type": "function"
				}
			],
			"devdoc": {
				"kind": "dev",
				"methods": {},
				"version": 1
			},
			"evm": {
				"assembly": "    /* \"contracts/complex_vote.sol\":58:875  contract Voting {... */\n  mstore(0x40, 0x80)\n  callvalue\n  dup1\n  iszero\n  tag_1\n  jumpi\n  0x00\n  dup1\n  revert\ntag_1:\n  pop\n  dataSize(sub_0)\n  dup1\n  dataOffset(sub_0)\n  0x00\n  codecopy\n  0x00\n  return\nstop\n\nsub_0: assembly {\n        /* \"contracts/complex_vote.sol\":58:875  contract Voting {... */\n      mstore(0x40, 0x80)\n      callvalue\n      dup1\n      iszero\n      tag_1\n      jumpi\n      0x00\n      dup1\n      revert\n    tag_1:\n      pop\n      jumpi(tag_2, lt(calldatasize, 0x04))\n      shr(0xe0, calldataload(0x00))\n      dup1\n      0x09eef43e\n      eq\n      tag_3\n      jumpi\n      dup1\n      0x244167a9\n      eq\n      tag_4\n      jumpi\n      dup1\n      0x3477ee2e\n      eq\n      tag_5\n      jumpi\n      dup1\n      0xba7f7552\n      eq\n      tag_6\n      jumpi\n      dup1\n      0xfc36e15b\n      eq\n      tag_7\n      jumpi\n    tag_2:\n      0x00\n      dup1\n      revert\n        /* \"contracts/complex_vote.sol\":80:120  mapping(address => bool) public hasVoted */\n    tag_3:\n      tag_8\n      0x04\n      dup1\n      calldatasize\n      sub\n      dup2\n      add\n      swap1\n      tag_9\n      swap2\n      swap1\n      tag_10\n      jump\t// in\n    tag_9:\n      tag_11\n      jump\t// in\n    tag_8:\n      mload(0x40)\n      tag_12\n      swap2\n      swap1\n      tag_13\n      jump\t// in\n    tag_12:\n      mload(0x40)\n      dup1\n      swap2\n      sub\n      swap1\n      return\n        /* \"contracts/complex_vote.sol\":205:383  function registerCandidates(string memory candidate) public {... */\n    tag_4:\n      tag_14\n      0x04\n      dup1\n      calldatasize\n      sub\n      dup2\n      add\n      swap1\n      tag_15\n      swap2\n      swap1\n      tag_16\n      jump\t// in\n    tag_15:\n      tag_17\n      jump\t// in\n    tag_14:\n      stop\n        /* \"contracts/complex_vote.sol\":172:198  string[] public candidates */\n    tag_5:\n      tag_18\n      0x04\n      dup1\n      calldatasize\n      sub\n      dup2\n      add\n      swap1\n      tag_19\n      swap2\n      swap1\n      tag_20\n      jump\t// in\n    tag_19:\n      tag_21\n      jump\t// in\n    tag_18:\n      mload(0x40)\n      tag_22\n      swap2\n      swap1\n      tag_23\n      jump\t// in\n    tag_22:\n      mload(0x40)\n      dup1\n      swap2\n      sub\n      swap1\n      return\n        /* \"contracts/complex_vote.sol\":126:166  mapping(string => uint) public voteCount */\n    tag_6:\n      tag_24\n      0x04\n      dup1\n      calldatasize\n      sub\n      dup2\n      add\n      swap1\n      tag_25\n      swap2\n      swap1\n      tag_16\n      jump\t// in\n    tag_25:\n      tag_26\n      jump\t// in\n    tag_24:\n      mload(0x40)\n      tag_27\n      swap2\n      swap1\n      tag_28\n      jump\t// in\n    tag_27:\n      mload(0x40)\n      dup1\n      swap2\n      sub\n      swap1\n      return\n        /* \"contracts/complex_vote.sol\":390:569  function vote(string memory candidate) public {... */\n    tag_7:\n      tag_29\n      0x04\n      dup1\n      calldatasize\n      sub\n      dup2\n      add\n      swap1\n      tag_30\n      swap2\n      swap1\n      tag_16\n      jump\t// in\n    tag_30:\n      tag_31\n      jump\t// in\n    tag_29:\n      stop\n        /* \"contracts/complex_vote.sol\":80:120  mapping(address => bool) public hasVoted */\n    tag_11:\n      mstore(0x20, 0x00)\n      dup1\n      0x00\n      mstore\n      keccak256(0x00, 0x40)\n      0x00\n      swap2\n      pop\n      sload\n      swap1\n      0x0100\n      exp\n      swap1\n      div\n      0xff\n      and\n      dup2\n      jump\t// out\n        /* \"contracts/complex_vote.sol\":205:383  function registerCandidates(string memory candidate) public {... */\n    tag_17:\n        /* \"contracts/complex_vote.sol\":284:306  isCandidate(candidate) */\n      tag_33\n        /* \"contracts/complex_vote.sol\":296:305  candidate */\n      dup2\n        /* \"contracts/complex_vote.sol\":284:295  isCandidate */\n      tag_34\n        /* \"contracts/complex_vote.sol\":284:306  isCandidate(candidate) */\n      jump\t// in\n    tag_33:\n        /* \"contracts/complex_vote.sol\":283:306  !isCandidate(candidate) */\n      iszero\n        /* \"contracts/complex_vote.sol\":275:340  require(!isCandidate(candidate), \"Candidate already registered!\") */\n      tag_35\n      jumpi\n      mload(0x40)\n      0x08c379a000000000000000000000000000000000000000000000000000000000\n      dup2\n      mstore\n      0x04\n      add\n      tag_36\n      swap1\n      tag_37\n      jump\t// in\n    tag_36:\n      mload(0x40)\n      dup1\n      swap2\n      sub\n      swap1\n      revert\n    tag_35:\n        /* \"contracts/complex_vote.sol\":350:360  candidates */\n      0x02\n        /* \"contracts/complex_vote.sol\":366:375  candidate */\n      dup2\n        /* \"contracts/complex_vote.sol\":350:376  candidates.push(candidate) */\n      swap1\n      dup1\n      0x01\n      dup2\n      sload\n      add\n      dup1\n      dup3\n      sstore\n      dup1\n      swap2\n      pop\n      pop\n      0x01\n      swap1\n      sub\n      swap1\n      0x00\n      mstore\n      keccak256(0x00, 0x20)\n      add\n      0x00\n      swap1\n      swap2\n      swap1\n      swap2\n      swap1\n      swap2\n      pop\n      swap1\n      dup2\n      tag_39\n      swap2\n      swap1\n      tag_40\n      jump\t// in\n    tag_39:\n      pop\n        /* \"contracts/complex_vote.sol\":205:383  function registerCandidates(string memory candidate) public {... */\n      pop\n      jump\t// out\n        /* \"contracts/complex_vote.sol\":172:198  string[] public candidates */\n    tag_21:\n      0x02\n      dup2\n      dup2\n      sload\n      dup2\n      lt\n      tag_41\n      jumpi\n      0x00\n      dup1\n      revert\n    tag_41:\n      swap1\n      0x00\n      mstore\n      keccak256(0x00, 0x20)\n      add\n      0x00\n      swap2\n      pop\n      swap1\n      pop\n      dup1\n      sload\n      tag_43\n      swap1\n      tag_44\n      jump\t// in\n    tag_43:\n      dup1\n      0x1f\n      add\n      0x20\n      dup1\n      swap2\n      div\n      mul\n      0x20\n      add\n      mload(0x40)\n      swap1\n      dup2\n      add\n      0x40\n      mstore\n      dup1\n      swap3\n      swap2\n      swap1\n      dup2\n      dup2\n      mstore\n      0x20\n      add\n      dup3\n      dup1\n      sload\n      tag_45\n      swap1\n      tag_44\n      jump\t// in\n    tag_45:\n      dup1\n      iszero\n      tag_46\n      jumpi\n      dup1\n      0x1f\n      lt\n      tag_47\n      jumpi\n      0x0100\n      dup1\n      dup4\n      sload\n      div\n      mul\n      dup4\n      mstore\n      swap2\n      0x20\n      add\n      swap2\n      jump(tag_46)\n    tag_47:\n      dup3\n      add\n      swap2\n      swap1\n      0x00\n      mstore\n      keccak256(0x00, 0x20)\n      swap1\n    tag_48:\n      dup2\n      sload\n      dup2\n      mstore\n      swap1\n      0x01\n      add\n      swap1\n      0x20\n      add\n      dup1\n      dup4\n      gt\n      tag_48\n      jumpi\n      dup3\n      swap1\n      sub\n      0x1f\n      and\n      dup3\n      add\n      swap2\n    tag_46:\n      pop\n      pop\n      pop\n      pop\n      pop\n      dup2\n      jump\t// out\n        /* \"contracts/complex_vote.sol\":126:166  mapping(string => uint) public voteCount */\n    tag_26:\n      0x01\n      dup2\n      dup1\n      mload\n      0x20\n      dup2\n      add\n      dup3\n      add\n      dup1\n      mload\n      dup5\n      dup3\n      mstore\n      0x20\n      dup4\n      add\n      0x20\n      dup6\n      add\n      keccak256\n      dup2\n      dup4\n      mstore\n      dup1\n      swap6\n      pop\n      pop\n      pop\n      pop\n      pop\n      pop\n      0x00\n      swap2\n      pop\n      swap1\n      pop\n      sload\n      dup2\n      jump\t// out\n        /* \"contracts/complex_vote.sol\":390:569  function vote(string memory candidate) public {... */\n    tag_31:\n        /* \"contracts/complex_vote.sol\":455:463  hasVoted */\n      0x00\n        /* \"contracts/complex_vote.sol\":455:475  hasVoted[msg.sender] */\n      dup1\n        /* \"contracts/complex_vote.sol\":464:474  msg.sender */\n      caller\n        /* \"contracts/complex_vote.sol\":455:475  hasVoted[msg.sender] */\n      0xffffffffffffffffffffffffffffffffffffffff\n      and\n      0xffffffffffffffffffffffffffffffffffffffff\n      and\n      dup2\n      mstore\n      0x20\n      add\n      swap1\n      dup2\n      mstore\n      0x20\n      add\n      0x00\n      keccak256\n      0x00\n      swap1\n      sload\n      swap1\n      0x0100\n      exp\n      swap1\n      div\n      0xff\n      and\n        /* \"contracts/complex_vote.sol\":454:475  !hasVoted[msg.sender] */\n      iszero\n        /* \"contracts/complex_vote.sol\":446:493  require(!hasVoted[msg.sender], \"Already voted\") */\n      tag_50\n      jumpi\n      mload(0x40)\n      0x08c379a000000000000000000000000000000000000000000000000000000000\n      dup2\n      mstore\n      0x04\n      add\n      tag_51\n      swap1\n      tag_52\n      jump\t// in\n    tag_51:\n      mload(0x40)\n      dup1\n      swap2\n      sub\n      swap1\n      revert\n    tag_50:\n        /* \"contracts/complex_vote.sol\":503:512  voteCount */\n      0x01\n        /* \"contracts/complex_vote.sol\":513:522  candidate */\n      dup2\n        /* \"contracts/complex_vote.sol\":503:523  voteCount[candidate] */\n      mload(0x40)\n      tag_53\n      swap2\n      swap1\n      tag_54\n      jump\t// in\n    tag_53:\n      swap1\n      dup2\n      mstore\n      0x20\n      add\n      mload(0x40)\n      dup1\n      swap2\n      sub\n      swap1\n      keccak256\n      0x00\n        /* \"contracts/complex_vote.sol\":503:525  voteCount[candidate]++ */\n      dup2\n      sload\n      dup1\n      swap3\n      swap2\n      swap1\n      tag_55\n      swap1\n      tag_56\n      jump\t// in\n    tag_55:\n      swap2\n      swap1\n      pop\n      sstore\n      pop\n        /* \"contracts/complex_vote.sol\":558:562  true */\n      0x01\n        /* \"contracts/complex_vote.sol\":535:543  hasVoted */\n      0x00\n        /* \"contracts/complex_vote.sol\":535:555  hasVoted[msg.sender] */\n      dup1\n        /* \"contracts/complex_vote.sol\":544:554  msg.sender */\n      caller\n        /* \"contracts/complex_vote.sol\":535:555  hasVoted[msg.sender] */\n      0xffffffffffffffffffffffffffffffffffffffff\n      and\n      0xffffffffffffffffffffffffffffffffffffffff\n      and\n      dup2\n      mstore\n      0x20\n      add\n      swap1\n      dup2\n      mstore\n      0x20\n      add\n      0x00\n      keccak256\n      0x00\n        /* \"contracts/complex_vote.sol\":535:562  hasVoted[msg.sender] = true */\n      0x0100\n      exp\n      dup2\n      sload\n      dup2\n      0xff\n      mul\n      not\n      and\n      swap1\n      dup4\n      iszero\n      iszero\n      mul\n      or\n      swap1\n      sstore\n      pop\n        /* \"contracts/complex_vote.sol\":390:569  function vote(string memory candidate) public {... */\n      pop\n      jump\t// out\n        /* \"contracts/complex_vote.sol\":575:873  function isCandidate( string memory candidate) internal view returns (bool) {... */\n    tag_34:\n        /* \"contracts/complex_vote.sol\":645:649  bool */\n      0x00\n        /* \"contracts/complex_vote.sol\":666:675  uint256 i */\n      dup1\n        /* \"contracts/complex_vote.sol\":678:679  0 */\n      0x00\n        /* \"contracts/complex_vote.sol\":666:679  uint256 i = 0 */\n      swap1\n      pop\n        /* \"contracts/complex_vote.sol\":661:845  for (uint256 i = 0; i < candidates.length; i++) {... */\n    tag_58:\n        /* \"contracts/complex_vote.sol\":685:695  candidates */\n      0x02\n        /* \"contracts/complex_vote.sol\":685:702  candidates.length */\n      dup1\n      sload\n      swap1\n      pop\n        /* \"contracts/complex_vote.sol\":681:682  i */\n      dup2\n        /* \"contracts/complex_vote.sol\":681:702  i < candidates.length */\n      lt\n        /* \"contracts/complex_vote.sol\":661:845  for (uint256 i = 0; i < candidates.length; i++) {... */\n      iszero\n      tag_59\n      jumpi\n        /* \"contracts/complex_vote.sol\":778:787  candidate */\n      dup3\n        /* \"contracts/complex_vote.sol\":762:789  keccak256(bytes(candidate)) */\n      dup1\n      mload\n      swap1\n      0x20\n      add\n      keccak256\n        /* \"contracts/complex_vote.sol\":743:753  candidates */\n      0x02\n        /* \"contracts/complex_vote.sol\":754:755  i */\n      dup3\n        /* \"contracts/complex_vote.sol\":743:756  candidates[i] */\n      dup2\n      sload\n      dup2\n      lt\n      tag_61\n      jumpi\n      tag_62\n      tag_63\n      jump\t// in\n    tag_62:\n    tag_61:\n      swap1\n      0x00\n      mstore\n      keccak256(0x00, 0x20)\n      add\n        /* \"contracts/complex_vote.sol\":727:758  keccak256(bytes(candidates[i])) */\n      mload(0x40)\n      tag_65\n      swap2\n      swap1\n      tag_66\n      jump\t// in\n    tag_65:\n      mload(0x40)\n      dup1\n      swap2\n      sub\n      swap1\n      keccak256\n        /* \"contracts/complex_vote.sol\":727:789  keccak256(bytes(candidates[i])) == keccak256(bytes(candidate)) */\n      sub\n        /* \"contracts/complex_vote.sol\":723:835  if (keccak256(bytes(candidates[i])) == keccak256(bytes(candidate))) {... */\n      tag_67\n      jumpi\n        /* \"contracts/complex_vote.sol\":816:820  true */\n      0x01\n        /* \"contracts/complex_vote.sol\":809:820  return true */\n      swap2\n      pop\n      pop\n      jump(tag_57)\n        /* \"contracts/complex_vote.sol\":723:835  if (keccak256(bytes(candidates[i])) == keccak256(bytes(candidate))) {... */\n    tag_67:\n        /* \"contracts/complex_vote.sol\":704:707  i++ */\n      dup1\n      dup1\n      tag_68\n      swap1\n      tag_56\n      jump\t// in\n    tag_68:\n      swap2\n      pop\n      pop\n        /* \"contracts/complex_vote.sol\":661:845  for (uint256 i = 0; i < candidates.length; i++) {... */\n      jump(tag_58)\n    tag_59:\n      pop\n        /* \"contracts/complex_vote.sol\":861:866  false */\n      0x00\n        /* \"contracts/complex_vote.sol\":854:866  return false */\n      swap1\n      pop\n        /* \"contracts/complex_vote.sol\":575:873  function isCandidate( string memory candidate) internal view returns (bool) {... */\n    tag_57:\n      swap2\n      swap1\n      pop\n      jump\t// out\n        /* \"#utility.yul\":7:82   */\n    tag_69:\n        /* \"#utility.yul\":40:46   */\n      0x00\n        /* \"#utility.yul\":73:75   */\n      0x40\n        /* \"#utility.yul\":67:76   */\n      mload\n        /* \"#utility.yul\":57:76   */\n      swap1\n      pop\n        /* \"#utility.yul\":7:82   */\n      swap1\n      jump\t// out\n        /* \"#utility.yul\":88:205   */\n    tag_70:\n        /* \"#utility.yul\":197:198   */\n      0x00\n        /* \"#utility.yul\":194:195   */\n      dup1\n        /* \"#utility.yul\":187:199   */\n      revert\n        /* \"#utility.yul\":211:328   */\n    tag_71:\n        /* \"#utility.yul\":320:321   */\n      0x00\n        /* \"#utility.yul\":317:318   */\n      dup1\n        /* \"#utility.yul\":310:322   */\n      revert\n        /* \"#utility.yul\":334:460   */\n    tag_72:\n        /* \"#utility.yul\":371:378   */\n      0x00\n        /* \"#utility.yul\":411:453   */\n      0xffffffffffffffffffffffffffffffffffffffff\n        /* \"#utility.yul\":404:409   */\n      dup3\n        /* \"#utility.yul\":400:454   */\n      and\n        /* \"#utility.yul\":389:454   */\n      swap1\n      pop\n        /* \"#utility.yul\":334:460   */\n      swap2\n      swap1\n      pop\n      jump\t// out\n        /* \"#utility.yul\":466:562   */\n    tag_73:\n        /* \"#utility.yul\":503:510   */\n      0x00\n        /* \"#utility.yul\":532:556   */\n      tag_128\n        /* \"#utility.yul\":550:555   */\n      dup3\n        /* \"#utility.yul\":532:556   */\n      tag_72\n      jump\t// in\n    tag_128:\n        /* \"#utility.yul\":521:556   */\n      swap1\n      pop\n        /* \"#utility.yul\":466:562   */\n      swap2\n      swap1\n      pop\n      jump\t// out\n        /* \"#utility.yul\":568:690   */\n    tag_74:\n        /* \"#utility.yul\":641:665   */\n      tag_130\n        /* \"#utility.yul\":659:664   */\n      dup2\n        /* \"#utility.yul\":641:665   */\n      tag_73\n      jump\t// in\n    tag_130:\n        /* \"#utility.yul\":634:639   */\n      dup2\n        /* \"#utility.yul\":631:666   */\n      eq\n        /* \"#utility.yul\":621:684   */\n      tag_131\n      jumpi\n        /* \"#utility.yul\":680:681   */\n      0x00\n        /* \"#utility.yul\":677:678   */\n      dup1\n        /* \"#utility.yul\":670:682   */\n      revert\n        /* \"#utility.yul\":621:684   */\n    tag_131:\n        /* \"#utility.yul\":568:690   */\n      pop\n      jump\t// out\n        /* \"#utility.yul\":696:835   */\n    tag_75:\n        /* \"#utility.yul\":742:747   */\n      0x00\n        /* \"#utility.yul\":780:786   */\n      dup2\n        /* \"#utility.yul\":767:787   */\n      calldataload\n        /* \"#utility.yul\":758:787   */\n      swap1\n      pop\n        /* \"#utility.yul\":796:829   */\n      tag_133\n        /* \"#utility.yul\":823:828   */\n      dup2\n        /* \"#utility.yul\":796:829   */\n      tag_74\n      jump\t// in\n    tag_133:\n        /* \"#utility.yul\":696:835   */\n      swap3\n      swap2\n      pop\n      pop\n      jump\t// out\n        /* \"#utility.yul\":841:1170   */\n    tag_10:\n        /* \"#utility.yul\":900:906   */\n      0x00\n        /* \"#utility.yul\":949:951   */\n      0x20\n        /* \"#utility.yul\":937:946   */\n      dup3\n        /* \"#utility.yul\":928:935   */\n      dup5\n        /* \"#utility.yul\":924:947   */\n      sub\n        /* \"#utility.yul\":920:952   */\n      slt\n        /* \"#utility.yul\":917:1036   */\n      iszero\n      tag_135\n      jumpi\n        /* \"#utility.yul\":955:1034   */\n      tag_136\n      tag_70\n      jump\t// in\n    tag_136:\n        /* \"#utility.yul\":917:1036   */\n    tag_135:\n        /* \"#utility.yul\":1075:1076   */\n      0x00\n        /* \"#utility.yul\":1100:1153   */\n      tag_137\n        /* \"#utility.yul\":1145:1152   */\n      dup5\n        /* \"#utility.yul\":1136:1142   */\n      dup3\n        /* \"#utility.yul\":1125:1134   */\n      dup6\n        /* \"#utility.yul\":1121:1143   */\n      add\n        /* \"#utility.yul\":1100:1153   */\n      tag_75\n      jump\t// in\n    tag_137:\n        /* \"#utility.yul\":1090:1153   */\n      swap2\n      pop\n        /* \"#utility.yul\":1046:1163   */\n      pop\n        /* \"#utility.yul\":841:1170   */\n      swap3\n      swap2\n      pop\n      pop\n      jump\t// out\n        /* \"#utility.yul\":1176:1266   */\n    tag_76:\n        /* \"#utility.yul\":1210:1217   */\n      0x00\n        /* \"#utility.yul\":1253:1258   */\n      dup2\n        /* \"#utility.yul\":1246:1259   */\n      iszero\n        /* \"#utility.yul\":1239:1260   */\n      iszero\n        /* \"#utility.yul\":1228:1260   */\n      swap1\n      pop\n        /* \"#utility.yul\":1176:1266   */\n      swap2\n      swap1\n      pop\n      jump\t// out\n        /* \"#utility.yul\":1272:1381   */\n    tag_77:\n        /* \"#utility.yul\":1353:1374   */\n      tag_140\n        /* \"#utility.yul\":1368:1373   */\n      dup2\n        /* \"#utility.yul\":1353:1374   */\n      tag_76\n      jump\t// in\n    tag_140:\n        /* \"#utility.yul\":1348:1351   */\n      dup3\n        /* \"#utility.yul\":1341:1375   */\n      mstore\n        /* \"#utility.yul\":1272:1381   */\n      pop\n      pop\n      jump\t// out\n        /* \"#utility.yul\":1387:1597   */\n    tag_13:\n        /* \"#utility.yul\":1474:1478   */\n      0x00\n        /* \"#utility.yul\":1512:1514   */\n      0x20\n        /* \"#utility.yul\":1501:1510   */\n      dup3\n        /* \"#utility.yul\":1497:1515   */\n      add\n        /* \"#utility.yul\":1489:1515   */\n      swap1\n      pop\n        /* \"#utility.yul\":1525:1590   */\n      tag_142\n        /* \"#utility.yul\":1587:1588   */\n      0x00\n        /* \"#utility.yul\":1576:1585   */\n      dup4\n        /* \"#utility.yul\":1572:1589   */\n      add\n        /* \"#utility.yul\":1563:1569   */\n      dup5\n        /* \"#utility.yul\":1525:1590   */\n      tag_77\n      jump\t// in\n    tag_142:\n        /* \"#utility.yul\":1387:1597   */\n      swap3\n      swap2\n      pop\n      pop\n      jump\t// out\n        /* \"#utility.yul\":1603:1720   */\n    tag_78:\n        /* \"#utility.yul\":1712:1713   */\n      0x00\n        /* \"#utility.yul\":1709:1710   */\n      dup1\n        /* \"#utility.yul\":1702:1714   */\n      revert\n        /* \"#utility.yul\":1726:1843   */\n    tag_79:\n        /* \"#utility.yul\":1835:1836   */\n      0x00\n        /* \"#utility.yul\":1832:1833   */\n      dup1\n        /* \"#utility.yul\":1825:1837   */\n      revert\n        /* \"#utility.yul\":1849:1951   */\n    tag_80:\n        /* \"#utility.yul\":1890:1896   */\n      0x00\n        /* \"#utility.yul\":1941:1943   */\n      0x1f\n        /* \"#utility.yul\":1937:1944   */\n      not\n        /* \"#utility.yul\":1932:1934   */\n      0x1f\n        /* \"#utility.yul\":1925:1930   */\n      dup4\n        /* \"#utility.yul\":1921:1935   */\n      add\n        /* \"#utility.yul\":1917:1945   */\n      and\n        /* \"#utility.yul\":1907:1945   */\n      swap1\n      pop\n        /* \"#utility.yul\":1849:1951   */\n      swap2\n      swap1\n      pop\n      jump\t// out\n        /* \"#utility.yul\":1957:2137   */\n    tag_81:\n        /* \"#utility.yul\":2005:2082   */\n      0x4e487b7100000000000000000000000000000000000000000000000000000000\n        /* \"#utility.yul\":2002:2003   */\n      0x00\n        /* \"#utility.yul\":1995:2083   */\n      mstore\n        /* \"#utility.yul\":2102:2106   */\n      0x41\n        /* \"#utility.yul\":2099:2100   */\n      0x04\n        /* \"#utility.yul\":2092:2107   */\n      mstore\n        /* \"#utility.yul\":2126:2130   */\n      0x24\n        /* \"#utility.yul\":2123:2124   */\n      0x00\n        /* \"#utility.yul\":2116:2131   */\n      revert\n        /* \"#utility.yul\":2143:2424   */\n    tag_82:\n        /* \"#utility.yul\":2226:2253   */\n      tag_148\n        /* \"#utility.yul\":2248:2252   */\n      dup3\n        /* \"#utility.yul\":2226:2253   */\n      tag_80\n      jump\t// in\n    tag_148:\n        /* \"#utility.yul\":2218:2224   */\n      dup2\n        /* \"#utility.yul\":2214:2254   */\n      add\n        /* \"#utility.yul\":2356:2362   */\n      dup2\n        /* \"#utility.yul\":2344:2354   */\n      dup2\n        /* \"#utility.yul\":2341:2363   */\n      lt\n        /* \"#utility.yul\":2320:2338   */\n      0xffffffffffffffff\n        /* \"#utility.yul\":2308:2318   */\n      dup3\n        /* \"#utility.yul\":2305:2339   */\n      gt\n        /* \"#utility.yul\":2302:2364   */\n      or\n        /* \"#utility.yul\":2299:2387   */\n      iszero\n      tag_149\n      jumpi\n        /* \"#utility.yul\":2367:2385   */\n      tag_150\n      tag_81\n      jump\t// in\n    tag_150:\n        /* \"#utility.yul\":2299:2387   */\n    tag_149:\n        /* \"#utility.yul\":2407:2417   */\n      dup1\n        /* \"#utility.yul\":2403:2405   */\n      0x40\n        /* \"#utility.yul\":2396:2418   */\n      mstore\n        /* \"#utility.yul\":2186:2424   */\n      pop\n        /* \"#utility.yul\":2143:2424   */\n      pop\n      pop\n      jump\t// out\n        /* \"#utility.yul\":2430:2559   */\n    tag_83:\n        /* \"#utility.yul\":2464:2470   */\n      0x00\n        /* \"#utility.yul\":2491:2511   */\n      tag_152\n      tag_69\n      jump\t// in\n    tag_152:\n        /* \"#utility.yul\":2481:2511   */\n      swap1\n      pop\n        /* \"#utility.yul\":2520:2553   */\n      tag_153\n        /* \"#utility.yul\":2548:2552   */\n      dup3\n        /* \"#utility.yul\":2540:2546   */\n      dup3\n        /* \"#utility.yul\":2520:2553   */\n      tag_82\n      jump\t// in\n    tag_153:\n        /* \"#utility.yul\":2430:2559   */\n      swap2\n      swap1\n      pop\n      jump\t// out\n        /* \"#utility.yul\":2565:2873   */\n    tag_84:\n        /* \"#utility.yul\":2627:2631   */\n      0x00\n        /* \"#utility.yul\":2717:2735   */\n      0xffffffffffffffff\n        /* \"#utility.yul\":2709:2715   */\n      dup3\n        /* \"#utility.yul\":2706:2736   */\n      gt\n        /* \"#utility.yul\":2703:2759   */\n      iszero\n      tag_155\n      jumpi\n        /* \"#utility.yul\":2739:2757   */\n      tag_156\n      tag_81\n      jump\t// in\n    tag_156:\n        /* \"#utility.yul\":2703:2759   */\n    tag_155:\n        /* \"#utility.yul\":2777:2806   */\n      tag_157\n        /* \"#utility.yul\":2799:2805   */\n      dup3\n        /* \"#utility.yul\":2777:2806   */\n      tag_80\n      jump\t// in\n    tag_157:\n        /* \"#utility.yul\":2769:2806   */\n      swap1\n      pop\n        /* \"#utility.yul\":2861:2865   */\n      0x20\n        /* \"#utility.yul\":2855:2859   */\n      dup2\n        /* \"#utility.yul\":2851:2866   */\n      add\n        /* \"#utility.yul\":2843:2866   */\n      swap1\n      pop\n        /* \"#utility.yul\":2565:2873   */\n      swap2\n      swap1\n      pop\n      jump\t// out\n        /* \"#utility.yul\":2879:3025   */\n    tag_85:\n        /* \"#utility.yul\":2976:2982   */\n      dup3\n        /* \"#utility.yul\":2971:2974   */\n      dup2\n        /* \"#utility.yul\":2966:2969   */\n      dup4\n        /* \"#utility.yul\":2953:2983   */\n      calldatacopy\n        /* \"#utility.yul\":3017:3018   */\n      0x00\n        /* \"#utility.yul\":3008:3014   */\n      dup4\n        /* \"#utility.yul\":3003:3006   */\n      dup4\n        /* \"#utility.yul\":2999:3015   */\n      add\n        /* \"#utility.yul\":2992:3019   */\n      mstore\n        /* \"#utility.yul\":2879:3025   */\n      pop\n      pop\n      pop\n      jump\t// out\n        /* \"#utility.yul\":3031:3456   */\n    tag_86:\n        /* \"#utility.yul\":3109:3114   */\n      0x00\n        /* \"#utility.yul\":3134:3200   */\n      tag_160\n        /* \"#utility.yul\":3150:3199   */\n      tag_161\n        /* \"#utility.yul\":3192:3198   */\n      dup5\n        /* \"#utility.yul\":3150:3199   */\n      tag_84\n      jump\t// in\n    tag_161:\n        /* \"#utility.yul\":3134:3200   */\n      tag_83\n      jump\t// in\n    tag_160:\n        /* \"#utility.yul\":3125:3200   */\n      swap1\n      pop\n        /* \"#utility.yul\":3223:3229   */\n      dup3\n        /* \"#utility.yul\":3216:3221   */\n      dup2\n        /* \"#utility.yul\":3209:3230   */\n      mstore\n        /* \"#utility.yul\":3261:3265   */\n      0x20\n        /* \"#utility.yul\":3254:3259   */\n      dup2\n        /* \"#utility.yul\":3250:3266   */\n      add\n        /* \"#utility.yul\":3299:3302   */\n      dup5\n        /* \"#utility.yul\":3290:3296   */\n      dup5\n        /* \"#utility.yul\":3285:3288   */\n      dup5\n        /* \"#utility.yul\":3281:3297   */\n      add\n        /* \"#utility.yul\":3278:3303   */\n      gt\n        /* \"#utility.yul\":3275:3387   */\n      iszero\n      tag_162\n      jumpi\n        /* \"#utility.yul\":3306:3385   */\n      tag_163\n      tag_79\n      jump\t// in\n    tag_163:\n        /* \"#utility.yul\":3275:3387   */\n    tag_162:\n        /* \"#utility.yul\":3396:3450   */\n      tag_164\n        /* \"#utility.yul\":3443:3449   */\n      dup5\n        /* \"#utility.yul\":3438:3441   */\n      dup3\n        /* \"#utility.yul\":3433:3436   */\n      dup6\n        /* \"#utility.yul\":3396:3450   */\n      tag_85\n      jump\t// in\n    tag_164:\n        /* \"#utility.yul\":3115:3456   */\n      pop\n        /* \"#utility.yul\":3031:3456   */\n      swap4\n      swap3\n      pop\n      pop\n      pop\n      jump\t// out\n        /* \"#utility.yul\":3476:3816   */\n    tag_87:\n        /* \"#utility.yul\":3532:3537   */\n      0x00\n        /* \"#utility.yul\":3581:3584   */\n      dup3\n        /* \"#utility.yul\":3574:3578   */\n      0x1f\n        /* \"#utility.yul\":3566:3572   */\n      dup4\n        /* \"#utility.yul\":3562:3579   */\n      add\n        /* \"#utility.yul\":3558:3585   */\n      slt\n        /* \"#utility.yul\":3548:3670   */\n      tag_166\n      jumpi\n        /* \"#utility.yul\":3589:3668   */\n      tag_167\n      tag_78\n      jump\t// in\n    tag_167:\n        /* \"#utility.yul\":3548:3670   */\n    tag_166:\n        /* \"#utility.yul\":3706:3712   */\n      dup2\n        /* \"#utility.yul\":3693:3713   */\n      calldataload\n        /* \"#utility.yul\":3731:3810   */\n      tag_168\n        /* \"#utility.yul\":3806:3809   */\n      dup5\n        /* \"#utility.yul\":3798:3804   */\n      dup3\n        /* \"#utility.yul\":3791:3795   */\n      0x20\n        /* \"#utility.yul\":3783:3789   */\n      dup7\n        /* \"#utility.yul\":3779:3796   */\n      add\n        /* \"#utility.yul\":3731:3810   */\n      tag_86\n      jump\t// in\n    tag_168:\n        /* \"#utility.yul\":3722:3810   */\n      swap2\n      pop\n        /* \"#utility.yul\":3538:3816   */\n      pop\n        /* \"#utility.yul\":3476:3816   */\n      swap3\n      swap2\n      pop\n      pop\n      jump\t// out\n        /* \"#utility.yul\":3822:4331   */\n    tag_16:\n        /* \"#utility.yul\":3891:3897   */\n      0x00\n        /* \"#utility.yul\":3940:3942   */\n      0x20\n        /* \"#utility.yul\":3928:3937   */\n      dup3\n        /* \"#utility.yul\":3919:3926   */\n      dup5\n        /* \"#utility.yul\":3915:3938   */\n      sub\n        /* \"#utility.yul\":3911:3943   */\n      slt\n        /* \"#utility.yul\":3908:4027   */\n      iszero\n      tag_170\n      jumpi\n        /* \"#utility.yul\":3946:4025   */\n      tag_171\n      tag_70\n      jump\t// in\n    tag_171:\n        /* \"#utility.yul\":3908:4027   */\n    tag_170:\n        /* \"#utility.yul\":4094:4095   */\n      0x00\n        /* \"#utility.yul\":4083:4092   */\n      dup3\n        /* \"#utility.yul\":4079:4096   */\n      add\n        /* \"#utility.yul\":4066:4097   */\n      calldataload\n        /* \"#utility.yul\":4124:4142   */\n      0xffffffffffffffff\n        /* \"#utility.yul\":4116:4122   */\n      dup2\n        /* \"#utility.yul\":4113:4143   */\n      gt\n        /* \"#utility.yul\":4110:4227   */\n      iszero\n      tag_172\n      jumpi\n        /* \"#utility.yul\":4146:4225   */\n      tag_173\n      tag_71\n      jump\t// in\n    tag_173:\n        /* \"#utility.yul\":4110:4227   */\n    tag_172:\n        /* \"#utility.yul\":4251:4314   */\n      tag_174\n        /* \"#utility.yul\":4306:4313   */\n      dup5\n        /* \"#utility.yul\":4297:4303   */\n      dup3\n        /* \"#utility.yul\":4286:4295   */\n      dup6\n        /* \"#utility.yul\":4282:4304   */\n      add\n        /* \"#utility.yul\":4251:4314   */\n      tag_87\n      jump\t// in\n    tag_174:\n        /* \"#utility.yul\":4241:4314   */\n      swap2\n      pop\n        /* \"#utility.yul\":4037:4324   */\n      pop\n        /* \"#utility.yul\":3822:4331   */\n      swap3\n      swap2\n      pop\n      pop\n      jump\t// out\n        /* \"#utility.yul\":4337:4414   */\n    tag_88:\n        /* \"#utility.yul\":4374:4381   */\n      0x00\n        /* \"#utility.yul\":4403:4408   */\n      dup2\n        /* \"#utility.yul\":4392:4408   */\n      swap1\n      pop\n        /* \"#utility.yul\":4337:4414   */\n      swap2\n      swap1\n      pop\n      jump\t// out\n        /* \"#utility.yul\":4420:4542   */\n    tag_89:\n        /* \"#utility.yul\":4493:4517   */\n      tag_177\n        /* \"#utility.yul\":4511:4516   */\n      dup2\n        /* \"#utility.yul\":4493:4517   */\n      tag_88\n      jump\t// in\n    tag_177:\n        /* \"#utility.yul\":4486:4491   */\n      dup2\n        /* \"#utility.yul\":4483:4518   */\n      eq\n        /* \"#utility.yul\":4473:4536   */\n      tag_178\n      jumpi\n        /* \"#utility.yul\":4532:4533   */\n      0x00\n        /* \"#utility.yul\":4529:4530   */\n      dup1\n        /* \"#utility.yul\":4522:4534   */\n      revert\n        /* \"#utility.yul\":4473:4536   */\n    tag_178:\n        /* \"#utility.yul\":4420:4542   */\n      pop\n      jump\t// out\n        /* \"#utility.yul\":4548:4687   */\n    tag_90:\n        /* \"#utility.yul\":4594:4599   */\n      0x00\n        /* \"#utility.yul\":4632:4638   */\n      dup2\n        /* \"#utility.yul\":4619:4639   */\n      calldataload\n        /* \"#utility.yul\":4610:4639   */\n      swap1\n      pop\n        /* \"#utility.yul\":4648:4681   */\n      tag_180\n        /* \"#utility.yul\":4675:4680   */\n      dup2\n        /* \"#utility.yul\":4648:4681   */\n      tag_89\n      jump\t// in\n    tag_180:\n        /* \"#utility.yul\":4548:4687   */\n      swap3\n      swap2\n      pop\n      pop\n      jump\t// out\n        /* \"#utility.yul\":4693:5022   */\n    tag_20:\n        /* \"#utility.yul\":4752:4758   */\n      0x00\n        /* \"#utility.yul\":4801:4803   */\n      0x20\n        /* \"#utility.yul\":4789:4798   */\n      dup3\n        /* \"#utility.yul\":4780:4787   */\n      dup5\n        /* \"#utility.yul\":4776:4799   */\n      sub\n        /* \"#utility.yul\":4772:4804   */\n      slt\n        /* \"#utility.yul\":4769:4888   */\n      iszero\n      tag_182\n      jumpi\n        /* \"#utility.yul\":4807:4886   */\n      tag_183\n      tag_70\n      jump\t// in\n    tag_183:\n        /* \"#utility.yul\":4769:4888   */\n    tag_182:\n        /* \"#utility.yul\":4927:4928   */\n      0x00\n        /* \"#utility.yul\":4952:5005   */\n      tag_184\n        /* \"#utility.yul\":4997:5004   */\n      dup5\n        /* \"#utility.yul\":4988:4994   */\n      dup3\n        /* \"#utility.yul\":4977:4986   */\n      dup6\n        /* \"#utility.yul\":4973:4995   */\n      add\n        /* \"#utility.yul\":4952:5005   */\n      tag_90\n      jump\t// in\n    tag_184:\n        /* \"#utility.yul\":4942:5005   */\n      swap2\n      pop\n        /* \"#utility.yul\":4898:5015   */\n      pop\n        /* \"#utility.yul\":4693:5022   */\n      swap3\n      swap2\n      pop\n      pop\n      jump\t// out\n        /* \"#utility.yul\":5028:5127   */\n    tag_91:\n        /* \"#utility.yul\":5080:5086   */\n      0x00\n        /* \"#utility.yul\":5114:5119   */\n      dup2\n        /* \"#utility.yul\":5108:5120   */\n      mload\n        /* \"#utility.yul\":5098:5120   */\n      swap1\n      pop\n        /* \"#utility.yul\":5028:5127   */\n      swap2\n      swap1\n      pop\n      jump\t// out\n        /* \"#utility.yul\":5133:5302   */\n    tag_92:\n        /* \"#utility.yul\":5217:5228   */\n      0x00\n        /* \"#utility.yul\":5251:5257   */\n      dup3\n        /* \"#utility.yul\":5246:5249   */\n      dup3\n        /* \"#utility.yul\":5239:5258   */\n      mstore\n        /* \"#utility.yul\":5291:5295   */\n      0x20\n        /* \"#utility.yul\":5286:5289   */\n      dup3\n        /* \"#utility.yul\":5282:5296   */\n      add\n        /* \"#utility.yul\":5267:5296   */\n      swap1\n      pop\n        /* \"#utility.yul\":5133:5302   */\n      swap3\n      swap2\n      pop\n      pop\n      jump\t// out\n        /* \"#utility.yul\":5308:5554   */\n    tag_93:\n        /* \"#utility.yul\":5389:5390   */\n      0x00\n        /* \"#utility.yul\":5399:5512   */\n    tag_188:\n        /* \"#utility.yul\":5413:5419   */\n      dup4\n        /* \"#utility.yul\":5410:5411   */\n      dup2\n        /* \"#utility.yul\":5407:5420   */\n      lt\n        /* \"#utility.yul\":5399:5512   */\n      iszero\n      tag_190\n      jumpi\n        /* \"#utility.yul\":5498:5499   */\n      dup1\n        /* \"#utility.yul\":5493:5496   */\n      dup3\n        /* \"#utility.yul\":5489:5500   */\n      add\n        /* \"#utility.yul\":5483:5501   */\n      mload\n        /* \"#utility.yul\":5479:5480   */\n      dup2\n        /* \"#utility.yul\":5474:5477   */\n      dup5\n        /* \"#utility.yul\":5470:5481   */\n      add\n        /* \"#utility.yul\":5463:5502   */\n      mstore\n        /* \"#utility.yul\":5435:5437   */\n      0x20\n        /* \"#utility.yul\":5432:5433   */\n      dup2\n        /* \"#utility.yul\":5428:5438   */\n      add\n        /* \"#utility.yul\":5423:5438   */\n      swap1\n      pop\n        /* \"#utility.yul\":5399:5512   */\n      jump(tag_188)\n    tag_190:\n        /* \"#utility.yul\":5546:5547   */\n      0x00\n        /* \"#utility.yul\":5537:5543   */\n      dup5\n        /* \"#utility.yul\":5532:5535   */\n      dup5\n        /* \"#utility.yul\":5528:5544   */\n      add\n        /* \"#utility.yul\":5521:5548   */\n      mstore\n        /* \"#utility.yul\":5370:5554   */\n      pop\n        /* \"#utility.yul\":5308:5554   */\n      pop\n      pop\n      pop\n      jump\t// out\n        /* \"#utility.yul\":5560:5937   */\n    tag_94:\n        /* \"#utility.yul\":5648:5651   */\n      0x00\n        /* \"#utility.yul\":5676:5715   */\n      tag_192\n        /* \"#utility.yul\":5709:5714   */\n      dup3\n        /* \"#utility.yul\":5676:5715   */\n      tag_91\n      jump\t// in\n    tag_192:\n        /* \"#utility.yul\":5731:5802   */\n      tag_193\n        /* \"#utility.yul\":5795:5801   */\n      dup2\n        /* \"#utility.yul\":5790:5793   */\n      dup6\n        /* \"#utility.yul\":5731:5802   */\n      tag_92\n      jump\t// in\n    tag_193:\n        /* \"#utility.yul\":5724:5802   */\n      swap4\n      pop\n        /* \"#utility.yul\":5811:5876   */\n      tag_194\n        /* \"#utility.yul\":5869:5875   */\n      dup2\n        /* \"#utility.yul\":5864:5867   */\n      dup6\n        /* \"#utility.yul\":5857:5861   */\n      0x20\n        /* \"#utility.yul\":5850:5855   */\n      dup7\n        /* \"#utility.yul\":5846:5862   */\n      add\n        /* \"#utility.yul\":5811:5876   */\n      tag_93\n      jump\t// in\n    tag_194:\n        /* \"#utility.yul\":5901:5930   */\n      tag_195\n        /* \"#utility.yul\":5923:5929   */\n      dup2\n        /* \"#utility.yul\":5901:5930   */\n      tag_80\n      jump\t// in\n    tag_195:\n        /* \"#utility.yul\":5896:5899   */\n      dup5\n        /* \"#utility.yul\":5892:5931   */\n      add\n        /* \"#utility.yul\":5885:5931   */\n      swap2\n      pop\n        /* \"#utility.yul\":5652:5937   */\n      pop\n        /* \"#utility.yul\":5560:5937   */\n      swap3\n      swap2\n      pop\n      pop\n      jump\t// out\n        /* \"#utility.yul\":5943:6256   */\n    tag_23:\n        /* \"#utility.yul\":6056:6060   */\n      0x00\n        /* \"#utility.yul\":6094:6096   */\n      0x20\n        /* \"#utility.yul\":6083:6092   */\n      dup3\n        /* \"#utility.yul\":6079:6097   */\n      add\n        /* \"#utility.yul\":6071:6097   */\n      swap1\n      pop\n        /* \"#utility.yul\":6143:6152   */\n      dup2\n        /* \"#utility.yul\":6137:6141   */\n      dup2\n        /* \"#utility.yul\":6133:6153   */\n      sub\n        /* \"#utility.yul\":6129:6130   */\n      0x00\n        /* \"#utility.yul\":6118:6127   */\n      dup4\n        /* \"#utility.yul\":6114:6131   */\n      add\n        /* \"#utility.yul\":6107:6154   */\n      mstore\n        /* \"#utility.yul\":6171:6249   */\n      tag_197\n        /* \"#utility.yul\":6244:6248   */\n      dup2\n        /* \"#utility.yul\":6235:6241   */\n      dup5\n        /* \"#utility.yul\":6171:6249   */\n      tag_94\n      jump\t// in\n    tag_197:\n        /* \"#utility.yul\":6163:6249   */\n      swap1\n      pop\n        /* \"#utility.yul\":5943:6256   */\n      swap3\n      swap2\n      pop\n      pop\n      jump\t// out\n        /* \"#utility.yul\":6262:6380   */\n    tag_95:\n        /* \"#utility.yul\":6349:6373   */\n      tag_199\n        /* \"#utility.yul\":6367:6372   */\n      dup2\n        /* \"#utility.yul\":6349:6373   */\n      tag_88\n      jump\t// in\n    tag_199:\n        /* \"#utility.yul\":6344:6347   */\n      dup3\n        /* \"#utility.yul\":6337:6374   */\n      mstore\n        /* \"#utility.yul\":6262:6380   */\n      pop\n      pop\n      jump\t// out\n        /* \"#utility.yul\":6386:6608   */\n    tag_28:\n        /* \"#utility.yul\":6479:6483   */\n      0x00\n        /* \"#utility.yul\":6517:6519   */\n      0x20\n        /* \"#utility.yul\":6506:6515   */\n      dup3\n        /* \"#utility.yul\":6502:6520   */\n      add\n        /* \"#utility.yul\":6494:6520   */\n      swap1\n      pop\n        /* \"#utility.yul\":6530:6601   */\n      tag_201\n        /* \"#utility.yul\":6598:6599   */\n      0x00\n        /* \"#utility.yul\":6587:6596   */\n      dup4\n        /* \"#utility.yul\":6583:6600   */\n      add\n        /* \"#utility.yul\":6574:6580   */\n      dup5\n        /* \"#utility.yul\":6530:6601   */\n      tag_95\n      jump\t// in\n    tag_201:\n        /* \"#utility.yul\":6386:6608   */\n      swap3\n      swap2\n      pop\n      pop\n      jump\t// out\n        /* \"#utility.yul\":6614:6793   */\n    tag_96:\n        /* \"#utility.yul\":6754:6785   */\n      0x43616e64696461746520616c7265616479207265676973746572656421000000\n        /* \"#utility.yul\":6750:6751   */\n      0x00\n        /* \"#utility.yul\":6742:6748   */\n      dup3\n        /* \"#utility.yul\":6738:6752   */\n      add\n        /* \"#utility.yul\":6731:6786   */\n      mstore\n        /* \"#utility.yul\":6614:6793   */\n      pop\n      jump\t// out\n        /* \"#utility.yul\":6799:7165   */\n    tag_97:\n        /* \"#utility.yul\":6941:6944   */\n      0x00\n        /* \"#utility.yul\":6962:7029   */\n      tag_204\n        /* \"#utility.yul\":7026:7028   */\n      0x1d\n        /* \"#utility.yul\":7021:7024   */\n      dup4\n        /* \"#utility.yul\":6962:7029   */\n      tag_92\n      jump\t// in\n    tag_204:\n        /* \"#utility.yul\":6955:7029   */\n      swap2\n      pop\n        /* \"#utility.yul\":7038:7131   */\n      tag_205\n        /* \"#utility.yul\":7127:7130   */\n      dup3\n        /* \"#utility.yul\":7038:7131   */\n      tag_96\n      jump\t// in\n    tag_205:\n        /* \"#utility.yul\":7156:7158   */\n      0x20\n        /* \"#utility.yul\":7151:7154   */\n      dup3\n        /* \"#utility.yul\":7147:7159   */\n      add\n        /* \"#utility.yul\":7140:7159   */\n      swap1\n      pop\n        /* \"#utility.yul\":6799:7165   */\n      swap2\n      swap1\n      pop\n      jump\t// out\n        /* \"#utility.yul\":7171:7590   */\n    tag_37:\n        /* \"#utility.yul\":7337:7341   */\n      0x00\n        /* \"#utility.yul\":7375:7377   */\n      0x20\n        /* \"#utility.yul\":7364:7373   */\n      dup3\n        /* \"#utility.yul\":7360:7378   */\n      add\n        /* \"#utility.yul\":7352:7378   */\n      swap1\n      pop\n        /* \"#utility.yul\":7424:7433   */\n      dup2\n        /* \"#utility.yul\":7418:7422   */\n      dup2\n        /* \"#utility.yul\":7414:7434   */\n      sub\n        /* \"#utility.yul\":7410:7411   */\n      0x00\n        /* \"#utility.yul\":7399:7408   */\n      dup4\n        /* \"#utility.yul\":7395:7412   */\n      add\n        /* \"#utility.yul\":7388:7435   */\n      mstore\n        /* \"#utility.yul\":7452:7583   */\n      tag_207\n        /* \"#utility.yul\":7578:7582   */\n      dup2\n        /* \"#utility.yul\":7452:7583   */\n      tag_97\n      jump\t// in\n    tag_207:\n        /* \"#utility.yul\":7444:7583   */\n      swap1\n      pop\n        /* \"#utility.yul\":7171:7590   */\n      swap2\n      swap1\n      pop\n      jump\t// out\n        /* \"#utility.yul\":7596:7776   */\n    tag_98:\n        /* \"#utility.yul\":7644:7721   */\n      0x4e487b7100000000000000000000000000000000000000000000000000000000\n        /* \"#utility.yul\":7641:7642   */\n      0x00\n        /* \"#utility.yul\":7634:7722   */\n      mstore\n        /* \"#utility.yul\":7741:7745   */\n      0x22\n        /* \"#utility.yul\":7738:7739   */\n      0x04\n        /* \"#utility.yul\":7731:7746   */\n      mstore\n        /* \"#utility.yul\":7765:7769   */\n      0x24\n        /* \"#utility.yul\":7762:7763   */\n      0x00\n        /* \"#utility.yul\":7755:7770   */\n      revert\n        /* \"#utility.yul\":7782:8102   */\n    tag_44:\n        /* \"#utility.yul\":7826:7832   */\n      0x00\n        /* \"#utility.yul\":7863:7864   */\n      0x02\n        /* \"#utility.yul\":7857:7861   */\n      dup3\n        /* \"#utility.yul\":7853:7865   */\n      div\n        /* \"#utility.yul\":7843:7865   */\n      swap1\n      pop\n        /* \"#utility.yul\":7910:7911   */\n      0x01\n        /* \"#utility.yul\":7904:7908   */\n      dup3\n        /* \"#utility.yul\":7900:7912   */\n      and\n        /* \"#utility.yul\":7931:7949   */\n      dup1\n        /* \"#utility.yul\":7921:8002   */\n      tag_210\n      jumpi\n        /* \"#utility.yul\":7987:7991   */\n      0x7f\n        /* \"#utility.yul\":7979:7985   */\n      dup3\n        /* \"#utility.yul\":7975:7992   */\n      and\n        /* \"#utility.yul\":7965:7992   */\n      swap2\n      pop\n        /* \"#utility.yul\":7921:8002   */\n    tag_210:\n        /* \"#utility.yul\":8049:8051   */\n      0x20\n        /* \"#utility.yul\":8041:8047   */\n      dup3\n        /* \"#utility.yul\":8038:8052   */\n      lt\n        /* \"#utility.yul\":8018:8036   */\n      dup2\n        /* \"#utility.yul\":8015:8053   */\n      sub\n        /* \"#utility.yul\":8012:8096   */\n      tag_211\n      jumpi\n        /* \"#utility.yul\":8068:8086   */\n      tag_212\n      tag_98\n      jump\t// in\n    tag_212:\n        /* \"#utility.yul\":8012:8096   */\n    tag_211:\n        /* \"#utility.yul\":7833:8102   */\n      pop\n        /* \"#utility.yul\":7782:8102   */\n      swap2\n      swap1\n      pop\n      jump\t// out\n        /* \"#utility.yul\":8108:8249   */\n    tag_99:\n        /* \"#utility.yul\":8157:8161   */\n      0x00\n        /* \"#utility.yul\":8180:8183   */\n      dup2\n        /* \"#utility.yul\":8172:8183   */\n      swap1\n      pop\n        /* \"#utility.yul\":8203:8206   */\n      dup2\n        /* \"#utility.yul\":8200:8201   */\n      0x00\n        /* \"#utility.yul\":8193:8207   */\n      mstore\n        /* \"#utility.yul\":8237:8241   */\n      0x20\n        /* \"#utility.yul\":8234:8235   */\n      0x00\n        /* \"#utility.yul\":8224:8242   */\n      keccak256\n        /* \"#utility.yul\":8216:8242   */\n      swap1\n      pop\n        /* \"#utility.yul\":8108:8249   */\n      swap2\n      swap1\n      pop\n      jump\t// out\n        /* \"#utility.yul\":8255:8348   */\n    tag_100:\n        /* \"#utility.yul\":8292:8298   */\n      0x00\n        /* \"#utility.yul\":8339:8341   */\n      0x20\n        /* \"#utility.yul\":8334:8336   */\n      0x1f\n        /* \"#utility.yul\":8327:8332   */\n      dup4\n        /* \"#utility.yul\":8323:8337   */\n      add\n        /* \"#utility.yul\":8319:8342   */\n      div\n        /* \"#utility.yul\":8309:8342   */\n      swap1\n      pop\n        /* \"#utility.yul\":8255:8348   */\n      swap2\n      swap1\n      pop\n      jump\t// out\n        /* \"#utility.yul\":8354:8461   */\n    tag_101:\n        /* \"#utility.yul\":8398:8406   */\n      0x00\n        /* \"#utility.yul\":8448:8453   */\n      dup3\n        /* \"#utility.yul\":8442:8446   */\n      dup3\n        /* \"#utility.yul\":8438:8454   */\n      shl\n        /* \"#utility.yul\":8417:8454   */\n      swap1\n      pop\n        /* \"#utility.yul\":8354:8461   */\n      swap3\n      swap2\n      pop\n      pop\n      jump\t// out\n        /* \"#utility.yul\":8467:8860   */\n    tag_102:\n        /* \"#utility.yul\":8536:8542   */\n      0x00\n        /* \"#utility.yul\":8586:8587   */\n      0x08\n        /* \"#utility.yul\":8574:8584   */\n      dup4\n        /* \"#utility.yul\":8570:8588   */\n      mul\n        /* \"#utility.yul\":8609:8706   */\n      tag_217\n        /* \"#utility.yul\":8639:8705   */\n      0xffffffffffffffffffffffffffffffffffffffffffffffffffffffffffffffff\n        /* \"#utility.yul\":8628:8637   */\n      dup3\n        /* \"#utility.yul\":8609:8706   */\n      tag_101\n      jump\t// in\n    tag_217:\n        /* \"#utility.yul\":8727:8766   */\n      tag_218\n        /* \"#utility.yul\":8757:8765   */\n      dup7\n        /* \"#utility.yul\":8746:8755   */\n      dup4\n        /* \"#utility.yul\":8727:8766   */\n      tag_101\n      jump\t// in\n    tag_218:\n        /* \"#utility.yul\":8715:8766   */\n      swap6\n      pop\n        /* \"#utility.yul\":8799:8803   */\n      dup1\n        /* \"#utility.yul\":8795:8804   */\n      not\n        /* \"#utility.yul\":8788:8793   */\n      dup5\n        /* \"#utility.yul\":8784:8805   */\n      and\n        /* \"#utility.yul\":8775:8805   */\n      swap4\n      pop\n        /* \"#utility.yul\":8848:8852   */\n      dup1\n        /* \"#utility.yul\":8838:8846   */\n      dup7\n        /* \"#utility.yul\":8834:8853   */\n      and\n        /* \"#utility.yul\":8827:8832   */\n      dup5\n        /* \"#utility.yul\":8824:8854   */\n      or\n        /* \"#utility.yul\":8814:8854   */\n      swap3\n      pop\n        /* \"#utility.yul\":8543:8860   */\n      pop\n      pop\n        /* \"#utility.yul\":8467:8860   */\n      swap4\n      swap3\n      pop\n      pop\n      pop\n      jump\t// out\n        /* \"#utility.yul\":8866:8926   */\n    tag_103:\n        /* \"#utility.yul\":8894:8897   */\n      0x00\n        /* \"#utility.yul\":8915:8920   */\n      dup2\n        /* \"#utility.yul\":8908:8920   */\n      swap1\n      pop\n        /* \"#utility.yul\":8866:8926   */\n      swap2\n      swap1\n      pop\n      jump\t// out\n        /* \"#utility.yul\":8932:9074   */\n    tag_104:\n        /* \"#utility.yul\":8982:8991   */\n      0x00\n        /* \"#utility.yul\":9015:9068   */\n      tag_221\n        /* \"#utility.yul\":9033:9067   */\n      tag_222\n        /* \"#utility.yul\":9042:9066   */\n      tag_223\n        /* \"#utility.yul\":9060:9065   */\n      dup5\n        /* \"#utility.yul\":9042:9066   */\n      tag_88\n      jump\t// in\n    tag_223:\n        /* \"#utility.yul\":9033:9067   */\n      tag_103\n      jump\t// in\n    tag_222:\n        /* \"#utility.yul\":9015:9068   */\n      tag_88\n      jump\t// in\n    tag_221:\n        /* \"#utility.yul\":9002:9068   */\n      swap1\n      pop\n        /* \"#utility.yul\":8932:9074   */\n      swap2\n      swap1\n      pop\n      jump\t// out\n        /* \"#utility.yul\":9080:9155   */\n    tag_105:\n        /* \"#utility.yul\":9123:9126   */\n      0x00\n        /* \"#utility.yul\":9144:9149   */\n      dup2\n        /* \"#utility.yul\":9137:9149   */\n      swap1\n      pop\n        /* \"#utility.yul\":9080:9155   */\n      swap2\n      swap1\n      pop\n      jump\t// out\n        /* \"#utility.yul\":9161:9430   */\n    tag_106:\n        /* \"#utility.yul\":9271:9310   */\n      tag_226\n        /* \"#utility.yul\":9302:9309   */\n      dup4\n        /* \"#utility.yul\":9271:9310   */\n      tag_104\n      jump\t// in\n    tag_226:\n        /* \"#utility.yul\":9332:9423   */\n      tag_227\n        /* \"#utility.yul\":9381:9422   */\n      tag_228\n        /* \"#utility.yul\":9405:9421   */\n      dup3\n        /* \"#utility.yul\":9381:9422   */\n      tag_105\n      jump\t// in\n    tag_228:\n        /* \"#utility.yul\":9373:9379   */\n      dup5\n        /* \"#utility.yul\":9366:9370   */\n      dup5\n        /* \"#utility.yul\":9360:9371   */\n      sload\n        /* \"#utility.yul\":9332:9423   */\n      tag_102\n      jump\t// in\n    tag_227:\n        /* \"#utility.yul\":9326:9330   */\n      dup3\n        /* \"#utility.yul\":9319:9424   */\n      sstore\n        /* \"#utility.yul\":9237:9430   */\n      pop\n        /* \"#utility.yul\":9161:9430   */\n      pop\n      pop\n      pop\n      jump\t// out\n        /* \"#utility.yul\":9436:9509   */\n    tag_107:\n        /* \"#utility.yul\":9481:9484   */\n      0x00\n        /* \"#utility.yul\":9436:9509   */\n      swap1\n      jump\t// out\n        /* \"#utility.yul\":9515:9704   */\n    tag_108:\n        /* \"#utility.yul\":9592:9624   */\n      tag_231\n      tag_107\n      jump\t// in\n    tag_231:\n        /* \"#utility.yul\":9633:9698   */\n      tag_232\n        /* \"#utility.yul\":9691:9697   */\n      dup2\n        /* \"#utility.yul\":9683:9689   */\n      dup5\n        /* \"#utility.yul\":9677:9681   */\n      dup5\n        /* \"#utility.yul\":9633:9698   */\n      tag_106\n      jump\t// in\n    tag_232:\n        /* \"#utility.yul\":9568:9704   */\n      pop\n        /* \"#utility.yul\":9515:9704   */\n      pop\n      pop\n      jump\t// out\n        /* \"#utility.yul\":9710:9896   */\n    tag_109:\n        /* \"#utility.yul\":9770:9890   */\n    tag_234:\n        /* \"#utility.yul\":9787:9790   */\n      dup2\n        /* \"#utility.yul\":9780:9785   */\n      dup2\n        /* \"#utility.yul\":9777:9791   */\n      lt\n        /* \"#utility.yul\":9770:9890   */\n      iszero\n      tag_236\n      jumpi\n        /* \"#utility.yul\":9841:9880   */\n      tag_237\n        /* \"#utility.yul\":9878:9879   */\n      0x00\n        /* \"#utility.yul\":9871:9876   */\n      dup3\n        /* \"#utility.yul\":9841:9880   */\n      tag_108\n      jump\t// in\n    tag_237:\n        /* \"#utility.yul\":9814:9815   */\n      0x01\n        /* \"#utility.yul\":9807:9812   */\n      dup2\n        /* \"#utility.yul\":9803:9816   */\n      add\n        /* \"#utility.yul\":9794:9816   */\n      swap1\n      pop\n        /* \"#utility.yul\":9770:9890   */\n      jump(tag_234)\n    tag_236:\n        /* \"#utility.yul\":9710:9896   */\n      pop\n      pop\n      jump\t// out\n        /* \"#utility.yul\":9902:10445   */\n    tag_110:\n        /* \"#utility.yul\":10003:10005   */\n      0x1f\n        /* \"#utility.yul\":9998:10001   */\n      dup3\n        /* \"#utility.yul\":9995:10006   */\n      gt\n        /* \"#utility.yul\":9992:10438   */\n      iszero\n      tag_239\n      jumpi\n        /* \"#utility.yul\":10037:10075   */\n      tag_240\n        /* \"#utility.yul\":10069:10074   */\n      dup2\n        /* \"#utility.yul\":10037:10075   */\n      tag_99\n      jump\t// in\n    tag_240:\n        /* \"#utility.yul\":10121:10150   */\n      tag_241\n        /* \"#utility.yul\":10139:10149   */\n      dup5\n        /* \"#utility.yul\":10121:10150   */\n      tag_100\n      jump\t// in\n    tag_241:\n        /* \"#utility.yul\":10111:10119   */\n      dup2\n        /* \"#utility.yul\":10107:10151   */\n      add\n        /* \"#utility.yul\":10304:10306   */\n      0x20\n        /* \"#utility.yul\":10292:10302   */\n      dup6\n        /* \"#utility.yul\":10289:10307   */\n      lt\n        /* \"#utility.yul\":10286:10335   */\n      iszero\n      tag_242\n      jumpi\n        /* \"#utility.yul\":10325:10333   */\n      dup2\n        /* \"#utility.yul\":10310:10333   */\n      swap1\n      pop\n        /* \"#utility.yul\":10286:10335   */\n    tag_242:\n        /* \"#utility.yul\":10348:10428   */\n      tag_243\n        /* \"#utility.yul\":10404:10426   */\n      tag_244\n        /* \"#utility.yul\":10422:10425   */\n      dup6\n        /* \"#utility.yul\":10404:10426   */\n      tag_100\n      jump\t// in\n    tag_244:\n        /* \"#utility.yul\":10394:10402   */\n      dup4\n        /* \"#utility.yul\":10390:10427   */\n      add\n        /* \"#utility.yul\":10377:10388   */\n      dup3\n        /* \"#utility.yul\":10348:10428   */\n      tag_109\n      jump\t// in\n    tag_243:\n        /* \"#utility.yul\":10007:10438   */\n      pop\n      pop\n        /* \"#utility.yul\":9992:10438   */\n    tag_239:\n        /* \"#utility.yul\":9902:10445   */\n      pop\n      pop\n      pop\n      jump\t// out\n        /* \"#utility.yul\":10451:10568   */\n    tag_111:\n        /* \"#utility.yul\":10505:10513   */\n      0x00\n        /* \"#utility.yul\":10555:10560   */\n      dup3\n        /* \"#utility.yul\":10549:10553   */\n      dup3\n        /* \"#utility.yul\":10545:10561   */\n      shr\n        /* \"#utility.yul\":10524:10561   */\n      swap1\n      pop\n        /* \"#utility.yul\":10451:10568   */\n      swap3\n      swap2\n      pop\n      pop\n      jump\t// out\n        /* \"#utility.yul\":10574:10743   */\n    tag_112:\n        /* \"#utility.yul\":10618:10624   */\n      0x00\n        /* \"#utility.yul\":10651:10702   */\n      tag_247\n        /* \"#utility.yul\":10699:10700   */\n      0x00\n        /* \"#utility.yul\":10695:10701   */\n      not\n        /* \"#utility.yul\":10687:10692   */\n      dup5\n        /* \"#utility.yul\":10684:10685   */\n      0x08\n        /* \"#utility.yul\":10680:10693   */\n      mul\n        /* \"#utility.yul\":10651:10702   */\n      tag_111\n      jump\t// in\n    tag_247:\n        /* \"#utility.yul\":10647:10703   */\n      not\n        /* \"#utility.yul\":10732:10736   */\n      dup1\n        /* \"#utility.yul\":10726:10730   */\n      dup4\n        /* \"#utility.yul\":10722:10737   */\n      and\n        /* \"#utility.yul\":10712:10737   */\n      swap2\n      pop\n        /* \"#utility.yul\":10625:10743   */\n      pop\n        /* \"#utility.yul\":10574:10743   */\n      swap3\n      swap2\n      pop\n      pop\n      jump\t// out\n        /* \"#utility.yul\":10748:11043   */\n    tag_113:\n        /* \"#utility.yul\":10824:10828   */\n      0x00\n        /* \"#utility.yul\":10970:10999   */\n      tag_249\n        /* \"#utility.yul\":10995:10998   */\n      dup4\n        /* \"#utility.yul\":10989:10993   */\n      dup4\n        /* \"#utility.yul\":10970:10999   */\n      tag_112\n      jump\t// in\n    tag_249:\n        /* \"#utility.yul\":10962:10999   */\n      swap2\n      pop\n        /* \"#utility.yul\":11032:11035   */\n      dup3\n        /* \"#utility.yul\":11029:11030   */\n      0x02\n        /* \"#utility.yul\":11025:11036   */\n      mul\n        /* \"#utility.yul\":11019:11023   */\n      dup3\n        /* \"#utility.yul\":11016:11037   */\n      or\n        /* \"#utility.yul\":11008:11037   */\n      swap1\n      pop\n        /* \"#utility.yul\":10748:11043   */\n      swap3\n      swap2\n      pop\n      pop\n      jump\t// out\n        /* \"#utility.yul\":11048:12443   */\n    tag_40:\n        /* \"#utility.yul\":11165:11202   */\n      tag_251\n        /* \"#utility.yul\":11198:11201   */\n      dup3\n        /* \"#utility.yul\":11165:11202   */\n      tag_91\n      jump\t// in\n    tag_251:\n        /* \"#utility.yul\":11267:11285   */\n      0xffffffffffffffff\n        /* \"#utility.yul\":11259:11265   */\n      dup2\n        /* \"#utility.yul\":11256:11286   */\n      gt\n        /* \"#utility.yul\":11253:11309   */\n      iszero\n      tag_252\n      jumpi\n        /* \"#utility.yul\":11289:11307   */\n      tag_253\n      tag_81\n      jump\t// in\n    tag_253:\n        /* \"#utility.yul\":11253:11309   */\n    tag_252:\n        /* \"#utility.yul\":11333:11371   */\n      tag_254\n        /* \"#utility.yul\":11365:11369   */\n      dup3\n        /* \"#utility.yul\":11359:11370   */\n      sload\n        /* \"#utility.yul\":11333:11371   */\n      tag_44\n      jump\t// in\n    tag_254:\n        /* \"#utility.yul\":11418:11485   */\n      tag_255\n        /* \"#utility.yul\":11478:11484   */\n      dup3\n        /* \"#utility.yul\":11470:11476   */\n      dup3\n        /* \"#utility.yul\":11464:11468   */\n      dup6\n        /* \"#utility.yul\":11418:11485   */\n      tag_110\n      jump\t// in\n    tag_255:\n        /* \"#utility.yul\":11512:11513   */\n      0x00\n        /* \"#utility.yul\":11536:11540   */\n      0x20\n        /* \"#utility.yul\":11523:11540   */\n      swap1\n      pop\n        /* \"#utility.yul\":11568:11570   */\n      0x1f\n        /* \"#utility.yul\":11560:11566   */\n      dup4\n        /* \"#utility.yul\":11557:11571   */\n      gt\n        /* \"#utility.yul\":11585:11586   */\n      0x01\n        /* \"#utility.yul\":11580:12198   */\n      dup2\n      eq\n      tag_257\n      jumpi\n        /* \"#utility.yul\":12242:12243   */\n      0x00\n        /* \"#utility.yul\":12259:12265   */\n      dup5\n        /* \"#utility.yul\":12256:12333   */\n      iszero\n      tag_258\n      jumpi\n        /* \"#utility.yul\":12308:12317   */\n      dup3\n        /* \"#utility.yul\":12303:12306   */\n      dup8\n        /* \"#utility.yul\":12299:12318   */\n      add\n        /* \"#utility.yul\":12293:12319   */\n      mload\n        /* \"#utility.yul\":12284:12319   */\n      swap1\n      pop\n        /* \"#utility.yul\":12256:12333   */\n    tag_258:\n        /* \"#utility.yul\":12359:12426   */\n      tag_259\n        /* \"#utility.yul\":12419:12425   */\n      dup6\n        /* \"#utility.yul\":12412:12417   */\n      dup3\n        /* \"#utility.yul\":12359:12426   */\n      tag_113\n      jump\t// in\n    tag_259:\n        /* \"#utility.yul\":12353:12357   */\n      dup7\n        /* \"#utility.yul\":12346:12427   */\n      sstore\n        /* \"#utility.yul\":12215:12437   */\n      pop\n        /* \"#utility.yul\":11550:12437   */\n      jump(tag_256)\n        /* \"#utility.yul\":11580:12198   */\n    tag_257:\n        /* \"#utility.yul\":11632:11636   */\n      0x1f\n        /* \"#utility.yul\":11628:11637   */\n      not\n        /* \"#utility.yul\":11620:11626   */\n      dup5\n        /* \"#utility.yul\":11616:11638   */\n      and\n        /* \"#utility.yul\":11666:11703   */\n      tag_260\n        /* \"#utility.yul\":11698:11702   */\n      dup7\n        /* \"#utility.yul\":11666:11703   */\n      tag_99\n      jump\t// in\n    tag_260:\n        /* \"#utility.yul\":11725:11726   */\n      0x00\n        /* \"#utility.yul\":11739:11947   */\n    tag_261:\n        /* \"#utility.yul\":11753:11760   */\n      dup3\n        /* \"#utility.yul\":11750:11751   */\n      dup2\n        /* \"#utility.yul\":11747:11761   */\n      lt\n        /* \"#utility.yul\":11739:11947   */\n      iszero\n      tag_263\n      jumpi\n        /* \"#utility.yul\":11832:11841   */\n      dup5\n        /* \"#utility.yul\":11827:11830   */\n      dup10\n        /* \"#utility.yul\":11823:11842   */\n      add\n        /* \"#utility.yul\":11817:11843   */\n      mload\n        /* \"#utility.yul\":11809:11815   */\n      dup3\n        /* \"#utility.yul\":11802:11844   */\n      sstore\n        /* \"#utility.yul\":11883:11884   */\n      0x01\n        /* \"#utility.yul\":11875:11881   */\n      dup3\n        /* \"#utility.yul\":11871:11885   */\n      add\n        /* \"#utility.yul\":11861:11885   */\n      swap2\n      pop\n        /* \"#utility.yul\":11930:11932   */\n      0x20\n        /* \"#utility.yul\":11919:11928   */\n      dup6\n        /* \"#utility.yul\":11915:11933   */\n      add\n        /* \"#utility.yul\":11902:11933   */\n      swap5\n      pop\n        /* \"#utility.yul\":11776:11780   */\n      0x20\n        /* \"#utility.yul\":11773:11774   */\n      dup2\n        /* \"#utility.yul\":11769:11781   */\n      add\n        /* \"#utility.yul\":11764:11781   */\n      swap1\n      pop\n        /* \"#utility.yul\":11739:11947   */\n      jump(tag_261)\n    tag_263:\n        /* \"#utility.yul\":11975:11981   */\n      dup7\n        /* \"#utility.yul\":11966:11973   */\n      dup4\n        /* \"#utility.yul\":11963:11982   */\n      lt\n        /* \"#utility.yul\":11960:12139   */\n      iszero\n      tag_264\n      jumpi\n        /* \"#utility.yul\":12033:12042   */\n      dup5\n        /* \"#utility.yul\":12028:12031   */\n      dup10\n        /* \"#utility.yul\":12024:12043   */\n      add\n        /* \"#utility.yul\":12018:12044   */\n      mload\n        /* \"#utility.yul\":12076:12124   */\n      tag_265\n        /* \"#utility.yul\":12118:12122   */\n      0x1f\n        /* \"#utility.yul\":12110:12116   */\n      dup10\n        /* \"#utility.yul\":12106:12123   */\n      and\n        /* \"#utility.yul\":12095:12104   */\n      dup3\n        /* \"#utility.yul\":12076:12124   */\n      tag_112\n      jump\t// in\n    tag_265:\n        /* \"#utility.yul\":12068:12074   */\n      dup4\n        /* \"#utility.yul\":12061:12125   */\n      sstore\n        /* \"#utility.yul\":11983:12139   */\n      pop\n        /* \"#utility.yul\":11960:12139   */\n    tag_264:\n        /* \"#utility.yul\":12185:12186   */\n      0x01\n        /* \"#utility.yul\":12181:12182   */\n      0x02\n        /* \"#utility.yul\":12173:12179   */\n      dup9\n        /* \"#utility.yul\":12169:12183   */\n      mul\n        /* \"#utility.yul\":12165:12187   */\n      add\n        /* \"#utility.yul\":12159:12163   */\n      dup9\n        /* \"#utility.yul\":12152:12188   */\n      sstore\n        /* \"#utility.yul\":11587:12198   */\n      pop\n      pop\n      pop\n        /* \"#utility.yul\":11550:12437   */\n    tag_256:\n      pop\n        /* \"#utility.yul\":11140:12443   */\n      pop\n      pop\n      pop\n        /* \"#utility.yul\":11048:12443   */\n      pop\n      pop\n      jump\t// out\n        /* \"#utility.yul\":12449:12612   */\n    tag_114:\n        /* \"#utility.yul\":12589:12604   */\n      0x416c726561647920766f74656400000000000000000000000000000000000000\n        /* \"#utility.yul\":12585:12586   */\n      0x00\n        /* \"#utility.yul\":12577:12583   */\n      dup3\n        /* \"#utility.yul\":12573:12587   */\n      add\n        /* \"#utility.yul\":12566:12605   */\n      mstore\n        /* \"#utility.yul\":12449:12612   */\n      pop\n      jump\t// out\n        /* \"#utility.yul\":12618:12984   */\n    tag_115:\n        /* \"#utility.yul\":12760:12763   */\n      0x00\n        /* \"#utility.yul\":12781:12848   */\n      tag_268\n        /* \"#utility.yul\":12845:12847   */\n      0x0d\n        /* \"#utility.yul\":12840:12843   */\n      dup4\n        /* \"#utility.yul\":12781:12848   */\n      tag_92\n      jump\t// in\n    tag_268:\n        /* \"#utility.yul\":12774:12848   */\n      swap2\n      pop\n        /* \"#utility.yul\":12857:12950   */\n      tag_269\n        /* \"#utility.yul\":12946:12949   */\n      dup3\n        /* \"#utility.yul\":12857:12950   */\n      tag_114\n      jump\t// in\n    tag_269:\n        /* \"#utility.yul\":12975:12977   */\n      0x20\n        /* \"#utility.yul\":12970:12973   */\n      dup3\n        /* \"#utility.yul\":12966:12978   */\n      add\n        /* \"#utility.yul\":12959:12978   */\n      swap1\n      pop\n        /* \"#utility.yul\":12618:12984   */\n      swap2\n      swap1\n      pop\n      jump\t// out\n        /* \"#utility.yul\":12990:13409   */\n    tag_52:\n        /* \"#utility.yul\":13156:13160   */\n      0x00\n        /* \"#utility.yul\":13194:13196   */\n      0x20\n        /* \"#utility.yul\":13183:13192   */\n      dup3\n        /* \"#utility.yul\":13179:13197   */\n      add\n        /* \"#utility.yul\":13171:13197   */\n      swap1\n      pop\n        /* \"#utility.yul\":13243:13252   */\n      dup2\n        /* \"#utility.yul\":13237:13241   */\n      dup2\n        /* \"#utility.yul\":13233:13253   */\n      sub\n        /* \"#utility.yul\":13229:13230   */\n      0x00\n        /* \"#utility.yul\":13218:13227   */\n      dup4\n        /* \"#utility.yul\":13214:13231   */\n      add\n        /* \"#utility.yul\":13207:13254   */\n      mstore\n        /* \"#utility.yul\":13271:13402   */\n      tag_271\n        /* \"#utility.yul\":13397:13401   */\n      dup2\n        /* \"#utility.yul\":13271:13402   */\n      tag_115\n      jump\t// in\n    tag_271:\n        /* \"#utility.yul\":13263:13402   */\n      swap1\n      pop\n        /* \"#utility.yul\":12990:13409   */\n      swap2\n      swap1\n      pop\n      jump\t// out\n        /* \"#utility.yul\":13415:13563   */\n    tag_116:\n        /* \"#utility.yul\":13517:13528   */\n      0x00\n        /* \"#utility.yul\":13554:13557   */\n      dup2\n        /* \"#utility.yul\":13539:13557   */\n      swap1\n      pop\n        /* \"#utility.yul\":13415:13563   */\n      swap3\n      swap2\n      pop\n      pop\n      jump\t// out\n        /* \"#utility.yul\":13569:13959   */\n    tag_117:\n        /* \"#utility.yul\":13675:13678   */\n      0x00\n        /* \"#utility.yul\":13703:13742   */\n      tag_274\n        /* \"#utility.yul\":13736:13741   */\n      dup3\n        /* \"#utility.yul\":13703:13742   */\n      tag_91\n      jump\t// in\n    tag_274:\n        /* \"#utility.yul\":13758:13847   */\n      tag_275\n        /* \"#utility.yul\":13840:13846   */\n      dup2\n        /* \"#utility.yul\":13835:13838   */\n      dup6\n        /* \"#utility.yul\":13758:13847   */\n      tag_116\n      jump\t// in\n    tag_275:\n        /* \"#utility.yul\":13751:13847   */\n      swap4\n      pop\n        /* \"#utility.yul\":13856:13921   */\n      tag_276\n        /* \"#utility.yul\":13914:13920   */\n      dup2\n        /* \"#utility.yul\":13909:13912   */\n      dup6\n        /* \"#utility.yul\":13902:13906   */\n      0x20\n        /* \"#utility.yul\":13895:13900   */\n      dup7\n        /* \"#utility.yul\":13891:13907   */\n      add\n        /* \"#utility.yul\":13856:13921   */\n      tag_93\n      jump\t// in\n    tag_276:\n        /* \"#utility.yul\":13946:13952   */\n      dup1\n        /* \"#utility.yul\":13941:13944   */\n      dup5\n        /* \"#utility.yul\":13937:13953   */\n      add\n        /* \"#utility.yul\":13930:13953   */\n      swap2\n      pop\n        /* \"#utility.yul\":13679:13959   */\n      pop\n        /* \"#utility.yul\":13569:13959   */\n      swap3\n      swap2\n      pop\n      pop\n      jump\t// out\n        /* \"#utility.yul\":13965:14240   */\n    tag_54:\n        /* \"#utility.yul\":14097:14100   */\n      0x00\n        /* \"#utility.yul\":14119:14214   */\n      tag_278\n        /* \"#utility.yul\":14210:14213   */\n      dup3\n        /* \"#utility.yul\":14201:14207   */\n      dup5\n        /* \"#utility.yul\":14119:14214   */\n      tag_117\n      jump\t// in\n    tag_278:\n        /* \"#utility.yul\":14112:14214   */\n      swap2\n      pop\n        /* \"#utility.yul\":14231:14234   */\n      dup2\n        /* \"#utility.yul\":14224:14234   */\n      swap1\n      pop\n        /* \"#utility.yul\":13965:14240   */\n      swap3\n      swap2\n      pop\n      pop\n      jump\t// out\n        /* \"#utility.yul\":14246:14426   */\n    tag_118:\n        /* \"#utility.yul\":14294:14371   */\n      0x4e487b7100000000000000000000000000000000000000000000000000000000\n        /* \"#utility.yul\":14291:14292   */\n      0x00\n        /* \"#utility.yul\":14284:14372   */\n      mstore\n        /* \"#utility.yul\":14391:14395   */\n      0x11\n        /* \"#utility.yul\":14388:14389   */\n      0x04\n        /* \"#utility.yul\":14381:14396   */\n      mstore\n        /* \"#utility.yul\":14415:14419   */\n      0x24\n        /* \"#utility.yul\":14412:14413   */\n      0x00\n        /* \"#utility.yul\":14405:14420   */\n      revert\n        /* \"#utility.yul\":14432:14665   */\n    tag_56:\n        /* \"#utility.yul\":14471:14474   */\n      0x00\n        /* \"#utility.yul\":14494:14518   */\n      tag_281\n        /* \"#utility.yul\":14512:14517   */\n      dup3\n        /* \"#utility.yul\":14494:14518   */\n      tag_88\n      jump\t// in\n    tag_281:\n        /* \"#utility.yul\":14485:14518   */\n      swap2\n      pop\n        /* \"#utility.yul\":14540:14606   */\n      0xffffffffffffffffffffffffffffffffffffffffffffffffffffffffffffffff\n        /* \"#utility.yul\":14533:14538   */\n      dup3\n        /* \"#utility.yul\":14530:14607   */\n      sub\n        /* \"#utility.yul\":14527:14630   */\n      tag_282\n      jumpi\n        /* \"#utility.yul\":14610:14628   */\n      tag_283\n      tag_118\n      jump\t// in\n    tag_283:\n        /* \"#utility.yul\":14527:14630   */\n    tag_282:\n        /* \"#utility.yul\":14657:14658   */\n      0x01\n        /* \"#utility.yul\":14650:14655   */\n      dup3\n        /* \"#utility.yul\":14646:14659   */\n      add\n        /* \"#utility.yul\":14639:14659   */\n      swap1\n      pop\n        /* \"#utility.yul\":14432:14665   */\n      swap2\n      swap1\n      pop\n      jump\t// out\n        /* \"#utility.yul\":14671:14851   */\n    tag_63:\n        /* \"#utility.yul\":14719:14796   */\n      0x4e487b7100000000000000000000000000000000000000000000000000000000\n        /* \"#utility.yul\":14716:14717   */\n      0x00\n        /* \"#utility.yul\":14709:14797   */\n      mstore\n        /* \"#utility.yul\":14816:14820   */\n      0x32\n        /* \"#utility.yul\":14813:14814   */\n      0x04\n        /* \"#utility.yul\":14806:14821   */\n      mstore\n        /* \"#utility.yul\":14840:14844   */\n      0x24\n        /* \"#utility.yul\":14837:14838   */\n      0x00\n        /* \"#utility.yul\":14830:14845   */\n      revert\n        /* \"#utility.yul\":14857:15004   */\n    tag_119:\n        /* \"#utility.yul\":14958:14969   */\n      0x00\n        /* \"#utility.yul\":14995:14998   */\n      dup2\n        /* \"#utility.yul\":14980:14998   */\n      swap1\n      pop\n        /* \"#utility.yul\":14857:15004   */\n      swap3\n      swap2\n      pop\n      pop\n      jump\t// out\n        /* \"#utility.yul\":15010:15154   */\n    tag_120:\n        /* \"#utility.yul\":15062:15066   */\n      0x00\n        /* \"#utility.yul\":15085:15088   */\n      dup2\n        /* \"#utility.yul\":15077:15088   */\n      swap1\n      pop\n        /* \"#utility.yul\":15108:15111   */\n      dup2\n        /* \"#utility.yul\":15105:15106   */\n      0x00\n        /* \"#utility.yul\":15098:15112   */\n      mstore\n        /* \"#utility.yul\":15142:15146   */\n      0x20\n        /* \"#utility.yul\":15139:15140   */\n      0x00\n        /* \"#utility.yul\":15129:15147   */\n      keccak256\n        /* \"#utility.yul\":15121:15147   */\n      swap1\n      pop\n        /* \"#utility.yul\":15010:15154   */\n      swap2\n      swap1\n      pop\n      jump\t// out\n        /* \"#utility.yul\":15182:16060   */\n    tag_121:\n        /* \"#utility.yul\":15287:15290   */\n      0x00\n        /* \"#utility.yul\":15324:15329   */\n      dup2\n        /* \"#utility.yul\":15318:15330   */\n      sload\n        /* \"#utility.yul\":15353:15389   */\n      tag_288\n        /* \"#utility.yul\":15379:15388   */\n      dup2\n        /* \"#utility.yul\":15353:15389   */\n      tag_44\n      jump\t// in\n    tag_288:\n        /* \"#utility.yul\":15405:15493   */\n      tag_289\n        /* \"#utility.yul\":15486:15492   */\n      dup2\n        /* \"#utility.yul\":15481:15484   */\n      dup7\n        /* \"#utility.yul\":15405:15493   */\n      tag_119\n      jump\t// in\n    tag_289:\n        /* \"#utility.yul\":15398:15493   */\n      swap5\n      pop\n        /* \"#utility.yul\":15524:15525   */\n      0x01\n        /* \"#utility.yul\":15513:15522   */\n      dup3\n        /* \"#utility.yul\":15509:15526   */\n      and\n        /* \"#utility.yul\":15540:15541   */\n      0x00\n        /* \"#utility.yul\":15535:15701   */\n      dup2\n      eq\n      tag_291\n      jumpi\n        /* \"#utility.yul\":15715:15716   */\n      0x01\n        /* \"#utility.yul\":15710:16054   */\n      dup2\n      eq\n      tag_292\n      jumpi\n        /* \"#utility.yul\":15502:16054   */\n      jump(tag_290)\n        /* \"#utility.yul\":15535:15701   */\n    tag_291:\n        /* \"#utility.yul\":15619:15623   */\n      0xff\n        /* \"#utility.yul\":15615:15624   */\n      not\n        /* \"#utility.yul\":15604:15613   */\n      dup4\n        /* \"#utility.yul\":15600:15625   */\n      and\n        /* \"#utility.yul\":15595:15598   */\n      dup7\n        /* \"#utility.yul\":15588:15626   */\n      mstore\n        /* \"#utility.yul\":15681:15687   */\n      dup2\n        /* \"#utility.yul\":15674:15688   */\n      iszero\n        /* \"#utility.yul\":15667:15689   */\n      iszero\n        /* \"#utility.yul\":15659:15665   */\n      dup3\n        /* \"#utility.yul\":15655:15690   */\n      mul\n        /* \"#utility.yul\":15650:15653   */\n      dup7\n        /* \"#utility.yul\":15646:15691   */\n      add\n        /* \"#utility.yul\":15639:15691   */\n      swap4\n      pop\n        /* \"#utility.yul\":15535:15701   */\n      jump(tag_290)\n        /* \"#utility.yul\":15710:16054   */\n    tag_292:\n        /* \"#utility.yul\":15777:15818   */\n      tag_293\n        /* \"#utility.yul\":15812:15817   */\n      dup6\n        /* \"#utility.yul\":15777:15818   */\n      tag_120\n      jump\t// in\n    tag_293:\n        /* \"#utility.yul\":15840:15841   */\n      0x00\n        /* \"#utility.yul\":15854:16008   */\n    tag_294:\n        /* \"#utility.yul\":15868:15874   */\n      dup4\n        /* \"#utility.yul\":15865:15866   */\n      dup2\n        /* \"#utility.yul\":15862:15875   */\n      lt\n        /* \"#utility.yul\":15854:16008   */\n      iszero\n      tag_296\n      jumpi\n        /* \"#utility.yul\":15942:15949   */\n      dup2\n        /* \"#utility.yul\":15936:15950   */\n      sload\n        /* \"#utility.yul\":15932:15933   */\n      dup2\n        /* \"#utility.yul\":15927:15930   */\n      dup10\n        /* \"#utility.yul\":15923:15934   */\n      add\n        /* \"#utility.yul\":15916:15951   */\n      mstore\n        /* \"#utility.yul\":15992:15993   */\n      0x01\n        /* \"#utility.yul\":15983:15990   */\n      dup3\n        /* \"#utility.yul\":15979:15994   */\n      add\n        /* \"#utility.yul\":15968:15994   */\n      swap2\n      pop\n        /* \"#utility.yul\":15890:15894   */\n      0x20\n        /* \"#utility.yul\":15887:15888   */\n      dup2\n        /* \"#utility.yul\":15883:15895   */\n      add\n        /* \"#utility.yul\":15878:15895   */\n      swap1\n      pop\n        /* \"#utility.yul\":15854:16008   */\n      jump(tag_294)\n    tag_296:\n        /* \"#utility.yul\":16037:16043   */\n      dup4\n        /* \"#utility.yul\":16032:16035   */\n      dup9\n        /* \"#utility.yul\":16028:16044   */\n      add\n        /* \"#utility.yul\":16021:16044   */\n      swap6\n      pop\n        /* \"#utility.yul\":15717:16054   */\n      pop\n      pop\n        /* \"#utility.yul\":15502:16054   */\n    tag_290:\n      pop\n        /* \"#utility.yul\":15291:16060   */\n      pop\n      pop\n        /* \"#utility.yul\":15182:16060   */\n      swap3\n      swap2\n      pop\n      pop\n      jump\t// out\n        /* \"#utility.yul\":16066:16339   */\n    tag_66:\n        /* \"#utility.yul\":16197:16200   */\n      0x00\n        /* \"#utility.yul\":16219:16313   */\n      tag_298\n        /* \"#utility.yul\":16309:16312   */\n      dup3\n        /* \"#utility.yul\":16300:16306   */\n      dup5\n        /* \"#utility.yul\":16219:16313   */\n      tag_121\n      jump\t// in\n    tag_298:\n        /* \"#utility.yul\":16212:16313   */\n      swap2\n      pop\n        /* \"#utility.yul\":16330:16333   */\n      dup2\n        /* \"#utility.yul\":16323:16333   */\n      swap1\n      pop\n        /* \"#utility.yul\":16066:16339   */\n      swap3\n      swap2\n      pop\n      pop\n      jump\t// out\n\n    auxdata: 0xa26469706673582212201356c13e530e1a3bff2e20c3eb8148d421d0228c2d9977f4831d6ac7bc27d42e64736f6c63430008120033\n}\n",
				"bytecode": {
					"linkReferences": {},
					"object": "608060405234801561001057600080fd5b50610d67806100206000396000f3fe608060405234801561001057600080fd5b50600436106100575760003560e01c806309eef43e1461005c578063244167a91461008c5780633477ee2e146100a8578063ba7f7552146100d8578063fc36e15b14610108575b600080fd5b610076600480360381019061007191906104a8565b610124565b60405161008391906104f0565b60405180910390f35b6100a660048036038101906100a19190610651565b610144565b005b6100c260048036038101906100bd91906106d0565b6101c5565b6040516100cf919061077c565b60405180910390f35b6100f260048036038101906100ed9190610651565b610271565b6040516100ff91906107ad565b60405180910390f35b610122600480360381019061011d9190610651565b61029f565b005b60006020528060005260406000206000915054906101000a900460ff1681565b61014d816103b9565b1561018d576040517f08c379a000000000000000000000000000000000000000000000000000000000815260040161018490610814565b60405180910390fd5b6002819080600181540180825580915050600190039060005260206000200160009091909190915090816101c19190610a40565b5050565b600281815481106101d557600080fd5b9060005260206000200160009150905080546101f090610863565b80601f016020809104026020016040519081016040528092919081815260200182805461021c90610863565b80156102695780601f1061023e57610100808354040283529160200191610269565b820191906000526020600020905b81548152906001019060200180831161024c57829003601f168201915b505050505081565b6001818051602081018201805184825260208301602085012081835280955050505050506000915090505481565b6000803373ffffffffffffffffffffffffffffffffffffffff1673ffffffffffffffffffffffffffffffffffffffff16815260200190815260200160002060009054906101000a900460ff161561032b576040517f08c379a000000000000000000000000000000000000000000000000000000000815260040161032290610b5e565b60405180910390fd5b60018160405161033b9190610bba565b9081526020016040518091039020600081548092919061035a90610c00565b919050555060016000803373ffffffffffffffffffffffffffffffffffffffff1673ffffffffffffffffffffffffffffffffffffffff16815260200190815260200160002060006101000a81548160ff02191690831515021790555050565b600080600090505b60028054905081101561042b578280519060200120600282815481106103ea576103e9610c48565b5b906000526020600020016040516104019190610d1a565b604051809103902003610418576001915050610431565b808061042390610c00565b9150506103c1565b50600090505b919050565b6000604051905090565b600080fd5b600080fd5b600073ffffffffffffffffffffffffffffffffffffffff82169050919050565b60006104758261044a565b9050919050565b6104858161046a565b811461049057600080fd5b50565b6000813590506104a28161047c565b92915050565b6000602082840312156104be576104bd610440565b5b60006104cc84828501610493565b91505092915050565b60008115159050919050565b6104ea816104d5565b82525050565b600060208201905061050560008301846104e1565b92915050565b600080fd5b600080fd5b6000601f19601f8301169050919050565b7f4e487b7100000000000000000000000000000000000000000000000000000000600052604160045260246000fd5b61055e82610515565b810181811067ffffffffffffffff8211171561057d5761057c610526565b5b80604052505050565b6000610590610436565b905061059c8282610555565b919050565b600067ffffffffffffffff8211156105bc576105bb610526565b5b6105c582610515565b9050602081019050919050565b82818337600083830152505050565b60006105f46105ef846105a1565b610586565b9050828152602081018484840111156106105761060f610510565b5b61061b8482856105d2565b509392505050565b600082601f8301126106385761063761050b565b5b81356106488482602086016105e1565b91505092915050565b60006020828403121561066757610666610440565b5b600082013567ffffffffffffffff81111561068557610684610445565b5b61069184828501610623565b91505092915050565b6000819050919050565b6106ad8161069a565b81146106b857600080fd5b50565b6000813590506106ca816106a4565b92915050565b6000602082840312156106e6576106e5610440565b5b60006106f4848285016106bb565b91505092915050565b600081519050919050565b600082825260208201905092915050565b60005b8381101561073757808201518184015260208101905061071c565b60008484015250505050565b600061074e826106fd565b6107588185610708565b9350610768818560208601610719565b61077181610515565b840191505092915050565b600060208201905081810360008301526107968184610743565b905092915050565b6107a78161069a565b82525050565b60006020820190506107c2600083018461079e565b92915050565b7f43616e64696461746520616c7265616479207265676973746572656421000000600082015250565b60006107fe601d83610708565b9150610809826107c8565b602082019050919050565b6000602082019050818103600083015261082d816107f1565b9050919050565b7f4e487b7100000000000000000000000000000000000000000000000000000000600052602260045260246000fd5b6000600282049050600182168061087b57607f821691505b60208210810361088e5761088d610834565b5b50919050565b60008190508160005260206000209050919050565b60006020601f8301049050919050565b600082821b905092915050565b6000600883026108f67fffffffffffffffffffffffffffffffffffffffffffffffffffffffffffffffff826108b9565b61090086836108b9565b95508019841693508086168417925050509392505050565b6000819050919050565b600061093d6109386109338461069a565b610918565b61069a565b9050919050565b6000819050919050565b61095783610922565b61096b61096382610944565b8484546108c6565b825550505050565b600090565b610980610973565b61098b81848461094e565b505050565b5b818110156109af576109a4600082610978565b600181019050610991565b5050565b601f8211156109f4576109c581610894565b6109ce846108a9565b810160208510156109dd578190505b6109f16109e9856108a9565b830182610990565b50505b505050565b600082821c905092915050565b6000610a17600019846008026109f9565b1980831691505092915050565b6000610a308383610a06565b9150826002028217905092915050565b610a49826106fd565b67ffffffffffffffff811115610a6257610a61610526565b5b610a6c8254610863565b610a778282856109b3565b600060209050601f831160018114610aaa5760008415610a98578287015190505b610aa28582610a24565b865550610b0a565b601f198416610ab886610894565b60005b82811015610ae057848901518255600182019150602085019450602081019050610abb565b86831015610afd5784890151610af9601f891682610a06565b8355505b6001600288020188555050505b505050505050565b7f416c726561647920766f74656400000000000000000000000000000000000000600082015250565b6000610b48600d83610708565b9150610b5382610b12565b602082019050919050565b60006020820190508181036000830152610b7781610b3b565b9050919050565b600081905092915050565b6000610b94826106fd565b610b9e8185610b7e565b9350610bae818560208601610719565b80840191505092915050565b6000610bc68284610b89565b915081905092915050565b7f4e487b7100000000000000000000000000000000000000000000000000000000600052601160045260246000fd5b6000610c0b8261069a565b91507fffffffffffffffffffffffffffffffffffffffffffffffffffffffffffffffff8203610c3d57610c3c610bd1565b5b600182019050919050565b7f4e487b7100000000000000000000000000000000000000000000000000000000600052603260045260246000fd5b600081905092915050565b60008190508160005260206000209050919050565b60008154610ca481610863565b610cae8186610c77565b94506001821660008114610cc95760018114610cde57610d11565b60ff1983168652811515820286019350610d11565b610ce785610c82565b60005b83811015610d0957815481890152600182019150602081019050610cea565b838801955050505b50505092915050565b6000610d268284610c97565b91508190509291505056fea26469706673582212201356c13e530e1a3bff2e20c3eb8148d421d0228c2d9977f4831d6ac7bc27d42e64736f6c63430008120033",
					"opcodes": "PUSH1 0x80 PUSH1 0x40 MSTORE CALLVALUE DUP1 ISZERO PUSH2 0x10 JUMPI PUSH1 0x0 DUP1 REVERT JUMPDEST POP PUSH2 0xD67 DUP1 PUSH2 0x20 PUSH1 0x0 CODECOPY PUSH1 0x0 RETURN INVALID PUSH1 0x80 PUSH1 0x40 MSTORE CALLVALUE DUP1 ISZERO PUSH2 0x10 JUMPI PUSH1 0x0 DUP1 REVERT JUMPDEST POP PUSH1 0x4 CALLDATASIZE LT PUSH2 0x57 JUMPI PUSH1 0x0 CALLDATALOAD PUSH1 0xE0 SHR DUP1 PUSH4 0x9EEF43E EQ PUSH2 0x5C JUMPI DUP1 PUSH4 0x244167A9 EQ PUSH2 0x8C JUMPI DUP1 PUSH4 0x3477EE2E EQ PUSH2 0xA8 JUMPI DUP1 PUSH4 0xBA7F7552 EQ PUSH2 0xD8 JUMPI DUP1 PUSH4 0xFC36E15B EQ PUSH2 0x108 JUMPI JUMPDEST PUSH1 0x0 DUP1 REVERT JUMPDEST PUSH2 0x76 PUSH1 0x4 DUP1 CALLDATASIZE SUB DUP2 ADD SWAP1 PUSH2 0x71 SWAP2 SWAP1 PUSH2 0x4A8 JUMP JUMPDEST PUSH2 0x124 JUMP JUMPDEST PUSH1 0x40 MLOAD PUSH2 0x83 SWAP2 SWAP1 PUSH2 0x4F0 JUMP JUMPDEST PUSH1 0x40 MLOAD DUP1 SWAP2 SUB SWAP1 RETURN JUMPDEST PUSH2 0xA6 PUSH1 0x4 DUP1 CALLDATASIZE SUB DUP2 ADD SWAP1 PUSH2 0xA1 SWAP2 SWAP1 PUSH2 0x651 JUMP JUMPDEST PUSH2 0x144 JUMP JUMPDEST STOP JUMPDEST PUSH2 0xC2 PUSH1 0x4 DUP1 CALLDATASIZE SUB DUP2 ADD SWAP1 PUSH2 0xBD SWAP2 SWAP1 PUSH2 0x6D0 JUMP JUMPDEST PUSH2 0x1C5 JUMP JUMPDEST PUSH1 0x40 MLOAD PUSH2 0xCF SWAP2 SWAP1 PUSH2 0x77C JUMP JUMPDEST PUSH1 0x40 MLOAD DUP1 SWAP2 SUB SWAP1 RETURN JUMPDEST PUSH2 0xF2 PUSH1 0x4 DUP1 CALLDATASIZE SUB DUP2 ADD SWAP1 PUSH2 0xED SWAP2 SWAP1 PUSH2 0x651 JUMP JUMPDEST PUSH2 0x271 JUMP JUMPDEST PUSH1 0x40 MLOAD PUSH2 0xFF SWAP2 SWAP1 PUSH2 0x7AD JUMP JUMPDEST PUSH1 0x40 MLOAD DUP1 SWAP2 SUB SWAP1 RETURN JUMPDEST PUSH2 0x122 PUSH1 0x4 DUP1 CALLDATASIZE SUB DUP2 ADD SWAP1 PUSH2 0x11D SWAP2 SWAP1 PUSH2 0x651 JUMP JUMPDEST PUSH2 0x29F JUMP JUMPDEST STOP JUMPDEST PUSH1 0x0 PUSH1 0x20 MSTORE DUP1 PUSH1 0x0 MSTORE PUSH1 0x40 PUSH1 0x0 KECCAK256 PUSH1 0x0 SWAP2 POP SLOAD SWAP1 PUSH2 0x100 EXP SWAP1 DIV PUSH1 0xFF AND DUP2 JUMP JUMPDEST PUSH2 0x14D DUP2 PUSH2 0x3B9 JUMP JUMPDEST ISZERO PUSH2 0x18D JUMPI PUSH1 0x40 MLOAD PUSH32 0x8C379A000000000000000000000000000000000000000000000000000000000 DUP2 MSTORE PUSH1 0x4 ADD PUSH2 0x184 SWAP1 PUSH2 0x814 JUMP JUMPDEST PUSH1 0x40 MLOAD DUP1 SWAP2 SUB SWAP1 REVERT JUMPDEST PUSH1 0x2 DUP2 SWAP1 DUP1 PUSH1 0x1 DUP2 SLOAD ADD DUP1 DUP3 SSTORE DUP1 SWAP2 POP POP PUSH1 0x1 SWAP1 SUB SWAP1 PUSH1 0x0 MSTORE PUSH1 0x20 PUSH1 0x0 KECCAK256 ADD PUSH1 0x0 SWAP1 SWAP2 SWAP1 SWAP2 SWAP1 SWAP2 POP SWAP1 DUP2 PUSH2 0x1C1 SWAP2 SWAP1 PUSH2 0xA40 JUMP JUMPDEST POP POP JUMP JUMPDEST PUSH1 0x2 DUP2 DUP2 SLOAD DUP2 LT PUSH2 0x1D5 JUMPI PUSH1 0x0 DUP1 REVERT JUMPDEST SWAP1 PUSH1 0x0 MSTORE PUSH1 0x20 PUSH1 0x0 KECCAK256 ADD PUSH1 0x0 SWAP2 POP SWAP1 POP DUP1 SLOAD PUSH2 0x1F0 SWAP1 PUSH2 0x863 JUMP JUMPDEST DUP1 PUSH1 0x1F ADD PUSH1 0x20 DUP1 SWAP2 DIV MUL PUSH1 0x20 ADD PUSH1 0x40 MLOAD SWAP1 DUP2 ADD PUSH1 0x40 MSTORE DUP1 SWAP3 SWAP2 SWAP1 DUP2 DUP2 MSTORE PUSH1 0x20 ADD DUP3 DUP1 SLOAD PUSH2 0x21C SWAP1 PUSH2 0x863 JUMP JUMPDEST DUP1 ISZERO PUSH2 0x269 JUMPI DUP1 PUSH1 0x1F LT PUSH2 0x23E JUMPI PUSH2 0x100 DUP1 DUP4 SLOAD DIV MUL DUP4 MSTORE SWAP2 PUSH1 0x20 ADD SWAP2 PUSH2 0x269 JUMP JUMPDEST DUP3 ADD SWAP2 SWAP1 PUSH1 0x0 MSTORE PUSH1 0x20 PUSH1 0x0 KECCAK256 SWAP1 JUMPDEST DUP2 SLOAD DUP2 MSTORE SWAP1 PUSH1 0x1 ADD SWAP1 PUSH1 0x20 ADD DUP1 DUP4 GT PUSH2 0x24C JUMPI DUP3 SWAP1 SUB PUSH1 0x1F AND DUP3 ADD SWAP2 JUMPDEST POP POP POP POP POP DUP2 JUMP JUMPDEST PUSH1 0x1 DUP2 DUP1 MLOAD PUSH1 0x20 DUP2 ADD DUP3 ADD DUP1 MLOAD DUP5 DUP3 MSTORE PUSH1 0x20 DUP4 ADD PUSH1 0x20 DUP6 ADD KECCAK256 DUP2 DUP4 MSTORE DUP1 SWAP6 POP POP POP POP POP POP PUSH1 0x0 SWAP2 POP SWAP1 POP SLOAD DUP2 JUMP JUMPDEST PUSH1 0x0 DUP1 CALLER PUSH20 0xFFFFFFFFFFFFFFFFFFFFFFFFFFFFFFFFFFFFFFFF AND PUSH20 0xFFFFFFFFFFFFFFFFFFFFFFFFFFFFFFFFFFFFFFFF AND DUP2 MSTORE PUSH1 0x20 ADD SWAP1 DUP2 MSTORE PUSH1 0x20 ADD PUSH1 0x0 KECCAK256 PUSH1 0x0 SWAP1 SLOAD SWAP1 PUSH2 0x100 EXP SWAP1 DIV PUSH1 0xFF AND ISZERO PUSH2 0x32B JUMPI PUSH1 0x40 MLOAD PUSH32 0x8C379A000000000000000000000000000000000000000000000000000000000 DUP2 MSTORE PUSH1 0x4 ADD PUSH2 0x322 SWAP1 PUSH2 0xB5E JUMP JUMPDEST PUSH1 0x40 MLOAD DUP1 SWAP2 SUB SWAP1 REVERT JUMPDEST PUSH1 0x1 DUP2 PUSH1 0x40 MLOAD PUSH2 0x33B SWAP2 SWAP1 PUSH2 0xBBA JUMP JUMPDEST SWAP1 DUP2 MSTORE PUSH1 0x20 ADD PUSH1 0x40 MLOAD DUP1 SWAP2 SUB SWAP1 KECCAK256 PUSH1 0x0 DUP2 SLOAD DUP1 SWAP3 SWAP2 SWAP1 PUSH2 0x35A SWAP1 PUSH2 0xC00 JUMP JUMPDEST SWAP2 SWAP1 POP SSTORE POP PUSH1 0x1 PUSH1 0x0 DUP1 CALLER PUSH20 0xFFFFFFFFFFFFFFFFFFFFFFFFFFFFFFFFFFFFFFFF AND PUSH20 0xFFFFFFFFFFFFFFFFFFFFFFFFFFFFFFFFFFFFFFFF AND DUP2 MSTORE PUSH1 0x20 ADD SWAP1 DUP2 MSTORE PUSH1 0x20 ADD PUSH1 0x0 KECCAK256 PUSH1 0x0 PUSH2 0x100 EXP DUP2 SLOAD DUP2 PUSH1 0xFF MUL NOT AND SWAP1 DUP4 ISZERO ISZERO MUL OR SWAP1 SSTORE POP POP JUMP JUMPDEST PUSH1 0x0 DUP1 PUSH1 0x0 SWAP1 POP JUMPDEST PUSH1 0x2 DUP1 SLOAD SWAP1 POP DUP2 LT ISZERO PUSH2 0x42B JUMPI DUP3 DUP1 MLOAD SWAP1 PUSH1 0x20 ADD KECCAK256 PUSH1 0x2 DUP3 DUP2 SLOAD DUP2 LT PUSH2 0x3EA JUMPI PUSH2 0x3E9 PUSH2 0xC48 JUMP JUMPDEST JUMPDEST SWAP1 PUSH1 0x0 MSTORE PUSH1 0x20 PUSH1 0x0 KECCAK256 ADD PUSH1 0x40 MLOAD PUSH2 0x401 SWAP2 SWAP1 PUSH2 0xD1A JUMP JUMPDEST PUSH1 0x40 MLOAD DUP1 SWAP2 SUB SWAP1 KECCAK256 SUB PUSH2 0x418 JUMPI PUSH1 0x1 SWAP2 POP POP PUSH2 0x431 JUMP JUMPDEST DUP1 DUP1 PUSH2 0x423 SWAP1 PUSH2 0xC00 JUMP JUMPDEST SWAP2 POP POP PUSH2 0x3C1 JUMP JUMPDEST POP PUSH1 0x0 SWAP1 POP JUMPDEST SWAP2 SWAP1 POP JUMP JUMPDEST PUSH1 0x0 PUSH1 0x40 MLOAD SWAP1 POP SWAP1 JUMP JUMPDEST PUSH1 0x0 DUP1 REVERT JUMPDEST PUSH1 0x0 DUP1 REVERT JUMPDEST PUSH1 0x0 PUSH20 0xFFFFFFFFFFFFFFFFFFFFFFFFFFFFFFFFFFFFFFFF DUP3 AND SWAP1 POP SWAP2 SWAP1 POP JUMP JUMPDEST PUSH1 0x0 PUSH2 0x475 DUP3 PUSH2 0x44A JUMP JUMPDEST SWAP1 POP SWAP2 SWAP1 POP JUMP JUMPDEST PUSH2 0x485 DUP2 PUSH2 0x46A JUMP JUMPDEST DUP2 EQ PUSH2 0x490 JUMPI PUSH1 0x0 DUP1 REVERT JUMPDEST POP JUMP JUMPDEST PUSH1 0x0 DUP2 CALLDATALOAD SWAP1 POP PUSH2 0x4A2 DUP2 PUSH2 0x47C JUMP JUMPDEST SWAP3 SWAP2 POP POP JUMP JUMPDEST PUSH1 0x0 PUSH1 0x20 DUP3 DUP5 SUB SLT ISZERO PUSH2 0x4BE JUMPI PUSH2 0x4BD PUSH2 0x440 JUMP JUMPDEST JUMPDEST PUSH1 0x0 PUSH2 0x4CC DUP5 DUP3 DUP6 ADD PUSH2 0x493 JUMP JUMPDEST SWAP2 POP POP SWAP3 SWAP2 POP POP JUMP JUMPDEST PUSH1 0x0 DUP2 ISZERO ISZERO SWAP1 POP SWAP2 SWAP1 POP JUMP JUMPDEST PUSH2 0x4EA DUP2 PUSH2 0x4D5 JUMP JUMPDEST DUP3 MSTORE POP POP JUMP JUMPDEST PUSH1 0x0 PUSH1 0x20 DUP3 ADD SWAP1 POP PUSH2 0x505 PUSH1 0x0 DUP4 ADD DUP5 PUSH2 0x4E1 JUMP JUMPDEST SWAP3 SWAP2 POP POP JUMP JUMPDEST PUSH1 0x0 DUP1 REVERT JUMPDEST PUSH1 0x0 DUP1 REVERT JUMPDEST PUSH1 0x0 PUSH1 0x1F NOT PUSH1 0x1F DUP4 ADD AND SWAP1 POP SWAP2 SWAP1 POP JUMP JUMPDEST PUSH32 0x4E487B7100000000000000000000000000000000000000000000000000000000 PUSH1 0x0 MSTORE PUSH1 0x41 PUSH1 0x4 MSTORE PUSH1 0x24 PUSH1 0x0 REVERT JUMPDEST PUSH2 0x55E DUP3 PUSH2 0x515 JUMP JUMPDEST DUP2 ADD DUP2 DUP2 LT PUSH8 0xFFFFFFFFFFFFFFFF DUP3 GT OR ISZERO PUSH2 0x57D JUMPI PUSH2 0x57C PUSH2 0x526 JUMP JUMPDEST JUMPDEST DUP1 PUSH1 0x40 MSTORE POP POP POP JUMP JUMPDEST PUSH1 0x0 PUSH2 0x590 PUSH2 0x436 JUMP JUMPDEST SWAP1 POP PUSH2 0x59C DUP3 DUP3 PUSH2 0x555 JUMP JUMPDEST SWAP2 SWAP1 POP JUMP JUMPDEST PUSH1 0x0 PUSH8 0xFFFFFFFFFFFFFFFF DUP3 GT ISZERO PUSH2 0x5BC JUMPI PUSH2 0x5BB PUSH2 0x526 JUMP JUMPDEST JUMPDEST PUSH2 0x5C5 DUP3 PUSH2 0x515 JUMP JUMPDEST SWAP1 POP PUSH1 0x20 DUP2 ADD SWAP1 POP SWAP2 SWAP1 POP JUMP JUMPDEST DUP3 DUP2 DUP4 CALLDATACOPY PUSH1 0x0 DUP4 DUP4 ADD MSTORE POP POP POP JUMP JUMPDEST PUSH1 0x0 PUSH2 0x5F4 PUSH2 0x5EF DUP5 PUSH2 0x5A1 JUMP JUMPDEST PUSH2 0x586 JUMP JUMPDEST SWAP1 POP DUP3 DUP2 MSTORE PUSH1 0x20 DUP2 ADD DUP5 DUP5 DUP5 ADD GT ISZERO PUSH2 0x610 JUMPI PUSH2 0x60F PUSH2 0x510 JUMP JUMPDEST JUMPDEST PUSH2 0x61B DUP5 DUP3 DUP6 PUSH2 0x5D2 JUMP JUMPDEST POP SWAP4 SWAP3 POP POP POP JUMP JUMPDEST PUSH1 0x0 DUP3 PUSH1 0x1F DUP4 ADD SLT PUSH2 0x638 JUMPI PUSH2 0x637 PUSH2 0x50B JUMP JUMPDEST JUMPDEST DUP2 CALLDATALOAD PUSH2 0x648 DUP5 DUP3 PUSH1 0x20 DUP7 ADD PUSH2 0x5E1 JUMP JUMPDEST SWAP2 POP POP SWAP3 SWAP2 POP POP JUMP JUMPDEST PUSH1 0x0 PUSH1 0x20 DUP3 DUP5 SUB SLT ISZERO PUSH2 0x667 JUMPI PUSH2 0x666 PUSH2 0x440 JUMP JUMPDEST JUMPDEST PUSH1 0x0 DUP3 ADD CALLDATALOAD PUSH8 0xFFFFFFFFFFFFFFFF DUP2 GT ISZERO PUSH2 0x685 JUMPI PUSH2 0x684 PUSH2 0x445 JUMP JUMPDEST JUMPDEST PUSH2 0x691 DUP5 DUP3 DUP6 ADD PUSH2 0x623 JUMP JUMPDEST SWAP2 POP POP SWAP3 SWAP2 POP POP JUMP JUMPDEST PUSH1 0x0 DUP2 SWAP1 POP SWAP2 SWAP1 POP JUMP JUMPDEST PUSH2 0x6AD DUP2 PUSH2 0x69A JUMP JUMPDEST DUP2 EQ PUSH2 0x6B8 JUMPI PUSH1 0x0 DUP1 REVERT JUMPDEST POP JUMP JUMPDEST PUSH1 0x0 DUP2 CALLDATALOAD SWAP1 POP PUSH2 0x6CA DUP2 PUSH2 0x6A4 JUMP JUMPDEST SWAP3 SWAP2 POP POP JUMP JUMPDEST PUSH1 0x0 PUSH1 0x20 DUP3 DUP5 SUB SLT ISZERO PUSH2 0x6E6 JUMPI PUSH2 0x6E5 PUSH2 0x440 JUMP JUMPDEST JUMPDEST PUSH1 0x0 PUSH2 0x6F4 DUP5 DUP3 DUP6 ADD PUSH2 0x6BB JUMP JUMPDEST SWAP2 POP POP SWAP3 SWAP2 POP POP JUMP JUMPDEST PUSH1 0x0 DUP2 MLOAD SWAP1 POP SWAP2 SWAP1 POP JUMP JUMPDEST PUSH1 0x0 DUP3 DUP3 MSTORE PUSH1 0x20 DUP3 ADD SWAP1 POP SWAP3 SWAP2 POP POP JUMP JUMPDEST PUSH1 0x0 JUMPDEST DUP4 DUP2 LT ISZERO PUSH2 0x737 JUMPI DUP1 DUP3 ADD MLOAD DUP2 DUP5 ADD MSTORE PUSH1 0x20 DUP2 ADD SWAP1 POP PUSH2 0x71C JUMP JUMPDEST PUSH1 0x0 DUP5 DUP5 ADD MSTORE POP POP POP POP JUMP JUMPDEST PUSH1 0x0 PUSH2 0x74E DUP3 PUSH2 0x6FD JUMP JUMPDEST PUSH2 0x758 DUP2 DUP6 PUSH2 0x708 JUMP JUMPDEST SWAP4 POP PUSH2 0x768 DUP2 DUP6 PUSH1 0x20 DUP7 ADD PUSH2 0x719 JUMP JUMPDEST PUSH2 0x771 DUP2 PUSH2 0x515 JUMP JUMPDEST DUP5 ADD SWAP2 POP POP SWAP3 SWAP2 POP POP JUMP JUMPDEST PUSH1 0x0 PUSH1 0x20 DUP3 ADD SWAP1 POP DUP2 DUP2 SUB PUSH1 0x0 DUP4 ADD MSTORE PUSH2 0x796 DUP2 DUP5 PUSH2 0x743 JUMP JUMPDEST SWAP1 POP SWAP3 SWAP2 POP POP JUMP JUMPDEST PUSH2 0x7A7 DUP2 PUSH2 0x69A JUMP JUMPDEST DUP3 MSTORE POP POP JUMP JUMPDEST PUSH1 0x0 PUSH1 0x20 DUP3 ADD SWAP1 POP PUSH2 0x7C2 PUSH1 0x0 DUP4 ADD DUP5 PUSH2 0x79E JUMP JUMPDEST SWAP3 SWAP2 POP POP JUMP JUMPDEST PUSH32 0x43616E64696461746520616C7265616479207265676973746572656421000000 PUSH1 0x0 DUP3 ADD MSTORE POP JUMP JUMPDEST PUSH1 0x0 PUSH2 0x7FE PUSH1 0x1D DUP4 PUSH2 0x708 JUMP JUMPDEST SWAP2 POP PUSH2 0x809 DUP3 PUSH2 0x7C8 JUMP JUMPDEST PUSH1 0x20 DUP3 ADD SWAP1 POP SWAP2 SWAP1 POP JUMP JUMPDEST PUSH1 0x0 PUSH1 0x20 DUP3 ADD SWAP1 POP DUP2 DUP2 SUB PUSH1 0x0 DUP4 ADD MSTORE PUSH2 0x82D DUP2 PUSH2 0x7F1 JUMP JUMPDEST SWAP1 POP SWAP2 SWAP1 POP JUMP JUMPDEST PUSH32 0x4E487B7100000000000000000000000000000000000000000000000000000000 PUSH1 0x0 MSTORE PUSH1 0x22 PUSH1 0x4 MSTORE PUSH1 0x24 PUSH1 0x0 REVERT JUMPDEST PUSH1 0x0 PUSH1 0x2 DUP3 DIV SWAP1 POP PUSH1 0x1 DUP3 AND DUP1 PUSH2 0x87B JUMPI PUSH1 0x7F DUP3 AND SWAP2 POP JUMPDEST PUSH1 0x20 DUP3 LT DUP2 SUB PUSH2 0x88E JUMPI PUSH2 0x88D PUSH2 0x834 JUMP JUMPDEST JUMPDEST POP SWAP2 SWAP1 POP JUMP JUMPDEST PUSH1 0x0 DUP2 SWAP1 POP DUP2 PUSH1 0x0 MSTORE PUSH1 0x20 PUSH1 0x0 KECCAK256 SWAP1 POP SWAP2 SWAP1 POP JUMP JUMPDEST PUSH1 0x0 PUSH1 0x20 PUSH1 0x1F DUP4 ADD DIV SWAP1 POP SWAP2 SWAP1 POP JUMP JUMPDEST PUSH1 0x0 DUP3 DUP3 SHL SWAP1 POP SWAP3 SWAP2 POP POP JUMP JUMPDEST PUSH1 0x0 PUSH1 0x8 DUP4 MUL PUSH2 0x8F6 PUSH32 0xFFFFFFFFFFFFFFFFFFFFFFFFFFFFFFFFFFFFFFFFFFFFFFFFFFFFFFFFFFFFFFFF DUP3 PUSH2 0x8B9 JUMP JUMPDEST PUSH2 0x900 DUP7 DUP4 PUSH2 0x8B9 JUMP JUMPDEST SWAP6 POP DUP1 NOT DUP5 AND SWAP4 POP DUP1 DUP7 AND DUP5 OR SWAP3 POP POP POP SWAP4 SWAP3 POP POP POP JUMP JUMPDEST PUSH1 0x0 DUP2 SWAP1 POP SWAP2 SWAP1 POP JUMP JUMPDEST PUSH1 0x0 PUSH2 0x93D PUSH2 0x938 PUSH2 0x933 DUP5 PUSH2 0x69A JUMP JUMPDEST PUSH2 0x918 JUMP JUMPDEST PUSH2 0x69A JUMP JUMPDEST SWAP1 POP SWAP2 SWAP1 POP JUMP JUMPDEST PUSH1 0x0 DUP2 SWAP1 POP SWAP2 SWAP1 POP JUMP JUMPDEST PUSH2 0x957 DUP4 PUSH2 0x922 JUMP JUMPDEST PUSH2 0x96B PUSH2 0x963 DUP3 PUSH2 0x944 JUMP JUMPDEST DUP5 DUP5 SLOAD PUSH2 0x8C6 JUMP JUMPDEST DUP3 SSTORE POP POP POP POP JUMP JUMPDEST PUSH1 0x0 SWAP1 JUMP JUMPDEST PUSH2 0x980 PUSH2 0x973 JUMP JUMPDEST PUSH2 0x98B DUP2 DUP5 DUP5 PUSH2 0x94E JUMP JUMPDEST POP POP POP JUMP JUMPDEST JUMPDEST DUP2 DUP2 LT ISZERO PUSH2 0x9AF JUMPI PUSH2 0x9A4 PUSH1 0x0 DUP3 PUSH2 0x978 JUMP JUMPDEST PUSH1 0x1 DUP2 ADD SWAP1 POP PUSH2 0x991 JUMP JUMPDEST POP POP JUMP JUMPDEST PUSH1 0x1F DUP3 GT ISZERO PUSH2 0x9F4 JUMPI PUSH2 0x9C5 DUP2 PUSH2 0x894 JUMP JUMPDEST PUSH2 0x9CE DUP5 PUSH2 0x8A9 JUMP JUMPDEST DUP2 ADD PUSH1 0x20 DUP6 LT ISZERO PUSH2 0x9DD JUMPI DUP2 SWAP1 POP JUMPDEST PUSH2 0x9F1 PUSH2 0x9E9 DUP6 PUSH2 0x8A9 JUMP JUMPDEST DUP4 ADD DUP3 PUSH2 0x990 JUMP JUMPDEST POP POP JUMPDEST POP POP POP JUMP JUMPDEST PUSH1 0x0 DUP3 DUP3 SHR SWAP1 POP SWAP3 SWAP2 POP POP JUMP JUMPDEST PUSH1 0x0 PUSH2 0xA17 PUSH1 0x0 NOT DUP5 PUSH1 0x8 MUL PUSH2 0x9F9 JUMP JUMPDEST NOT DUP1 DUP4 AND SWAP2 POP POP SWAP3 SWAP2 POP POP JUMP JUMPDEST PUSH1 0x0 PUSH2 0xA30 DUP4 DUP4 PUSH2 0xA06 JUMP JUMPDEST SWAP2 POP DUP3 PUSH1 0x2 MUL DUP3 OR SWAP1 POP SWAP3 SWAP2 POP POP JUMP JUMPDEST PUSH2 0xA49 DUP3 PUSH2 0x6FD JUMP JUMPDEST PUSH8 0xFFFFFFFFFFFFFFFF DUP2 GT ISZERO PUSH2 0xA62 JUMPI PUSH2 0xA61 PUSH2 0x526 JUMP JUMPDEST JUMPDEST PUSH2 0xA6C DUP3 SLOAD PUSH2 0x863 JUMP JUMPDEST PUSH2 0xA77 DUP3 DUP3 DUP6 PUSH2 0x9B3 JUMP JUMPDEST PUSH1 0x0 PUSH1 0x20 SWAP1 POP PUSH1 0x1F DUP4 GT PUSH1 0x1 DUP2 EQ PUSH2 0xAAA JUMPI PUSH1 0x0 DUP5 ISZERO PUSH2 0xA98 JUMPI DUP3 DUP8 ADD MLOAD SWAP1 POP JUMPDEST PUSH2 0xAA2 DUP6 DUP3 PUSH2 0xA24 JUMP JUMPDEST DUP7 SSTORE POP PUSH2 0xB0A JUMP JUMPDEST PUSH1 0x1F NOT DUP5 AND PUSH2 0xAB8 DUP7 PUSH2 0x894 JUMP JUMPDEST PUSH1 0x0 JUMPDEST DUP3 DUP2 LT ISZERO PUSH2 0xAE0 JUMPI DUP5 DUP10 ADD MLOAD DUP3 SSTORE PUSH1 0x1 DUP3 ADD SWAP2 POP PUSH1 0x20 DUP6 ADD SWAP5 POP PUSH1 0x20 DUP2 ADD SWAP1 POP PUSH2 0xABB JUMP JUMPDEST DUP7 DUP4 LT ISZERO PUSH2 0xAFD JUMPI DUP5 DUP10 ADD MLOAD PUSH2 0xAF9 PUSH1 0x1F DUP10 AND DUP3 PUSH2 0xA06 JUMP JUMPDEST DUP4 SSTORE POP JUMPDEST PUSH1 0x1 PUSH1 0x2 DUP9 MUL ADD DUP9 SSTORE POP POP POP JUMPDEST POP POP POP POP POP POP JUMP JUMPDEST PUSH32 0x416C726561647920766F74656400000000000000000000000000000000000000 PUSH1 0x0 DUP3 ADD MSTORE POP JUMP JUMPDEST PUSH1 0x0 PUSH2 0xB48 PUSH1 0xD DUP4 PUSH2 0x708 JUMP JUMPDEST SWAP2 POP PUSH2 0xB53 DUP3 PUSH2 0xB12 JUMP JUMPDEST PUSH1 0x20 DUP3 ADD SWAP1 POP SWAP2 SWAP1 POP JUMP JUMPDEST PUSH1 0x0 PUSH1 0x20 DUP3 ADD SWAP1 POP DUP2 DUP2 SUB PUSH1 0x0 DUP4 ADD MSTORE PUSH2 0xB77 DUP2 PUSH2 0xB3B JUMP JUMPDEST SWAP1 POP SWAP2 SWAP1 POP JUMP JUMPDEST PUSH1 0x0 DUP2 SWAP1 POP SWAP3 SWAP2 POP POP JUMP JUMPDEST PUSH1 0x0 PUSH2 0xB94 DUP3 PUSH2 0x6FD JUMP JUMPDEST PUSH2 0xB9E DUP2 DUP6 PUSH2 0xB7E JUMP JUMPDEST SWAP4 POP PUSH2 0xBAE DUP2 DUP6 PUSH1 0x20 DUP7 ADD PUSH2 0x719 JUMP JUMPDEST DUP1 DUP5 ADD SWAP2 POP POP SWAP3 SWAP2 POP POP JUMP JUMPDEST PUSH1 0x0 PUSH2 0xBC6 DUP3 DUP5 PUSH2 0xB89 JUMP JUMPDEST SWAP2 POP DUP2 SWAP1 POP SWAP3 SWAP2 POP POP JUMP JUMPDEST PUSH32 0x4E487B7100000000000000000000000000000000000000000000000000000000 PUSH1 0x0 MSTORE PUSH1 0x11 PUSH1 0x4 MSTORE PUSH1 0x24 PUSH1 0x0 REVERT JUMPDEST PUSH1 0x0 PUSH2 0xC0B DUP3 PUSH2 0x69A JUMP JUMPDEST SWAP2 POP PUSH32 0xFFFFFFFFFFFFFFFFFFFFFFFFFFFFFFFFFFFFFFFFFFFFFFFFFFFFFFFFFFFFFFFF DUP3 SUB PUSH2 0xC3D JUMPI PUSH2 0xC3C PUSH2 0xBD1 JUMP JUMPDEST JUMPDEST PUSH1 0x1 DUP3 ADD SWAP1 POP SWAP2 SWAP1 POP JUMP JUMPDEST PUSH32 0x4E487B7100000000000000000000000000000000000000000000000000000000 PUSH1 0x0 MSTORE PUSH1 0x32 PUSH1 0x4 MSTORE PUSH1 0x24 PUSH1 0x0 REVERT JUMPDEST PUSH1 0x0 DUP2 SWAP1 POP SWAP3 SWAP2 POP POP JUMP JUMPDEST PUSH1 0x0 DUP2 SWAP1 POP DUP2 PUSH1 0x0 MSTORE PUSH1 0x20 PUSH1 0x0 KECCAK256 SWAP1 POP SWAP2 SWAP1 POP JUMP JUMPDEST PUSH1 0x0 DUP2 SLOAD PUSH2 0xCA4 DUP2 PUSH2 0x863 JUMP JUMPDEST PUSH2 0xCAE DUP2 DUP7 PUSH2 0xC77 JUMP JUMPDEST SWAP5 POP PUSH1 0x1 DUP3 AND PUSH1 0x0 DUP2 EQ PUSH2 0xCC9 JUMPI PUSH1 0x1 DUP2 EQ PUSH2 0xCDE JUMPI PUSH2 0xD11 JUMP JUMPDEST PUSH1 0xFF NOT DUP4 AND DUP7 MSTORE DUP2 ISZERO ISZERO DUP3 MUL DUP7 ADD SWAP4 POP PUSH2 0xD11 JUMP JUMPDEST PUSH2 0xCE7 DUP6 PUSH2 0xC82 JUMP JUMPDEST PUSH1 0x0 JUMPDEST DUP4 DUP2 LT ISZERO PUSH2 0xD09 JUMPI DUP2 SLOAD DUP2 DUP10 ADD MSTORE PUSH1 0x1 DUP3 ADD SWAP2 POP PUSH1 0x20 DUP2 ADD SWAP1 POP PUSH2 0xCEA JUMP JUMPDEST DUP4 DUP9 ADD SWAP6 POP POP POP JUMPDEST POP POP POP SWAP3 SWAP2 POP POP JUMP JUMPDEST PUSH1 0x0 PUSH2 0xD26 DUP3 DUP5 PUSH2 0xC97 JUMP JUMPDEST SWAP2 POP DUP2 SWAP1 POP SWAP3 SWAP2 POP POP JUMP INVALID LOG2 PUSH5 0x6970667358 0x22 SLT KECCAK256 SGT JUMP 0xC1 RETURNDATACOPY MSTORE8 0xE BYTE EXTCODESIZE SELFDESTRUCT 0x2E KECCAK256 0xC3 0xEB DUP2 BASEFEE 0xD4 0x21 0xD0 0x22 DUP13 0x2D SWAP10 PUSH24 0xF4831D6AC7BC27D42E64736F6C6343000812003300000000 "
				},
				"gasEstimates": {
					"creation": {
						"codeDepositCost": "686200",
						"executionCost": "721",
						"totalCost": "686921"
					},
					"external": {
						"candidates(uint256)": "infinite",
						"hasVoted(address)": "2823",
						"registerCandidates(string)": "infinite",
						"vote(string)": "infinite",
						"voteCount(string)": "infinite"
					},
					"internal": {
						"isCandidate(string memory)": "infinite"
					}
				},
				"methodIdentifiers": {
					"candidates(uint256)": "3477ee2e",
					"hasVoted(address)": "09eef43e",
					"registerCandidates(string)": "244167a9",
					"vote(string)": "fc36e15b",
					"voteCount(string)": "ba7f7552"
				}
			},
			"storageLayout": {
				"storage": [
					{
						"astId": 5,
						"contract": "contracts/complex_vote.sol:Voting",
						"label": "hasVoted",
						"offset": 0,
						"slot": "0",
						"type": "t_mapping(t_address,t_bool)"
					},
					{
						"astId": 9,
						"contract": "contracts/complex_vote.sol:Voting",
						"label": "voteCount",
						"offset": 0,
						"slot": "1",
						"type": "t_mapping(t_string_memory_ptr,t_uint256)"
					},
					{
						"astId": 12,
						"contract": "contracts/complex_vote.sol:Voting",
						"label": "candidates",
						"offset": 0,
						"slot": "2",
						"type": "t_array(t_string_storage)dyn_storage"
					}
				],
				"types": {
					"t_address": {
						"encoding": "inplace",
						"label": "address",
						"numberOfBytes": "20"
					},
					"t_array(t_string_storage)dyn_storage": {
						"base": "t_string_storage",
						"encoding": "dynamic_array",
						"label": "string[]",
						"numberOfBytes": "32"
					},
					"t_bool": {
						"encoding": "inplace",
						"label": "bool",
						"numberOfBytes": "1"
					},
					"t_mapping(t_address,t_bool)": {
						"encoding": "mapping",
						"key": "t_address",
						"label": "mapping(address => bool)",
						"numberOfBytes": "32",
						"value": "t_bool"
					},
					"t_mapping(t_string_memory_ptr,t_uint256)": {
						"encoding": "mapping",
						"key": "t_string_memory_ptr",
						"label": "mapping(string => uint256)",
						"numberOfBytes": "32",
						"value": "t_uint256"
					},
					"t_string_memory_ptr": {
						"encoding": "bytes",
						"label": "string",
						"numberOfBytes": "32"
					},
					"t_string_storage": {
						"encoding": "bytes",
						"label": "string",
						"numberOfBytes": "32"
					},
					"t_uint256": {
						"encoding": "inplace",
						"label": "uint256",
						"numberOfBytes": "32"
					}
				}
			},
			"userdoc": {
				"kind": "user",
				"methods": {},
				"version": 1
			}
		}
	}
}