{
	"data": {
		"bytecode": {
			"linkReferences": {},
			"object": "608060405234801561001057600080fd5b50604051610a0f380380610a0f833981810160405281019061003291906100dd565b336000806101000a81548173ffffffffffffffffffffffffffffffffffffffff021916908373ffffffffffffffffffffffffffffffffffffffff1602179055508060018190555060006002819055506000600460006101000a81548160ff0219169083151502179055505061010a565b600080fd5b6000819050919050565b6100ba816100a7565b81146100c557600080fd5b50565b6000815190506100d7816100b1565b92915050565b6000602082840312156100f3576100f26100a2565b5b6000610101848285016100c8565b91505092915050565b6108f6806101196000396000f3fe6080604052600436106100745760003560e01c80639fdd82e81161004e5780639fdd82e8146100fc578063a4475ce414610127578063c1cbbca714610152578063f441b1c81461016e5761007b565b806324600fc31461007d5780632636b9451461009457806342e94c90146100bf5761007b565b3661007b57005b005b34801561008957600080fd5b50610092610199565b005b3480156100a057600080fd5b506100a96102bb565b6040516100b6919061050f565b60405180910390f35b3480156100cb57600080fd5b506100e660048036038101906100e1919061058d565b6102c1565b6040516100f3919061050f565b60405180910390f35b34801561010857600080fd5b506101116102d9565b60405161011e91906105d5565b60405180910390f35b34801561013357600080fd5b5061013c6102ec565b60405161014991906105ff565b60405180910390f35b61016c60048036038101906101679190610646565b610310565b005b34801561017a57600080fd5b506101836104f0565b604051610190919061050f565b60405180910390f35b600460009054906101000a900460ff166101e8576040517f08c379a00000000000000000000000000000000000000000000000000000000081526004016101df906106d0565b60405180910390fd5b6000600360003373ffffffffffffffffffffffffffffffffffffffff1673ffffffffffffffffffffffffffffffffffffffff1681526020019081526020016000205490506000600360003373ffffffffffffffffffffffffffffffffffffffff1673ffffffffffffffffffffffffffffffffffffffff168152602001908152602001600020819055503373ffffffffffffffffffffffffffffffffffffffff166108fc829081150290604051600060405180830381858888f193505050501580156102b7573d6000803e3d6000fd5b5050565b60015481565b60036020528060005260406000206000915090505481565b600460009054906101000a900460ff1681565b60008054906101000a900473ffffffffffffffffffffffffffffffffffffffff1681565b600460009054906101000a900460ff1615610360576040517f08c379a00000000000000000000000000000000000000000000000000000000081526004016103579061073c565b60405180910390fd5b600081116103a3576040517f08c379a000000000000000000000000000000000000000000000000000000000815260040161039a906107a8565b60405180910390fd5b803411156103e6576040517f08c379a00000000000000000000000000000000000000000000000000000000081526004016103dd90610814565b60405180910390fd5b80600360003373ffffffffffffffffffffffffffffffffffffffff1673ffffffffffffffffffffffffffffffffffffffff16815260200190815260200160002060008282546104359190610863565b92505081905550806002600082825461044e9190610863565b925050819055507ff6a29b1c3796756a24fb7020021a094525ab0ad080af9a4fb6e44c61b70bf2a03382604051610486929190610897565b60405180910390a1600154600254106104ed576001600460006101000a81548160ff0219169083151502179055507f62bb2c2be703269b4efd105a54be058929a0a5b858f6776ad7b341a7bf3e885860016040516104e491906105d5565b60405180910390a15b50565b60025481565b6000819050919050565b610509816104f6565b82525050565b60006020820190506105246000830184610500565b92915050565b600080fd5b600073ffffffffffffffffffffffffffffffffffffffff82169050919050565b600061055a8261052f565b9050919050565b61056a8161054f565b811461057557600080fd5b50565b60008135905061058781610561565b92915050565b6000602082840312156105a3576105a261052a565b5b60006105b184828501610578565b91505092915050565b60008115159050919050565b6105cf816105ba565b82525050565b60006020820190506105ea60008301846105c6565b92915050565b6105f98161054f565b82525050565b600060208201905061061460008301846105f0565b92915050565b610623816104f6565b811461062e57600080fd5b50565b6000813590506106408161061a565b92915050565b60006020828403121561065c5761065b61052a565b5b600061066a84828501610631565b91505092915050565b600082825260208201905092915050565b7f43616d706169676e206973207374696c6c206f70656e00000000000000000000600082015250565b60006106ba601683610673565b91506106c582610684565b602082019050919050565b600060208201905081810360008301526106e9816106ad565b9050919050565b7f43616d706169676e20697320636c6f7365640000000000000000000000000000600082015250565b6000610726601283610673565b9150610731826106f0565b602082019050919050565b6000602082019050818103600083015261075581610719565b9050919050565b7f496e76616c696420436f6e747269627574696f6e20616d6f756e740000000000600082015250565b6000610792601b83610673565b915061079d8261075c565b602082019050919050565b600060208201905081810360008301526107c181610785565b9050919050565b7f696e636f727265637420636f6e747269627574696f6e2076616c756500000000600082015250565b60006107fe601c83610673565b9150610809826107c8565b602082019050919050565b6000602082019050818103600083015261082d816107f1565b9050919050565b7f4e487b7100000000000000000000000000000000000000000000000000000000600052601160045260246000fd5b600061086e826104f6565b9150610879836104f6565b925082820190508082111561089157610890610834565b5b92915050565b60006040820190506108ac60008301856105f0565b6108b96020830184610500565b939250505056fea2646970667358221220caa2468a1a897694d714842d0c89a0dd484d6508e3e468431b347c96d1b5d0c164736f6c63430008120033",
			"opcodes": "PUSH1 0x80 PUSH1 0x40 MSTORE CALLVALUE DUP1 ISZERO PUSH2 0x10 JUMPI PUSH1 0x0 DUP1 REVERT JUMPDEST POP PUSH1 0x40 MLOAD PUSH2 0xA0F CODESIZE SUB DUP1 PUSH2 0xA0F DUP4 CODECOPY DUP2 DUP2 ADD PUSH1 0x40 MSTORE DUP2 ADD SWAP1 PUSH2 0x32 SWAP2 SWAP1 PUSH2 0xDD JUMP JUMPDEST CALLER PUSH1 0x0 DUP1 PUSH2 0x100 EXP DUP2 SLOAD DUP2 PUSH20 0xFFFFFFFFFFFFFFFFFFFFFFFFFFFFFFFFFFFFFFFF MUL NOT AND SWAP1 DUP4 PUSH20 0xFFFFFFFFFFFFFFFFFFFFFFFFFFFFFFFFFFFFFFFF AND MUL OR SWAP1 SSTORE POP DUP1 PUSH1 0x1 DUP2 SWAP1 SSTORE POP PUSH1 0x0 PUSH1 0x2 DUP2 SWAP1 SSTORE POP PUSH1 0x0 PUSH1 0x4 PUSH1 0x0 PUSH2 0x100 EXP DUP2 SLOAD DUP2 PUSH1 0xFF MUL NOT AND SWAP1 DUP4 ISZERO ISZERO MUL OR SWAP1 SSTORE POP POP PUSH2 0x10A JUMP JUMPDEST PUSH1 0x0 DUP1 REVERT JUMPDEST PUSH1 0x0 DUP2 SWAP1 POP SWAP2 SWAP1 POP JUMP JUMPDEST PUSH2 0xBA DUP2 PUSH2 0xA7 JUMP JUMPDEST DUP2 EQ PUSH2 0xC5 JUMPI PUSH1 0x0 DUP1 REVERT JUMPDEST POP JUMP JUMPDEST PUSH1 0x0 DUP2 MLOAD SWAP1 POP PUSH2 0xD7 DUP2 PUSH2 0xB1 JUMP JUMPDEST SWAP3 SWAP2 POP POP JUMP JUMPDEST PUSH1 0x0 PUSH1 0x20 DUP3 DUP5 SUB SLT ISZERO PUSH2 0xF3 JUMPI PUSH2 0xF2 PUSH2 0xA2 JUMP JUMPDEST JUMPDEST PUSH1 0x0 PUSH2 0x101 DUP5 DUP3 DUP6 ADD PUSH2 0xC8 JUMP JUMPDEST SWAP2 POP POP SWAP3 SWAP2 POP POP JUMP JUMPDEST PUSH2 0x8F6 DUP1 PUSH2 0x119 PUSH1 0x0 CODECOPY PUSH1 0x0 RETURN INVALID PUSH1 0x80 PUSH1 0x40 MSTORE PUSH1 0x4 CALLDATASIZE LT PUSH2 0x74 JUMPI PUSH1 0x0 CALLDATALOAD PUSH1 0xE0 SHR DUP1 PUSH4 0x9FDD82E8 GT PUSH2 0x4E JUMPI DUP1 PUSH4 0x9FDD82E8 EQ PUSH2 0xFC JUMPI DUP1 PUSH4 0xA4475CE4 EQ PUSH2 0x127 JUMPI DUP1 PUSH4 0xC1CBBCA7 EQ PUSH2 0x152 JUMPI DUP1 PUSH4 0xF441B1C8 EQ PUSH2 0x16E JUMPI PUSH2 0x7B JUMP JUMPDEST DUP1 PUSH4 0x24600FC3 EQ PUSH2 0x7D JUMPI DUP1 PUSH4 0x2636B945 EQ PUSH2 0x94 JUMPI DUP1 PUSH4 0x42E94C90 EQ PUSH2 0xBF JUMPI PUSH2 0x7B JUMP JUMPDEST CALLDATASIZE PUSH2 0x7B JUMPI STOP JUMPDEST STOP JUMPDEST CALLVALUE DUP1 ISZERO PUSH2 0x89 JUMPI PUSH1 0x0 DUP1 REVERT JUMPDEST POP PUSH2 0x92 PUSH2 0x199 JUMP JUMPDEST STOP JUMPDEST CALLVALUE DUP1 ISZERO PUSH2 0xA0 JUMPI PUSH1 0x0 DUP1 REVERT JUMPDEST POP PUSH2 0xA9 PUSH2 0x2BB JUMP JUMPDEST PUSH1 0x40 MLOAD PUSH2 0xB6 SWAP2 SWAP1 PUSH2 0x50F JUMP JUMPDEST PUSH1 0x40 MLOAD DUP1 SWAP2 SUB SWAP1 RETURN JUMPDEST CALLVALUE DUP1 ISZERO PUSH2 0xCB JUMPI PUSH1 0x0 DUP1 REVERT JUMPDEST POP PUSH2 0xE6 PUSH1 0x4 DUP1 CALLDATASIZE SUB DUP2 ADD SWAP1 PUSH2 0xE1 SWAP2 SWAP1 PUSH2 0x58D JUMP JUMPDEST PUSH2 0x2C1 JUMP JUMPDEST PUSH1 0x40 MLOAD PUSH2 0xF3 SWAP2 SWAP1 PUSH2 0x50F JUMP JUMPDEST PUSH1 0x40 MLOAD DUP1 SWAP2 SUB SWAP1 RETURN JUMPDEST CALLVALUE DUP1 ISZERO PUSH2 0x108 JUMPI PUSH1 0x0 DUP1 REVERT JUMPDEST POP PUSH2 0x111 PUSH2 0x2D9 JUMP JUMPDEST PUSH1 0x40 MLOAD PUSH2 0x11E SWAP2 SWAP1 PUSH2 0x5D5 JUMP JUMPDEST PUSH1 0x40 MLOAD DUP1 SWAP2 SUB SWAP1 RETURN JUMPDEST CALLVALUE DUP1 ISZERO PUSH2 0x133 JUMPI PUSH1 0x0 DUP1 REVERT JUMPDEST POP PUSH2 0x13C PUSH2 0x2EC JUMP JUMPDEST PUSH1 0x40 MLOAD PUSH2 0x149 SWAP2 SWAP1 PUSH2 0x5FF JUMP JUMPDEST PUSH1 0x40 MLOAD DUP1 SWAP2 SUB SWAP1 RETURN JUMPDEST PUSH2 0x16C PUSH1 0x4 DUP1 CALLDATASIZE SUB DUP2 ADD SWAP1 PUSH2 0x167 SWAP2 SWAP1 PUSH2 0x646 JUMP JUMPDEST PUSH2 0x310 JUMP JUMPDEST STOP JUMPDEST CALLVALUE DUP1 ISZERO PUSH2 0x17A JUMPI PUSH1 0x0 DUP1 REVERT JUMPDEST POP PUSH2 0x183 PUSH2 0x4F0 JUMP JUMPDEST PUSH1 0x40 MLOAD PUSH2 0x190 SWAP2 SWAP1 PUSH2 0x50F JUMP JUMPDEST PUSH1 0x40 MLOAD DUP1 SWAP2 SUB SWAP1 RETURN JUMPDEST PUSH1 0x4 PUSH1 0x0 SWAP1 SLOAD SWAP1 PUSH2 0x100 EXP SWAP1 DIV PUSH1 0xFF AND PUSH2 0x1E8 JUMPI PUSH1 0x40 MLOAD PUSH32 0x8C379A000000000000000000000000000000000000000000000000000000000 DUP2 MSTORE PUSH1 0x4 ADD PUSH2 0x1DF SWAP1 PUSH2 0x6D0 JUMP JUMPDEST PUSH1 0x40 MLOAD DUP1 SWAP2 SUB SWAP1 REVERT JUMPDEST PUSH1 0x0 PUSH1 0x3 PUSH1 0x0 CALLER PUSH20 0xFFFFFFFFFFFFFFFFFFFFFFFFFFFFFFFFFFFFFFFF AND PUSH20 0xFFFFFFFFFFFFFFFFFFFFFFFFFFFFFFFFFFFFFFFF AND DUP2 MSTORE PUSH1 0x20 ADD SWAP1 DUP2 MSTORE PUSH1 0x20 ADD PUSH1 0x0 KECCAK256 SLOAD SWAP1 POP PUSH1 0x0 PUSH1 0x3 PUSH1 0x0 CALLER PUSH20 0xFFFFFFFFFFFFFFFFFFFFFFFFFFFFFFFFFFFFFFFF AND PUSH20 0xFFFFFFFFFFFFFFFFFFFFFFFFFFFFFFFFFFFFFFFF AND DUP2 MSTORE PUSH1 0x20 ADD SWAP1 DUP2 MSTORE PUSH1 0x20 ADD PUSH1 0x0 KECCAK256 DUP2 SWAP1 SSTORE POP CALLER PUSH20 0xFFFFFFFFFFFFFFFFFFFFFFFFFFFFFFFFFFFFFFFF AND PUSH2 0x8FC DUP3 SWAP1 DUP2 ISZERO MUL SWAP1 PUSH1 0x40 MLOAD PUSH1 0x0 PUSH1 0x40 MLOAD DUP1 DUP4 SUB DUP2 DUP6 DUP9 DUP9 CALL SWAP4 POP POP POP POP ISZERO DUP1 ISZERO PUSH2 0x2B7 JUMPI RETURNDATASIZE PUSH1 0x0 DUP1 RETURNDATACOPY RETURNDATASIZE PUSH1 0x0 REVERT JUMPDEST POP POP JUMP JUMPDEST PUSH1 0x1 SLOAD DUP2 JUMP JUMPDEST PUSH1 0x3 PUSH1 0x20 MSTORE DUP1 PUSH1 0x0 MSTORE PUSH1 0x40 PUSH1 0x0 KECCAK256 PUSH1 0x0 SWAP2 POP SWAP1 POP SLOAD DUP2 JUMP JUMPDEST PUSH1 0x4 PUSH1 0x0 SWAP1 SLOAD SWAP1 PUSH2 0x100 EXP SWAP1 DIV PUSH1 0xFF AND DUP2 JUMP JUMPDEST PUSH1 0x0 DUP1 SLOAD SWAP1 PUSH2 0x100 EXP SWAP1 DIV PUSH20 0xFFFFFFFFFFFFFFFFFFFFFFFFFFFFFFFFFFFFFFFF AND DUP2 JUMP JUMPDEST PUSH1 0x4 PUSH1 0x0 SWAP1 SLOAD SWAP1 PUSH2 0x100 EXP SWAP1 DIV PUSH1 0xFF AND ISZERO PUSH2 0x360 JUMPI PUSH1 0x40 MLOAD PUSH32 0x8C379A000000000000000000000000000000000000000000000000000000000 DUP2 MSTORE PUSH1 0x4 ADD PUSH2 0x357 SWAP1 PUSH2 0x73C JUMP JUMPDEST PUSH1 0x40 MLOAD DUP1 SWAP2 SUB SWAP1 REVERT JUMPDEST PUSH1 0x0 DUP2 GT PUSH2 0x3A3 JUMPI PUSH1 0x40 MLOAD PUSH32 0x8C379A000000000000000000000000000000000000000000000000000000000 DUP2 MSTORE PUSH1 0x4 ADD PUSH2 0x39A SWAP1 PUSH2 0x7A8 JUMP JUMPDEST PUSH1 0x40 MLOAD DUP1 SWAP2 SUB SWAP1 REVERT JUMPDEST DUP1 CALLVALUE GT ISZERO PUSH2 0x3E6 JUMPI PUSH1 0x40 MLOAD PUSH32 0x8C379A000000000000000000000000000000000000000000000000000000000 DUP2 MSTORE PUSH1 0x4 ADD PUSH2 0x3DD SWAP1 PUSH2 0x814 JUMP JUMPDEST PUSH1 0x40 MLOAD DUP1 SWAP2 SUB SWAP1 REVERT JUMPDEST DUP1 PUSH1 0x3 PUSH1 0x0 CALLER PUSH20 0xFFFFFFFFFFFFFFFFFFFFFFFFFFFFFFFFFFFFFFFF AND PUSH20 0xFFFFFFFFFFFFFFFFFFFFFFFFFFFFFFFFFFFFFFFF AND DUP2 MSTORE PUSH1 0x20 ADD SWAP1 DUP2 MSTORE PUSH1 0x20 ADD PUSH1 0x0 KECCAK256 PUSH1 0x0 DUP3 DUP3 SLOAD PUSH2 0x435 SWAP2 SWAP1 PUSH2 0x863 JUMP JUMPDEST SWAP3 POP POP DUP2 SWAP1 SSTORE POP DUP1 PUSH1 0x2 PUSH1 0x0 DUP3 DUP3 SLOAD PUSH2 0x44E SWAP2 SWAP1 PUSH2 0x863 JUMP JUMPDEST SWAP3 POP POP DUP2 SWAP1 SSTORE POP PUSH32 0xF6A29B1C3796756A24FB7020021A094525AB0AD080AF9A4FB6E44C61B70BF2A0 CALLER DUP3 PUSH1 0x40 MLOAD PUSH2 0x486 SWAP3 SWAP2 SWAP1 PUSH2 0x897 JUMP JUMPDEST PUSH1 0x40 MLOAD DUP1 SWAP2 SUB SWAP1 LOG1 PUSH1 0x1 SLOAD PUSH1 0x2 SLOAD LT PUSH2 0x4ED JUMPI PUSH1 0x1 PUSH1 0x4 PUSH1 0x0 PUSH2 0x100 EXP DUP2 SLOAD DUP2 PUSH1 0xFF MUL NOT AND SWAP1 DUP4 ISZERO ISZERO MUL OR SWAP1 SSTORE POP PUSH32 0x62BB2C2BE703269B4EFD105A54BE058929A0A5B858F6776AD7B341A7BF3E8858 PUSH1 0x1 PUSH1 0x40 MLOAD PUSH2 0x4E4 SWAP2 SWAP1 PUSH2 0x5D5 JUMP JUMPDEST PUSH1 0x40 MLOAD DUP1 SWAP2 SUB SWAP1 LOG1 JUMPDEST POP JUMP JUMPDEST PUSH1 0x2 SLOAD DUP2 JUMP JUMPDEST PUSH1 0x0 DUP2 SWAP1 POP SWAP2 SWAP1 POP JUMP JUMPDEST PUSH2 0x509 DUP2 PUSH2 0x4F6 JUMP JUMPDEST DUP3 MSTORE POP POP JUMP JUMPDEST PUSH1 0x0 PUSH1 0x20 DUP3 ADD SWAP1 POP PUSH2 0x524 PUSH1 0x0 DUP4 ADD DUP5 PUSH2 0x500 JUMP JUMPDEST SWAP3 SWAP2 POP POP JUMP JUMPDEST PUSH1 0x0 DUP1 REVERT JUMPDEST PUSH1 0x0 PUSH20 0xFFFFFFFFFFFFFFFFFFFFFFFFFFFFFFFFFFFFFFFF DUP3 AND SWAP1 POP SWAP2 SWAP1 POP JUMP JUMPDEST PUSH1 0x0 PUSH2 0x55A DUP3 PUSH2 0x52F JUMP JUMPDEST SWAP1 POP SWAP2 SWAP1 POP JUMP JUMPDEST PUSH2 0x56A DUP2 PUSH2 0x54F JUMP JUMPDEST DUP2 EQ PUSH2 0x575 JUMPI PUSH1 0x0 DUP1 REVERT JUMPDEST POP JUMP JUMPDEST PUSH1 0x0 DUP2 CALLDATALOAD SWAP1 POP PUSH2 0x587 DUP2 PUSH2 0x561 JUMP JUMPDEST SWAP3 SWAP2 POP POP JUMP JUMPDEST PUSH1 0x0 PUSH1 0x20 DUP3 DUP5 SUB SLT ISZERO PUSH2 0x5A3 JUMPI PUSH2 0x5A2 PUSH2 0x52A JUMP JUMPDEST JUMPDEST PUSH1 0x0 PUSH2 0x5B1 DUP5 DUP3 DUP6 ADD PUSH2 0x578 JUMP JUMPDEST SWAP2 POP POP SWAP3 SWAP2 POP POP JUMP JUMPDEST PUSH1 0x0 DUP2 ISZERO ISZERO SWAP1 POP SWAP2 SWAP1 POP JUMP JUMPDEST PUSH2 0x5CF DUP2 PUSH2 0x5BA JUMP JUMPDEST DUP3 MSTORE POP POP JUMP JUMPDEST PUSH1 0x0 PUSH1 0x20 DUP3 ADD SWAP1 POP PUSH2 0x5EA PUSH1 0x0 DUP4 ADD DUP5 PUSH2 0x5C6 JUMP JUMPDEST SWAP3 SWAP2 POP POP JUMP JUMPDEST PUSH2 0x5F9 DUP2 PUSH2 0x54F JUMP JUMPDEST DUP3 MSTORE POP POP JUMP JUMPDEST PUSH1 0x0 PUSH1 0x20 DUP3 ADD SWAP1 POP PUSH2 0x614 PUSH1 0x0 DUP4 ADD DUP5 PUSH2 0x5F0 JUMP JUMPDEST SWAP3 SWAP2 POP POP JUMP JUMPDEST PUSH2 0x623 DUP2 PUSH2 0x4F6 JUMP JUMPDEST DUP2 EQ PUSH2 0x62E JUMPI PUSH1 0x0 DUP1 REVERT JUMPDEST POP JUMP JUMPDEST PUSH1 0x0 DUP2 CALLDATALOAD SWAP1 POP PUSH2 0x640 DUP2 PUSH2 0x61A JUMP JUMPDEST SWAP3 SWAP2 POP POP JUMP JUMPDEST PUSH1 0x0 PUSH1 0x20 DUP3 DUP5 SUB SLT ISZERO PUSH2 0x65C JUMPI PUSH2 0x65B PUSH2 0x52A JUMP JUMPDEST JUMPDEST PUSH1 0x0 PUSH2 0x66A DUP5 DUP3 DUP6 ADD PUSH2 0x631 JUMP JUMPDEST SWAP2 POP POP SWAP3 SWAP2 POP POP JUMP JUMPDEST PUSH1 0x0 DUP3 DUP3 MSTORE PUSH1 0x20 DUP3 ADD SWAP1 POP SWAP3 SWAP2 POP POP JUMP JUMPDEST PUSH32 0x43616D706169676E206973207374696C6C206F70656E00000000000000000000 PUSH1 0x0 DUP3 ADD MSTORE POP JUMP JUMPDEST PUSH1 0x0 PUSH2 0x6BA PUSH1 0x16 DUP4 PUSH2 0x673 JUMP JUMPDEST SWAP2 POP PUSH2 0x6C5 DUP3 PUSH2 0x684 JUMP JUMPDEST PUSH1 0x20 DUP3 ADD SWAP1 POP SWAP2 SWAP1 POP JUMP JUMPDEST PUSH1 0x0 PUSH1 0x20 DUP3 ADD SWAP1 POP DUP2 DUP2 SUB PUSH1 0x0 DUP4 ADD MSTORE PUSH2 0x6E9 DUP2 PUSH2 0x6AD JUMP JUMPDEST SWAP1 POP SWAP2 SWAP1 POP JUMP JUMPDEST PUSH32 0x43616D706169676E20697320636C6F7365640000000000000000000000000000 PUSH1 0x0 DUP3 ADD MSTORE POP JUMP JUMPDEST PUSH1 0x0 PUSH2 0x726 PUSH1 0x12 DUP4 PUSH2 0x673 JUMP JUMPDEST SWAP2 POP PUSH2 0x731 DUP3 PUSH2 0x6F0 JUMP JUMPDEST PUSH1 0x20 DUP3 ADD SWAP1 POP SWAP2 SWAP1 POP JUMP JUMPDEST PUSH1 0x0 PUSH1 0x20 DUP3 ADD SWAP1 POP DUP2 DUP2 SUB PUSH1 0x0 DUP4 ADD MSTORE PUSH2 0x755 DUP2 PUSH2 0x719 JUMP JUMPDEST SWAP1 POP SWAP2 SWAP1 POP JUMP JUMPDEST PUSH32 0x496E76616C696420436F6E747269627574696F6E20616D6F756E740000000000 PUSH1 0x0 DUP3 ADD MSTORE POP JUMP JUMPDEST PUSH1 0x0 PUSH2 0x792 PUSH1 0x1B DUP4 PUSH2 0x673 JUMP JUMPDEST SWAP2 POP PUSH2 0x79D DUP3 PUSH2 0x75C JUMP JUMPDEST PUSH1 0x20 DUP3 ADD SWAP1 POP SWAP2 SWAP1 POP JUMP JUMPDEST PUSH1 0x0 PUSH1 0x20 DUP3 ADD SWAP1 POP DUP2 DUP2 SUB PUSH1 0x0 DUP4 ADD MSTORE PUSH2 0x7C1 DUP2 PUSH2 0x785 JUMP JUMPDEST SWAP1 POP SWAP2 SWAP1 POP JUMP JUMPDEST PUSH32 0x696E636F727265637420636F6E747269627574696F6E2076616C756500000000 PUSH1 0x0 DUP3 ADD MSTORE POP JUMP JUMPDEST PUSH1 0x0 PUSH2 0x7FE PUSH1 0x1C DUP4 PUSH2 0x673 JUMP JUMPDEST SWAP2 POP PUSH2 0x809 DUP3 PUSH2 0x7C8 JUMP JUMPDEST PUSH1 0x20 DUP3 ADD SWAP1 POP SWAP2 SWAP1 POP JUMP JUMPDEST PUSH1 0x0 PUSH1 0x20 DUP3 ADD SWAP1 POP DUP2 DUP2 SUB PUSH1 0x0 DUP4 ADD MSTORE PUSH2 0x82D DUP2 PUSH2 0x7F1 JUMP JUMPDEST SWAP1 POP SWAP2 SWAP1 POP JUMP JUMPDEST PUSH32 0x4E487B7100000000000000000000000000000000000000000000000000000000 PUSH1 0x0 MSTORE PUSH1 0x11 PUSH1 0x4 MSTORE PUSH1 0x24 PUSH1 0x0 REVERT JUMPDEST PUSH1 0x0 PUSH2 0x86E DUP3 PUSH2 0x4F6 JUMP JUMPDEST SWAP2 POP PUSH2 0x879 DUP4 PUSH2 0x4F6 JUMP JUMPDEST SWAP3 POP DUP3 DUP3 ADD SWAP1 POP DUP1 DUP3 GT ISZERO PUSH2 0x891 JUMPI PUSH2 0x890 PUSH2 0x834 JUMP JUMPDEST JUMPDEST SWAP3 SWAP2 POP POP JUMP JUMPDEST PUSH1 0x0 PUSH1 0x40 DUP3 ADD SWAP1 POP PUSH2 0x8AC PUSH1 0x0 DUP4 ADD DUP6 PUSH2 0x5F0 JUMP JUMPDEST PUSH2 0x8B9 PUSH1 0x20 DUP4 ADD DUP5 PUSH2 0x500 JUMP JUMPDEST SWAP4 SWAP3 POP POP POP JUMP INVALID LOG2 PUSH5 0x6970667358 0x22 SLT KECCAK256 0xCA LOG2 CHAINID DUP11 BYTE DUP10 PUSH23 0x94D714842D0C89A0DD484D6508E3E468431B347C96D1B5 0xD0 0xC1 PUSH5 0x736F6C6343 STOP ADDMOD SLT STOP CALLER "
		},
		"gasEstimates": {
			"creation": {
				"codeDepositCost": "458800",
				"executionCost": "infinite",
				"totalCost": "infinite"
			},
			"external": {
				"": "152",
				"campaignClosed()": "2471",
				"contribute(uint256)": "infinite",
				"contributions(address)": "2859",
				"currentAmount()": "2495",
				"goalAmount()": "2452",
				"projectOwner()": "2533",
				"withdrawFunds()": "infinite"
			}
		},
		"methodIdentifiers": {
			"campaignClosed()": "9fdd82e8",
			"contribute(uint256)": "c1cbbca7",
			"contributions(address)": "42e94c90",
			"currentAmount()": "f441b1c8",
			"goalAmount()": "2636b945",
			"projectOwner()": "a4475ce4",
			"withdrawFunds()": "24600fc3"
		}
	},
	"abi": [
		{
			"inputs": [
				{
					"internalType": "uint256",
					"name": "_goalAmount",
					"type": "uint256"
				}
			],
			"stateMutability": "nonpayable",
			"type": "constructor"
		},
		{
			"anonymous": false,
			"inputs": [
				{
					"indexed": false,
					"internalType": "bool",
					"name": "successful",
					"type": "bool"
				}
			],
			"name": "CampaignClosed",
			"type": "event"
		},
		{
			"anonymous": false,
			"inputs": [
				{
					"indexed": false,
					"internalType": "address",
					"name": "contributor",
					"type": "address"
				},
				{
					"indexed": false,
					"internalType": "uint256",
					"name": "amount",
					"type": "uint256"
				}
			],
			"name": "ContributionsRecieved",
			"type": "event"
		},
		{
			"stateMutability": "payable",
			"type": "fallback"
		},
		{
			"inputs": [],
			"name": "campaignClosed",
			"outputs": [
				{
					"internalType": "bool",
					"name": "",
					"type": "bool"
				}
			],
			"stateMutability": "view",
			"type": "function"
		},
		{
			"inputs": [
				{
					"internalType": "uint256",
					"name": "amount",
					"type": "uint256"
				}
			],
			"name": "contribute",
			"outputs": [],
			"stateMutability": "payable",
			"type": "function"
		},
		{
			"inputs": [
				{
					"internalType": "address",
					"name": "",
					"type": "address"
				}
			],
			"name": "contributions",
			"outputs": [
				{
					"internalType": "uint256",
					"name": "",
					"type": "uint256"
				}
			],
			"stateMutability": "view",
			"type": "function"
		},
		{
			"inputs": [],
			"name": "currentAmount",
			"outputs": [
				{
					"internalType": "uint256",
					"name": "",
					"type": "uint256"
				}
			],
			"stateMutability": "view",
			"type": "function"
		},
		{
			"inputs": [],
			"name": "goalAmount",
			"outputs": [
				{
					"internalType": "uint256",
					"name": "",
					"type": "uint256"
				}
			],
			"stateMutability": "view",
			"type": "function"
		},
		{
			"inputs": [],
			"name": "projectOwner",
			"outputs": [
				{
					"internalType": "address",
					"name": "",
					"type": "address"
				}
			],
			"stateMutability": "view",
			"type": "function"
		},
		{
			"inputs": [],
			"name": "withdrawFunds",
			"outputs": [],
			"stateMutability": "nonpayable",
			"type": "function"
		},
		{
			"stateMutability": "payable",
			"type": "receive"
		}
	]
}