{
	"data": {
		"bytecode": {
			"linkReferences": {},
			"object": "608060405234801561001057600080fd5b50610ed2806100206000396000f3fe60806040523480156200001157600080fd5b50600436106200002e5760003560e01c80635b0605301462000033575b600080fd5b6200005160048036038101906200004b9190620002ad565b62000053565b005b60008383836040516200006690620000ee565b6200007493929190620003e1565b604051809103906000f08015801562000091573d6000803e3d6000fd5b5090508073ffffffffffffffffffffffffffffffffffffffff167f75d1eb2d61d7e210835bc16e78ac4d0e4f905c108a81852a6b68c4d46b4f40f3858585604051620000e093929190620003e1565b60405180910390a250505050565b610a70806200042d83390190565b6000604051905090565b600080fd5b600080fd5b600080fd5b600080fd5b6000601f19601f8301169050919050565b7f4e487b7100000000000000000000000000000000000000000000000000000000600052604160045260246000fd5b62000165826200011a565b810181811067ffffffffffffffff821117156200018757620001866200012b565b5b80604052505050565b60006200019c620000fc565b9050620001aa82826200015a565b919050565b600067ffffffffffffffff821115620001cd57620001cc6200012b565b5b620001d8826200011a565b9050602081019050919050565b82818337600083830152505050565b60006200020b6200020584620001af565b62000190565b9050828152602081018484840111156200022a576200022962000115565b5b62000237848285620001e5565b509392505050565b600082601f83011262000257576200025662000110565b5b813562000269848260208601620001f4565b91505092915050565b6000819050919050565b620002878162000272565b81146200029357600080fd5b50565b600081359050620002a7816200027c565b92915050565b600080600060608486031215620002c957620002c862000106565b5b600084013567ffffffffffffffff811115620002ea57620002e96200010b565b5b620002f8868287016200023f565b935050602084013567ffffffffffffffff8111156200031c576200031b6200010b565b5b6200032a868287016200023f565b92505060406200033d8682870162000296565b9150509250925092565b600081519050919050565b600082825260208201905092915050565b60005b838110156200038357808201518184015260208101905062000366565b60008484015250505050565b60006200039c8262000347565b620003a8818562000352565b9350620003ba81856020860162000363565b620003c5816200011a565b840191505092915050565b620003db8162000272565b82525050565b60006060820190508181036000830152620003fd81866200038f565b905081810360208301526200041381856200038f565b9050620004246040830184620003d0565b94935050505056fe60806040523480156200001157600080fd5b5060405162000a7038038062000a7083398181016040528101906200003791906200027d565b826000908162000048919062000558565b5081600190816200005a919062000558565b508060028190555080600360003373ffffffffffffffffffffffffffffffffffffffff1673ffffffffffffffffffffffffffffffffffffffff168152602001908152602001600020819055505050506200063f565b6000604051905090565b600080fd5b600080fd5b600080fd5b600080fd5b6000601f19601f8301169050919050565b7f4e487b7100000000000000000000000000000000000000000000000000000000600052604160045260246000fd5b6200011882620000cd565b810181811067ffffffffffffffff821117156200013a5762000139620000de565b5b80604052505050565b60006200014f620000af565b90506200015d82826200010d565b919050565b600067ffffffffffffffff82111562000180576200017f620000de565b5b6200018b82620000cd565b9050602081019050919050565b60005b83811015620001b85780820151818401526020810190506200019b565b60008484015250505050565b6000620001db620001d58462000162565b62000143565b905082815260208101848484011115620001fa57620001f9620000c8565b5b6200020784828562000198565b509392505050565b600082601f830112620002275762000226620000c3565b5b815162000239848260208601620001c4565b91505092915050565b6000819050919050565b620002578162000242565b81146200026357600080fd5b50565b60008151905062000277816200024c565b92915050565b600080600060608486031215620002995762000298620000b9565b5b600084015167ffffffffffffffff811115620002ba57620002b9620000be565b5b620002c8868287016200020f565b935050602084015167ffffffffffffffff811115620002ec57620002eb620000be565b5b620002fa868287016200020f565b92505060406200030d8682870162000266565b9150509250925092565b600081519050919050565b7f4e487b7100000000000000000000000000000000000000000000000000000000600052602260045260246000fd5b600060028204905060018216806200036a57607f821691505b60208210810362000380576200037f62000322565b5b50919050565b60008190508160005260206000209050919050565b60006020601f8301049050919050565b600082821b905092915050565b600060088302620003ea7fffffffffffffffffffffffffffffffffffffffffffffffffffffffffffffffff82620003ab565b620003f68683620003ab565b95508019841693508086168417925050509392505050565b6000819050919050565b600062000439620004336200042d8462000242565b6200040e565b62000242565b9050919050565b6000819050919050565b620004558362000418565b6200046d620004648262000440565b848454620003b8565b825550505050565b600090565b6200048462000475565b620004918184846200044a565b505050565b5b81811015620004b957620004ad6000826200047a565b60018101905062000497565b5050565b601f8211156200050857620004d28162000386565b620004dd846200039b565b81016020851015620004ed578190505b62000505620004fc856200039b565b83018262000496565b50505b505050565b600082821c905092915050565b60006200052d600019846008026200050d565b1980831691505092915050565b60006200054883836200051a565b9150826002028217905092915050565b620005638262000317565b67ffffffffffffffff8111156200057f576200057e620000de565b5b6200058b825462000351565b62000598828285620004bd565b600060209050601f831160018114620005d05760008415620005bb578287015190505b620005c785826200053a565b86555062000637565b601f198416620005e08662000386565b60005b828110156200060a57848901518255600182019150602085019450602081019050620005e3565b868310156200062a578489015162000626601f8916826200051a565b8355505b6001600288020188555050505b505050505050565b610421806200064f6000396000f3fe608060405234801561001057600080fd5b506004361061004c5760003560e01c806306fdde031461005157806318160ddd1461006f57806327e235e31461008d57806395d89b41146100bd575b600080fd5b6100596100db565b60405161006691906102a5565b60405180910390f35b610077610169565b60405161008491906102e0565b60405180910390f35b6100a760048036038101906100a2919061035e565b61016f565b6040516100b491906102e0565b60405180910390f35b6100c5610187565b6040516100d291906102a5565b60405180910390f35b600080546100e8906103ba565b80601f0160208091040260200160405190810160405280929190818152602001828054610114906103ba565b80156101615780601f1061013657610100808354040283529160200191610161565b820191906000526020600020905b81548152906001019060200180831161014457829003601f168201915b505050505081565b60025481565b60036020528060005260406000206000915090505481565b60018054610194906103ba565b80601f01602080910402602001604051908101604052809291908181526020018280546101c0906103ba565b801561020d5780601f106101e25761010080835404028352916020019161020d565b820191906000526020600020905b8154815290600101906020018083116101f057829003601f168201915b505050505081565b600081519050919050565b600082825260208201905092915050565b60005b8381101561024f578082015181840152602081019050610234565b60008484015250505050565b6000601f19601f8301169050919050565b600061027782610215565b6102818185610220565b9350610291818560208601610231565b61029a8161025b565b840191505092915050565b600060208201905081810360008301526102bf818461026c565b905092915050565b6000819050919050565b6102da816102c7565b82525050565b60006020820190506102f560008301846102d1565b92915050565b600080fd5b600073ffffffffffffffffffffffffffffffffffffffff82169050919050565b600061032b82610300565b9050919050565b61033b81610320565b811461034657600080fd5b50565b60008135905061035881610332565b92915050565b600060208284031215610374576103736102fb565b5b600061038284828501610349565b91505092915050565b7f4e487b7100000000000000000000000000000000000000000000000000000000600052602260045260246000fd5b600060028204905060018216806103d257607f821691505b6020821081036103e5576103e461038b565b5b5091905056fea26469706673582212206bf7787b832d77a63ac38688ffbed1385573bdb7242035d5e46b02904564fce764736f6c63430008120033a264697066735822122073812da029d449fb710db5faf087a3650dda2a2de0a4b867abb70578f95c200464736f6c63430008120033",
			"opcodes": "PUSH1 0x80 PUSH1 0x40 MSTORE CALLVALUE DUP1 ISZERO PUSH2 0x10 JUMPI PUSH1 0x0 DUP1 REVERT JUMPDEST POP PUSH2 0xED2 DUP1 PUSH2 0x20 PUSH1 0x0 CODECOPY PUSH1 0x0 RETURN INVALID PUSH1 0x80 PUSH1 0x40 MSTORE CALLVALUE DUP1 ISZERO PUSH3 0x11 JUMPI PUSH1 0x0 DUP1 REVERT JUMPDEST POP PUSH1 0x4 CALLDATASIZE LT PUSH3 0x2E JUMPI PUSH1 0x0 CALLDATALOAD PUSH1 0xE0 SHR DUP1 PUSH4 0x5B060530 EQ PUSH3 0x33 JUMPI JUMPDEST PUSH1 0x0 DUP1 REVERT JUMPDEST PUSH3 0x51 PUSH1 0x4 DUP1 CALLDATASIZE SUB DUP2 ADD SWAP1 PUSH3 0x4B SWAP2 SWAP1 PUSH3 0x2AD JUMP JUMPDEST PUSH3 0x53 JUMP JUMPDEST STOP JUMPDEST PUSH1 0x0 DUP4 DUP4 DUP4 PUSH1 0x40 MLOAD PUSH3 0x66 SWAP1 PUSH3 0xEE JUMP JUMPDEST PUSH3 0x74 SWAP4 SWAP3 SWAP2 SWAP1 PUSH3 0x3E1 JUMP JUMPDEST PUSH1 0x40 MLOAD DUP1 SWAP2 SUB SWAP1 PUSH1 0x0 CREATE DUP1 ISZERO DUP1 ISZERO PUSH3 0x91 JUMPI RETURNDATASIZE PUSH1 0x0 DUP1 RETURNDATACOPY RETURNDATASIZE PUSH1 0x0 REVERT JUMPDEST POP SWAP1 POP DUP1 PUSH20 0xFFFFFFFFFFFFFFFFFFFFFFFFFFFFFFFFFFFFFFFF AND PUSH32 0x75D1EB2D61D7E210835BC16E78AC4D0E4F905C108A81852A6B68C4D46B4F40F3 DUP6 DUP6 DUP6 PUSH1 0x40 MLOAD PUSH3 0xE0 SWAP4 SWAP3 SWAP2 SWAP1 PUSH3 0x3E1 JUMP JUMPDEST PUSH1 0x40 MLOAD DUP1 SWAP2 SUB SWAP1 LOG2 POP POP POP POP JUMP JUMPDEST PUSH2 0xA70 DUP1 PUSH3 0x42D DUP4 CODECOPY ADD SWAP1 JUMP JUMPDEST PUSH1 0x0 PUSH1 0x40 MLOAD SWAP1 POP SWAP1 JUMP JUMPDEST PUSH1 0x0 DUP1 REVERT JUMPDEST PUSH1 0x0 DUP1 REVERT JUMPDEST PUSH1 0x0 DUP1 REVERT JUMPDEST PUSH1 0x0 DUP1 REVERT JUMPDEST PUSH1 0x0 PUSH1 0x1F NOT PUSH1 0x1F DUP4 ADD AND SWAP1 POP SWAP2 SWAP1 POP JUMP JUMPDEST PUSH32 0x4E487B7100000000000000000000000000000000000000000000000000000000 PUSH1 0x0 MSTORE PUSH1 0x41 PUSH1 0x4 MSTORE PUSH1 0x24 PUSH1 0x0 REVERT JUMPDEST PUSH3 0x165 DUP3 PUSH3 0x11A JUMP JUMPDEST DUP2 ADD DUP2 DUP2 LT PUSH8 0xFFFFFFFFFFFFFFFF DUP3 GT OR ISZERO PUSH3 0x187 JUMPI PUSH3 0x186 PUSH3 0x12B JUMP JUMPDEST JUMPDEST DUP1 PUSH1 0x40 MSTORE POP POP POP JUMP JUMPDEST PUSH1 0x0 PUSH3 0x19C PUSH3 0xFC JUMP JUMPDEST SWAP1 POP PUSH3 0x1AA DUP3 DUP3 PUSH3 0x15A JUMP JUMPDEST SWAP2 SWAP1 POP JUMP JUMPDEST PUSH1 0x0 PUSH8 0xFFFFFFFFFFFFFFFF DUP3 GT ISZERO PUSH3 0x1CD JUMPI PUSH3 0x1CC PUSH3 0x12B JUMP JUMPDEST JUMPDEST PUSH3 0x1D8 DUP3 PUSH3 0x11A JUMP JUMPDEST SWAP1 POP PUSH1 0x20 DUP2 ADD SWAP1 POP SWAP2 SWAP1 POP JUMP JUMPDEST DUP3 DUP2 DUP4 CALLDATACOPY PUSH1 0x0 DUP4 DUP4 ADD MSTORE POP POP POP JUMP JUMPDEST PUSH1 0x0 PUSH3 0x20B PUSH3 0x205 DUP5 PUSH3 0x1AF JUMP JUMPDEST PUSH3 0x190 JUMP JUMPDEST SWAP1 POP DUP3 DUP2 MSTORE PUSH1 0x20 DUP2 ADD DUP5 DUP5 DUP5 ADD GT ISZERO PUSH3 0x22A JUMPI PUSH3 0x229 PUSH3 0x115 JUMP JUMPDEST JUMPDEST PUSH3 0x237 DUP5 DUP3 DUP6 PUSH3 0x1E5 JUMP JUMPDEST POP SWAP4 SWAP3 POP POP POP JUMP JUMPDEST PUSH1 0x0 DUP3 PUSH1 0x1F DUP4 ADD SLT PUSH3 0x257 JUMPI PUSH3 0x256 PUSH3 0x110 JUMP JUMPDEST JUMPDEST DUP2 CALLDATALOAD PUSH3 0x269 DUP5 DUP3 PUSH1 0x20 DUP7 ADD PUSH3 0x1F4 JUMP JUMPDEST SWAP2 POP POP SWAP3 SWAP2 POP POP JUMP JUMPDEST PUSH1 0x0 DUP2 SWAP1 POP SWAP2 SWAP1 POP JUMP JUMPDEST PUSH3 0x287 DUP2 PUSH3 0x272 JUMP JUMPDEST DUP2 EQ PUSH3 0x293 JUMPI PUSH1 0x0 DUP1 REVERT JUMPDEST POP JUMP JUMPDEST PUSH1 0x0 DUP2 CALLDATALOAD SWAP1 POP PUSH3 0x2A7 DUP2 PUSH3 0x27C JUMP JUMPDEST SWAP3 SWAP2 POP POP JUMP JUMPDEST PUSH1 0x0 DUP1 PUSH1 0x0 PUSH1 0x60 DUP5 DUP7 SUB SLT ISZERO PUSH3 0x2C9 JUMPI PUSH3 0x2C8 PUSH3 0x106 JUMP JUMPDEST JUMPDEST PUSH1 0x0 DUP5 ADD CALLDATALOAD PUSH8 0xFFFFFFFFFFFFFFFF DUP2 GT ISZERO PUSH3 0x2EA JUMPI PUSH3 0x2E9 PUSH3 0x10B JUMP JUMPDEST JUMPDEST PUSH3 0x2F8 DUP7 DUP3 DUP8 ADD PUSH3 0x23F JUMP JUMPDEST SWAP4 POP POP PUSH1 0x20 DUP5 ADD CALLDATALOAD PUSH8 0xFFFFFFFFFFFFFFFF DUP2 GT ISZERO PUSH3 0x31C JUMPI PUSH3 0x31B PUSH3 0x10B JUMP JUMPDEST JUMPDEST PUSH3 0x32A DUP7 DUP3 DUP8 ADD PUSH3 0x23F JUMP JUMPDEST SWAP3 POP POP PUSH1 0x40 PUSH3 0x33D DUP7 DUP3 DUP8 ADD PUSH3 0x296 JUMP JUMPDEST SWAP2 POP POP SWAP3 POP SWAP3 POP SWAP3 JUMP JUMPDEST PUSH1 0x0 DUP2 MLOAD SWAP1 POP SWAP2 SWAP1 POP JUMP JUMPDEST PUSH1 0x0 DUP3 DUP3 MSTORE PUSH1 0x20 DUP3 ADD SWAP1 POP SWAP3 SWAP2 POP POP JUMP JUMPDEST PUSH1 0x0 JUMPDEST DUP4 DUP2 LT ISZERO PUSH3 0x383 JUMPI DUP1 DUP3 ADD MLOAD DUP2 DUP5 ADD MSTORE PUSH1 0x20 DUP2 ADD SWAP1 POP PUSH3 0x366 JUMP JUMPDEST PUSH1 0x0 DUP5 DUP5 ADD MSTORE POP POP POP POP JUMP JUMPDEST PUSH1 0x0 PUSH3 0x39C DUP3 PUSH3 0x347 JUMP JUMPDEST PUSH3 0x3A8 DUP2 DUP6 PUSH3 0x352 JUMP JUMPDEST SWAP4 POP PUSH3 0x3BA DUP2 DUP6 PUSH1 0x20 DUP7 ADD PUSH3 0x363 JUMP JUMPDEST PUSH3 0x3C5 DUP2 PUSH3 0x11A JUMP JUMPDEST DUP5 ADD SWAP2 POP POP SWAP3 SWAP2 POP POP JUMP JUMPDEST PUSH3 0x3DB DUP2 PUSH3 0x272 JUMP JUMPDEST DUP3 MSTORE POP POP JUMP JUMPDEST PUSH1 0x0 PUSH1 0x60 DUP3 ADD SWAP1 POP DUP2 DUP2 SUB PUSH1 0x0 DUP4 ADD MSTORE PUSH3 0x3FD DUP2 DUP7 PUSH3 0x38F JUMP JUMPDEST SWAP1 POP DUP2 DUP2 SUB PUSH1 0x20 DUP4 ADD MSTORE PUSH3 0x413 DUP2 DUP6 PUSH3 0x38F JUMP JUMPDEST SWAP1 POP PUSH3 0x424 PUSH1 0x40 DUP4 ADD DUP5 PUSH3 0x3D0 JUMP JUMPDEST SWAP5 SWAP4 POP POP POP POP JUMP INVALID PUSH1 0x80 PUSH1 0x40 MSTORE CALLVALUE DUP1 ISZERO PUSH3 0x11 JUMPI PUSH1 0x0 DUP1 REVERT JUMPDEST POP PUSH1 0x40 MLOAD PUSH3 0xA70 CODESIZE SUB DUP1 PUSH3 0xA70 DUP4 CODECOPY DUP2 DUP2 ADD PUSH1 0x40 MSTORE DUP2 ADD SWAP1 PUSH3 0x37 SWAP2 SWAP1 PUSH3 0x27D JUMP JUMPDEST DUP3 PUSH1 0x0 SWAP1 DUP2 PUSH3 0x48 SWAP2 SWAP1 PUSH3 0x558 JUMP JUMPDEST POP DUP2 PUSH1 0x1 SWAP1 DUP2 PUSH3 0x5A SWAP2 SWAP1 PUSH3 0x558 JUMP JUMPDEST POP DUP1 PUSH1 0x2 DUP2 SWAP1 SSTORE POP DUP1 PUSH1 0x3 PUSH1 0x0 CALLER PUSH20 0xFFFFFFFFFFFFFFFFFFFFFFFFFFFFFFFFFFFFFFFF AND PUSH20 0xFFFFFFFFFFFFFFFFFFFFFFFFFFFFFFFFFFFFFFFF AND DUP2 MSTORE PUSH1 0x20 ADD SWAP1 DUP2 MSTORE PUSH1 0x20 ADD PUSH1 0x0 KECCAK256 DUP2 SWAP1 SSTORE POP POP POP POP PUSH3 0x63F JUMP JUMPDEST PUSH1 0x0 PUSH1 0x40 MLOAD SWAP1 POP SWAP1 JUMP JUMPDEST PUSH1 0x0 DUP1 REVERT JUMPDEST PUSH1 0x0 DUP1 REVERT JUMPDEST PUSH1 0x0 DUP1 REVERT JUMPDEST PUSH1 0x0 DUP1 REVERT JUMPDEST PUSH1 0x0 PUSH1 0x1F NOT PUSH1 0x1F DUP4 ADD AND SWAP1 POP SWAP2 SWAP1 POP JUMP JUMPDEST PUSH32 0x4E487B7100000000000000000000000000000000000000000000000000000000 PUSH1 0x0 MSTORE PUSH1 0x41 PUSH1 0x4 MSTORE PUSH1 0x24 PUSH1 0x0 REVERT JUMPDEST PUSH3 0x118 DUP3 PUSH3 0xCD JUMP JUMPDEST DUP2 ADD DUP2 DUP2 LT PUSH8 0xFFFFFFFFFFFFFFFF DUP3 GT OR ISZERO PUSH3 0x13A JUMPI PUSH3 0x139 PUSH3 0xDE JUMP JUMPDEST JUMPDEST DUP1 PUSH1 0x40 MSTORE POP POP POP JUMP JUMPDEST PUSH1 0x0 PUSH3 0x14F PUSH3 0xAF JUMP JUMPDEST SWAP1 POP PUSH3 0x15D DUP3 DUP3 PUSH3 0x10D JUMP JUMPDEST SWAP2 SWAP1 POP JUMP JUMPDEST PUSH1 0x0 PUSH8 0xFFFFFFFFFFFFFFFF DUP3 GT ISZERO PUSH3 0x180 JUMPI PUSH3 0x17F PUSH3 0xDE JUMP JUMPDEST JUMPDEST PUSH3 0x18B DUP3 PUSH3 0xCD JUMP JUMPDEST SWAP1 POP PUSH1 0x20 DUP2 ADD SWAP1 POP SWAP2 SWAP1 POP JUMP JUMPDEST PUSH1 0x0 JUMPDEST DUP4 DUP2 LT ISZERO PUSH3 0x1B8 JUMPI DUP1 DUP3 ADD MLOAD DUP2 DUP5 ADD MSTORE PUSH1 0x20 DUP2 ADD SWAP1 POP PUSH3 0x19B JUMP JUMPDEST PUSH1 0x0 DUP5 DUP5 ADD MSTORE POP POP POP POP JUMP JUMPDEST PUSH1 0x0 PUSH3 0x1DB PUSH3 0x1D5 DUP5 PUSH3 0x162 JUMP JUMPDEST PUSH3 0x143 JUMP JUMPDEST SWAP1 POP DUP3 DUP2 MSTORE PUSH1 0x20 DUP2 ADD DUP5 DUP5 DUP5 ADD GT ISZERO PUSH3 0x1FA JUMPI PUSH3 0x1F9 PUSH3 0xC8 JUMP JUMPDEST JUMPDEST PUSH3 0x207 DUP5 DUP3 DUP6 PUSH3 0x198 JUMP JUMPDEST POP SWAP4 SWAP3 POP POP POP JUMP JUMPDEST PUSH1 0x0 DUP3 PUSH1 0x1F DUP4 ADD SLT PUSH3 0x227 JUMPI PUSH3 0x226 PUSH3 0xC3 JUMP JUMPDEST JUMPDEST DUP2 MLOAD PUSH3 0x239 DUP5 DUP3 PUSH1 0x20 DUP7 ADD PUSH3 0x1C4 JUMP JUMPDEST SWAP2 POP POP SWAP3 SWAP2 POP POP JUMP JUMPDEST PUSH1 0x0 DUP2 SWAP1 POP SWAP2 SWAP1 POP JUMP JUMPDEST PUSH3 0x257 DUP2 PUSH3 0x242 JUMP JUMPDEST DUP2 EQ PUSH3 0x263 JUMPI PUSH1 0x0 DUP1 REVERT JUMPDEST POP JUMP JUMPDEST PUSH1 0x0 DUP2 MLOAD SWAP1 POP PUSH3 0x277 DUP2 PUSH3 0x24C JUMP JUMPDEST SWAP3 SWAP2 POP POP JUMP JUMPDEST PUSH1 0x0 DUP1 PUSH1 0x0 PUSH1 0x60 DUP5 DUP7 SUB SLT ISZERO PUSH3 0x299 JUMPI PUSH3 0x298 PUSH3 0xB9 JUMP JUMPDEST JUMPDEST PUSH1 0x0 DUP5 ADD MLOAD PUSH8 0xFFFFFFFFFFFFFFFF DUP2 GT ISZERO PUSH3 0x2BA JUMPI PUSH3 0x2B9 PUSH3 0xBE JUMP JUMPDEST JUMPDEST PUSH3 0x2C8 DUP7 DUP3 DUP8 ADD PUSH3 0x20F JUMP JUMPDEST SWAP4 POP POP PUSH1 0x20 DUP5 ADD MLOAD PUSH8 0xFFFFFFFFFFFFFFFF DUP2 GT ISZERO PUSH3 0x2EC JUMPI PUSH3 0x2EB PUSH3 0xBE JUMP JUMPDEST JUMPDEST PUSH3 0x2FA DUP7 DUP3 DUP8 ADD PUSH3 0x20F JUMP JUMPDEST SWAP3 POP POP PUSH1 0x40 PUSH3 0x30D DUP7 DUP3 DUP8 ADD PUSH3 0x266 JUMP JUMPDEST SWAP2 POP POP SWAP3 POP SWAP3 POP SWAP3 JUMP JUMPDEST PUSH1 0x0 DUP2 MLOAD SWAP1 POP SWAP2 SWAP1 POP JUMP JUMPDEST PUSH32 0x4E487B7100000000000000000000000000000000000000000000000000000000 PUSH1 0x0 MSTORE PUSH1 0x22 PUSH1 0x4 MSTORE PUSH1 0x24 PUSH1 0x0 REVERT JUMPDEST PUSH1 0x0 PUSH1 0x2 DUP3 DIV SWAP1 POP PUSH1 0x1 DUP3 AND DUP1 PUSH3 0x36A JUMPI PUSH1 0x7F DUP3 AND SWAP2 POP JUMPDEST PUSH1 0x20 DUP3 LT DUP2 SUB PUSH3 0x380 JUMPI PUSH3 0x37F PUSH3 0x322 JUMP JUMPDEST JUMPDEST POP SWAP2 SWAP1 POP JUMP JUMPDEST PUSH1 0x0 DUP2 SWAP1 POP DUP2 PUSH1 0x0 MSTORE PUSH1 0x20 PUSH1 0x0 KECCAK256 SWAP1 POP SWAP2 SWAP1 POP JUMP JUMPDEST PUSH1 0x0 PUSH1 0x20 PUSH1 0x1F DUP4 ADD DIV SWAP1 POP SWAP2 SWAP1 POP JUMP JUMPDEST PUSH1 0x0 DUP3 DUP3 SHL SWAP1 POP SWAP3 SWAP2 POP POP JUMP JUMPDEST PUSH1 0x0 PUSH1 0x8 DUP4 MUL PUSH3 0x3EA PUSH32 0xFFFFFFFFFFFFFFFFFFFFFFFFFFFFFFFFFFFFFFFFFFFFFFFFFFFFFFFFFFFFFFFF DUP3 PUSH3 0x3AB JUMP JUMPDEST PUSH3 0x3F6 DUP7 DUP4 PUSH3 0x3AB JUMP JUMPDEST SWAP6 POP DUP1 NOT DUP5 AND SWAP4 POP DUP1 DUP7 AND DUP5 OR SWAP3 POP POP POP SWAP4 SWAP3 POP POP POP JUMP JUMPDEST PUSH1 0x0 DUP2 SWAP1 POP SWAP2 SWAP1 POP JUMP JUMPDEST PUSH1 0x0 PUSH3 0x439 PUSH3 0x433 PUSH3 0x42D DUP5 PUSH3 0x242 JUMP JUMPDEST PUSH3 0x40E JUMP JUMPDEST PUSH3 0x242 JUMP JUMPDEST SWAP1 POP SWAP2 SWAP1 POP JUMP JUMPDEST PUSH1 0x0 DUP2 SWAP1 POP SWAP2 SWAP1 POP JUMP JUMPDEST PUSH3 0x455 DUP4 PUSH3 0x418 JUMP JUMPDEST PUSH3 0x46D PUSH3 0x464 DUP3 PUSH3 0x440 JUMP JUMPDEST DUP5 DUP5 SLOAD PUSH3 0x3B8 JUMP JUMPDEST DUP3 SSTORE POP POP POP POP JUMP JUMPDEST PUSH1 0x0 SWAP1 JUMP JUMPDEST PUSH3 0x484 PUSH3 0x475 JUMP JUMPDEST PUSH3 0x491 DUP2 DUP5 DUP5 PUSH3 0x44A JUMP JUMPDEST POP POP POP JUMP JUMPDEST JUMPDEST DUP2 DUP2 LT ISZERO PUSH3 0x4B9 JUMPI PUSH3 0x4AD PUSH1 0x0 DUP3 PUSH3 0x47A JUMP JUMPDEST PUSH1 0x1 DUP2 ADD SWAP1 POP PUSH3 0x497 JUMP JUMPDEST POP POP JUMP JUMPDEST PUSH1 0x1F DUP3 GT ISZERO PUSH3 0x508 JUMPI PUSH3 0x4D2 DUP2 PUSH3 0x386 JUMP JUMPDEST PUSH3 0x4DD DUP5 PUSH3 0x39B JUMP JUMPDEST DUP2 ADD PUSH1 0x20 DUP6 LT ISZERO PUSH3 0x4ED JUMPI DUP2 SWAP1 POP JUMPDEST PUSH3 0x505 PUSH3 0x4FC DUP6 PUSH3 0x39B JUMP JUMPDEST DUP4 ADD DUP3 PUSH3 0x496 JUMP JUMPDEST POP POP JUMPDEST POP POP POP JUMP JUMPDEST PUSH1 0x0 DUP3 DUP3 SHR SWAP1 POP SWAP3 SWAP2 POP POP JUMP JUMPDEST PUSH1 0x0 PUSH3 0x52D PUSH1 0x0 NOT DUP5 PUSH1 0x8 MUL PUSH3 0x50D JUMP JUMPDEST NOT DUP1 DUP4 AND SWAP2 POP POP SWAP3 SWAP2 POP POP JUMP JUMPDEST PUSH1 0x0 PUSH3 0x548 DUP4 DUP4 PUSH3 0x51A JUMP JUMPDEST SWAP2 POP DUP3 PUSH1 0x2 MUL DUP3 OR SWAP1 POP SWAP3 SWAP2 POP POP JUMP JUMPDEST PUSH3 0x563 DUP3 PUSH3 0x317 JUMP JUMPDEST PUSH8 0xFFFFFFFFFFFFFFFF DUP2 GT ISZERO PUSH3 0x57F JUMPI PUSH3 0x57E PUSH3 0xDE JUMP JUMPDEST JUMPDEST PUSH3 0x58B DUP3 SLOAD PUSH3 0x351 JUMP JUMPDEST PUSH3 0x598 DUP3 DUP3 DUP6 PUSH3 0x4BD JUMP JUMPDEST PUSH1 0x0 PUSH1 0x20 SWAP1 POP PUSH1 0x1F DUP4 GT PUSH1 0x1 DUP2 EQ PUSH3 0x5D0 JUMPI PUSH1 0x0 DUP5 ISZERO PUSH3 0x5BB JUMPI DUP3 DUP8 ADD MLOAD SWAP1 POP JUMPDEST PUSH3 0x5C7 DUP6 DUP3 PUSH3 0x53A JUMP JUMPDEST DUP7 SSTORE POP PUSH3 0x637 JUMP JUMPDEST PUSH1 0x1F NOT DUP5 AND PUSH3 0x5E0 DUP7 PUSH3 0x386 JUMP JUMPDEST PUSH1 0x0 JUMPDEST DUP3 DUP2 LT ISZERO PUSH3 0x60A JUMPI DUP5 DUP10 ADD MLOAD DUP3 SSTORE PUSH1 0x1 DUP3 ADD SWAP2 POP PUSH1 0x20 DUP6 ADD SWAP5 POP PUSH1 0x20 DUP2 ADD SWAP1 POP PUSH3 0x5E3 JUMP JUMPDEST DUP7 DUP4 LT ISZERO PUSH3 0x62A JUMPI DUP5 DUP10 ADD MLOAD PUSH3 0x626 PUSH1 0x1F DUP10 AND DUP3 PUSH3 0x51A JUMP JUMPDEST DUP4 SSTORE POP JUMPDEST PUSH1 0x1 PUSH1 0x2 DUP9 MUL ADD DUP9 SSTORE POP POP POP JUMPDEST POP POP POP POP POP POP JUMP JUMPDEST PUSH2 0x421 DUP1 PUSH3 0x64F PUSH1 0x0 CODECOPY PUSH1 0x0 RETURN INVALID PUSH1 0x80 PUSH1 0x40 MSTORE CALLVALUE DUP1 ISZERO PUSH2 0x10 JUMPI PUSH1 0x0 DUP1 REVERT JUMPDEST POP PUSH1 0x4 CALLDATASIZE LT PUSH2 0x4C JUMPI PUSH1 0x0 CALLDATALOAD PUSH1 0xE0 SHR DUP1 PUSH4 0x6FDDE03 EQ PUSH2 0x51 JUMPI DUP1 PUSH4 0x18160DDD EQ PUSH2 0x6F JUMPI DUP1 PUSH4 0x27E235E3 EQ PUSH2 0x8D JUMPI DUP1 PUSH4 0x95D89B41 EQ PUSH2 0xBD JUMPI JUMPDEST PUSH1 0x0 DUP1 REVERT JUMPDEST PUSH2 0x59 PUSH2 0xDB JUMP JUMPDEST PUSH1 0x40 MLOAD PUSH2 0x66 SWAP2 SWAP1 PUSH2 0x2A5 JUMP JUMPDEST PUSH1 0x40 MLOAD DUP1 SWAP2 SUB SWAP1 RETURN JUMPDEST PUSH2 0x77 PUSH2 0x169 JUMP JUMPDEST PUSH1 0x40 MLOAD PUSH2 0x84 SWAP2 SWAP1 PUSH2 0x2E0 JUMP JUMPDEST PUSH1 0x40 MLOAD DUP1 SWAP2 SUB SWAP1 RETURN JUMPDEST PUSH2 0xA7 PUSH1 0x4 DUP1 CALLDATASIZE SUB DUP2 ADD SWAP1 PUSH2 0xA2 SWAP2 SWAP1 PUSH2 0x35E JUMP JUMPDEST PUSH2 0x16F JUMP JUMPDEST PUSH1 0x40 MLOAD PUSH2 0xB4 SWAP2 SWAP1 PUSH2 0x2E0 JUMP JUMPDEST PUSH1 0x40 MLOAD DUP1 SWAP2 SUB SWAP1 RETURN JUMPDEST PUSH2 0xC5 PUSH2 0x187 JUMP JUMPDEST PUSH1 0x40 MLOAD PUSH2 0xD2 SWAP2 SWAP1 PUSH2 0x2A5 JUMP JUMPDEST PUSH1 0x40 MLOAD DUP1 SWAP2 SUB SWAP1 RETURN JUMPDEST PUSH1 0x0 DUP1 SLOAD PUSH2 0xE8 SWAP1 PUSH2 0x3BA JUMP JUMPDEST DUP1 PUSH1 0x1F ADD PUSH1 0x20 DUP1 SWAP2 DIV MUL PUSH1 0x20 ADD PUSH1 0x40 MLOAD SWAP1 DUP2 ADD PUSH1 0x40 MSTORE DUP1 SWAP3 SWAP2 SWAP1 DUP2 DUP2 MSTORE PUSH1 0x20 ADD DUP3 DUP1 SLOAD PUSH2 0x114 SWAP1 PUSH2 0x3BA JUMP JUMPDEST DUP1 ISZERO PUSH2 0x161 JUMPI DUP1 PUSH1 0x1F LT PUSH2 0x136 JUMPI PUSH2 0x100 DUP1 DUP4 SLOAD DIV MUL DUP4 MSTORE SWAP2 PUSH1 0x20 ADD SWAP2 PUSH2 0x161 JUMP JUMPDEST DUP3 ADD SWAP2 SWAP1 PUSH1 0x0 MSTORE PUSH1 0x20 PUSH1 0x0 KECCAK256 SWAP1 JUMPDEST DUP2 SLOAD DUP2 MSTORE SWAP1 PUSH1 0x1 ADD SWAP1 PUSH1 0x20 ADD DUP1 DUP4 GT PUSH2 0x144 JUMPI DUP3 SWAP1 SUB PUSH1 0x1F AND DUP3 ADD SWAP2 JUMPDEST POP POP POP POP POP DUP2 JUMP JUMPDEST PUSH1 0x2 SLOAD DUP2 JUMP JUMPDEST PUSH1 0x3 PUSH1 0x20 MSTORE DUP1 PUSH1 0x0 MSTORE PUSH1 0x40 PUSH1 0x0 KECCAK256 PUSH1 0x0 SWAP2 POP SWAP1 POP SLOAD DUP2 JUMP JUMPDEST PUSH1 0x1 DUP1 SLOAD PUSH2 0x194 SWAP1 PUSH2 0x3BA JUMP JUMPDEST DUP1 PUSH1 0x1F ADD PUSH1 0x20 DUP1 SWAP2 DIV MUL PUSH1 0x20 ADD PUSH1 0x40 MLOAD SWAP1 DUP2 ADD PUSH1 0x40 MSTORE DUP1 SWAP3 SWAP2 SWAP1 DUP2 DUP2 MSTORE PUSH1 0x20 ADD DUP3 DUP1 SLOAD PUSH2 0x1C0 SWAP1 PUSH2 0x3BA JUMP JUMPDEST DUP1 ISZERO PUSH2 0x20D JUMPI DUP1 PUSH1 0x1F LT PUSH2 0x1E2 JUMPI PUSH2 0x100 DUP1 DUP4 SLOAD DIV MUL DUP4 MSTORE SWAP2 PUSH1 0x20 ADD SWAP2 PUSH2 0x20D JUMP JUMPDEST DUP3 ADD SWAP2 SWAP1 PUSH1 0x0 MSTORE PUSH1 0x20 PUSH1 0x0 KECCAK256 SWAP1 JUMPDEST DUP2 SLOAD DUP2 MSTORE SWAP1 PUSH1 0x1 ADD SWAP1 PUSH1 0x20 ADD DUP1 DUP4 GT PUSH2 0x1F0 JUMPI DUP3 SWAP1 SUB PUSH1 0x1F AND DUP3 ADD SWAP2 JUMPDEST POP POP POP POP POP DUP2 JUMP JUMPDEST PUSH1 0x0 DUP2 MLOAD SWAP1 POP SWAP2 SWAP1 POP JUMP JUMPDEST PUSH1 0x0 DUP3 DUP3 MSTORE PUSH1 0x20 DUP3 ADD SWAP1 POP SWAP3 SWAP2 POP POP JUMP JUMPDEST PUSH1 0x0 JUMPDEST DUP4 DUP2 LT ISZERO PUSH2 0x24F JUMPI DUP1 DUP3 ADD MLOAD DUP2 DUP5 ADD MSTORE PUSH1 0x20 DUP2 ADD SWAP1 POP PUSH2 0x234 JUMP JUMPDEST PUSH1 0x0 DUP5 DUP5 ADD MSTORE POP POP POP POP JUMP JUMPDEST PUSH1 0x0 PUSH1 0x1F NOT PUSH1 0x1F DUP4 ADD AND SWAP1 POP SWAP2 SWAP1 POP JUMP JUMPDEST PUSH1 0x0 PUSH2 0x277 DUP3 PUSH2 0x215 JUMP JUMPDEST PUSH2 0x281 DUP2 DUP6 PUSH2 0x220 JUMP JUMPDEST SWAP4 POP PUSH2 0x291 DUP2 DUP6 PUSH1 0x20 DUP7 ADD PUSH2 0x231 JUMP JUMPDEST PUSH2 0x29A DUP2 PUSH2 0x25B JUMP JUMPDEST DUP5 ADD SWAP2 POP POP SWAP3 SWAP2 POP POP JUMP JUMPDEST PUSH1 0x0 PUSH1 0x20 DUP3 ADD SWAP1 POP DUP2 DUP2 SUB PUSH1 0x0 DUP4 ADD MSTORE PUSH2 0x2BF DUP2 DUP5 PUSH2 0x26C JUMP JUMPDEST SWAP1 POP SWAP3 SWAP2 POP POP JUMP JUMPDEST PUSH1 0x0 DUP2 SWAP1 POP SWAP2 SWAP1 POP JUMP JUMPDEST PUSH2 0x2DA DUP2 PUSH2 0x2C7 JUMP JUMPDEST DUP3 MSTORE POP POP JUMP JUMPDEST PUSH1 0x0 PUSH1 0x20 DUP3 ADD SWAP1 POP PUSH2 0x2F5 PUSH1 0x0 DUP4 ADD DUP5 PUSH2 0x2D1 JUMP JUMPDEST SWAP3 SWAP2 POP POP JUMP JUMPDEST PUSH1 0x0 DUP1 REVERT JUMPDEST PUSH1 0x0 PUSH20 0xFFFFFFFFFFFFFFFFFFFFFFFFFFFFFFFFFFFFFFFF DUP3 AND SWAP1 POP SWAP2 SWAP1 POP JUMP JUMPDEST PUSH1 0x0 PUSH2 0x32B DUP3 PUSH2 0x300 JUMP JUMPDEST SWAP1 POP SWAP2 SWAP1 POP JUMP JUMPDEST PUSH2 0x33B DUP2 PUSH2 0x320 JUMP JUMPDEST DUP2 EQ PUSH2 0x346 JUMPI PUSH1 0x0 DUP1 REVERT JUMPDEST POP JUMP JUMPDEST PUSH1 0x0 DUP2 CALLDATALOAD SWAP1 POP PUSH2 0x358 DUP2 PUSH2 0x332 JUMP JUMPDEST SWAP3 SWAP2 POP POP JUMP JUMPDEST PUSH1 0x0 PUSH1 0x20 DUP3 DUP5 SUB SLT ISZERO PUSH2 0x374 JUMPI PUSH2 0x373 PUSH2 0x2FB JUMP JUMPDEST JUMPDEST PUSH1 0x0 PUSH2 0x382 DUP5 DUP3 DUP6 ADD PUSH2 0x349 JUMP JUMPDEST SWAP2 POP POP SWAP3 SWAP2 POP POP JUMP JUMPDEST PUSH32 0x4E487B7100000000000000000000000000000000000000000000000000000000 PUSH1 0x0 MSTORE PUSH1 0x22 PUSH1 0x4 MSTORE PUSH1 0x24 PUSH1 0x0 REVERT JUMPDEST PUSH1 0x0 PUSH1 0x2 DUP3 DIV SWAP1 POP PUSH1 0x1 DUP3 AND DUP1 PUSH2 0x3D2 JUMPI PUSH1 0x7F DUP3 AND SWAP2 POP JUMPDEST PUSH1 0x20 DUP3 LT DUP2 SUB PUSH2 0x3E5 JUMPI PUSH2 0x3E4 PUSH2 0x38B JUMP JUMPDEST JUMPDEST POP SWAP2 SWAP1 POP JUMP INVALID LOG2 PUSH5 0x6970667358 0x22 SLT KECCAK256 PUSH12 0xF7787B832D77A63AC38688FF 0xBE 0xD1 CODESIZE SSTORE PUSH20 0xBDB7242035D5E46B02904564FCE764736F6C6343 STOP ADDMOD SLT STOP CALLER LOG2 PUSH5 0x6970667358 0x22 SLT KECCAK256 PUSH20 0x812DA029D449FB710DB5FAF087A3650DDA2A2DE0 LOG4 0xB8 PUSH8 0xABB70578F95C2004 PUSH5 0x736F6C6343 STOP ADDMOD SLT STOP CALLER "
		},
		"gasEstimates": {
			"creation": {
				"codeDepositCost": "758800",
				"executionCost": "792",
				"totalCost": "759592"
			},
			"external": {
				"createToken(string,string,uint256)": "infinite"
			}
		},
		"methodIdentifiers": {
			"createToken(string,string,uint256)": "5b060530"
		}
	},
	"abi": [
		{
			"anonymous": false,
			"inputs": [
				{
					"indexed": true,
					"internalType": "address",
					"name": "tokenAddress",
					"type": "address"
				},
				{
					"indexed": false,
					"internalType": "string",
					"name": "name",
					"type": "string"
				},
				{
					"indexed": false,
					"internalType": "string",
					"name": "symbol",
					"type": "string"
				},
				{
					"indexed": false,
					"internalType": "uint256",
					"name": "totalSupply",
					"type": "uint256"
				}
			],
			"name": "TokenCreated",
			"type": "event"
		},
		{
			"inputs": [
				{
					"internalType": "string",
					"name": "_name",
					"type": "string"
				},
				{
					"internalType": "string",
					"name": "_symbol",
					"type": "string"
				},
				{
					"internalType": "uint256",
					"name": "_totalSupply",
					"type": "uint256"
				}
			],
			"name": "createToken",
			"outputs": [],
			"stateMutability": "nonpayable",
			"type": "function"
		}
	]
}